gpasm-1.5.2 #1325 (Apr  3 2022)   ps22spi.asm   04/13/22  09:00:55          PAGE  1


LOC    OBJECT CODE    LINE  SOURCE TEXT
  VALUE

                      00001 ;******************************************************************************
                      00002 ; Processor: PIC16F628 at 4 MHz using internal RC oscillator
                      00003 ; Function:  PS2 to SPI
                      00004 ; Filename:  ps22spi.asm
                      00005 ; Author:    Michael Kaa
                      00006 ;******************************************************************************
                      00007         LIST P=16F628A, R=DEC    ; Use the PIC16F628 and decimal system
                      00008 
                      00009         #include "P16F628A.INC"  ; Include header file
Warning[231]: Found lower case match for include filename.
                      00001         LIST
                      00002 
                      00003 ;==========================================================================
                      00004 ; Build date : Oct 21 2015
                      00005 ;  MPASM PIC16F628A processor include
                      00006 ; 
                      00007 ;  (c) Copyright 1999-2015 Microchip Technology, All rights reserved
                      00008 ;==========================================================================
                      00009 
                      00386         LIST
                      00010 
2007   3F70           00011         __config  _INTRC_OSC_NOCLKOUT & _LVP_OFF & _WDT_OFF & _PWRTE_ON & _BODEN_ON
                      00012 
                      00013         CBLOCK 0x20             ; Declare variable addresses starting at 0x20
  00000020            00014           Loop1, Loop2, zx_buttons, zx_cord_x, zx_cord_y, w_temp, status_temp, ps_data, ps_cnt
                      00015         ENDC
                      00016 
                      00017 ; SPI PORT
                      00018 ;outputs
                      00019 #define SPI_NSS         PORTA,0
                      00020 #define SPI_MOSI        PORTA,1
                      00021 #define SPI_CLK         PORTA,2
                      00022 #define RB2             PORTB,2
                      00023 ; inputs
                      00024 #define MBUSY           PORTA,3
                      00025 #define PS_CLK          PORTB,0
                      00026 #define PS_DAT          PORTB,3
                      00027 
0000                  00028         ORG     0x000           ; Program starts at 0x000
0000   2813           00029         goto    Init
                      00030 
0004                  00031         ORG     0x04            ; interrupt vector
Message[1302]: RAM Bank undefined in this chunk of code. Ensure that bank bits are correct. Assuming bank 0 from now on.
0004   00A5           00032         movwf   w_temp          ; save W register contents
0005   0803           00033         movf    STATUS, w       ; move status register into W 
0006   00A6           00034         movwf   status_temp     ; save STATUS register
                      00035         
Message[305]: Using default destination of 1 (file).
0007   0DA7           00036         rlf     ps_data
0008   1427           00037         bsf     ps_data,0
0009   1D86           00038         btfss   PS_DAT
000A   1027           00039         bcf     ps_data,0
                      00040 
gpasm-1.5.2 #1325 (Apr  3 2022)   ps22spi.asm   04/13/22  09:00:55          PAGE  2


LOC    OBJECT CODE    LINE  SOURCE TEXT
  VALUE

000B   3001           00041         movlw   1
000C   07A8           00042         addwf   ps_cnt, f
                      00043 
000D   108B           00044         BCF     INTCON, INTF    ; CLR IRQ flag
000E   0826           00045         movf    status_temp,w   ; retrieve STATUS register
000F   0083           00046         movwf   STATUS          ; restore STATUS register 
0010   0EA5           00047         swapf   w_temp,f
0011   0E25           00048         swapf   w_temp,w        ; restore W register 
0012   0009           00049         RETFIE                  ; return from interrupt
                      00050 
0013                  00051 Init
0013   1283           00052         BCF     STATUS,RP0      ; RAM bank 0
Message[1302]: RAM Bank undefined in this chunk of code. Ensure that bank bits are correct. Assuming bank 0 from now on.
0014   0185           00053         CLRF    PORTA           ; Initialize port A
0015   0186           00054         CLRF    PORTB           ; Initialize port B
                      00055 
0016   1683           00056         BSF     STATUS,RP0      ; RAM bank 1 
                      00057         ; 0 - output, 1 -input 
0017   30F8           00058         movlw   b'11111000'     
0018   0085           00059         movwf   TRISA
0019   30FB           00060         movlw   b'11111011'
001A   0086           00061         movwf   TRISB
                      00062         
001B   30AA           00063         movlw   b'10101010'
001C   00A7           00064         movwf   ps_data
                      00065 
001D   178B           00066         BSF     INTCON, 7       ; Enable global interrupt
001E   160B           00067         BSF     INTCON, 4       ; Enable RB0 external interrupt
                      00068 
                      00069 ; FUNCTION OF PORT A PINS
001F   1283           00070         bcf     STATUS,RP0      ; RAM bank 0
0020   1303           00071         bcf     STATUS, INTEDG
0021   3007           00072         MOVLW   7
0022   009F           00073         MOVWF   CMCON           ; Comparators off, all pins digital I/O
                      00074 
                      00075 ; Init vars
0023   30FF           00076         movlw   b'11111111'     ; Инициализация при старте
0024   00A2           00077         movwf   zx_buttons      ; Кнопки кепмстон мышки
0025   00A3           00078         movwf   zx_cord_x       ; Координата X
0026   00A4           00079         movwf   zx_cord_y       ; Координата Y
0027   2032           00080         call    spi_tx          ; Загрузим данные в CPLD
                      00081 
                      00082 ; Main loop
0028                  00083 Main    
                      00084         ;MOVLW   1
                      00085         ;addwf   zx_cord_x,f
                      00086         ;addwf   zx_cord_y,f
                      00087         ;addwf   zx_buttons,f
Message[1302]: RAM Bank undefined in this chunk of code. Ensure that bank bits are correct. Assuming bank 0 from now on.
0028   0828           00088         movf    ps_cnt, 0
0029   00A4           00089         movwf   zx_cord_y
                      00090 
002A   0827           00091         movf    ps_data, 0
gpasm-1.5.2 #1325 (Apr  3 2022)   ps22spi.asm   04/13/22  09:00:55          PAGE  3


LOC    OBJECT CODE    LINE  SOURCE TEXT
  VALUE

002B   00A3           00092         movwf   zx_cord_x
                      00093 
002C   2032           00094         call    spi_tx
                      00095         
Message[1302]: RAM Bank undefined in this chunk of code. Ensure that bank bits are correct. Assuming bank 0 from now on.
002D   1106           00096         bcf     RB2
002E   20BC           00097         call    delay
Message[1302]: RAM Bank undefined in this chunk of code. Ensure that bank bits are correct. Assuming bank 0 from now on.
002F   1506           00098         bsf     RB2
0030   20BC           00099         call    delay
                      00100         ;call    delay
0031   2828           00101         GOTO    Main
                      00102 
                      00103 ; SPI send data
0032                  00104 spi_tx  
Message[1302]: RAM Bank undefined in this chunk of code. Ensure that bank bits are correct. Assuming bank 0 from now on.
0032   1D85           00105         btfss   MBUSY
0033   2832           00106         goto    spi_tx
                      00107 
0034   1005           00108         BCF     SPI_NSS
                      00109         ; tx zx_cord_y
0035   1505           00110         BSF     SPI_CLK
0036   1BA4           00111         btfsc   zx_cord_y,7
0037   1485           00112         BSF     SPI_MOSI
0038   1FA4           00113         btfss   zx_cord_y,7
0039   1085           00114         BCF     SPI_MOSI
003A   1105           00115         BCF     SPI_CLK
                      00116 
003B   1505           00117         BSF     SPI_CLK
003C   1B24           00118         btfsc   zx_cord_y,6
003D   1485           00119         BSF     SPI_MOSI
003E   1F24           00120         btfss   zx_cord_y,6
003F   1085           00121         BCF     SPI_MOSI
0040   1105           00122         BCF     SPI_CLK
                      00123 
0041   1505           00124         BSF     SPI_CLK
0042   1AA4           00125         btfsc   zx_cord_y,5
0043   1485           00126         BSF     SPI_MOSI
0044   1EA4           00127         btfss   zx_cord_y,5
0045   1085           00128         BCF     SPI_MOSI
0046   1105           00129         BCF     SPI_CLK
                      00130 
0047   1505           00131         BSF     SPI_CLK
0048   1A24           00132         btfsc   zx_cord_y,4
0049   1485           00133         BSF     SPI_MOSI
004A   1E24           00134         btfss   zx_cord_y,4
004B   1085           00135         BCF     SPI_MOSI
004C   1105           00136         BCF     SPI_CLK
                      00137 
004D   1505           00138         BSF     SPI_CLK
004E   19A4           00139         btfsc   zx_cord_y,3
004F   1485           00140         BSF     SPI_MOSI
0050   1DA4           00141         btfss   zx_cord_y,3
gpasm-1.5.2 #1325 (Apr  3 2022)   ps22spi.asm   04/13/22  09:00:55          PAGE  4


LOC    OBJECT CODE    LINE  SOURCE TEXT
  VALUE

0051   1085           00142         BCF     SPI_MOSI
0052   1105           00143         BCF     SPI_CLK
                      00144 
0053   1505           00145         BSF     SPI_CLK
0054   1924           00146         btfsc   zx_cord_y,2
0055   1485           00147         BSF     SPI_MOSI
0056   1D24           00148         btfss   zx_cord_y,2
0057   1085           00149         BCF     SPI_MOSI
0058   1105           00150         BCF     SPI_CLK
                      00151 
0059   1505           00152         BSF     SPI_CLK
005A   18A4           00153         btfsc   zx_cord_y,1
005B   1485           00154         BSF     SPI_MOSI
005C   1CA4           00155         btfss   zx_cord_y,1
005D   1085           00156         BCF     SPI_MOSI
005E   1105           00157         BCF     SPI_CLK
                      00158 
005F   1505           00159         BSF     SPI_CLK
0060   1824           00160         btfsc   zx_cord_y,0
0061   1485           00161         BSF     SPI_MOSI
0062   1C24           00162         btfss   zx_cord_y,0
0063   1085           00163         BCF     SPI_MOSI
0064   1105           00164         BCF     SPI_CLK
                      00165         ; tx zx_cord_x
0065   1505           00166         BSF     SPI_CLK
0066   1BA3           00167         btfsc   zx_cord_x,7
0067   1485           00168         BSF     SPI_MOSI
0068   1FA3           00169         btfss   zx_cord_x,7
0069   1085           00170         BCF     SPI_MOSI
006A   1105           00171         BCF     SPI_CLK
                      00172 
006B   1505           00173         BSF     SPI_CLK
006C   1B23           00174         btfsc   zx_cord_x,6
006D   1485           00175         BSF     SPI_MOSI
006E   1F23           00176         btfss   zx_cord_x,6
006F   1085           00177         BCF     SPI_MOSI
0070   1105           00178         BCF     SPI_CLK
                      00179 
0071   1505           00180         BSF     SPI_CLK
0072   1AA3           00181         btfsc   zx_cord_x,5
0073   1485           00182         BSF     SPI_MOSI
0074   1EA3           00183         btfss   zx_cord_x,5
0075   1085           00184         BCF     SPI_MOSI
0076   1105           00185         BCF     SPI_CLK
                      00186 
0077   1505           00187         BSF     SPI_CLK
0078   1A23           00188         btfsc   zx_cord_x,4
0079   1485           00189         BSF     SPI_MOSI
007A   1E23           00190         btfss   zx_cord_x,4
007B   1085           00191         BCF     SPI_MOSI
007C   1105           00192         BCF     SPI_CLK
                      00193 
007D   1505           00194         BSF     SPI_CLK
gpasm-1.5.2 #1325 (Apr  3 2022)   ps22spi.asm   04/13/22  09:00:55          PAGE  5


LOC    OBJECT CODE    LINE  SOURCE TEXT
  VALUE

007E   19A3           00195         btfsc   zx_cord_x,3
007F   1485           00196         BSF     SPI_MOSI
0080   1DA3           00197         btfss   zx_cord_x,3
0081   1085           00198         BCF     SPI_MOSI
0082   1105           00199         BCF     SPI_CLK
                      00200 
0083   1505           00201         BSF     SPI_CLK
0084   1923           00202         btfsc   zx_cord_x,2
0085   1485           00203         BSF     SPI_MOSI
0086   1D23           00204         btfss   zx_cord_x,2
0087   1085           00205         BCF     SPI_MOSI
0088   1105           00206         BCF     SPI_CLK
                      00207 
0089   1505           00208         BSF     SPI_CLK
008A   18A3           00209         btfsc   zx_cord_x,1
008B   1485           00210         BSF     SPI_MOSI
008C   1CA3           00211         btfss   zx_cord_x,1
008D   1085           00212         BCF     SPI_MOSI
008E   1105           00213         BCF     SPI_CLK
                      00214 
008F   1505           00215         BSF     SPI_CLK
0090   1823           00216         btfsc   zx_cord_x,0
0091   1485           00217         BSF     SPI_MOSI
0092   1C23           00218         btfss   zx_cord_x,0
0093   1085           00219         BCF     SPI_MOSI
0094   1105           00220         BCF     SPI_CLK
                      00221 
                      00222         ; tx zx_buttons
0095   1505           00223         BSF     SPI_CLK
0096   1BA2           00224         btfsc   zx_buttons,7
0097   1485           00225         BSF     SPI_MOSI
0098   1FA2           00226         btfss   zx_buttons,7
0099   1085           00227         BCF     SPI_MOSI
009A   1105           00228         BCF     SPI_CLK
                      00229 
009B   1505           00230         BSF     SPI_CLK
009C   1B22           00231         btfsc   zx_buttons,6
009D   1485           00232         BSF     SPI_MOSI
009E   1F22           00233         btfss   zx_buttons,6
009F   1085           00234         BCF     SPI_MOSI
00A0   1105           00235         BCF     SPI_CLK
                      00236 
00A1   1505           00237         BSF     SPI_CLK
00A2   1AA2           00238         btfsc   zx_buttons,5
00A3   1485           00239         BSF     SPI_MOSI
00A4   1EA2           00240         btfss   zx_buttons,5
00A5   1085           00241         BCF     SPI_MOSI
00A6   1105           00242         BCF     SPI_CLK
                      00243 
00A7   1505           00244         BSF     SPI_CLK
00A8   1A22           00245         btfsc   zx_buttons,4
00A9   1485           00246         BSF     SPI_MOSI
00AA   1E22           00247         btfss   zx_buttons,4
gpasm-1.5.2 #1325 (Apr  3 2022)   ps22spi.asm   04/13/22  09:00:55          PAGE  6


LOC    OBJECT CODE    LINE  SOURCE TEXT
  VALUE

00AB   1085           00248         BCF     SPI_MOSI
00AC   1105           00249         BCF     SPI_CLK
                      00250 
00AD   1505           00251         BSF     SPI_CLK
00AE   18A2           00252         btfsc   zx_buttons,1
00AF   1485           00253         BSF     SPI_MOSI
00B0   1CA2           00254         btfss   zx_buttons,1
00B1   1085           00255         BCF     SPI_MOSI
00B2   1105           00256         BCF     SPI_CLK
                      00257 
00B3   1505           00258         BSF     SPI_CLK
00B4   1822           00259         btfsc   zx_buttons,0
00B5   1485           00260         BSF     SPI_MOSI
00B6   1C22           00261         btfss   zx_buttons,0
00B7   1085           00262         BCF     SPI_MOSI
00B8   1105           00263         BCF     SPI_CLK
00B9   0000           00264         nop
00BA   1405           00265         BSF     SPI_NSS
00BB   0008           00266         RETURN
                      00267 
                      00268 ; delay 250 mS
00BC   30FA           00269 delay   MOVLW   250
Message[1302]: RAM Bank undefined in this chunk of code. Ensure that bank bits are correct. Assuming bank 0 from now on.
00BD   00A0           00270         MOVWF   Loop1
00BE   30C8           00271 Outer   MOVLW   200
00BF   00A1           00272         MOVWF   Loop2
00C0   0000           00273 Inner   NOP
00C1   0000           00274         NOP
00C2   0BA1           00275         DECFSZ  Loop2,F
00C3   28C0           00276         GOTO    Inner          ; Inner loop = 5 usec.
00C4   0BA0           00277         DECFSZ  Loop1,F
00C5   28BE           00278         GOTO    Outer
00C6   0008           00279         RETURN
                      00280 
                      00281         END
gpasm-1.5.2 #1325 (Apr  3 2022)   ps22spi.asm   04/13/22  09:00:55          PAGE  7


SYMBOL TABLE
  LABEL                              TYPE        VALUE         VALUE          VALUE
                                                 (hex)         (dec)          (text)

ADDEN                             CONSTANT      00000003              3
ADEN                              CONSTANT      00000003              3
BRGH                              CONSTANT      00000002              2
C                                 CONSTANT      00000000              0
C1INV                             CONSTANT      00000004              4
C1OUT                             CONSTANT      00000006              6
C2INV                             CONSTANT      00000005              5
C2OUT                             CONSTANT      00000007              7
CCP1CON                           CONSTANT      00000017             23
CCP1IE                            CONSTANT      00000002              2
CCP1IF                            CONSTANT      00000002              2
CCP1M0                            CONSTANT      00000000              0
CCP1M1                            CONSTANT      00000001              1
CCP1M2                            CONSTANT      00000002              2
CCP1M3                            CONSTANT      00000003              3
CCP1X                             CONSTANT      00000005              5
CCP1Y                             CONSTANT      00000004              4
CCPR1                             CONSTANT      00000015             21
CCPR1H                            CONSTANT      00000016             22
CCPR1L                            CONSTANT      00000015             21
CIS                               CONSTANT      00000003              3
CM0                               CONSTANT      00000000              0
CM1                               CONSTANT      00000001              1
CM2                               CONSTANT      00000002              2
CMCON                             CONSTANT      0000001F             31
CMIE                              CONSTANT      00000006              6
CMIF                              CONSTANT      00000006              6
CREN                              CONSTANT      00000004              4
CSRC                              CONSTANT      00000007              7
DATA_CP_OFF                       CONSTANT      00003FFF          16383
DATA_CP_ON                        CONSTANT      00003EFF          16127
DC                                CONSTANT      00000001              1
EEADR                             CONSTANT      0000009B            155
EECON1                            CONSTANT      0000009C            156
EECON2                            CONSTANT      0000009D            157
EEDATA                            CONSTANT      0000009A            154
EEIE                              CONSTANT      00000007              7
EEIF                              CONSTANT      00000007              7
F                                 CONSTANT      00000001              1
FERR                              CONSTANT      00000002              2
FSR                               CONSTANT      00000004              4
GIE                               CONSTANT      00000007              7
INDF                              CONSTANT      00000000              0
INTCON                            CONSTANT      0000000B             11
INTE                              CONSTANT      00000004              4
INTEDG                            CONSTANT      00000006              6
INTF                              CONSTANT      00000001              1
IRP                               CONSTANT      00000007              7
Init                              ADDRESS       00000013             19
Inner                             ADDRESS       000000C0            192
Loop1                             CBLOCK        00000020             32
Loop2                             CBLOCK        00000021             33
gpasm-1.5.2 #1325 (Apr  3 2022)   ps22spi.asm   04/13/22  09:00:55          PAGE  8


SYMBOL TABLE
  LABEL                              TYPE        VALUE         VALUE          VALUE
                                                 (hex)         (dec)          (text)

MBUSY                             DEFINITION                               PORTA,3
Main                              ADDRESS       00000028             40
NOT_BO                            CONSTANT      00000000              0
NOT_BOD                           CONSTANT      00000000              0
NOT_BOR                           CONSTANT      00000000              0
NOT_PD                            CONSTANT      00000003              3
NOT_POR                           CONSTANT      00000001              1
NOT_RBPU                          CONSTANT      00000007              7
NOT_T1SYNC                        CONSTANT      00000002              2
NOT_TO                            CONSTANT      00000004              4
OERR                              CONSTANT      00000001              1
OPTION_REG                        CONSTANT      00000081            129
OSCF                              CONSTANT      00000003              3
Outer                             ADDRESS       000000BE            190
PCL                               CONSTANT      00000002              2
PCLATH                            CONSTANT      0000000A             10
PCON                              CONSTANT      0000008E            142
PEIE                              CONSTANT      00000006              6
PIE1                              CONSTANT      0000008C            140
PIR1                              CONSTANT      0000000C             12
PORTA                             CONSTANT      00000005              5
PORTB                             CONSTANT      00000006              6
PR2                               CONSTANT      00000092            146
PS0                               CONSTANT      00000000              0
PS1                               CONSTANT      00000001              1
PS2                               CONSTANT      00000002              2
PSA                               CONSTANT      00000003              3
PS_CLK                            DEFINITION                               PORTB,0
PS_DAT                            DEFINITION                               PORTB,3
RA0                               CONSTANT      00000000              0
RA1                               CONSTANT      00000001              1
RA2                               CONSTANT      00000002              2
RA3                               CONSTANT      00000003              3
RA4                               CONSTANT      00000004              4
RA5                               CONSTANT      00000005              5
RA6                               CONSTANT      00000006              6
RA7                               CONSTANT      00000007              7
RB0                               CONSTANT      00000000              0
RB1                               CONSTANT      00000001              1
RB2                               CONSTANT      00000002              2
RB2                               DEFINITION                               PORTB,2
RB3                               CONSTANT      00000003              3
RB4                               CONSTANT      00000004              4
RB5                               CONSTANT      00000005              5
RB6                               CONSTANT      00000006              6
RB7                               CONSTANT      00000007              7
RBIE                              CONSTANT      00000003              3
RBIF                              CONSTANT      00000000              0
RCIE                              CONSTANT      00000005              5
RCIF                              CONSTANT      00000005              5
RCREG                             CONSTANT      0000001A             26
RCSTA                             CONSTANT      00000018             24
gpasm-1.5.2 #1325 (Apr  3 2022)   ps22spi.asm   04/13/22  09:00:55          PAGE  9


SYMBOL TABLE
  LABEL                              TYPE        VALUE         VALUE          VALUE
                                                 (hex)         (dec)          (text)

RD                                CONSTANT      00000000              0
RP0                               CONSTANT      00000005              5
RP1                               CONSTANT      00000006              6
RX9                               CONSTANT      00000006              6
RX9D                              CONSTANT      00000000              0
SPBRG                             CONSTANT      00000099            153
SPEN                              CONSTANT      00000007              7
SPI_CLK                           DEFINITION                               PORTA,2
SPI_MOSI                          DEFINITION                               PORTA,1
SPI_NSS                           DEFINITION                               PORTA,0
SREN                              CONSTANT      00000005              5
STATUS                            CONSTANT      00000003              3
SYNC                              CONSTANT      00000004              4
T0CS                              CONSTANT      00000005              5
T0IE                              CONSTANT      00000005              5
T0IF                              CONSTANT      00000002              2
T0SE                              CONSTANT      00000004              4
T1CKPS0                           CONSTANT      00000004              4
T1CKPS1                           CONSTANT      00000005              5
T1CON                             CONSTANT      00000010             16
T1OSCEN                           CONSTANT      00000003              3
T2CKPS0                           CONSTANT      00000000              0
T2CKPS1                           CONSTANT      00000001              1
T2CON                             CONSTANT      00000012             18
TMR0                              CONSTANT      00000001              1
TMR0IE                            CONSTANT      00000005              5
TMR0IF                            CONSTANT      00000002              2
TMR1                              CONSTANT      0000000E             14
TMR1CS                            CONSTANT      00000001              1
TMR1H                             CONSTANT      0000000F             15
TMR1IE                            CONSTANT      00000000              0
TMR1IF                            CONSTANT      00000000              0
TMR1L                             CONSTANT      0000000E             14
TMR1ON                            CONSTANT      00000000              0
TMR2                              CONSTANT      00000011             17
TMR2IE                            CONSTANT      00000001              1
TMR2IF                            CONSTANT      00000001              1
TMR2ON                            CONSTANT      00000002              2
TOUTPS0                           CONSTANT      00000003              3
TOUTPS1                           CONSTANT      00000004              4
TOUTPS2                           CONSTANT      00000005              5
TOUTPS3                           CONSTANT      00000006              6
TRISA                             CONSTANT      00000085            133
TRISA0                            CONSTANT      00000000              0
TRISA1                            CONSTANT      00000001              1
TRISA2                            CONSTANT      00000002              2
TRISA3                            CONSTANT      00000003              3
TRISA4                            CONSTANT      00000004              4
TRISA5                            CONSTANT      00000005              5
TRISA6                            CONSTANT      00000006              6
TRISA7                            CONSTANT      00000007              7
TRISB                             CONSTANT      00000086            134
gpasm-1.5.2 #1325 (Apr  3 2022)   ps22spi.asm   04/13/22  09:00:55          PAGE 10


SYMBOL TABLE
  LABEL                              TYPE        VALUE         VALUE          VALUE
                                                 (hex)         (dec)          (text)

TRISB0                            CONSTANT      00000000              0
TRISB1                            CONSTANT      00000001              1
TRISB2                            CONSTANT      00000002              2
TRISB3                            CONSTANT      00000003              3
TRISB4                            CONSTANT      00000004              4
TRISB5                            CONSTANT      00000005              5
TRISB6                            CONSTANT      00000006              6
TRISB7                            CONSTANT      00000007              7
TRMT                              CONSTANT      00000001              1
TX9                               CONSTANT      00000006              6
TX9D                              CONSTANT      00000000              0
TXEN                              CONSTANT      00000005              5
TXIE                              CONSTANT      00000004              4
TXIF                              CONSTANT      00000004              4
TXREG                             CONSTANT      00000019             25
TXSTA                             CONSTANT      00000098            152
VR0                               CONSTANT      00000000              0
VR1                               CONSTANT      00000001              1
VR2                               CONSTANT      00000002              2
VR3                               CONSTANT      00000003              3
VRCON                             CONSTANT      0000009F            159
VREN                              CONSTANT      00000007              7
VROE                              CONSTANT      00000006              6
VRR                               CONSTANT      00000005              5
W                                 CONSTANT      00000000              0
WR                                CONSTANT      00000001              1
WREN                              CONSTANT      00000002              2
WRERR                             CONSTANT      00000003              3
Z                                 CONSTANT      00000002              2
_BODEN_OFF                        CONSTANT      00003FBF          16319
_BODEN_ON                         CONSTANT      00003FFF          16383
_BOREN_OFF                        CONSTANT      00003FBF          16319
_BOREN_ON                         CONSTANT      00003FFF          16383
_CONFIG                           CONSTANT      00002007           8199
_CPD_OFF                          CONSTANT      00003FFF          16383
_CPD_ON                           CONSTANT      00003EFF          16127
_CP_OFF                           CONSTANT      00003FFF          16383
_CP_ON                            CONSTANT      00001FFF           8191
_DEVID1                           CONSTANT      00002006           8198
_ER_OSC_CLKOUT                    CONSTANT      00003FFF          16383
_ER_OSC_NOCLKOUT                  CONSTANT      00003FFE          16382
_EXTCLK_OSC                       CONSTANT      00003FEF          16367
_FOSC_ECIO                        CONSTANT      00003FEF          16367
_FOSC_EXTRCCLK                    CONSTANT      00003FFF          16383
_FOSC_EXTRCIO                     CONSTANT      00003FFE          16382
_FOSC_HS                          CONSTANT      00003FEE          16366
_FOSC_INTOSCCLK                   CONSTANT      00003FFD          16381
_FOSC_INTOSCIO                    CONSTANT      00003FFC          16380
_FOSC_LP                          CONSTANT      00003FEC          16364
_FOSC_XT                          CONSTANT      00003FED          16365
_HS_OSC                           CONSTANT      00003FEE          16366
_IDLOC0                           CONSTANT      00002000           8192
gpasm-1.5.2 #1325 (Apr  3 2022)   ps22spi.asm   04/13/22  09:00:55          PAGE 11


SYMBOL TABLE
  LABEL                              TYPE        VALUE         VALUE          VALUE
                                                 (hex)         (dec)          (text)

_IDLOC1                           CONSTANT      00002001           8193
_IDLOC2                           CONSTANT      00002002           8194
_IDLOC3                           CONSTANT      00002003           8195
_INTOSC_OSC_CLKOUT                CONSTANT      00003FFD          16381
_INTOSC_OSC_NOCLKOUT              CONSTANT      00003FFC          16380
_INTRC_OSC_CLKOUT                 CONSTANT      00003FFD          16381
_INTRC_OSC_NOCLKOUT               CONSTANT      00003FFC          16380
_LP_OSC                           CONSTANT      00003FEC          16364
_LVP_OFF                          CONSTANT      00003F7F          16255
_LVP_ON                           CONSTANT      00003FFF          16383
_MCLRE_OFF                        CONSTANT      00003FDF          16351
_MCLRE_ON                         CONSTANT      00003FFF          16383
_PWRTE_OFF                        CONSTANT      00003FFF          16383
_PWRTE_ON                         CONSTANT      00003FF7          16375
_RC_OSC_CLKOUT                    CONSTANT      00003FFF          16383
_RC_OSC_NOCLKOUT                  CONSTANT      00003FFE          16382
_WDTE_OFF                         CONSTANT      00003FFB          16379
_WDTE_ON                          CONSTANT      00003FFF          16383
_WDT_OFF                          CONSTANT      00003FFB          16379
_WDT_ON                           CONSTANT      00003FFF          16383
_XT_OSC                           CONSTANT      00003FED          16365
__14_BIT                          CONSTANT      00000001              1
__16F628A                         CONSTANT      00000001              1
__ACTIVE_BANK_ADDR                VARIABLE      FFFFFFFF             -1
__ACTIVE_PAGE_ADDR                VARIABLE      FFFFFFFF             -1
__ASSUMED_BANK_ADDR               VARIABLE      FFFFFFFF             -1
__BANK_0                          CONSTANT      00000000              0
__BANK_1                          CONSTANT      00000080            128
__BANK_2                          CONSTANT      00000100            256
__BANK_3                          CONSTANT      00000180            384
__BANK_BITS                       CONSTANT      00000180            384
__BANK_FIRST                      CONSTANT      00000000              0
__BANK_INV                        CONSTANT      FFFFFFFF             -1
__BANK_LAST                       CONSTANT      00000180            384
__BANK_MASK                       CONSTANT      0000007F            127
__BANK_SHIFT                      CONSTANT      00000007              7
__BANK_SIZE                       CONSTANT      00000080            128
__CODE_END                        CONSTANT      000007FF           2047
__CODE_START                      CONSTANT      00000000              0
__COMMON_RAM_END                  CONSTANT      0000007F            127
__COMMON_RAM_START                CONSTANT      00000070            112
__CONFIG_END                      CONSTANT      00002007           8199
__CONFIG_START                    CONSTANT      00002007           8199
__EEPROM_END                      CONSTANT      0000217F           8575
__EEPROM_START                    CONSTANT      00002100           8448
__GPUTILS_SVN_VERSION             CONSTANT      0000052D           1325
__GPUTILS_VERSION_MAJOR           CONSTANT      00000001              1
__GPUTILS_VERSION_MICRO           CONSTANT      00000002              2
__GPUTILS_VERSION_MINOR           CONSTANT      00000005              5
__IDLOCS_END                      CONSTANT      00002003           8195
__IDLOCS_START                    CONSTANT      00002000           8192
__NUM_BANKS                       CONSTANT      00000004              4
gpasm-1.5.2 #1325 (Apr  3 2022)   ps22spi.asm   04/13/22  09:00:55          PAGE 12


SYMBOL TABLE
  LABEL                              TYPE        VALUE         VALUE          VALUE
                                                 (hex)         (dec)          (text)

__NUM_PAGES                       CONSTANT      00000001              1
__PAGE_0                          CONSTANT      00000000              0
__PAGE_BITS                       CONSTANT      00001800           6144
__PAGE_FIRST                      CONSTANT      00000000              0
__PAGE_INV                        CONSTANT      FFFFFFFF             -1
__PAGE_LAST                       CONSTANT      00000000              0
__PAGE_MASK                       CONSTANT      000007FF           2047
__PAGE_SHIFT                      CONSTANT      0000000B             11
__PAGE_SIZE                       CONSTANT      00000800           2048
__VECTOR_INT                      CONSTANT      00000004              4
__VECTOR_RESET                    CONSTANT      00000000              0
__WHILE_LOOP_COUNT_MAX            CONSTANT      000000FF            255
delay                             ADDRESS       000000BC            188
ps_cnt                            CBLOCK        00000028             40
ps_data                           CBLOCK        00000027             39
spi_tx                            ADDRESS       00000032             50
status_temp                       CBLOCK        00000026             38
w_temp                            CBLOCK        00000025             37
zx_buttons                        CBLOCK        00000022             34
zx_cord_x                         CBLOCK        00000023             35
zx_cord_y                         CBLOCK        00000024             36


MEMORY USAGE MAP ('X' = Used,  '-' = Unused)

0000 : X---XXXXXXXXXXXX XXXXXXXXXXXXXXXX XXXXXXXXXXXXXXXX XXXXXXXXXXXXXXXX
0040 : XXXXXXXXXXXXXXXX XXXXXXXXXXXXXXXX XXXXXXXXXXXXXXXX XXXXXXXXXXXXXXXX
0080 : XXXXXXXXXXXXXXXX XXXXXXXXXXXXXXXX XXXXXXXXXXXXXXXX XXXXXXXXXXXXXXXX
00C0 : XXXXXXX--------- ---------------- ---------------- ----------------
2000 : -------X-------- ---------------- ---------------- ----------------

All other memory blocks unused.

Program Memory Words Used:   196
Program Memory Words Free:  1852


Errors   :     0
Warnings :     1 reported,     0 suppressed
Messages :     8 reported,     0 suppressed

