ARM GAS  C:\Users\union\AppData\Local\Temp\ccSXLsQg.s 			page 1


   1              		.cpu cortex-m4
   2              		.eabi_attribute 27, 1
   3              		.eabi_attribute 28, 1
   4              		.eabi_attribute 20, 1
   5              		.eabi_attribute 21, 1
   6              		.eabi_attribute 23, 3
   7              		.eabi_attribute 24, 1
   8              		.eabi_attribute 25, 1
   9              		.eabi_attribute 26, 1
  10              		.eabi_attribute 30, 1
  11              		.eabi_attribute 34, 1
  12              		.eabi_attribute 18, 4
  13              		.file	"queue.c"
  14              		.text
  15              	.Ltext0:
  16              		.cfi_sections	.debug_frame
  17              		.section	.text.queue_empty,"ax",%progbits
  18              		.align	1
  19              		.global	queue_empty
  20              		.arch armv7e-m
  21              		.syntax unified
  22              		.thumb
  23              		.thumb_func
  24              		.fpu fpv4-sp-d16
  26              	queue_empty:
  27              	.LVL0:
  28              	.LFB0:
  29              		.file 1 "App/ps2/queue.c"
   1:App/ps2/queue.c **** // Найдено на просторах интернетов в открытых источник
   2:App/ps2/queue.c **** #include "queue.h"
   3:App/ps2/queue.c **** 
   4:App/ps2/queue.c **** bool queue_empty(queue_t *q)
   5:App/ps2/queue.c **** {
  30              		.loc 1 5 1 view -0
  31              		.cfi_startproc
  32              		@ args = 0, pretend = 0, frame = 0
  33              		@ frame_needed = 0, uses_anonymous_args = 0
  34              		@ link register save eliminated.
   6:App/ps2/queue.c ****   return q->size == 0;
  35              		.loc 1 6 3 view .LVU1
  36              		.loc 1 6 11 is_stmt 0 view .LVU2
  37 0000 D0F88800 		ldr	r0, [r0, #136]
  38              	.LVL1:
   7:App/ps2/queue.c **** }
  39              		.loc 1 7 1 view .LVU3
  40 0004 B0FA80F0 		clz	r0, r0
  41 0008 4009     		lsrs	r0, r0, #5
  42 000a 7047     		bx	lr
  43              		.cfi_endproc
  44              	.LFE0:
  46              		.section	.text.queue_full,"ax",%progbits
  47              		.align	1
  48              		.global	queue_full
  49              		.syntax unified
  50              		.thumb
  51              		.thumb_func
  52              		.fpu fpv4-sp-d16
ARM GAS  C:\Users\union\AppData\Local\Temp\ccSXLsQg.s 			page 2


  54              	queue_full:
  55              	.LVL2:
  56              	.LFB1:
   8:App/ps2/queue.c **** 
   9:App/ps2/queue.c **** bool queue_full(queue_t *q)
  10:App/ps2/queue.c **** {
  57              		.loc 1 10 1 is_stmt 1 view -0
  58              		.cfi_startproc
  59              		@ args = 0, pretend = 0, frame = 0
  60              		@ frame_needed = 0, uses_anonymous_args = 0
  61              		@ link register save eliminated.
  11:App/ps2/queue.c ****   return q->size == QCAPACITY;
  62              		.loc 1 11 3 view .LVU5
  63              		.loc 1 11 11 is_stmt 0 view .LVU6
  64 0000 D0F88800 		ldr	r0, [r0, #136]
  65              	.LVL3:
  12:App/ps2/queue.c **** }
  66              		.loc 1 12 1 view .LVU7
  67 0004 8028     		cmp	r0, #128
  68 0006 14BF     		ite	ne
  69 0008 0020     		movne	r0, #0
  70 000a 0120     		moveq	r0, #1
  71 000c 7047     		bx	lr
  72              		.cfi_endproc
  73              	.LFE1:
  75              		.section	.text.queue_init,"ax",%progbits
  76              		.align	1
  77              		.global	queue_init
  78              		.syntax unified
  79              		.thumb
  80              		.thumb_func
  81              		.fpu fpv4-sp-d16
  83              	queue_init:
  84              	.LVL4:
  85              	.LFB2:
  13:App/ps2/queue.c **** 
  14:App/ps2/queue.c **** void queue_init(queue_t *q)
  15:App/ps2/queue.c **** {
  86              		.loc 1 15 1 is_stmt 1 view -0
  87              		.cfi_startproc
  88              		@ args = 0, pretend = 0, frame = 0
  89              		@ frame_needed = 0, uses_anonymous_args = 0
  90              		@ link register save eliminated.
  16:App/ps2/queue.c ****   q->head = QCAPACITY - 1;
  91              		.loc 1 16 3 view .LVU9
  92              		.loc 1 16 11 is_stmt 0 view .LVU10
  93 0000 7F23     		movs	r3, #127
  94 0002 C0F88030 		str	r3, [r0, #128]
  17:App/ps2/queue.c ****   q->tail = QCAPACITY - 1;
  95              		.loc 1 17 3 is_stmt 1 view .LVU11
  96              		.loc 1 17 11 is_stmt 0 view .LVU12
  97 0006 C0F88430 		str	r3, [r0, #132]
  18:App/ps2/queue.c **** }
  98              		.loc 1 18 1 view .LVU13
  99 000a 7047     		bx	lr
 100              		.cfi_endproc
 101              	.LFE2:
ARM GAS  C:\Users\union\AppData\Local\Temp\ccSXLsQg.s 			page 3


 103              		.section	.text.queue_put,"ax",%progbits
 104              		.align	1
 105              		.global	queue_put
 106              		.syntax unified
 107              		.thumb
 108              		.thumb_func
 109              		.fpu fpv4-sp-d16
 111              	queue_put:
 112              	.LVL5:
 113              	.LFB3:
  19:App/ps2/queue.c **** 
  20:App/ps2/queue.c **** void queue_put(queue_t *q, uint8_t elem)
  21:App/ps2/queue.c **** {
 114              		.loc 1 21 1 is_stmt 1 view -0
 115              		.cfi_startproc
 116              		@ args = 0, pretend = 0, frame = 0
 117              		@ frame_needed = 0, uses_anonymous_args = 0
 118              		@ link register save eliminated.
  22:App/ps2/queue.c ****   if (q->size < QCAPACITY)
 119              		.loc 1 22 3 view .LVU15
 120              		.loc 1 22 8 is_stmt 0 view .LVU16
 121 0000 D0F88830 		ldr	r3, [r0, #136]
 122              		.loc 1 22 6 view .LVU17
 123 0004 7F2B     		cmp	r3, #127
 124 0006 12D8     		bhi	.L7
  21:App/ps2/queue.c ****   if (q->size < QCAPACITY)
 125              		.loc 1 21 1 view .LVU18
 126 0008 10B4     		push	{r4}
 127              	.LCFI0:
 128              		.cfi_def_cfa_offset 4
 129              		.cfi_offset 4, -4
  23:App/ps2/queue.c ****   {
  24:App/ps2/queue.c ****     q->container[q->head--] = elem;
 130              		.loc 1 24 5 is_stmt 1 view .LVU19
 131              		.loc 1 24 19 is_stmt 0 view .LVU20
 132 000a D0F88040 		ldr	r4, [r0, #128]
 133              		.loc 1 24 25 view .LVU21
 134 000e 621E     		subs	r2, r4, #1
 135 0010 C0F88020 		str	r2, [r0, #128]
 136              		.loc 1 24 29 view .LVU22
 137 0014 0155     		strb	r1, [r0, r4]
  25:App/ps2/queue.c ****     q->size++;
 138              		.loc 1 25 5 is_stmt 1 view .LVU23
 139              		.loc 1 25 12 is_stmt 0 view .LVU24
 140 0016 0133     		adds	r3, r3, #1
 141 0018 C0F88830 		str	r3, [r0, #136]
  26:App/ps2/queue.c ****     if (q->head < 0)
 142              		.loc 1 26 5 is_stmt 1 view .LVU25
 143              		.loc 1 26 8 is_stmt 0 view .LVU26
 144 001c 002A     		cmp	r2, #0
 145 001e 02DB     		blt	.L10
 146              	.L4:
  27:App/ps2/queue.c ****     {
  28:App/ps2/queue.c ****       q->head = QCAPACITY-1;
  29:App/ps2/queue.c ****     }
  30:App/ps2/queue.c ****   }
  31:App/ps2/queue.c **** }
ARM GAS  C:\Users\union\AppData\Local\Temp\ccSXLsQg.s 			page 4


 147              		.loc 1 31 1 view .LVU27
 148 0020 5DF8044B 		ldr	r4, [sp], #4
 149              	.LCFI1:
 150              		.cfi_remember_state
 151              		.cfi_restore 4
 152              		.cfi_def_cfa_offset 0
 153 0024 7047     		bx	lr
 154              	.L10:
 155              	.LCFI2:
 156              		.cfi_restore_state
  28:App/ps2/queue.c ****     }
 157              		.loc 1 28 7 is_stmt 1 view .LVU28
  28:App/ps2/queue.c ****     }
 158              		.loc 1 28 15 is_stmt 0 view .LVU29
 159 0026 7F23     		movs	r3, #127
 160 0028 C0F88030 		str	r3, [r0, #128]
 161              		.loc 1 31 1 view .LVU30
 162 002c F8E7     		b	.L4
 163              	.L7:
 164              	.LCFI3:
 165              		.cfi_def_cfa_offset 0
 166              		.cfi_restore 4
 167              		.loc 1 31 1 view .LVU31
 168 002e 7047     		bx	lr
 169              		.cfi_endproc
 170              	.LFE3:
 172              		.section	.text.queue_put_wo_duplicates,"ax",%progbits
 173              		.align	1
 174              		.global	queue_put_wo_duplicates
 175              		.syntax unified
 176              		.thumb
 177              		.thumb_func
 178              		.fpu fpv4-sp-d16
 180              	queue_put_wo_duplicates:
 181              	.LVL6:
 182              	.LFB4:
  32:App/ps2/queue.c **** 
  33:App/ps2/queue.c **** 
  34:App/ps2/queue.c **** void queue_put_wo_duplicates(queue_t* q, uint8_t elem)
  35:App/ps2/queue.c **** {
 183              		.loc 1 35 1 is_stmt 1 view -0
 184              		.cfi_startproc
 185              		@ args = 0, pretend = 0, frame = 0
 186              		@ frame_needed = 0, uses_anonymous_args = 0
 187              		@ link register save eliminated.
  36:App/ps2/queue.c ****     if (q->size < QCAPACITY)
 188              		.loc 1 36 5 view .LVU33
 189              		.loc 1 36 10 is_stmt 0 view .LVU34
 190 0000 D0F88830 		ldr	r3, [r0, #136]
 191              		.loc 1 36 8 view .LVU35
 192 0004 7F2B     		cmp	r3, #127
 193 0006 18D8     		bhi	.L15
  35:App/ps2/queue.c ****     if (q->size < QCAPACITY)
 194              		.loc 1 35 1 view .LVU36
 195 0008 10B4     		push	{r4}
 196              	.LCFI4:
 197              		.cfi_def_cfa_offset 4
ARM GAS  C:\Users\union\AppData\Local\Temp\ccSXLsQg.s 			page 5


 198              		.cfi_offset 4, -4
  37:App/ps2/queue.c ****     {
  38:App/ps2/queue.c ****         if ((q->head != QCAPACITY - 1) && (q->container[q->head + 1] == elem)) {
 199              		.loc 1 38 9 is_stmt 1 view .LVU37
 200              		.loc 1 38 15 is_stmt 0 view .LVU38
 201 000a D0F88020 		ldr	r2, [r0, #128]
 202              		.loc 1 38 12 view .LVU39
 203 000e 7F2A     		cmp	r2, #127
 204 0010 03D0     		beq	.L13
 205              		.loc 1 38 65 discriminator 1 view .LVU40
 206 0012 541C     		adds	r4, r2, #1
 207              		.loc 1 38 56 discriminator 1 view .LVU41
 208 0014 045D     		ldrb	r4, [r0, r4]	@ zero_extendqisi2
 209              		.loc 1 38 40 discriminator 1 view .LVU42
 210 0016 8C42     		cmp	r4, r1
 211 0018 08D0     		beq	.L11
 212              	.L13:
  39:App/ps2/queue.c ****             //printf("duplicate 0x%02x drop!\n", elem);
  40:App/ps2/queue.c ****             return;
  41:App/ps2/queue.c ****         }
  42:App/ps2/queue.c **** 
  43:App/ps2/queue.c ****         q->container[q->head--] = elem;
 213              		.loc 1 43 9 is_stmt 1 view .LVU43
 214              		.loc 1 43 29 is_stmt 0 view .LVU44
 215 001a 541E     		subs	r4, r2, #1
 216 001c C0F88040 		str	r4, [r0, #128]
 217              		.loc 1 43 33 view .LVU45
 218 0020 8154     		strb	r1, [r0, r2]
  44:App/ps2/queue.c ****         //printf("added 0x%02x !\n", elem);
  45:App/ps2/queue.c ****         q->size++;
 219              		.loc 1 45 9 is_stmt 1 view .LVU46
 220              		.loc 1 45 16 is_stmt 0 view .LVU47
 221 0022 0133     		adds	r3, r3, #1
 222 0024 C0F88830 		str	r3, [r0, #136]
  46:App/ps2/queue.c ****         if (q->head < 0)
 223              		.loc 1 46 9 is_stmt 1 view .LVU48
 224              		.loc 1 46 12 is_stmt 0 view .LVU49
 225 0028 002C     		cmp	r4, #0
 226 002a 02DB     		blt	.L18
 227              	.L11:
  47:App/ps2/queue.c ****         {
  48:App/ps2/queue.c ****             q->head = QCAPACITY - 1;
  49:App/ps2/queue.c ****         }
  50:App/ps2/queue.c ****     }
  51:App/ps2/queue.c **** }
 228              		.loc 1 51 1 view .LVU50
 229 002c 5DF8044B 		ldr	r4, [sp], #4
 230              	.LCFI5:
 231              		.cfi_remember_state
 232              		.cfi_restore 4
 233              		.cfi_def_cfa_offset 0
 234 0030 7047     		bx	lr
 235              	.L18:
 236              	.LCFI6:
 237              		.cfi_restore_state
  48:App/ps2/queue.c ****         }
 238              		.loc 1 48 13 is_stmt 1 view .LVU51
ARM GAS  C:\Users\union\AppData\Local\Temp\ccSXLsQg.s 			page 6


  48:App/ps2/queue.c ****         }
 239              		.loc 1 48 21 is_stmt 0 view .LVU52
 240 0032 7F23     		movs	r3, #127
 241 0034 C0F88030 		str	r3, [r0, #128]
 242 0038 F8E7     		b	.L11
 243              	.L15:
 244              	.LCFI7:
 245              		.cfi_def_cfa_offset 0
 246              		.cfi_restore 4
  48:App/ps2/queue.c ****         }
 247              		.loc 1 48 21 view .LVU53
 248 003a 7047     		bx	lr
 249              		.cfi_endproc
 250              	.LFE4:
 252              		.section	.text.queue_get,"ax",%progbits
 253              		.align	1
 254              		.global	queue_get
 255              		.syntax unified
 256              		.thumb
 257              		.thumb_func
 258              		.fpu fpv4-sp-d16
 260              	queue_get:
 261              	.LVL7:
 262              	.LFB5:
  52:App/ps2/queue.c **** 
  53:App/ps2/queue.c **** 
  54:App/ps2/queue.c **** uint8_t queue_get(queue_t *q)
  55:App/ps2/queue.c **** {
 263              		.loc 1 55 1 is_stmt 1 view -0
 264              		.cfi_startproc
 265              		@ args = 0, pretend = 0, frame = 0
 266              		@ frame_needed = 0, uses_anonymous_args = 0
 267              		@ link register save eliminated.
 268              		.loc 1 55 1 is_stmt 0 view .LVU55
 269 0000 0346     		mov	r3, r0
  56:App/ps2/queue.c ****   uint8_t out = 0;
 270              		.loc 1 56 3 is_stmt 1 view .LVU56
 271              	.LVL8:
  57:App/ps2/queue.c **** 
  58:App/ps2/queue.c ****   if (q->size > 0)
 272              		.loc 1 58 3 view .LVU57
 273              		.loc 1 58 8 is_stmt 0 view .LVU58
 274 0002 D0F88820 		ldr	r2, [r0, #136]
 275              		.loc 1 58 6 view .LVU59
 276 0006 72B1     		cbz	r2, .L21
  59:App/ps2/queue.c ****   {
  60:App/ps2/queue.c ****     out = q->container[q->tail--];
 277              		.loc 1 60 5 is_stmt 1 view .LVU60
 278              		.loc 1 60 25 is_stmt 0 view .LVU61
 279 0008 D0F88400 		ldr	r0, [r0, #132]
 280              	.LVL9:
 281              		.loc 1 60 31 view .LVU62
 282 000c 411E     		subs	r1, r0, #1
 283 000e C3F88410 		str	r1, [r3, #132]
 284              		.loc 1 60 9 view .LVU63
 285 0012 185C     		ldrb	r0, [r3, r0]	@ zero_extendqisi2
 286              	.LVL10:
ARM GAS  C:\Users\union\AppData\Local\Temp\ccSXLsQg.s 			page 7


  61:App/ps2/queue.c ****     q->size--;
 287              		.loc 1 61 5 is_stmt 1 view .LVU64
 288              		.loc 1 61 12 is_stmt 0 view .LVU65
 289 0014 013A     		subs	r2, r2, #1
 290 0016 C3F88820 		str	r2, [r3, #136]
  62:App/ps2/queue.c ****     if (q->tail < 0)
 291              		.loc 1 62 5 is_stmt 1 view .LVU66
 292              		.loc 1 62 8 is_stmt 0 view .LVU67
 293 001a 0029     		cmp	r1, #0
 294 001c 04DA     		bge	.L20
  63:App/ps2/queue.c ****     {
  64:App/ps2/queue.c ****       q->tail = QCAPACITY-1;
 295              		.loc 1 64 7 is_stmt 1 view .LVU68
 296              		.loc 1 64 15 is_stmt 0 view .LVU69
 297 001e 7F22     		movs	r2, #127
 298 0020 C3F88420 		str	r2, [r3, #132]
 299 0024 7047     		bx	lr
 300              	.LVL11:
 301              	.L21:
  56:App/ps2/queue.c **** 
 302              		.loc 1 56 11 view .LVU70
 303 0026 0020     		movs	r0, #0
 304              	.LVL12:
 305              	.L20:
  65:App/ps2/queue.c ****     }
  66:App/ps2/queue.c ****   }
  67:App/ps2/queue.c ****   return out;
 306              		.loc 1 67 3 is_stmt 1 view .LVU71
  68:App/ps2/queue.c **** }
 307              		.loc 1 68 1 is_stmt 0 view .LVU72
 308 0028 7047     		bx	lr
 309              		.cfi_endproc
 310              	.LFE5:
 312              		.text
 313              	.Letext0:
 314              		.file 2 "c:\\arm_tool\\gcc\\arm-none-eabi\\include\\machine\\_default_types.h"
 315              		.file 3 "c:\\arm_tool\\gcc\\arm-none-eabi\\include\\sys\\_stdint.h"
 316              		.file 4 "c:\\arm_tool\\gcc\\lib\\gcc\\arm-none-eabi\\8.2.1\\include\\stddef.h"
 317              		.file 5 "c:\\arm_tool\\gcc\\arm-none-eabi\\include\\sys\\lock.h"
 318              		.file 6 "c:\\arm_tool\\gcc\\arm-none-eabi\\include\\sys\\_types.h"
 319              		.file 7 "c:\\arm_tool\\gcc\\arm-none-eabi\\include\\sys\\reent.h"
 320              		.file 8 "c:\\arm_tool\\gcc\\arm-none-eabi\\include\\stdlib.h"
 321              		.file 9 "App/ps2/queue.h"
ARM GAS  C:\Users\union\AppData\Local\Temp\ccSXLsQg.s 			page 8


DEFINED SYMBOLS
                            *ABS*:0000000000000000 queue.c
C:\Users\union\AppData\Local\Temp\ccSXLsQg.s:18     .text.queue_empty:0000000000000000 $t
C:\Users\union\AppData\Local\Temp\ccSXLsQg.s:26     .text.queue_empty:0000000000000000 queue_empty
C:\Users\union\AppData\Local\Temp\ccSXLsQg.s:47     .text.queue_full:0000000000000000 $t
C:\Users\union\AppData\Local\Temp\ccSXLsQg.s:54     .text.queue_full:0000000000000000 queue_full
C:\Users\union\AppData\Local\Temp\ccSXLsQg.s:76     .text.queue_init:0000000000000000 $t
C:\Users\union\AppData\Local\Temp\ccSXLsQg.s:83     .text.queue_init:0000000000000000 queue_init
C:\Users\union\AppData\Local\Temp\ccSXLsQg.s:104    .text.queue_put:0000000000000000 $t
C:\Users\union\AppData\Local\Temp\ccSXLsQg.s:111    .text.queue_put:0000000000000000 queue_put
C:\Users\union\AppData\Local\Temp\ccSXLsQg.s:173    .text.queue_put_wo_duplicates:0000000000000000 $t
C:\Users\union\AppData\Local\Temp\ccSXLsQg.s:180    .text.queue_put_wo_duplicates:0000000000000000 queue_put_wo_duplicates
C:\Users\union\AppData\Local\Temp\ccSXLsQg.s:253    .text.queue_get:0000000000000000 $t
C:\Users\union\AppData\Local\Temp\ccSXLsQg.s:260    .text.queue_get:0000000000000000 queue_get

NO UNDEFINED SYMBOLS
