ARM GAS  C:\Users\union\AppData\Local\Temp\ccZKxuJa.s 			page 1


   1              		.cpu cortex-m4
   2              		.eabi_attribute 27, 1
   3              		.eabi_attribute 28, 1
   4              		.eabi_attribute 20, 1
   5              		.eabi_attribute 21, 1
   6              		.eabi_attribute 23, 3
   7              		.eabi_attribute 24, 1
   8              		.eabi_attribute 25, 1
   9              		.eabi_attribute 26, 1
  10              		.eabi_attribute 30, 1
  11              		.eabi_attribute 34, 1
  12              		.eabi_attribute 18, 4
  13              		.file	"stm32l4xx_hal_dma.c"
  14              		.text
  15              	.Ltext0:
  16              		.cfi_sections	.debug_frame
  17              		.section	.text.DMA_SetConfig,"ax",%progbits
  18              		.align	1
  19              		.arch armv7e-m
  20              		.syntax unified
  21              		.thumb
  22              		.thumb_func
  23              		.fpu fpv4-sp-d16
  25              	DMA_SetConfig:
  26              	.LVL0:
  27              	.LFB144:
  28              		.file 1 "Drivers/STM32L4xx_HAL_Driver/Src/stm32l4xx_hal_dma.c"
   1:Drivers/STM32L4xx_HAL_Driver/Src/stm32l4xx_hal_dma.c **** /**
   2:Drivers/STM32L4xx_HAL_Driver/Src/stm32l4xx_hal_dma.c ****   ******************************************************************************
   3:Drivers/STM32L4xx_HAL_Driver/Src/stm32l4xx_hal_dma.c ****   * @file    stm32l4xx_hal_dma.c
   4:Drivers/STM32L4xx_HAL_Driver/Src/stm32l4xx_hal_dma.c ****   * @author  MCD Application Team
   5:Drivers/STM32L4xx_HAL_Driver/Src/stm32l4xx_hal_dma.c ****   * @brief   DMA HAL module driver.
   6:Drivers/STM32L4xx_HAL_Driver/Src/stm32l4xx_hal_dma.c ****   *          This file provides firmware functions to manage the following
   7:Drivers/STM32L4xx_HAL_Driver/Src/stm32l4xx_hal_dma.c ****   *          functionalities of the Direct Memory Access (DMA) peripheral:
   8:Drivers/STM32L4xx_HAL_Driver/Src/stm32l4xx_hal_dma.c ****   *           + Initialization and de-initialization functions
   9:Drivers/STM32L4xx_HAL_Driver/Src/stm32l4xx_hal_dma.c ****   *           + IO operation functions
  10:Drivers/STM32L4xx_HAL_Driver/Src/stm32l4xx_hal_dma.c ****   *           + Peripheral State and errors functions
  11:Drivers/STM32L4xx_HAL_Driver/Src/stm32l4xx_hal_dma.c ****   *
  12:Drivers/STM32L4xx_HAL_Driver/Src/stm32l4xx_hal_dma.c ****   ******************************************************************************
  13:Drivers/STM32L4xx_HAL_Driver/Src/stm32l4xx_hal_dma.c ****   * @attention
  14:Drivers/STM32L4xx_HAL_Driver/Src/stm32l4xx_hal_dma.c ****   *
  15:Drivers/STM32L4xx_HAL_Driver/Src/stm32l4xx_hal_dma.c ****   * Copyright (c) 2017 STMicroelectronics.
  16:Drivers/STM32L4xx_HAL_Driver/Src/stm32l4xx_hal_dma.c ****   * All rights reserved.
  17:Drivers/STM32L4xx_HAL_Driver/Src/stm32l4xx_hal_dma.c ****   *
  18:Drivers/STM32L4xx_HAL_Driver/Src/stm32l4xx_hal_dma.c ****   * This software is licensed under terms that can be found in the LICENSE file
  19:Drivers/STM32L4xx_HAL_Driver/Src/stm32l4xx_hal_dma.c ****   * in the root directory of this software component.
  20:Drivers/STM32L4xx_HAL_Driver/Src/stm32l4xx_hal_dma.c ****   * If no LICENSE file comes with this software, it is provided AS-IS.
  21:Drivers/STM32L4xx_HAL_Driver/Src/stm32l4xx_hal_dma.c ****   *
  22:Drivers/STM32L4xx_HAL_Driver/Src/stm32l4xx_hal_dma.c ****   ******************************************************************************
  23:Drivers/STM32L4xx_HAL_Driver/Src/stm32l4xx_hal_dma.c ****   @verbatim
  24:Drivers/STM32L4xx_HAL_Driver/Src/stm32l4xx_hal_dma.c ****   ==============================================================================
  25:Drivers/STM32L4xx_HAL_Driver/Src/stm32l4xx_hal_dma.c ****                         ##### How to use this driver #####
  26:Drivers/STM32L4xx_HAL_Driver/Src/stm32l4xx_hal_dma.c ****   ==============================================================================
  27:Drivers/STM32L4xx_HAL_Driver/Src/stm32l4xx_hal_dma.c ****   [..]
  28:Drivers/STM32L4xx_HAL_Driver/Src/stm32l4xx_hal_dma.c ****    (#) Enable and configure the peripheral to be connected to the DMA Channel
  29:Drivers/STM32L4xx_HAL_Driver/Src/stm32l4xx_hal_dma.c ****        (except for internal SRAM / FLASH memories: no initialization is
  30:Drivers/STM32L4xx_HAL_Driver/Src/stm32l4xx_hal_dma.c ****        necessary). Please refer to the Reference manual for connection between peripherals
ARM GAS  C:\Users\union\AppData\Local\Temp\ccZKxuJa.s 			page 2


  31:Drivers/STM32L4xx_HAL_Driver/Src/stm32l4xx_hal_dma.c ****        and DMA requests.
  32:Drivers/STM32L4xx_HAL_Driver/Src/stm32l4xx_hal_dma.c **** 
  33:Drivers/STM32L4xx_HAL_Driver/Src/stm32l4xx_hal_dma.c ****    (#) For a given Channel, program the required configuration through the following parameters:
  34:Drivers/STM32L4xx_HAL_Driver/Src/stm32l4xx_hal_dma.c ****        Channel request, Transfer Direction, Source and Destination data formats,
  35:Drivers/STM32L4xx_HAL_Driver/Src/stm32l4xx_hal_dma.c ****        Circular or Normal mode, Channel Priority level, Source and Destination Increment mode
  36:Drivers/STM32L4xx_HAL_Driver/Src/stm32l4xx_hal_dma.c ****        using HAL_DMA_Init() function.
  37:Drivers/STM32L4xx_HAL_Driver/Src/stm32l4xx_hal_dma.c **** 
  38:Drivers/STM32L4xx_HAL_Driver/Src/stm32l4xx_hal_dma.c ****        Prior to HAL_DMA_Init the peripheral clock shall be enabled for both DMA & DMAMUX
  39:Drivers/STM32L4xx_HAL_Driver/Src/stm32l4xx_hal_dma.c ****        thanks to:
  40:Drivers/STM32L4xx_HAL_Driver/Src/stm32l4xx_hal_dma.c ****       (##) DMA1 or DMA2: __HAL_RCC_DMA1_CLK_ENABLE() or  __HAL_RCC_DMA2_CLK_ENABLE() ;
  41:Drivers/STM32L4xx_HAL_Driver/Src/stm32l4xx_hal_dma.c ****       (##) DMAMUX1:      __HAL_RCC_DMAMUX1_CLK_ENABLE();
  42:Drivers/STM32L4xx_HAL_Driver/Src/stm32l4xx_hal_dma.c **** 
  43:Drivers/STM32L4xx_HAL_Driver/Src/stm32l4xx_hal_dma.c ****    (#) Use HAL_DMA_GetState() function to return the DMA state and HAL_DMA_GetError() in case of er
  44:Drivers/STM32L4xx_HAL_Driver/Src/stm32l4xx_hal_dma.c ****        detection.
  45:Drivers/STM32L4xx_HAL_Driver/Src/stm32l4xx_hal_dma.c **** 
  46:Drivers/STM32L4xx_HAL_Driver/Src/stm32l4xx_hal_dma.c ****    (#) Use HAL_DMA_Abort() function to abort the current transfer
  47:Drivers/STM32L4xx_HAL_Driver/Src/stm32l4xx_hal_dma.c **** 
  48:Drivers/STM32L4xx_HAL_Driver/Src/stm32l4xx_hal_dma.c ****      -@-   In Memory-to-Memory transfer mode, Circular mode is not allowed.
  49:Drivers/STM32L4xx_HAL_Driver/Src/stm32l4xx_hal_dma.c **** 
  50:Drivers/STM32L4xx_HAL_Driver/Src/stm32l4xx_hal_dma.c ****      *** Polling mode IO operation ***
  51:Drivers/STM32L4xx_HAL_Driver/Src/stm32l4xx_hal_dma.c ****      =================================
  52:Drivers/STM32L4xx_HAL_Driver/Src/stm32l4xx_hal_dma.c ****      [..]
  53:Drivers/STM32L4xx_HAL_Driver/Src/stm32l4xx_hal_dma.c ****        (+) Use HAL_DMA_Start() to start DMA transfer after the configuration of Source
  54:Drivers/STM32L4xx_HAL_Driver/Src/stm32l4xx_hal_dma.c ****            address and destination address and the Length of data to be transferred
  55:Drivers/STM32L4xx_HAL_Driver/Src/stm32l4xx_hal_dma.c ****        (+) Use HAL_DMA_PollForTransfer() to poll for the end of current transfer, in this
  56:Drivers/STM32L4xx_HAL_Driver/Src/stm32l4xx_hal_dma.c ****            case a fixed Timeout can be configured by User depending from his application.
  57:Drivers/STM32L4xx_HAL_Driver/Src/stm32l4xx_hal_dma.c **** 
  58:Drivers/STM32L4xx_HAL_Driver/Src/stm32l4xx_hal_dma.c ****      *** Interrupt mode IO operation ***
  59:Drivers/STM32L4xx_HAL_Driver/Src/stm32l4xx_hal_dma.c ****      ===================================
  60:Drivers/STM32L4xx_HAL_Driver/Src/stm32l4xx_hal_dma.c ****      [..]
  61:Drivers/STM32L4xx_HAL_Driver/Src/stm32l4xx_hal_dma.c ****        (+) Configure the DMA interrupt priority using HAL_NVIC_SetPriority()
  62:Drivers/STM32L4xx_HAL_Driver/Src/stm32l4xx_hal_dma.c ****        (+) Enable the DMA IRQ handler using HAL_NVIC_EnableIRQ()
  63:Drivers/STM32L4xx_HAL_Driver/Src/stm32l4xx_hal_dma.c ****        (+) Use HAL_DMA_Start_IT() to start DMA transfer after the configuration of
  64:Drivers/STM32L4xx_HAL_Driver/Src/stm32l4xx_hal_dma.c ****            Source address and destination address and the Length of data to be transferred.
  65:Drivers/STM32L4xx_HAL_Driver/Src/stm32l4xx_hal_dma.c ****            In this case the DMA interrupt is configured
  66:Drivers/STM32L4xx_HAL_Driver/Src/stm32l4xx_hal_dma.c ****        (+) Use HAL_DMA_IRQHandler() called under DMA_IRQHandler() Interrupt subroutine
  67:Drivers/STM32L4xx_HAL_Driver/Src/stm32l4xx_hal_dma.c ****        (+) At the end of data transfer HAL_DMA_IRQHandler() function is executed and user can
  68:Drivers/STM32L4xx_HAL_Driver/Src/stm32l4xx_hal_dma.c ****               add his own function to register callbacks with HAL_DMA_RegisterCallback().
  69:Drivers/STM32L4xx_HAL_Driver/Src/stm32l4xx_hal_dma.c **** 
  70:Drivers/STM32L4xx_HAL_Driver/Src/stm32l4xx_hal_dma.c ****      *** DMA HAL driver macros list ***
  71:Drivers/STM32L4xx_HAL_Driver/Src/stm32l4xx_hal_dma.c ****      =============================================
  72:Drivers/STM32L4xx_HAL_Driver/Src/stm32l4xx_hal_dma.c ****      [..]
  73:Drivers/STM32L4xx_HAL_Driver/Src/stm32l4xx_hal_dma.c ****        Below the list of macros in DMA HAL driver.
  74:Drivers/STM32L4xx_HAL_Driver/Src/stm32l4xx_hal_dma.c **** 
  75:Drivers/STM32L4xx_HAL_Driver/Src/stm32l4xx_hal_dma.c ****        (+) __HAL_DMA_ENABLE: Enable the specified DMA Channel.
  76:Drivers/STM32L4xx_HAL_Driver/Src/stm32l4xx_hal_dma.c ****        (+) __HAL_DMA_DISABLE: Disable the specified DMA Channel.
  77:Drivers/STM32L4xx_HAL_Driver/Src/stm32l4xx_hal_dma.c ****        (+) __HAL_DMA_GET_FLAG: Get the DMA Channel pending flags.
  78:Drivers/STM32L4xx_HAL_Driver/Src/stm32l4xx_hal_dma.c ****        (+) __HAL_DMA_CLEAR_FLAG: Clear the DMA Channel pending flags.
  79:Drivers/STM32L4xx_HAL_Driver/Src/stm32l4xx_hal_dma.c ****        (+) __HAL_DMA_ENABLE_IT: Enable the specified DMA Channel interrupts.
  80:Drivers/STM32L4xx_HAL_Driver/Src/stm32l4xx_hal_dma.c ****        (+) __HAL_DMA_DISABLE_IT: Disable the specified DMA Channel interrupts.
  81:Drivers/STM32L4xx_HAL_Driver/Src/stm32l4xx_hal_dma.c ****        (+) __HAL_DMA_GET_IT_SOURCE: Check whether the specified DMA Channel interrupt is enabled or
  82:Drivers/STM32L4xx_HAL_Driver/Src/stm32l4xx_hal_dma.c **** 
  83:Drivers/STM32L4xx_HAL_Driver/Src/stm32l4xx_hal_dma.c ****      [..]
  84:Drivers/STM32L4xx_HAL_Driver/Src/stm32l4xx_hal_dma.c ****       (@) You can refer to the DMA HAL driver header file for more useful macros
  85:Drivers/STM32L4xx_HAL_Driver/Src/stm32l4xx_hal_dma.c **** 
  86:Drivers/STM32L4xx_HAL_Driver/Src/stm32l4xx_hal_dma.c ****   @endverbatim
  87:Drivers/STM32L4xx_HAL_Driver/Src/stm32l4xx_hal_dma.c ****   ******************************************************************************
ARM GAS  C:\Users\union\AppData\Local\Temp\ccZKxuJa.s 			page 3


  88:Drivers/STM32L4xx_HAL_Driver/Src/stm32l4xx_hal_dma.c ****   */
  89:Drivers/STM32L4xx_HAL_Driver/Src/stm32l4xx_hal_dma.c **** 
  90:Drivers/STM32L4xx_HAL_Driver/Src/stm32l4xx_hal_dma.c **** /* Includes ------------------------------------------------------------------*/
  91:Drivers/STM32L4xx_HAL_Driver/Src/stm32l4xx_hal_dma.c **** #include "stm32l4xx_hal.h"
  92:Drivers/STM32L4xx_HAL_Driver/Src/stm32l4xx_hal_dma.c **** 
  93:Drivers/STM32L4xx_HAL_Driver/Src/stm32l4xx_hal_dma.c **** /** @addtogroup STM32L4xx_HAL_Driver
  94:Drivers/STM32L4xx_HAL_Driver/Src/stm32l4xx_hal_dma.c ****   * @{
  95:Drivers/STM32L4xx_HAL_Driver/Src/stm32l4xx_hal_dma.c ****   */
  96:Drivers/STM32L4xx_HAL_Driver/Src/stm32l4xx_hal_dma.c **** 
  97:Drivers/STM32L4xx_HAL_Driver/Src/stm32l4xx_hal_dma.c **** /** @defgroup DMA DMA
  98:Drivers/STM32L4xx_HAL_Driver/Src/stm32l4xx_hal_dma.c ****   * @brief DMA HAL module driver
  99:Drivers/STM32L4xx_HAL_Driver/Src/stm32l4xx_hal_dma.c ****   * @{
 100:Drivers/STM32L4xx_HAL_Driver/Src/stm32l4xx_hal_dma.c ****   */
 101:Drivers/STM32L4xx_HAL_Driver/Src/stm32l4xx_hal_dma.c **** 
 102:Drivers/STM32L4xx_HAL_Driver/Src/stm32l4xx_hal_dma.c **** #ifdef HAL_DMA_MODULE_ENABLED
 103:Drivers/STM32L4xx_HAL_Driver/Src/stm32l4xx_hal_dma.c **** 
 104:Drivers/STM32L4xx_HAL_Driver/Src/stm32l4xx_hal_dma.c **** /* Private typedef -----------------------------------------------------------*/
 105:Drivers/STM32L4xx_HAL_Driver/Src/stm32l4xx_hal_dma.c **** /* Private define ------------------------------------------------------------*/
 106:Drivers/STM32L4xx_HAL_Driver/Src/stm32l4xx_hal_dma.c **** /* Private macro -------------------------------------------------------------*/
 107:Drivers/STM32L4xx_HAL_Driver/Src/stm32l4xx_hal_dma.c **** /* Private variables ---------------------------------------------------------*/
 108:Drivers/STM32L4xx_HAL_Driver/Src/stm32l4xx_hal_dma.c **** /* Private function prototypes -----------------------------------------------*/
 109:Drivers/STM32L4xx_HAL_Driver/Src/stm32l4xx_hal_dma.c **** /** @defgroup DMA_Private_Functions DMA Private Functions
 110:Drivers/STM32L4xx_HAL_Driver/Src/stm32l4xx_hal_dma.c ****   * @{
 111:Drivers/STM32L4xx_HAL_Driver/Src/stm32l4xx_hal_dma.c ****   */
 112:Drivers/STM32L4xx_HAL_Driver/Src/stm32l4xx_hal_dma.c **** static void DMA_SetConfig(DMA_HandleTypeDef *hdma, uint32_t SrcAddress, uint32_t DstAddress, uint32
 113:Drivers/STM32L4xx_HAL_Driver/Src/stm32l4xx_hal_dma.c **** #if defined(DMAMUX1)
 114:Drivers/STM32L4xx_HAL_Driver/Src/stm32l4xx_hal_dma.c **** static void DMA_CalcDMAMUXChannelBaseAndMask(DMA_HandleTypeDef *hdma);
 115:Drivers/STM32L4xx_HAL_Driver/Src/stm32l4xx_hal_dma.c **** static void DMA_CalcDMAMUXRequestGenBaseAndMask(DMA_HandleTypeDef *hdma);
 116:Drivers/STM32L4xx_HAL_Driver/Src/stm32l4xx_hal_dma.c **** #endif /* DMAMUX1 */
 117:Drivers/STM32L4xx_HAL_Driver/Src/stm32l4xx_hal_dma.c **** 
 118:Drivers/STM32L4xx_HAL_Driver/Src/stm32l4xx_hal_dma.c **** /**
 119:Drivers/STM32L4xx_HAL_Driver/Src/stm32l4xx_hal_dma.c ****   * @}
 120:Drivers/STM32L4xx_HAL_Driver/Src/stm32l4xx_hal_dma.c ****   */
 121:Drivers/STM32L4xx_HAL_Driver/Src/stm32l4xx_hal_dma.c **** 
 122:Drivers/STM32L4xx_HAL_Driver/Src/stm32l4xx_hal_dma.c **** /* Exported functions ---------------------------------------------------------*/
 123:Drivers/STM32L4xx_HAL_Driver/Src/stm32l4xx_hal_dma.c **** 
 124:Drivers/STM32L4xx_HAL_Driver/Src/stm32l4xx_hal_dma.c **** /** @defgroup DMA_Exported_Functions DMA Exported Functions
 125:Drivers/STM32L4xx_HAL_Driver/Src/stm32l4xx_hal_dma.c ****   * @{
 126:Drivers/STM32L4xx_HAL_Driver/Src/stm32l4xx_hal_dma.c ****   */
 127:Drivers/STM32L4xx_HAL_Driver/Src/stm32l4xx_hal_dma.c **** 
 128:Drivers/STM32L4xx_HAL_Driver/Src/stm32l4xx_hal_dma.c **** /** @defgroup DMA_Exported_Functions_Group1 Initialization and de-initialization functions
 129:Drivers/STM32L4xx_HAL_Driver/Src/stm32l4xx_hal_dma.c ****  *  @brief   Initialization and de-initialization functions
 130:Drivers/STM32L4xx_HAL_Driver/Src/stm32l4xx_hal_dma.c ****  *
 131:Drivers/STM32L4xx_HAL_Driver/Src/stm32l4xx_hal_dma.c **** @verbatim
 132:Drivers/STM32L4xx_HAL_Driver/Src/stm32l4xx_hal_dma.c ****  ===============================================================================
 133:Drivers/STM32L4xx_HAL_Driver/Src/stm32l4xx_hal_dma.c ****              ##### Initialization and de-initialization functions  #####
 134:Drivers/STM32L4xx_HAL_Driver/Src/stm32l4xx_hal_dma.c ****  ===============================================================================
 135:Drivers/STM32L4xx_HAL_Driver/Src/stm32l4xx_hal_dma.c ****     [..]
 136:Drivers/STM32L4xx_HAL_Driver/Src/stm32l4xx_hal_dma.c ****     This section provides functions allowing to initialize the DMA Channel source
 137:Drivers/STM32L4xx_HAL_Driver/Src/stm32l4xx_hal_dma.c ****     and destination addresses, incrementation and data sizes, transfer direction,
 138:Drivers/STM32L4xx_HAL_Driver/Src/stm32l4xx_hal_dma.c ****     circular/normal mode selection, memory-to-memory mode selection and Channel priority value.
 139:Drivers/STM32L4xx_HAL_Driver/Src/stm32l4xx_hal_dma.c ****     [..]
 140:Drivers/STM32L4xx_HAL_Driver/Src/stm32l4xx_hal_dma.c ****     The HAL_DMA_Init() function follows the DMA configuration procedures as described in
 141:Drivers/STM32L4xx_HAL_Driver/Src/stm32l4xx_hal_dma.c ****     reference manual.
 142:Drivers/STM32L4xx_HAL_Driver/Src/stm32l4xx_hal_dma.c **** 
 143:Drivers/STM32L4xx_HAL_Driver/Src/stm32l4xx_hal_dma.c **** @endverbatim
 144:Drivers/STM32L4xx_HAL_Driver/Src/stm32l4xx_hal_dma.c ****   * @{
ARM GAS  C:\Users\union\AppData\Local\Temp\ccZKxuJa.s 			page 4


 145:Drivers/STM32L4xx_HAL_Driver/Src/stm32l4xx_hal_dma.c ****   */
 146:Drivers/STM32L4xx_HAL_Driver/Src/stm32l4xx_hal_dma.c **** 
 147:Drivers/STM32L4xx_HAL_Driver/Src/stm32l4xx_hal_dma.c **** /**
 148:Drivers/STM32L4xx_HAL_Driver/Src/stm32l4xx_hal_dma.c ****   * @brief  Initialize the DMA according to the specified
 149:Drivers/STM32L4xx_HAL_Driver/Src/stm32l4xx_hal_dma.c ****   *         parameters in the DMA_InitTypeDef and initialize the associated handle.
 150:Drivers/STM32L4xx_HAL_Driver/Src/stm32l4xx_hal_dma.c ****   * @param  hdma pointer to a DMA_HandleTypeDef structure that contains
 151:Drivers/STM32L4xx_HAL_Driver/Src/stm32l4xx_hal_dma.c ****   *              the configuration information for the specified DMA Channel.
 152:Drivers/STM32L4xx_HAL_Driver/Src/stm32l4xx_hal_dma.c ****   * @retval HAL status
 153:Drivers/STM32L4xx_HAL_Driver/Src/stm32l4xx_hal_dma.c ****   */
 154:Drivers/STM32L4xx_HAL_Driver/Src/stm32l4xx_hal_dma.c **** HAL_StatusTypeDef HAL_DMA_Init(DMA_HandleTypeDef *hdma)
 155:Drivers/STM32L4xx_HAL_Driver/Src/stm32l4xx_hal_dma.c **** {
 156:Drivers/STM32L4xx_HAL_Driver/Src/stm32l4xx_hal_dma.c ****   uint32_t tmp;
 157:Drivers/STM32L4xx_HAL_Driver/Src/stm32l4xx_hal_dma.c **** 
 158:Drivers/STM32L4xx_HAL_Driver/Src/stm32l4xx_hal_dma.c ****   /* Check the DMA handle allocation */
 159:Drivers/STM32L4xx_HAL_Driver/Src/stm32l4xx_hal_dma.c ****   if(hdma == NULL)
 160:Drivers/STM32L4xx_HAL_Driver/Src/stm32l4xx_hal_dma.c ****   {
 161:Drivers/STM32L4xx_HAL_Driver/Src/stm32l4xx_hal_dma.c ****     return HAL_ERROR;
 162:Drivers/STM32L4xx_HAL_Driver/Src/stm32l4xx_hal_dma.c ****   }
 163:Drivers/STM32L4xx_HAL_Driver/Src/stm32l4xx_hal_dma.c **** 
 164:Drivers/STM32L4xx_HAL_Driver/Src/stm32l4xx_hal_dma.c ****   /* Check the parameters */
 165:Drivers/STM32L4xx_HAL_Driver/Src/stm32l4xx_hal_dma.c ****   assert_param(IS_DMA_ALL_INSTANCE(hdma->Instance));
 166:Drivers/STM32L4xx_HAL_Driver/Src/stm32l4xx_hal_dma.c ****   assert_param(IS_DMA_DIRECTION(hdma->Init.Direction));
 167:Drivers/STM32L4xx_HAL_Driver/Src/stm32l4xx_hal_dma.c ****   assert_param(IS_DMA_PERIPHERAL_INC_STATE(hdma->Init.PeriphInc));
 168:Drivers/STM32L4xx_HAL_Driver/Src/stm32l4xx_hal_dma.c ****   assert_param(IS_DMA_MEMORY_INC_STATE(hdma->Init.MemInc));
 169:Drivers/STM32L4xx_HAL_Driver/Src/stm32l4xx_hal_dma.c ****   assert_param(IS_DMA_PERIPHERAL_DATA_SIZE(hdma->Init.PeriphDataAlignment));
 170:Drivers/STM32L4xx_HAL_Driver/Src/stm32l4xx_hal_dma.c ****   assert_param(IS_DMA_MEMORY_DATA_SIZE(hdma->Init.MemDataAlignment));
 171:Drivers/STM32L4xx_HAL_Driver/Src/stm32l4xx_hal_dma.c ****   assert_param(IS_DMA_MODE(hdma->Init.Mode));
 172:Drivers/STM32L4xx_HAL_Driver/Src/stm32l4xx_hal_dma.c ****   assert_param(IS_DMA_PRIORITY(hdma->Init.Priority));
 173:Drivers/STM32L4xx_HAL_Driver/Src/stm32l4xx_hal_dma.c **** 
 174:Drivers/STM32L4xx_HAL_Driver/Src/stm32l4xx_hal_dma.c ****   assert_param(IS_DMA_ALL_REQUEST(hdma->Init.Request));
 175:Drivers/STM32L4xx_HAL_Driver/Src/stm32l4xx_hal_dma.c **** 
 176:Drivers/STM32L4xx_HAL_Driver/Src/stm32l4xx_hal_dma.c ****   /* Compute the channel index */
 177:Drivers/STM32L4xx_HAL_Driver/Src/stm32l4xx_hal_dma.c ****   if ((uint32_t)(hdma->Instance) < (uint32_t)(DMA2_Channel1))
 178:Drivers/STM32L4xx_HAL_Driver/Src/stm32l4xx_hal_dma.c ****   {
 179:Drivers/STM32L4xx_HAL_Driver/Src/stm32l4xx_hal_dma.c ****     /* DMA1 */
 180:Drivers/STM32L4xx_HAL_Driver/Src/stm32l4xx_hal_dma.c ****     hdma->ChannelIndex = (((uint32_t)hdma->Instance - (uint32_t)DMA1_Channel1) / ((uint32_t)DMA1_Ch
 181:Drivers/STM32L4xx_HAL_Driver/Src/stm32l4xx_hal_dma.c ****     hdma->DmaBaseAddress = DMA1;
 182:Drivers/STM32L4xx_HAL_Driver/Src/stm32l4xx_hal_dma.c ****   }
 183:Drivers/STM32L4xx_HAL_Driver/Src/stm32l4xx_hal_dma.c ****   else
 184:Drivers/STM32L4xx_HAL_Driver/Src/stm32l4xx_hal_dma.c ****   {
 185:Drivers/STM32L4xx_HAL_Driver/Src/stm32l4xx_hal_dma.c ****     /* DMA2 */
 186:Drivers/STM32L4xx_HAL_Driver/Src/stm32l4xx_hal_dma.c ****     hdma->ChannelIndex = (((uint32_t)hdma->Instance - (uint32_t)DMA2_Channel1) / ((uint32_t)DMA2_Ch
 187:Drivers/STM32L4xx_HAL_Driver/Src/stm32l4xx_hal_dma.c ****     hdma->DmaBaseAddress = DMA2;
 188:Drivers/STM32L4xx_HAL_Driver/Src/stm32l4xx_hal_dma.c ****   }
 189:Drivers/STM32L4xx_HAL_Driver/Src/stm32l4xx_hal_dma.c **** 
 190:Drivers/STM32L4xx_HAL_Driver/Src/stm32l4xx_hal_dma.c ****   /* Change DMA peripheral state */
 191:Drivers/STM32L4xx_HAL_Driver/Src/stm32l4xx_hal_dma.c ****   hdma->State = HAL_DMA_STATE_BUSY;
 192:Drivers/STM32L4xx_HAL_Driver/Src/stm32l4xx_hal_dma.c **** 
 193:Drivers/STM32L4xx_HAL_Driver/Src/stm32l4xx_hal_dma.c ****   /* Get the CR register value */
 194:Drivers/STM32L4xx_HAL_Driver/Src/stm32l4xx_hal_dma.c ****   tmp = hdma->Instance->CCR;
 195:Drivers/STM32L4xx_HAL_Driver/Src/stm32l4xx_hal_dma.c **** 
 196:Drivers/STM32L4xx_HAL_Driver/Src/stm32l4xx_hal_dma.c ****   /* Clear PL, MSIZE, PSIZE, MINC, PINC, CIRC, DIR and MEM2MEM bits */
 197:Drivers/STM32L4xx_HAL_Driver/Src/stm32l4xx_hal_dma.c ****   tmp &= ((uint32_t)~(DMA_CCR_PL    | DMA_CCR_MSIZE  | DMA_CCR_PSIZE  |
 198:Drivers/STM32L4xx_HAL_Driver/Src/stm32l4xx_hal_dma.c ****                       DMA_CCR_MINC  | DMA_CCR_PINC   | DMA_CCR_CIRC   |
 199:Drivers/STM32L4xx_HAL_Driver/Src/stm32l4xx_hal_dma.c ****                       DMA_CCR_DIR   | DMA_CCR_MEM2MEM));
 200:Drivers/STM32L4xx_HAL_Driver/Src/stm32l4xx_hal_dma.c **** 
 201:Drivers/STM32L4xx_HAL_Driver/Src/stm32l4xx_hal_dma.c ****   /* Prepare the DMA Channel configuration */
ARM GAS  C:\Users\union\AppData\Local\Temp\ccZKxuJa.s 			page 5


 202:Drivers/STM32L4xx_HAL_Driver/Src/stm32l4xx_hal_dma.c ****   tmp |=  hdma->Init.Direction        |
 203:Drivers/STM32L4xx_HAL_Driver/Src/stm32l4xx_hal_dma.c ****           hdma->Init.PeriphInc           | hdma->Init.MemInc           |
 204:Drivers/STM32L4xx_HAL_Driver/Src/stm32l4xx_hal_dma.c ****           hdma->Init.PeriphDataAlignment | hdma->Init.MemDataAlignment |
 205:Drivers/STM32L4xx_HAL_Driver/Src/stm32l4xx_hal_dma.c ****           hdma->Init.Mode                | hdma->Init.Priority;
 206:Drivers/STM32L4xx_HAL_Driver/Src/stm32l4xx_hal_dma.c **** 
 207:Drivers/STM32L4xx_HAL_Driver/Src/stm32l4xx_hal_dma.c ****   /* Write to DMA Channel CR register */
 208:Drivers/STM32L4xx_HAL_Driver/Src/stm32l4xx_hal_dma.c ****   hdma->Instance->CCR = tmp;
 209:Drivers/STM32L4xx_HAL_Driver/Src/stm32l4xx_hal_dma.c **** 
 210:Drivers/STM32L4xx_HAL_Driver/Src/stm32l4xx_hal_dma.c **** #if defined(DMAMUX1)
 211:Drivers/STM32L4xx_HAL_Driver/Src/stm32l4xx_hal_dma.c ****   /* Initialize parameters for DMAMUX channel :
 212:Drivers/STM32L4xx_HAL_Driver/Src/stm32l4xx_hal_dma.c ****      DMAmuxChannel, DMAmuxChannelStatus and DMAmuxChannelStatusMask
 213:Drivers/STM32L4xx_HAL_Driver/Src/stm32l4xx_hal_dma.c ****   */
 214:Drivers/STM32L4xx_HAL_Driver/Src/stm32l4xx_hal_dma.c ****   DMA_CalcDMAMUXChannelBaseAndMask(hdma);
 215:Drivers/STM32L4xx_HAL_Driver/Src/stm32l4xx_hal_dma.c **** 
 216:Drivers/STM32L4xx_HAL_Driver/Src/stm32l4xx_hal_dma.c ****   if(hdma->Init.Direction == DMA_MEMORY_TO_MEMORY)
 217:Drivers/STM32L4xx_HAL_Driver/Src/stm32l4xx_hal_dma.c ****   {
 218:Drivers/STM32L4xx_HAL_Driver/Src/stm32l4xx_hal_dma.c ****     /* if memory to memory force the request to 0*/
 219:Drivers/STM32L4xx_HAL_Driver/Src/stm32l4xx_hal_dma.c ****     hdma->Init.Request = DMA_REQUEST_MEM2MEM;
 220:Drivers/STM32L4xx_HAL_Driver/Src/stm32l4xx_hal_dma.c ****   }
 221:Drivers/STM32L4xx_HAL_Driver/Src/stm32l4xx_hal_dma.c **** 
 222:Drivers/STM32L4xx_HAL_Driver/Src/stm32l4xx_hal_dma.c ****   /* Set peripheral request  to DMAMUX channel */
 223:Drivers/STM32L4xx_HAL_Driver/Src/stm32l4xx_hal_dma.c ****   hdma->DMAmuxChannel->CCR = (hdma->Init.Request & DMAMUX_CxCR_DMAREQ_ID);
 224:Drivers/STM32L4xx_HAL_Driver/Src/stm32l4xx_hal_dma.c **** 
 225:Drivers/STM32L4xx_HAL_Driver/Src/stm32l4xx_hal_dma.c ****   /* Clear the DMAMUX synchro overrun flag */
 226:Drivers/STM32L4xx_HAL_Driver/Src/stm32l4xx_hal_dma.c ****   hdma->DMAmuxChannelStatus->CFR = hdma->DMAmuxChannelStatusMask;
 227:Drivers/STM32L4xx_HAL_Driver/Src/stm32l4xx_hal_dma.c **** 
 228:Drivers/STM32L4xx_HAL_Driver/Src/stm32l4xx_hal_dma.c ****   if(((hdma->Init.Request > 0U) && (hdma->Init.Request <= DMA_REQUEST_GENERATOR3)))
 229:Drivers/STM32L4xx_HAL_Driver/Src/stm32l4xx_hal_dma.c ****   {
 230:Drivers/STM32L4xx_HAL_Driver/Src/stm32l4xx_hal_dma.c ****     /* Initialize parameters for DMAMUX request generator :
 231:Drivers/STM32L4xx_HAL_Driver/Src/stm32l4xx_hal_dma.c ****        DMAmuxRequestGen, DMAmuxRequestGenStatus and DMAmuxRequestGenStatusMask
 232:Drivers/STM32L4xx_HAL_Driver/Src/stm32l4xx_hal_dma.c ****     */
 233:Drivers/STM32L4xx_HAL_Driver/Src/stm32l4xx_hal_dma.c ****     DMA_CalcDMAMUXRequestGenBaseAndMask(hdma);
 234:Drivers/STM32L4xx_HAL_Driver/Src/stm32l4xx_hal_dma.c **** 
 235:Drivers/STM32L4xx_HAL_Driver/Src/stm32l4xx_hal_dma.c ****     /* Reset the DMAMUX request generator register*/
 236:Drivers/STM32L4xx_HAL_Driver/Src/stm32l4xx_hal_dma.c ****     hdma->DMAmuxRequestGen->RGCR = 0U;
 237:Drivers/STM32L4xx_HAL_Driver/Src/stm32l4xx_hal_dma.c **** 
 238:Drivers/STM32L4xx_HAL_Driver/Src/stm32l4xx_hal_dma.c ****     /* Clear the DMAMUX request generator overrun flag */
 239:Drivers/STM32L4xx_HAL_Driver/Src/stm32l4xx_hal_dma.c ****     hdma->DMAmuxRequestGenStatus->RGCFR = hdma->DMAmuxRequestGenStatusMask;
 240:Drivers/STM32L4xx_HAL_Driver/Src/stm32l4xx_hal_dma.c ****   }
 241:Drivers/STM32L4xx_HAL_Driver/Src/stm32l4xx_hal_dma.c ****   else
 242:Drivers/STM32L4xx_HAL_Driver/Src/stm32l4xx_hal_dma.c ****   {
 243:Drivers/STM32L4xx_HAL_Driver/Src/stm32l4xx_hal_dma.c ****     hdma->DMAmuxRequestGen = 0U;
 244:Drivers/STM32L4xx_HAL_Driver/Src/stm32l4xx_hal_dma.c ****     hdma->DMAmuxRequestGenStatus = 0U;
 245:Drivers/STM32L4xx_HAL_Driver/Src/stm32l4xx_hal_dma.c ****     hdma->DMAmuxRequestGenStatusMask = 0U;
 246:Drivers/STM32L4xx_HAL_Driver/Src/stm32l4xx_hal_dma.c ****   }
 247:Drivers/STM32L4xx_HAL_Driver/Src/stm32l4xx_hal_dma.c **** #endif /* DMAMUX1 */
 248:Drivers/STM32L4xx_HAL_Driver/Src/stm32l4xx_hal_dma.c **** 
 249:Drivers/STM32L4xx_HAL_Driver/Src/stm32l4xx_hal_dma.c **** #if !defined (DMAMUX1)
 250:Drivers/STM32L4xx_HAL_Driver/Src/stm32l4xx_hal_dma.c **** 
 251:Drivers/STM32L4xx_HAL_Driver/Src/stm32l4xx_hal_dma.c ****   /* Set request selection */
 252:Drivers/STM32L4xx_HAL_Driver/Src/stm32l4xx_hal_dma.c ****   if(hdma->Init.Direction != DMA_MEMORY_TO_MEMORY)
 253:Drivers/STM32L4xx_HAL_Driver/Src/stm32l4xx_hal_dma.c ****   {
 254:Drivers/STM32L4xx_HAL_Driver/Src/stm32l4xx_hal_dma.c ****     /* Write to DMA channel selection register */
 255:Drivers/STM32L4xx_HAL_Driver/Src/stm32l4xx_hal_dma.c ****     if (DMA1 == hdma->DmaBaseAddress)
 256:Drivers/STM32L4xx_HAL_Driver/Src/stm32l4xx_hal_dma.c ****     {
 257:Drivers/STM32L4xx_HAL_Driver/Src/stm32l4xx_hal_dma.c ****       /* Reset request selection for DMA1 Channelx */
 258:Drivers/STM32L4xx_HAL_Driver/Src/stm32l4xx_hal_dma.c ****       DMA1_CSELR->CSELR &= ~(DMA_CSELR_C1S << (hdma->ChannelIndex & 0x1cU));
ARM GAS  C:\Users\union\AppData\Local\Temp\ccZKxuJa.s 			page 6


 259:Drivers/STM32L4xx_HAL_Driver/Src/stm32l4xx_hal_dma.c **** 
 260:Drivers/STM32L4xx_HAL_Driver/Src/stm32l4xx_hal_dma.c ****       /* Configure request selection for DMA1 Channelx */
 261:Drivers/STM32L4xx_HAL_Driver/Src/stm32l4xx_hal_dma.c ****       DMA1_CSELR->CSELR |= (uint32_t) (hdma->Init.Request << (hdma->ChannelIndex & 0x1cU));
 262:Drivers/STM32L4xx_HAL_Driver/Src/stm32l4xx_hal_dma.c ****     }
 263:Drivers/STM32L4xx_HAL_Driver/Src/stm32l4xx_hal_dma.c ****     else /* DMA2 */
 264:Drivers/STM32L4xx_HAL_Driver/Src/stm32l4xx_hal_dma.c ****     {
 265:Drivers/STM32L4xx_HAL_Driver/Src/stm32l4xx_hal_dma.c ****       /* Reset request selection for DMA2 Channelx */
 266:Drivers/STM32L4xx_HAL_Driver/Src/stm32l4xx_hal_dma.c ****       DMA2_CSELR->CSELR &= ~(DMA_CSELR_C1S << (hdma->ChannelIndex & 0x1cU));
 267:Drivers/STM32L4xx_HAL_Driver/Src/stm32l4xx_hal_dma.c **** 
 268:Drivers/STM32L4xx_HAL_Driver/Src/stm32l4xx_hal_dma.c ****       /* Configure request selection for DMA2 Channelx */
 269:Drivers/STM32L4xx_HAL_Driver/Src/stm32l4xx_hal_dma.c ****       DMA2_CSELR->CSELR |= (uint32_t) (hdma->Init.Request << (hdma->ChannelIndex & 0x1cU));
 270:Drivers/STM32L4xx_HAL_Driver/Src/stm32l4xx_hal_dma.c ****     }
 271:Drivers/STM32L4xx_HAL_Driver/Src/stm32l4xx_hal_dma.c ****   }
 272:Drivers/STM32L4xx_HAL_Driver/Src/stm32l4xx_hal_dma.c **** 
 273:Drivers/STM32L4xx_HAL_Driver/Src/stm32l4xx_hal_dma.c **** #endif /* STM32L431xx || STM32L432xx || STM32L433xx || STM32L442xx || STM32L443xx */
 274:Drivers/STM32L4xx_HAL_Driver/Src/stm32l4xx_hal_dma.c ****        /* STM32L471xx || STM32L475xx || STM32L476xx || STM32L442xx || STM32L486xx */
 275:Drivers/STM32L4xx_HAL_Driver/Src/stm32l4xx_hal_dma.c ****        /* STM32L496xx || STM32L4A6xx                                              */
 276:Drivers/STM32L4xx_HAL_Driver/Src/stm32l4xx_hal_dma.c **** 
 277:Drivers/STM32L4xx_HAL_Driver/Src/stm32l4xx_hal_dma.c ****   /* Initialise the error code */
 278:Drivers/STM32L4xx_HAL_Driver/Src/stm32l4xx_hal_dma.c ****   hdma->ErrorCode = HAL_DMA_ERROR_NONE;
 279:Drivers/STM32L4xx_HAL_Driver/Src/stm32l4xx_hal_dma.c **** 
 280:Drivers/STM32L4xx_HAL_Driver/Src/stm32l4xx_hal_dma.c ****   /* Initialize the DMA state*/
 281:Drivers/STM32L4xx_HAL_Driver/Src/stm32l4xx_hal_dma.c ****   hdma->State = HAL_DMA_STATE_READY;
 282:Drivers/STM32L4xx_HAL_Driver/Src/stm32l4xx_hal_dma.c **** 
 283:Drivers/STM32L4xx_HAL_Driver/Src/stm32l4xx_hal_dma.c ****   /* Allocate lock resource and initialize it */
 284:Drivers/STM32L4xx_HAL_Driver/Src/stm32l4xx_hal_dma.c ****   hdma->Lock = HAL_UNLOCKED;
 285:Drivers/STM32L4xx_HAL_Driver/Src/stm32l4xx_hal_dma.c **** 
 286:Drivers/STM32L4xx_HAL_Driver/Src/stm32l4xx_hal_dma.c ****   return HAL_OK;
 287:Drivers/STM32L4xx_HAL_Driver/Src/stm32l4xx_hal_dma.c **** }
 288:Drivers/STM32L4xx_HAL_Driver/Src/stm32l4xx_hal_dma.c **** 
 289:Drivers/STM32L4xx_HAL_Driver/Src/stm32l4xx_hal_dma.c **** /**
 290:Drivers/STM32L4xx_HAL_Driver/Src/stm32l4xx_hal_dma.c ****   * @brief  DeInitialize the DMA peripheral.
 291:Drivers/STM32L4xx_HAL_Driver/Src/stm32l4xx_hal_dma.c ****   * @param  hdma pointer to a DMA_HandleTypeDef structure that contains
 292:Drivers/STM32L4xx_HAL_Driver/Src/stm32l4xx_hal_dma.c ****   *               the configuration information for the specified DMA Channel.
 293:Drivers/STM32L4xx_HAL_Driver/Src/stm32l4xx_hal_dma.c ****   * @retval HAL status
 294:Drivers/STM32L4xx_HAL_Driver/Src/stm32l4xx_hal_dma.c ****   */
 295:Drivers/STM32L4xx_HAL_Driver/Src/stm32l4xx_hal_dma.c **** HAL_StatusTypeDef HAL_DMA_DeInit(DMA_HandleTypeDef *hdma)
 296:Drivers/STM32L4xx_HAL_Driver/Src/stm32l4xx_hal_dma.c **** {
 297:Drivers/STM32L4xx_HAL_Driver/Src/stm32l4xx_hal_dma.c **** 
 298:Drivers/STM32L4xx_HAL_Driver/Src/stm32l4xx_hal_dma.c ****   /* Check the DMA handle allocation */
 299:Drivers/STM32L4xx_HAL_Driver/Src/stm32l4xx_hal_dma.c ****   if (NULL == hdma )
 300:Drivers/STM32L4xx_HAL_Driver/Src/stm32l4xx_hal_dma.c ****   {
 301:Drivers/STM32L4xx_HAL_Driver/Src/stm32l4xx_hal_dma.c ****     return HAL_ERROR;
 302:Drivers/STM32L4xx_HAL_Driver/Src/stm32l4xx_hal_dma.c ****   }
 303:Drivers/STM32L4xx_HAL_Driver/Src/stm32l4xx_hal_dma.c **** 
 304:Drivers/STM32L4xx_HAL_Driver/Src/stm32l4xx_hal_dma.c ****   /* Check the parameters */
 305:Drivers/STM32L4xx_HAL_Driver/Src/stm32l4xx_hal_dma.c ****   assert_param(IS_DMA_ALL_INSTANCE(hdma->Instance));
 306:Drivers/STM32L4xx_HAL_Driver/Src/stm32l4xx_hal_dma.c **** 
 307:Drivers/STM32L4xx_HAL_Driver/Src/stm32l4xx_hal_dma.c ****   /* Disable the selected DMA Channelx */
 308:Drivers/STM32L4xx_HAL_Driver/Src/stm32l4xx_hal_dma.c ****   __HAL_DMA_DISABLE(hdma);
 309:Drivers/STM32L4xx_HAL_Driver/Src/stm32l4xx_hal_dma.c **** 
 310:Drivers/STM32L4xx_HAL_Driver/Src/stm32l4xx_hal_dma.c ****   /* Compute the channel index */
 311:Drivers/STM32L4xx_HAL_Driver/Src/stm32l4xx_hal_dma.c ****   if ((uint32_t)(hdma->Instance) < (uint32_t)(DMA2_Channel1))
 312:Drivers/STM32L4xx_HAL_Driver/Src/stm32l4xx_hal_dma.c ****   {
 313:Drivers/STM32L4xx_HAL_Driver/Src/stm32l4xx_hal_dma.c ****     /* DMA1 */
 314:Drivers/STM32L4xx_HAL_Driver/Src/stm32l4xx_hal_dma.c ****     hdma->ChannelIndex = (((uint32_t)hdma->Instance - (uint32_t)DMA1_Channel1) / ((uint32_t)DMA1_Ch
 315:Drivers/STM32L4xx_HAL_Driver/Src/stm32l4xx_hal_dma.c ****     hdma->DmaBaseAddress = DMA1;
ARM GAS  C:\Users\union\AppData\Local\Temp\ccZKxuJa.s 			page 7


 316:Drivers/STM32L4xx_HAL_Driver/Src/stm32l4xx_hal_dma.c ****   }
 317:Drivers/STM32L4xx_HAL_Driver/Src/stm32l4xx_hal_dma.c ****   else
 318:Drivers/STM32L4xx_HAL_Driver/Src/stm32l4xx_hal_dma.c ****   {
 319:Drivers/STM32L4xx_HAL_Driver/Src/stm32l4xx_hal_dma.c ****     /* DMA2 */
 320:Drivers/STM32L4xx_HAL_Driver/Src/stm32l4xx_hal_dma.c ****     hdma->ChannelIndex = (((uint32_t)hdma->Instance - (uint32_t)DMA2_Channel1) / ((uint32_t)DMA2_Ch
 321:Drivers/STM32L4xx_HAL_Driver/Src/stm32l4xx_hal_dma.c ****     hdma->DmaBaseAddress = DMA2;
 322:Drivers/STM32L4xx_HAL_Driver/Src/stm32l4xx_hal_dma.c ****   }
 323:Drivers/STM32L4xx_HAL_Driver/Src/stm32l4xx_hal_dma.c **** 
 324:Drivers/STM32L4xx_HAL_Driver/Src/stm32l4xx_hal_dma.c ****   /* Reset DMA Channel control register */
 325:Drivers/STM32L4xx_HAL_Driver/Src/stm32l4xx_hal_dma.c ****   hdma->Instance->CCR = 0U;
 326:Drivers/STM32L4xx_HAL_Driver/Src/stm32l4xx_hal_dma.c **** 
 327:Drivers/STM32L4xx_HAL_Driver/Src/stm32l4xx_hal_dma.c ****   /* Clear all flags */
 328:Drivers/STM32L4xx_HAL_Driver/Src/stm32l4xx_hal_dma.c ****   hdma->DmaBaseAddress->IFCR = (DMA_ISR_GIF1 << (hdma->ChannelIndex & 0x1CU));
 329:Drivers/STM32L4xx_HAL_Driver/Src/stm32l4xx_hal_dma.c **** 
 330:Drivers/STM32L4xx_HAL_Driver/Src/stm32l4xx_hal_dma.c **** #if !defined (DMAMUX1)
 331:Drivers/STM32L4xx_HAL_Driver/Src/stm32l4xx_hal_dma.c **** 
 332:Drivers/STM32L4xx_HAL_Driver/Src/stm32l4xx_hal_dma.c ****   /* Reset DMA channel selection register */
 333:Drivers/STM32L4xx_HAL_Driver/Src/stm32l4xx_hal_dma.c ****   if (DMA1 == hdma->DmaBaseAddress)
 334:Drivers/STM32L4xx_HAL_Driver/Src/stm32l4xx_hal_dma.c ****   {
 335:Drivers/STM32L4xx_HAL_Driver/Src/stm32l4xx_hal_dma.c ****     /* DMA1 */
 336:Drivers/STM32L4xx_HAL_Driver/Src/stm32l4xx_hal_dma.c ****     DMA1_CSELR->CSELR &= ~(DMA_CSELR_C1S << (hdma->ChannelIndex & 0x1cU));
 337:Drivers/STM32L4xx_HAL_Driver/Src/stm32l4xx_hal_dma.c ****   }
 338:Drivers/STM32L4xx_HAL_Driver/Src/stm32l4xx_hal_dma.c ****   else
 339:Drivers/STM32L4xx_HAL_Driver/Src/stm32l4xx_hal_dma.c ****   {
 340:Drivers/STM32L4xx_HAL_Driver/Src/stm32l4xx_hal_dma.c ****     /* DMA2 */
 341:Drivers/STM32L4xx_HAL_Driver/Src/stm32l4xx_hal_dma.c ****     DMA2_CSELR->CSELR &= ~(DMA_CSELR_C1S << (hdma->ChannelIndex & 0x1cU));
 342:Drivers/STM32L4xx_HAL_Driver/Src/stm32l4xx_hal_dma.c ****   }
 343:Drivers/STM32L4xx_HAL_Driver/Src/stm32l4xx_hal_dma.c **** #endif /* STM32L431xx || STM32L432xx || STM32L433xx || STM32L442xx || STM32L443xx */
 344:Drivers/STM32L4xx_HAL_Driver/Src/stm32l4xx_hal_dma.c ****        /* STM32L471xx || STM32L475xx || STM32L476xx || STM32L442xx || STM32L486xx */
 345:Drivers/STM32L4xx_HAL_Driver/Src/stm32l4xx_hal_dma.c ****        /* STM32L496xx || STM32L4A6xx                                              */
 346:Drivers/STM32L4xx_HAL_Driver/Src/stm32l4xx_hal_dma.c **** 
 347:Drivers/STM32L4xx_HAL_Driver/Src/stm32l4xx_hal_dma.c **** #if defined(DMAMUX1)
 348:Drivers/STM32L4xx_HAL_Driver/Src/stm32l4xx_hal_dma.c **** 
 349:Drivers/STM32L4xx_HAL_Driver/Src/stm32l4xx_hal_dma.c ****   /* Initialize parameters for DMAMUX channel :
 350:Drivers/STM32L4xx_HAL_Driver/Src/stm32l4xx_hal_dma.c ****      DMAmuxChannel, DMAmuxChannelStatus and DMAmuxChannelStatusMask */
 351:Drivers/STM32L4xx_HAL_Driver/Src/stm32l4xx_hal_dma.c **** 
 352:Drivers/STM32L4xx_HAL_Driver/Src/stm32l4xx_hal_dma.c ****   DMA_CalcDMAMUXChannelBaseAndMask(hdma);
 353:Drivers/STM32L4xx_HAL_Driver/Src/stm32l4xx_hal_dma.c **** 
 354:Drivers/STM32L4xx_HAL_Driver/Src/stm32l4xx_hal_dma.c ****   /* Reset the DMAMUX channel that corresponds to the DMA channel */
 355:Drivers/STM32L4xx_HAL_Driver/Src/stm32l4xx_hal_dma.c ****   hdma->DMAmuxChannel->CCR = 0U;
 356:Drivers/STM32L4xx_HAL_Driver/Src/stm32l4xx_hal_dma.c **** 
 357:Drivers/STM32L4xx_HAL_Driver/Src/stm32l4xx_hal_dma.c ****   /* Clear the DMAMUX synchro overrun flag */
 358:Drivers/STM32L4xx_HAL_Driver/Src/stm32l4xx_hal_dma.c ****   hdma->DMAmuxChannelStatus->CFR = hdma->DMAmuxChannelStatusMask;
 359:Drivers/STM32L4xx_HAL_Driver/Src/stm32l4xx_hal_dma.c **** 
 360:Drivers/STM32L4xx_HAL_Driver/Src/stm32l4xx_hal_dma.c ****   /* Reset Request generator parameters if any */
 361:Drivers/STM32L4xx_HAL_Driver/Src/stm32l4xx_hal_dma.c ****   if(((hdma->Init.Request >  0U) && (hdma->Init.Request <= DMA_REQUEST_GENERATOR3)))
 362:Drivers/STM32L4xx_HAL_Driver/Src/stm32l4xx_hal_dma.c ****   {
 363:Drivers/STM32L4xx_HAL_Driver/Src/stm32l4xx_hal_dma.c ****     /* Initialize parameters for DMAMUX request generator :
 364:Drivers/STM32L4xx_HAL_Driver/Src/stm32l4xx_hal_dma.c ****        DMAmuxRequestGen, DMAmuxRequestGenStatus and DMAmuxRequestGenStatusMask
 365:Drivers/STM32L4xx_HAL_Driver/Src/stm32l4xx_hal_dma.c ****     */
 366:Drivers/STM32L4xx_HAL_Driver/Src/stm32l4xx_hal_dma.c ****     DMA_CalcDMAMUXRequestGenBaseAndMask(hdma);
 367:Drivers/STM32L4xx_HAL_Driver/Src/stm32l4xx_hal_dma.c **** 
 368:Drivers/STM32L4xx_HAL_Driver/Src/stm32l4xx_hal_dma.c ****     /* Reset the DMAMUX request generator register*/
 369:Drivers/STM32L4xx_HAL_Driver/Src/stm32l4xx_hal_dma.c ****     hdma->DMAmuxRequestGen->RGCR = 0U;
 370:Drivers/STM32L4xx_HAL_Driver/Src/stm32l4xx_hal_dma.c **** 
 371:Drivers/STM32L4xx_HAL_Driver/Src/stm32l4xx_hal_dma.c ****     /* Clear the DMAMUX request generator overrun flag */
 372:Drivers/STM32L4xx_HAL_Driver/Src/stm32l4xx_hal_dma.c ****     hdma->DMAmuxRequestGenStatus->RGCFR = hdma->DMAmuxRequestGenStatusMask;
ARM GAS  C:\Users\union\AppData\Local\Temp\ccZKxuJa.s 			page 8


 373:Drivers/STM32L4xx_HAL_Driver/Src/stm32l4xx_hal_dma.c ****   }
 374:Drivers/STM32L4xx_HAL_Driver/Src/stm32l4xx_hal_dma.c **** 
 375:Drivers/STM32L4xx_HAL_Driver/Src/stm32l4xx_hal_dma.c ****   hdma->DMAmuxRequestGen = 0U;
 376:Drivers/STM32L4xx_HAL_Driver/Src/stm32l4xx_hal_dma.c ****   hdma->DMAmuxRequestGenStatus = 0U;
 377:Drivers/STM32L4xx_HAL_Driver/Src/stm32l4xx_hal_dma.c ****   hdma->DMAmuxRequestGenStatusMask = 0U;
 378:Drivers/STM32L4xx_HAL_Driver/Src/stm32l4xx_hal_dma.c **** 
 379:Drivers/STM32L4xx_HAL_Driver/Src/stm32l4xx_hal_dma.c **** #endif /* DMAMUX1 */
 380:Drivers/STM32L4xx_HAL_Driver/Src/stm32l4xx_hal_dma.c **** 
 381:Drivers/STM32L4xx_HAL_Driver/Src/stm32l4xx_hal_dma.c ****   /* Clean callbacks */
 382:Drivers/STM32L4xx_HAL_Driver/Src/stm32l4xx_hal_dma.c ****   hdma->XferCpltCallback = NULL;
 383:Drivers/STM32L4xx_HAL_Driver/Src/stm32l4xx_hal_dma.c ****   hdma->XferHalfCpltCallback = NULL;
 384:Drivers/STM32L4xx_HAL_Driver/Src/stm32l4xx_hal_dma.c ****   hdma->XferErrorCallback = NULL;
 385:Drivers/STM32L4xx_HAL_Driver/Src/stm32l4xx_hal_dma.c ****   hdma->XferAbortCallback = NULL;
 386:Drivers/STM32L4xx_HAL_Driver/Src/stm32l4xx_hal_dma.c **** 
 387:Drivers/STM32L4xx_HAL_Driver/Src/stm32l4xx_hal_dma.c ****   /* Initialise the error code */
 388:Drivers/STM32L4xx_HAL_Driver/Src/stm32l4xx_hal_dma.c ****   hdma->ErrorCode = HAL_DMA_ERROR_NONE;
 389:Drivers/STM32L4xx_HAL_Driver/Src/stm32l4xx_hal_dma.c **** 
 390:Drivers/STM32L4xx_HAL_Driver/Src/stm32l4xx_hal_dma.c ****   /* Initialize the DMA state */
 391:Drivers/STM32L4xx_HAL_Driver/Src/stm32l4xx_hal_dma.c ****   hdma->State = HAL_DMA_STATE_RESET;
 392:Drivers/STM32L4xx_HAL_Driver/Src/stm32l4xx_hal_dma.c **** 
 393:Drivers/STM32L4xx_HAL_Driver/Src/stm32l4xx_hal_dma.c ****   /* Release Lock */
 394:Drivers/STM32L4xx_HAL_Driver/Src/stm32l4xx_hal_dma.c ****   __HAL_UNLOCK(hdma);
 395:Drivers/STM32L4xx_HAL_Driver/Src/stm32l4xx_hal_dma.c **** 
 396:Drivers/STM32L4xx_HAL_Driver/Src/stm32l4xx_hal_dma.c ****   return HAL_OK;
 397:Drivers/STM32L4xx_HAL_Driver/Src/stm32l4xx_hal_dma.c **** }
 398:Drivers/STM32L4xx_HAL_Driver/Src/stm32l4xx_hal_dma.c **** 
 399:Drivers/STM32L4xx_HAL_Driver/Src/stm32l4xx_hal_dma.c **** /**
 400:Drivers/STM32L4xx_HAL_Driver/Src/stm32l4xx_hal_dma.c ****   * @}
 401:Drivers/STM32L4xx_HAL_Driver/Src/stm32l4xx_hal_dma.c ****   */
 402:Drivers/STM32L4xx_HAL_Driver/Src/stm32l4xx_hal_dma.c **** 
 403:Drivers/STM32L4xx_HAL_Driver/Src/stm32l4xx_hal_dma.c **** /** @defgroup DMA_Exported_Functions_Group2 Input and Output operation functions
 404:Drivers/STM32L4xx_HAL_Driver/Src/stm32l4xx_hal_dma.c ****  *  @brief   Input and Output operation functions
 405:Drivers/STM32L4xx_HAL_Driver/Src/stm32l4xx_hal_dma.c ****  *
 406:Drivers/STM32L4xx_HAL_Driver/Src/stm32l4xx_hal_dma.c **** @verbatim
 407:Drivers/STM32L4xx_HAL_Driver/Src/stm32l4xx_hal_dma.c ****  ===============================================================================
 408:Drivers/STM32L4xx_HAL_Driver/Src/stm32l4xx_hal_dma.c ****                       #####  IO operation functions  #####
 409:Drivers/STM32L4xx_HAL_Driver/Src/stm32l4xx_hal_dma.c ****  ===============================================================================
 410:Drivers/STM32L4xx_HAL_Driver/Src/stm32l4xx_hal_dma.c ****     [..]  This section provides functions allowing to:
 411:Drivers/STM32L4xx_HAL_Driver/Src/stm32l4xx_hal_dma.c ****       (+) Configure the source, destination address and data length and Start DMA transfer
 412:Drivers/STM32L4xx_HAL_Driver/Src/stm32l4xx_hal_dma.c ****       (+) Configure the source, destination address and data length and
 413:Drivers/STM32L4xx_HAL_Driver/Src/stm32l4xx_hal_dma.c ****           Start DMA transfer with interrupt
 414:Drivers/STM32L4xx_HAL_Driver/Src/stm32l4xx_hal_dma.c ****       (+) Abort DMA transfer
 415:Drivers/STM32L4xx_HAL_Driver/Src/stm32l4xx_hal_dma.c ****       (+) Poll for transfer complete
 416:Drivers/STM32L4xx_HAL_Driver/Src/stm32l4xx_hal_dma.c ****       (+) Handle DMA interrupt request
 417:Drivers/STM32L4xx_HAL_Driver/Src/stm32l4xx_hal_dma.c **** 
 418:Drivers/STM32L4xx_HAL_Driver/Src/stm32l4xx_hal_dma.c **** @endverbatim
 419:Drivers/STM32L4xx_HAL_Driver/Src/stm32l4xx_hal_dma.c ****   * @{
 420:Drivers/STM32L4xx_HAL_Driver/Src/stm32l4xx_hal_dma.c ****   */
 421:Drivers/STM32L4xx_HAL_Driver/Src/stm32l4xx_hal_dma.c **** 
 422:Drivers/STM32L4xx_HAL_Driver/Src/stm32l4xx_hal_dma.c **** /**
 423:Drivers/STM32L4xx_HAL_Driver/Src/stm32l4xx_hal_dma.c ****   * @brief  Start the DMA Transfer.
 424:Drivers/STM32L4xx_HAL_Driver/Src/stm32l4xx_hal_dma.c ****   * @param  hdma pointer to a DMA_HandleTypeDef structure that contains
 425:Drivers/STM32L4xx_HAL_Driver/Src/stm32l4xx_hal_dma.c ****   *               the configuration information for the specified DMA Channel.
 426:Drivers/STM32L4xx_HAL_Driver/Src/stm32l4xx_hal_dma.c ****   * @param  SrcAddress The source memory Buffer address
 427:Drivers/STM32L4xx_HAL_Driver/Src/stm32l4xx_hal_dma.c ****   * @param  DstAddress The destination memory Buffer address
 428:Drivers/STM32L4xx_HAL_Driver/Src/stm32l4xx_hal_dma.c ****   * @param  DataLength The length of data to be transferred from source to destination
 429:Drivers/STM32L4xx_HAL_Driver/Src/stm32l4xx_hal_dma.c ****   * @retval HAL status
ARM GAS  C:\Users\union\AppData\Local\Temp\ccZKxuJa.s 			page 9


 430:Drivers/STM32L4xx_HAL_Driver/Src/stm32l4xx_hal_dma.c ****   */
 431:Drivers/STM32L4xx_HAL_Driver/Src/stm32l4xx_hal_dma.c **** HAL_StatusTypeDef HAL_DMA_Start(DMA_HandleTypeDef *hdma, uint32_t SrcAddress, uint32_t DstAddress, 
 432:Drivers/STM32L4xx_HAL_Driver/Src/stm32l4xx_hal_dma.c **** {
 433:Drivers/STM32L4xx_HAL_Driver/Src/stm32l4xx_hal_dma.c ****   HAL_StatusTypeDef status = HAL_OK;
 434:Drivers/STM32L4xx_HAL_Driver/Src/stm32l4xx_hal_dma.c **** 
 435:Drivers/STM32L4xx_HAL_Driver/Src/stm32l4xx_hal_dma.c ****   /* Check the parameters */
 436:Drivers/STM32L4xx_HAL_Driver/Src/stm32l4xx_hal_dma.c ****   assert_param(IS_DMA_BUFFER_SIZE(DataLength));
 437:Drivers/STM32L4xx_HAL_Driver/Src/stm32l4xx_hal_dma.c **** 
 438:Drivers/STM32L4xx_HAL_Driver/Src/stm32l4xx_hal_dma.c ****   /* Process locked */
 439:Drivers/STM32L4xx_HAL_Driver/Src/stm32l4xx_hal_dma.c ****   __HAL_LOCK(hdma);
 440:Drivers/STM32L4xx_HAL_Driver/Src/stm32l4xx_hal_dma.c **** 
 441:Drivers/STM32L4xx_HAL_Driver/Src/stm32l4xx_hal_dma.c ****   if(HAL_DMA_STATE_READY == hdma->State)
 442:Drivers/STM32L4xx_HAL_Driver/Src/stm32l4xx_hal_dma.c ****   {
 443:Drivers/STM32L4xx_HAL_Driver/Src/stm32l4xx_hal_dma.c ****     /* Change DMA peripheral state */
 444:Drivers/STM32L4xx_HAL_Driver/Src/stm32l4xx_hal_dma.c ****     hdma->State = HAL_DMA_STATE_BUSY;
 445:Drivers/STM32L4xx_HAL_Driver/Src/stm32l4xx_hal_dma.c ****     hdma->ErrorCode = HAL_DMA_ERROR_NONE;
 446:Drivers/STM32L4xx_HAL_Driver/Src/stm32l4xx_hal_dma.c **** 
 447:Drivers/STM32L4xx_HAL_Driver/Src/stm32l4xx_hal_dma.c ****     /* Disable the peripheral */
 448:Drivers/STM32L4xx_HAL_Driver/Src/stm32l4xx_hal_dma.c ****     __HAL_DMA_DISABLE(hdma);
 449:Drivers/STM32L4xx_HAL_Driver/Src/stm32l4xx_hal_dma.c **** 
 450:Drivers/STM32L4xx_HAL_Driver/Src/stm32l4xx_hal_dma.c ****     /* Configure the source, destination address and the data length & clear flags*/
 451:Drivers/STM32L4xx_HAL_Driver/Src/stm32l4xx_hal_dma.c ****     DMA_SetConfig(hdma, SrcAddress, DstAddress, DataLength);
 452:Drivers/STM32L4xx_HAL_Driver/Src/stm32l4xx_hal_dma.c **** 
 453:Drivers/STM32L4xx_HAL_Driver/Src/stm32l4xx_hal_dma.c ****     /* Enable the Peripheral */
 454:Drivers/STM32L4xx_HAL_Driver/Src/stm32l4xx_hal_dma.c ****     __HAL_DMA_ENABLE(hdma);
 455:Drivers/STM32L4xx_HAL_Driver/Src/stm32l4xx_hal_dma.c ****   }
 456:Drivers/STM32L4xx_HAL_Driver/Src/stm32l4xx_hal_dma.c ****   else
 457:Drivers/STM32L4xx_HAL_Driver/Src/stm32l4xx_hal_dma.c ****   {
 458:Drivers/STM32L4xx_HAL_Driver/Src/stm32l4xx_hal_dma.c ****     /* Process Unlocked */
 459:Drivers/STM32L4xx_HAL_Driver/Src/stm32l4xx_hal_dma.c ****     __HAL_UNLOCK(hdma);
 460:Drivers/STM32L4xx_HAL_Driver/Src/stm32l4xx_hal_dma.c ****     status = HAL_BUSY;
 461:Drivers/STM32L4xx_HAL_Driver/Src/stm32l4xx_hal_dma.c ****   }
 462:Drivers/STM32L4xx_HAL_Driver/Src/stm32l4xx_hal_dma.c ****   return status;
 463:Drivers/STM32L4xx_HAL_Driver/Src/stm32l4xx_hal_dma.c **** }
 464:Drivers/STM32L4xx_HAL_Driver/Src/stm32l4xx_hal_dma.c **** 
 465:Drivers/STM32L4xx_HAL_Driver/Src/stm32l4xx_hal_dma.c **** /**
 466:Drivers/STM32L4xx_HAL_Driver/Src/stm32l4xx_hal_dma.c ****   * @brief  Start the DMA Transfer with interrupt enabled.
 467:Drivers/STM32L4xx_HAL_Driver/Src/stm32l4xx_hal_dma.c ****   * @param  hdma pointer to a DMA_HandleTypeDef structure that contains
 468:Drivers/STM32L4xx_HAL_Driver/Src/stm32l4xx_hal_dma.c ****   *               the configuration information for the specified DMA Channel.
 469:Drivers/STM32L4xx_HAL_Driver/Src/stm32l4xx_hal_dma.c ****   * @param  SrcAddress The source memory Buffer address
 470:Drivers/STM32L4xx_HAL_Driver/Src/stm32l4xx_hal_dma.c ****   * @param  DstAddress The destination memory Buffer address
 471:Drivers/STM32L4xx_HAL_Driver/Src/stm32l4xx_hal_dma.c ****   * @param  DataLength The length of data to be transferred from source to destination
 472:Drivers/STM32L4xx_HAL_Driver/Src/stm32l4xx_hal_dma.c ****   * @retval HAL status
 473:Drivers/STM32L4xx_HAL_Driver/Src/stm32l4xx_hal_dma.c ****   */
 474:Drivers/STM32L4xx_HAL_Driver/Src/stm32l4xx_hal_dma.c **** HAL_StatusTypeDef HAL_DMA_Start_IT(DMA_HandleTypeDef *hdma, uint32_t SrcAddress, uint32_t DstAddres
 475:Drivers/STM32L4xx_HAL_Driver/Src/stm32l4xx_hal_dma.c **** {
 476:Drivers/STM32L4xx_HAL_Driver/Src/stm32l4xx_hal_dma.c ****   HAL_StatusTypeDef status = HAL_OK;
 477:Drivers/STM32L4xx_HAL_Driver/Src/stm32l4xx_hal_dma.c **** 
 478:Drivers/STM32L4xx_HAL_Driver/Src/stm32l4xx_hal_dma.c ****   /* Check the parameters */
 479:Drivers/STM32L4xx_HAL_Driver/Src/stm32l4xx_hal_dma.c ****   assert_param(IS_DMA_BUFFER_SIZE(DataLength));
 480:Drivers/STM32L4xx_HAL_Driver/Src/stm32l4xx_hal_dma.c **** 
 481:Drivers/STM32L4xx_HAL_Driver/Src/stm32l4xx_hal_dma.c ****   /* Process locked */
 482:Drivers/STM32L4xx_HAL_Driver/Src/stm32l4xx_hal_dma.c ****   __HAL_LOCK(hdma);
 483:Drivers/STM32L4xx_HAL_Driver/Src/stm32l4xx_hal_dma.c **** 
 484:Drivers/STM32L4xx_HAL_Driver/Src/stm32l4xx_hal_dma.c ****   if(HAL_DMA_STATE_READY == hdma->State)
 485:Drivers/STM32L4xx_HAL_Driver/Src/stm32l4xx_hal_dma.c ****   {
 486:Drivers/STM32L4xx_HAL_Driver/Src/stm32l4xx_hal_dma.c ****     /* Change DMA peripheral state */
ARM GAS  C:\Users\union\AppData\Local\Temp\ccZKxuJa.s 			page 10


 487:Drivers/STM32L4xx_HAL_Driver/Src/stm32l4xx_hal_dma.c ****     hdma->State = HAL_DMA_STATE_BUSY;
 488:Drivers/STM32L4xx_HAL_Driver/Src/stm32l4xx_hal_dma.c ****     hdma->ErrorCode = HAL_DMA_ERROR_NONE;
 489:Drivers/STM32L4xx_HAL_Driver/Src/stm32l4xx_hal_dma.c **** 
 490:Drivers/STM32L4xx_HAL_Driver/Src/stm32l4xx_hal_dma.c ****     /* Disable the peripheral */
 491:Drivers/STM32L4xx_HAL_Driver/Src/stm32l4xx_hal_dma.c ****     __HAL_DMA_DISABLE(hdma);
 492:Drivers/STM32L4xx_HAL_Driver/Src/stm32l4xx_hal_dma.c **** 
 493:Drivers/STM32L4xx_HAL_Driver/Src/stm32l4xx_hal_dma.c ****     /* Configure the source, destination address and the data length & clear flags*/
 494:Drivers/STM32L4xx_HAL_Driver/Src/stm32l4xx_hal_dma.c ****     DMA_SetConfig(hdma, SrcAddress, DstAddress, DataLength);
 495:Drivers/STM32L4xx_HAL_Driver/Src/stm32l4xx_hal_dma.c **** 
 496:Drivers/STM32L4xx_HAL_Driver/Src/stm32l4xx_hal_dma.c ****     /* Enable the transfer complete interrupt */
 497:Drivers/STM32L4xx_HAL_Driver/Src/stm32l4xx_hal_dma.c ****     /* Enable the transfer Error interrupt */
 498:Drivers/STM32L4xx_HAL_Driver/Src/stm32l4xx_hal_dma.c ****     if(NULL != hdma->XferHalfCpltCallback )
 499:Drivers/STM32L4xx_HAL_Driver/Src/stm32l4xx_hal_dma.c ****     {
 500:Drivers/STM32L4xx_HAL_Driver/Src/stm32l4xx_hal_dma.c ****       /* Enable the Half transfer complete interrupt as well */
 501:Drivers/STM32L4xx_HAL_Driver/Src/stm32l4xx_hal_dma.c ****       __HAL_DMA_ENABLE_IT(hdma, (DMA_IT_TC | DMA_IT_HT | DMA_IT_TE));
 502:Drivers/STM32L4xx_HAL_Driver/Src/stm32l4xx_hal_dma.c ****     }
 503:Drivers/STM32L4xx_HAL_Driver/Src/stm32l4xx_hal_dma.c ****     else
 504:Drivers/STM32L4xx_HAL_Driver/Src/stm32l4xx_hal_dma.c ****     {
 505:Drivers/STM32L4xx_HAL_Driver/Src/stm32l4xx_hal_dma.c ****       __HAL_DMA_DISABLE_IT(hdma, DMA_IT_HT);
 506:Drivers/STM32L4xx_HAL_Driver/Src/stm32l4xx_hal_dma.c ****       __HAL_DMA_ENABLE_IT(hdma, (DMA_IT_TC | DMA_IT_TE));
 507:Drivers/STM32L4xx_HAL_Driver/Src/stm32l4xx_hal_dma.c ****     }
 508:Drivers/STM32L4xx_HAL_Driver/Src/stm32l4xx_hal_dma.c **** 
 509:Drivers/STM32L4xx_HAL_Driver/Src/stm32l4xx_hal_dma.c **** #ifdef DMAMUX1
 510:Drivers/STM32L4xx_HAL_Driver/Src/stm32l4xx_hal_dma.c **** 
 511:Drivers/STM32L4xx_HAL_Driver/Src/stm32l4xx_hal_dma.c ****     /* Check if DMAMUX Synchronization is enabled*/
 512:Drivers/STM32L4xx_HAL_Driver/Src/stm32l4xx_hal_dma.c ****     if((hdma->DMAmuxChannel->CCR & DMAMUX_CxCR_SE) != 0U)
 513:Drivers/STM32L4xx_HAL_Driver/Src/stm32l4xx_hal_dma.c ****     {
 514:Drivers/STM32L4xx_HAL_Driver/Src/stm32l4xx_hal_dma.c ****       /* Enable DMAMUX sync overrun IT*/
 515:Drivers/STM32L4xx_HAL_Driver/Src/stm32l4xx_hal_dma.c ****       hdma->DMAmuxChannel->CCR |= DMAMUX_CxCR_SOIE;
 516:Drivers/STM32L4xx_HAL_Driver/Src/stm32l4xx_hal_dma.c ****     }
 517:Drivers/STM32L4xx_HAL_Driver/Src/stm32l4xx_hal_dma.c **** 
 518:Drivers/STM32L4xx_HAL_Driver/Src/stm32l4xx_hal_dma.c ****     if(hdma->DMAmuxRequestGen != 0U)
 519:Drivers/STM32L4xx_HAL_Driver/Src/stm32l4xx_hal_dma.c ****     {
 520:Drivers/STM32L4xx_HAL_Driver/Src/stm32l4xx_hal_dma.c ****       /* if using DMAMUX request generator, enable the DMAMUX request generator overrun IT*/
 521:Drivers/STM32L4xx_HAL_Driver/Src/stm32l4xx_hal_dma.c ****       /* enable the request gen overrun IT*/
 522:Drivers/STM32L4xx_HAL_Driver/Src/stm32l4xx_hal_dma.c ****       hdma->DMAmuxRequestGen->RGCR |= DMAMUX_RGxCR_OIE;
 523:Drivers/STM32L4xx_HAL_Driver/Src/stm32l4xx_hal_dma.c ****     }
 524:Drivers/STM32L4xx_HAL_Driver/Src/stm32l4xx_hal_dma.c **** 
 525:Drivers/STM32L4xx_HAL_Driver/Src/stm32l4xx_hal_dma.c **** #endif /* DMAMUX1 */
 526:Drivers/STM32L4xx_HAL_Driver/Src/stm32l4xx_hal_dma.c **** 
 527:Drivers/STM32L4xx_HAL_Driver/Src/stm32l4xx_hal_dma.c ****     /* Enable the Peripheral */
 528:Drivers/STM32L4xx_HAL_Driver/Src/stm32l4xx_hal_dma.c ****     __HAL_DMA_ENABLE(hdma);
 529:Drivers/STM32L4xx_HAL_Driver/Src/stm32l4xx_hal_dma.c ****   }
 530:Drivers/STM32L4xx_HAL_Driver/Src/stm32l4xx_hal_dma.c ****   else
 531:Drivers/STM32L4xx_HAL_Driver/Src/stm32l4xx_hal_dma.c ****   {
 532:Drivers/STM32L4xx_HAL_Driver/Src/stm32l4xx_hal_dma.c ****     /* Process Unlocked */
 533:Drivers/STM32L4xx_HAL_Driver/Src/stm32l4xx_hal_dma.c ****     __HAL_UNLOCK(hdma);
 534:Drivers/STM32L4xx_HAL_Driver/Src/stm32l4xx_hal_dma.c **** 
 535:Drivers/STM32L4xx_HAL_Driver/Src/stm32l4xx_hal_dma.c ****     /* Remain BUSY */
 536:Drivers/STM32L4xx_HAL_Driver/Src/stm32l4xx_hal_dma.c ****     status = HAL_BUSY;
 537:Drivers/STM32L4xx_HAL_Driver/Src/stm32l4xx_hal_dma.c ****   }
 538:Drivers/STM32L4xx_HAL_Driver/Src/stm32l4xx_hal_dma.c ****   return status;
 539:Drivers/STM32L4xx_HAL_Driver/Src/stm32l4xx_hal_dma.c **** }
 540:Drivers/STM32L4xx_HAL_Driver/Src/stm32l4xx_hal_dma.c **** 
 541:Drivers/STM32L4xx_HAL_Driver/Src/stm32l4xx_hal_dma.c **** /**
 542:Drivers/STM32L4xx_HAL_Driver/Src/stm32l4xx_hal_dma.c ****   * @brief  Abort the DMA Transfer.
 543:Drivers/STM32L4xx_HAL_Driver/Src/stm32l4xx_hal_dma.c ****   * @param  hdma pointer to a DMA_HandleTypeDef structure that contains
ARM GAS  C:\Users\union\AppData\Local\Temp\ccZKxuJa.s 			page 11


 544:Drivers/STM32L4xx_HAL_Driver/Src/stm32l4xx_hal_dma.c ****   *               the configuration information for the specified DMA Channel.
 545:Drivers/STM32L4xx_HAL_Driver/Src/stm32l4xx_hal_dma.c ****     * @retval HAL status
 546:Drivers/STM32L4xx_HAL_Driver/Src/stm32l4xx_hal_dma.c ****   */
 547:Drivers/STM32L4xx_HAL_Driver/Src/stm32l4xx_hal_dma.c **** HAL_StatusTypeDef HAL_DMA_Abort(DMA_HandleTypeDef *hdma)
 548:Drivers/STM32L4xx_HAL_Driver/Src/stm32l4xx_hal_dma.c **** {
 549:Drivers/STM32L4xx_HAL_Driver/Src/stm32l4xx_hal_dma.c ****   HAL_StatusTypeDef status = HAL_OK;
 550:Drivers/STM32L4xx_HAL_Driver/Src/stm32l4xx_hal_dma.c **** 
 551:Drivers/STM32L4xx_HAL_Driver/Src/stm32l4xx_hal_dma.c ****   /* Check the DMA peripheral state */
 552:Drivers/STM32L4xx_HAL_Driver/Src/stm32l4xx_hal_dma.c ****   if(hdma->State != HAL_DMA_STATE_BUSY)
 553:Drivers/STM32L4xx_HAL_Driver/Src/stm32l4xx_hal_dma.c ****   {
 554:Drivers/STM32L4xx_HAL_Driver/Src/stm32l4xx_hal_dma.c ****     hdma->ErrorCode = HAL_DMA_ERROR_NO_XFER;
 555:Drivers/STM32L4xx_HAL_Driver/Src/stm32l4xx_hal_dma.c **** 
 556:Drivers/STM32L4xx_HAL_Driver/Src/stm32l4xx_hal_dma.c ****     /* Process Unlocked */
 557:Drivers/STM32L4xx_HAL_Driver/Src/stm32l4xx_hal_dma.c ****     __HAL_UNLOCK(hdma);
 558:Drivers/STM32L4xx_HAL_Driver/Src/stm32l4xx_hal_dma.c **** 
 559:Drivers/STM32L4xx_HAL_Driver/Src/stm32l4xx_hal_dma.c ****     return HAL_ERROR;
 560:Drivers/STM32L4xx_HAL_Driver/Src/stm32l4xx_hal_dma.c ****   }
 561:Drivers/STM32L4xx_HAL_Driver/Src/stm32l4xx_hal_dma.c ****   else
 562:Drivers/STM32L4xx_HAL_Driver/Src/stm32l4xx_hal_dma.c ****   {
 563:Drivers/STM32L4xx_HAL_Driver/Src/stm32l4xx_hal_dma.c ****     /* Disable DMA IT */
 564:Drivers/STM32L4xx_HAL_Driver/Src/stm32l4xx_hal_dma.c ****     __HAL_DMA_DISABLE_IT(hdma, (DMA_IT_TC | DMA_IT_HT | DMA_IT_TE));
 565:Drivers/STM32L4xx_HAL_Driver/Src/stm32l4xx_hal_dma.c **** 
 566:Drivers/STM32L4xx_HAL_Driver/Src/stm32l4xx_hal_dma.c **** #if defined(DMAMUX1)
 567:Drivers/STM32L4xx_HAL_Driver/Src/stm32l4xx_hal_dma.c ****     /* disable the DMAMUX sync overrun IT*/
 568:Drivers/STM32L4xx_HAL_Driver/Src/stm32l4xx_hal_dma.c ****     hdma->DMAmuxChannel->CCR &= ~DMAMUX_CxCR_SOIE;
 569:Drivers/STM32L4xx_HAL_Driver/Src/stm32l4xx_hal_dma.c **** #endif /* DMAMUX1 */
 570:Drivers/STM32L4xx_HAL_Driver/Src/stm32l4xx_hal_dma.c **** 
 571:Drivers/STM32L4xx_HAL_Driver/Src/stm32l4xx_hal_dma.c ****     /* Disable the channel */
 572:Drivers/STM32L4xx_HAL_Driver/Src/stm32l4xx_hal_dma.c ****     __HAL_DMA_DISABLE(hdma);
 573:Drivers/STM32L4xx_HAL_Driver/Src/stm32l4xx_hal_dma.c **** 
 574:Drivers/STM32L4xx_HAL_Driver/Src/stm32l4xx_hal_dma.c ****     /* Clear all flags */
 575:Drivers/STM32L4xx_HAL_Driver/Src/stm32l4xx_hal_dma.c ****     hdma->DmaBaseAddress->IFCR = (DMA_ISR_GIF1 << (hdma->ChannelIndex & 0x1CU));
 576:Drivers/STM32L4xx_HAL_Driver/Src/stm32l4xx_hal_dma.c **** 
 577:Drivers/STM32L4xx_HAL_Driver/Src/stm32l4xx_hal_dma.c **** #if defined(DMAMUX1)
 578:Drivers/STM32L4xx_HAL_Driver/Src/stm32l4xx_hal_dma.c ****     /* Clear the DMAMUX synchro overrun flag */
 579:Drivers/STM32L4xx_HAL_Driver/Src/stm32l4xx_hal_dma.c ****     hdma->DMAmuxChannelStatus->CFR = hdma->DMAmuxChannelStatusMask;
 580:Drivers/STM32L4xx_HAL_Driver/Src/stm32l4xx_hal_dma.c **** 
 581:Drivers/STM32L4xx_HAL_Driver/Src/stm32l4xx_hal_dma.c ****     if(hdma->DMAmuxRequestGen != 0U)
 582:Drivers/STM32L4xx_HAL_Driver/Src/stm32l4xx_hal_dma.c ****     {
 583:Drivers/STM32L4xx_HAL_Driver/Src/stm32l4xx_hal_dma.c ****       /* if using DMAMUX request generator, disable the DMAMUX request generator overrun IT*/
 584:Drivers/STM32L4xx_HAL_Driver/Src/stm32l4xx_hal_dma.c ****       /* disable the request gen overrun IT*/
 585:Drivers/STM32L4xx_HAL_Driver/Src/stm32l4xx_hal_dma.c ****       hdma->DMAmuxRequestGen->RGCR &= ~DMAMUX_RGxCR_OIE;
 586:Drivers/STM32L4xx_HAL_Driver/Src/stm32l4xx_hal_dma.c **** 
 587:Drivers/STM32L4xx_HAL_Driver/Src/stm32l4xx_hal_dma.c ****       /* Clear the DMAMUX request generator overrun flag */
 588:Drivers/STM32L4xx_HAL_Driver/Src/stm32l4xx_hal_dma.c ****       hdma->DMAmuxRequestGenStatus->RGCFR = hdma->DMAmuxRequestGenStatusMask;
 589:Drivers/STM32L4xx_HAL_Driver/Src/stm32l4xx_hal_dma.c ****     }
 590:Drivers/STM32L4xx_HAL_Driver/Src/stm32l4xx_hal_dma.c **** 
 591:Drivers/STM32L4xx_HAL_Driver/Src/stm32l4xx_hal_dma.c **** #endif /* DMAMUX1 */
 592:Drivers/STM32L4xx_HAL_Driver/Src/stm32l4xx_hal_dma.c **** 
 593:Drivers/STM32L4xx_HAL_Driver/Src/stm32l4xx_hal_dma.c ****     /* Change the DMA state */
 594:Drivers/STM32L4xx_HAL_Driver/Src/stm32l4xx_hal_dma.c ****     hdma->State = HAL_DMA_STATE_READY;
 595:Drivers/STM32L4xx_HAL_Driver/Src/stm32l4xx_hal_dma.c **** 
 596:Drivers/STM32L4xx_HAL_Driver/Src/stm32l4xx_hal_dma.c ****     /* Process Unlocked */
 597:Drivers/STM32L4xx_HAL_Driver/Src/stm32l4xx_hal_dma.c ****     __HAL_UNLOCK(hdma);
 598:Drivers/STM32L4xx_HAL_Driver/Src/stm32l4xx_hal_dma.c **** 
 599:Drivers/STM32L4xx_HAL_Driver/Src/stm32l4xx_hal_dma.c ****     return status;
 600:Drivers/STM32L4xx_HAL_Driver/Src/stm32l4xx_hal_dma.c ****   }
ARM GAS  C:\Users\union\AppData\Local\Temp\ccZKxuJa.s 			page 12


 601:Drivers/STM32L4xx_HAL_Driver/Src/stm32l4xx_hal_dma.c **** }
 602:Drivers/STM32L4xx_HAL_Driver/Src/stm32l4xx_hal_dma.c **** 
 603:Drivers/STM32L4xx_HAL_Driver/Src/stm32l4xx_hal_dma.c **** /**
 604:Drivers/STM32L4xx_HAL_Driver/Src/stm32l4xx_hal_dma.c ****   * @brief  Aborts the DMA Transfer in Interrupt mode.
 605:Drivers/STM32L4xx_HAL_Driver/Src/stm32l4xx_hal_dma.c ****   * @param  hdma pointer to a DMA_HandleTypeDef structure that contains
 606:Drivers/STM32L4xx_HAL_Driver/Src/stm32l4xx_hal_dma.c ****   *                 the configuration information for the specified DMA Channel.
 607:Drivers/STM32L4xx_HAL_Driver/Src/stm32l4xx_hal_dma.c ****   * @retval HAL status
 608:Drivers/STM32L4xx_HAL_Driver/Src/stm32l4xx_hal_dma.c ****   */
 609:Drivers/STM32L4xx_HAL_Driver/Src/stm32l4xx_hal_dma.c **** HAL_StatusTypeDef HAL_DMA_Abort_IT(DMA_HandleTypeDef *hdma)
 610:Drivers/STM32L4xx_HAL_Driver/Src/stm32l4xx_hal_dma.c **** {
 611:Drivers/STM32L4xx_HAL_Driver/Src/stm32l4xx_hal_dma.c ****   HAL_StatusTypeDef status = HAL_OK;
 612:Drivers/STM32L4xx_HAL_Driver/Src/stm32l4xx_hal_dma.c **** 
 613:Drivers/STM32L4xx_HAL_Driver/Src/stm32l4xx_hal_dma.c ****   if(HAL_DMA_STATE_BUSY != hdma->State)
 614:Drivers/STM32L4xx_HAL_Driver/Src/stm32l4xx_hal_dma.c ****   {
 615:Drivers/STM32L4xx_HAL_Driver/Src/stm32l4xx_hal_dma.c ****     /* no transfer ongoing */
 616:Drivers/STM32L4xx_HAL_Driver/Src/stm32l4xx_hal_dma.c ****     hdma->ErrorCode = HAL_DMA_ERROR_NO_XFER;
 617:Drivers/STM32L4xx_HAL_Driver/Src/stm32l4xx_hal_dma.c **** 
 618:Drivers/STM32L4xx_HAL_Driver/Src/stm32l4xx_hal_dma.c ****     status = HAL_ERROR;
 619:Drivers/STM32L4xx_HAL_Driver/Src/stm32l4xx_hal_dma.c ****   }
 620:Drivers/STM32L4xx_HAL_Driver/Src/stm32l4xx_hal_dma.c ****   else
 621:Drivers/STM32L4xx_HAL_Driver/Src/stm32l4xx_hal_dma.c ****   {
 622:Drivers/STM32L4xx_HAL_Driver/Src/stm32l4xx_hal_dma.c ****     /* Disable DMA IT */
 623:Drivers/STM32L4xx_HAL_Driver/Src/stm32l4xx_hal_dma.c ****     __HAL_DMA_DISABLE_IT(hdma, (DMA_IT_TC | DMA_IT_HT | DMA_IT_TE));
 624:Drivers/STM32L4xx_HAL_Driver/Src/stm32l4xx_hal_dma.c **** 
 625:Drivers/STM32L4xx_HAL_Driver/Src/stm32l4xx_hal_dma.c ****     /* Disable the channel */
 626:Drivers/STM32L4xx_HAL_Driver/Src/stm32l4xx_hal_dma.c ****     __HAL_DMA_DISABLE(hdma);
 627:Drivers/STM32L4xx_HAL_Driver/Src/stm32l4xx_hal_dma.c **** 
 628:Drivers/STM32L4xx_HAL_Driver/Src/stm32l4xx_hal_dma.c **** #if defined(DMAMUX1)
 629:Drivers/STM32L4xx_HAL_Driver/Src/stm32l4xx_hal_dma.c ****     /* disable the DMAMUX sync overrun IT*/
 630:Drivers/STM32L4xx_HAL_Driver/Src/stm32l4xx_hal_dma.c ****     hdma->DMAmuxChannel->CCR &= ~DMAMUX_CxCR_SOIE;
 631:Drivers/STM32L4xx_HAL_Driver/Src/stm32l4xx_hal_dma.c **** 
 632:Drivers/STM32L4xx_HAL_Driver/Src/stm32l4xx_hal_dma.c ****     /* Clear all flags */
 633:Drivers/STM32L4xx_HAL_Driver/Src/stm32l4xx_hal_dma.c ****     hdma->DmaBaseAddress->IFCR = (DMA_ISR_GIF1 << (hdma->ChannelIndex & 0x1CU));
 634:Drivers/STM32L4xx_HAL_Driver/Src/stm32l4xx_hal_dma.c **** 
 635:Drivers/STM32L4xx_HAL_Driver/Src/stm32l4xx_hal_dma.c ****     /* Clear the DMAMUX synchro overrun flag */
 636:Drivers/STM32L4xx_HAL_Driver/Src/stm32l4xx_hal_dma.c ****     hdma->DMAmuxChannelStatus->CFR = hdma->DMAmuxChannelStatusMask;
 637:Drivers/STM32L4xx_HAL_Driver/Src/stm32l4xx_hal_dma.c **** 
 638:Drivers/STM32L4xx_HAL_Driver/Src/stm32l4xx_hal_dma.c ****     if(hdma->DMAmuxRequestGen != 0U)
 639:Drivers/STM32L4xx_HAL_Driver/Src/stm32l4xx_hal_dma.c ****     {
 640:Drivers/STM32L4xx_HAL_Driver/Src/stm32l4xx_hal_dma.c ****       /* if using DMAMUX request generator, disable the DMAMUX request generator overrun IT*/
 641:Drivers/STM32L4xx_HAL_Driver/Src/stm32l4xx_hal_dma.c ****       /* disable the request gen overrun IT*/
 642:Drivers/STM32L4xx_HAL_Driver/Src/stm32l4xx_hal_dma.c ****       hdma->DMAmuxRequestGen->RGCR &= ~DMAMUX_RGxCR_OIE;
 643:Drivers/STM32L4xx_HAL_Driver/Src/stm32l4xx_hal_dma.c **** 
 644:Drivers/STM32L4xx_HAL_Driver/Src/stm32l4xx_hal_dma.c ****       /* Clear the DMAMUX request generator overrun flag */
 645:Drivers/STM32L4xx_HAL_Driver/Src/stm32l4xx_hal_dma.c ****       hdma->DMAmuxRequestGenStatus->RGCFR = hdma->DMAmuxRequestGenStatusMask;
 646:Drivers/STM32L4xx_HAL_Driver/Src/stm32l4xx_hal_dma.c ****     }
 647:Drivers/STM32L4xx_HAL_Driver/Src/stm32l4xx_hal_dma.c **** 
 648:Drivers/STM32L4xx_HAL_Driver/Src/stm32l4xx_hal_dma.c **** #else
 649:Drivers/STM32L4xx_HAL_Driver/Src/stm32l4xx_hal_dma.c ****     /* Clear all flags */
 650:Drivers/STM32L4xx_HAL_Driver/Src/stm32l4xx_hal_dma.c ****     hdma->DmaBaseAddress->IFCR = (DMA_ISR_GIF1 << (hdma->ChannelIndex & 0x1CU));
 651:Drivers/STM32L4xx_HAL_Driver/Src/stm32l4xx_hal_dma.c **** #endif /* DMAMUX1 */
 652:Drivers/STM32L4xx_HAL_Driver/Src/stm32l4xx_hal_dma.c **** 
 653:Drivers/STM32L4xx_HAL_Driver/Src/stm32l4xx_hal_dma.c ****     /* Change the DMA state */
 654:Drivers/STM32L4xx_HAL_Driver/Src/stm32l4xx_hal_dma.c ****     hdma->State = HAL_DMA_STATE_READY;
 655:Drivers/STM32L4xx_HAL_Driver/Src/stm32l4xx_hal_dma.c **** 
 656:Drivers/STM32L4xx_HAL_Driver/Src/stm32l4xx_hal_dma.c ****     /* Process Unlocked */
 657:Drivers/STM32L4xx_HAL_Driver/Src/stm32l4xx_hal_dma.c ****     __HAL_UNLOCK(hdma);
ARM GAS  C:\Users\union\AppData\Local\Temp\ccZKxuJa.s 			page 13


 658:Drivers/STM32L4xx_HAL_Driver/Src/stm32l4xx_hal_dma.c **** 
 659:Drivers/STM32L4xx_HAL_Driver/Src/stm32l4xx_hal_dma.c ****     /* Call User Abort callback */
 660:Drivers/STM32L4xx_HAL_Driver/Src/stm32l4xx_hal_dma.c ****     if(hdma->XferAbortCallback != NULL)
 661:Drivers/STM32L4xx_HAL_Driver/Src/stm32l4xx_hal_dma.c ****     {
 662:Drivers/STM32L4xx_HAL_Driver/Src/stm32l4xx_hal_dma.c ****       hdma->XferAbortCallback(hdma);
 663:Drivers/STM32L4xx_HAL_Driver/Src/stm32l4xx_hal_dma.c ****     }
 664:Drivers/STM32L4xx_HAL_Driver/Src/stm32l4xx_hal_dma.c ****   }
 665:Drivers/STM32L4xx_HAL_Driver/Src/stm32l4xx_hal_dma.c ****   return status;
 666:Drivers/STM32L4xx_HAL_Driver/Src/stm32l4xx_hal_dma.c **** }
 667:Drivers/STM32L4xx_HAL_Driver/Src/stm32l4xx_hal_dma.c **** 
 668:Drivers/STM32L4xx_HAL_Driver/Src/stm32l4xx_hal_dma.c **** /**
 669:Drivers/STM32L4xx_HAL_Driver/Src/stm32l4xx_hal_dma.c ****   * @brief  Polling for transfer complete.
 670:Drivers/STM32L4xx_HAL_Driver/Src/stm32l4xx_hal_dma.c ****   * @param  hdma pointer to a DMA_HandleTypeDef structure that contains
 671:Drivers/STM32L4xx_HAL_Driver/Src/stm32l4xx_hal_dma.c ****   *                  the configuration information for the specified DMA Channel.
 672:Drivers/STM32L4xx_HAL_Driver/Src/stm32l4xx_hal_dma.c ****   * @param  CompleteLevel Specifies the DMA level complete.
 673:Drivers/STM32L4xx_HAL_Driver/Src/stm32l4xx_hal_dma.c ****   * @param  Timeout       Timeout duration.
 674:Drivers/STM32L4xx_HAL_Driver/Src/stm32l4xx_hal_dma.c ****   * @retval HAL status
 675:Drivers/STM32L4xx_HAL_Driver/Src/stm32l4xx_hal_dma.c ****   */
 676:Drivers/STM32L4xx_HAL_Driver/Src/stm32l4xx_hal_dma.c **** HAL_StatusTypeDef HAL_DMA_PollForTransfer(DMA_HandleTypeDef *hdma, HAL_DMA_LevelCompleteTypeDef Com
 677:Drivers/STM32L4xx_HAL_Driver/Src/stm32l4xx_hal_dma.c **** {
 678:Drivers/STM32L4xx_HAL_Driver/Src/stm32l4xx_hal_dma.c ****   uint32_t temp;
 679:Drivers/STM32L4xx_HAL_Driver/Src/stm32l4xx_hal_dma.c ****   uint32_t tickstart;
 680:Drivers/STM32L4xx_HAL_Driver/Src/stm32l4xx_hal_dma.c **** 
 681:Drivers/STM32L4xx_HAL_Driver/Src/stm32l4xx_hal_dma.c ****   if(HAL_DMA_STATE_BUSY != hdma->State)
 682:Drivers/STM32L4xx_HAL_Driver/Src/stm32l4xx_hal_dma.c ****   {
 683:Drivers/STM32L4xx_HAL_Driver/Src/stm32l4xx_hal_dma.c ****     /* no transfer ongoing */
 684:Drivers/STM32L4xx_HAL_Driver/Src/stm32l4xx_hal_dma.c ****     hdma->ErrorCode = HAL_DMA_ERROR_NO_XFER;
 685:Drivers/STM32L4xx_HAL_Driver/Src/stm32l4xx_hal_dma.c ****     __HAL_UNLOCK(hdma);
 686:Drivers/STM32L4xx_HAL_Driver/Src/stm32l4xx_hal_dma.c ****     return HAL_ERROR;
 687:Drivers/STM32L4xx_HAL_Driver/Src/stm32l4xx_hal_dma.c ****   }
 688:Drivers/STM32L4xx_HAL_Driver/Src/stm32l4xx_hal_dma.c **** 
 689:Drivers/STM32L4xx_HAL_Driver/Src/stm32l4xx_hal_dma.c ****   /* Polling mode not supported in circular mode */
 690:Drivers/STM32L4xx_HAL_Driver/Src/stm32l4xx_hal_dma.c ****   if ((hdma->Instance->CCR & DMA_CCR_CIRC) != 0U)
 691:Drivers/STM32L4xx_HAL_Driver/Src/stm32l4xx_hal_dma.c ****   {
 692:Drivers/STM32L4xx_HAL_Driver/Src/stm32l4xx_hal_dma.c ****     hdma->ErrorCode = HAL_DMA_ERROR_NOT_SUPPORTED;
 693:Drivers/STM32L4xx_HAL_Driver/Src/stm32l4xx_hal_dma.c ****     return HAL_ERROR;
 694:Drivers/STM32L4xx_HAL_Driver/Src/stm32l4xx_hal_dma.c ****   }
 695:Drivers/STM32L4xx_HAL_Driver/Src/stm32l4xx_hal_dma.c **** 
 696:Drivers/STM32L4xx_HAL_Driver/Src/stm32l4xx_hal_dma.c ****   /* Get the level transfer complete flag */
 697:Drivers/STM32L4xx_HAL_Driver/Src/stm32l4xx_hal_dma.c ****   if (HAL_DMA_FULL_TRANSFER == CompleteLevel)
 698:Drivers/STM32L4xx_HAL_Driver/Src/stm32l4xx_hal_dma.c ****   {
 699:Drivers/STM32L4xx_HAL_Driver/Src/stm32l4xx_hal_dma.c ****     /* Transfer Complete flag */
 700:Drivers/STM32L4xx_HAL_Driver/Src/stm32l4xx_hal_dma.c ****     temp = DMA_FLAG_TC1 << (hdma->ChannelIndex & 0x1CU);
 701:Drivers/STM32L4xx_HAL_Driver/Src/stm32l4xx_hal_dma.c ****   }
 702:Drivers/STM32L4xx_HAL_Driver/Src/stm32l4xx_hal_dma.c ****   else
 703:Drivers/STM32L4xx_HAL_Driver/Src/stm32l4xx_hal_dma.c ****   {
 704:Drivers/STM32L4xx_HAL_Driver/Src/stm32l4xx_hal_dma.c ****     /* Half Transfer Complete flag */
 705:Drivers/STM32L4xx_HAL_Driver/Src/stm32l4xx_hal_dma.c ****     temp = DMA_FLAG_HT1 << (hdma->ChannelIndex & 0x1CU);
 706:Drivers/STM32L4xx_HAL_Driver/Src/stm32l4xx_hal_dma.c ****   }
 707:Drivers/STM32L4xx_HAL_Driver/Src/stm32l4xx_hal_dma.c **** 
 708:Drivers/STM32L4xx_HAL_Driver/Src/stm32l4xx_hal_dma.c ****   /* Get tick */
 709:Drivers/STM32L4xx_HAL_Driver/Src/stm32l4xx_hal_dma.c ****   tickstart = HAL_GetTick();
 710:Drivers/STM32L4xx_HAL_Driver/Src/stm32l4xx_hal_dma.c **** 
 711:Drivers/STM32L4xx_HAL_Driver/Src/stm32l4xx_hal_dma.c ****   while((hdma->DmaBaseAddress->ISR & temp) == 0U)
 712:Drivers/STM32L4xx_HAL_Driver/Src/stm32l4xx_hal_dma.c ****   {
 713:Drivers/STM32L4xx_HAL_Driver/Src/stm32l4xx_hal_dma.c ****     if((hdma->DmaBaseAddress->ISR & (DMA_FLAG_TE1 << (hdma->ChannelIndex& 0x1CU))) != 0U)
 714:Drivers/STM32L4xx_HAL_Driver/Src/stm32l4xx_hal_dma.c ****     {
ARM GAS  C:\Users\union\AppData\Local\Temp\ccZKxuJa.s 			page 14


 715:Drivers/STM32L4xx_HAL_Driver/Src/stm32l4xx_hal_dma.c ****       /* When a DMA transfer error occurs */
 716:Drivers/STM32L4xx_HAL_Driver/Src/stm32l4xx_hal_dma.c ****       /* A hardware clear of its EN bits is performed */
 717:Drivers/STM32L4xx_HAL_Driver/Src/stm32l4xx_hal_dma.c ****       /* Clear all flags */
 718:Drivers/STM32L4xx_HAL_Driver/Src/stm32l4xx_hal_dma.c ****       hdma->DmaBaseAddress->IFCR = (DMA_ISR_GIF1 << (hdma->ChannelIndex & 0x1CU));
 719:Drivers/STM32L4xx_HAL_Driver/Src/stm32l4xx_hal_dma.c **** 
 720:Drivers/STM32L4xx_HAL_Driver/Src/stm32l4xx_hal_dma.c ****       /* Update error code */
 721:Drivers/STM32L4xx_HAL_Driver/Src/stm32l4xx_hal_dma.c ****       hdma->ErrorCode = HAL_DMA_ERROR_TE;
 722:Drivers/STM32L4xx_HAL_Driver/Src/stm32l4xx_hal_dma.c **** 
 723:Drivers/STM32L4xx_HAL_Driver/Src/stm32l4xx_hal_dma.c ****       /* Change the DMA state */
 724:Drivers/STM32L4xx_HAL_Driver/Src/stm32l4xx_hal_dma.c ****       hdma->State= HAL_DMA_STATE_READY;
 725:Drivers/STM32L4xx_HAL_Driver/Src/stm32l4xx_hal_dma.c **** 
 726:Drivers/STM32L4xx_HAL_Driver/Src/stm32l4xx_hal_dma.c ****       /* Process Unlocked */
 727:Drivers/STM32L4xx_HAL_Driver/Src/stm32l4xx_hal_dma.c ****       __HAL_UNLOCK(hdma);
 728:Drivers/STM32L4xx_HAL_Driver/Src/stm32l4xx_hal_dma.c **** 
 729:Drivers/STM32L4xx_HAL_Driver/Src/stm32l4xx_hal_dma.c ****       return HAL_ERROR;
 730:Drivers/STM32L4xx_HAL_Driver/Src/stm32l4xx_hal_dma.c ****     }
 731:Drivers/STM32L4xx_HAL_Driver/Src/stm32l4xx_hal_dma.c ****     /* Check for the Timeout */
 732:Drivers/STM32L4xx_HAL_Driver/Src/stm32l4xx_hal_dma.c ****     if(Timeout != HAL_MAX_DELAY)
 733:Drivers/STM32L4xx_HAL_Driver/Src/stm32l4xx_hal_dma.c ****     {
 734:Drivers/STM32L4xx_HAL_Driver/Src/stm32l4xx_hal_dma.c ****       if(((HAL_GetTick() - tickstart) > Timeout) ||  (Timeout == 0U))
 735:Drivers/STM32L4xx_HAL_Driver/Src/stm32l4xx_hal_dma.c ****       {
 736:Drivers/STM32L4xx_HAL_Driver/Src/stm32l4xx_hal_dma.c ****         /* Update error code */
 737:Drivers/STM32L4xx_HAL_Driver/Src/stm32l4xx_hal_dma.c ****         hdma->ErrorCode = HAL_DMA_ERROR_TIMEOUT;
 738:Drivers/STM32L4xx_HAL_Driver/Src/stm32l4xx_hal_dma.c **** 
 739:Drivers/STM32L4xx_HAL_Driver/Src/stm32l4xx_hal_dma.c ****         /* Change the DMA state */
 740:Drivers/STM32L4xx_HAL_Driver/Src/stm32l4xx_hal_dma.c ****         hdma->State = HAL_DMA_STATE_READY;
 741:Drivers/STM32L4xx_HAL_Driver/Src/stm32l4xx_hal_dma.c **** 
 742:Drivers/STM32L4xx_HAL_Driver/Src/stm32l4xx_hal_dma.c ****         /* Process Unlocked */
 743:Drivers/STM32L4xx_HAL_Driver/Src/stm32l4xx_hal_dma.c ****         __HAL_UNLOCK(hdma);
 744:Drivers/STM32L4xx_HAL_Driver/Src/stm32l4xx_hal_dma.c **** 
 745:Drivers/STM32L4xx_HAL_Driver/Src/stm32l4xx_hal_dma.c ****         return HAL_ERROR;
 746:Drivers/STM32L4xx_HAL_Driver/Src/stm32l4xx_hal_dma.c ****       }
 747:Drivers/STM32L4xx_HAL_Driver/Src/stm32l4xx_hal_dma.c ****     }
 748:Drivers/STM32L4xx_HAL_Driver/Src/stm32l4xx_hal_dma.c ****   }
 749:Drivers/STM32L4xx_HAL_Driver/Src/stm32l4xx_hal_dma.c **** 
 750:Drivers/STM32L4xx_HAL_Driver/Src/stm32l4xx_hal_dma.c **** #if defined(DMAMUX1)
 751:Drivers/STM32L4xx_HAL_Driver/Src/stm32l4xx_hal_dma.c ****   /*Check for DMAMUX Request generator (if used) overrun status */
 752:Drivers/STM32L4xx_HAL_Driver/Src/stm32l4xx_hal_dma.c ****   if(hdma->DMAmuxRequestGen != 0U)
 753:Drivers/STM32L4xx_HAL_Driver/Src/stm32l4xx_hal_dma.c ****   {
 754:Drivers/STM32L4xx_HAL_Driver/Src/stm32l4xx_hal_dma.c ****     /* if using DMAMUX request generator Check for DMAMUX request generator overrun */
 755:Drivers/STM32L4xx_HAL_Driver/Src/stm32l4xx_hal_dma.c ****     if((hdma->DMAmuxRequestGenStatus->RGSR & hdma->DMAmuxRequestGenStatusMask) != 0U)
 756:Drivers/STM32L4xx_HAL_Driver/Src/stm32l4xx_hal_dma.c ****     {
 757:Drivers/STM32L4xx_HAL_Driver/Src/stm32l4xx_hal_dma.c ****       /* Disable the request gen overrun interrupt */
 758:Drivers/STM32L4xx_HAL_Driver/Src/stm32l4xx_hal_dma.c ****       hdma->DMAmuxRequestGen->RGCR |= DMAMUX_RGxCR_OIE;
 759:Drivers/STM32L4xx_HAL_Driver/Src/stm32l4xx_hal_dma.c **** 
 760:Drivers/STM32L4xx_HAL_Driver/Src/stm32l4xx_hal_dma.c ****       /* Clear the DMAMUX request generator overrun flag */
 761:Drivers/STM32L4xx_HAL_Driver/Src/stm32l4xx_hal_dma.c ****       hdma->DMAmuxRequestGenStatus->RGCFR = hdma->DMAmuxRequestGenStatusMask;
 762:Drivers/STM32L4xx_HAL_Driver/Src/stm32l4xx_hal_dma.c **** 
 763:Drivers/STM32L4xx_HAL_Driver/Src/stm32l4xx_hal_dma.c ****       /* Update error code */
 764:Drivers/STM32L4xx_HAL_Driver/Src/stm32l4xx_hal_dma.c ****       hdma->ErrorCode |= HAL_DMA_ERROR_REQGEN;
 765:Drivers/STM32L4xx_HAL_Driver/Src/stm32l4xx_hal_dma.c ****     }
 766:Drivers/STM32L4xx_HAL_Driver/Src/stm32l4xx_hal_dma.c ****   }
 767:Drivers/STM32L4xx_HAL_Driver/Src/stm32l4xx_hal_dma.c **** 
 768:Drivers/STM32L4xx_HAL_Driver/Src/stm32l4xx_hal_dma.c ****   /* Check for DMAMUX Synchronization overrun */
 769:Drivers/STM32L4xx_HAL_Driver/Src/stm32l4xx_hal_dma.c ****   if((hdma->DMAmuxChannelStatus->CSR & hdma->DMAmuxChannelStatusMask) != 0U)
 770:Drivers/STM32L4xx_HAL_Driver/Src/stm32l4xx_hal_dma.c ****   {
 771:Drivers/STM32L4xx_HAL_Driver/Src/stm32l4xx_hal_dma.c ****     /* Clear the DMAMUX synchro overrun flag */
ARM GAS  C:\Users\union\AppData\Local\Temp\ccZKxuJa.s 			page 15


 772:Drivers/STM32L4xx_HAL_Driver/Src/stm32l4xx_hal_dma.c ****     hdma->DMAmuxChannelStatus->CFR = hdma->DMAmuxChannelStatusMask;
 773:Drivers/STM32L4xx_HAL_Driver/Src/stm32l4xx_hal_dma.c **** 
 774:Drivers/STM32L4xx_HAL_Driver/Src/stm32l4xx_hal_dma.c ****     /* Update error code */
 775:Drivers/STM32L4xx_HAL_Driver/Src/stm32l4xx_hal_dma.c ****     hdma->ErrorCode |= HAL_DMA_ERROR_SYNC;
 776:Drivers/STM32L4xx_HAL_Driver/Src/stm32l4xx_hal_dma.c ****   }
 777:Drivers/STM32L4xx_HAL_Driver/Src/stm32l4xx_hal_dma.c **** #endif /* DMAMUX1 */
 778:Drivers/STM32L4xx_HAL_Driver/Src/stm32l4xx_hal_dma.c **** 
 779:Drivers/STM32L4xx_HAL_Driver/Src/stm32l4xx_hal_dma.c ****   if(HAL_DMA_FULL_TRANSFER == CompleteLevel)
 780:Drivers/STM32L4xx_HAL_Driver/Src/stm32l4xx_hal_dma.c ****   {
 781:Drivers/STM32L4xx_HAL_Driver/Src/stm32l4xx_hal_dma.c ****     /* Clear the transfer complete flag */
 782:Drivers/STM32L4xx_HAL_Driver/Src/stm32l4xx_hal_dma.c ****     hdma->DmaBaseAddress->IFCR = (DMA_FLAG_TC1 << (hdma->ChannelIndex& 0x1CU));
 783:Drivers/STM32L4xx_HAL_Driver/Src/stm32l4xx_hal_dma.c **** 
 784:Drivers/STM32L4xx_HAL_Driver/Src/stm32l4xx_hal_dma.c ****     /* Process unlocked */
 785:Drivers/STM32L4xx_HAL_Driver/Src/stm32l4xx_hal_dma.c ****     __HAL_UNLOCK(hdma);
 786:Drivers/STM32L4xx_HAL_Driver/Src/stm32l4xx_hal_dma.c **** 
 787:Drivers/STM32L4xx_HAL_Driver/Src/stm32l4xx_hal_dma.c ****     /* The selected Channelx EN bit is cleared (DMA is disabled and
 788:Drivers/STM32L4xx_HAL_Driver/Src/stm32l4xx_hal_dma.c ****     all transfers are complete) */
 789:Drivers/STM32L4xx_HAL_Driver/Src/stm32l4xx_hal_dma.c ****     hdma->State = HAL_DMA_STATE_READY;
 790:Drivers/STM32L4xx_HAL_Driver/Src/stm32l4xx_hal_dma.c ****   }
 791:Drivers/STM32L4xx_HAL_Driver/Src/stm32l4xx_hal_dma.c ****   else
 792:Drivers/STM32L4xx_HAL_Driver/Src/stm32l4xx_hal_dma.c ****   {
 793:Drivers/STM32L4xx_HAL_Driver/Src/stm32l4xx_hal_dma.c ****     /* Clear the half transfer complete flag */
 794:Drivers/STM32L4xx_HAL_Driver/Src/stm32l4xx_hal_dma.c ****     hdma->DmaBaseAddress->IFCR = (DMA_FLAG_HT1 << (hdma->ChannelIndex & 0x1CU));
 795:Drivers/STM32L4xx_HAL_Driver/Src/stm32l4xx_hal_dma.c ****   }
 796:Drivers/STM32L4xx_HAL_Driver/Src/stm32l4xx_hal_dma.c **** 
 797:Drivers/STM32L4xx_HAL_Driver/Src/stm32l4xx_hal_dma.c ****   return HAL_OK;
 798:Drivers/STM32L4xx_HAL_Driver/Src/stm32l4xx_hal_dma.c **** }
 799:Drivers/STM32L4xx_HAL_Driver/Src/stm32l4xx_hal_dma.c **** 
 800:Drivers/STM32L4xx_HAL_Driver/Src/stm32l4xx_hal_dma.c **** /**
 801:Drivers/STM32L4xx_HAL_Driver/Src/stm32l4xx_hal_dma.c ****   * @brief  Handle DMA interrupt request.
 802:Drivers/STM32L4xx_HAL_Driver/Src/stm32l4xx_hal_dma.c ****   * @param  hdma pointer to a DMA_HandleTypeDef structure that contains
 803:Drivers/STM32L4xx_HAL_Driver/Src/stm32l4xx_hal_dma.c ****   *               the configuration information for the specified DMA Channel.
 804:Drivers/STM32L4xx_HAL_Driver/Src/stm32l4xx_hal_dma.c ****   * @retval None
 805:Drivers/STM32L4xx_HAL_Driver/Src/stm32l4xx_hal_dma.c ****   */
 806:Drivers/STM32L4xx_HAL_Driver/Src/stm32l4xx_hal_dma.c **** void HAL_DMA_IRQHandler(DMA_HandleTypeDef *hdma)
 807:Drivers/STM32L4xx_HAL_Driver/Src/stm32l4xx_hal_dma.c **** {
 808:Drivers/STM32L4xx_HAL_Driver/Src/stm32l4xx_hal_dma.c ****   uint32_t flag_it = hdma->DmaBaseAddress->ISR;
 809:Drivers/STM32L4xx_HAL_Driver/Src/stm32l4xx_hal_dma.c ****   uint32_t source_it = hdma->Instance->CCR;
 810:Drivers/STM32L4xx_HAL_Driver/Src/stm32l4xx_hal_dma.c **** 
 811:Drivers/STM32L4xx_HAL_Driver/Src/stm32l4xx_hal_dma.c ****   /* Half Transfer Complete Interrupt management ******************************/
 812:Drivers/STM32L4xx_HAL_Driver/Src/stm32l4xx_hal_dma.c ****   if (((flag_it & (DMA_FLAG_HT1 << (hdma->ChannelIndex & 0x1CU))) != 0U) && ((source_it & DMA_IT_HT
 813:Drivers/STM32L4xx_HAL_Driver/Src/stm32l4xx_hal_dma.c ****   {
 814:Drivers/STM32L4xx_HAL_Driver/Src/stm32l4xx_hal_dma.c ****       /* Disable the half transfer interrupt if the DMA mode is not CIRCULAR */
 815:Drivers/STM32L4xx_HAL_Driver/Src/stm32l4xx_hal_dma.c ****       if((hdma->Instance->CCR & DMA_CCR_CIRC) == 0U)
 816:Drivers/STM32L4xx_HAL_Driver/Src/stm32l4xx_hal_dma.c ****       {
 817:Drivers/STM32L4xx_HAL_Driver/Src/stm32l4xx_hal_dma.c ****         /* Disable the half transfer interrupt */
 818:Drivers/STM32L4xx_HAL_Driver/Src/stm32l4xx_hal_dma.c ****         __HAL_DMA_DISABLE_IT(hdma, DMA_IT_HT);
 819:Drivers/STM32L4xx_HAL_Driver/Src/stm32l4xx_hal_dma.c ****       }
 820:Drivers/STM32L4xx_HAL_Driver/Src/stm32l4xx_hal_dma.c ****       /* Clear the half transfer complete flag */
 821:Drivers/STM32L4xx_HAL_Driver/Src/stm32l4xx_hal_dma.c ****       hdma->DmaBaseAddress->IFCR = DMA_ISR_HTIF1 << (hdma->ChannelIndex & 0x1CU);
 822:Drivers/STM32L4xx_HAL_Driver/Src/stm32l4xx_hal_dma.c **** 
 823:Drivers/STM32L4xx_HAL_Driver/Src/stm32l4xx_hal_dma.c ****       /* DMA peripheral state is not updated in Half Transfer */
 824:Drivers/STM32L4xx_HAL_Driver/Src/stm32l4xx_hal_dma.c ****       /* but in Transfer Complete case */
 825:Drivers/STM32L4xx_HAL_Driver/Src/stm32l4xx_hal_dma.c **** 
 826:Drivers/STM32L4xx_HAL_Driver/Src/stm32l4xx_hal_dma.c ****       if(hdma->XferHalfCpltCallback != NULL)
 827:Drivers/STM32L4xx_HAL_Driver/Src/stm32l4xx_hal_dma.c ****       {
 828:Drivers/STM32L4xx_HAL_Driver/Src/stm32l4xx_hal_dma.c ****         /* Half transfer callback */
ARM GAS  C:\Users\union\AppData\Local\Temp\ccZKxuJa.s 			page 16


 829:Drivers/STM32L4xx_HAL_Driver/Src/stm32l4xx_hal_dma.c ****         hdma->XferHalfCpltCallback(hdma);
 830:Drivers/STM32L4xx_HAL_Driver/Src/stm32l4xx_hal_dma.c ****       }
 831:Drivers/STM32L4xx_HAL_Driver/Src/stm32l4xx_hal_dma.c ****   }
 832:Drivers/STM32L4xx_HAL_Driver/Src/stm32l4xx_hal_dma.c **** 
 833:Drivers/STM32L4xx_HAL_Driver/Src/stm32l4xx_hal_dma.c ****   /* Transfer Complete Interrupt management ***********************************/
 834:Drivers/STM32L4xx_HAL_Driver/Src/stm32l4xx_hal_dma.c ****   else if (((flag_it & (DMA_FLAG_TC1 << (hdma->ChannelIndex & 0x1CU))) != 0U) && ((source_it & DMA_
 835:Drivers/STM32L4xx_HAL_Driver/Src/stm32l4xx_hal_dma.c ****   {
 836:Drivers/STM32L4xx_HAL_Driver/Src/stm32l4xx_hal_dma.c ****     if((hdma->Instance->CCR & DMA_CCR_CIRC) == 0U)
 837:Drivers/STM32L4xx_HAL_Driver/Src/stm32l4xx_hal_dma.c ****     {
 838:Drivers/STM32L4xx_HAL_Driver/Src/stm32l4xx_hal_dma.c ****       /* Disable the transfer complete interrupt if the DMA mode is not CIRCULAR */
 839:Drivers/STM32L4xx_HAL_Driver/Src/stm32l4xx_hal_dma.c ****       /* Disable the transfer complete and error interrupt */
 840:Drivers/STM32L4xx_HAL_Driver/Src/stm32l4xx_hal_dma.c ****       /* if the DMA mode is not CIRCULAR  */
 841:Drivers/STM32L4xx_HAL_Driver/Src/stm32l4xx_hal_dma.c ****       __HAL_DMA_DISABLE_IT(hdma, DMA_IT_TE | DMA_IT_TC);
 842:Drivers/STM32L4xx_HAL_Driver/Src/stm32l4xx_hal_dma.c **** 
 843:Drivers/STM32L4xx_HAL_Driver/Src/stm32l4xx_hal_dma.c ****       /* Change the DMA state */
 844:Drivers/STM32L4xx_HAL_Driver/Src/stm32l4xx_hal_dma.c ****       hdma->State = HAL_DMA_STATE_READY;
 845:Drivers/STM32L4xx_HAL_Driver/Src/stm32l4xx_hal_dma.c ****     }
 846:Drivers/STM32L4xx_HAL_Driver/Src/stm32l4xx_hal_dma.c ****     /* Clear the transfer complete flag */
 847:Drivers/STM32L4xx_HAL_Driver/Src/stm32l4xx_hal_dma.c ****     hdma->DmaBaseAddress->IFCR = (DMA_ISR_TCIF1 << (hdma->ChannelIndex & 0x1CU));
 848:Drivers/STM32L4xx_HAL_Driver/Src/stm32l4xx_hal_dma.c **** 
 849:Drivers/STM32L4xx_HAL_Driver/Src/stm32l4xx_hal_dma.c ****     /* Process Unlocked */
 850:Drivers/STM32L4xx_HAL_Driver/Src/stm32l4xx_hal_dma.c ****     __HAL_UNLOCK(hdma);
 851:Drivers/STM32L4xx_HAL_Driver/Src/stm32l4xx_hal_dma.c **** 
 852:Drivers/STM32L4xx_HAL_Driver/Src/stm32l4xx_hal_dma.c ****     if(hdma->XferCpltCallback != NULL)
 853:Drivers/STM32L4xx_HAL_Driver/Src/stm32l4xx_hal_dma.c ****     {
 854:Drivers/STM32L4xx_HAL_Driver/Src/stm32l4xx_hal_dma.c ****       /* Transfer complete callback */
 855:Drivers/STM32L4xx_HAL_Driver/Src/stm32l4xx_hal_dma.c ****       hdma->XferCpltCallback(hdma);
 856:Drivers/STM32L4xx_HAL_Driver/Src/stm32l4xx_hal_dma.c ****     }
 857:Drivers/STM32L4xx_HAL_Driver/Src/stm32l4xx_hal_dma.c ****   }
 858:Drivers/STM32L4xx_HAL_Driver/Src/stm32l4xx_hal_dma.c **** 
 859:Drivers/STM32L4xx_HAL_Driver/Src/stm32l4xx_hal_dma.c ****   /* Transfer Error Interrupt management **************************************/
 860:Drivers/STM32L4xx_HAL_Driver/Src/stm32l4xx_hal_dma.c ****   else if (((flag_it & (DMA_FLAG_TE1 << (hdma->ChannelIndex & 0x1CU))) != 0U) && ((source_it & DMA_
 861:Drivers/STM32L4xx_HAL_Driver/Src/stm32l4xx_hal_dma.c ****   {
 862:Drivers/STM32L4xx_HAL_Driver/Src/stm32l4xx_hal_dma.c ****     /* When a DMA transfer error occurs */
 863:Drivers/STM32L4xx_HAL_Driver/Src/stm32l4xx_hal_dma.c ****     /* A hardware clear of its EN bits is performed */
 864:Drivers/STM32L4xx_HAL_Driver/Src/stm32l4xx_hal_dma.c ****     /* Disable ALL DMA IT */
 865:Drivers/STM32L4xx_HAL_Driver/Src/stm32l4xx_hal_dma.c ****     __HAL_DMA_DISABLE_IT(hdma, (DMA_IT_TC | DMA_IT_HT | DMA_IT_TE));
 866:Drivers/STM32L4xx_HAL_Driver/Src/stm32l4xx_hal_dma.c **** 
 867:Drivers/STM32L4xx_HAL_Driver/Src/stm32l4xx_hal_dma.c ****     /* Clear all flags */
 868:Drivers/STM32L4xx_HAL_Driver/Src/stm32l4xx_hal_dma.c ****     hdma->DmaBaseAddress->IFCR = (DMA_ISR_GIF1 << (hdma->ChannelIndex & 0x1CU));
 869:Drivers/STM32L4xx_HAL_Driver/Src/stm32l4xx_hal_dma.c **** 
 870:Drivers/STM32L4xx_HAL_Driver/Src/stm32l4xx_hal_dma.c ****     /* Update error code */
 871:Drivers/STM32L4xx_HAL_Driver/Src/stm32l4xx_hal_dma.c ****     hdma->ErrorCode = HAL_DMA_ERROR_TE;
 872:Drivers/STM32L4xx_HAL_Driver/Src/stm32l4xx_hal_dma.c **** 
 873:Drivers/STM32L4xx_HAL_Driver/Src/stm32l4xx_hal_dma.c ****     /* Change the DMA state */
 874:Drivers/STM32L4xx_HAL_Driver/Src/stm32l4xx_hal_dma.c ****     hdma->State = HAL_DMA_STATE_READY;
 875:Drivers/STM32L4xx_HAL_Driver/Src/stm32l4xx_hal_dma.c **** 
 876:Drivers/STM32L4xx_HAL_Driver/Src/stm32l4xx_hal_dma.c ****     /* Process Unlocked */
 877:Drivers/STM32L4xx_HAL_Driver/Src/stm32l4xx_hal_dma.c ****     __HAL_UNLOCK(hdma);
 878:Drivers/STM32L4xx_HAL_Driver/Src/stm32l4xx_hal_dma.c **** 
 879:Drivers/STM32L4xx_HAL_Driver/Src/stm32l4xx_hal_dma.c ****     if (hdma->XferErrorCallback != NULL)
 880:Drivers/STM32L4xx_HAL_Driver/Src/stm32l4xx_hal_dma.c ****     {
 881:Drivers/STM32L4xx_HAL_Driver/Src/stm32l4xx_hal_dma.c ****       /* Transfer error callback */
 882:Drivers/STM32L4xx_HAL_Driver/Src/stm32l4xx_hal_dma.c ****       hdma->XferErrorCallback(hdma);
 883:Drivers/STM32L4xx_HAL_Driver/Src/stm32l4xx_hal_dma.c ****     }
 884:Drivers/STM32L4xx_HAL_Driver/Src/stm32l4xx_hal_dma.c ****   }
 885:Drivers/STM32L4xx_HAL_Driver/Src/stm32l4xx_hal_dma.c ****   else
ARM GAS  C:\Users\union\AppData\Local\Temp\ccZKxuJa.s 			page 17


 886:Drivers/STM32L4xx_HAL_Driver/Src/stm32l4xx_hal_dma.c ****   {
 887:Drivers/STM32L4xx_HAL_Driver/Src/stm32l4xx_hal_dma.c ****     /* Nothing To Do */
 888:Drivers/STM32L4xx_HAL_Driver/Src/stm32l4xx_hal_dma.c ****   }
 889:Drivers/STM32L4xx_HAL_Driver/Src/stm32l4xx_hal_dma.c ****   return;
 890:Drivers/STM32L4xx_HAL_Driver/Src/stm32l4xx_hal_dma.c **** }
 891:Drivers/STM32L4xx_HAL_Driver/Src/stm32l4xx_hal_dma.c **** 
 892:Drivers/STM32L4xx_HAL_Driver/Src/stm32l4xx_hal_dma.c **** /**
 893:Drivers/STM32L4xx_HAL_Driver/Src/stm32l4xx_hal_dma.c ****   * @brief  Register callbacks
 894:Drivers/STM32L4xx_HAL_Driver/Src/stm32l4xx_hal_dma.c ****   * @param  hdma                 pointer to a DMA_HandleTypeDef structure that contains
 895:Drivers/STM32L4xx_HAL_Driver/Src/stm32l4xx_hal_dma.c ****   *                               the configuration information for the specified DMA Channel.
 896:Drivers/STM32L4xx_HAL_Driver/Src/stm32l4xx_hal_dma.c ****   * @param  CallbackID           User Callback identifier
 897:Drivers/STM32L4xx_HAL_Driver/Src/stm32l4xx_hal_dma.c ****   *                               a HAL_DMA_CallbackIDTypeDef ENUM as parameter.
 898:Drivers/STM32L4xx_HAL_Driver/Src/stm32l4xx_hal_dma.c ****   * @param  pCallback            pointer to private callbacsk function which has pointer to
 899:Drivers/STM32L4xx_HAL_Driver/Src/stm32l4xx_hal_dma.c ****   *                               a DMA_HandleTypeDef structure as parameter.
 900:Drivers/STM32L4xx_HAL_Driver/Src/stm32l4xx_hal_dma.c ****   * @retval HAL status
 901:Drivers/STM32L4xx_HAL_Driver/Src/stm32l4xx_hal_dma.c ****   */
 902:Drivers/STM32L4xx_HAL_Driver/Src/stm32l4xx_hal_dma.c **** HAL_StatusTypeDef HAL_DMA_RegisterCallback(DMA_HandleTypeDef *hdma, HAL_DMA_CallbackIDTypeDef Callb
 903:Drivers/STM32L4xx_HAL_Driver/Src/stm32l4xx_hal_dma.c **** {
 904:Drivers/STM32L4xx_HAL_Driver/Src/stm32l4xx_hal_dma.c ****   HAL_StatusTypeDef status = HAL_OK;
 905:Drivers/STM32L4xx_HAL_Driver/Src/stm32l4xx_hal_dma.c **** 
 906:Drivers/STM32L4xx_HAL_Driver/Src/stm32l4xx_hal_dma.c ****   /* Process locked */
 907:Drivers/STM32L4xx_HAL_Driver/Src/stm32l4xx_hal_dma.c ****   __HAL_LOCK(hdma);
 908:Drivers/STM32L4xx_HAL_Driver/Src/stm32l4xx_hal_dma.c **** 
 909:Drivers/STM32L4xx_HAL_Driver/Src/stm32l4xx_hal_dma.c ****   if(HAL_DMA_STATE_READY == hdma->State)
 910:Drivers/STM32L4xx_HAL_Driver/Src/stm32l4xx_hal_dma.c ****   {
 911:Drivers/STM32L4xx_HAL_Driver/Src/stm32l4xx_hal_dma.c ****     switch (CallbackID)
 912:Drivers/STM32L4xx_HAL_Driver/Src/stm32l4xx_hal_dma.c ****     {
 913:Drivers/STM32L4xx_HAL_Driver/Src/stm32l4xx_hal_dma.c ****      case  HAL_DMA_XFER_CPLT_CB_ID:
 914:Drivers/STM32L4xx_HAL_Driver/Src/stm32l4xx_hal_dma.c ****            hdma->XferCpltCallback = pCallback;
 915:Drivers/STM32L4xx_HAL_Driver/Src/stm32l4xx_hal_dma.c ****            break;
 916:Drivers/STM32L4xx_HAL_Driver/Src/stm32l4xx_hal_dma.c **** 
 917:Drivers/STM32L4xx_HAL_Driver/Src/stm32l4xx_hal_dma.c ****      case  HAL_DMA_XFER_HALFCPLT_CB_ID:
 918:Drivers/STM32L4xx_HAL_Driver/Src/stm32l4xx_hal_dma.c ****            hdma->XferHalfCpltCallback = pCallback;
 919:Drivers/STM32L4xx_HAL_Driver/Src/stm32l4xx_hal_dma.c ****            break;
 920:Drivers/STM32L4xx_HAL_Driver/Src/stm32l4xx_hal_dma.c **** 
 921:Drivers/STM32L4xx_HAL_Driver/Src/stm32l4xx_hal_dma.c ****      case  HAL_DMA_XFER_ERROR_CB_ID:
 922:Drivers/STM32L4xx_HAL_Driver/Src/stm32l4xx_hal_dma.c ****            hdma->XferErrorCallback = pCallback;
 923:Drivers/STM32L4xx_HAL_Driver/Src/stm32l4xx_hal_dma.c ****            break;
 924:Drivers/STM32L4xx_HAL_Driver/Src/stm32l4xx_hal_dma.c **** 
 925:Drivers/STM32L4xx_HAL_Driver/Src/stm32l4xx_hal_dma.c ****      case  HAL_DMA_XFER_ABORT_CB_ID:
 926:Drivers/STM32L4xx_HAL_Driver/Src/stm32l4xx_hal_dma.c ****            hdma->XferAbortCallback = pCallback;
 927:Drivers/STM32L4xx_HAL_Driver/Src/stm32l4xx_hal_dma.c ****            break;
 928:Drivers/STM32L4xx_HAL_Driver/Src/stm32l4xx_hal_dma.c **** 
 929:Drivers/STM32L4xx_HAL_Driver/Src/stm32l4xx_hal_dma.c ****      default:
 930:Drivers/STM32L4xx_HAL_Driver/Src/stm32l4xx_hal_dma.c ****            status = HAL_ERROR;
 931:Drivers/STM32L4xx_HAL_Driver/Src/stm32l4xx_hal_dma.c ****            break;
 932:Drivers/STM32L4xx_HAL_Driver/Src/stm32l4xx_hal_dma.c ****     }
 933:Drivers/STM32L4xx_HAL_Driver/Src/stm32l4xx_hal_dma.c ****   }
 934:Drivers/STM32L4xx_HAL_Driver/Src/stm32l4xx_hal_dma.c ****   else
 935:Drivers/STM32L4xx_HAL_Driver/Src/stm32l4xx_hal_dma.c ****   {
 936:Drivers/STM32L4xx_HAL_Driver/Src/stm32l4xx_hal_dma.c ****     status = HAL_ERROR;
 937:Drivers/STM32L4xx_HAL_Driver/Src/stm32l4xx_hal_dma.c ****   }
 938:Drivers/STM32L4xx_HAL_Driver/Src/stm32l4xx_hal_dma.c **** 
 939:Drivers/STM32L4xx_HAL_Driver/Src/stm32l4xx_hal_dma.c ****   /* Release Lock */
 940:Drivers/STM32L4xx_HAL_Driver/Src/stm32l4xx_hal_dma.c ****   __HAL_UNLOCK(hdma);
 941:Drivers/STM32L4xx_HAL_Driver/Src/stm32l4xx_hal_dma.c **** 
 942:Drivers/STM32L4xx_HAL_Driver/Src/stm32l4xx_hal_dma.c ****   return status;
ARM GAS  C:\Users\union\AppData\Local\Temp\ccZKxuJa.s 			page 18


 943:Drivers/STM32L4xx_HAL_Driver/Src/stm32l4xx_hal_dma.c **** }
 944:Drivers/STM32L4xx_HAL_Driver/Src/stm32l4xx_hal_dma.c **** 
 945:Drivers/STM32L4xx_HAL_Driver/Src/stm32l4xx_hal_dma.c **** /**
 946:Drivers/STM32L4xx_HAL_Driver/Src/stm32l4xx_hal_dma.c ****   * @brief  UnRegister callbacks
 947:Drivers/STM32L4xx_HAL_Driver/Src/stm32l4xx_hal_dma.c ****   * @param  hdma                 pointer to a DMA_HandleTypeDef structure that contains
 948:Drivers/STM32L4xx_HAL_Driver/Src/stm32l4xx_hal_dma.c ****   *                               the configuration information for the specified DMA Channel.
 949:Drivers/STM32L4xx_HAL_Driver/Src/stm32l4xx_hal_dma.c ****   * @param  CallbackID           User Callback identifier
 950:Drivers/STM32L4xx_HAL_Driver/Src/stm32l4xx_hal_dma.c ****   *                               a HAL_DMA_CallbackIDTypeDef ENUM as parameter.
 951:Drivers/STM32L4xx_HAL_Driver/Src/stm32l4xx_hal_dma.c ****   * @retval HAL status
 952:Drivers/STM32L4xx_HAL_Driver/Src/stm32l4xx_hal_dma.c ****   */
 953:Drivers/STM32L4xx_HAL_Driver/Src/stm32l4xx_hal_dma.c **** HAL_StatusTypeDef HAL_DMA_UnRegisterCallback(DMA_HandleTypeDef *hdma, HAL_DMA_CallbackIDTypeDef Cal
 954:Drivers/STM32L4xx_HAL_Driver/Src/stm32l4xx_hal_dma.c **** {
 955:Drivers/STM32L4xx_HAL_Driver/Src/stm32l4xx_hal_dma.c ****   HAL_StatusTypeDef status = HAL_OK;
 956:Drivers/STM32L4xx_HAL_Driver/Src/stm32l4xx_hal_dma.c **** 
 957:Drivers/STM32L4xx_HAL_Driver/Src/stm32l4xx_hal_dma.c ****     /* Process locked */
 958:Drivers/STM32L4xx_HAL_Driver/Src/stm32l4xx_hal_dma.c ****   __HAL_LOCK(hdma);
 959:Drivers/STM32L4xx_HAL_Driver/Src/stm32l4xx_hal_dma.c **** 
 960:Drivers/STM32L4xx_HAL_Driver/Src/stm32l4xx_hal_dma.c ****   if(HAL_DMA_STATE_READY == hdma->State)
 961:Drivers/STM32L4xx_HAL_Driver/Src/stm32l4xx_hal_dma.c ****   {
 962:Drivers/STM32L4xx_HAL_Driver/Src/stm32l4xx_hal_dma.c ****     switch (CallbackID)
 963:Drivers/STM32L4xx_HAL_Driver/Src/stm32l4xx_hal_dma.c ****     {
 964:Drivers/STM32L4xx_HAL_Driver/Src/stm32l4xx_hal_dma.c ****      case  HAL_DMA_XFER_CPLT_CB_ID:
 965:Drivers/STM32L4xx_HAL_Driver/Src/stm32l4xx_hal_dma.c ****            hdma->XferCpltCallback = NULL;
 966:Drivers/STM32L4xx_HAL_Driver/Src/stm32l4xx_hal_dma.c ****            break;
 967:Drivers/STM32L4xx_HAL_Driver/Src/stm32l4xx_hal_dma.c **** 
 968:Drivers/STM32L4xx_HAL_Driver/Src/stm32l4xx_hal_dma.c ****      case  HAL_DMA_XFER_HALFCPLT_CB_ID:
 969:Drivers/STM32L4xx_HAL_Driver/Src/stm32l4xx_hal_dma.c ****            hdma->XferHalfCpltCallback = NULL;
 970:Drivers/STM32L4xx_HAL_Driver/Src/stm32l4xx_hal_dma.c ****            break;
 971:Drivers/STM32L4xx_HAL_Driver/Src/stm32l4xx_hal_dma.c **** 
 972:Drivers/STM32L4xx_HAL_Driver/Src/stm32l4xx_hal_dma.c ****      case  HAL_DMA_XFER_ERROR_CB_ID:
 973:Drivers/STM32L4xx_HAL_Driver/Src/stm32l4xx_hal_dma.c ****            hdma->XferErrorCallback = NULL;
 974:Drivers/STM32L4xx_HAL_Driver/Src/stm32l4xx_hal_dma.c ****            break;
 975:Drivers/STM32L4xx_HAL_Driver/Src/stm32l4xx_hal_dma.c **** 
 976:Drivers/STM32L4xx_HAL_Driver/Src/stm32l4xx_hal_dma.c ****      case  HAL_DMA_XFER_ABORT_CB_ID:
 977:Drivers/STM32L4xx_HAL_Driver/Src/stm32l4xx_hal_dma.c ****            hdma->XferAbortCallback = NULL;
 978:Drivers/STM32L4xx_HAL_Driver/Src/stm32l4xx_hal_dma.c ****            break;
 979:Drivers/STM32L4xx_HAL_Driver/Src/stm32l4xx_hal_dma.c **** 
 980:Drivers/STM32L4xx_HAL_Driver/Src/stm32l4xx_hal_dma.c ****     case   HAL_DMA_XFER_ALL_CB_ID:
 981:Drivers/STM32L4xx_HAL_Driver/Src/stm32l4xx_hal_dma.c ****            hdma->XferCpltCallback = NULL;
 982:Drivers/STM32L4xx_HAL_Driver/Src/stm32l4xx_hal_dma.c ****            hdma->XferHalfCpltCallback = NULL;
 983:Drivers/STM32L4xx_HAL_Driver/Src/stm32l4xx_hal_dma.c ****            hdma->XferErrorCallback = NULL;
 984:Drivers/STM32L4xx_HAL_Driver/Src/stm32l4xx_hal_dma.c ****            hdma->XferAbortCallback = NULL;
 985:Drivers/STM32L4xx_HAL_Driver/Src/stm32l4xx_hal_dma.c ****            break;
 986:Drivers/STM32L4xx_HAL_Driver/Src/stm32l4xx_hal_dma.c **** 
 987:Drivers/STM32L4xx_HAL_Driver/Src/stm32l4xx_hal_dma.c ****     default:
 988:Drivers/STM32L4xx_HAL_Driver/Src/stm32l4xx_hal_dma.c ****            status = HAL_ERROR;
 989:Drivers/STM32L4xx_HAL_Driver/Src/stm32l4xx_hal_dma.c ****            break;
 990:Drivers/STM32L4xx_HAL_Driver/Src/stm32l4xx_hal_dma.c ****     }
 991:Drivers/STM32L4xx_HAL_Driver/Src/stm32l4xx_hal_dma.c ****   }
 992:Drivers/STM32L4xx_HAL_Driver/Src/stm32l4xx_hal_dma.c ****   else
 993:Drivers/STM32L4xx_HAL_Driver/Src/stm32l4xx_hal_dma.c ****   {
 994:Drivers/STM32L4xx_HAL_Driver/Src/stm32l4xx_hal_dma.c ****     status = HAL_ERROR;
 995:Drivers/STM32L4xx_HAL_Driver/Src/stm32l4xx_hal_dma.c ****   }
 996:Drivers/STM32L4xx_HAL_Driver/Src/stm32l4xx_hal_dma.c **** 
 997:Drivers/STM32L4xx_HAL_Driver/Src/stm32l4xx_hal_dma.c ****   /* Release Lock */
 998:Drivers/STM32L4xx_HAL_Driver/Src/stm32l4xx_hal_dma.c ****   __HAL_UNLOCK(hdma);
 999:Drivers/STM32L4xx_HAL_Driver/Src/stm32l4xx_hal_dma.c **** 
ARM GAS  C:\Users\union\AppData\Local\Temp\ccZKxuJa.s 			page 19


1000:Drivers/STM32L4xx_HAL_Driver/Src/stm32l4xx_hal_dma.c ****   return status;
1001:Drivers/STM32L4xx_HAL_Driver/Src/stm32l4xx_hal_dma.c **** }
1002:Drivers/STM32L4xx_HAL_Driver/Src/stm32l4xx_hal_dma.c **** 
1003:Drivers/STM32L4xx_HAL_Driver/Src/stm32l4xx_hal_dma.c **** /**
1004:Drivers/STM32L4xx_HAL_Driver/Src/stm32l4xx_hal_dma.c ****   * @}
1005:Drivers/STM32L4xx_HAL_Driver/Src/stm32l4xx_hal_dma.c ****   */
1006:Drivers/STM32L4xx_HAL_Driver/Src/stm32l4xx_hal_dma.c **** 
1007:Drivers/STM32L4xx_HAL_Driver/Src/stm32l4xx_hal_dma.c **** 
1008:Drivers/STM32L4xx_HAL_Driver/Src/stm32l4xx_hal_dma.c **** 
1009:Drivers/STM32L4xx_HAL_Driver/Src/stm32l4xx_hal_dma.c **** /** @defgroup DMA_Exported_Functions_Group3 Peripheral State and Errors functions
1010:Drivers/STM32L4xx_HAL_Driver/Src/stm32l4xx_hal_dma.c ****  *  @brief    Peripheral State and Errors functions
1011:Drivers/STM32L4xx_HAL_Driver/Src/stm32l4xx_hal_dma.c ****  *
1012:Drivers/STM32L4xx_HAL_Driver/Src/stm32l4xx_hal_dma.c **** @verbatim
1013:Drivers/STM32L4xx_HAL_Driver/Src/stm32l4xx_hal_dma.c ****  ===============================================================================
1014:Drivers/STM32L4xx_HAL_Driver/Src/stm32l4xx_hal_dma.c ****             ##### Peripheral State and Errors functions #####
1015:Drivers/STM32L4xx_HAL_Driver/Src/stm32l4xx_hal_dma.c ****  ===============================================================================
1016:Drivers/STM32L4xx_HAL_Driver/Src/stm32l4xx_hal_dma.c ****     [..]
1017:Drivers/STM32L4xx_HAL_Driver/Src/stm32l4xx_hal_dma.c ****     This subsection provides functions allowing to
1018:Drivers/STM32L4xx_HAL_Driver/Src/stm32l4xx_hal_dma.c ****       (+) Check the DMA state
1019:Drivers/STM32L4xx_HAL_Driver/Src/stm32l4xx_hal_dma.c ****       (+) Get error code
1020:Drivers/STM32L4xx_HAL_Driver/Src/stm32l4xx_hal_dma.c **** 
1021:Drivers/STM32L4xx_HAL_Driver/Src/stm32l4xx_hal_dma.c **** @endverbatim
1022:Drivers/STM32L4xx_HAL_Driver/Src/stm32l4xx_hal_dma.c ****   * @{
1023:Drivers/STM32L4xx_HAL_Driver/Src/stm32l4xx_hal_dma.c ****   */
1024:Drivers/STM32L4xx_HAL_Driver/Src/stm32l4xx_hal_dma.c **** 
1025:Drivers/STM32L4xx_HAL_Driver/Src/stm32l4xx_hal_dma.c **** /**
1026:Drivers/STM32L4xx_HAL_Driver/Src/stm32l4xx_hal_dma.c ****   * @brief  Return the DMA handle state.
1027:Drivers/STM32L4xx_HAL_Driver/Src/stm32l4xx_hal_dma.c ****   * @param  hdma pointer to a DMA_HandleTypeDef structure that contains
1028:Drivers/STM32L4xx_HAL_Driver/Src/stm32l4xx_hal_dma.c ****   *               the configuration information for the specified DMA Channel.
1029:Drivers/STM32L4xx_HAL_Driver/Src/stm32l4xx_hal_dma.c ****   * @retval HAL state
1030:Drivers/STM32L4xx_HAL_Driver/Src/stm32l4xx_hal_dma.c ****   */
1031:Drivers/STM32L4xx_HAL_Driver/Src/stm32l4xx_hal_dma.c **** HAL_DMA_StateTypeDef HAL_DMA_GetState(DMA_HandleTypeDef *hdma)
1032:Drivers/STM32L4xx_HAL_Driver/Src/stm32l4xx_hal_dma.c **** {
1033:Drivers/STM32L4xx_HAL_Driver/Src/stm32l4xx_hal_dma.c ****   /* Return DMA handle state */
1034:Drivers/STM32L4xx_HAL_Driver/Src/stm32l4xx_hal_dma.c ****   return hdma->State;
1035:Drivers/STM32L4xx_HAL_Driver/Src/stm32l4xx_hal_dma.c **** }
1036:Drivers/STM32L4xx_HAL_Driver/Src/stm32l4xx_hal_dma.c **** 
1037:Drivers/STM32L4xx_HAL_Driver/Src/stm32l4xx_hal_dma.c **** /**
1038:Drivers/STM32L4xx_HAL_Driver/Src/stm32l4xx_hal_dma.c ****   * @brief  Return the DMA error code.
1039:Drivers/STM32L4xx_HAL_Driver/Src/stm32l4xx_hal_dma.c ****   * @param  hdma : pointer to a DMA_HandleTypeDef structure that contains
1040:Drivers/STM32L4xx_HAL_Driver/Src/stm32l4xx_hal_dma.c ****   *              the configuration information for the specified DMA Channel.
1041:Drivers/STM32L4xx_HAL_Driver/Src/stm32l4xx_hal_dma.c ****   * @retval DMA Error Code
1042:Drivers/STM32L4xx_HAL_Driver/Src/stm32l4xx_hal_dma.c ****   */
1043:Drivers/STM32L4xx_HAL_Driver/Src/stm32l4xx_hal_dma.c **** uint32_t HAL_DMA_GetError(DMA_HandleTypeDef *hdma)
1044:Drivers/STM32L4xx_HAL_Driver/Src/stm32l4xx_hal_dma.c **** {
1045:Drivers/STM32L4xx_HAL_Driver/Src/stm32l4xx_hal_dma.c ****   return hdma->ErrorCode;
1046:Drivers/STM32L4xx_HAL_Driver/Src/stm32l4xx_hal_dma.c **** }
1047:Drivers/STM32L4xx_HAL_Driver/Src/stm32l4xx_hal_dma.c **** 
1048:Drivers/STM32L4xx_HAL_Driver/Src/stm32l4xx_hal_dma.c **** /**
1049:Drivers/STM32L4xx_HAL_Driver/Src/stm32l4xx_hal_dma.c ****   * @}
1050:Drivers/STM32L4xx_HAL_Driver/Src/stm32l4xx_hal_dma.c ****   */
1051:Drivers/STM32L4xx_HAL_Driver/Src/stm32l4xx_hal_dma.c **** 
1052:Drivers/STM32L4xx_HAL_Driver/Src/stm32l4xx_hal_dma.c **** /**
1053:Drivers/STM32L4xx_HAL_Driver/Src/stm32l4xx_hal_dma.c ****   * @}
1054:Drivers/STM32L4xx_HAL_Driver/Src/stm32l4xx_hal_dma.c ****   */
1055:Drivers/STM32L4xx_HAL_Driver/Src/stm32l4xx_hal_dma.c **** 
1056:Drivers/STM32L4xx_HAL_Driver/Src/stm32l4xx_hal_dma.c **** /** @addtogroup DMA_Private_Functions
ARM GAS  C:\Users\union\AppData\Local\Temp\ccZKxuJa.s 			page 20


1057:Drivers/STM32L4xx_HAL_Driver/Src/stm32l4xx_hal_dma.c ****   * @{
1058:Drivers/STM32L4xx_HAL_Driver/Src/stm32l4xx_hal_dma.c ****   */
1059:Drivers/STM32L4xx_HAL_Driver/Src/stm32l4xx_hal_dma.c **** 
1060:Drivers/STM32L4xx_HAL_Driver/Src/stm32l4xx_hal_dma.c **** /**
1061:Drivers/STM32L4xx_HAL_Driver/Src/stm32l4xx_hal_dma.c ****   * @brief  Sets the DMA Transfer parameter.
1062:Drivers/STM32L4xx_HAL_Driver/Src/stm32l4xx_hal_dma.c ****   * @param  hdma       pointer to a DMA_HandleTypeDef structure that contains
1063:Drivers/STM32L4xx_HAL_Driver/Src/stm32l4xx_hal_dma.c ****   *                     the configuration information for the specified DMA Channel.
1064:Drivers/STM32L4xx_HAL_Driver/Src/stm32l4xx_hal_dma.c ****   * @param  SrcAddress The source memory Buffer address
1065:Drivers/STM32L4xx_HAL_Driver/Src/stm32l4xx_hal_dma.c ****   * @param  DstAddress The destination memory Buffer address
1066:Drivers/STM32L4xx_HAL_Driver/Src/stm32l4xx_hal_dma.c ****   * @param  DataLength The length of data to be transferred from source to destination
1067:Drivers/STM32L4xx_HAL_Driver/Src/stm32l4xx_hal_dma.c ****   * @retval HAL status
1068:Drivers/STM32L4xx_HAL_Driver/Src/stm32l4xx_hal_dma.c ****   */
1069:Drivers/STM32L4xx_HAL_Driver/Src/stm32l4xx_hal_dma.c **** static void DMA_SetConfig(DMA_HandleTypeDef *hdma, uint32_t SrcAddress, uint32_t DstAddress, uint32
1070:Drivers/STM32L4xx_HAL_Driver/Src/stm32l4xx_hal_dma.c **** {
  29              		.loc 1 1070 1 view -0
  30              		.cfi_startproc
  31              		@ args = 0, pretend = 0, frame = 0
  32              		@ frame_needed = 0, uses_anonymous_args = 0
  33              		@ link register save eliminated.
  34              		.loc 1 1070 1 is_stmt 0 view .LVU1
  35 0000 70B4     		push	{r4, r5, r6}
  36              	.LCFI0:
  37              		.cfi_def_cfa_offset 12
  38              		.cfi_offset 4, -12
  39              		.cfi_offset 5, -8
  40              		.cfi_offset 6, -4
1071:Drivers/STM32L4xx_HAL_Driver/Src/stm32l4xx_hal_dma.c **** #if defined(DMAMUX1)
1072:Drivers/STM32L4xx_HAL_Driver/Src/stm32l4xx_hal_dma.c ****   /* Clear the DMAMUX synchro overrun flag */
1073:Drivers/STM32L4xx_HAL_Driver/Src/stm32l4xx_hal_dma.c ****   hdma->DMAmuxChannelStatus->CFR = hdma->DMAmuxChannelStatusMask;
1074:Drivers/STM32L4xx_HAL_Driver/Src/stm32l4xx_hal_dma.c **** 
1075:Drivers/STM32L4xx_HAL_Driver/Src/stm32l4xx_hal_dma.c ****   if(hdma->DMAmuxRequestGen != 0U)
1076:Drivers/STM32L4xx_HAL_Driver/Src/stm32l4xx_hal_dma.c ****   {
1077:Drivers/STM32L4xx_HAL_Driver/Src/stm32l4xx_hal_dma.c ****     /* Clear the DMAMUX request generator overrun flag */
1078:Drivers/STM32L4xx_HAL_Driver/Src/stm32l4xx_hal_dma.c ****     hdma->DMAmuxRequestGenStatus->RGCFR = hdma->DMAmuxRequestGenStatusMask;
1079:Drivers/STM32L4xx_HAL_Driver/Src/stm32l4xx_hal_dma.c ****   }
1080:Drivers/STM32L4xx_HAL_Driver/Src/stm32l4xx_hal_dma.c **** #endif
1081:Drivers/STM32L4xx_HAL_Driver/Src/stm32l4xx_hal_dma.c **** 
1082:Drivers/STM32L4xx_HAL_Driver/Src/stm32l4xx_hal_dma.c ****   /* Clear all flags */
1083:Drivers/STM32L4xx_HAL_Driver/Src/stm32l4xx_hal_dma.c ****   hdma->DmaBaseAddress->IFCR = (DMA_ISR_GIF1 << (hdma->ChannelIndex & 0x1CU));
  41              		.loc 1 1083 3 is_stmt 1 view .LVU2
  42              		.loc 1 1083 54 is_stmt 0 view .LVU3
  43 0002 446C     		ldr	r4, [r0, #68]
  44              		.loc 1 1083 69 view .LVU4
  45 0004 04F01C05 		and	r5, r4, #28
  46              		.loc 1 1083 7 view .LVU5
  47 0008 066C     		ldr	r6, [r0, #64]
  48              		.loc 1 1083 46 view .LVU6
  49 000a 0124     		movs	r4, #1
  50 000c AC40     		lsls	r4, r4, r5
  51              		.loc 1 1083 30 view .LVU7
  52 000e 7460     		str	r4, [r6, #4]
1084:Drivers/STM32L4xx_HAL_Driver/Src/stm32l4xx_hal_dma.c **** 
1085:Drivers/STM32L4xx_HAL_Driver/Src/stm32l4xx_hal_dma.c ****   /* Configure DMA Channel data length */
1086:Drivers/STM32L4xx_HAL_Driver/Src/stm32l4xx_hal_dma.c ****   hdma->Instance->CNDTR = DataLength;
  53              		.loc 1 1086 3 is_stmt 1 view .LVU8
  54              		.loc 1 1086 7 is_stmt 0 view .LVU9
  55 0010 0468     		ldr	r4, [r0]
ARM GAS  C:\Users\union\AppData\Local\Temp\ccZKxuJa.s 			page 21


  56              		.loc 1 1086 25 view .LVU10
  57 0012 6360     		str	r3, [r4, #4]
1087:Drivers/STM32L4xx_HAL_Driver/Src/stm32l4xx_hal_dma.c **** 
1088:Drivers/STM32L4xx_HAL_Driver/Src/stm32l4xx_hal_dma.c ****   /* Memory to Peripheral */
1089:Drivers/STM32L4xx_HAL_Driver/Src/stm32l4xx_hal_dma.c ****   if((hdma->Init.Direction) == DMA_MEMORY_TO_PERIPH)
  58              		.loc 1 1089 3 is_stmt 1 view .LVU11
  59              		.loc 1 1089 17 is_stmt 0 view .LVU12
  60 0014 8368     		ldr	r3, [r0, #8]
  61              	.LVL1:
  62              		.loc 1 1089 5 view .LVU13
  63 0016 102B     		cmp	r3, #16
  64 0018 05D0     		beq	.L5
1090:Drivers/STM32L4xx_HAL_Driver/Src/stm32l4xx_hal_dma.c ****   {
1091:Drivers/STM32L4xx_HAL_Driver/Src/stm32l4xx_hal_dma.c ****     /* Configure DMA Channel destination address */
1092:Drivers/STM32L4xx_HAL_Driver/Src/stm32l4xx_hal_dma.c ****     hdma->Instance->CPAR = DstAddress;
1093:Drivers/STM32L4xx_HAL_Driver/Src/stm32l4xx_hal_dma.c **** 
1094:Drivers/STM32L4xx_HAL_Driver/Src/stm32l4xx_hal_dma.c ****     /* Configure DMA Channel source address */
1095:Drivers/STM32L4xx_HAL_Driver/Src/stm32l4xx_hal_dma.c ****     hdma->Instance->CMAR = SrcAddress;
1096:Drivers/STM32L4xx_HAL_Driver/Src/stm32l4xx_hal_dma.c ****   }
1097:Drivers/STM32L4xx_HAL_Driver/Src/stm32l4xx_hal_dma.c ****   /* Peripheral to Memory */
1098:Drivers/STM32L4xx_HAL_Driver/Src/stm32l4xx_hal_dma.c ****   else
1099:Drivers/STM32L4xx_HAL_Driver/Src/stm32l4xx_hal_dma.c ****   {
1100:Drivers/STM32L4xx_HAL_Driver/Src/stm32l4xx_hal_dma.c ****     /* Configure DMA Channel source address */
1101:Drivers/STM32L4xx_HAL_Driver/Src/stm32l4xx_hal_dma.c ****     hdma->Instance->CPAR = SrcAddress;
  65              		.loc 1 1101 5 is_stmt 1 view .LVU14
  66              		.loc 1 1101 9 is_stmt 0 view .LVU15
  67 001a 0368     		ldr	r3, [r0]
  68              		.loc 1 1101 26 view .LVU16
  69 001c 9960     		str	r1, [r3, #8]
  70              	.LVL2:
1102:Drivers/STM32L4xx_HAL_Driver/Src/stm32l4xx_hal_dma.c **** 
1103:Drivers/STM32L4xx_HAL_Driver/Src/stm32l4xx_hal_dma.c ****     /* Configure DMA Channel destination address */
1104:Drivers/STM32L4xx_HAL_Driver/Src/stm32l4xx_hal_dma.c ****     hdma->Instance->CMAR = DstAddress;
  71              		.loc 1 1104 5 is_stmt 1 view .LVU17
  72              		.loc 1 1104 9 is_stmt 0 view .LVU18
  73 001e 0368     		ldr	r3, [r0]
  74              		.loc 1 1104 26 view .LVU19
  75 0020 DA60     		str	r2, [r3, #12]
  76              	.L1:
1105:Drivers/STM32L4xx_HAL_Driver/Src/stm32l4xx_hal_dma.c ****   }
1106:Drivers/STM32L4xx_HAL_Driver/Src/stm32l4xx_hal_dma.c **** }
  77              		.loc 1 1106 1 view .LVU20
  78 0022 70BC     		pop	{r4, r5, r6}
  79              	.LCFI1:
  80              		.cfi_remember_state
  81              		.cfi_restore 6
  82              		.cfi_restore 5
  83              		.cfi_restore 4
  84              		.cfi_def_cfa_offset 0
  85 0024 7047     		bx	lr
  86              	.LVL3:
  87              	.L5:
  88              	.LCFI2:
  89              		.cfi_restore_state
1092:Drivers/STM32L4xx_HAL_Driver/Src/stm32l4xx_hal_dma.c **** 
  90              		.loc 1 1092 5 is_stmt 1 view .LVU21
1092:Drivers/STM32L4xx_HAL_Driver/Src/stm32l4xx_hal_dma.c **** 
ARM GAS  C:\Users\union\AppData\Local\Temp\ccZKxuJa.s 			page 22


  91              		.loc 1 1092 9 is_stmt 0 view .LVU22
  92 0026 0368     		ldr	r3, [r0]
1092:Drivers/STM32L4xx_HAL_Driver/Src/stm32l4xx_hal_dma.c **** 
  93              		.loc 1 1092 26 view .LVU23
  94 0028 9A60     		str	r2, [r3, #8]
  95              	.LVL4:
1095:Drivers/STM32L4xx_HAL_Driver/Src/stm32l4xx_hal_dma.c ****   }
  96              		.loc 1 1095 5 is_stmt 1 view .LVU24
1095:Drivers/STM32L4xx_HAL_Driver/Src/stm32l4xx_hal_dma.c ****   }
  97              		.loc 1 1095 9 is_stmt 0 view .LVU25
  98 002a 0368     		ldr	r3, [r0]
1095:Drivers/STM32L4xx_HAL_Driver/Src/stm32l4xx_hal_dma.c ****   }
  99              		.loc 1 1095 26 view .LVU26
 100 002c D960     		str	r1, [r3, #12]
 101 002e F8E7     		b	.L1
 102              		.cfi_endproc
 103              	.LFE144:
 105              		.section	.text.HAL_DMA_Init,"ax",%progbits
 106              		.align	1
 107              		.global	HAL_DMA_Init
 108              		.syntax unified
 109              		.thumb
 110              		.thumb_func
 111              		.fpu fpv4-sp-d16
 113              	HAL_DMA_Init:
 114              	.LVL5:
 115              	.LFB132:
 155:Drivers/STM32L4xx_HAL_Driver/Src/stm32l4xx_hal_dma.c ****   uint32_t tmp;
 116              		.loc 1 155 1 is_stmt 1 view -0
 117              		.cfi_startproc
 118              		@ args = 0, pretend = 0, frame = 0
 119              		@ frame_needed = 0, uses_anonymous_args = 0
 120              		@ link register save eliminated.
 156:Drivers/STM32L4xx_HAL_Driver/Src/stm32l4xx_hal_dma.c **** 
 121              		.loc 1 156 3 view .LVU28
 159:Drivers/STM32L4xx_HAL_Driver/Src/stm32l4xx_hal_dma.c ****   {
 122              		.loc 1 159 3 view .LVU29
 159:Drivers/STM32L4xx_HAL_Driver/Src/stm32l4xx_hal_dma.c ****   {
 123              		.loc 1 159 5 is_stmt 0 view .LVU30
 124 0000 0028     		cmp	r0, #0
 125 0002 68D0     		beq	.L12
 155:Drivers/STM32L4xx_HAL_Driver/Src/stm32l4xx_hal_dma.c ****   uint32_t tmp;
 126              		.loc 1 155 1 view .LVU31
 127 0004 10B4     		push	{r4}
 128              	.LCFI3:
 129              		.cfi_def_cfa_offset 4
 130              		.cfi_offset 4, -4
 131 0006 0346     		mov	r3, r0
 165:Drivers/STM32L4xx_HAL_Driver/Src/stm32l4xx_hal_dma.c ****   assert_param(IS_DMA_DIRECTION(hdma->Init.Direction));
 132              		.loc 1 165 3 is_stmt 1 view .LVU32
 166:Drivers/STM32L4xx_HAL_Driver/Src/stm32l4xx_hal_dma.c ****   assert_param(IS_DMA_PERIPHERAL_INC_STATE(hdma->Init.PeriphInc));
 133              		.loc 1 166 3 view .LVU33
 167:Drivers/STM32L4xx_HAL_Driver/Src/stm32l4xx_hal_dma.c ****   assert_param(IS_DMA_MEMORY_INC_STATE(hdma->Init.MemInc));
 134              		.loc 1 167 3 view .LVU34
 168:Drivers/STM32L4xx_HAL_Driver/Src/stm32l4xx_hal_dma.c ****   assert_param(IS_DMA_PERIPHERAL_DATA_SIZE(hdma->Init.PeriphDataAlignment));
 135              		.loc 1 168 3 view .LVU35
 169:Drivers/STM32L4xx_HAL_Driver/Src/stm32l4xx_hal_dma.c ****   assert_param(IS_DMA_MEMORY_DATA_SIZE(hdma->Init.MemDataAlignment));
ARM GAS  C:\Users\union\AppData\Local\Temp\ccZKxuJa.s 			page 23


 136              		.loc 1 169 3 view .LVU36
 170:Drivers/STM32L4xx_HAL_Driver/Src/stm32l4xx_hal_dma.c ****   assert_param(IS_DMA_MODE(hdma->Init.Mode));
 137              		.loc 1 170 3 view .LVU37
 171:Drivers/STM32L4xx_HAL_Driver/Src/stm32l4xx_hal_dma.c ****   assert_param(IS_DMA_PRIORITY(hdma->Init.Priority));
 138              		.loc 1 171 3 view .LVU38
 172:Drivers/STM32L4xx_HAL_Driver/Src/stm32l4xx_hal_dma.c **** 
 139              		.loc 1 172 3 view .LVU39
 174:Drivers/STM32L4xx_HAL_Driver/Src/stm32l4xx_hal_dma.c **** 
 140              		.loc 1 174 3 view .LVU40
 177:Drivers/STM32L4xx_HAL_Driver/Src/stm32l4xx_hal_dma.c ****   {
 141              		.loc 1 177 3 view .LVU41
 177:Drivers/STM32L4xx_HAL_Driver/Src/stm32l4xx_hal_dma.c ****   {
 142              		.loc 1 177 22 is_stmt 0 view .LVU42
 143 0008 0068     		ldr	r0, [r0]
 144              	.LVL6:
 177:Drivers/STM32L4xx_HAL_Driver/Src/stm32l4xx_hal_dma.c ****   {
 145              		.loc 1 177 6 view .LVU43
 146 000a 344A     		ldr	r2, .L18
 147 000c 9042     		cmp	r0, r2
 148 000e 44D8     		bhi	.L8
 180:Drivers/STM32L4xx_HAL_Driver/Src/stm32l4xx_hal_dma.c ****     hdma->DmaBaseAddress = DMA1;
 149              		.loc 1 180 5 is_stmt 1 view .LVU44
 180:Drivers/STM32L4xx_HAL_Driver/Src/stm32l4xx_hal_dma.c ****     hdma->DmaBaseAddress = DMA1;
 150              		.loc 1 180 53 is_stmt 0 view .LVU45
 151 0010 334A     		ldr	r2, .L18+4
 152 0012 0244     		add	r2, r2, r0
 180:Drivers/STM32L4xx_HAL_Driver/Src/stm32l4xx_hal_dma.c ****     hdma->DmaBaseAddress = DMA1;
 153              		.loc 1 180 80 view .LVU46
 154 0014 3349     		ldr	r1, .L18+8
 155 0016 A1FB0212 		umull	r1, r2, r1, r2
 156 001a 1209     		lsrs	r2, r2, #4
 180:Drivers/STM32L4xx_HAL_Driver/Src/stm32l4xx_hal_dma.c ****     hdma->DmaBaseAddress = DMA1;
 157              		.loc 1 180 135 view .LVU47
 158 001c 9200     		lsls	r2, r2, #2
 180:Drivers/STM32L4xx_HAL_Driver/Src/stm32l4xx_hal_dma.c ****     hdma->DmaBaseAddress = DMA1;
 159              		.loc 1 180 24 view .LVU48
 160 001e 5A64     		str	r2, [r3, #68]
 181:Drivers/STM32L4xx_HAL_Driver/Src/stm32l4xx_hal_dma.c ****   }
 161              		.loc 1 181 5 is_stmt 1 view .LVU49
 181:Drivers/STM32L4xx_HAL_Driver/Src/stm32l4xx_hal_dma.c ****   }
 162              		.loc 1 181 26 is_stmt 0 view .LVU50
 163 0020 314A     		ldr	r2, .L18+12
 164 0022 1A64     		str	r2, [r3, #64]
 165              	.L9:
 191:Drivers/STM32L4xx_HAL_Driver/Src/stm32l4xx_hal_dma.c **** 
 166              		.loc 1 191 3 is_stmt 1 view .LVU51
 191:Drivers/STM32L4xx_HAL_Driver/Src/stm32l4xx_hal_dma.c **** 
 167              		.loc 1 191 15 is_stmt 0 view .LVU52
 168 0024 0222     		movs	r2, #2
 169 0026 83F82520 		strb	r2, [r3, #37]
 194:Drivers/STM32L4xx_HAL_Driver/Src/stm32l4xx_hal_dma.c **** 
 170              		.loc 1 194 3 is_stmt 1 view .LVU53
 194:Drivers/STM32L4xx_HAL_Driver/Src/stm32l4xx_hal_dma.c **** 
 171              		.loc 1 194 7 is_stmt 0 view .LVU54
 172 002a 0168     		ldr	r1, [r0]
 173              	.LVL7:
 197:Drivers/STM32L4xx_HAL_Driver/Src/stm32l4xx_hal_dma.c ****                       DMA_CCR_MINC  | DMA_CCR_PINC   | DMA_CCR_CIRC   |
ARM GAS  C:\Users\union\AppData\Local\Temp\ccZKxuJa.s 			page 24


 174              		.loc 1 197 3 is_stmt 1 view .LVU55
 197:Drivers/STM32L4xx_HAL_Driver/Src/stm32l4xx_hal_dma.c ****                       DMA_CCR_MINC  | DMA_CCR_PINC   | DMA_CCR_CIRC   |
 175              		.loc 1 197 7 is_stmt 0 view .LVU56
 176 002c 21F4FF41 		bic	r1, r1, #32640
 177              	.LVL8:
 197:Drivers/STM32L4xx_HAL_Driver/Src/stm32l4xx_hal_dma.c ****                       DMA_CCR_MINC  | DMA_CCR_PINC   | DMA_CCR_CIRC   |
 178              		.loc 1 197 7 view .LVU57
 179 0030 21F07001 		bic	r1, r1, #112
 180              	.LVL9:
 202:Drivers/STM32L4xx_HAL_Driver/Src/stm32l4xx_hal_dma.c ****           hdma->Init.PeriphInc           | hdma->Init.MemInc           |
 181              		.loc 1 202 3 is_stmt 1 view .LVU58
 202:Drivers/STM32L4xx_HAL_Driver/Src/stm32l4xx_hal_dma.c ****           hdma->Init.PeriphInc           | hdma->Init.MemInc           |
 182              		.loc 1 202 21 is_stmt 0 view .LVU59
 183 0034 9A68     		ldr	r2, [r3, #8]
 203:Drivers/STM32L4xx_HAL_Driver/Src/stm32l4xx_hal_dma.c ****           hdma->Init.PeriphDataAlignment | hdma->Init.MemDataAlignment |
 184              		.loc 1 203 21 view .LVU60
 185 0036 DC68     		ldr	r4, [r3, #12]
 202:Drivers/STM32L4xx_HAL_Driver/Src/stm32l4xx_hal_dma.c ****           hdma->Init.PeriphInc           | hdma->Init.MemInc           |
 186              		.loc 1 202 39 view .LVU61
 187 0038 2243     		orrs	r2, r2, r4
 203:Drivers/STM32L4xx_HAL_Driver/Src/stm32l4xx_hal_dma.c ****           hdma->Init.PeriphDataAlignment | hdma->Init.MemDataAlignment |
 188              		.loc 1 203 54 view .LVU62
 189 003a 1C69     		ldr	r4, [r3, #16]
 203:Drivers/STM32L4xx_HAL_Driver/Src/stm32l4xx_hal_dma.c ****           hdma->Init.PeriphDataAlignment | hdma->Init.MemDataAlignment |
 190              		.loc 1 203 42 view .LVU63
 191 003c 2243     		orrs	r2, r2, r4
 204:Drivers/STM32L4xx_HAL_Driver/Src/stm32l4xx_hal_dma.c ****           hdma->Init.Mode                | hdma->Init.Priority;
 192              		.loc 1 204 21 view .LVU64
 193 003e 5C69     		ldr	r4, [r3, #20]
 203:Drivers/STM32L4xx_HAL_Driver/Src/stm32l4xx_hal_dma.c ****           hdma->Init.PeriphDataAlignment | hdma->Init.MemDataAlignment |
 194              		.loc 1 203 72 view .LVU65
 195 0040 2243     		orrs	r2, r2, r4
 204:Drivers/STM32L4xx_HAL_Driver/Src/stm32l4xx_hal_dma.c ****           hdma->Init.Mode                | hdma->Init.Priority;
 196              		.loc 1 204 54 view .LVU66
 197 0042 9C69     		ldr	r4, [r3, #24]
 204:Drivers/STM32L4xx_HAL_Driver/Src/stm32l4xx_hal_dma.c ****           hdma->Init.Mode                | hdma->Init.Priority;
 198              		.loc 1 204 42 view .LVU67
 199 0044 2243     		orrs	r2, r2, r4
 205:Drivers/STM32L4xx_HAL_Driver/Src/stm32l4xx_hal_dma.c **** 
 200              		.loc 1 205 21 view .LVU68
 201 0046 DC69     		ldr	r4, [r3, #28]
 204:Drivers/STM32L4xx_HAL_Driver/Src/stm32l4xx_hal_dma.c ****           hdma->Init.Mode                | hdma->Init.Priority;
 202              		.loc 1 204 72 view .LVU69
 203 0048 2243     		orrs	r2, r2, r4
 205:Drivers/STM32L4xx_HAL_Driver/Src/stm32l4xx_hal_dma.c **** 
 204              		.loc 1 205 54 view .LVU70
 205 004a 1C6A     		ldr	r4, [r3, #32]
 205:Drivers/STM32L4xx_HAL_Driver/Src/stm32l4xx_hal_dma.c **** 
 206              		.loc 1 205 42 view .LVU71
 207 004c 2243     		orrs	r2, r2, r4
 202:Drivers/STM32L4xx_HAL_Driver/Src/stm32l4xx_hal_dma.c ****           hdma->Init.PeriphInc           | hdma->Init.MemInc           |
 208              		.loc 1 202 7 view .LVU72
 209 004e 0A43     		orrs	r2, r2, r1
 210              	.LVL10:
 208:Drivers/STM32L4xx_HAL_Driver/Src/stm32l4xx_hal_dma.c **** 
 211              		.loc 1 208 3 is_stmt 1 view .LVU73
 208:Drivers/STM32L4xx_HAL_Driver/Src/stm32l4xx_hal_dma.c **** 
ARM GAS  C:\Users\union\AppData\Local\Temp\ccZKxuJa.s 			page 25


 212              		.loc 1 208 23 is_stmt 0 view .LVU74
 213 0050 0260     		str	r2, [r0]
 252:Drivers/STM32L4xx_HAL_Driver/Src/stm32l4xx_hal_dma.c ****   {
 214              		.loc 1 252 3 is_stmt 1 view .LVU75
 252:Drivers/STM32L4xx_HAL_Driver/Src/stm32l4xx_hal_dma.c ****   {
 215              		.loc 1 252 16 is_stmt 0 view .LVU76
 216 0052 9A68     		ldr	r2, [r3, #8]
 217              	.LVL11:
 252:Drivers/STM32L4xx_HAL_Driver/Src/stm32l4xx_hal_dma.c ****   {
 218              		.loc 1 252 5 view .LVU77
 219 0054 B2F5804F 		cmp	r2, #16384
 220 0058 15D0     		beq	.L10
 255:Drivers/STM32L4xx_HAL_Driver/Src/stm32l4xx_hal_dma.c ****     {
 221              		.loc 1 255 5 is_stmt 1 view .LVU78
 255:Drivers/STM32L4xx_HAL_Driver/Src/stm32l4xx_hal_dma.c ****     {
 222              		.loc 1 255 21 is_stmt 0 view .LVU79
 223 005a 196C     		ldr	r1, [r3, #64]
 255:Drivers/STM32L4xx_HAL_Driver/Src/stm32l4xx_hal_dma.c ****     {
 224              		.loc 1 255 8 view .LVU80
 225 005c 224A     		ldr	r2, .L18+12
 226 005e 9142     		cmp	r1, r2
 227 0060 26D0     		beq	.L17
 266:Drivers/STM32L4xx_HAL_Driver/Src/stm32l4xx_hal_dma.c **** 
 228              		.loc 1 266 7 is_stmt 1 view .LVU81
 266:Drivers/STM32L4xx_HAL_Driver/Src/stm32l4xx_hal_dma.c **** 
 229              		.loc 1 266 25 is_stmt 0 view .LVU82
 230 0062 224A     		ldr	r2, .L18+16
 231 0064 1168     		ldr	r1, [r2]
 266:Drivers/STM32L4xx_HAL_Driver/Src/stm32l4xx_hal_dma.c **** 
 232              		.loc 1 266 52 view .LVU83
 233 0066 586C     		ldr	r0, [r3, #68]
 234              	.LVL12:
 266:Drivers/STM32L4xx_HAL_Driver/Src/stm32l4xx_hal_dma.c **** 
 235              		.loc 1 266 67 view .LVU84
 236 0068 00F01C04 		and	r4, r0, #28
 266:Drivers/STM32L4xx_HAL_Driver/Src/stm32l4xx_hal_dma.c **** 
 237              		.loc 1 266 44 view .LVU85
 238 006c 0F20     		movs	r0, #15
 239 006e A040     		lsls	r0, r0, r4
 266:Drivers/STM32L4xx_HAL_Driver/Src/stm32l4xx_hal_dma.c **** 
 240              		.loc 1 266 25 view .LVU86
 241 0070 21EA0001 		bic	r1, r1, r0
 242 0074 1160     		str	r1, [r2]
 269:Drivers/STM32L4xx_HAL_Driver/Src/stm32l4xx_hal_dma.c ****     }
 243              		.loc 1 269 7 is_stmt 1 view .LVU87
 269:Drivers/STM32L4xx_HAL_Driver/Src/stm32l4xx_hal_dma.c ****     }
 244              		.loc 1 269 25 is_stmt 0 view .LVU88
 245 0076 1168     		ldr	r1, [r2]
 269:Drivers/STM32L4xx_HAL_Driver/Src/stm32l4xx_hal_dma.c ****     }
 246              		.loc 1 269 50 view .LVU89
 247 0078 5868     		ldr	r0, [r3, #4]
 269:Drivers/STM32L4xx_HAL_Driver/Src/stm32l4xx_hal_dma.c ****     }
 248              		.loc 1 269 67 view .LVU90
 249 007a 5C6C     		ldr	r4, [r3, #68]
 269:Drivers/STM32L4xx_HAL_Driver/Src/stm32l4xx_hal_dma.c ****     }
 250              		.loc 1 269 82 view .LVU91
 251 007c 04F01C04 		and	r4, r4, #28
ARM GAS  C:\Users\union\AppData\Local\Temp\ccZKxuJa.s 			page 26


 269:Drivers/STM32L4xx_HAL_Driver/Src/stm32l4xx_hal_dma.c ****     }
 252              		.loc 1 269 59 view .LVU92
 253 0080 A040     		lsls	r0, r0, r4
 269:Drivers/STM32L4xx_HAL_Driver/Src/stm32l4xx_hal_dma.c ****     }
 254              		.loc 1 269 25 view .LVU93
 255 0082 0143     		orrs	r1, r1, r0
 256 0084 1160     		str	r1, [r2]
 257              	.L10:
 278:Drivers/STM32L4xx_HAL_Driver/Src/stm32l4xx_hal_dma.c **** 
 258              		.loc 1 278 3 is_stmt 1 view .LVU94
 278:Drivers/STM32L4xx_HAL_Driver/Src/stm32l4xx_hal_dma.c **** 
 259              		.loc 1 278 19 is_stmt 0 view .LVU95
 260 0086 0020     		movs	r0, #0
 261 0088 D863     		str	r0, [r3, #60]
 281:Drivers/STM32L4xx_HAL_Driver/Src/stm32l4xx_hal_dma.c **** 
 262              		.loc 1 281 3 is_stmt 1 view .LVU96
 281:Drivers/STM32L4xx_HAL_Driver/Src/stm32l4xx_hal_dma.c **** 
 263              		.loc 1 281 15 is_stmt 0 view .LVU97
 264 008a 0122     		movs	r2, #1
 265 008c 83F82520 		strb	r2, [r3, #37]
 284:Drivers/STM32L4xx_HAL_Driver/Src/stm32l4xx_hal_dma.c **** 
 266              		.loc 1 284 3 is_stmt 1 view .LVU98
 284:Drivers/STM32L4xx_HAL_Driver/Src/stm32l4xx_hal_dma.c **** 
 267              		.loc 1 284 14 is_stmt 0 view .LVU99
 268 0090 83F82400 		strb	r0, [r3, #36]
 286:Drivers/STM32L4xx_HAL_Driver/Src/stm32l4xx_hal_dma.c **** }
 269              		.loc 1 286 3 is_stmt 1 view .LVU100
 287:Drivers/STM32L4xx_HAL_Driver/Src/stm32l4xx_hal_dma.c **** 
 270              		.loc 1 287 1 is_stmt 0 view .LVU101
 271 0094 5DF8044B 		ldr	r4, [sp], #4
 272              	.LCFI4:
 273              		.cfi_remember_state
 274              		.cfi_restore 4
 275              		.cfi_def_cfa_offset 0
 276 0098 7047     		bx	lr
 277              	.L8:
 278              	.LCFI5:
 279              		.cfi_restore_state
 186:Drivers/STM32L4xx_HAL_Driver/Src/stm32l4xx_hal_dma.c ****     hdma->DmaBaseAddress = DMA2;
 280              		.loc 1 186 5 is_stmt 1 view .LVU102
 186:Drivers/STM32L4xx_HAL_Driver/Src/stm32l4xx_hal_dma.c ****     hdma->DmaBaseAddress = DMA2;
 281              		.loc 1 186 53 is_stmt 0 view .LVU103
 282 009a 154A     		ldr	r2, .L18+20
 283 009c 0244     		add	r2, r2, r0
 186:Drivers/STM32L4xx_HAL_Driver/Src/stm32l4xx_hal_dma.c ****     hdma->DmaBaseAddress = DMA2;
 284              		.loc 1 186 80 view .LVU104
 285 009e 1149     		ldr	r1, .L18+8
 286 00a0 A1FB0212 		umull	r1, r2, r1, r2
 287 00a4 1209     		lsrs	r2, r2, #4
 186:Drivers/STM32L4xx_HAL_Driver/Src/stm32l4xx_hal_dma.c ****     hdma->DmaBaseAddress = DMA2;
 288              		.loc 1 186 135 view .LVU105
 289 00a6 9200     		lsls	r2, r2, #2
 186:Drivers/STM32L4xx_HAL_Driver/Src/stm32l4xx_hal_dma.c ****     hdma->DmaBaseAddress = DMA2;
 290              		.loc 1 186 24 view .LVU106
 291 00a8 5A64     		str	r2, [r3, #68]
 187:Drivers/STM32L4xx_HAL_Driver/Src/stm32l4xx_hal_dma.c ****   }
 292              		.loc 1 187 5 is_stmt 1 view .LVU107
ARM GAS  C:\Users\union\AppData\Local\Temp\ccZKxuJa.s 			page 27


 187:Drivers/STM32L4xx_HAL_Driver/Src/stm32l4xx_hal_dma.c ****   }
 293              		.loc 1 187 26 is_stmt 0 view .LVU108
 294 00aa 124A     		ldr	r2, .L18+24
 295 00ac 1A64     		str	r2, [r3, #64]
 296 00ae B9E7     		b	.L9
 297              	.LVL13:
 298              	.L17:
 258:Drivers/STM32L4xx_HAL_Driver/Src/stm32l4xx_hal_dma.c **** 
 299              		.loc 1 258 7 is_stmt 1 view .LVU109
 258:Drivers/STM32L4xx_HAL_Driver/Src/stm32l4xx_hal_dma.c **** 
 300              		.loc 1 258 25 is_stmt 0 view .LVU110
 301 00b0 A832     		adds	r2, r2, #168
 302 00b2 1168     		ldr	r1, [r2]
 258:Drivers/STM32L4xx_HAL_Driver/Src/stm32l4xx_hal_dma.c **** 
 303              		.loc 1 258 52 view .LVU111
 304 00b4 586C     		ldr	r0, [r3, #68]
 305              	.LVL14:
 258:Drivers/STM32L4xx_HAL_Driver/Src/stm32l4xx_hal_dma.c **** 
 306              		.loc 1 258 67 view .LVU112
 307 00b6 00F01C04 		and	r4, r0, #28
 258:Drivers/STM32L4xx_HAL_Driver/Src/stm32l4xx_hal_dma.c **** 
 308              		.loc 1 258 44 view .LVU113
 309 00ba 0F20     		movs	r0, #15
 310 00bc A040     		lsls	r0, r0, r4
 258:Drivers/STM32L4xx_HAL_Driver/Src/stm32l4xx_hal_dma.c **** 
 311              		.loc 1 258 25 view .LVU114
 312 00be 21EA0001 		bic	r1, r1, r0
 313 00c2 1160     		str	r1, [r2]
 261:Drivers/STM32L4xx_HAL_Driver/Src/stm32l4xx_hal_dma.c ****     }
 314              		.loc 1 261 7 is_stmt 1 view .LVU115
 261:Drivers/STM32L4xx_HAL_Driver/Src/stm32l4xx_hal_dma.c ****     }
 315              		.loc 1 261 25 is_stmt 0 view .LVU116
 316 00c4 1168     		ldr	r1, [r2]
 261:Drivers/STM32L4xx_HAL_Driver/Src/stm32l4xx_hal_dma.c ****     }
 317              		.loc 1 261 50 view .LVU117
 318 00c6 5868     		ldr	r0, [r3, #4]
 261:Drivers/STM32L4xx_HAL_Driver/Src/stm32l4xx_hal_dma.c ****     }
 319              		.loc 1 261 67 view .LVU118
 320 00c8 5C6C     		ldr	r4, [r3, #68]
 261:Drivers/STM32L4xx_HAL_Driver/Src/stm32l4xx_hal_dma.c ****     }
 321              		.loc 1 261 82 view .LVU119
 322 00ca 04F01C04 		and	r4, r4, #28
 261:Drivers/STM32L4xx_HAL_Driver/Src/stm32l4xx_hal_dma.c ****     }
 323              		.loc 1 261 59 view .LVU120
 324 00ce A040     		lsls	r0, r0, r4
 261:Drivers/STM32L4xx_HAL_Driver/Src/stm32l4xx_hal_dma.c ****     }
 325              		.loc 1 261 25 view .LVU121
 326 00d0 0143     		orrs	r1, r1, r0
 327 00d2 1160     		str	r1, [r2]
 328 00d4 D7E7     		b	.L10
 329              	.LVL15:
 330              	.L12:
 331              	.LCFI6:
 332              		.cfi_def_cfa_offset 0
 333              		.cfi_restore 4
 161:Drivers/STM32L4xx_HAL_Driver/Src/stm32l4xx_hal_dma.c ****   }
 334              		.loc 1 161 12 view .LVU122
ARM GAS  C:\Users\union\AppData\Local\Temp\ccZKxuJa.s 			page 28


 335 00d6 0120     		movs	r0, #1
 336              	.LVL16:
 287:Drivers/STM32L4xx_HAL_Driver/Src/stm32l4xx_hal_dma.c **** 
 337              		.loc 1 287 1 view .LVU123
 338 00d8 7047     		bx	lr
 339              	.L19:
 340 00da 00BF     		.align	2
 341              	.L18:
 342 00dc 07040240 		.word	1073873927
 343 00e0 F8FFFDBF 		.word	-1073872904
 344 00e4 CDCCCCCC 		.word	-858993459
 345 00e8 00000240 		.word	1073872896
 346 00ec A8040240 		.word	1073874088
 347 00f0 F8FBFDBF 		.word	-1073873928
 348 00f4 00040240 		.word	1073873920
 349              		.cfi_endproc
 350              	.LFE132:
 352              		.section	.text.HAL_DMA_DeInit,"ax",%progbits
 353              		.align	1
 354              		.global	HAL_DMA_DeInit
 355              		.syntax unified
 356              		.thumb
 357              		.thumb_func
 358              		.fpu fpv4-sp-d16
 360              	HAL_DMA_DeInit:
 361              	.LVL17:
 362              	.LFB133:
 296:Drivers/STM32L4xx_HAL_Driver/Src/stm32l4xx_hal_dma.c **** 
 363              		.loc 1 296 1 is_stmt 1 view -0
 364              		.cfi_startproc
 365              		@ args = 0, pretend = 0, frame = 0
 366              		@ frame_needed = 0, uses_anonymous_args = 0
 367              		@ link register save eliminated.
 299:Drivers/STM32L4xx_HAL_Driver/Src/stm32l4xx_hal_dma.c ****   {
 368              		.loc 1 299 3 view .LVU125
 299:Drivers/STM32L4xx_HAL_Driver/Src/stm32l4xx_hal_dma.c ****   {
 369              		.loc 1 299 6 is_stmt 0 view .LVU126
 370 0000 0028     		cmp	r0, #0
 371 0002 4ED0     		beq	.L26
 296:Drivers/STM32L4xx_HAL_Driver/Src/stm32l4xx_hal_dma.c **** 
 372              		.loc 1 296 1 view .LVU127
 373 0004 10B4     		push	{r4}
 374              	.LCFI7:
 375              		.cfi_def_cfa_offset 4
 376              		.cfi_offset 4, -4
 377 0006 0346     		mov	r3, r0
 305:Drivers/STM32L4xx_HAL_Driver/Src/stm32l4xx_hal_dma.c **** 
 378              		.loc 1 305 3 is_stmt 1 view .LVU128
 308:Drivers/STM32L4xx_HAL_Driver/Src/stm32l4xx_hal_dma.c **** 
 379              		.loc 1 308 3 view .LVU129
 380 0008 0168     		ldr	r1, [r0]
 381 000a 0A68     		ldr	r2, [r1]
 382 000c 22F00102 		bic	r2, r2, #1
 383 0010 0A60     		str	r2, [r1]
 311:Drivers/STM32L4xx_HAL_Driver/Src/stm32l4xx_hal_dma.c ****   {
 384              		.loc 1 311 3 view .LVU130
 311:Drivers/STM32L4xx_HAL_Driver/Src/stm32l4xx_hal_dma.c ****   {
ARM GAS  C:\Users\union\AppData\Local\Temp\ccZKxuJa.s 			page 29


 385              		.loc 1 311 22 is_stmt 0 view .LVU131
 386 0012 0168     		ldr	r1, [r0]
 311:Drivers/STM32L4xx_HAL_Driver/Src/stm32l4xx_hal_dma.c ****   {
 387              		.loc 1 311 6 view .LVU132
 388 0014 244A     		ldr	r2, .L32
 389 0016 9142     		cmp	r1, r2
 390 0018 2DD8     		bhi	.L22
 314:Drivers/STM32L4xx_HAL_Driver/Src/stm32l4xx_hal_dma.c ****     hdma->DmaBaseAddress = DMA1;
 391              		.loc 1 314 5 is_stmt 1 view .LVU133
 314:Drivers/STM32L4xx_HAL_Driver/Src/stm32l4xx_hal_dma.c ****     hdma->DmaBaseAddress = DMA1;
 392              		.loc 1 314 53 is_stmt 0 view .LVU134
 393 001a 244A     		ldr	r2, .L32+4
 394 001c 0A44     		add	r2, r2, r1
 314:Drivers/STM32L4xx_HAL_Driver/Src/stm32l4xx_hal_dma.c ****     hdma->DmaBaseAddress = DMA1;
 395              		.loc 1 314 80 view .LVU135
 396 001e 2448     		ldr	r0, .L32+8
 397              	.LVL18:
 314:Drivers/STM32L4xx_HAL_Driver/Src/stm32l4xx_hal_dma.c ****     hdma->DmaBaseAddress = DMA1;
 398              		.loc 1 314 80 view .LVU136
 399 0020 A0FB0202 		umull	r0, r2, r0, r2
 400 0024 1209     		lsrs	r2, r2, #4
 314:Drivers/STM32L4xx_HAL_Driver/Src/stm32l4xx_hal_dma.c ****     hdma->DmaBaseAddress = DMA1;
 401              		.loc 1 314 135 view .LVU137
 402 0026 9200     		lsls	r2, r2, #2
 314:Drivers/STM32L4xx_HAL_Driver/Src/stm32l4xx_hal_dma.c ****     hdma->DmaBaseAddress = DMA1;
 403              		.loc 1 314 24 view .LVU138
 404 0028 5A64     		str	r2, [r3, #68]
 315:Drivers/STM32L4xx_HAL_Driver/Src/stm32l4xx_hal_dma.c ****   }
 405              		.loc 1 315 5 is_stmt 1 view .LVU139
 315:Drivers/STM32L4xx_HAL_Driver/Src/stm32l4xx_hal_dma.c ****   }
 406              		.loc 1 315 26 is_stmt 0 view .LVU140
 407 002a 224A     		ldr	r2, .L32+12
 408 002c 1A64     		str	r2, [r3, #64]
 409              	.L23:
 325:Drivers/STM32L4xx_HAL_Driver/Src/stm32l4xx_hal_dma.c **** 
 410              		.loc 1 325 3 is_stmt 1 view .LVU141
 325:Drivers/STM32L4xx_HAL_Driver/Src/stm32l4xx_hal_dma.c **** 
 411              		.loc 1 325 23 is_stmt 0 view .LVU142
 412 002e 0022     		movs	r2, #0
 413 0030 0A60     		str	r2, [r1]
 328:Drivers/STM32L4xx_HAL_Driver/Src/stm32l4xx_hal_dma.c **** 
 414              		.loc 1 328 3 is_stmt 1 view .LVU143
 328:Drivers/STM32L4xx_HAL_Driver/Src/stm32l4xx_hal_dma.c **** 
 415              		.loc 1 328 54 is_stmt 0 view .LVU144
 416 0032 5A6C     		ldr	r2, [r3, #68]
 328:Drivers/STM32L4xx_HAL_Driver/Src/stm32l4xx_hal_dma.c **** 
 417              		.loc 1 328 69 view .LVU145
 418 0034 02F01C01 		and	r1, r2, #28
 328:Drivers/STM32L4xx_HAL_Driver/Src/stm32l4xx_hal_dma.c **** 
 419              		.loc 1 328 7 view .LVU146
 420 0038 186C     		ldr	r0, [r3, #64]
 328:Drivers/STM32L4xx_HAL_Driver/Src/stm32l4xx_hal_dma.c **** 
 421              		.loc 1 328 46 view .LVU147
 422 003a 0122     		movs	r2, #1
 423 003c 8A40     		lsls	r2, r2, r1
 328:Drivers/STM32L4xx_HAL_Driver/Src/stm32l4xx_hal_dma.c **** 
 424              		.loc 1 328 30 view .LVU148
ARM GAS  C:\Users\union\AppData\Local\Temp\ccZKxuJa.s 			page 30


 425 003e 4260     		str	r2, [r0, #4]
 333:Drivers/STM32L4xx_HAL_Driver/Src/stm32l4xx_hal_dma.c ****   {
 426              		.loc 1 333 3 is_stmt 1 view .LVU149
 333:Drivers/STM32L4xx_HAL_Driver/Src/stm32l4xx_hal_dma.c ****   {
 427              		.loc 1 333 19 is_stmt 0 view .LVU150
 428 0040 196C     		ldr	r1, [r3, #64]
 333:Drivers/STM32L4xx_HAL_Driver/Src/stm32l4xx_hal_dma.c ****   {
 429              		.loc 1 333 6 view .LVU151
 430 0042 1C4A     		ldr	r2, .L32+12
 431 0044 9142     		cmp	r1, r2
 432 0046 21D0     		beq	.L31
 341:Drivers/STM32L4xx_HAL_Driver/Src/stm32l4xx_hal_dma.c ****   }
 433              		.loc 1 341 5 is_stmt 1 view .LVU152
 341:Drivers/STM32L4xx_HAL_Driver/Src/stm32l4xx_hal_dma.c ****   }
 434              		.loc 1 341 23 is_stmt 0 view .LVU153
 435 0048 1B4C     		ldr	r4, .L32+16
 436 004a 2268     		ldr	r2, [r4]
 341:Drivers/STM32L4xx_HAL_Driver/Src/stm32l4xx_hal_dma.c ****   }
 437              		.loc 1 341 50 view .LVU154
 438 004c 596C     		ldr	r1, [r3, #68]
 341:Drivers/STM32L4xx_HAL_Driver/Src/stm32l4xx_hal_dma.c ****   }
 439              		.loc 1 341 65 view .LVU155
 440 004e 01F01C00 		and	r0, r1, #28
 341:Drivers/STM32L4xx_HAL_Driver/Src/stm32l4xx_hal_dma.c ****   }
 441              		.loc 1 341 42 view .LVU156
 442 0052 0F21     		movs	r1, #15
 443 0054 8140     		lsls	r1, r1, r0
 341:Drivers/STM32L4xx_HAL_Driver/Src/stm32l4xx_hal_dma.c ****   }
 444              		.loc 1 341 23 view .LVU157
 445 0056 22EA0102 		bic	r2, r2, r1
 446 005a 2260     		str	r2, [r4]
 447              	.L25:
 382:Drivers/STM32L4xx_HAL_Driver/Src/stm32l4xx_hal_dma.c ****   hdma->XferHalfCpltCallback = NULL;
 448              		.loc 1 382 3 is_stmt 1 view .LVU158
 382:Drivers/STM32L4xx_HAL_Driver/Src/stm32l4xx_hal_dma.c ****   hdma->XferHalfCpltCallback = NULL;
 449              		.loc 1 382 26 is_stmt 0 view .LVU159
 450 005c 0020     		movs	r0, #0
 451 005e D862     		str	r0, [r3, #44]
 383:Drivers/STM32L4xx_HAL_Driver/Src/stm32l4xx_hal_dma.c ****   hdma->XferErrorCallback = NULL;
 452              		.loc 1 383 3 is_stmt 1 view .LVU160
 383:Drivers/STM32L4xx_HAL_Driver/Src/stm32l4xx_hal_dma.c ****   hdma->XferErrorCallback = NULL;
 453              		.loc 1 383 30 is_stmt 0 view .LVU161
 454 0060 1863     		str	r0, [r3, #48]
 384:Drivers/STM32L4xx_HAL_Driver/Src/stm32l4xx_hal_dma.c ****   hdma->XferAbortCallback = NULL;
 455              		.loc 1 384 3 is_stmt 1 view .LVU162
 384:Drivers/STM32L4xx_HAL_Driver/Src/stm32l4xx_hal_dma.c ****   hdma->XferAbortCallback = NULL;
 456              		.loc 1 384 27 is_stmt 0 view .LVU163
 457 0062 5863     		str	r0, [r3, #52]
 385:Drivers/STM32L4xx_HAL_Driver/Src/stm32l4xx_hal_dma.c **** 
 458              		.loc 1 385 3 is_stmt 1 view .LVU164
 385:Drivers/STM32L4xx_HAL_Driver/Src/stm32l4xx_hal_dma.c **** 
 459              		.loc 1 385 27 is_stmt 0 view .LVU165
 460 0064 9863     		str	r0, [r3, #56]
 388:Drivers/STM32L4xx_HAL_Driver/Src/stm32l4xx_hal_dma.c **** 
 461              		.loc 1 388 3 is_stmt 1 view .LVU166
 388:Drivers/STM32L4xx_HAL_Driver/Src/stm32l4xx_hal_dma.c **** 
 462              		.loc 1 388 19 is_stmt 0 view .LVU167
ARM GAS  C:\Users\union\AppData\Local\Temp\ccZKxuJa.s 			page 31


 463 0066 D863     		str	r0, [r3, #60]
 391:Drivers/STM32L4xx_HAL_Driver/Src/stm32l4xx_hal_dma.c **** 
 464              		.loc 1 391 3 is_stmt 1 view .LVU168
 391:Drivers/STM32L4xx_HAL_Driver/Src/stm32l4xx_hal_dma.c **** 
 465              		.loc 1 391 15 is_stmt 0 view .LVU169
 466 0068 83F82500 		strb	r0, [r3, #37]
 394:Drivers/STM32L4xx_HAL_Driver/Src/stm32l4xx_hal_dma.c **** 
 467              		.loc 1 394 3 is_stmt 1 view .LVU170
 394:Drivers/STM32L4xx_HAL_Driver/Src/stm32l4xx_hal_dma.c **** 
 468              		.loc 1 394 3 view .LVU171
 469 006c 83F82400 		strb	r0, [r3, #36]
 396:Drivers/STM32L4xx_HAL_Driver/Src/stm32l4xx_hal_dma.c **** }
 470              		.loc 1 396 3 view .LVU172
 397:Drivers/STM32L4xx_HAL_Driver/Src/stm32l4xx_hal_dma.c **** 
 471              		.loc 1 397 1 is_stmt 0 view .LVU173
 472 0070 5DF8044B 		ldr	r4, [sp], #4
 473              	.LCFI8:
 474              		.cfi_remember_state
 475              		.cfi_restore 4
 476              		.cfi_def_cfa_offset 0
 477 0074 7047     		bx	lr
 478              	.LVL19:
 479              	.L22:
 480              	.LCFI9:
 481              		.cfi_restore_state
 320:Drivers/STM32L4xx_HAL_Driver/Src/stm32l4xx_hal_dma.c ****     hdma->DmaBaseAddress = DMA2;
 482              		.loc 1 320 5 is_stmt 1 view .LVU174
 320:Drivers/STM32L4xx_HAL_Driver/Src/stm32l4xx_hal_dma.c ****     hdma->DmaBaseAddress = DMA2;
 483              		.loc 1 320 53 is_stmt 0 view .LVU175
 484 0076 114A     		ldr	r2, .L32+20
 485 0078 0A44     		add	r2, r2, r1
 320:Drivers/STM32L4xx_HAL_Driver/Src/stm32l4xx_hal_dma.c ****     hdma->DmaBaseAddress = DMA2;
 486              		.loc 1 320 80 view .LVU176
 487 007a 0D48     		ldr	r0, .L32+8
 488              	.LVL20:
 320:Drivers/STM32L4xx_HAL_Driver/Src/stm32l4xx_hal_dma.c ****     hdma->DmaBaseAddress = DMA2;
 489              		.loc 1 320 80 view .LVU177
 490 007c A0FB0202 		umull	r0, r2, r0, r2
 491 0080 1209     		lsrs	r2, r2, #4
 320:Drivers/STM32L4xx_HAL_Driver/Src/stm32l4xx_hal_dma.c ****     hdma->DmaBaseAddress = DMA2;
 492              		.loc 1 320 135 view .LVU178
 493 0082 9200     		lsls	r2, r2, #2
 320:Drivers/STM32L4xx_HAL_Driver/Src/stm32l4xx_hal_dma.c ****     hdma->DmaBaseAddress = DMA2;
 494              		.loc 1 320 24 view .LVU179
 495 0084 5A64     		str	r2, [r3, #68]
 321:Drivers/STM32L4xx_HAL_Driver/Src/stm32l4xx_hal_dma.c ****   }
 496              		.loc 1 321 5 is_stmt 1 view .LVU180
 321:Drivers/STM32L4xx_HAL_Driver/Src/stm32l4xx_hal_dma.c ****   }
 497              		.loc 1 321 26 is_stmt 0 view .LVU181
 498 0086 0E4A     		ldr	r2, .L32+24
 499 0088 1A64     		str	r2, [r3, #64]
 500 008a D0E7     		b	.L23
 501              	.L31:
 336:Drivers/STM32L4xx_HAL_Driver/Src/stm32l4xx_hal_dma.c ****   }
 502              		.loc 1 336 5 is_stmt 1 view .LVU182
 336:Drivers/STM32L4xx_HAL_Driver/Src/stm32l4xx_hal_dma.c ****   }
 503              		.loc 1 336 23 is_stmt 0 view .LVU183
ARM GAS  C:\Users\union\AppData\Local\Temp\ccZKxuJa.s 			page 32


 504 008c 0D4C     		ldr	r4, .L32+28
 505 008e 2268     		ldr	r2, [r4]
 336:Drivers/STM32L4xx_HAL_Driver/Src/stm32l4xx_hal_dma.c ****   }
 506              		.loc 1 336 50 view .LVU184
 507 0090 596C     		ldr	r1, [r3, #68]
 336:Drivers/STM32L4xx_HAL_Driver/Src/stm32l4xx_hal_dma.c ****   }
 508              		.loc 1 336 65 view .LVU185
 509 0092 01F01C00 		and	r0, r1, #28
 336:Drivers/STM32L4xx_HAL_Driver/Src/stm32l4xx_hal_dma.c ****   }
 510              		.loc 1 336 42 view .LVU186
 511 0096 0F21     		movs	r1, #15
 512 0098 8140     		lsls	r1, r1, r0
 336:Drivers/STM32L4xx_HAL_Driver/Src/stm32l4xx_hal_dma.c ****   }
 513              		.loc 1 336 23 view .LVU187
 514 009a 22EA0102 		bic	r2, r2, r1
 515 009e 2260     		str	r2, [r4]
 516 00a0 DCE7     		b	.L25
 517              	.LVL21:
 518              	.L26:
 519              	.LCFI10:
 520              		.cfi_def_cfa_offset 0
 521              		.cfi_restore 4
 301:Drivers/STM32L4xx_HAL_Driver/Src/stm32l4xx_hal_dma.c ****   }
 522              		.loc 1 301 12 view .LVU188
 523 00a2 0120     		movs	r0, #1
 524              	.LVL22:
 397:Drivers/STM32L4xx_HAL_Driver/Src/stm32l4xx_hal_dma.c **** 
 525              		.loc 1 397 1 view .LVU189
 526 00a4 7047     		bx	lr
 527              	.L33:
 528 00a6 00BF     		.align	2
 529              	.L32:
 530 00a8 07040240 		.word	1073873927
 531 00ac F8FFFDBF 		.word	-1073872904
 532 00b0 CDCCCCCC 		.word	-858993459
 533 00b4 00000240 		.word	1073872896
 534 00b8 A8040240 		.word	1073874088
 535 00bc F8FBFDBF 		.word	-1073873928
 536 00c0 00040240 		.word	1073873920
 537 00c4 A8000240 		.word	1073873064
 538              		.cfi_endproc
 539              	.LFE133:
 541              		.section	.text.HAL_DMA_Start,"ax",%progbits
 542              		.align	1
 543              		.global	HAL_DMA_Start
 544              		.syntax unified
 545              		.thumb
 546              		.thumb_func
 547              		.fpu fpv4-sp-d16
 549              	HAL_DMA_Start:
 550              	.LVL23:
 551              	.LFB134:
 432:Drivers/STM32L4xx_HAL_Driver/Src/stm32l4xx_hal_dma.c ****   HAL_StatusTypeDef status = HAL_OK;
 552              		.loc 1 432 1 is_stmt 1 view -0
 553              		.cfi_startproc
 554              		@ args = 0, pretend = 0, frame = 0
 555              		@ frame_needed = 0, uses_anonymous_args = 0
ARM GAS  C:\Users\union\AppData\Local\Temp\ccZKxuJa.s 			page 33


 432:Drivers/STM32L4xx_HAL_Driver/Src/stm32l4xx_hal_dma.c ****   HAL_StatusTypeDef status = HAL_OK;
 556              		.loc 1 432 1 is_stmt 0 view .LVU191
 557 0000 70B5     		push	{r4, r5, r6, lr}
 558              	.LCFI11:
 559              		.cfi_def_cfa_offset 16
 560              		.cfi_offset 4, -16
 561              		.cfi_offset 5, -12
 562              		.cfi_offset 6, -8
 563              		.cfi_offset 14, -4
 433:Drivers/STM32L4xx_HAL_Driver/Src/stm32l4xx_hal_dma.c **** 
 564              		.loc 1 433 3 is_stmt 1 view .LVU192
 565              	.LVL24:
 436:Drivers/STM32L4xx_HAL_Driver/Src/stm32l4xx_hal_dma.c **** 
 566              		.loc 1 436 3 view .LVU193
 439:Drivers/STM32L4xx_HAL_Driver/Src/stm32l4xx_hal_dma.c **** 
 567              		.loc 1 439 3 view .LVU194
 439:Drivers/STM32L4xx_HAL_Driver/Src/stm32l4xx_hal_dma.c **** 
 568              		.loc 1 439 3 view .LVU195
 569 0002 90F82440 		ldrb	r4, [r0, #36]	@ zero_extendqisi2
 570 0006 012C     		cmp	r4, #1
 571 0008 21D0     		beq	.L37
 439:Drivers/STM32L4xx_HAL_Driver/Src/stm32l4xx_hal_dma.c **** 
 572              		.loc 1 439 3 discriminator 2 view .LVU196
 573 000a 0124     		movs	r4, #1
 574 000c 80F82440 		strb	r4, [r0, #36]
 441:Drivers/STM32L4xx_HAL_Driver/Src/stm32l4xx_hal_dma.c ****   {
 575              		.loc 1 441 3 discriminator 2 view .LVU197
 441:Drivers/STM32L4xx_HAL_Driver/Src/stm32l4xx_hal_dma.c ****   {
 576              		.loc 1 441 33 is_stmt 0 discriminator 2 view .LVU198
 577 0010 90F82540 		ldrb	r4, [r0, #37]	@ zero_extendqisi2
 578 0014 E4B2     		uxtb	r4, r4
 441:Drivers/STM32L4xx_HAL_Driver/Src/stm32l4xx_hal_dma.c ****   {
 579              		.loc 1 441 5 discriminator 2 view .LVU199
 580 0016 012C     		cmp	r4, #1
 581 0018 04D0     		beq	.L39
 459:Drivers/STM32L4xx_HAL_Driver/Src/stm32l4xx_hal_dma.c ****     status = HAL_BUSY;
 582              		.loc 1 459 5 is_stmt 1 view .LVU200
 459:Drivers/STM32L4xx_HAL_Driver/Src/stm32l4xx_hal_dma.c ****     status = HAL_BUSY;
 583              		.loc 1 459 5 view .LVU201
 584 001a 0023     		movs	r3, #0
 585              	.LVL25:
 459:Drivers/STM32L4xx_HAL_Driver/Src/stm32l4xx_hal_dma.c ****     status = HAL_BUSY;
 586              		.loc 1 459 5 is_stmt 0 view .LVU202
 587 001c 80F82430 		strb	r3, [r0, #36]
 460:Drivers/STM32L4xx_HAL_Driver/Src/stm32l4xx_hal_dma.c ****   }
 588              		.loc 1 460 5 is_stmt 1 view .LVU203
 589              	.LVL26:
 460:Drivers/STM32L4xx_HAL_Driver/Src/stm32l4xx_hal_dma.c ****   }
 590              		.loc 1 460 12 is_stmt 0 view .LVU204
 591 0020 0220     		movs	r0, #2
 592              	.LVL27:
 593              	.L35:
 463:Drivers/STM32L4xx_HAL_Driver/Src/stm32l4xx_hal_dma.c **** 
 594              		.loc 1 463 1 view .LVU205
 595 0022 70BD     		pop	{r4, r5, r6, pc}
 596              	.LVL28:
 597              	.L39:
ARM GAS  C:\Users\union\AppData\Local\Temp\ccZKxuJa.s 			page 34


 463:Drivers/STM32L4xx_HAL_Driver/Src/stm32l4xx_hal_dma.c **** 
 598              		.loc 1 463 1 view .LVU206
 599 0024 0546     		mov	r5, r0
 444:Drivers/STM32L4xx_HAL_Driver/Src/stm32l4xx_hal_dma.c ****     hdma->ErrorCode = HAL_DMA_ERROR_NONE;
 600              		.loc 1 444 5 is_stmt 1 view .LVU207
 444:Drivers/STM32L4xx_HAL_Driver/Src/stm32l4xx_hal_dma.c ****     hdma->ErrorCode = HAL_DMA_ERROR_NONE;
 601              		.loc 1 444 17 is_stmt 0 view .LVU208
 602 0026 0220     		movs	r0, #2
 603              	.LVL29:
 444:Drivers/STM32L4xx_HAL_Driver/Src/stm32l4xx_hal_dma.c ****     hdma->ErrorCode = HAL_DMA_ERROR_NONE;
 604              		.loc 1 444 17 view .LVU209
 605 0028 85F82500 		strb	r0, [r5, #37]
 445:Drivers/STM32L4xx_HAL_Driver/Src/stm32l4xx_hal_dma.c **** 
 606              		.loc 1 445 5 is_stmt 1 view .LVU210
 445:Drivers/STM32L4xx_HAL_Driver/Src/stm32l4xx_hal_dma.c **** 
 607              		.loc 1 445 21 is_stmt 0 view .LVU211
 608 002c 0024     		movs	r4, #0
 609 002e EC63     		str	r4, [r5, #60]
 448:Drivers/STM32L4xx_HAL_Driver/Src/stm32l4xx_hal_dma.c **** 
 610              		.loc 1 448 5 is_stmt 1 view .LVU212
 611 0030 2E68     		ldr	r6, [r5]
 612 0032 3068     		ldr	r0, [r6]
 613 0034 20F00100 		bic	r0, r0, #1
 614 0038 3060     		str	r0, [r6]
 451:Drivers/STM32L4xx_HAL_Driver/Src/stm32l4xx_hal_dma.c **** 
 615              		.loc 1 451 5 view .LVU213
 616 003a 2846     		mov	r0, r5
 617 003c FFF7FEFF 		bl	DMA_SetConfig
 618              	.LVL30:
 454:Drivers/STM32L4xx_HAL_Driver/Src/stm32l4xx_hal_dma.c ****   }
 619              		.loc 1 454 5 view .LVU214
 620 0040 2A68     		ldr	r2, [r5]
 621 0042 1368     		ldr	r3, [r2]
 622 0044 43F00103 		orr	r3, r3, #1
 623 0048 1360     		str	r3, [r2]
 433:Drivers/STM32L4xx_HAL_Driver/Src/stm32l4xx_hal_dma.c **** 
 624              		.loc 1 433 21 is_stmt 0 view .LVU215
 625 004a 2046     		mov	r0, r4
 626 004c E9E7     		b	.L35
 627              	.LVL31:
 628              	.L37:
 439:Drivers/STM32L4xx_HAL_Driver/Src/stm32l4xx_hal_dma.c **** 
 629              		.loc 1 439 3 view .LVU216
 630 004e 0220     		movs	r0, #2
 631              	.LVL32:
 439:Drivers/STM32L4xx_HAL_Driver/Src/stm32l4xx_hal_dma.c **** 
 632              		.loc 1 439 3 view .LVU217
 633 0050 E7E7     		b	.L35
 634              		.cfi_endproc
 635              	.LFE134:
 637              		.section	.text.HAL_DMA_Start_IT,"ax",%progbits
 638              		.align	1
 639              		.global	HAL_DMA_Start_IT
 640              		.syntax unified
 641              		.thumb
 642              		.thumb_func
 643              		.fpu fpv4-sp-d16
ARM GAS  C:\Users\union\AppData\Local\Temp\ccZKxuJa.s 			page 35


 645              	HAL_DMA_Start_IT:
 646              	.LVL33:
 647              	.LFB135:
 475:Drivers/STM32L4xx_HAL_Driver/Src/stm32l4xx_hal_dma.c ****   HAL_StatusTypeDef status = HAL_OK;
 648              		.loc 1 475 1 is_stmt 1 view -0
 649              		.cfi_startproc
 650              		@ args = 0, pretend = 0, frame = 0
 651              		@ frame_needed = 0, uses_anonymous_args = 0
 475:Drivers/STM32L4xx_HAL_Driver/Src/stm32l4xx_hal_dma.c ****   HAL_StatusTypeDef status = HAL_OK;
 652              		.loc 1 475 1 is_stmt 0 view .LVU219
 653 0000 38B5     		push	{r3, r4, r5, lr}
 654              	.LCFI12:
 655              		.cfi_def_cfa_offset 16
 656              		.cfi_offset 3, -16
 657              		.cfi_offset 4, -12
 658              		.cfi_offset 5, -8
 659              		.cfi_offset 14, -4
 476:Drivers/STM32L4xx_HAL_Driver/Src/stm32l4xx_hal_dma.c **** 
 660              		.loc 1 476 3 is_stmt 1 view .LVU220
 661              	.LVL34:
 479:Drivers/STM32L4xx_HAL_Driver/Src/stm32l4xx_hal_dma.c **** 
 662              		.loc 1 479 3 view .LVU221
 482:Drivers/STM32L4xx_HAL_Driver/Src/stm32l4xx_hal_dma.c **** 
 663              		.loc 1 482 3 view .LVU222
 482:Drivers/STM32L4xx_HAL_Driver/Src/stm32l4xx_hal_dma.c **** 
 664              		.loc 1 482 3 view .LVU223
 665 0002 90F82440 		ldrb	r4, [r0, #36]	@ zero_extendqisi2
 666 0006 012C     		cmp	r4, #1
 667 0008 33D0     		beq	.L45
 482:Drivers/STM32L4xx_HAL_Driver/Src/stm32l4xx_hal_dma.c **** 
 668              		.loc 1 482 3 discriminator 2 view .LVU224
 669 000a 0124     		movs	r4, #1
 670 000c 80F82440 		strb	r4, [r0, #36]
 484:Drivers/STM32L4xx_HAL_Driver/Src/stm32l4xx_hal_dma.c ****   {
 671              		.loc 1 484 3 discriminator 2 view .LVU225
 484:Drivers/STM32L4xx_HAL_Driver/Src/stm32l4xx_hal_dma.c ****   {
 672              		.loc 1 484 33 is_stmt 0 discriminator 2 view .LVU226
 673 0010 90F82540 		ldrb	r4, [r0, #37]	@ zero_extendqisi2
 674 0014 E4B2     		uxtb	r4, r4
 484:Drivers/STM32L4xx_HAL_Driver/Src/stm32l4xx_hal_dma.c ****   {
 675              		.loc 1 484 5 discriminator 2 view .LVU227
 676 0016 012C     		cmp	r4, #1
 677 0018 04D0     		beq	.L47
 533:Drivers/STM32L4xx_HAL_Driver/Src/stm32l4xx_hal_dma.c **** 
 678              		.loc 1 533 5 is_stmt 1 view .LVU228
 533:Drivers/STM32L4xx_HAL_Driver/Src/stm32l4xx_hal_dma.c **** 
 679              		.loc 1 533 5 view .LVU229
 680 001a 0023     		movs	r3, #0
 681              	.LVL35:
 533:Drivers/STM32L4xx_HAL_Driver/Src/stm32l4xx_hal_dma.c **** 
 682              		.loc 1 533 5 is_stmt 0 view .LVU230
 683 001c 80F82430 		strb	r3, [r0, #36]
 536:Drivers/STM32L4xx_HAL_Driver/Src/stm32l4xx_hal_dma.c ****   }
 684              		.loc 1 536 5 is_stmt 1 view .LVU231
 685              	.LVL36:
 536:Drivers/STM32L4xx_HAL_Driver/Src/stm32l4xx_hal_dma.c ****   }
 686              		.loc 1 536 12 is_stmt 0 view .LVU232
ARM GAS  C:\Users\union\AppData\Local\Temp\ccZKxuJa.s 			page 36


 687 0020 0220     		movs	r0, #2
 688              	.LVL37:
 689              	.L41:
 539:Drivers/STM32L4xx_HAL_Driver/Src/stm32l4xx_hal_dma.c **** 
 690              		.loc 1 539 1 view .LVU233
 691 0022 38BD     		pop	{r3, r4, r5, pc}
 692              	.LVL38:
 693              	.L47:
 539:Drivers/STM32L4xx_HAL_Driver/Src/stm32l4xx_hal_dma.c **** 
 694              		.loc 1 539 1 view .LVU234
 695 0024 0446     		mov	r4, r0
 487:Drivers/STM32L4xx_HAL_Driver/Src/stm32l4xx_hal_dma.c ****     hdma->ErrorCode = HAL_DMA_ERROR_NONE;
 696              		.loc 1 487 5 is_stmt 1 view .LVU235
 487:Drivers/STM32L4xx_HAL_Driver/Src/stm32l4xx_hal_dma.c ****     hdma->ErrorCode = HAL_DMA_ERROR_NONE;
 697              		.loc 1 487 17 is_stmt 0 view .LVU236
 698 0026 0220     		movs	r0, #2
 699              	.LVL39:
 487:Drivers/STM32L4xx_HAL_Driver/Src/stm32l4xx_hal_dma.c ****     hdma->ErrorCode = HAL_DMA_ERROR_NONE;
 700              		.loc 1 487 17 view .LVU237
 701 0028 84F82500 		strb	r0, [r4, #37]
 488:Drivers/STM32L4xx_HAL_Driver/Src/stm32l4xx_hal_dma.c **** 
 702              		.loc 1 488 5 is_stmt 1 view .LVU238
 488:Drivers/STM32L4xx_HAL_Driver/Src/stm32l4xx_hal_dma.c **** 
 703              		.loc 1 488 21 is_stmt 0 view .LVU239
 704 002c 0020     		movs	r0, #0
 705 002e E063     		str	r0, [r4, #60]
 491:Drivers/STM32L4xx_HAL_Driver/Src/stm32l4xx_hal_dma.c **** 
 706              		.loc 1 491 5 is_stmt 1 view .LVU240
 707 0030 2568     		ldr	r5, [r4]
 708 0032 2868     		ldr	r0, [r5]
 709 0034 20F00100 		bic	r0, r0, #1
 710 0038 2860     		str	r0, [r5]
 494:Drivers/STM32L4xx_HAL_Driver/Src/stm32l4xx_hal_dma.c **** 
 711              		.loc 1 494 5 view .LVU241
 712 003a 2046     		mov	r0, r4
 713 003c FFF7FEFF 		bl	DMA_SetConfig
 714              	.LVL40:
 498:Drivers/STM32L4xx_HAL_Driver/Src/stm32l4xx_hal_dma.c ****     {
 715              		.loc 1 498 5 view .LVU242
 498:Drivers/STM32L4xx_HAL_Driver/Src/stm32l4xx_hal_dma.c ****     {
 716              		.loc 1 498 20 is_stmt 0 view .LVU243
 717 0040 236B     		ldr	r3, [r4, #48]
 498:Drivers/STM32L4xx_HAL_Driver/Src/stm32l4xx_hal_dma.c ****     {
 718              		.loc 1 498 7 view .LVU244
 719 0042 5BB1     		cbz	r3, .L43
 501:Drivers/STM32L4xx_HAL_Driver/Src/stm32l4xx_hal_dma.c ****     }
 720              		.loc 1 501 7 is_stmt 1 view .LVU245
 721 0044 2268     		ldr	r2, [r4]
 722 0046 1368     		ldr	r3, [r2]
 723 0048 43F00E03 		orr	r3, r3, #14
 724 004c 1360     		str	r3, [r2]
 725              	.L44:
 528:Drivers/STM32L4xx_HAL_Driver/Src/stm32l4xx_hal_dma.c ****   }
 726              		.loc 1 528 5 view .LVU246
 727 004e 2268     		ldr	r2, [r4]
 728 0050 1368     		ldr	r3, [r2]
 729 0052 43F00103 		orr	r3, r3, #1
ARM GAS  C:\Users\union\AppData\Local\Temp\ccZKxuJa.s 			page 37


 730 0056 1360     		str	r3, [r2]
 476:Drivers/STM32L4xx_HAL_Driver/Src/stm32l4xx_hal_dma.c **** 
 731              		.loc 1 476 21 is_stmt 0 view .LVU247
 732 0058 0020     		movs	r0, #0
 733 005a E2E7     		b	.L41
 734              	.L43:
 505:Drivers/STM32L4xx_HAL_Driver/Src/stm32l4xx_hal_dma.c ****       __HAL_DMA_ENABLE_IT(hdma, (DMA_IT_TC | DMA_IT_TE));
 735              		.loc 1 505 7 is_stmt 1 view .LVU248
 736 005c 2268     		ldr	r2, [r4]
 737 005e 1368     		ldr	r3, [r2]
 738 0060 23F00403 		bic	r3, r3, #4
 739 0064 1360     		str	r3, [r2]
 506:Drivers/STM32L4xx_HAL_Driver/Src/stm32l4xx_hal_dma.c ****     }
 740              		.loc 1 506 7 view .LVU249
 741 0066 2268     		ldr	r2, [r4]
 742 0068 1368     		ldr	r3, [r2]
 743 006a 43F00A03 		orr	r3, r3, #10
 744 006e 1360     		str	r3, [r2]
 745 0070 EDE7     		b	.L44
 746              	.LVL41:
 747              	.L45:
 482:Drivers/STM32L4xx_HAL_Driver/Src/stm32l4xx_hal_dma.c **** 
 748              		.loc 1 482 3 is_stmt 0 view .LVU250
 749 0072 0220     		movs	r0, #2
 750              	.LVL42:
 482:Drivers/STM32L4xx_HAL_Driver/Src/stm32l4xx_hal_dma.c **** 
 751              		.loc 1 482 3 view .LVU251
 752 0074 D5E7     		b	.L41
 753              		.cfi_endproc
 754              	.LFE135:
 756              		.section	.text.HAL_DMA_Abort,"ax",%progbits
 757              		.align	1
 758              		.global	HAL_DMA_Abort
 759              		.syntax unified
 760              		.thumb
 761              		.thumb_func
 762              		.fpu fpv4-sp-d16
 764              	HAL_DMA_Abort:
 765              	.LVL43:
 766              	.LFB136:
 548:Drivers/STM32L4xx_HAL_Driver/Src/stm32l4xx_hal_dma.c ****   HAL_StatusTypeDef status = HAL_OK;
 767              		.loc 1 548 1 is_stmt 1 view -0
 768              		.cfi_startproc
 769              		@ args = 0, pretend = 0, frame = 0
 770              		@ frame_needed = 0, uses_anonymous_args = 0
 771              		@ link register save eliminated.
 549:Drivers/STM32L4xx_HAL_Driver/Src/stm32l4xx_hal_dma.c **** 
 772              		.loc 1 549 3 view .LVU253
 552:Drivers/STM32L4xx_HAL_Driver/Src/stm32l4xx_hal_dma.c ****   {
 773              		.loc 1 552 3 view .LVU254
 552:Drivers/STM32L4xx_HAL_Driver/Src/stm32l4xx_hal_dma.c ****   {
 774              		.loc 1 552 10 is_stmt 0 view .LVU255
 775 0000 90F82530 		ldrb	r3, [r0, #37]	@ zero_extendqisi2
 776 0004 DBB2     		uxtb	r3, r3
 552:Drivers/STM32L4xx_HAL_Driver/Src/stm32l4xx_hal_dma.c ****   {
 777              		.loc 1 552 5 view .LVU256
 778 0006 022B     		cmp	r3, #2
ARM GAS  C:\Users\union\AppData\Local\Temp\ccZKxuJa.s 			page 38


 779 0008 06D0     		beq	.L49
 554:Drivers/STM32L4xx_HAL_Driver/Src/stm32l4xx_hal_dma.c **** 
 780              		.loc 1 554 5 is_stmt 1 view .LVU257
 554:Drivers/STM32L4xx_HAL_Driver/Src/stm32l4xx_hal_dma.c **** 
 781              		.loc 1 554 21 is_stmt 0 view .LVU258
 782 000a 0423     		movs	r3, #4
 783 000c C363     		str	r3, [r0, #60]
 557:Drivers/STM32L4xx_HAL_Driver/Src/stm32l4xx_hal_dma.c **** 
 784              		.loc 1 557 5 is_stmt 1 view .LVU259
 557:Drivers/STM32L4xx_HAL_Driver/Src/stm32l4xx_hal_dma.c **** 
 785              		.loc 1 557 5 view .LVU260
 786 000e 0023     		movs	r3, #0
 787 0010 80F82430 		strb	r3, [r0, #36]
 559:Drivers/STM32L4xx_HAL_Driver/Src/stm32l4xx_hal_dma.c ****   }
 788              		.loc 1 559 5 view .LVU261
 559:Drivers/STM32L4xx_HAL_Driver/Src/stm32l4xx_hal_dma.c ****   }
 789              		.loc 1 559 12 is_stmt 0 view .LVU262
 790 0014 0120     		movs	r0, #1
 791              	.LVL44:
 559:Drivers/STM32L4xx_HAL_Driver/Src/stm32l4xx_hal_dma.c ****   }
 792              		.loc 1 559 12 view .LVU263
 793 0016 7047     		bx	lr
 794              	.LVL45:
 795              	.L49:
 564:Drivers/STM32L4xx_HAL_Driver/Src/stm32l4xx_hal_dma.c **** 
 796              		.loc 1 564 5 is_stmt 1 view .LVU264
 797 0018 0268     		ldr	r2, [r0]
 798 001a 1368     		ldr	r3, [r2]
 799 001c 23F00E03 		bic	r3, r3, #14
 800 0020 1360     		str	r3, [r2]
 572:Drivers/STM32L4xx_HAL_Driver/Src/stm32l4xx_hal_dma.c **** 
 801              		.loc 1 572 5 view .LVU265
 802 0022 0268     		ldr	r2, [r0]
 803 0024 1368     		ldr	r3, [r2]
 804 0026 23F00103 		bic	r3, r3, #1
 805 002a 1360     		str	r3, [r2]
 575:Drivers/STM32L4xx_HAL_Driver/Src/stm32l4xx_hal_dma.c **** 
 806              		.loc 1 575 5 view .LVU266
 575:Drivers/STM32L4xx_HAL_Driver/Src/stm32l4xx_hal_dma.c **** 
 807              		.loc 1 575 56 is_stmt 0 view .LVU267
 808 002c 436C     		ldr	r3, [r0, #68]
 575:Drivers/STM32L4xx_HAL_Driver/Src/stm32l4xx_hal_dma.c **** 
 809              		.loc 1 575 71 view .LVU268
 810 002e 03F01C03 		and	r3, r3, #28
 575:Drivers/STM32L4xx_HAL_Driver/Src/stm32l4xx_hal_dma.c **** 
 811              		.loc 1 575 9 view .LVU269
 812 0032 016C     		ldr	r1, [r0, #64]
 575:Drivers/STM32L4xx_HAL_Driver/Src/stm32l4xx_hal_dma.c **** 
 813              		.loc 1 575 48 view .LVU270
 814 0034 0122     		movs	r2, #1
 815 0036 02FA03F3 		lsl	r3, r2, r3
 575:Drivers/STM32L4xx_HAL_Driver/Src/stm32l4xx_hal_dma.c **** 
 816              		.loc 1 575 32 view .LVU271
 817 003a 4B60     		str	r3, [r1, #4]
 594:Drivers/STM32L4xx_HAL_Driver/Src/stm32l4xx_hal_dma.c **** 
 818              		.loc 1 594 5 is_stmt 1 view .LVU272
 594:Drivers/STM32L4xx_HAL_Driver/Src/stm32l4xx_hal_dma.c **** 
ARM GAS  C:\Users\union\AppData\Local\Temp\ccZKxuJa.s 			page 39


 819              		.loc 1 594 17 is_stmt 0 view .LVU273
 820 003c 80F82520 		strb	r2, [r0, #37]
 597:Drivers/STM32L4xx_HAL_Driver/Src/stm32l4xx_hal_dma.c **** 
 821              		.loc 1 597 5 is_stmt 1 view .LVU274
 597:Drivers/STM32L4xx_HAL_Driver/Src/stm32l4xx_hal_dma.c **** 
 822              		.loc 1 597 5 view .LVU275
 823 0040 0023     		movs	r3, #0
 824 0042 80F82430 		strb	r3, [r0, #36]
 599:Drivers/STM32L4xx_HAL_Driver/Src/stm32l4xx_hal_dma.c ****   }
 825              		.loc 1 599 5 view .LVU276
 599:Drivers/STM32L4xx_HAL_Driver/Src/stm32l4xx_hal_dma.c ****   }
 826              		.loc 1 599 12 is_stmt 0 view .LVU277
 827 0046 1846     		mov	r0, r3
 828              	.LVL46:
 601:Drivers/STM32L4xx_HAL_Driver/Src/stm32l4xx_hal_dma.c **** 
 829              		.loc 1 601 1 view .LVU278
 830 0048 7047     		bx	lr
 831              		.cfi_endproc
 832              	.LFE136:
 834              		.section	.text.HAL_DMA_Abort_IT,"ax",%progbits
 835              		.align	1
 836              		.global	HAL_DMA_Abort_IT
 837              		.syntax unified
 838              		.thumb
 839              		.thumb_func
 840              		.fpu fpv4-sp-d16
 842              	HAL_DMA_Abort_IT:
 843              	.LVL47:
 844              	.LFB137:
 610:Drivers/STM32L4xx_HAL_Driver/Src/stm32l4xx_hal_dma.c ****   HAL_StatusTypeDef status = HAL_OK;
 845              		.loc 1 610 1 is_stmt 1 view -0
 846              		.cfi_startproc
 847              		@ args = 0, pretend = 0, frame = 0
 848              		@ frame_needed = 0, uses_anonymous_args = 0
 610:Drivers/STM32L4xx_HAL_Driver/Src/stm32l4xx_hal_dma.c ****   HAL_StatusTypeDef status = HAL_OK;
 849              		.loc 1 610 1 is_stmt 0 view .LVU280
 850 0000 08B5     		push	{r3, lr}
 851              	.LCFI13:
 852              		.cfi_def_cfa_offset 8
 853              		.cfi_offset 3, -8
 854              		.cfi_offset 14, -4
 611:Drivers/STM32L4xx_HAL_Driver/Src/stm32l4xx_hal_dma.c **** 
 855              		.loc 1 611 3 is_stmt 1 view .LVU281
 856              	.LVL48:
 613:Drivers/STM32L4xx_HAL_Driver/Src/stm32l4xx_hal_dma.c ****   {
 857              		.loc 1 613 3 view .LVU282
 613:Drivers/STM32L4xx_HAL_Driver/Src/stm32l4xx_hal_dma.c ****   {
 858              		.loc 1 613 32 is_stmt 0 view .LVU283
 859 0002 90F82530 		ldrb	r3, [r0, #37]	@ zero_extendqisi2
 860 0006 DBB2     		uxtb	r3, r3
 613:Drivers/STM32L4xx_HAL_Driver/Src/stm32l4xx_hal_dma.c ****   {
 861              		.loc 1 613 5 view .LVU284
 862 0008 022B     		cmp	r3, #2
 863 000a 03D0     		beq	.L52
 616:Drivers/STM32L4xx_HAL_Driver/Src/stm32l4xx_hal_dma.c **** 
 864              		.loc 1 616 5 is_stmt 1 view .LVU285
 616:Drivers/STM32L4xx_HAL_Driver/Src/stm32l4xx_hal_dma.c **** 
ARM GAS  C:\Users\union\AppData\Local\Temp\ccZKxuJa.s 			page 40


 865              		.loc 1 616 21 is_stmt 0 view .LVU286
 866 000c 0423     		movs	r3, #4
 867 000e C363     		str	r3, [r0, #60]
 618:Drivers/STM32L4xx_HAL_Driver/Src/stm32l4xx_hal_dma.c ****   }
 868              		.loc 1 618 5 is_stmt 1 view .LVU287
 869              	.LVL49:
 618:Drivers/STM32L4xx_HAL_Driver/Src/stm32l4xx_hal_dma.c ****   }
 870              		.loc 1 618 12 is_stmt 0 view .LVU288
 871 0010 0120     		movs	r0, #1
 872              	.LVL50:
 873              	.L53:
 665:Drivers/STM32L4xx_HAL_Driver/Src/stm32l4xx_hal_dma.c **** }
 874              		.loc 1 665 3 is_stmt 1 view .LVU289
 666:Drivers/STM32L4xx_HAL_Driver/Src/stm32l4xx_hal_dma.c **** 
 875              		.loc 1 666 1 is_stmt 0 view .LVU290
 876 0012 08BD     		pop	{r3, pc}
 877              	.LVL51:
 878              	.L52:
 623:Drivers/STM32L4xx_HAL_Driver/Src/stm32l4xx_hal_dma.c **** 
 879              		.loc 1 623 5 is_stmt 1 view .LVU291
 880 0014 0268     		ldr	r2, [r0]
 881 0016 1368     		ldr	r3, [r2]
 882 0018 23F00E03 		bic	r3, r3, #14
 883 001c 1360     		str	r3, [r2]
 626:Drivers/STM32L4xx_HAL_Driver/Src/stm32l4xx_hal_dma.c **** 
 884              		.loc 1 626 5 view .LVU292
 885 001e 0268     		ldr	r2, [r0]
 886 0020 1368     		ldr	r3, [r2]
 887 0022 23F00103 		bic	r3, r3, #1
 888 0026 1360     		str	r3, [r2]
 650:Drivers/STM32L4xx_HAL_Driver/Src/stm32l4xx_hal_dma.c **** #endif /* DMAMUX1 */
 889              		.loc 1 650 5 view .LVU293
 650:Drivers/STM32L4xx_HAL_Driver/Src/stm32l4xx_hal_dma.c **** #endif /* DMAMUX1 */
 890              		.loc 1 650 56 is_stmt 0 view .LVU294
 891 0028 436C     		ldr	r3, [r0, #68]
 650:Drivers/STM32L4xx_HAL_Driver/Src/stm32l4xx_hal_dma.c **** #endif /* DMAMUX1 */
 892              		.loc 1 650 71 view .LVU295
 893 002a 03F01C03 		and	r3, r3, #28
 650:Drivers/STM32L4xx_HAL_Driver/Src/stm32l4xx_hal_dma.c **** #endif /* DMAMUX1 */
 894              		.loc 1 650 9 view .LVU296
 895 002e 016C     		ldr	r1, [r0, #64]
 650:Drivers/STM32L4xx_HAL_Driver/Src/stm32l4xx_hal_dma.c **** #endif /* DMAMUX1 */
 896              		.loc 1 650 48 view .LVU297
 897 0030 0122     		movs	r2, #1
 898 0032 02FA03F3 		lsl	r3, r2, r3
 650:Drivers/STM32L4xx_HAL_Driver/Src/stm32l4xx_hal_dma.c **** #endif /* DMAMUX1 */
 899              		.loc 1 650 32 view .LVU298
 900 0036 4B60     		str	r3, [r1, #4]
 654:Drivers/STM32L4xx_HAL_Driver/Src/stm32l4xx_hal_dma.c **** 
 901              		.loc 1 654 5 is_stmt 1 view .LVU299
 654:Drivers/STM32L4xx_HAL_Driver/Src/stm32l4xx_hal_dma.c **** 
 902              		.loc 1 654 17 is_stmt 0 view .LVU300
 903 0038 80F82520 		strb	r2, [r0, #37]
 657:Drivers/STM32L4xx_HAL_Driver/Src/stm32l4xx_hal_dma.c **** 
 904              		.loc 1 657 5 is_stmt 1 view .LVU301
 657:Drivers/STM32L4xx_HAL_Driver/Src/stm32l4xx_hal_dma.c **** 
 905              		.loc 1 657 5 view .LVU302
ARM GAS  C:\Users\union\AppData\Local\Temp\ccZKxuJa.s 			page 41


 906 003c 0023     		movs	r3, #0
 907 003e 80F82430 		strb	r3, [r0, #36]
 660:Drivers/STM32L4xx_HAL_Driver/Src/stm32l4xx_hal_dma.c ****     {
 908              		.loc 1 660 5 view .LVU303
 660:Drivers/STM32L4xx_HAL_Driver/Src/stm32l4xx_hal_dma.c ****     {
 909              		.loc 1 660 12 is_stmt 0 view .LVU304
 910 0042 836B     		ldr	r3, [r0, #56]
 660:Drivers/STM32L4xx_HAL_Driver/Src/stm32l4xx_hal_dma.c ****     {
 911              		.loc 1 660 7 view .LVU305
 912 0044 13B1     		cbz	r3, .L54
 662:Drivers/STM32L4xx_HAL_Driver/Src/stm32l4xx_hal_dma.c ****     }
 913              		.loc 1 662 7 is_stmt 1 view .LVU306
 914 0046 9847     		blx	r3
 915              	.LVL52:
 611:Drivers/STM32L4xx_HAL_Driver/Src/stm32l4xx_hal_dma.c **** 
 916              		.loc 1 611 21 is_stmt 0 view .LVU307
 917 0048 0020     		movs	r0, #0
 918 004a E2E7     		b	.L53
 919              	.LVL53:
 920              	.L54:
 611:Drivers/STM32L4xx_HAL_Driver/Src/stm32l4xx_hal_dma.c **** 
 921              		.loc 1 611 21 view .LVU308
 922 004c 0020     		movs	r0, #0
 923              	.LVL54:
 611:Drivers/STM32L4xx_HAL_Driver/Src/stm32l4xx_hal_dma.c **** 
 924              		.loc 1 611 21 view .LVU309
 925 004e E0E7     		b	.L53
 926              		.cfi_endproc
 927              	.LFE137:
 929              		.section	.text.HAL_DMA_PollForTransfer,"ax",%progbits
 930              		.align	1
 931              		.global	HAL_DMA_PollForTransfer
 932              		.syntax unified
 933              		.thumb
 934              		.thumb_func
 935              		.fpu fpv4-sp-d16
 937              	HAL_DMA_PollForTransfer:
 938              	.LVL55:
 939              	.LFB138:
 677:Drivers/STM32L4xx_HAL_Driver/Src/stm32l4xx_hal_dma.c ****   uint32_t temp;
 940              		.loc 1 677 1 is_stmt 1 view -0
 941              		.cfi_startproc
 942              		@ args = 0, pretend = 0, frame = 0
 943              		@ frame_needed = 0, uses_anonymous_args = 0
 677:Drivers/STM32L4xx_HAL_Driver/Src/stm32l4xx_hal_dma.c ****   uint32_t temp;
 944              		.loc 1 677 1 is_stmt 0 view .LVU311
 945 0000 2DE9F843 		push	{r3, r4, r5, r6, r7, r8, r9, lr}
 946              	.LCFI14:
 947              		.cfi_def_cfa_offset 32
 948              		.cfi_offset 3, -32
 949              		.cfi_offset 4, -28
 950              		.cfi_offset 5, -24
 951              		.cfi_offset 6, -20
 952              		.cfi_offset 7, -16
 953              		.cfi_offset 8, -12
 954              		.cfi_offset 9, -8
 955              		.cfi_offset 14, -4
ARM GAS  C:\Users\union\AppData\Local\Temp\ccZKxuJa.s 			page 42


 678:Drivers/STM32L4xx_HAL_Driver/Src/stm32l4xx_hal_dma.c ****   uint32_t tickstart;
 956              		.loc 1 678 3 is_stmt 1 view .LVU312
 679:Drivers/STM32L4xx_HAL_Driver/Src/stm32l4xx_hal_dma.c **** 
 957              		.loc 1 679 3 view .LVU313
 681:Drivers/STM32L4xx_HAL_Driver/Src/stm32l4xx_hal_dma.c ****   {
 958              		.loc 1 681 3 view .LVU314
 681:Drivers/STM32L4xx_HAL_Driver/Src/stm32l4xx_hal_dma.c ****   {
 959              		.loc 1 681 32 is_stmt 0 view .LVU315
 960 0004 90F82530 		ldrb	r3, [r0, #37]	@ zero_extendqisi2
 961 0008 DBB2     		uxtb	r3, r3
 681:Drivers/STM32L4xx_HAL_Driver/Src/stm32l4xx_hal_dma.c ****   {
 962              		.loc 1 681 5 view .LVU316
 963 000a 022B     		cmp	r3, #2
 964 000c 07D0     		beq	.L57
 684:Drivers/STM32L4xx_HAL_Driver/Src/stm32l4xx_hal_dma.c ****     __HAL_UNLOCK(hdma);
 965              		.loc 1 684 5 is_stmt 1 view .LVU317
 684:Drivers/STM32L4xx_HAL_Driver/Src/stm32l4xx_hal_dma.c ****     __HAL_UNLOCK(hdma);
 966              		.loc 1 684 21 is_stmt 0 view .LVU318
 967 000e 0423     		movs	r3, #4
 968 0010 C363     		str	r3, [r0, #60]
 685:Drivers/STM32L4xx_HAL_Driver/Src/stm32l4xx_hal_dma.c ****     return HAL_ERROR;
 969              		.loc 1 685 5 is_stmt 1 view .LVU319
 685:Drivers/STM32L4xx_HAL_Driver/Src/stm32l4xx_hal_dma.c ****     return HAL_ERROR;
 970              		.loc 1 685 5 view .LVU320
 971 0012 0023     		movs	r3, #0
 972 0014 80F82430 		strb	r3, [r0, #36]
 686:Drivers/STM32L4xx_HAL_Driver/Src/stm32l4xx_hal_dma.c ****   }
 973              		.loc 1 686 5 view .LVU321
 686:Drivers/STM32L4xx_HAL_Driver/Src/stm32l4xx_hal_dma.c ****   }
 974              		.loc 1 686 12 is_stmt 0 view .LVU322
 975 0018 0120     		movs	r0, #1
 976              	.LVL56:
 977              	.L58:
 798:Drivers/STM32L4xx_HAL_Driver/Src/stm32l4xx_hal_dma.c **** 
 978              		.loc 1 798 1 view .LVU323
 979 001a BDE8F883 		pop	{r3, r4, r5, r6, r7, r8, r9, pc}
 980              	.LVL57:
 981              	.L57:
 690:Drivers/STM32L4xx_HAL_Driver/Src/stm32l4xx_hal_dma.c ****   {
 982              		.loc 1 690 3 is_stmt 1 view .LVU324
 690:Drivers/STM32L4xx_HAL_Driver/Src/stm32l4xx_hal_dma.c ****   {
 983              		.loc 1 690 12 is_stmt 0 view .LVU325
 984 001e 0368     		ldr	r3, [r0]
 690:Drivers/STM32L4xx_HAL_Driver/Src/stm32l4xx_hal_dma.c ****   {
 985              		.loc 1 690 22 view .LVU326
 986 0020 1B68     		ldr	r3, [r3]
 690:Drivers/STM32L4xx_HAL_Driver/Src/stm32l4xx_hal_dma.c ****   {
 987              		.loc 1 690 6 view .LVU327
 988 0022 13F0200F 		tst	r3, #32
 989 0026 2CD1     		bne	.L69
 697:Drivers/STM32L4xx_HAL_Driver/Src/stm32l4xx_hal_dma.c ****   {
 990              		.loc 1 697 3 is_stmt 1 view .LVU328
 697:Drivers/STM32L4xx_HAL_Driver/Src/stm32l4xx_hal_dma.c ****   {
 991              		.loc 1 697 6 is_stmt 0 view .LVU329
 992 0028 81BB     		cbnz	r1, .L60
 700:Drivers/STM32L4xx_HAL_Driver/Src/stm32l4xx_hal_dma.c ****   }
 993              		.loc 1 700 5 is_stmt 1 view .LVU330
ARM GAS  C:\Users\union\AppData\Local\Temp\ccZKxuJa.s 			page 43


 700:Drivers/STM32L4xx_HAL_Driver/Src/stm32l4xx_hal_dma.c ****   }
 994              		.loc 1 700 33 is_stmt 0 view .LVU331
 995 002a 476C     		ldr	r7, [r0, #68]
 700:Drivers/STM32L4xx_HAL_Driver/Src/stm32l4xx_hal_dma.c ****   }
 996              		.loc 1 700 48 view .LVU332
 997 002c 07F01C07 		and	r7, r7, #28
 700:Drivers/STM32L4xx_HAL_Driver/Src/stm32l4xx_hal_dma.c ****   }
 998              		.loc 1 700 10 view .LVU333
 999 0030 0223     		movs	r3, #2
 1000 0032 03FA07F7 		lsl	r7, r3, r7
 1001              	.LVL58:
 1002              	.L61:
 700:Drivers/STM32L4xx_HAL_Driver/Src/stm32l4xx_hal_dma.c ****   }
 1003              		.loc 1 700 10 view .LVU334
 1004 0036 1646     		mov	r6, r2
 1005 0038 8846     		mov	r8, r1
 1006 003a 0546     		mov	r5, r0
 709:Drivers/STM32L4xx_HAL_Driver/Src/stm32l4xx_hal_dma.c **** 
 1007              		.loc 1 709 3 is_stmt 1 view .LVU335
 709:Drivers/STM32L4xx_HAL_Driver/Src/stm32l4xx_hal_dma.c **** 
 1008              		.loc 1 709 15 is_stmt 0 view .LVU336
 1009 003c FFF7FEFF 		bl	HAL_GetTick
 1010              	.LVL59:
 709:Drivers/STM32L4xx_HAL_Driver/Src/stm32l4xx_hal_dma.c **** 
 1011              		.loc 1 709 15 view .LVU337
 1012 0040 8146     		mov	r9, r0
 1013              	.LVL60:
 711:Drivers/STM32L4xx_HAL_Driver/Src/stm32l4xx_hal_dma.c ****   {
 1014              		.loc 1 711 3 is_stmt 1 view .LVU338
 1015              	.L64:
 711:Drivers/STM32L4xx_HAL_Driver/Src/stm32l4xx_hal_dma.c ****   {
 1016              		.loc 1 711 14 is_stmt 0 view .LVU339
 1017 0042 2A6C     		ldr	r2, [r5, #64]
 711:Drivers/STM32L4xx_HAL_Driver/Src/stm32l4xx_hal_dma.c ****   {
 1018              		.loc 1 711 30 view .LVU340
 1019 0044 1368     		ldr	r3, [r2]
 711:Drivers/STM32L4xx_HAL_Driver/Src/stm32l4xx_hal_dma.c ****   {
 1020              		.loc 1 711 8 view .LVU341
 1021 0046 3B42     		tst	r3, r7
 1022 0048 32D1     		bne	.L70
 713:Drivers/STM32L4xx_HAL_Driver/Src/stm32l4xx_hal_dma.c ****     {
 1023              		.loc 1 713 5 is_stmt 1 view .LVU342
 713:Drivers/STM32L4xx_HAL_Driver/Src/stm32l4xx_hal_dma.c ****     {
 1024              		.loc 1 713 29 is_stmt 0 view .LVU343
 1025 004a 1168     		ldr	r1, [r2]
 713:Drivers/STM32L4xx_HAL_Driver/Src/stm32l4xx_hal_dma.c ****     {
 1026              		.loc 1 713 59 view .LVU344
 1027 004c 6B6C     		ldr	r3, [r5, #68]
 713:Drivers/STM32L4xx_HAL_Driver/Src/stm32l4xx_hal_dma.c ****     {
 1028              		.loc 1 713 73 view .LVU345
 1029 004e 03F01C03 		and	r3, r3, #28
 713:Drivers/STM32L4xx_HAL_Driver/Src/stm32l4xx_hal_dma.c ****     {
 1030              		.loc 1 713 51 view .LVU346
 1031 0052 0824     		movs	r4, #8
 1032 0054 9C40     		lsls	r4, r4, r3
 713:Drivers/STM32L4xx_HAL_Driver/Src/stm32l4xx_hal_dma.c ****     {
 1033              		.loc 1 713 7 view .LVU347
ARM GAS  C:\Users\union\AppData\Local\Temp\ccZKxuJa.s 			page 44


 1034 0056 2142     		tst	r1, r4
 1035 0058 1FD1     		bne	.L71
 732:Drivers/STM32L4xx_HAL_Driver/Src/stm32l4xx_hal_dma.c ****     {
 1036              		.loc 1 732 5 is_stmt 1 view .LVU348
 732:Drivers/STM32L4xx_HAL_Driver/Src/stm32l4xx_hal_dma.c ****     {
 1037              		.loc 1 732 7 is_stmt 0 view .LVU349
 1038 005a B6F1FF3F 		cmp	r6, #-1
 1039 005e F0D0     		beq	.L64
 734:Drivers/STM32L4xx_HAL_Driver/Src/stm32l4xx_hal_dma.c ****       {
 1040              		.loc 1 734 7 is_stmt 1 view .LVU350
 734:Drivers/STM32L4xx_HAL_Driver/Src/stm32l4xx_hal_dma.c ****       {
 1041              		.loc 1 734 12 is_stmt 0 view .LVU351
 1042 0060 FFF7FEFF 		bl	HAL_GetTick
 1043              	.LVL61:
 734:Drivers/STM32L4xx_HAL_Driver/Src/stm32l4xx_hal_dma.c ****       {
 1044              		.loc 1 734 26 view .LVU352
 1045 0064 A0EB0900 		sub	r0, r0, r9
 734:Drivers/STM32L4xx_HAL_Driver/Src/stm32l4xx_hal_dma.c ****       {
 1046              		.loc 1 734 9 view .LVU353
 1047 0068 B042     		cmp	r0, r6
 1048 006a 01D8     		bhi	.L65
 734:Drivers/STM32L4xx_HAL_Driver/Src/stm32l4xx_hal_dma.c ****       {
 1049              		.loc 1 734 50 discriminator 1 view .LVU354
 1050 006c 002E     		cmp	r6, #0
 1051 006e E8D1     		bne	.L64
 1052              	.L65:
 737:Drivers/STM32L4xx_HAL_Driver/Src/stm32l4xx_hal_dma.c **** 
 1053              		.loc 1 737 9 is_stmt 1 view .LVU355
 737:Drivers/STM32L4xx_HAL_Driver/Src/stm32l4xx_hal_dma.c **** 
 1054              		.loc 1 737 25 is_stmt 0 view .LVU356
 1055 0070 2023     		movs	r3, #32
 1056 0072 EB63     		str	r3, [r5, #60]
 740:Drivers/STM32L4xx_HAL_Driver/Src/stm32l4xx_hal_dma.c **** 
 1057              		.loc 1 740 9 is_stmt 1 view .LVU357
 740:Drivers/STM32L4xx_HAL_Driver/Src/stm32l4xx_hal_dma.c **** 
 1058              		.loc 1 740 21 is_stmt 0 view .LVU358
 1059 0074 0120     		movs	r0, #1
 1060 0076 85F82500 		strb	r0, [r5, #37]
 743:Drivers/STM32L4xx_HAL_Driver/Src/stm32l4xx_hal_dma.c **** 
 1061              		.loc 1 743 9 is_stmt 1 view .LVU359
 743:Drivers/STM32L4xx_HAL_Driver/Src/stm32l4xx_hal_dma.c **** 
 1062              		.loc 1 743 9 view .LVU360
 1063 007a 0023     		movs	r3, #0
 1064 007c 85F82430 		strb	r3, [r5, #36]
 745:Drivers/STM32L4xx_HAL_Driver/Src/stm32l4xx_hal_dma.c ****       }
 1065              		.loc 1 745 9 view .LVU361
 745:Drivers/STM32L4xx_HAL_Driver/Src/stm32l4xx_hal_dma.c ****       }
 1066              		.loc 1 745 16 is_stmt 0 view .LVU362
 1067 0080 CBE7     		b	.L58
 1068              	.LVL62:
 1069              	.L69:
 692:Drivers/STM32L4xx_HAL_Driver/Src/stm32l4xx_hal_dma.c ****     return HAL_ERROR;
 1070              		.loc 1 692 5 is_stmt 1 view .LVU363
 692:Drivers/STM32L4xx_HAL_Driver/Src/stm32l4xx_hal_dma.c ****     return HAL_ERROR;
 1071              		.loc 1 692 21 is_stmt 0 view .LVU364
 1072 0082 4FF48073 		mov	r3, #256
 1073 0086 C363     		str	r3, [r0, #60]
ARM GAS  C:\Users\union\AppData\Local\Temp\ccZKxuJa.s 			page 45


 693:Drivers/STM32L4xx_HAL_Driver/Src/stm32l4xx_hal_dma.c ****   }
 1074              		.loc 1 693 5 is_stmt 1 view .LVU365
 693:Drivers/STM32L4xx_HAL_Driver/Src/stm32l4xx_hal_dma.c ****   }
 1075              		.loc 1 693 12 is_stmt 0 view .LVU366
 1076 0088 0120     		movs	r0, #1
 1077              	.LVL63:
 693:Drivers/STM32L4xx_HAL_Driver/Src/stm32l4xx_hal_dma.c ****   }
 1078              		.loc 1 693 12 view .LVU367
 1079 008a C6E7     		b	.L58
 1080              	.LVL64:
 1081              	.L60:
 705:Drivers/STM32L4xx_HAL_Driver/Src/stm32l4xx_hal_dma.c ****   }
 1082              		.loc 1 705 5 is_stmt 1 view .LVU368
 705:Drivers/STM32L4xx_HAL_Driver/Src/stm32l4xx_hal_dma.c ****   }
 1083              		.loc 1 705 33 is_stmt 0 view .LVU369
 1084 008c 476C     		ldr	r7, [r0, #68]
 705:Drivers/STM32L4xx_HAL_Driver/Src/stm32l4xx_hal_dma.c ****   }
 1085              		.loc 1 705 48 view .LVU370
 1086 008e 07F01C07 		and	r7, r7, #28
 705:Drivers/STM32L4xx_HAL_Driver/Src/stm32l4xx_hal_dma.c ****   }
 1087              		.loc 1 705 10 view .LVU371
 1088 0092 0423     		movs	r3, #4
 1089 0094 03FA07F7 		lsl	r7, r3, r7
 1090              	.LVL65:
 705:Drivers/STM32L4xx_HAL_Driver/Src/stm32l4xx_hal_dma.c ****   }
 1091              		.loc 1 705 10 view .LVU372
 1092 0098 CDE7     		b	.L61
 1093              	.LVL66:
 1094              	.L71:
 718:Drivers/STM32L4xx_HAL_Driver/Src/stm32l4xx_hal_dma.c **** 
 1095              		.loc 1 718 7 is_stmt 1 view .LVU373
 718:Drivers/STM32L4xx_HAL_Driver/Src/stm32l4xx_hal_dma.c **** 
 1096              		.loc 1 718 50 is_stmt 0 view .LVU374
 1097 009a 0120     		movs	r0, #1
 1098 009c 00FA03F3 		lsl	r3, r0, r3
 718:Drivers/STM32L4xx_HAL_Driver/Src/stm32l4xx_hal_dma.c **** 
 1099              		.loc 1 718 34 view .LVU375
 1100 00a0 5360     		str	r3, [r2, #4]
 721:Drivers/STM32L4xx_HAL_Driver/Src/stm32l4xx_hal_dma.c **** 
 1101              		.loc 1 721 7 is_stmt 1 view .LVU376
 721:Drivers/STM32L4xx_HAL_Driver/Src/stm32l4xx_hal_dma.c **** 
 1102              		.loc 1 721 23 is_stmt 0 view .LVU377
 1103 00a2 E863     		str	r0, [r5, #60]
 724:Drivers/STM32L4xx_HAL_Driver/Src/stm32l4xx_hal_dma.c **** 
 1104              		.loc 1 724 7 is_stmt 1 view .LVU378
 724:Drivers/STM32L4xx_HAL_Driver/Src/stm32l4xx_hal_dma.c **** 
 1105              		.loc 1 724 18 is_stmt 0 view .LVU379
 1106 00a4 85F82500 		strb	r0, [r5, #37]
 727:Drivers/STM32L4xx_HAL_Driver/Src/stm32l4xx_hal_dma.c **** 
 1107              		.loc 1 727 7 is_stmt 1 view .LVU380
 727:Drivers/STM32L4xx_HAL_Driver/Src/stm32l4xx_hal_dma.c **** 
 1108              		.loc 1 727 7 view .LVU381
 1109 00a8 0023     		movs	r3, #0
 1110 00aa 85F82430 		strb	r3, [r5, #36]
 729:Drivers/STM32L4xx_HAL_Driver/Src/stm32l4xx_hal_dma.c ****     }
 1111              		.loc 1 729 7 view .LVU382
 729:Drivers/STM32L4xx_HAL_Driver/Src/stm32l4xx_hal_dma.c ****     }
ARM GAS  C:\Users\union\AppData\Local\Temp\ccZKxuJa.s 			page 46


 1112              		.loc 1 729 14 is_stmt 0 view .LVU383
 1113 00ae B4E7     		b	.L58
 1114              	.L70:
 779:Drivers/STM32L4xx_HAL_Driver/Src/stm32l4xx_hal_dma.c ****   {
 1115              		.loc 1 779 3 is_stmt 1 view .LVU384
 779:Drivers/STM32L4xx_HAL_Driver/Src/stm32l4xx_hal_dma.c ****   {
 1116              		.loc 1 779 5 is_stmt 0 view .LVU385
 1117 00b0 B8F1000F 		cmp	r8, #0
 1118 00b4 0CD1     		bne	.L67
 782:Drivers/STM32L4xx_HAL_Driver/Src/stm32l4xx_hal_dma.c **** 
 1119              		.loc 1 782 5 is_stmt 1 view .LVU386
 782:Drivers/STM32L4xx_HAL_Driver/Src/stm32l4xx_hal_dma.c **** 
 1120              		.loc 1 782 56 is_stmt 0 view .LVU387
 1121 00b6 6B6C     		ldr	r3, [r5, #68]
 782:Drivers/STM32L4xx_HAL_Driver/Src/stm32l4xx_hal_dma.c **** 
 1122              		.loc 1 782 70 view .LVU388
 1123 00b8 03F01C01 		and	r1, r3, #28
 782:Drivers/STM32L4xx_HAL_Driver/Src/stm32l4xx_hal_dma.c **** 
 1124              		.loc 1 782 48 view .LVU389
 1125 00bc 0223     		movs	r3, #2
 1126 00be 8B40     		lsls	r3, r3, r1
 782:Drivers/STM32L4xx_HAL_Driver/Src/stm32l4xx_hal_dma.c **** 
 1127              		.loc 1 782 32 view .LVU390
 1128 00c0 5360     		str	r3, [r2, #4]
 785:Drivers/STM32L4xx_HAL_Driver/Src/stm32l4xx_hal_dma.c **** 
 1129              		.loc 1 785 5 is_stmt 1 view .LVU391
 785:Drivers/STM32L4xx_HAL_Driver/Src/stm32l4xx_hal_dma.c **** 
 1130              		.loc 1 785 5 view .LVU392
 1131 00c2 0020     		movs	r0, #0
 1132 00c4 85F82400 		strb	r0, [r5, #36]
 789:Drivers/STM32L4xx_HAL_Driver/Src/stm32l4xx_hal_dma.c ****   }
 1133              		.loc 1 789 5 view .LVU393
 789:Drivers/STM32L4xx_HAL_Driver/Src/stm32l4xx_hal_dma.c ****   }
 1134              		.loc 1 789 17 is_stmt 0 view .LVU394
 1135 00c8 0123     		movs	r3, #1
 1136 00ca 85F82530 		strb	r3, [r5, #37]
 1137 00ce A4E7     		b	.L58
 1138              	.L67:
 794:Drivers/STM32L4xx_HAL_Driver/Src/stm32l4xx_hal_dma.c ****   }
 1139              		.loc 1 794 5 is_stmt 1 view .LVU395
 794:Drivers/STM32L4xx_HAL_Driver/Src/stm32l4xx_hal_dma.c ****   }
 1140              		.loc 1 794 56 is_stmt 0 view .LVU396
 1141 00d0 696C     		ldr	r1, [r5, #68]
 794:Drivers/STM32L4xx_HAL_Driver/Src/stm32l4xx_hal_dma.c ****   }
 1142              		.loc 1 794 71 view .LVU397
 1143 00d2 01F01C01 		and	r1, r1, #28
 794:Drivers/STM32L4xx_HAL_Driver/Src/stm32l4xx_hal_dma.c ****   }
 1144              		.loc 1 794 48 view .LVU398
 1145 00d6 0423     		movs	r3, #4
 1146 00d8 8B40     		lsls	r3, r3, r1
 794:Drivers/STM32L4xx_HAL_Driver/Src/stm32l4xx_hal_dma.c ****   }
 1147              		.loc 1 794 32 view .LVU399
 1148 00da 5360     		str	r3, [r2, #4]
 797:Drivers/STM32L4xx_HAL_Driver/Src/stm32l4xx_hal_dma.c **** }
 1149              		.loc 1 797 10 view .LVU400
 1150 00dc 0020     		movs	r0, #0
 1151 00de 9CE7     		b	.L58
ARM GAS  C:\Users\union\AppData\Local\Temp\ccZKxuJa.s 			page 47


 1152              		.cfi_endproc
 1153              	.LFE138:
 1155              		.section	.text.HAL_DMA_IRQHandler,"ax",%progbits
 1156              		.align	1
 1157              		.global	HAL_DMA_IRQHandler
 1158              		.syntax unified
 1159              		.thumb
 1160              		.thumb_func
 1161              		.fpu fpv4-sp-d16
 1163              	HAL_DMA_IRQHandler:
 1164              	.LVL67:
 1165              	.LFB139:
 807:Drivers/STM32L4xx_HAL_Driver/Src/stm32l4xx_hal_dma.c ****   uint32_t flag_it = hdma->DmaBaseAddress->ISR;
 1166              		.loc 1 807 1 is_stmt 1 view -0
 1167              		.cfi_startproc
 1168              		@ args = 0, pretend = 0, frame = 0
 1169              		@ frame_needed = 0, uses_anonymous_args = 0
 807:Drivers/STM32L4xx_HAL_Driver/Src/stm32l4xx_hal_dma.c ****   uint32_t flag_it = hdma->DmaBaseAddress->ISR;
 1170              		.loc 1 807 1 is_stmt 0 view .LVU402
 1171 0000 38B5     		push	{r3, r4, r5, lr}
 1172              	.LCFI15:
 1173              		.cfi_def_cfa_offset 16
 1174              		.cfi_offset 3, -16
 1175              		.cfi_offset 4, -12
 1176              		.cfi_offset 5, -8
 1177              		.cfi_offset 14, -4
 808:Drivers/STM32L4xx_HAL_Driver/Src/stm32l4xx_hal_dma.c ****   uint32_t source_it = hdma->Instance->CCR;
 1178              		.loc 1 808 3 is_stmt 1 view .LVU403
 808:Drivers/STM32L4xx_HAL_Driver/Src/stm32l4xx_hal_dma.c ****   uint32_t source_it = hdma->Instance->CCR;
 1179              		.loc 1 808 26 is_stmt 0 view .LVU404
 1180 0002 036C     		ldr	r3, [r0, #64]
 808:Drivers/STM32L4xx_HAL_Driver/Src/stm32l4xx_hal_dma.c ****   uint32_t source_it = hdma->Instance->CCR;
 1181              		.loc 1 808 12 view .LVU405
 1182 0004 1968     		ldr	r1, [r3]
 1183              	.LVL68:
 809:Drivers/STM32L4xx_HAL_Driver/Src/stm32l4xx_hal_dma.c **** 
 1184              		.loc 1 809 3 is_stmt 1 view .LVU406
 809:Drivers/STM32L4xx_HAL_Driver/Src/stm32l4xx_hal_dma.c **** 
 1185              		.loc 1 809 28 is_stmt 0 view .LVU407
 1186 0006 0468     		ldr	r4, [r0]
 809:Drivers/STM32L4xx_HAL_Driver/Src/stm32l4xx_hal_dma.c **** 
 1187              		.loc 1 809 12 view .LVU408
 1188 0008 2568     		ldr	r5, [r4]
 1189              	.LVL69:
 812:Drivers/STM32L4xx_HAL_Driver/Src/stm32l4xx_hal_dma.c ****   {
 1190              		.loc 1 812 3 is_stmt 1 view .LVU409
 812:Drivers/STM32L4xx_HAL_Driver/Src/stm32l4xx_hal_dma.c ****   {
 1191              		.loc 1 812 41 is_stmt 0 view .LVU410
 1192 000a 436C     		ldr	r3, [r0, #68]
 812:Drivers/STM32L4xx_HAL_Driver/Src/stm32l4xx_hal_dma.c ****   {
 1193              		.loc 1 812 56 view .LVU411
 1194 000c 03F01C03 		and	r3, r3, #28
 812:Drivers/STM32L4xx_HAL_Driver/Src/stm32l4xx_hal_dma.c ****   {
 1195              		.loc 1 812 33 view .LVU412
 1196 0010 0422     		movs	r2, #4
 1197 0012 9A40     		lsls	r2, r2, r3
 812:Drivers/STM32L4xx_HAL_Driver/Src/stm32l4xx_hal_dma.c ****   {
ARM GAS  C:\Users\union\AppData\Local\Temp\ccZKxuJa.s 			page 48


 1198              		.loc 1 812 6 view .LVU413
 1199 0014 0A42     		tst	r2, r1
 1200 0016 15D0     		beq	.L73
 812:Drivers/STM32L4xx_HAL_Driver/Src/stm32l4xx_hal_dma.c ****   {
 1201              		.loc 1 812 74 discriminator 1 view .LVU414
 1202 0018 15F0040F 		tst	r5, #4
 1203 001c 12D0     		beq	.L73
 815:Drivers/STM32L4xx_HAL_Driver/Src/stm32l4xx_hal_dma.c ****       {
 1204              		.loc 1 815 7 is_stmt 1 view .LVU415
 815:Drivers/STM32L4xx_HAL_Driver/Src/stm32l4xx_hal_dma.c ****       {
 1205              		.loc 1 815 25 is_stmt 0 view .LVU416
 1206 001e 2368     		ldr	r3, [r4]
 815:Drivers/STM32L4xx_HAL_Driver/Src/stm32l4xx_hal_dma.c ****       {
 1207              		.loc 1 815 9 view .LVU417
 1208 0020 13F0200F 		tst	r3, #32
 1209 0024 03D1     		bne	.L74
 818:Drivers/STM32L4xx_HAL_Driver/Src/stm32l4xx_hal_dma.c ****       }
 1210              		.loc 1 818 9 is_stmt 1 view .LVU418
 1211 0026 2368     		ldr	r3, [r4]
 1212 0028 23F00403 		bic	r3, r3, #4
 1213 002c 2360     		str	r3, [r4]
 1214              	.L74:
 821:Drivers/STM32L4xx_HAL_Driver/Src/stm32l4xx_hal_dma.c **** 
 1215              		.loc 1 821 7 view .LVU419
 821:Drivers/STM32L4xx_HAL_Driver/Src/stm32l4xx_hal_dma.c **** 
 1216              		.loc 1 821 58 is_stmt 0 view .LVU420
 1217 002e 436C     		ldr	r3, [r0, #68]
 821:Drivers/STM32L4xx_HAL_Driver/Src/stm32l4xx_hal_dma.c **** 
 1218              		.loc 1 821 73 view .LVU421
 1219 0030 03F01C02 		and	r2, r3, #28
 821:Drivers/STM32L4xx_HAL_Driver/Src/stm32l4xx_hal_dma.c **** 
 1220              		.loc 1 821 11 view .LVU422
 1221 0034 016C     		ldr	r1, [r0, #64]
 1222              	.LVL70:
 821:Drivers/STM32L4xx_HAL_Driver/Src/stm32l4xx_hal_dma.c **** 
 1223              		.loc 1 821 50 view .LVU423
 1224 0036 0423     		movs	r3, #4
 1225 0038 9340     		lsls	r3, r3, r2
 821:Drivers/STM32L4xx_HAL_Driver/Src/stm32l4xx_hal_dma.c **** 
 1226              		.loc 1 821 34 view .LVU424
 1227 003a 4B60     		str	r3, [r1, #4]
 826:Drivers/STM32L4xx_HAL_Driver/Src/stm32l4xx_hal_dma.c ****       {
 1228              		.loc 1 826 7 is_stmt 1 view .LVU425
 826:Drivers/STM32L4xx_HAL_Driver/Src/stm32l4xx_hal_dma.c ****       {
 1229              		.loc 1 826 14 is_stmt 0 view .LVU426
 1230 003c 036B     		ldr	r3, [r0, #48]
 826:Drivers/STM32L4xx_HAL_Driver/Src/stm32l4xx_hal_dma.c ****       {
 1231              		.loc 1 826 9 view .LVU427
 1232 003e 03B1     		cbz	r3, .L72
 829:Drivers/STM32L4xx_HAL_Driver/Src/stm32l4xx_hal_dma.c ****       }
 1233              		.loc 1 829 9 is_stmt 1 view .LVU428
 1234 0040 9847     		blx	r3
 1235              	.LVL71:
 1236              	.L72:
 890:Drivers/STM32L4xx_HAL_Driver/Src/stm32l4xx_hal_dma.c **** 
 1237              		.loc 1 890 1 is_stmt 0 view .LVU429
 1238 0042 38BD     		pop	{r3, r4, r5, pc}
ARM GAS  C:\Users\union\AppData\Local\Temp\ccZKxuJa.s 			page 49


 1239              	.LVL72:
 1240              	.L73:
 834:Drivers/STM32L4xx_HAL_Driver/Src/stm32l4xx_hal_dma.c ****   {
 1241              		.loc 1 834 8 is_stmt 1 view .LVU430
 834:Drivers/STM32L4xx_HAL_Driver/Src/stm32l4xx_hal_dma.c ****   {
 1242              		.loc 1 834 38 is_stmt 0 view .LVU431
 1243 0044 0222     		movs	r2, #2
 1244 0046 9A40     		lsls	r2, r2, r3
 834:Drivers/STM32L4xx_HAL_Driver/Src/stm32l4xx_hal_dma.c ****   {
 1245              		.loc 1 834 11 view .LVU432
 1246 0048 0A42     		tst	r2, r1
 1247 004a 1CD0     		beq	.L76
 834:Drivers/STM32L4xx_HAL_Driver/Src/stm32l4xx_hal_dma.c ****   {
 1248              		.loc 1 834 79 discriminator 1 view .LVU433
 1249 004c 15F0020F 		tst	r5, #2
 1250 0050 19D0     		beq	.L76
 836:Drivers/STM32L4xx_HAL_Driver/Src/stm32l4xx_hal_dma.c ****     {
 1251              		.loc 1 836 5 is_stmt 1 view .LVU434
 836:Drivers/STM32L4xx_HAL_Driver/Src/stm32l4xx_hal_dma.c ****     {
 1252              		.loc 1 836 23 is_stmt 0 view .LVU435
 1253 0052 2368     		ldr	r3, [r4]
 836:Drivers/STM32L4xx_HAL_Driver/Src/stm32l4xx_hal_dma.c ****     {
 1254              		.loc 1 836 7 view .LVU436
 1255 0054 13F0200F 		tst	r3, #32
 1256 0058 06D1     		bne	.L77
 841:Drivers/STM32L4xx_HAL_Driver/Src/stm32l4xx_hal_dma.c **** 
 1257              		.loc 1 841 7 is_stmt 1 view .LVU437
 1258 005a 2368     		ldr	r3, [r4]
 1259 005c 23F00A03 		bic	r3, r3, #10
 1260 0060 2360     		str	r3, [r4]
 844:Drivers/STM32L4xx_HAL_Driver/Src/stm32l4xx_hal_dma.c ****     }
 1261              		.loc 1 844 7 view .LVU438
 844:Drivers/STM32L4xx_HAL_Driver/Src/stm32l4xx_hal_dma.c ****     }
 1262              		.loc 1 844 19 is_stmt 0 view .LVU439
 1263 0062 0123     		movs	r3, #1
 1264 0064 80F82530 		strb	r3, [r0, #37]
 1265              	.L77:
 847:Drivers/STM32L4xx_HAL_Driver/Src/stm32l4xx_hal_dma.c **** 
 1266              		.loc 1 847 5 is_stmt 1 view .LVU440
 847:Drivers/STM32L4xx_HAL_Driver/Src/stm32l4xx_hal_dma.c **** 
 1267              		.loc 1 847 57 is_stmt 0 view .LVU441
 1268 0068 436C     		ldr	r3, [r0, #68]
 847:Drivers/STM32L4xx_HAL_Driver/Src/stm32l4xx_hal_dma.c **** 
 1269              		.loc 1 847 72 view .LVU442
 1270 006a 03F01C02 		and	r2, r3, #28
 847:Drivers/STM32L4xx_HAL_Driver/Src/stm32l4xx_hal_dma.c **** 
 1271              		.loc 1 847 9 view .LVU443
 1272 006e 016C     		ldr	r1, [r0, #64]
 1273              	.LVL73:
 847:Drivers/STM32L4xx_HAL_Driver/Src/stm32l4xx_hal_dma.c **** 
 1274              		.loc 1 847 49 view .LVU444
 1275 0070 0223     		movs	r3, #2
 1276 0072 9340     		lsls	r3, r3, r2
 847:Drivers/STM32L4xx_HAL_Driver/Src/stm32l4xx_hal_dma.c **** 
 1277              		.loc 1 847 32 view .LVU445
 1278 0074 4B60     		str	r3, [r1, #4]
 850:Drivers/STM32L4xx_HAL_Driver/Src/stm32l4xx_hal_dma.c **** 
ARM GAS  C:\Users\union\AppData\Local\Temp\ccZKxuJa.s 			page 50


 1279              		.loc 1 850 5 is_stmt 1 view .LVU446
 850:Drivers/STM32L4xx_HAL_Driver/Src/stm32l4xx_hal_dma.c **** 
 1280              		.loc 1 850 5 view .LVU447
 1281 0076 0023     		movs	r3, #0
 1282 0078 80F82430 		strb	r3, [r0, #36]
 852:Drivers/STM32L4xx_HAL_Driver/Src/stm32l4xx_hal_dma.c ****     {
 1283              		.loc 1 852 5 view .LVU448
 852:Drivers/STM32L4xx_HAL_Driver/Src/stm32l4xx_hal_dma.c ****     {
 1284              		.loc 1 852 12 is_stmt 0 view .LVU449
 1285 007c C36A     		ldr	r3, [r0, #44]
 852:Drivers/STM32L4xx_HAL_Driver/Src/stm32l4xx_hal_dma.c ****     {
 1286              		.loc 1 852 7 view .LVU450
 1287 007e 002B     		cmp	r3, #0
 1288 0080 DFD0     		beq	.L72
 855:Drivers/STM32L4xx_HAL_Driver/Src/stm32l4xx_hal_dma.c ****     }
 1289              		.loc 1 855 7 is_stmt 1 view .LVU451
 1290 0082 9847     		blx	r3
 1291              	.LVL74:
 855:Drivers/STM32L4xx_HAL_Driver/Src/stm32l4xx_hal_dma.c ****     }
 1292              		.loc 1 855 7 is_stmt 0 view .LVU452
 1293 0084 DDE7     		b	.L72
 1294              	.LVL75:
 1295              	.L76:
 860:Drivers/STM32L4xx_HAL_Driver/Src/stm32l4xx_hal_dma.c ****   {
 1296              		.loc 1 860 8 is_stmt 1 view .LVU453
 860:Drivers/STM32L4xx_HAL_Driver/Src/stm32l4xx_hal_dma.c ****   {
 1297              		.loc 1 860 38 is_stmt 0 view .LVU454
 1298 0086 0822     		movs	r2, #8
 1299 0088 02FA03F3 		lsl	r3, r2, r3
 860:Drivers/STM32L4xx_HAL_Driver/Src/stm32l4xx_hal_dma.c ****   {
 1300              		.loc 1 860 11 view .LVU455
 1301 008c 0B42     		tst	r3, r1
 1302 008e D8D0     		beq	.L72
 860:Drivers/STM32L4xx_HAL_Driver/Src/stm32l4xx_hal_dma.c ****   {
 1303              		.loc 1 860 79 discriminator 1 view .LVU456
 1304 0090 15F0080F 		tst	r5, #8
 1305 0094 D5D0     		beq	.L72
 865:Drivers/STM32L4xx_HAL_Driver/Src/stm32l4xx_hal_dma.c **** 
 1306              		.loc 1 865 5 is_stmt 1 view .LVU457
 1307 0096 2368     		ldr	r3, [r4]
 1308 0098 23F00E03 		bic	r3, r3, #14
 1309 009c 2360     		str	r3, [r4]
 868:Drivers/STM32L4xx_HAL_Driver/Src/stm32l4xx_hal_dma.c **** 
 1310              		.loc 1 868 5 view .LVU458
 868:Drivers/STM32L4xx_HAL_Driver/Src/stm32l4xx_hal_dma.c **** 
 1311              		.loc 1 868 56 is_stmt 0 view .LVU459
 1312 009e 436C     		ldr	r3, [r0, #68]
 868:Drivers/STM32L4xx_HAL_Driver/Src/stm32l4xx_hal_dma.c **** 
 1313              		.loc 1 868 71 view .LVU460
 1314 00a0 03F01C03 		and	r3, r3, #28
 868:Drivers/STM32L4xx_HAL_Driver/Src/stm32l4xx_hal_dma.c **** 
 1315              		.loc 1 868 9 view .LVU461
 1316 00a4 016C     		ldr	r1, [r0, #64]
 1317              	.LVL76:
 868:Drivers/STM32L4xx_HAL_Driver/Src/stm32l4xx_hal_dma.c **** 
 1318              		.loc 1 868 48 view .LVU462
 1319 00a6 0122     		movs	r2, #1
ARM GAS  C:\Users\union\AppData\Local\Temp\ccZKxuJa.s 			page 51


 1320 00a8 02FA03F3 		lsl	r3, r2, r3
 868:Drivers/STM32L4xx_HAL_Driver/Src/stm32l4xx_hal_dma.c **** 
 1321              		.loc 1 868 32 view .LVU463
 1322 00ac 4B60     		str	r3, [r1, #4]
 871:Drivers/STM32L4xx_HAL_Driver/Src/stm32l4xx_hal_dma.c **** 
 1323              		.loc 1 871 5 is_stmt 1 view .LVU464
 871:Drivers/STM32L4xx_HAL_Driver/Src/stm32l4xx_hal_dma.c **** 
 1324              		.loc 1 871 21 is_stmt 0 view .LVU465
 1325 00ae C263     		str	r2, [r0, #60]
 874:Drivers/STM32L4xx_HAL_Driver/Src/stm32l4xx_hal_dma.c **** 
 1326              		.loc 1 874 5 is_stmt 1 view .LVU466
 874:Drivers/STM32L4xx_HAL_Driver/Src/stm32l4xx_hal_dma.c **** 
 1327              		.loc 1 874 17 is_stmt 0 view .LVU467
 1328 00b0 80F82520 		strb	r2, [r0, #37]
 877:Drivers/STM32L4xx_HAL_Driver/Src/stm32l4xx_hal_dma.c **** 
 1329              		.loc 1 877 5 is_stmt 1 view .LVU468
 877:Drivers/STM32L4xx_HAL_Driver/Src/stm32l4xx_hal_dma.c **** 
 1330              		.loc 1 877 5 view .LVU469
 1331 00b4 0023     		movs	r3, #0
 1332 00b6 80F82430 		strb	r3, [r0, #36]
 879:Drivers/STM32L4xx_HAL_Driver/Src/stm32l4xx_hal_dma.c ****     {
 1333              		.loc 1 879 5 view .LVU470
 879:Drivers/STM32L4xx_HAL_Driver/Src/stm32l4xx_hal_dma.c ****     {
 1334              		.loc 1 879 13 is_stmt 0 view .LVU471
 1335 00ba 436B     		ldr	r3, [r0, #52]
 879:Drivers/STM32L4xx_HAL_Driver/Src/stm32l4xx_hal_dma.c ****     {
 1336              		.loc 1 879 8 view .LVU472
 1337 00bc 002B     		cmp	r3, #0
 1338 00be C0D0     		beq	.L72
 882:Drivers/STM32L4xx_HAL_Driver/Src/stm32l4xx_hal_dma.c ****     }
 1339              		.loc 1 882 7 is_stmt 1 view .LVU473
 1340 00c0 9847     		blx	r3
 1341              	.LVL77:
 888:Drivers/STM32L4xx_HAL_Driver/Src/stm32l4xx_hal_dma.c ****   return;
 1342              		.loc 1 888 3 view .LVU474
 889:Drivers/STM32L4xx_HAL_Driver/Src/stm32l4xx_hal_dma.c **** }
 1343              		.loc 1 889 3 view .LVU475
 1344 00c2 BEE7     		b	.L72
 1345              		.cfi_endproc
 1346              	.LFE139:
 1348              		.section	.text.HAL_DMA_RegisterCallback,"ax",%progbits
 1349              		.align	1
 1350              		.global	HAL_DMA_RegisterCallback
 1351              		.syntax unified
 1352              		.thumb
 1353              		.thumb_func
 1354              		.fpu fpv4-sp-d16
 1356              	HAL_DMA_RegisterCallback:
 1357              	.LVL78:
 1358              	.LFB140:
 903:Drivers/STM32L4xx_HAL_Driver/Src/stm32l4xx_hal_dma.c ****   HAL_StatusTypeDef status = HAL_OK;
 1359              		.loc 1 903 1 view -0
 1360              		.cfi_startproc
 1361              		@ args = 0, pretend = 0, frame = 0
 1362              		@ frame_needed = 0, uses_anonymous_args = 0
 1363              		@ link register save eliminated.
 903:Drivers/STM32L4xx_HAL_Driver/Src/stm32l4xx_hal_dma.c ****   HAL_StatusTypeDef status = HAL_OK;
ARM GAS  C:\Users\union\AppData\Local\Temp\ccZKxuJa.s 			page 52


 1364              		.loc 1 903 1 is_stmt 0 view .LVU477
 1365 0000 0346     		mov	r3, r0
 904:Drivers/STM32L4xx_HAL_Driver/Src/stm32l4xx_hal_dma.c **** 
 1366              		.loc 1 904 3 is_stmt 1 view .LVU478
 1367              	.LVL79:
 907:Drivers/STM32L4xx_HAL_Driver/Src/stm32l4xx_hal_dma.c **** 
 1368              		.loc 1 907 3 view .LVU479
 907:Drivers/STM32L4xx_HAL_Driver/Src/stm32l4xx_hal_dma.c **** 
 1369              		.loc 1 907 3 view .LVU480
 1370 0002 90F82400 		ldrb	r0, [r0, #36]	@ zero_extendqisi2
 1371              	.LVL80:
 907:Drivers/STM32L4xx_HAL_Driver/Src/stm32l4xx_hal_dma.c **** 
 1372              		.loc 1 907 3 is_stmt 0 view .LVU481
 1373 0006 0128     		cmp	r0, #1
 1374 0008 20D0     		beq	.L87
 907:Drivers/STM32L4xx_HAL_Driver/Src/stm32l4xx_hal_dma.c **** 
 1375              		.loc 1 907 3 is_stmt 1 discriminator 2 view .LVU482
 1376 000a 0120     		movs	r0, #1
 1377 000c 83F82400 		strb	r0, [r3, #36]
 909:Drivers/STM32L4xx_HAL_Driver/Src/stm32l4xx_hal_dma.c ****   {
 1378              		.loc 1 909 3 discriminator 2 view .LVU483
 909:Drivers/STM32L4xx_HAL_Driver/Src/stm32l4xx_hal_dma.c ****   {
 1379              		.loc 1 909 33 is_stmt 0 discriminator 2 view .LVU484
 1380 0010 93F82500 		ldrb	r0, [r3, #37]	@ zero_extendqisi2
 1381 0014 C0B2     		uxtb	r0, r0
 909:Drivers/STM32L4xx_HAL_Driver/Src/stm32l4xx_hal_dma.c ****   {
 1382              		.loc 1 909 5 discriminator 2 view .LVU485
 1383 0016 0128     		cmp	r0, #1
 1384 0018 04D0     		beq	.L90
 936:Drivers/STM32L4xx_HAL_Driver/Src/stm32l4xx_hal_dma.c ****   }
 1385              		.loc 1 936 12 view .LVU486
 1386 001a 0120     		movs	r0, #1
 1387              	.L81:
 1388              	.LVL81:
 940:Drivers/STM32L4xx_HAL_Driver/Src/stm32l4xx_hal_dma.c **** 
 1389              		.loc 1 940 3 is_stmt 1 view .LVU487
 940:Drivers/STM32L4xx_HAL_Driver/Src/stm32l4xx_hal_dma.c **** 
 1390              		.loc 1 940 3 view .LVU488
 1391 001c 0022     		movs	r2, #0
 1392              	.LVL82:
 940:Drivers/STM32L4xx_HAL_Driver/Src/stm32l4xx_hal_dma.c **** 
 1393              		.loc 1 940 3 is_stmt 0 view .LVU489
 1394 001e 83F82420 		strb	r2, [r3, #36]
 942:Drivers/STM32L4xx_HAL_Driver/Src/stm32l4xx_hal_dma.c **** }
 1395              		.loc 1 942 3 is_stmt 1 view .LVU490
 942:Drivers/STM32L4xx_HAL_Driver/Src/stm32l4xx_hal_dma.c **** }
 1396              		.loc 1 942 10 is_stmt 0 view .LVU491
 1397 0022 7047     		bx	lr
 1398              	.LVL83:
 1399              	.L90:
 911:Drivers/STM32L4xx_HAL_Driver/Src/stm32l4xx_hal_dma.c ****     {
 1400              		.loc 1 911 5 is_stmt 1 view .LVU492
 1401 0024 0329     		cmp	r1, #3
 1402 0026 0FD8     		bhi	.L89
 1403 0028 DFE801F0 		tbb	[pc, r1]
 1404              	.L83:
 1405 002c 02       		.byte	(.L86-.L83)/2
ARM GAS  C:\Users\union\AppData\Local\Temp\ccZKxuJa.s 			page 53


 1406 002d 05       		.byte	(.L85-.L83)/2
 1407 002e 08       		.byte	(.L84-.L83)/2
 1408 002f 0B       		.byte	(.L82-.L83)/2
 1409              		.p2align 1
 1410              	.L86:
 914:Drivers/STM32L4xx_HAL_Driver/Src/stm32l4xx_hal_dma.c ****            break;
 1411              		.loc 1 914 12 view .LVU493
 914:Drivers/STM32L4xx_HAL_Driver/Src/stm32l4xx_hal_dma.c ****            break;
 1412              		.loc 1 914 35 is_stmt 0 view .LVU494
 1413 0030 DA62     		str	r2, [r3, #44]
 915:Drivers/STM32L4xx_HAL_Driver/Src/stm32l4xx_hal_dma.c **** 
