ARM GAS  C:\Users\union\AppData\Local\Temp\ccQYQv24.s 			page 1


   1              		.cpu cortex-m4
   2              		.eabi_attribute 27, 1
   3              		.eabi_attribute 28, 1
   4              		.eabi_attribute 20, 1
   5              		.eabi_attribute 21, 1
   6              		.eabi_attribute 23, 3
   7              		.eabi_attribute 24, 1
   8              		.eabi_attribute 25, 1
   9              		.eabi_attribute 26, 1
  10              		.eabi_attribute 30, 1
  11              		.eabi_attribute 34, 1
  12              		.eabi_attribute 18, 4
  13              		.file	"stm32l4xx_hal_timebase_tim.c"
  14              		.text
  15              	.Ltext0:
  16              		.cfi_sections	.debug_frame
  17              		.section	.text.HAL_InitTick,"ax",%progbits
  18              		.align	1
  19              		.global	HAL_InitTick
  20              		.arch armv7e-m
  21              		.syntax unified
  22              		.thumb
  23              		.thumb_func
  24              		.fpu fpv4-sp-d16
  26              	HAL_InitTick:
  27              	.LVL0:
  28              	.LFB132:
  29              		.file 1 "Core/Src/stm32l4xx_hal_timebase_tim.c"
   1:Core/Src/stm32l4xx_hal_timebase_tim.c **** /* USER CODE BEGIN Header */
   2:Core/Src/stm32l4xx_hal_timebase_tim.c **** /**
   3:Core/Src/stm32l4xx_hal_timebase_tim.c ****   ******************************************************************************
   4:Core/Src/stm32l4xx_hal_timebase_tim.c ****   * @file    stm32l4xx_hal_timebase_TIM.c
   5:Core/Src/stm32l4xx_hal_timebase_tim.c ****   * @brief   HAL time base based on the hardware TIM.
   6:Core/Src/stm32l4xx_hal_timebase_tim.c ****   ******************************************************************************
   7:Core/Src/stm32l4xx_hal_timebase_tim.c ****   * @attention
   8:Core/Src/stm32l4xx_hal_timebase_tim.c ****   *
   9:Core/Src/stm32l4xx_hal_timebase_tim.c ****   * <h2><center>&copy; Copyright (c) 2021 STMicroelectronics.
  10:Core/Src/stm32l4xx_hal_timebase_tim.c ****   * All rights reserved.</center></h2>
  11:Core/Src/stm32l4xx_hal_timebase_tim.c ****   *
  12:Core/Src/stm32l4xx_hal_timebase_tim.c ****   * This software component is licensed by ST under Ultimate Liberty license
  13:Core/Src/stm32l4xx_hal_timebase_tim.c ****   * SLA0044, the "License"; You may not use this file except in compliance with
  14:Core/Src/stm32l4xx_hal_timebase_tim.c ****   * the License. You may obtain a copy of the License at:
  15:Core/Src/stm32l4xx_hal_timebase_tim.c ****   *                             www.st.com/SLA0044
  16:Core/Src/stm32l4xx_hal_timebase_tim.c ****   *
  17:Core/Src/stm32l4xx_hal_timebase_tim.c ****   ******************************************************************************
  18:Core/Src/stm32l4xx_hal_timebase_tim.c ****   */
  19:Core/Src/stm32l4xx_hal_timebase_tim.c **** /* USER CODE END Header */
  20:Core/Src/stm32l4xx_hal_timebase_tim.c **** 
  21:Core/Src/stm32l4xx_hal_timebase_tim.c **** /* Includes ------------------------------------------------------------------*/
  22:Core/Src/stm32l4xx_hal_timebase_tim.c **** #include "stm32l4xx_hal.h"
  23:Core/Src/stm32l4xx_hal_timebase_tim.c **** #include "stm32l4xx_hal_tim.h"
  24:Core/Src/stm32l4xx_hal_timebase_tim.c **** 
  25:Core/Src/stm32l4xx_hal_timebase_tim.c **** /* Private typedef -----------------------------------------------------------*/
  26:Core/Src/stm32l4xx_hal_timebase_tim.c **** /* Private define ------------------------------------------------------------*/
  27:Core/Src/stm32l4xx_hal_timebase_tim.c **** /* Private macro -------------------------------------------------------------*/
  28:Core/Src/stm32l4xx_hal_timebase_tim.c **** /* Private variables ---------------------------------------------------------*/
  29:Core/Src/stm32l4xx_hal_timebase_tim.c **** TIM_HandleTypeDef        htim7;
ARM GAS  C:\Users\union\AppData\Local\Temp\ccQYQv24.s 			page 2


  30:Core/Src/stm32l4xx_hal_timebase_tim.c **** /* Private function prototypes -----------------------------------------------*/
  31:Core/Src/stm32l4xx_hal_timebase_tim.c **** /* Private functions ---------------------------------------------------------*/
  32:Core/Src/stm32l4xx_hal_timebase_tim.c **** 
  33:Core/Src/stm32l4xx_hal_timebase_tim.c **** /**
  34:Core/Src/stm32l4xx_hal_timebase_tim.c ****   * @brief  This function configures the TIM7 as a time base source.
  35:Core/Src/stm32l4xx_hal_timebase_tim.c ****   *         The time source is configured  to have 1ms time base with a dedicated
  36:Core/Src/stm32l4xx_hal_timebase_tim.c ****   *         Tick interrupt priority.
  37:Core/Src/stm32l4xx_hal_timebase_tim.c ****   * @note   This function is called  automatically at the beginning of program after
  38:Core/Src/stm32l4xx_hal_timebase_tim.c ****   *         reset by HAL_Init() or at any time when clock is configured, by HAL_RCC_ClockConfig().
  39:Core/Src/stm32l4xx_hal_timebase_tim.c ****   * @param  TickPriority: Tick interrupt priority.
  40:Core/Src/stm32l4xx_hal_timebase_tim.c ****   * @retval HAL status
  41:Core/Src/stm32l4xx_hal_timebase_tim.c ****   */
  42:Core/Src/stm32l4xx_hal_timebase_tim.c **** HAL_StatusTypeDef HAL_InitTick(uint32_t TickPriority)
  43:Core/Src/stm32l4xx_hal_timebase_tim.c **** {
  30              		.loc 1 43 1 view -0
  31              		.cfi_startproc
  32              		@ args = 0, pretend = 0, frame = 32
  33              		@ frame_needed = 0, uses_anonymous_args = 0
  34              		.loc 1 43 1 is_stmt 0 view .LVU1
  35 0000 00B5     		push	{lr}
  36              	.LCFI0:
  37              		.cfi_def_cfa_offset 4
  38              		.cfi_offset 14, -4
  39 0002 89B0     		sub	sp, sp, #36
  40              	.LCFI1:
  41              		.cfi_def_cfa_offset 40
  44:Core/Src/stm32l4xx_hal_timebase_tim.c ****   RCC_ClkInitTypeDef    clkconfig;
  42              		.loc 1 44 3 is_stmt 1 view .LVU2
  45:Core/Src/stm32l4xx_hal_timebase_tim.c ****   uint32_t              uwTimclock = 0;
  43              		.loc 1 45 3 view .LVU3
  44              	.LVL1:
  46:Core/Src/stm32l4xx_hal_timebase_tim.c ****   uint32_t              uwPrescalerValue = 0;
  45              		.loc 1 46 3 view .LVU4
  47:Core/Src/stm32l4xx_hal_timebase_tim.c ****   uint32_t              pFLatency;
  46              		.loc 1 47 3 view .LVU5
  48:Core/Src/stm32l4xx_hal_timebase_tim.c ****   /*Configure the TIM7 IRQ priority */
  49:Core/Src/stm32l4xx_hal_timebase_tim.c ****   HAL_NVIC_SetPriority(TIM7_IRQn, TickPriority ,0);
  47              		.loc 1 49 3 view .LVU6
  48 0004 0022     		movs	r2, #0
  49 0006 0146     		mov	r1, r0
  50 0008 3720     		movs	r0, #55
  51              	.LVL2:
  52              		.loc 1 49 3 is_stmt 0 view .LVU7
  53 000a FFF7FEFF 		bl	HAL_NVIC_SetPriority
  54              	.LVL3:
  50:Core/Src/stm32l4xx_hal_timebase_tim.c **** 
  51:Core/Src/stm32l4xx_hal_timebase_tim.c ****   /* Enable the TIM7 global Interrupt */
  52:Core/Src/stm32l4xx_hal_timebase_tim.c ****   HAL_NVIC_EnableIRQ(TIM7_IRQn);
  55              		.loc 1 52 3 is_stmt 1 view .LVU8
  56 000e 3720     		movs	r0, #55
  57 0010 FFF7FEFF 		bl	HAL_NVIC_EnableIRQ
  58              	.LVL4:
  53:Core/Src/stm32l4xx_hal_timebase_tim.c **** 
  54:Core/Src/stm32l4xx_hal_timebase_tim.c ****   /* Enable TIM7 clock */
  55:Core/Src/stm32l4xx_hal_timebase_tim.c ****   __HAL_RCC_TIM7_CLK_ENABLE();
  59              		.loc 1 55 3 view .LVU9
  60              	.LBB2:
ARM GAS  C:\Users\union\AppData\Local\Temp\ccQYQv24.s 			page 3


  61              		.loc 1 55 3 view .LVU10
  62              		.loc 1 55 3 view .LVU11
  63 0014 144B     		ldr	r3, .L6
  64 0016 9A6D     		ldr	r2, [r3, #88]
  65 0018 42F02002 		orr	r2, r2, #32
  66 001c 9A65     		str	r2, [r3, #88]
  67              		.loc 1 55 3 view .LVU12
  68 001e 9B6D     		ldr	r3, [r3, #88]
  69 0020 03F02003 		and	r3, r3, #32
  70 0024 0193     		str	r3, [sp, #4]
  71              		.loc 1 55 3 view .LVU13
  72 0026 019B     		ldr	r3, [sp, #4]
  73              	.LBE2:
  56:Core/Src/stm32l4xx_hal_timebase_tim.c **** 
  57:Core/Src/stm32l4xx_hal_timebase_tim.c ****   /* Get clock configuration */
  58:Core/Src/stm32l4xx_hal_timebase_tim.c ****   HAL_RCC_GetClockConfig(&clkconfig, &pFLatency);
  74              		.loc 1 58 3 view .LVU14
  75 0028 02A9     		add	r1, sp, #8
  76 002a 03A8     		add	r0, sp, #12
  77 002c FFF7FEFF 		bl	HAL_RCC_GetClockConfig
  78              	.LVL5:
  59:Core/Src/stm32l4xx_hal_timebase_tim.c **** 
  60:Core/Src/stm32l4xx_hal_timebase_tim.c ****   /* Compute TIM7 clock */
  61:Core/Src/stm32l4xx_hal_timebase_tim.c ****   uwTimclock = HAL_RCC_GetPCLK1Freq();
  79              		.loc 1 61 3 view .LVU15
  80              		.loc 1 61 16 is_stmt 0 view .LVU16
  81 0030 FFF7FEFF 		bl	HAL_RCC_GetPCLK1Freq
  82              	.LVL6:
  62:Core/Src/stm32l4xx_hal_timebase_tim.c ****   /* Compute the prescaler value to have TIM7 counter clock equal to 1MHz */
  63:Core/Src/stm32l4xx_hal_timebase_tim.c ****   uwPrescalerValue = (uint32_t) ((uwTimclock / 1000000U) - 1U);
  83              		.loc 1 63 3 is_stmt 1 view .LVU17
  84              		.loc 1 63 46 is_stmt 0 view .LVU18
  85 0034 0D4B     		ldr	r3, .L6+4
  86 0036 A3FB0023 		umull	r2, r3, r3, r0
  87 003a 9B0C     		lsrs	r3, r3, #18
  88              		.loc 1 63 20 view .LVU19
  89 003c 013B     		subs	r3, r3, #1
  90              	.LVL7:
  64:Core/Src/stm32l4xx_hal_timebase_tim.c **** 
  65:Core/Src/stm32l4xx_hal_timebase_tim.c ****   /* Initialize TIM7 */
  66:Core/Src/stm32l4xx_hal_timebase_tim.c ****   htim7.Instance = TIM7;
  91              		.loc 1 66 3 is_stmt 1 view .LVU20
  92              		.loc 1 66 18 is_stmt 0 view .LVU21
  93 003e 0C48     		ldr	r0, .L6+8
  94              	.LVL8:
  95              		.loc 1 66 18 view .LVU22
  96 0040 0C4A     		ldr	r2, .L6+12
  97 0042 0260     		str	r2, [r0]
  67:Core/Src/stm32l4xx_hal_timebase_tim.c **** 
  68:Core/Src/stm32l4xx_hal_timebase_tim.c ****   /* Initialize TIMx peripheral as follow:
  69:Core/Src/stm32l4xx_hal_timebase_tim.c ****   + Period = [(TIM7CLK/1000) - 1]. to have a (1/1000) s time base.
  70:Core/Src/stm32l4xx_hal_timebase_tim.c ****   + Prescaler = (uwTimclock/1000000 - 1) to have a 1MHz counter clock.
  71:Core/Src/stm32l4xx_hal_timebase_tim.c ****   + ClockDivision = 0
  72:Core/Src/stm32l4xx_hal_timebase_tim.c ****   + Counter direction = Up
  73:Core/Src/stm32l4xx_hal_timebase_tim.c ****   */
  74:Core/Src/stm32l4xx_hal_timebase_tim.c ****   htim7.Init.Period = (1000000U / 1000U) - 1U;
  98              		.loc 1 74 3 is_stmt 1 view .LVU23
ARM GAS  C:\Users\union\AppData\Local\Temp\ccQYQv24.s 			page 4


  99              		.loc 1 74 21 is_stmt 0 view .LVU24
 100 0044 40F2E732 		movw	r2, #999
 101 0048 C260     		str	r2, [r0, #12]
  75:Core/Src/stm32l4xx_hal_timebase_tim.c ****   htim7.Init.Prescaler = uwPrescalerValue;
 102              		.loc 1 75 3 is_stmt 1 view .LVU25
 103              		.loc 1 75 24 is_stmt 0 view .LVU26
 104 004a 4360     		str	r3, [r0, #4]
  76:Core/Src/stm32l4xx_hal_timebase_tim.c ****   htim7.Init.ClockDivision = 0;
 105              		.loc 1 76 3 is_stmt 1 view .LVU27
 106              		.loc 1 76 28 is_stmt 0 view .LVU28
 107 004c 0023     		movs	r3, #0
 108              	.LVL9:
 109              		.loc 1 76 28 view .LVU29
 110 004e 0361     		str	r3, [r0, #16]
  77:Core/Src/stm32l4xx_hal_timebase_tim.c ****   htim7.Init.CounterMode = TIM_COUNTERMODE_UP;
 111              		.loc 1 77 3 is_stmt 1 view .LVU30
 112              		.loc 1 77 26 is_stmt 0 view .LVU31
 113 0050 8360     		str	r3, [r0, #8]
  78:Core/Src/stm32l4xx_hal_timebase_tim.c **** 
  79:Core/Src/stm32l4xx_hal_timebase_tim.c ****   if(HAL_TIM_Base_Init(&htim7) == HAL_OK)
 114              		.loc 1 79 3 is_stmt 1 view .LVU32
 115              		.loc 1 79 6 is_stmt 0 view .LVU33
 116 0052 FFF7FEFF 		bl	HAL_TIM_Base_Init
 117              	.LVL10:
 118              		.loc 1 79 5 view .LVU34
 119 0056 18B1     		cbz	r0, .L5
  80:Core/Src/stm32l4xx_hal_timebase_tim.c ****   {
  81:Core/Src/stm32l4xx_hal_timebase_tim.c ****     /* Start the TIM time Base generation in interrupt mode */
  82:Core/Src/stm32l4xx_hal_timebase_tim.c ****     return HAL_TIM_Base_Start_IT(&htim7);
  83:Core/Src/stm32l4xx_hal_timebase_tim.c ****   }
  84:Core/Src/stm32l4xx_hal_timebase_tim.c **** 
  85:Core/Src/stm32l4xx_hal_timebase_tim.c ****   /* Return function status */
  86:Core/Src/stm32l4xx_hal_timebase_tim.c ****   return HAL_ERROR;
 120              		.loc 1 86 10 view .LVU35
 121 0058 0120     		movs	r0, #1
 122              	.L2:
  87:Core/Src/stm32l4xx_hal_timebase_tim.c **** }
 123              		.loc 1 87 1 view .LVU36
 124 005a 09B0     		add	sp, sp, #36
 125              	.LCFI2:
 126              		.cfi_remember_state
 127              		.cfi_def_cfa_offset 4
 128              		@ sp needed
 129 005c 5DF804FB 		ldr	pc, [sp], #4
 130              	.L5:
 131              	.LCFI3:
 132              		.cfi_restore_state
  82:Core/Src/stm32l4xx_hal_timebase_tim.c ****   }
 133              		.loc 1 82 5 is_stmt 1 view .LVU37
  82:Core/Src/stm32l4xx_hal_timebase_tim.c ****   }
 134              		.loc 1 82 12 is_stmt 0 view .LVU38
 135 0060 0348     		ldr	r0, .L6+8
 136 0062 FFF7FEFF 		bl	HAL_TIM_Base_Start_IT
 137              	.LVL11:
 138 0066 F8E7     		b	.L2
 139              	.L7:
 140              		.align	2
ARM GAS  C:\Users\union\AppData\Local\Temp\ccQYQv24.s 			page 5


 141              	.L6:
 142 0068 00100240 		.word	1073876992
 143 006c 83DE1B43 		.word	1125899907
 144 0070 00000000 		.word	htim7
 145 0074 00140040 		.word	1073746944
 146              		.cfi_endproc
 147              	.LFE132:
 149              		.section	.text.HAL_SuspendTick,"ax",%progbits
 150              		.align	1
 151              		.global	HAL_SuspendTick
 152              		.syntax unified
 153              		.thumb
 154              		.thumb_func
 155              		.fpu fpv4-sp-d16
 157              	HAL_SuspendTick:
 158              	.LFB133:
  88:Core/Src/stm32l4xx_hal_timebase_tim.c **** 
  89:Core/Src/stm32l4xx_hal_timebase_tim.c **** /**
  90:Core/Src/stm32l4xx_hal_timebase_tim.c ****   * @brief  Suspend Tick increment.
  91:Core/Src/stm32l4xx_hal_timebase_tim.c ****   * @note   Disable the tick increment by disabling TIM7 update interrupt.
  92:Core/Src/stm32l4xx_hal_timebase_tim.c ****   * @param  None
  93:Core/Src/stm32l4xx_hal_timebase_tim.c ****   * @retval None
  94:Core/Src/stm32l4xx_hal_timebase_tim.c ****   */
  95:Core/Src/stm32l4xx_hal_timebase_tim.c **** void HAL_SuspendTick(void)
  96:Core/Src/stm32l4xx_hal_timebase_tim.c **** {
 159              		.loc 1 96 1 is_stmt 1 view -0
 160              		.cfi_startproc
 161              		@ args = 0, pretend = 0, frame = 0
 162              		@ frame_needed = 0, uses_anonymous_args = 0
 163              		@ link register save eliminated.
  97:Core/Src/stm32l4xx_hal_timebase_tim.c ****   /* Disable TIM7 update Interrupt */
  98:Core/Src/stm32l4xx_hal_timebase_tim.c ****   __HAL_TIM_DISABLE_IT(&htim7, TIM_IT_UPDATE);
 164              		.loc 1 98 3 view .LVU40
 165 0000 034B     		ldr	r3, .L9
 166 0002 1A68     		ldr	r2, [r3]
 167 0004 D368     		ldr	r3, [r2, #12]
 168 0006 23F00103 		bic	r3, r3, #1
 169 000a D360     		str	r3, [r2, #12]
  99:Core/Src/stm32l4xx_hal_timebase_tim.c **** }
 170              		.loc 1 99 1 is_stmt 0 view .LVU41
 171 000c 7047     		bx	lr
 172              	.L10:
 173 000e 00BF     		.align	2
 174              	.L9:
 175 0010 00000000 		.word	htim7
 176              		.cfi_endproc
 177              	.LFE133:
 179              		.section	.text.HAL_ResumeTick,"ax",%progbits
 180              		.align	1
 181              		.global	HAL_ResumeTick
 182              		.syntax unified
 183              		.thumb
 184              		.thumb_func
 185              		.fpu fpv4-sp-d16
 187              	HAL_ResumeTick:
 188              	.LFB134:
 100:Core/Src/stm32l4xx_hal_timebase_tim.c **** 
ARM GAS  C:\Users\union\AppData\Local\Temp\ccQYQv24.s 			page 6


 101:Core/Src/stm32l4xx_hal_timebase_tim.c **** /**
 102:Core/Src/stm32l4xx_hal_timebase_tim.c ****   * @brief  Resume Tick increment.
 103:Core/Src/stm32l4xx_hal_timebase_tim.c ****   * @note   Enable the tick increment by Enabling TIM7 update interrupt.
 104:Core/Src/stm32l4xx_hal_timebase_tim.c ****   * @param  None
 105:Core/Src/stm32l4xx_hal_timebase_tim.c ****   * @retval None
 106:Core/Src/stm32l4xx_hal_timebase_tim.c ****   */
 107:Core/Src/stm32l4xx_hal_timebase_tim.c **** void HAL_ResumeTick(void)
 108:Core/Src/stm32l4xx_hal_timebase_tim.c **** {
 189              		.loc 1 108 1 is_stmt 1 view -0
 190              		.cfi_startproc
 191              		@ args = 0, pretend = 0, frame = 0
 192              		@ frame_needed = 0, uses_anonymous_args = 0
 193              		@ link register save eliminated.
 109:Core/Src/stm32l4xx_hal_timebase_tim.c ****   /* Enable TIM7 Update interrupt */
 110:Core/Src/stm32l4xx_hal_timebase_tim.c ****   __HAL_TIM_ENABLE_IT(&htim7, TIM_IT_UPDATE);
 194              		.loc 1 110 3 view .LVU43
 195 0000 034B     		ldr	r3, .L12
 196 0002 1A68     		ldr	r2, [r3]
 197 0004 D368     		ldr	r3, [r2, #12]
 198 0006 43F00103 		orr	r3, r3, #1
 199 000a D360     		str	r3, [r2, #12]
 111:Core/Src/stm32l4xx_hal_timebase_tim.c **** }
 200              		.loc 1 111 1 is_stmt 0 view .LVU44
 201 000c 7047     		bx	lr
 202              	.L13:
 203 000e 00BF     		.align	2
 204              	.L12:
 205 0010 00000000 		.word	htim7
 206              		.cfi_endproc
 207              	.LFE134:
 209              		.comm	htim7,76,4
 210              		.text
 211              	.Letext0:
 212              		.file 2 "c:\\arm_tool\\gcc\\arm-none-eabi\\include\\machine\\_default_types.h"
 213              		.file 3 "c:\\arm_tool\\gcc\\arm-none-eabi\\include\\sys\\_stdint.h"
 214              		.file 4 "Drivers/CMSIS/Include/core_cm4.h"
 215              		.file 5 "Drivers/CMSIS/Device/ST/STM32L4xx/Include/system_stm32l4xx.h"
 216              		.file 6 "Drivers/CMSIS/Device/ST/STM32L4xx/Include/stm32l476xx.h"
 217              		.file 7 "Drivers/STM32L4xx_HAL_Driver/Inc/stm32l4xx_hal_def.h"
 218              		.file 8 "Drivers/STM32L4xx_HAL_Driver/Inc/stm32l4xx_hal_rcc.h"
 219              		.file 9 "Drivers/STM32L4xx_HAL_Driver/Inc/stm32l4xx_hal_dma.h"
 220              		.file 10 "Drivers/STM32L4xx_HAL_Driver/Inc/stm32l4xx_hal_flash.h"
 221              		.file 11 "Drivers/STM32L4xx_HAL_Driver/Inc/stm32l4xx_hal_tim.h"
 222              		.file 12 "Drivers/STM32L4xx_HAL_Driver/Inc/stm32l4xx_hal.h"
 223              		.file 13 "Drivers/STM32L4xx_HAL_Driver/Inc/stm32l4xx_hal_cortex.h"
ARM GAS  C:\Users\union\AppData\Local\Temp\ccQYQv24.s 			page 7


DEFINED SYMBOLS
                            *ABS*:0000000000000000 stm32l4xx_hal_timebase_tim.c
C:\Users\union\AppData\Local\Temp\ccQYQv24.s:18     .text.HAL_InitTick:0000000000000000 $t
C:\Users\union\AppData\Local\Temp\ccQYQv24.s:26     .text.HAL_InitTick:0000000000000000 HAL_InitTick
C:\Users\union\AppData\Local\Temp\ccQYQv24.s:142    .text.HAL_InitTick:0000000000000068 $d
                            *COM*:000000000000004c htim7
C:\Users\union\AppData\Local\Temp\ccQYQv24.s:150    .text.HAL_SuspendTick:0000000000000000 $t
C:\Users\union\AppData\Local\Temp\ccQYQv24.s:157    .text.HAL_SuspendTick:0000000000000000 HAL_SuspendTick
C:\Users\union\AppData\Local\Temp\ccQYQv24.s:175    .text.HAL_SuspendTick:0000000000000010 $d
C:\Users\union\AppData\Local\Temp\ccQYQv24.s:180    .text.HAL_ResumeTick:0000000000000000 $t
C:\Users\union\AppData\Local\Temp\ccQYQv24.s:187    .text.HAL_ResumeTick:0000000000000000 HAL_ResumeTick
C:\Users\union\AppData\Local\Temp\ccQYQv24.s:205    .text.HAL_ResumeTick:0000000000000010 $d

UNDEFINED SYMBOLS
HAL_NVIC_SetPriority
HAL_NVIC_EnableIRQ
HAL_RCC_GetClockConfig
HAL_RCC_GetPCLK1Freq
HAL_TIM_Base_Init
HAL_TIM_Base_Start_IT
