ARM GAS  C:\Users\union\AppData\Local\Temp\ccy9DkAi.s 			page 1


   1              		.cpu cortex-m4
   2              		.eabi_attribute 27, 1
   3              		.eabi_attribute 28, 1
   4              		.eabi_attribute 20, 1
   5              		.eabi_attribute 21, 1
   6              		.eabi_attribute 23, 3
   7              		.eabi_attribute 24, 1
   8              		.eabi_attribute 25, 1
   9              		.eabi_attribute 26, 1
  10              		.eabi_attribute 30, 1
  11              		.eabi_attribute 34, 1
  12              		.eabi_attribute 18, 4
  13              		.file	"system_stm32l4xx.c"
  14              		.text
  15              	.Ltext0:
  16              		.cfi_sections	.debug_frame
  17              		.section	.text.SystemInit,"ax",%progbits
  18              		.align	1
  19              		.global	SystemInit
  20              		.arch armv7e-m
  21              		.syntax unified
  22              		.thumb
  23              		.thumb_func
  24              		.fpu fpv4-sp-d16
  26              	SystemInit:
  27              	.LFB132:
  28              		.file 1 "Core/Src/system_stm32l4xx.c"
   1:Core/Src/system_stm32l4xx.c **** /**
   2:Core/Src/system_stm32l4xx.c ****   ******************************************************************************
   3:Core/Src/system_stm32l4xx.c ****   * @file    system_stm32l4xx.c
   4:Core/Src/system_stm32l4xx.c ****   * @author  MCD Application Team
   5:Core/Src/system_stm32l4xx.c ****   * @brief   CMSIS Cortex-M4 Device Peripheral Access Layer System Source File
   6:Core/Src/system_stm32l4xx.c ****   *
   7:Core/Src/system_stm32l4xx.c ****   *   This file provides two functions and one global variable to be called from
   8:Core/Src/system_stm32l4xx.c ****   *   user application:
   9:Core/Src/system_stm32l4xx.c ****   *      - SystemInit(): This function is called at startup just after reset and
  10:Core/Src/system_stm32l4xx.c ****   *                      before branch to main program. This call is made inside
  11:Core/Src/system_stm32l4xx.c ****   *                      the "startup_stm32l4xx.s" file.
  12:Core/Src/system_stm32l4xx.c ****   *
  13:Core/Src/system_stm32l4xx.c ****   *      - SystemCoreClock variable: Contains the core clock (HCLK), it can be used
  14:Core/Src/system_stm32l4xx.c ****   *                                  by the user application to setup the SysTick
  15:Core/Src/system_stm32l4xx.c ****   *                                  timer or configure other parameters.
  16:Core/Src/system_stm32l4xx.c ****   *
  17:Core/Src/system_stm32l4xx.c ****   *      - SystemCoreClockUpdate(): Updates the variable SystemCoreClock and must
  18:Core/Src/system_stm32l4xx.c ****   *                                 be called whenever the core clock is changed
  19:Core/Src/system_stm32l4xx.c ****   *                                 during program execution.
  20:Core/Src/system_stm32l4xx.c ****   *
  21:Core/Src/system_stm32l4xx.c ****   *   After each device reset the MSI (4 MHz) is used as system clock source.
  22:Core/Src/system_stm32l4xx.c ****   *   Then SystemInit() function is called, in "startup_stm32l4xx.s" file, to
  23:Core/Src/system_stm32l4xx.c ****   *   configure the system clock before to branch to main program.
  24:Core/Src/system_stm32l4xx.c ****   *
  25:Core/Src/system_stm32l4xx.c ****   *   This file configures the system clock as follows:
  26:Core/Src/system_stm32l4xx.c ****   *=============================================================================
  27:Core/Src/system_stm32l4xx.c ****   *-----------------------------------------------------------------------------
  28:Core/Src/system_stm32l4xx.c ****   *        System Clock source                    | MSI
  29:Core/Src/system_stm32l4xx.c ****   *-----------------------------------------------------------------------------
  30:Core/Src/system_stm32l4xx.c ****   *        SYSCLK(Hz)                             | 4000000
ARM GAS  C:\Users\union\AppData\Local\Temp\ccy9DkAi.s 			page 2


  31:Core/Src/system_stm32l4xx.c ****   *-----------------------------------------------------------------------------
  32:Core/Src/system_stm32l4xx.c ****   *        HCLK(Hz)                               | 4000000
  33:Core/Src/system_stm32l4xx.c ****   *-----------------------------------------------------------------------------
  34:Core/Src/system_stm32l4xx.c ****   *        AHB Prescaler                          | 1
  35:Core/Src/system_stm32l4xx.c ****   *-----------------------------------------------------------------------------
  36:Core/Src/system_stm32l4xx.c ****   *        APB1 Prescaler                         | 1
  37:Core/Src/system_stm32l4xx.c ****   *-----------------------------------------------------------------------------
  38:Core/Src/system_stm32l4xx.c ****   *        APB2 Prescaler                         | 1
  39:Core/Src/system_stm32l4xx.c ****   *-----------------------------------------------------------------------------
  40:Core/Src/system_stm32l4xx.c ****   *        PLL_M                                  | 1
  41:Core/Src/system_stm32l4xx.c ****   *-----------------------------------------------------------------------------
  42:Core/Src/system_stm32l4xx.c ****   *        PLL_N                                  | 8
  43:Core/Src/system_stm32l4xx.c ****   *-----------------------------------------------------------------------------
  44:Core/Src/system_stm32l4xx.c ****   *        PLL_P                                  | 7
  45:Core/Src/system_stm32l4xx.c ****   *-----------------------------------------------------------------------------
  46:Core/Src/system_stm32l4xx.c ****   *        PLL_Q                                  | 2
  47:Core/Src/system_stm32l4xx.c ****   *-----------------------------------------------------------------------------
  48:Core/Src/system_stm32l4xx.c ****   *        PLL_R                                  | 2
  49:Core/Src/system_stm32l4xx.c ****   *-----------------------------------------------------------------------------
  50:Core/Src/system_stm32l4xx.c ****   *        PLLSAI1_P                              | NA
  51:Core/Src/system_stm32l4xx.c ****   *-----------------------------------------------------------------------------
  52:Core/Src/system_stm32l4xx.c ****   *        PLLSAI1_Q                              | NA
  53:Core/Src/system_stm32l4xx.c ****   *-----------------------------------------------------------------------------
  54:Core/Src/system_stm32l4xx.c ****   *        PLLSAI1_R                              | NA
  55:Core/Src/system_stm32l4xx.c ****   *-----------------------------------------------------------------------------
  56:Core/Src/system_stm32l4xx.c ****   *        PLLSAI2_P                              | NA
  57:Core/Src/system_stm32l4xx.c ****   *-----------------------------------------------------------------------------
  58:Core/Src/system_stm32l4xx.c ****   *        PLLSAI2_Q                              | NA
  59:Core/Src/system_stm32l4xx.c ****   *-----------------------------------------------------------------------------
  60:Core/Src/system_stm32l4xx.c ****   *        PLLSAI2_R                              | NA
  61:Core/Src/system_stm32l4xx.c ****   *-----------------------------------------------------------------------------
  62:Core/Src/system_stm32l4xx.c ****   *        Require 48MHz for USB OTG FS,          | Disabled
  63:Core/Src/system_stm32l4xx.c ****   *        SDIO and RNG clock                     |
  64:Core/Src/system_stm32l4xx.c ****   *-----------------------------------------------------------------------------
  65:Core/Src/system_stm32l4xx.c ****   *=============================================================================
  66:Core/Src/system_stm32l4xx.c ****   ******************************************************************************
  67:Core/Src/system_stm32l4xx.c ****   * @attention
  68:Core/Src/system_stm32l4xx.c ****   *
  69:Core/Src/system_stm32l4xx.c ****   * <h2><center>&copy; Copyright (c) 2017 STMicroelectronics.
  70:Core/Src/system_stm32l4xx.c ****   * All rights reserved.</center></h2>
  71:Core/Src/system_stm32l4xx.c ****   *
  72:Core/Src/system_stm32l4xx.c ****   * This software component is licensed by ST under Apache License, Version 2.0,
  73:Core/Src/system_stm32l4xx.c ****   * the "License"; You may not use this file except in compliance with the
  74:Core/Src/system_stm32l4xx.c ****   * License. You may obtain a copy of the License at:
  75:Core/Src/system_stm32l4xx.c ****   *                        opensource.org/licenses/Apache-2.0
  76:Core/Src/system_stm32l4xx.c ****   *
  77:Core/Src/system_stm32l4xx.c ****   ******************************************************************************
  78:Core/Src/system_stm32l4xx.c ****   */
  79:Core/Src/system_stm32l4xx.c **** 
  80:Core/Src/system_stm32l4xx.c **** /** @addtogroup CMSIS
  81:Core/Src/system_stm32l4xx.c ****   * @{
  82:Core/Src/system_stm32l4xx.c ****   */
  83:Core/Src/system_stm32l4xx.c **** 
  84:Core/Src/system_stm32l4xx.c **** /** @addtogroup stm32l4xx_system
  85:Core/Src/system_stm32l4xx.c ****   * @{
  86:Core/Src/system_stm32l4xx.c ****   */
  87:Core/Src/system_stm32l4xx.c **** 
ARM GAS  C:\Users\union\AppData\Local\Temp\ccy9DkAi.s 			page 3


  88:Core/Src/system_stm32l4xx.c **** /** @addtogroup STM32L4xx_System_Private_Includes
  89:Core/Src/system_stm32l4xx.c ****   * @{
  90:Core/Src/system_stm32l4xx.c ****   */
  91:Core/Src/system_stm32l4xx.c **** 
  92:Core/Src/system_stm32l4xx.c **** #include "stm32l4xx.h"
  93:Core/Src/system_stm32l4xx.c **** 
  94:Core/Src/system_stm32l4xx.c **** #if !defined  (HSE_VALUE)
  95:Core/Src/system_stm32l4xx.c ****   #define HSE_VALUE    8000000U  /*!< Value of the External oscillator in Hz */
  96:Core/Src/system_stm32l4xx.c **** #endif /* HSE_VALUE */
  97:Core/Src/system_stm32l4xx.c **** 
  98:Core/Src/system_stm32l4xx.c **** #if !defined  (MSI_VALUE)
  99:Core/Src/system_stm32l4xx.c ****   #define MSI_VALUE    4000000U  /*!< Value of the Internal oscillator in Hz*/
 100:Core/Src/system_stm32l4xx.c **** #endif /* MSI_VALUE */
 101:Core/Src/system_stm32l4xx.c **** 
 102:Core/Src/system_stm32l4xx.c **** #if !defined  (HSI_VALUE)
 103:Core/Src/system_stm32l4xx.c ****   #define HSI_VALUE    16000000U /*!< Value of the Internal oscillator in Hz*/
 104:Core/Src/system_stm32l4xx.c **** #endif /* HSI_VALUE */
 105:Core/Src/system_stm32l4xx.c **** 
 106:Core/Src/system_stm32l4xx.c **** /**
 107:Core/Src/system_stm32l4xx.c ****   * @}
 108:Core/Src/system_stm32l4xx.c ****   */
 109:Core/Src/system_stm32l4xx.c **** 
 110:Core/Src/system_stm32l4xx.c **** /** @addtogroup STM32L4xx_System_Private_TypesDefinitions
 111:Core/Src/system_stm32l4xx.c ****   * @{
 112:Core/Src/system_stm32l4xx.c ****   */
 113:Core/Src/system_stm32l4xx.c **** 
 114:Core/Src/system_stm32l4xx.c **** /**
 115:Core/Src/system_stm32l4xx.c ****   * @}
 116:Core/Src/system_stm32l4xx.c ****   */
 117:Core/Src/system_stm32l4xx.c **** 
 118:Core/Src/system_stm32l4xx.c **** /** @addtogroup STM32L4xx_System_Private_Defines
 119:Core/Src/system_stm32l4xx.c ****   * @{
 120:Core/Src/system_stm32l4xx.c ****   */
 121:Core/Src/system_stm32l4xx.c **** 
 122:Core/Src/system_stm32l4xx.c **** /************************* Miscellaneous Configuration ************************/
 123:Core/Src/system_stm32l4xx.c **** /*!< Uncomment the following line if you need to relocate your vector Table in
 124:Core/Src/system_stm32l4xx.c ****      Internal SRAM. */
 125:Core/Src/system_stm32l4xx.c **** /* #define VECT_TAB_SRAM */
 126:Core/Src/system_stm32l4xx.c **** #define VECT_TAB_OFFSET  0x00 /*!< Vector Table base offset field.
 127:Core/Src/system_stm32l4xx.c ****                                    This value must be a multiple of 0x200. */
 128:Core/Src/system_stm32l4xx.c **** /******************************************************************************/
 129:Core/Src/system_stm32l4xx.c **** /**
 130:Core/Src/system_stm32l4xx.c ****   * @}
 131:Core/Src/system_stm32l4xx.c ****   */
 132:Core/Src/system_stm32l4xx.c **** 
 133:Core/Src/system_stm32l4xx.c **** /** @addtogroup STM32L4xx_System_Private_Macros
 134:Core/Src/system_stm32l4xx.c ****   * @{
 135:Core/Src/system_stm32l4xx.c ****   */
 136:Core/Src/system_stm32l4xx.c **** 
 137:Core/Src/system_stm32l4xx.c **** /**
 138:Core/Src/system_stm32l4xx.c ****   * @}
 139:Core/Src/system_stm32l4xx.c ****   */
 140:Core/Src/system_stm32l4xx.c **** 
 141:Core/Src/system_stm32l4xx.c **** /** @addtogroup STM32L4xx_System_Private_Variables
 142:Core/Src/system_stm32l4xx.c ****   * @{
 143:Core/Src/system_stm32l4xx.c ****   */
 144:Core/Src/system_stm32l4xx.c ****   /* The SystemCoreClock variable is updated in three ways:
ARM GAS  C:\Users\union\AppData\Local\Temp\ccy9DkAi.s 			page 4


 145:Core/Src/system_stm32l4xx.c ****       1) by calling CMSIS function SystemCoreClockUpdate()
 146:Core/Src/system_stm32l4xx.c ****       2) by calling HAL API function HAL_RCC_GetHCLKFreq()
 147:Core/Src/system_stm32l4xx.c ****       3) each time HAL_RCC_ClockConfig() is called to configure the system clock frequency
 148:Core/Src/system_stm32l4xx.c ****          Note: If you use this function to configure the system clock; then there
 149:Core/Src/system_stm32l4xx.c ****                is no need to call the 2 first functions listed above, since SystemCoreClock
 150:Core/Src/system_stm32l4xx.c ****                variable is updated automatically.
 151:Core/Src/system_stm32l4xx.c ****   */
 152:Core/Src/system_stm32l4xx.c ****   uint32_t SystemCoreClock = 4000000U;
 153:Core/Src/system_stm32l4xx.c **** 
 154:Core/Src/system_stm32l4xx.c ****   const uint8_t  AHBPrescTable[16] = {0U, 0U, 0U, 0U, 0U, 0U, 0U, 0U, 1U, 2U, 3U, 4U, 6U, 7U, 8U, 9
 155:Core/Src/system_stm32l4xx.c ****   const uint8_t  APBPrescTable[8] =  {0U, 0U, 0U, 0U, 1U, 2U, 3U, 4U};
 156:Core/Src/system_stm32l4xx.c ****   const uint32_t MSIRangeTable[12] = {100000U,   200000U,   400000U,   800000U,  1000000U,  2000000
 157:Core/Src/system_stm32l4xx.c ****                                       4000000U, 8000000U, 16000000U, 24000000U, 32000000U, 48000000
 158:Core/Src/system_stm32l4xx.c **** /**
 159:Core/Src/system_stm32l4xx.c ****   * @}
 160:Core/Src/system_stm32l4xx.c ****   */
 161:Core/Src/system_stm32l4xx.c **** 
 162:Core/Src/system_stm32l4xx.c **** /** @addtogroup STM32L4xx_System_Private_FunctionPrototypes
 163:Core/Src/system_stm32l4xx.c ****   * @{
 164:Core/Src/system_stm32l4xx.c ****   */
 165:Core/Src/system_stm32l4xx.c **** 
 166:Core/Src/system_stm32l4xx.c **** /**
 167:Core/Src/system_stm32l4xx.c ****   * @}
 168:Core/Src/system_stm32l4xx.c ****   */
 169:Core/Src/system_stm32l4xx.c **** 
 170:Core/Src/system_stm32l4xx.c **** /** @addtogroup STM32L4xx_System_Private_Functions
 171:Core/Src/system_stm32l4xx.c ****   * @{
 172:Core/Src/system_stm32l4xx.c ****   */
 173:Core/Src/system_stm32l4xx.c **** 
 174:Core/Src/system_stm32l4xx.c **** /**
 175:Core/Src/system_stm32l4xx.c ****   * @brief  Setup the microcontroller system.
 176:Core/Src/system_stm32l4xx.c ****   * @param  None
 177:Core/Src/system_stm32l4xx.c ****   * @retval None
 178:Core/Src/system_stm32l4xx.c ****   */
 179:Core/Src/system_stm32l4xx.c **** 
 180:Core/Src/system_stm32l4xx.c **** void SystemInit(void)
 181:Core/Src/system_stm32l4xx.c **** {
  29              		.loc 1 181 1 view -0
  30              		.cfi_startproc
  31              		@ args = 0, pretend = 0, frame = 0
  32              		@ frame_needed = 0, uses_anonymous_args = 0
  33              		@ link register save eliminated.
 182:Core/Src/system_stm32l4xx.c ****   /* FPU settings ------------------------------------------------------------*/
 183:Core/Src/system_stm32l4xx.c ****   #if (__FPU_PRESENT == 1) && (__FPU_USED == 1)
 184:Core/Src/system_stm32l4xx.c ****     SCB->CPACR |= ((3UL << 10*2)|(3UL << 11*2));  /* set CP10 and CP11 Full Access */
  34              		.loc 1 184 5 view .LVU1
  35              		.loc 1 184 16 is_stmt 0 view .LVU2
  36 0000 0F49     		ldr	r1, .L2
  37 0002 D1F88830 		ldr	r3, [r1, #136]
  38 0006 43F47003 		orr	r3, r3, #15728640
  39 000a C1F88830 		str	r3, [r1, #136]
 185:Core/Src/system_stm32l4xx.c ****   #endif
 186:Core/Src/system_stm32l4xx.c **** 
 187:Core/Src/system_stm32l4xx.c ****   /* Reset the RCC clock configuration to the default reset state ------------*/
 188:Core/Src/system_stm32l4xx.c ****   /* Set MSION bit */
 189:Core/Src/system_stm32l4xx.c ****   RCC->CR |= RCC_CR_MSION;
  40              		.loc 1 189 3 is_stmt 1 view .LVU3
ARM GAS  C:\Users\union\AppData\Local\Temp\ccy9DkAi.s 			page 5


  41              		.loc 1 189 11 is_stmt 0 view .LVU4
  42 000e 0D4B     		ldr	r3, .L2+4
  43 0010 1A68     		ldr	r2, [r3]
  44 0012 42F00102 		orr	r2, r2, #1
  45 0016 1A60     		str	r2, [r3]
 190:Core/Src/system_stm32l4xx.c **** 
 191:Core/Src/system_stm32l4xx.c ****   /* Reset CFGR register */
 192:Core/Src/system_stm32l4xx.c ****   RCC->CFGR = 0x00000000U;
  46              		.loc 1 192 3 is_stmt 1 view .LVU5
  47              		.loc 1 192 13 is_stmt 0 view .LVU6
  48 0018 0020     		movs	r0, #0
  49 001a 9860     		str	r0, [r3, #8]
 193:Core/Src/system_stm32l4xx.c **** 
 194:Core/Src/system_stm32l4xx.c ****   /* Reset HSEON, CSSON , HSION, and PLLON bits */
 195:Core/Src/system_stm32l4xx.c ****   RCC->CR &= 0xEAF6FFFFU;
  50              		.loc 1 195 3 is_stmt 1 view .LVU7
  51              		.loc 1 195 11 is_stmt 0 view .LVU8
  52 001c 1A68     		ldr	r2, [r3]
  53 001e 22F0A852 		bic	r2, r2, #352321536
  54 0022 22F41022 		bic	r2, r2, #589824
  55 0026 1A60     		str	r2, [r3]
 196:Core/Src/system_stm32l4xx.c **** 
 197:Core/Src/system_stm32l4xx.c ****   /* Reset PLLCFGR register */
 198:Core/Src/system_stm32l4xx.c ****   RCC->PLLCFGR = 0x00001000U;
  56              		.loc 1 198 3 is_stmt 1 view .LVU9
  57              		.loc 1 198 16 is_stmt 0 view .LVU10
  58 0028 4FF48052 		mov	r2, #4096
  59 002c DA60     		str	r2, [r3, #12]
 199:Core/Src/system_stm32l4xx.c **** 
 200:Core/Src/system_stm32l4xx.c ****   /* Reset HSEBYP bit */
 201:Core/Src/system_stm32l4xx.c ****   RCC->CR &= 0xFFFBFFFFU;
  60              		.loc 1 201 3 is_stmt 1 view .LVU11
  61              		.loc 1 201 11 is_stmt 0 view .LVU12
  62 002e 1A68     		ldr	r2, [r3]
  63 0030 22F48022 		bic	r2, r2, #262144
  64 0034 1A60     		str	r2, [r3]
 202:Core/Src/system_stm32l4xx.c **** 
 203:Core/Src/system_stm32l4xx.c ****   /* Disable all interrupts */
 204:Core/Src/system_stm32l4xx.c ****   RCC->CIER = 0x00000000U;
  65              		.loc 1 204 3 is_stmt 1 view .LVU13
  66              		.loc 1 204 13 is_stmt 0 view .LVU14
  67 0036 9861     		str	r0, [r3, #24]
 205:Core/Src/system_stm32l4xx.c **** 
 206:Core/Src/system_stm32l4xx.c ****   /* Configure the Vector Table location add offset address ------------------*/
 207:Core/Src/system_stm32l4xx.c **** #ifdef VECT_TAB_SRAM
 208:Core/Src/system_stm32l4xx.c ****   SCB->VTOR = SRAM_BASE | VECT_TAB_OFFSET; /* Vector Table Relocation in Internal SRAM */
 209:Core/Src/system_stm32l4xx.c **** #else
 210:Core/Src/system_stm32l4xx.c ****   SCB->VTOR = FLASH_BASE | VECT_TAB_OFFSET; /* Vector Table Relocation in Internal FLASH */
  68              		.loc 1 210 3 is_stmt 1 view .LVU15
  69              		.loc 1 210 13 is_stmt 0 view .LVU16
  70 0038 4FF00063 		mov	r3, #134217728
  71 003c 8B60     		str	r3, [r1, #8]
 211:Core/Src/system_stm32l4xx.c **** #endif
 212:Core/Src/system_stm32l4xx.c **** }
  72              		.loc 1 212 1 view .LVU17
  73 003e 7047     		bx	lr
  74              	.L3:
ARM GAS  C:\Users\union\AppData\Local\Temp\ccy9DkAi.s 			page 6


  75              		.align	2
  76              	.L2:
  77 0040 00ED00E0 		.word	-536810240
  78 0044 00100240 		.word	1073876992
  79              		.cfi_endproc
  80              	.LFE132:
  82              		.section	.text.SystemCoreClockUpdate,"ax",%progbits
  83              		.align	1
  84              		.global	SystemCoreClockUpdate
  85              		.syntax unified
  86              		.thumb
  87              		.thumb_func
  88              		.fpu fpv4-sp-d16
  90              	SystemCoreClockUpdate:
  91              	.LFB133:
 213:Core/Src/system_stm32l4xx.c **** 
 214:Core/Src/system_stm32l4xx.c **** /**
 215:Core/Src/system_stm32l4xx.c ****   * @brief  Update SystemCoreClock variable according to Clock Register Values.
 216:Core/Src/system_stm32l4xx.c ****   *         The SystemCoreClock variable contains the core clock (HCLK), it can
 217:Core/Src/system_stm32l4xx.c ****   *         be used by the user application to setup the SysTick timer or configure
 218:Core/Src/system_stm32l4xx.c ****   *         other parameters.
 219:Core/Src/system_stm32l4xx.c ****   *
 220:Core/Src/system_stm32l4xx.c ****   * @note   Each time the core clock (HCLK) changes, this function must be called
 221:Core/Src/system_stm32l4xx.c ****   *         to update SystemCoreClock variable value. Otherwise, any configuration
 222:Core/Src/system_stm32l4xx.c ****   *         based on this variable will be incorrect.
 223:Core/Src/system_stm32l4xx.c ****   *
 224:Core/Src/system_stm32l4xx.c ****   * @note   - The system frequency computed by this function is not the real
 225:Core/Src/system_stm32l4xx.c ****   *           frequency in the chip. It is calculated based on the predefined
 226:Core/Src/system_stm32l4xx.c ****   *           constant and the selected clock source:
 227:Core/Src/system_stm32l4xx.c ****   *
 228:Core/Src/system_stm32l4xx.c ****   *           - If SYSCLK source is MSI, SystemCoreClock will contain the MSI_VALUE(*)
 229:Core/Src/system_stm32l4xx.c ****   *
 230:Core/Src/system_stm32l4xx.c ****   *           - If SYSCLK source is HSI, SystemCoreClock will contain the HSI_VALUE(**)
 231:Core/Src/system_stm32l4xx.c ****   *
 232:Core/Src/system_stm32l4xx.c ****   *           - If SYSCLK source is HSE, SystemCoreClock will contain the HSE_VALUE(***)
 233:Core/Src/system_stm32l4xx.c ****   *
 234:Core/Src/system_stm32l4xx.c ****   *           - If SYSCLK source is PLL, SystemCoreClock will contain the HSE_VALUE(***)
 235:Core/Src/system_stm32l4xx.c ****   *             or HSI_VALUE(*) or MSI_VALUE(*) multiplied/divided by the PLL factors.
 236:Core/Src/system_stm32l4xx.c ****   *
 237:Core/Src/system_stm32l4xx.c ****   *         (*) MSI_VALUE is a constant defined in stm32l4xx_hal.h file (default value
 238:Core/Src/system_stm32l4xx.c ****   *             4 MHz) but the real value may vary depending on the variations
 239:Core/Src/system_stm32l4xx.c ****   *             in voltage and temperature.
 240:Core/Src/system_stm32l4xx.c ****   *
 241:Core/Src/system_stm32l4xx.c ****   *         (**) HSI_VALUE is a constant defined in stm32l4xx_hal.h file (default value
 242:Core/Src/system_stm32l4xx.c ****   *              16 MHz) but the real value may vary depending on the variations
 243:Core/Src/system_stm32l4xx.c ****   *              in voltage and temperature.
 244:Core/Src/system_stm32l4xx.c ****   *
 245:Core/Src/system_stm32l4xx.c ****   *         (***) HSE_VALUE is a constant defined in stm32l4xx_hal.h file (default value
 246:Core/Src/system_stm32l4xx.c ****   *              8 MHz), user has to ensure that HSE_VALUE is same as the real
 247:Core/Src/system_stm32l4xx.c ****   *              frequency of the crystal used. Otherwise, this function may
 248:Core/Src/system_stm32l4xx.c ****   *              have wrong result.
 249:Core/Src/system_stm32l4xx.c ****   *
 250:Core/Src/system_stm32l4xx.c ****   *         - The result of this function could be not correct when using fractional
 251:Core/Src/system_stm32l4xx.c ****   *           value for HSE crystal.
 252:Core/Src/system_stm32l4xx.c ****   *
 253:Core/Src/system_stm32l4xx.c ****   * @param  None
 254:Core/Src/system_stm32l4xx.c ****   * @retval None
ARM GAS  C:\Users\union\AppData\Local\Temp\ccy9DkAi.s 			page 7


 255:Core/Src/system_stm32l4xx.c ****   */
 256:Core/Src/system_stm32l4xx.c **** void SystemCoreClockUpdate(void)
 257:Core/Src/system_stm32l4xx.c **** {
  92              		.loc 1 257 1 is_stmt 1 view -0
  93              		.cfi_startproc
  94              		@ args = 0, pretend = 0, frame = 0
  95              		@ frame_needed = 0, uses_anonymous_args = 0
  96              		@ link register save eliminated.
 258:Core/Src/system_stm32l4xx.c ****   uint32_t tmp = 0U, msirange = 0U, pllvco = 0U, pllr = 2U, pllsource = 0U, pllm = 2U;
  97              		.loc 1 258 3 view .LVU19
  98              	.LVL0:
 259:Core/Src/system_stm32l4xx.c **** 
 260:Core/Src/system_stm32l4xx.c ****   /* Get MSI Range frequency--------------------------------------------------*/
 261:Core/Src/system_stm32l4xx.c ****   if((RCC->CR & RCC_CR_MSIRGSEL) == RESET)
  99              		.loc 1 261 3 view .LVU20
 100              		.loc 1 261 10 is_stmt 0 view .LVU21
 101 0000 2F4B     		ldr	r3, .L19
 102 0002 1B68     		ldr	r3, [r3]
 103              		.loc 1 261 5 view .LVU22
 104 0004 13F0080F 		tst	r3, #8
 105 0008 16D1     		bne	.L5
 262:Core/Src/system_stm32l4xx.c ****   { /* MSISRANGE from RCC_CSR applies */
 263:Core/Src/system_stm32l4xx.c ****     msirange = (RCC->CSR & RCC_CSR_MSISRANGE) >> 8U;
 106              		.loc 1 263 5 is_stmt 1 view .LVU23
 107              		.loc 1 263 20 is_stmt 0 view .LVU24
 108 000a 2D4B     		ldr	r3, .L19
 109 000c D3F89430 		ldr	r3, [r3, #148]
 110              		.loc 1 263 14 view .LVU25
 111 0010 C3F30323 		ubfx	r3, r3, #8, #4
 112              	.LVL1:
 113              	.L6:
 264:Core/Src/system_stm32l4xx.c ****   }
 265:Core/Src/system_stm32l4xx.c ****   else
 266:Core/Src/system_stm32l4xx.c ****   { /* MSIRANGE from RCC_CR applies */
 267:Core/Src/system_stm32l4xx.c ****     msirange = (RCC->CR & RCC_CR_MSIRANGE) >> 4U;
 268:Core/Src/system_stm32l4xx.c ****   }
 269:Core/Src/system_stm32l4xx.c ****   /*MSI frequency range in HZ*/
 270:Core/Src/system_stm32l4xx.c ****   msirange = MSIRangeTable[msirange];
 114              		.loc 1 270 3 is_stmt 1 view .LVU26
 115              		.loc 1 270 12 is_stmt 0 view .LVU27
 116 0014 2B4A     		ldr	r2, .L19+4
 117 0016 52F82310 		ldr	r1, [r2, r3, lsl #2]
 118              	.LVL2:
 271:Core/Src/system_stm32l4xx.c **** 
 272:Core/Src/system_stm32l4xx.c ****   /* Get SYSCLK source -------------------------------------------------------*/
 273:Core/Src/system_stm32l4xx.c ****   switch (RCC->CFGR & RCC_CFGR_SWS)
 119              		.loc 1 273 3 is_stmt 1 view .LVU28
 120              		.loc 1 273 14 is_stmt 0 view .LVU29
 121 001a 294A     		ldr	r2, .L19
 122 001c 9368     		ldr	r3, [r2, #8]
 123              		.loc 1 273 21 view .LVU30
 124 001e 03F00C03 		and	r3, r3, #12
 125              		.loc 1 273 3 view .LVU31
 126 0022 0C2B     		cmp	r3, #12
 127 0024 48D8     		bhi	.L7
 128 0026 DFE803F0 		tbb	[pc, r3]
 129              	.L9:
ARM GAS  C:\Users\union\AppData\Local\Temp\ccy9DkAi.s 			page 8


 130 002a 0C       		.byte	(.L12-.L9)/2
 131 002b 47       		.byte	(.L7-.L9)/2
 132 002c 47       		.byte	(.L7-.L9)/2
 133 002d 47       		.byte	(.L7-.L9)/2
 134 002e 19       		.byte	(.L11-.L9)/2
 135 002f 47       		.byte	(.L7-.L9)/2
 136 0030 47       		.byte	(.L7-.L9)/2
 137 0031 47       		.byte	(.L7-.L9)/2
 138 0032 1D       		.byte	(.L10-.L9)/2
 139 0033 47       		.byte	(.L7-.L9)/2
 140 0034 47       		.byte	(.L7-.L9)/2
 141 0035 47       		.byte	(.L7-.L9)/2
 142 0036 21       		.byte	(.L8-.L9)/2
 143              	.LVL3:
 144 0037 00       		.p2align 1
 145              	.L5:
 267:Core/Src/system_stm32l4xx.c ****   }
 146              		.loc 1 267 5 is_stmt 1 view .LVU32
 267:Core/Src/system_stm32l4xx.c ****   }
 147              		.loc 1 267 20 is_stmt 0 view .LVU33
 148 0038 214B     		ldr	r3, .L19
 149 003a 1B68     		ldr	r3, [r3]
 267:Core/Src/system_stm32l4xx.c ****   }
 150              		.loc 1 267 14 view .LVU34
 151 003c C3F30313 		ubfx	r3, r3, #4, #4
 152              	.LVL4:
 267:Core/Src/system_stm32l4xx.c ****   }
 153              		.loc 1 267 14 view .LVU35
 154 0040 E8E7     		b	.L6
 155              	.LVL5:
 156              	.L12:
 274:Core/Src/system_stm32l4xx.c ****   {
 275:Core/Src/system_stm32l4xx.c ****     case 0x00:  /* MSI used as system clock source */
 276:Core/Src/system_stm32l4xx.c ****       SystemCoreClock = msirange;
 157              		.loc 1 276 7 is_stmt 1 view .LVU36
 158              		.loc 1 276 23 is_stmt 0 view .LVU37
 159 0042 214B     		ldr	r3, .L19+8
 160 0044 1960     		str	r1, [r3]
 277:Core/Src/system_stm32l4xx.c ****       break;
 161              		.loc 1 277 7 is_stmt 1 view .LVU38
 162              	.LVL6:
 163              	.L13:
 278:Core/Src/system_stm32l4xx.c **** 
 279:Core/Src/system_stm32l4xx.c ****     case 0x04:  /* HSI used as system clock source */
 280:Core/Src/system_stm32l4xx.c ****       SystemCoreClock = HSI_VALUE;
 281:Core/Src/system_stm32l4xx.c ****       break;
 282:Core/Src/system_stm32l4xx.c **** 
 283:Core/Src/system_stm32l4xx.c ****     case 0x08:  /* HSE used as system clock source */
 284:Core/Src/system_stm32l4xx.c ****       SystemCoreClock = HSE_VALUE;
 285:Core/Src/system_stm32l4xx.c ****       break;
 286:Core/Src/system_stm32l4xx.c **** 
 287:Core/Src/system_stm32l4xx.c ****     case 0x0C:  /* PLL used as system clock  source */
 288:Core/Src/system_stm32l4xx.c ****       /* PLL_VCO = (HSE_VALUE or HSI_VALUE or MSI_VALUE/ PLLM) * PLLN
 289:Core/Src/system_stm32l4xx.c ****          SYSCLK = PLL_VCO / PLLR
 290:Core/Src/system_stm32l4xx.c ****          */
 291:Core/Src/system_stm32l4xx.c ****       pllsource = (RCC->PLLCFGR & RCC_PLLCFGR_PLLSRC);
 292:Core/Src/system_stm32l4xx.c ****       pllm = ((RCC->PLLCFGR & RCC_PLLCFGR_PLLM) >> 4U) + 1U ;
ARM GAS  C:\Users\union\AppData\Local\Temp\ccy9DkAi.s 			page 9


 293:Core/Src/system_stm32l4xx.c **** 
 294:Core/Src/system_stm32l4xx.c ****       switch (pllsource)
 295:Core/Src/system_stm32l4xx.c ****       {
 296:Core/Src/system_stm32l4xx.c ****         case 0x02:  /* HSI used as PLL clock source */
 297:Core/Src/system_stm32l4xx.c ****           pllvco = (HSI_VALUE / pllm);
 298:Core/Src/system_stm32l4xx.c ****           break;
 299:Core/Src/system_stm32l4xx.c **** 
 300:Core/Src/system_stm32l4xx.c ****         case 0x03:  /* HSE used as PLL clock source */
 301:Core/Src/system_stm32l4xx.c ****           pllvco = (HSE_VALUE / pllm);
 302:Core/Src/system_stm32l4xx.c ****           break;
 303:Core/Src/system_stm32l4xx.c **** 
 304:Core/Src/system_stm32l4xx.c ****         default:    /* MSI used as PLL clock source */
 305:Core/Src/system_stm32l4xx.c ****           pllvco = (msirange / pllm);
 306:Core/Src/system_stm32l4xx.c ****           break;
 307:Core/Src/system_stm32l4xx.c ****       }
 308:Core/Src/system_stm32l4xx.c ****       pllvco = pllvco * ((RCC->PLLCFGR & RCC_PLLCFGR_PLLN) >> 8U);
 309:Core/Src/system_stm32l4xx.c ****       pllr = (((RCC->PLLCFGR & RCC_PLLCFGR_PLLR) >> 25U) + 1U) * 2U;
 310:Core/Src/system_stm32l4xx.c ****       SystemCoreClock = pllvco/pllr;
 311:Core/Src/system_stm32l4xx.c ****       break;
 312:Core/Src/system_stm32l4xx.c **** 
 313:Core/Src/system_stm32l4xx.c ****     default:
 314:Core/Src/system_stm32l4xx.c ****       SystemCoreClock = msirange;
 315:Core/Src/system_stm32l4xx.c ****       break;
 316:Core/Src/system_stm32l4xx.c ****   }
 317:Core/Src/system_stm32l4xx.c ****   /* Compute HCLK clock frequency --------------------------------------------*/
 318:Core/Src/system_stm32l4xx.c ****   /* Get HCLK prescaler */
 319:Core/Src/system_stm32l4xx.c ****   tmp = AHBPrescTable[((RCC->CFGR & RCC_CFGR_HPRE) >> 4U)];
 164              		.loc 1 319 3 view .LVU39
 165              		.loc 1 319 28 is_stmt 0 view .LVU40
 166 0046 1E4B     		ldr	r3, .L19
 167 0048 9B68     		ldr	r3, [r3, #8]
 168              		.loc 1 319 52 view .LVU41
 169 004a C3F30313 		ubfx	r3, r3, #4, #4
 170              		.loc 1 319 22 view .LVU42
 171 004e 1F4A     		ldr	r2, .L19+12
 172 0050 D15C     		ldrb	r1, [r2, r3]	@ zero_extendqisi2
 173              	.LVL7:
 320:Core/Src/system_stm32l4xx.c ****   /* HCLK clock frequency */
 321:Core/Src/system_stm32l4xx.c ****   SystemCoreClock >>= tmp;
 174              		.loc 1 321 3 is_stmt 1 view .LVU43
 175              		.loc 1 321 19 is_stmt 0 view .LVU44
 176 0052 1D4A     		ldr	r2, .L19+8
 177 0054 1368     		ldr	r3, [r2]
 178 0056 CB40     		lsrs	r3, r3, r1
 179 0058 1360     		str	r3, [r2]
 322:Core/Src/system_stm32l4xx.c **** }
 180              		.loc 1 322 1 view .LVU45
 181 005a 7047     		bx	lr
 182              	.LVL8:
 183              	.L11:
 280:Core/Src/system_stm32l4xx.c ****       break;
 184              		.loc 1 280 7 is_stmt 1 view .LVU46
 280:Core/Src/system_stm32l4xx.c ****       break;
 185              		.loc 1 280 23 is_stmt 0 view .LVU47
 186 005c 1A4B     		ldr	r3, .L19+8
 187 005e 1C4A     		ldr	r2, .L19+16
 188 0060 1A60     		str	r2, [r3]
ARM GAS  C:\Users\union\AppData\Local\Temp\ccy9DkAi.s 			page 10


 281:Core/Src/system_stm32l4xx.c **** 
 189              		.loc 1 281 7 is_stmt 1 view .LVU48
 190 0062 F0E7     		b	.L13
 191              	.L10:
 284:Core/Src/system_stm32l4xx.c ****       break;
 192              		.loc 1 284 7 view .LVU49
 284:Core/Src/system_stm32l4xx.c ****       break;
 193              		.loc 1 284 23 is_stmt 0 view .LVU50
 194 0064 184B     		ldr	r3, .L19+8
 195 0066 1B4A     		ldr	r2, .L19+20
 196 0068 1A60     		str	r2, [r3]
 285:Core/Src/system_stm32l4xx.c **** 
 197              		.loc 1 285 7 is_stmt 1 view .LVU51
 198 006a ECE7     		b	.L13
 199              	.L8:
 291:Core/Src/system_stm32l4xx.c ****       pllm = ((RCC->PLLCFGR & RCC_PLLCFGR_PLLM) >> 4U) + 1U ;
 200              		.loc 1 291 7 view .LVU52
 291:Core/Src/system_stm32l4xx.c ****       pllm = ((RCC->PLLCFGR & RCC_PLLCFGR_PLLM) >> 4U) + 1U ;
 201              		.loc 1 291 23 is_stmt 0 view .LVU53
 202 006c 144B     		ldr	r3, .L19
 203 006e DA68     		ldr	r2, [r3, #12]
 291:Core/Src/system_stm32l4xx.c ****       pllm = ((RCC->PLLCFGR & RCC_PLLCFGR_PLLM) >> 4U) + 1U ;
 204              		.loc 1 291 17 view .LVU54
 205 0070 02F00302 		and	r2, r2, #3
 206              	.LVL9:
 292:Core/Src/system_stm32l4xx.c **** 
 207              		.loc 1 292 7 is_stmt 1 view .LVU55
 292:Core/Src/system_stm32l4xx.c **** 
 208              		.loc 1 292 19 is_stmt 0 view .LVU56
 209 0074 DB68     		ldr	r3, [r3, #12]
 292:Core/Src/system_stm32l4xx.c **** 
 210              		.loc 1 292 49 view .LVU57
 211 0076 C3F30213 		ubfx	r3, r3, #4, #3
 292:Core/Src/system_stm32l4xx.c **** 
 212              		.loc 1 292 12 view .LVU58
 213 007a 0133     		adds	r3, r3, #1
 214              	.LVL10:
 294:Core/Src/system_stm32l4xx.c ****       {
 215              		.loc 1 294 7 is_stmt 1 view .LVU59
 216 007c 022A     		cmp	r2, #2
 217 007e 04D0     		beq	.L14
 218 0080 032A     		cmp	r2, #3
 219 0082 15D0     		beq	.L15
 305:Core/Src/system_stm32l4xx.c ****           break;
 220              		.loc 1 305 11 view .LVU60
 305:Core/Src/system_stm32l4xx.c ****           break;
 221              		.loc 1 305 18 is_stmt 0 view .LVU61
 222 0084 B1FBF3F3 		udiv	r3, r1, r3
 223              	.LVL11:
 306:Core/Src/system_stm32l4xx.c ****       }
 224              		.loc 1 306 11 is_stmt 1 view .LVU62
 225 0088 02E0     		b	.L17
 226              	.LVL12:
 227              	.L14:
 297:Core/Src/system_stm32l4xx.c ****           break;
 228              		.loc 1 297 11 view .LVU63
 297:Core/Src/system_stm32l4xx.c ****           break;
ARM GAS  C:\Users\union\AppData\Local\Temp\ccy9DkAi.s 			page 11


 229              		.loc 1 297 18 is_stmt 0 view .LVU64
 230 008a 114A     		ldr	r2, .L19+16
 231              	.LVL13:
 297:Core/Src/system_stm32l4xx.c ****           break;
 232              		.loc 1 297 18 view .LVU65
 233 008c B2FBF3F3 		udiv	r3, r2, r3
 234              	.LVL14:
 298:Core/Src/system_stm32l4xx.c **** 
 235              		.loc 1 298 11 is_stmt 1 view .LVU66
 236              	.L17:
 308:Core/Src/system_stm32l4xx.c ****       pllr = (((RCC->PLLCFGR & RCC_PLLCFGR_PLLR) >> 25U) + 1U) * 2U;
 237              		.loc 1 308 7 view .LVU67
 308:Core/Src/system_stm32l4xx.c ****       pllr = (((RCC->PLLCFGR & RCC_PLLCFGR_PLLR) >> 25U) + 1U) * 2U;
 238              		.loc 1 308 30 is_stmt 0 view .LVU68
 239 0090 0B49     		ldr	r1, .L19
 240              	.LVL15:
 308:Core/Src/system_stm32l4xx.c ****       pllr = (((RCC->PLLCFGR & RCC_PLLCFGR_PLLR) >> 25U) + 1U) * 2U;
 241              		.loc 1 308 30 view .LVU69
 242 0092 CA68     		ldr	r2, [r1, #12]
 308:Core/Src/system_stm32l4xx.c ****       pllr = (((RCC->PLLCFGR & RCC_PLLCFGR_PLLR) >> 25U) + 1U) * 2U;
 243              		.loc 1 308 60 view .LVU70
 244 0094 C2F30622 		ubfx	r2, r2, #8, #7
 308:Core/Src/system_stm32l4xx.c ****       pllr = (((RCC->PLLCFGR & RCC_PLLCFGR_PLLR) >> 25U) + 1U) * 2U;
 245              		.loc 1 308 14 view .LVU71
 246 0098 03FB02F3 		mul	r3, r3, r2
 247              	.LVL16:
 309:Core/Src/system_stm32l4xx.c ****       SystemCoreClock = pllvco/pllr;
 248              		.loc 1 309 7 is_stmt 1 view .LVU72
 309:Core/Src/system_stm32l4xx.c ****       SystemCoreClock = pllvco/pllr;
 249              		.loc 1 309 20 is_stmt 0 view .LVU73
 250 009c CA68     		ldr	r2, [r1, #12]
 309:Core/Src/system_stm32l4xx.c ****       SystemCoreClock = pllvco/pllr;
 251              		.loc 1 309 50 view .LVU74
 252 009e C2F34162 		ubfx	r2, r2, #25, #2
 309:Core/Src/system_stm32l4xx.c ****       SystemCoreClock = pllvco/pllr;
 253              		.loc 1 309 64 view .LVU75
 254 00a2 0132     		adds	r2, r2, #1
 309:Core/Src/system_stm32l4xx.c ****       SystemCoreClock = pllvco/pllr;
 255              		.loc 1 309 12 view .LVU76
 256 00a4 5200     		lsls	r2, r2, #1
 257              	.LVL17:
 310:Core/Src/system_stm32l4xx.c ****       break;
 258              		.loc 1 310 7 is_stmt 1 view .LVU77
 310:Core/Src/system_stm32l4xx.c ****       break;
 259              		.loc 1 310 31 is_stmt 0 view .LVU78
 260 00a6 B3FBF2F3 		udiv	r3, r3, r2
 261              	.LVL18:
 310:Core/Src/system_stm32l4xx.c ****       break;
 262              		.loc 1 310 23 view .LVU79
 263 00aa 074A     		ldr	r2, .L19+8
 264              	.LVL19:
 310:Core/Src/system_stm32l4xx.c ****       break;
 265              		.loc 1 310 23 view .LVU80
 266 00ac 1360     		str	r3, [r2]
 311:Core/Src/system_stm32l4xx.c **** 
 267              		.loc 1 311 7 is_stmt 1 view .LVU81
 268 00ae CAE7     		b	.L13
ARM GAS  C:\Users\union\AppData\Local\Temp\ccy9DkAi.s 			page 12


 269              	.LVL20:
 270              	.L15:
 301:Core/Src/system_stm32l4xx.c ****           break;
 271              		.loc 1 301 11 view .LVU82
 301:Core/Src/system_stm32l4xx.c ****           break;
 272              		.loc 1 301 18 is_stmt 0 view .LVU83
 273 00b0 084A     		ldr	r2, .L19+20
 274              	.LVL21:
 301:Core/Src/system_stm32l4xx.c ****           break;
 275              		.loc 1 301 18 view .LVU84
 276 00b2 B2FBF3F3 		udiv	r3, r2, r3
 277              	.LVL22:
 302:Core/Src/system_stm32l4xx.c **** 
 278              		.loc 1 302 11 is_stmt 1 view .LVU85
 279 00b6 EBE7     		b	.L17
 280              	.LVL23:
 281              	.L7:
 314:Core/Src/system_stm32l4xx.c ****       break;
 282              		.loc 1 314 7 view .LVU86
 314:Core/Src/system_stm32l4xx.c ****       break;
 283              		.loc 1 314 23 is_stmt 0 view .LVU87
 284 00b8 034B     		ldr	r3, .L19+8
 285 00ba 1960     		str	r1, [r3]
 315:Core/Src/system_stm32l4xx.c ****   }
 286              		.loc 1 315 7 is_stmt 1 view .LVU88
 287 00bc C3E7     		b	.L13
 288              	.L20:
 289 00be 00BF     		.align	2
 290              	.L19:
 291 00c0 00100240 		.word	1073876992
 292 00c4 00000000 		.word	.LANCHOR0
 293 00c8 00000000 		.word	.LANCHOR1
 294 00cc 00000000 		.word	.LANCHOR2
 295 00d0 0024F400 		.word	16000000
 296 00d4 00127A00 		.word	8000000
 297              		.cfi_endproc
 298              	.LFE133:
 300              		.global	MSIRangeTable
 301              		.global	APBPrescTable
 302              		.global	AHBPrescTable
 303              		.global	SystemCoreClock
 304              		.section	.data.SystemCoreClock,"aw"
 305              		.align	2
 306              		.set	.LANCHOR1,. + 0
 309              	SystemCoreClock:
 310 0000 00093D00 		.word	4000000
 311              		.section	.rodata.AHBPrescTable,"a"
 312              		.align	2
 313              		.set	.LANCHOR2,. + 0
 316              	AHBPrescTable:
 317 0000 00       		.byte	0
 318 0001 00       		.byte	0
 319 0002 00       		.byte	0
 320 0003 00       		.byte	0
 321 0004 00       		.byte	0
 322 0005 00       		.byte	0
 323 0006 00       		.byte	0
ARM GAS  C:\Users\union\AppData\Local\Temp\ccy9DkAi.s 			page 13


 324 0007 00       		.byte	0
 325 0008 01       		.byte	1
 326 0009 02       		.byte	2
 327 000a 03       		.byte	3
 328 000b 04       		.byte	4
 329 000c 06       		.byte	6
 330 000d 07       		.byte	7
 331 000e 08       		.byte	8
 332 000f 09       		.byte	9
 333              		.section	.rodata.APBPrescTable,"a"
 334              		.align	2
 337              	APBPrescTable:
 338 0000 00       		.byte	0
 339 0001 00       		.byte	0
 340 0002 00       		.byte	0
 341 0003 00       		.byte	0
 342 0004 01       		.byte	1
 343 0005 02       		.byte	2
 344 0006 03       		.byte	3
 345 0007 04       		.byte	4
 346              		.section	.rodata.MSIRangeTable,"a"
 347              		.align	2
 348              		.set	.LANCHOR0,. + 0
 351              	MSIRangeTable:
 352 0000 A0860100 		.word	100000
 353 0004 400D0300 		.word	200000
 354 0008 801A0600 		.word	400000
 355 000c 00350C00 		.word	800000
 356 0010 40420F00 		.word	1000000
 357 0014 80841E00 		.word	2000000
 358 0018 00093D00 		.word	4000000
 359 001c 00127A00 		.word	8000000
 360 0020 0024F400 		.word	16000000
 361 0024 00366E01 		.word	24000000
 362 0028 0048E801 		.word	32000000
 363 002c 006CDC02 		.word	48000000
 364              		.text
 365              	.Letext0:
 366              		.file 2 "c:\\arm_tool\\gcc\\arm-none-eabi\\include\\machine\\_default_types.h"
 367              		.file 3 "c:\\arm_tool\\gcc\\arm-none-eabi\\include\\sys\\_stdint.h"
 368              		.file 4 "Drivers/CMSIS/Include/core_cm4.h"
 369              		.file 5 "Drivers/CMSIS/Device/ST/STM32L4xx/Include/system_stm32l4xx.h"
 370              		.file 6 "Drivers/CMSIS/Device/ST/STM32L4xx/Include/stm32l476xx.h"
 371              		.file 7 "Drivers/CMSIS/Device/ST/STM32L4xx/Include/stm32l4xx.h"
 372              		.file 8 "Drivers/STM32L4xx_HAL_Driver/Inc/stm32l4xx_hal_def.h"
 373              		.file 9 "Drivers/STM32L4xx_HAL_Driver/Inc/stm32l4xx_hal_flash.h"
 374              		.file 10 "Drivers/STM32L4xx_HAL_Driver/Inc/stm32l4xx_hal.h"
ARM GAS  C:\Users\union\AppData\Local\Temp\ccy9DkAi.s 			page 14


DEFINED SYMBOLS
                            *ABS*:0000000000000000 system_stm32l4xx.c
C:\Users\union\AppData\Local\Temp\ccy9DkAi.s:18     .text.SystemInit:0000000000000000 $t
C:\Users\union\AppData\Local\Temp\ccy9DkAi.s:26     .text.SystemInit:0000000000000000 SystemInit
C:\Users\union\AppData\Local\Temp\ccy9DkAi.s:77     .text.SystemInit:0000000000000040 $d
C:\Users\union\AppData\Local\Temp\ccy9DkAi.s:83     .text.SystemCoreClockUpdate:0000000000000000 $t
C:\Users\union\AppData\Local\Temp\ccy9DkAi.s:90     .text.SystemCoreClockUpdate:0000000000000000 SystemCoreClockUpdate
C:\Users\union\AppData\Local\Temp\ccy9DkAi.s:130    .text.SystemCoreClockUpdate:000000000000002a $d
C:\Users\union\AppData\Local\Temp\ccy9DkAi.s:291    .text.SystemCoreClockUpdate:00000000000000c0 $d
C:\Users\union\AppData\Local\Temp\ccy9DkAi.s:351    .rodata.MSIRangeTable:0000000000000000 MSIRangeTable
C:\Users\union\AppData\Local\Temp\ccy9DkAi.s:337    .rodata.APBPrescTable:0000000000000000 APBPrescTable
C:\Users\union\AppData\Local\Temp\ccy9DkAi.s:316    .rodata.AHBPrescTable:0000000000000000 AHBPrescTable
C:\Users\union\AppData\Local\Temp\ccy9DkAi.s:309    .data.SystemCoreClock:0000000000000000 SystemCoreClock
C:\Users\union\AppData\Local\Temp\ccy9DkAi.s:305    .data.SystemCoreClock:0000000000000000 $d
C:\Users\union\AppData\Local\Temp\ccy9DkAi.s:312    .rodata.AHBPrescTable:0000000000000000 $d
C:\Users\union\AppData\Local\Temp\ccy9DkAi.s:334    .rodata.APBPrescTable:0000000000000000 $d
C:\Users\union\AppData\Local\Temp\ccy9DkAi.s:347    .rodata.MSIRangeTable:0000000000000000 $d
C:\Users\union\AppData\Local\Temp\ccy9DkAi.s:144    .text.SystemCoreClockUpdate:0000000000000037 $d
C:\Users\union\AppData\Local\Temp\ccy9DkAi.s:144    .text.SystemCoreClockUpdate:0000000000000038 $t

NO UNDEFINED SYMBOLS
