ARM GAS  C:\Users\union\AppData\Local\Temp\ccc20eai.s 			page 1


   1              		.cpu cortex-m4
   2              		.eabi_attribute 27, 1
   3              		.eabi_attribute 28, 1
   4              		.eabi_attribute 20, 1
   5              		.eabi_attribute 21, 1
   6              		.eabi_attribute 23, 3
   7              		.eabi_attribute 24, 1
   8              		.eabi_attribute 25, 1
   9              		.eabi_attribute 26, 1
  10              		.eabi_attribute 30, 1
  11              		.eabi_attribute 34, 1
  12              		.eabi_attribute 18, 4
  13              		.file	"usbh_ctlreq.c"
  14              		.text
  15              	.Ltext0:
  16              		.cfi_sections	.debug_frame
  17              		.section	.text.USBH_ParseDevDesc,"ax",%progbits
  18              		.align	1
  19              		.arch armv7e-m
  20              		.syntax unified
  21              		.thumb
  22              		.thumb_func
  23              		.fpu fpv4-sp-d16
  25              	USBH_ParseDevDesc:
  26              	.LVL0:
  27              	.LFB144:
  28              		.file 1 "Middlewares/ST/STM32_USB_Host_Library/Core/Src/usbh_ctlreq.c"
   1:Middlewares/ST/STM32_USB_Host_Library/Core/Src/usbh_ctlreq.c **** /**
   2:Middlewares/ST/STM32_USB_Host_Library/Core/Src/usbh_ctlreq.c ****   ******************************************************************************
   3:Middlewares/ST/STM32_USB_Host_Library/Core/Src/usbh_ctlreq.c ****   * @file    usbh_ctlreq.c
   4:Middlewares/ST/STM32_USB_Host_Library/Core/Src/usbh_ctlreq.c ****   * @author  MCD Application Team
   5:Middlewares/ST/STM32_USB_Host_Library/Core/Src/usbh_ctlreq.c ****   * @brief   This file implements the control requests for device enumeration
   6:Middlewares/ST/STM32_USB_Host_Library/Core/Src/usbh_ctlreq.c ****   ******************************************************************************
   7:Middlewares/ST/STM32_USB_Host_Library/Core/Src/usbh_ctlreq.c ****   * @attention
   8:Middlewares/ST/STM32_USB_Host_Library/Core/Src/usbh_ctlreq.c ****   *
   9:Middlewares/ST/STM32_USB_Host_Library/Core/Src/usbh_ctlreq.c ****   * <h2><center>&copy; Copyright (c) 2015 STMicroelectronics.
  10:Middlewares/ST/STM32_USB_Host_Library/Core/Src/usbh_ctlreq.c ****   * All rights reserved.</center></h2>
  11:Middlewares/ST/STM32_USB_Host_Library/Core/Src/usbh_ctlreq.c ****   *
  12:Middlewares/ST/STM32_USB_Host_Library/Core/Src/usbh_ctlreq.c ****   * This software component is licensed by ST under Ultimate Liberty license
  13:Middlewares/ST/STM32_USB_Host_Library/Core/Src/usbh_ctlreq.c ****   * SLA0044, the "License"; You may not use this file except in compliance with
  14:Middlewares/ST/STM32_USB_Host_Library/Core/Src/usbh_ctlreq.c ****   * the License. You may obtain a copy of the License at:
  15:Middlewares/ST/STM32_USB_Host_Library/Core/Src/usbh_ctlreq.c ****   *                      www.st.com/SLA0044
  16:Middlewares/ST/STM32_USB_Host_Library/Core/Src/usbh_ctlreq.c ****   *
  17:Middlewares/ST/STM32_USB_Host_Library/Core/Src/usbh_ctlreq.c ****   ******************************************************************************
  18:Middlewares/ST/STM32_USB_Host_Library/Core/Src/usbh_ctlreq.c ****   */
  19:Middlewares/ST/STM32_USB_Host_Library/Core/Src/usbh_ctlreq.c **** 
  20:Middlewares/ST/STM32_USB_Host_Library/Core/Src/usbh_ctlreq.c **** /* Includes ------------------------------------------------------------------*/
  21:Middlewares/ST/STM32_USB_Host_Library/Core/Src/usbh_ctlreq.c **** #include "usbh_ctlreq.h"
  22:Middlewares/ST/STM32_USB_Host_Library/Core/Src/usbh_ctlreq.c **** 
  23:Middlewares/ST/STM32_USB_Host_Library/Core/Src/usbh_ctlreq.c **** /** @addtogroup USBH_LIB
  24:Middlewares/ST/STM32_USB_Host_Library/Core/Src/usbh_ctlreq.c **** * @{
  25:Middlewares/ST/STM32_USB_Host_Library/Core/Src/usbh_ctlreq.c **** */
  26:Middlewares/ST/STM32_USB_Host_Library/Core/Src/usbh_ctlreq.c **** 
  27:Middlewares/ST/STM32_USB_Host_Library/Core/Src/usbh_ctlreq.c **** /** @addtogroup USBH_LIB_CORE
  28:Middlewares/ST/STM32_USB_Host_Library/Core/Src/usbh_ctlreq.c **** * @{
  29:Middlewares/ST/STM32_USB_Host_Library/Core/Src/usbh_ctlreq.c **** */
  30:Middlewares/ST/STM32_USB_Host_Library/Core/Src/usbh_ctlreq.c **** 
ARM GAS  C:\Users\union\AppData\Local\Temp\ccc20eai.s 			page 2


  31:Middlewares/ST/STM32_USB_Host_Library/Core/Src/usbh_ctlreq.c **** /** @defgroup USBH_CTLREQ
  32:Middlewares/ST/STM32_USB_Host_Library/Core/Src/usbh_ctlreq.c **** * @brief This file implements the standard requests for device enumeration
  33:Middlewares/ST/STM32_USB_Host_Library/Core/Src/usbh_ctlreq.c **** * @{
  34:Middlewares/ST/STM32_USB_Host_Library/Core/Src/usbh_ctlreq.c **** */
  35:Middlewares/ST/STM32_USB_Host_Library/Core/Src/usbh_ctlreq.c **** 
  36:Middlewares/ST/STM32_USB_Host_Library/Core/Src/usbh_ctlreq.c **** 
  37:Middlewares/ST/STM32_USB_Host_Library/Core/Src/usbh_ctlreq.c **** /** @defgroup USBH_CTLREQ_Private_Defines
  38:Middlewares/ST/STM32_USB_Host_Library/Core/Src/usbh_ctlreq.c **** * @{
  39:Middlewares/ST/STM32_USB_Host_Library/Core/Src/usbh_ctlreq.c **** */
  40:Middlewares/ST/STM32_USB_Host_Library/Core/Src/usbh_ctlreq.c **** /**
  41:Middlewares/ST/STM32_USB_Host_Library/Core/Src/usbh_ctlreq.c **** * @}
  42:Middlewares/ST/STM32_USB_Host_Library/Core/Src/usbh_ctlreq.c **** */
  43:Middlewares/ST/STM32_USB_Host_Library/Core/Src/usbh_ctlreq.c **** 
  44:Middlewares/ST/STM32_USB_Host_Library/Core/Src/usbh_ctlreq.c **** 
  45:Middlewares/ST/STM32_USB_Host_Library/Core/Src/usbh_ctlreq.c **** /** @defgroup USBH_CTLREQ_Private_TypesDefinitions
  46:Middlewares/ST/STM32_USB_Host_Library/Core/Src/usbh_ctlreq.c **** * @{
  47:Middlewares/ST/STM32_USB_Host_Library/Core/Src/usbh_ctlreq.c **** */
  48:Middlewares/ST/STM32_USB_Host_Library/Core/Src/usbh_ctlreq.c **** /**
  49:Middlewares/ST/STM32_USB_Host_Library/Core/Src/usbh_ctlreq.c **** * @}
  50:Middlewares/ST/STM32_USB_Host_Library/Core/Src/usbh_ctlreq.c **** */
  51:Middlewares/ST/STM32_USB_Host_Library/Core/Src/usbh_ctlreq.c **** 
  52:Middlewares/ST/STM32_USB_Host_Library/Core/Src/usbh_ctlreq.c **** 
  53:Middlewares/ST/STM32_USB_Host_Library/Core/Src/usbh_ctlreq.c **** 
  54:Middlewares/ST/STM32_USB_Host_Library/Core/Src/usbh_ctlreq.c **** /** @defgroup USBH_CTLREQ_Private_Macros
  55:Middlewares/ST/STM32_USB_Host_Library/Core/Src/usbh_ctlreq.c **** * @{
  56:Middlewares/ST/STM32_USB_Host_Library/Core/Src/usbh_ctlreq.c **** */
  57:Middlewares/ST/STM32_USB_Host_Library/Core/Src/usbh_ctlreq.c **** /**
  58:Middlewares/ST/STM32_USB_Host_Library/Core/Src/usbh_ctlreq.c **** * @}
  59:Middlewares/ST/STM32_USB_Host_Library/Core/Src/usbh_ctlreq.c **** */
  60:Middlewares/ST/STM32_USB_Host_Library/Core/Src/usbh_ctlreq.c **** 
  61:Middlewares/ST/STM32_USB_Host_Library/Core/Src/usbh_ctlreq.c **** 
  62:Middlewares/ST/STM32_USB_Host_Library/Core/Src/usbh_ctlreq.c **** /** @defgroup USBH_CTLREQ_Private_Variables
  63:Middlewares/ST/STM32_USB_Host_Library/Core/Src/usbh_ctlreq.c **** * @{
  64:Middlewares/ST/STM32_USB_Host_Library/Core/Src/usbh_ctlreq.c **** */
  65:Middlewares/ST/STM32_USB_Host_Library/Core/Src/usbh_ctlreq.c **** /**
  66:Middlewares/ST/STM32_USB_Host_Library/Core/Src/usbh_ctlreq.c **** * @}
  67:Middlewares/ST/STM32_USB_Host_Library/Core/Src/usbh_ctlreq.c **** */
  68:Middlewares/ST/STM32_USB_Host_Library/Core/Src/usbh_ctlreq.c **** 
  69:Middlewares/ST/STM32_USB_Host_Library/Core/Src/usbh_ctlreq.c **** /** @defgroup USBH_CTLREQ_Private_FunctionPrototypes
  70:Middlewares/ST/STM32_USB_Host_Library/Core/Src/usbh_ctlreq.c **** * @{
  71:Middlewares/ST/STM32_USB_Host_Library/Core/Src/usbh_ctlreq.c **** */
  72:Middlewares/ST/STM32_USB_Host_Library/Core/Src/usbh_ctlreq.c **** static USBH_StatusTypeDef USBH_HandleControl(USBH_HandleTypeDef *phost);
  73:Middlewares/ST/STM32_USB_Host_Library/Core/Src/usbh_ctlreq.c **** 
  74:Middlewares/ST/STM32_USB_Host_Library/Core/Src/usbh_ctlreq.c **** static void USBH_ParseDevDesc(USBH_DevDescTypeDef *dev_desc,
  75:Middlewares/ST/STM32_USB_Host_Library/Core/Src/usbh_ctlreq.c ****                               uint8_t *buf, uint16_t length);
  76:Middlewares/ST/STM32_USB_Host_Library/Core/Src/usbh_ctlreq.c **** 
  77:Middlewares/ST/STM32_USB_Host_Library/Core/Src/usbh_ctlreq.c **** static void USBH_ParseCfgDesc(USBH_CfgDescTypeDef *cfg_desc,
  78:Middlewares/ST/STM32_USB_Host_Library/Core/Src/usbh_ctlreq.c ****                               uint8_t *buf, uint16_t length);
  79:Middlewares/ST/STM32_USB_Host_Library/Core/Src/usbh_ctlreq.c **** 
  80:Middlewares/ST/STM32_USB_Host_Library/Core/Src/usbh_ctlreq.c **** static void USBH_ParseEPDesc(USBH_EpDescTypeDef  *ep_descriptor, uint8_t *buf);
  81:Middlewares/ST/STM32_USB_Host_Library/Core/Src/usbh_ctlreq.c **** static void USBH_ParseStringDesc(uint8_t *psrc, uint8_t *pdest, uint16_t length);
  82:Middlewares/ST/STM32_USB_Host_Library/Core/Src/usbh_ctlreq.c **** static void USBH_ParseInterfaceDesc(USBH_InterfaceDescTypeDef  *if_descriptor, uint8_t *buf);
  83:Middlewares/ST/STM32_USB_Host_Library/Core/Src/usbh_ctlreq.c **** 
  84:Middlewares/ST/STM32_USB_Host_Library/Core/Src/usbh_ctlreq.c **** 
  85:Middlewares/ST/STM32_USB_Host_Library/Core/Src/usbh_ctlreq.c **** /**
  86:Middlewares/ST/STM32_USB_Host_Library/Core/Src/usbh_ctlreq.c **** * @}
  87:Middlewares/ST/STM32_USB_Host_Library/Core/Src/usbh_ctlreq.c **** */
ARM GAS  C:\Users\union\AppData\Local\Temp\ccc20eai.s 			page 3


  88:Middlewares/ST/STM32_USB_Host_Library/Core/Src/usbh_ctlreq.c **** 
  89:Middlewares/ST/STM32_USB_Host_Library/Core/Src/usbh_ctlreq.c **** 
  90:Middlewares/ST/STM32_USB_Host_Library/Core/Src/usbh_ctlreq.c **** /** @defgroup USBH_CTLREQ_Private_Functions
  91:Middlewares/ST/STM32_USB_Host_Library/Core/Src/usbh_ctlreq.c **** * @{
  92:Middlewares/ST/STM32_USB_Host_Library/Core/Src/usbh_ctlreq.c **** */
  93:Middlewares/ST/STM32_USB_Host_Library/Core/Src/usbh_ctlreq.c **** 
  94:Middlewares/ST/STM32_USB_Host_Library/Core/Src/usbh_ctlreq.c **** 
  95:Middlewares/ST/STM32_USB_Host_Library/Core/Src/usbh_ctlreq.c **** /**
  96:Middlewares/ST/STM32_USB_Host_Library/Core/Src/usbh_ctlreq.c ****   * @brief  USBH_Get_DevDesc
  97:Middlewares/ST/STM32_USB_Host_Library/Core/Src/usbh_ctlreq.c ****   *         Issue Get Device Descriptor command to the device. Once the response
  98:Middlewares/ST/STM32_USB_Host_Library/Core/Src/usbh_ctlreq.c ****   *         received, it parses the device descriptor and updates the status.
  99:Middlewares/ST/STM32_USB_Host_Library/Core/Src/usbh_ctlreq.c ****   * @param  phost: Host Handle
 100:Middlewares/ST/STM32_USB_Host_Library/Core/Src/usbh_ctlreq.c ****   * @param  length: Length of the descriptor
 101:Middlewares/ST/STM32_USB_Host_Library/Core/Src/usbh_ctlreq.c ****   * @retval USBH Status
 102:Middlewares/ST/STM32_USB_Host_Library/Core/Src/usbh_ctlreq.c ****   */
 103:Middlewares/ST/STM32_USB_Host_Library/Core/Src/usbh_ctlreq.c **** USBH_StatusTypeDef USBH_Get_DevDesc(USBH_HandleTypeDef *phost, uint8_t length)
 104:Middlewares/ST/STM32_USB_Host_Library/Core/Src/usbh_ctlreq.c **** {
 105:Middlewares/ST/STM32_USB_Host_Library/Core/Src/usbh_ctlreq.c ****   USBH_StatusTypeDef status;
 106:Middlewares/ST/STM32_USB_Host_Library/Core/Src/usbh_ctlreq.c **** 
 107:Middlewares/ST/STM32_USB_Host_Library/Core/Src/usbh_ctlreq.c ****   if ((status = USBH_GetDescriptor(phost,
 108:Middlewares/ST/STM32_USB_Host_Library/Core/Src/usbh_ctlreq.c ****                                    USB_REQ_RECIPIENT_DEVICE | USB_REQ_TYPE_STANDARD,
 109:Middlewares/ST/STM32_USB_Host_Library/Core/Src/usbh_ctlreq.c ****                                    USB_DESC_DEVICE, phost->device.Data,
 110:Middlewares/ST/STM32_USB_Host_Library/Core/Src/usbh_ctlreq.c ****                                    (uint16_t)length)) == USBH_OK)
 111:Middlewares/ST/STM32_USB_Host_Library/Core/Src/usbh_ctlreq.c ****   {
 112:Middlewares/ST/STM32_USB_Host_Library/Core/Src/usbh_ctlreq.c ****     /* Commands successfully sent and Response Received */
 113:Middlewares/ST/STM32_USB_Host_Library/Core/Src/usbh_ctlreq.c ****     USBH_ParseDevDesc(&phost->device.DevDesc, phost->device.Data,
 114:Middlewares/ST/STM32_USB_Host_Library/Core/Src/usbh_ctlreq.c ****                       (uint16_t)length);
 115:Middlewares/ST/STM32_USB_Host_Library/Core/Src/usbh_ctlreq.c ****   }
 116:Middlewares/ST/STM32_USB_Host_Library/Core/Src/usbh_ctlreq.c **** 
 117:Middlewares/ST/STM32_USB_Host_Library/Core/Src/usbh_ctlreq.c ****   return status;
 118:Middlewares/ST/STM32_USB_Host_Library/Core/Src/usbh_ctlreq.c **** }
 119:Middlewares/ST/STM32_USB_Host_Library/Core/Src/usbh_ctlreq.c **** 
 120:Middlewares/ST/STM32_USB_Host_Library/Core/Src/usbh_ctlreq.c **** 
 121:Middlewares/ST/STM32_USB_Host_Library/Core/Src/usbh_ctlreq.c **** /**
 122:Middlewares/ST/STM32_USB_Host_Library/Core/Src/usbh_ctlreq.c ****   * @brief  USBH_Get_CfgDesc
 123:Middlewares/ST/STM32_USB_Host_Library/Core/Src/usbh_ctlreq.c ****   *         Issues Configuration Descriptor to the device. Once the response
 124:Middlewares/ST/STM32_USB_Host_Library/Core/Src/usbh_ctlreq.c ****   *         received, it parses the configuration descriptor and updates the
 125:Middlewares/ST/STM32_USB_Host_Library/Core/Src/usbh_ctlreq.c ****   *         status.
 126:Middlewares/ST/STM32_USB_Host_Library/Core/Src/usbh_ctlreq.c ****   * @param  phost: Host Handle
 127:Middlewares/ST/STM32_USB_Host_Library/Core/Src/usbh_ctlreq.c ****   * @param  length: Length of the descriptor
 128:Middlewares/ST/STM32_USB_Host_Library/Core/Src/usbh_ctlreq.c ****   * @retval USBH Status
 129:Middlewares/ST/STM32_USB_Host_Library/Core/Src/usbh_ctlreq.c ****   */
 130:Middlewares/ST/STM32_USB_Host_Library/Core/Src/usbh_ctlreq.c **** USBH_StatusTypeDef USBH_Get_CfgDesc(USBH_HandleTypeDef *phost,
 131:Middlewares/ST/STM32_USB_Host_Library/Core/Src/usbh_ctlreq.c ****                                     uint16_t length)
 132:Middlewares/ST/STM32_USB_Host_Library/Core/Src/usbh_ctlreq.c **** 
 133:Middlewares/ST/STM32_USB_Host_Library/Core/Src/usbh_ctlreq.c **** {
 134:Middlewares/ST/STM32_USB_Host_Library/Core/Src/usbh_ctlreq.c ****   USBH_StatusTypeDef status;
 135:Middlewares/ST/STM32_USB_Host_Library/Core/Src/usbh_ctlreq.c ****   uint8_t *pData = phost->device.CfgDesc_Raw;;
 136:Middlewares/ST/STM32_USB_Host_Library/Core/Src/usbh_ctlreq.c **** 
 137:Middlewares/ST/STM32_USB_Host_Library/Core/Src/usbh_ctlreq.c ****   if ((status = USBH_GetDescriptor(phost, (USB_REQ_RECIPIENT_DEVICE | USB_REQ_TYPE_STANDARD),
 138:Middlewares/ST/STM32_USB_Host_Library/Core/Src/usbh_ctlreq.c ****                                    USB_DESC_CONFIGURATION, pData, length)) == USBH_OK)
 139:Middlewares/ST/STM32_USB_Host_Library/Core/Src/usbh_ctlreq.c ****   {
 140:Middlewares/ST/STM32_USB_Host_Library/Core/Src/usbh_ctlreq.c ****     /* Commands successfully sent and Response Received  */
 141:Middlewares/ST/STM32_USB_Host_Library/Core/Src/usbh_ctlreq.c ****     USBH_ParseCfgDesc(&phost->device.CfgDesc, pData, length);
 142:Middlewares/ST/STM32_USB_Host_Library/Core/Src/usbh_ctlreq.c ****   }
 143:Middlewares/ST/STM32_USB_Host_Library/Core/Src/usbh_ctlreq.c **** 
 144:Middlewares/ST/STM32_USB_Host_Library/Core/Src/usbh_ctlreq.c ****   return status;
ARM GAS  C:\Users\union\AppData\Local\Temp\ccc20eai.s 			page 4


 145:Middlewares/ST/STM32_USB_Host_Library/Core/Src/usbh_ctlreq.c **** }
 146:Middlewares/ST/STM32_USB_Host_Library/Core/Src/usbh_ctlreq.c **** 
 147:Middlewares/ST/STM32_USB_Host_Library/Core/Src/usbh_ctlreq.c **** 
 148:Middlewares/ST/STM32_USB_Host_Library/Core/Src/usbh_ctlreq.c **** /**
 149:Middlewares/ST/STM32_USB_Host_Library/Core/Src/usbh_ctlreq.c ****   * @brief  USBH_Get_StringDesc
 150:Middlewares/ST/STM32_USB_Host_Library/Core/Src/usbh_ctlreq.c ****   *         Issues string Descriptor command to the device. Once the response
 151:Middlewares/ST/STM32_USB_Host_Library/Core/Src/usbh_ctlreq.c ****   *         received, it parses the string descriptor and updates the status.
 152:Middlewares/ST/STM32_USB_Host_Library/Core/Src/usbh_ctlreq.c ****   * @param  phost: Host Handle
 153:Middlewares/ST/STM32_USB_Host_Library/Core/Src/usbh_ctlreq.c ****   * @param  string_index: String index for the descriptor
 154:Middlewares/ST/STM32_USB_Host_Library/Core/Src/usbh_ctlreq.c ****   * @param  buff: Buffer address for the descriptor
 155:Middlewares/ST/STM32_USB_Host_Library/Core/Src/usbh_ctlreq.c ****   * @param  length: Length of the descriptor
 156:Middlewares/ST/STM32_USB_Host_Library/Core/Src/usbh_ctlreq.c ****   * @retval USBH Status
 157:Middlewares/ST/STM32_USB_Host_Library/Core/Src/usbh_ctlreq.c ****   */
 158:Middlewares/ST/STM32_USB_Host_Library/Core/Src/usbh_ctlreq.c **** USBH_StatusTypeDef USBH_Get_StringDesc(USBH_HandleTypeDef *phost,
 159:Middlewares/ST/STM32_USB_Host_Library/Core/Src/usbh_ctlreq.c ****                                        uint8_t string_index, uint8_t *buff,
 160:Middlewares/ST/STM32_USB_Host_Library/Core/Src/usbh_ctlreq.c ****                                        uint16_t length)
 161:Middlewares/ST/STM32_USB_Host_Library/Core/Src/usbh_ctlreq.c **** {
 162:Middlewares/ST/STM32_USB_Host_Library/Core/Src/usbh_ctlreq.c ****   USBH_StatusTypeDef status;
 163:Middlewares/ST/STM32_USB_Host_Library/Core/Src/usbh_ctlreq.c **** 
 164:Middlewares/ST/STM32_USB_Host_Library/Core/Src/usbh_ctlreq.c ****   if ((status = USBH_GetDescriptor(phost,
 165:Middlewares/ST/STM32_USB_Host_Library/Core/Src/usbh_ctlreq.c ****                                    USB_REQ_RECIPIENT_DEVICE | USB_REQ_TYPE_STANDARD,
 166:Middlewares/ST/STM32_USB_Host_Library/Core/Src/usbh_ctlreq.c ****                                    USB_DESC_STRING | string_index,
 167:Middlewares/ST/STM32_USB_Host_Library/Core/Src/usbh_ctlreq.c ****                                    phost->device.Data, length)) == USBH_OK)
 168:Middlewares/ST/STM32_USB_Host_Library/Core/Src/usbh_ctlreq.c ****   {
 169:Middlewares/ST/STM32_USB_Host_Library/Core/Src/usbh_ctlreq.c ****     /* Commands successfully sent and Response Received  */
 170:Middlewares/ST/STM32_USB_Host_Library/Core/Src/usbh_ctlreq.c ****     USBH_ParseStringDesc(phost->device.Data, buff, length);
 171:Middlewares/ST/STM32_USB_Host_Library/Core/Src/usbh_ctlreq.c ****   }
 172:Middlewares/ST/STM32_USB_Host_Library/Core/Src/usbh_ctlreq.c **** 
 173:Middlewares/ST/STM32_USB_Host_Library/Core/Src/usbh_ctlreq.c ****   return status;
 174:Middlewares/ST/STM32_USB_Host_Library/Core/Src/usbh_ctlreq.c **** }
 175:Middlewares/ST/STM32_USB_Host_Library/Core/Src/usbh_ctlreq.c **** 
 176:Middlewares/ST/STM32_USB_Host_Library/Core/Src/usbh_ctlreq.c **** 
 177:Middlewares/ST/STM32_USB_Host_Library/Core/Src/usbh_ctlreq.c **** /**
 178:Middlewares/ST/STM32_USB_Host_Library/Core/Src/usbh_ctlreq.c ****   * @brief  USBH_GetDescriptor
 179:Middlewares/ST/STM32_USB_Host_Library/Core/Src/usbh_ctlreq.c ****   *         Issues Descriptor command to the device. Once the response received,
 180:Middlewares/ST/STM32_USB_Host_Library/Core/Src/usbh_ctlreq.c ****   *         it parses the descriptor and updates the status.
 181:Middlewares/ST/STM32_USB_Host_Library/Core/Src/usbh_ctlreq.c ****   * @param  phost: Host Handle
 182:Middlewares/ST/STM32_USB_Host_Library/Core/Src/usbh_ctlreq.c ****   * @param  req_type: Descriptor type
 183:Middlewares/ST/STM32_USB_Host_Library/Core/Src/usbh_ctlreq.c ****   * @param  value_idx: Value for the GetDescriptr request
 184:Middlewares/ST/STM32_USB_Host_Library/Core/Src/usbh_ctlreq.c ****   * @param  buff: Buffer to store the descriptor
 185:Middlewares/ST/STM32_USB_Host_Library/Core/Src/usbh_ctlreq.c ****   * @param  length: Length of the descriptor
 186:Middlewares/ST/STM32_USB_Host_Library/Core/Src/usbh_ctlreq.c ****   * @retval USBH Status
 187:Middlewares/ST/STM32_USB_Host_Library/Core/Src/usbh_ctlreq.c ****   */
 188:Middlewares/ST/STM32_USB_Host_Library/Core/Src/usbh_ctlreq.c **** USBH_StatusTypeDef USBH_GetDescriptor(USBH_HandleTypeDef *phost,
 189:Middlewares/ST/STM32_USB_Host_Library/Core/Src/usbh_ctlreq.c ****                                       uint8_t  req_type,
 190:Middlewares/ST/STM32_USB_Host_Library/Core/Src/usbh_ctlreq.c ****                                       uint16_t value_idx,
 191:Middlewares/ST/STM32_USB_Host_Library/Core/Src/usbh_ctlreq.c ****                                       uint8_t *buff,
 192:Middlewares/ST/STM32_USB_Host_Library/Core/Src/usbh_ctlreq.c ****                                       uint16_t length)
 193:Middlewares/ST/STM32_USB_Host_Library/Core/Src/usbh_ctlreq.c **** {
 194:Middlewares/ST/STM32_USB_Host_Library/Core/Src/usbh_ctlreq.c ****   if (phost->RequestState == CMD_SEND)
 195:Middlewares/ST/STM32_USB_Host_Library/Core/Src/usbh_ctlreq.c ****   {
 196:Middlewares/ST/STM32_USB_Host_Library/Core/Src/usbh_ctlreq.c ****     phost->Control.setup.b.bmRequestType = USB_D2H | req_type;
 197:Middlewares/ST/STM32_USB_Host_Library/Core/Src/usbh_ctlreq.c ****     phost->Control.setup.b.bRequest = USB_REQ_GET_DESCRIPTOR;
 198:Middlewares/ST/STM32_USB_Host_Library/Core/Src/usbh_ctlreq.c ****     phost->Control.setup.b.wValue.w = value_idx;
 199:Middlewares/ST/STM32_USB_Host_Library/Core/Src/usbh_ctlreq.c **** 
 200:Middlewares/ST/STM32_USB_Host_Library/Core/Src/usbh_ctlreq.c ****     if ((value_idx & 0xff00U) == USB_DESC_STRING)
 201:Middlewares/ST/STM32_USB_Host_Library/Core/Src/usbh_ctlreq.c ****     {
ARM GAS  C:\Users\union\AppData\Local\Temp\ccc20eai.s 			page 5


 202:Middlewares/ST/STM32_USB_Host_Library/Core/Src/usbh_ctlreq.c ****       phost->Control.setup.b.wIndex.w = 0x0409U;
 203:Middlewares/ST/STM32_USB_Host_Library/Core/Src/usbh_ctlreq.c ****     }
 204:Middlewares/ST/STM32_USB_Host_Library/Core/Src/usbh_ctlreq.c ****     else
 205:Middlewares/ST/STM32_USB_Host_Library/Core/Src/usbh_ctlreq.c ****     {
 206:Middlewares/ST/STM32_USB_Host_Library/Core/Src/usbh_ctlreq.c ****       phost->Control.setup.b.wIndex.w = 0U;
 207:Middlewares/ST/STM32_USB_Host_Library/Core/Src/usbh_ctlreq.c ****     }
 208:Middlewares/ST/STM32_USB_Host_Library/Core/Src/usbh_ctlreq.c ****     phost->Control.setup.b.wLength.w = length;
 209:Middlewares/ST/STM32_USB_Host_Library/Core/Src/usbh_ctlreq.c ****   }
 210:Middlewares/ST/STM32_USB_Host_Library/Core/Src/usbh_ctlreq.c **** 
 211:Middlewares/ST/STM32_USB_Host_Library/Core/Src/usbh_ctlreq.c ****   return USBH_CtlReq(phost, buff, length);
 212:Middlewares/ST/STM32_USB_Host_Library/Core/Src/usbh_ctlreq.c **** }
 213:Middlewares/ST/STM32_USB_Host_Library/Core/Src/usbh_ctlreq.c **** 
 214:Middlewares/ST/STM32_USB_Host_Library/Core/Src/usbh_ctlreq.c **** 
 215:Middlewares/ST/STM32_USB_Host_Library/Core/Src/usbh_ctlreq.c **** /**
 216:Middlewares/ST/STM32_USB_Host_Library/Core/Src/usbh_ctlreq.c ****   * @brief  USBH_SetAddress
 217:Middlewares/ST/STM32_USB_Host_Library/Core/Src/usbh_ctlreq.c ****   *         This command sets the address to the connected device
 218:Middlewares/ST/STM32_USB_Host_Library/Core/Src/usbh_ctlreq.c ****   * @param  phost: Host Handle
 219:Middlewares/ST/STM32_USB_Host_Library/Core/Src/usbh_ctlreq.c ****   * @param  DeviceAddress: Device address to assign
 220:Middlewares/ST/STM32_USB_Host_Library/Core/Src/usbh_ctlreq.c ****   * @retval USBH Status
 221:Middlewares/ST/STM32_USB_Host_Library/Core/Src/usbh_ctlreq.c ****   */
 222:Middlewares/ST/STM32_USB_Host_Library/Core/Src/usbh_ctlreq.c **** USBH_StatusTypeDef USBH_SetAddress(USBH_HandleTypeDef *phost,
 223:Middlewares/ST/STM32_USB_Host_Library/Core/Src/usbh_ctlreq.c ****                                    uint8_t DeviceAddress)
 224:Middlewares/ST/STM32_USB_Host_Library/Core/Src/usbh_ctlreq.c **** {
 225:Middlewares/ST/STM32_USB_Host_Library/Core/Src/usbh_ctlreq.c ****   if (phost->RequestState == CMD_SEND)
 226:Middlewares/ST/STM32_USB_Host_Library/Core/Src/usbh_ctlreq.c ****   {
 227:Middlewares/ST/STM32_USB_Host_Library/Core/Src/usbh_ctlreq.c ****     phost->Control.setup.b.bmRequestType = USB_H2D | USB_REQ_RECIPIENT_DEVICE | \
 228:Middlewares/ST/STM32_USB_Host_Library/Core/Src/usbh_ctlreq.c ****                                            USB_REQ_TYPE_STANDARD;
 229:Middlewares/ST/STM32_USB_Host_Library/Core/Src/usbh_ctlreq.c **** 
 230:Middlewares/ST/STM32_USB_Host_Library/Core/Src/usbh_ctlreq.c ****     phost->Control.setup.b.bRequest = USB_REQ_SET_ADDRESS;
 231:Middlewares/ST/STM32_USB_Host_Library/Core/Src/usbh_ctlreq.c **** 
 232:Middlewares/ST/STM32_USB_Host_Library/Core/Src/usbh_ctlreq.c ****     phost->Control.setup.b.wValue.w = (uint16_t)DeviceAddress;
 233:Middlewares/ST/STM32_USB_Host_Library/Core/Src/usbh_ctlreq.c ****     phost->Control.setup.b.wIndex.w = 0U;
 234:Middlewares/ST/STM32_USB_Host_Library/Core/Src/usbh_ctlreq.c ****     phost->Control.setup.b.wLength.w = 0U;
 235:Middlewares/ST/STM32_USB_Host_Library/Core/Src/usbh_ctlreq.c ****   }
 236:Middlewares/ST/STM32_USB_Host_Library/Core/Src/usbh_ctlreq.c **** 
 237:Middlewares/ST/STM32_USB_Host_Library/Core/Src/usbh_ctlreq.c ****   return USBH_CtlReq(phost, 0U, 0U);
 238:Middlewares/ST/STM32_USB_Host_Library/Core/Src/usbh_ctlreq.c **** }
 239:Middlewares/ST/STM32_USB_Host_Library/Core/Src/usbh_ctlreq.c **** 
 240:Middlewares/ST/STM32_USB_Host_Library/Core/Src/usbh_ctlreq.c **** 
 241:Middlewares/ST/STM32_USB_Host_Library/Core/Src/usbh_ctlreq.c **** /**
 242:Middlewares/ST/STM32_USB_Host_Library/Core/Src/usbh_ctlreq.c ****   * @brief  USBH_SetCfg
 243:Middlewares/ST/STM32_USB_Host_Library/Core/Src/usbh_ctlreq.c ****   *         The command sets the configuration value to the connected device
 244:Middlewares/ST/STM32_USB_Host_Library/Core/Src/usbh_ctlreq.c ****   * @param  phost: Host Handle
 245:Middlewares/ST/STM32_USB_Host_Library/Core/Src/usbh_ctlreq.c ****   * @param  cfg_idx: Configuration value
 246:Middlewares/ST/STM32_USB_Host_Library/Core/Src/usbh_ctlreq.c ****   * @retval USBH Status
 247:Middlewares/ST/STM32_USB_Host_Library/Core/Src/usbh_ctlreq.c ****   */
 248:Middlewares/ST/STM32_USB_Host_Library/Core/Src/usbh_ctlreq.c **** USBH_StatusTypeDef USBH_SetCfg(USBH_HandleTypeDef *phost, uint16_t cfg_idx)
 249:Middlewares/ST/STM32_USB_Host_Library/Core/Src/usbh_ctlreq.c **** {
 250:Middlewares/ST/STM32_USB_Host_Library/Core/Src/usbh_ctlreq.c ****   if (phost->RequestState == CMD_SEND)
 251:Middlewares/ST/STM32_USB_Host_Library/Core/Src/usbh_ctlreq.c ****   {
 252:Middlewares/ST/STM32_USB_Host_Library/Core/Src/usbh_ctlreq.c ****     phost->Control.setup.b.bmRequestType = USB_H2D | USB_REQ_RECIPIENT_DEVICE
 253:Middlewares/ST/STM32_USB_Host_Library/Core/Src/usbh_ctlreq.c ****                                            | USB_REQ_TYPE_STANDARD;
 254:Middlewares/ST/STM32_USB_Host_Library/Core/Src/usbh_ctlreq.c **** 
 255:Middlewares/ST/STM32_USB_Host_Library/Core/Src/usbh_ctlreq.c ****     phost->Control.setup.b.bRequest = USB_REQ_SET_CONFIGURATION;
 256:Middlewares/ST/STM32_USB_Host_Library/Core/Src/usbh_ctlreq.c ****     phost->Control.setup.b.wValue.w = cfg_idx;
 257:Middlewares/ST/STM32_USB_Host_Library/Core/Src/usbh_ctlreq.c ****     phost->Control.setup.b.wIndex.w = 0U;
 258:Middlewares/ST/STM32_USB_Host_Library/Core/Src/usbh_ctlreq.c ****     phost->Control.setup.b.wLength.w = 0U;
ARM GAS  C:\Users\union\AppData\Local\Temp\ccc20eai.s 			page 6


 259:Middlewares/ST/STM32_USB_Host_Library/Core/Src/usbh_ctlreq.c ****   }
 260:Middlewares/ST/STM32_USB_Host_Library/Core/Src/usbh_ctlreq.c **** 
 261:Middlewares/ST/STM32_USB_Host_Library/Core/Src/usbh_ctlreq.c ****   return USBH_CtlReq(phost, 0U, 0U);
 262:Middlewares/ST/STM32_USB_Host_Library/Core/Src/usbh_ctlreq.c **** }
 263:Middlewares/ST/STM32_USB_Host_Library/Core/Src/usbh_ctlreq.c **** 
 264:Middlewares/ST/STM32_USB_Host_Library/Core/Src/usbh_ctlreq.c **** 
 265:Middlewares/ST/STM32_USB_Host_Library/Core/Src/usbh_ctlreq.c **** /**
 266:Middlewares/ST/STM32_USB_Host_Library/Core/Src/usbh_ctlreq.c ****   * @brief  USBH_SetInterface
 267:Middlewares/ST/STM32_USB_Host_Library/Core/Src/usbh_ctlreq.c ****   *         The command sets the Interface value to the connected device
 268:Middlewares/ST/STM32_USB_Host_Library/Core/Src/usbh_ctlreq.c ****   * @param  phost: Host Handle
 269:Middlewares/ST/STM32_USB_Host_Library/Core/Src/usbh_ctlreq.c ****   * @param  altSetting: Interface value
 270:Middlewares/ST/STM32_USB_Host_Library/Core/Src/usbh_ctlreq.c ****   * @retval USBH Status
 271:Middlewares/ST/STM32_USB_Host_Library/Core/Src/usbh_ctlreq.c ****   */
 272:Middlewares/ST/STM32_USB_Host_Library/Core/Src/usbh_ctlreq.c **** USBH_StatusTypeDef USBH_SetInterface(USBH_HandleTypeDef *phost, uint8_t ep_num,
 273:Middlewares/ST/STM32_USB_Host_Library/Core/Src/usbh_ctlreq.c ****                                      uint8_t altSetting)
 274:Middlewares/ST/STM32_USB_Host_Library/Core/Src/usbh_ctlreq.c **** {
 275:Middlewares/ST/STM32_USB_Host_Library/Core/Src/usbh_ctlreq.c ****   if (phost->RequestState == CMD_SEND)
 276:Middlewares/ST/STM32_USB_Host_Library/Core/Src/usbh_ctlreq.c ****   {
 277:Middlewares/ST/STM32_USB_Host_Library/Core/Src/usbh_ctlreq.c ****     phost->Control.setup.b.bmRequestType = USB_H2D | USB_REQ_RECIPIENT_INTERFACE
 278:Middlewares/ST/STM32_USB_Host_Library/Core/Src/usbh_ctlreq.c ****                                            | USB_REQ_TYPE_STANDARD;
 279:Middlewares/ST/STM32_USB_Host_Library/Core/Src/usbh_ctlreq.c **** 
 280:Middlewares/ST/STM32_USB_Host_Library/Core/Src/usbh_ctlreq.c ****     phost->Control.setup.b.bRequest = USB_REQ_SET_INTERFACE;
 281:Middlewares/ST/STM32_USB_Host_Library/Core/Src/usbh_ctlreq.c ****     phost->Control.setup.b.wValue.w = altSetting;
 282:Middlewares/ST/STM32_USB_Host_Library/Core/Src/usbh_ctlreq.c ****     phost->Control.setup.b.wIndex.w = ep_num;
 283:Middlewares/ST/STM32_USB_Host_Library/Core/Src/usbh_ctlreq.c ****     phost->Control.setup.b.wLength.w = 0U;
 284:Middlewares/ST/STM32_USB_Host_Library/Core/Src/usbh_ctlreq.c ****   }
 285:Middlewares/ST/STM32_USB_Host_Library/Core/Src/usbh_ctlreq.c **** 
 286:Middlewares/ST/STM32_USB_Host_Library/Core/Src/usbh_ctlreq.c ****   return USBH_CtlReq(phost, 0U, 0U);
 287:Middlewares/ST/STM32_USB_Host_Library/Core/Src/usbh_ctlreq.c **** }
 288:Middlewares/ST/STM32_USB_Host_Library/Core/Src/usbh_ctlreq.c **** 
 289:Middlewares/ST/STM32_USB_Host_Library/Core/Src/usbh_ctlreq.c **** 
 290:Middlewares/ST/STM32_USB_Host_Library/Core/Src/usbh_ctlreq.c **** /**
 291:Middlewares/ST/STM32_USB_Host_Library/Core/Src/usbh_ctlreq.c ****   * @brief  USBH_SetFeature
 292:Middlewares/ST/STM32_USB_Host_Library/Core/Src/usbh_ctlreq.c ****   *         The command sets the device features (remote wakeup feature,..)
 293:Middlewares/ST/STM32_USB_Host_Library/Core/Src/usbh_ctlreq.c ****   * @param  pdev: Selected device
 294:Middlewares/ST/STM32_USB_Host_Library/Core/Src/usbh_ctlreq.c ****   * @param  itf_idx
 295:Middlewares/ST/STM32_USB_Host_Library/Core/Src/usbh_ctlreq.c ****   * @retval Status
 296:Middlewares/ST/STM32_USB_Host_Library/Core/Src/usbh_ctlreq.c **** */
 297:Middlewares/ST/STM32_USB_Host_Library/Core/Src/usbh_ctlreq.c **** USBH_StatusTypeDef USBH_SetFeature(USBH_HandleTypeDef *phost, uint8_t wValue)
 298:Middlewares/ST/STM32_USB_Host_Library/Core/Src/usbh_ctlreq.c **** {
 299:Middlewares/ST/STM32_USB_Host_Library/Core/Src/usbh_ctlreq.c ****   if (phost->RequestState == CMD_SEND)
 300:Middlewares/ST/STM32_USB_Host_Library/Core/Src/usbh_ctlreq.c ****   {
 301:Middlewares/ST/STM32_USB_Host_Library/Core/Src/usbh_ctlreq.c ****     phost->Control.setup.b.bmRequestType = USB_H2D | USB_REQ_RECIPIENT_DEVICE
 302:Middlewares/ST/STM32_USB_Host_Library/Core/Src/usbh_ctlreq.c ****                                            | USB_REQ_TYPE_STANDARD;
 303:Middlewares/ST/STM32_USB_Host_Library/Core/Src/usbh_ctlreq.c **** 
 304:Middlewares/ST/STM32_USB_Host_Library/Core/Src/usbh_ctlreq.c ****     phost->Control.setup.b.bRequest = USB_REQ_SET_FEATURE;
 305:Middlewares/ST/STM32_USB_Host_Library/Core/Src/usbh_ctlreq.c ****     phost->Control.setup.b.wValue.w = wValue;
 306:Middlewares/ST/STM32_USB_Host_Library/Core/Src/usbh_ctlreq.c ****     phost->Control.setup.b.wIndex.w = 0U;
 307:Middlewares/ST/STM32_USB_Host_Library/Core/Src/usbh_ctlreq.c ****     phost->Control.setup.b.wLength.w = 0U;
 308:Middlewares/ST/STM32_USB_Host_Library/Core/Src/usbh_ctlreq.c ****   }
 309:Middlewares/ST/STM32_USB_Host_Library/Core/Src/usbh_ctlreq.c **** 
 310:Middlewares/ST/STM32_USB_Host_Library/Core/Src/usbh_ctlreq.c ****   return USBH_CtlReq(phost, 0U, 0U);
 311:Middlewares/ST/STM32_USB_Host_Library/Core/Src/usbh_ctlreq.c **** }
 312:Middlewares/ST/STM32_USB_Host_Library/Core/Src/usbh_ctlreq.c **** 
 313:Middlewares/ST/STM32_USB_Host_Library/Core/Src/usbh_ctlreq.c **** 
 314:Middlewares/ST/STM32_USB_Host_Library/Core/Src/usbh_ctlreq.c **** /**
 315:Middlewares/ST/STM32_USB_Host_Library/Core/Src/usbh_ctlreq.c ****   * @brief  USBH_ClrFeature
ARM GAS  C:\Users\union\AppData\Local\Temp\ccc20eai.s 			page 7


 316:Middlewares/ST/STM32_USB_Host_Library/Core/Src/usbh_ctlreq.c ****   *         This request is used to clear or disable a specific feature.
 317:Middlewares/ST/STM32_USB_Host_Library/Core/Src/usbh_ctlreq.c ****   * @param  phost: Host Handle
 318:Middlewares/ST/STM32_USB_Host_Library/Core/Src/usbh_ctlreq.c ****   * @param  ep_num: endpoint number
 319:Middlewares/ST/STM32_USB_Host_Library/Core/Src/usbh_ctlreq.c ****   * @param  hc_num: Host channel number
 320:Middlewares/ST/STM32_USB_Host_Library/Core/Src/usbh_ctlreq.c ****   * @retval USBH Status
 321:Middlewares/ST/STM32_USB_Host_Library/Core/Src/usbh_ctlreq.c ****   */
 322:Middlewares/ST/STM32_USB_Host_Library/Core/Src/usbh_ctlreq.c **** USBH_StatusTypeDef USBH_ClrFeature(USBH_HandleTypeDef *phost, uint8_t ep_num)
 323:Middlewares/ST/STM32_USB_Host_Library/Core/Src/usbh_ctlreq.c **** {
 324:Middlewares/ST/STM32_USB_Host_Library/Core/Src/usbh_ctlreq.c ****   if (phost->RequestState == CMD_SEND)
 325:Middlewares/ST/STM32_USB_Host_Library/Core/Src/usbh_ctlreq.c ****   {
 326:Middlewares/ST/STM32_USB_Host_Library/Core/Src/usbh_ctlreq.c ****     phost->Control.setup.b.bmRequestType = USB_H2D | USB_REQ_RECIPIENT_ENDPOINT
 327:Middlewares/ST/STM32_USB_Host_Library/Core/Src/usbh_ctlreq.c ****                                            | USB_REQ_TYPE_STANDARD;
 328:Middlewares/ST/STM32_USB_Host_Library/Core/Src/usbh_ctlreq.c **** 
 329:Middlewares/ST/STM32_USB_Host_Library/Core/Src/usbh_ctlreq.c ****     phost->Control.setup.b.bRequest = USB_REQ_CLEAR_FEATURE;
 330:Middlewares/ST/STM32_USB_Host_Library/Core/Src/usbh_ctlreq.c ****     phost->Control.setup.b.wValue.w = FEATURE_SELECTOR_ENDPOINT;
 331:Middlewares/ST/STM32_USB_Host_Library/Core/Src/usbh_ctlreq.c ****     phost->Control.setup.b.wIndex.w = ep_num;
 332:Middlewares/ST/STM32_USB_Host_Library/Core/Src/usbh_ctlreq.c ****     phost->Control.setup.b.wLength.w = 0U;
 333:Middlewares/ST/STM32_USB_Host_Library/Core/Src/usbh_ctlreq.c ****   }
 334:Middlewares/ST/STM32_USB_Host_Library/Core/Src/usbh_ctlreq.c ****   return USBH_CtlReq(phost, 0U, 0U);
 335:Middlewares/ST/STM32_USB_Host_Library/Core/Src/usbh_ctlreq.c **** }
 336:Middlewares/ST/STM32_USB_Host_Library/Core/Src/usbh_ctlreq.c **** 
 337:Middlewares/ST/STM32_USB_Host_Library/Core/Src/usbh_ctlreq.c **** 
 338:Middlewares/ST/STM32_USB_Host_Library/Core/Src/usbh_ctlreq.c **** /**
 339:Middlewares/ST/STM32_USB_Host_Library/Core/Src/usbh_ctlreq.c ****   * @brief  USBH_ParseDevDesc
 340:Middlewares/ST/STM32_USB_Host_Library/Core/Src/usbh_ctlreq.c ****   *         This function Parses the device descriptor
 341:Middlewares/ST/STM32_USB_Host_Library/Core/Src/usbh_ctlreq.c ****   * @param  dev_desc: device_descriptor destination address
 342:Middlewares/ST/STM32_USB_Host_Library/Core/Src/usbh_ctlreq.c ****   * @param  buf: Buffer where the source descriptor is available
 343:Middlewares/ST/STM32_USB_Host_Library/Core/Src/usbh_ctlreq.c ****   * @param  length: Length of the descriptor
 344:Middlewares/ST/STM32_USB_Host_Library/Core/Src/usbh_ctlreq.c ****   * @retval None
 345:Middlewares/ST/STM32_USB_Host_Library/Core/Src/usbh_ctlreq.c ****   */
 346:Middlewares/ST/STM32_USB_Host_Library/Core/Src/usbh_ctlreq.c **** static void  USBH_ParseDevDesc(USBH_DevDescTypeDef *dev_desc, uint8_t *buf,
 347:Middlewares/ST/STM32_USB_Host_Library/Core/Src/usbh_ctlreq.c ****                                uint16_t length)
 348:Middlewares/ST/STM32_USB_Host_Library/Core/Src/usbh_ctlreq.c **** {
  29              		.loc 1 348 1 view -0
  30              		.cfi_startproc
  31              		@ args = 0, pretend = 0, frame = 0
  32              		@ frame_needed = 0, uses_anonymous_args = 0
  33              		@ link register save eliminated.
  34              		.loc 1 348 1 is_stmt 0 view .LVU1
  35 0000 10B4     		push	{r4}
  36              	.LCFI0:
  37              		.cfi_def_cfa_offset 4
  38              		.cfi_offset 4, -4
 349:Middlewares/ST/STM32_USB_Host_Library/Core/Src/usbh_ctlreq.c ****   dev_desc->bLength            = *(uint8_t *)(buf +  0);
  39              		.loc 1 349 3 is_stmt 1 view .LVU2
  40              		.loc 1 349 34 is_stmt 0 view .LVU3
  41 0002 0B78     		ldrb	r3, [r1]	@ zero_extendqisi2
  42              		.loc 1 349 32 view .LVU4
  43 0004 0370     		strb	r3, [r0]
 350:Middlewares/ST/STM32_USB_Host_Library/Core/Src/usbh_ctlreq.c ****   dev_desc->bDescriptorType    = *(uint8_t *)(buf +  1);
  44              		.loc 1 350 3 is_stmt 1 view .LVU5
  45              		.loc 1 350 32 is_stmt 0 view .LVU6
  46 0006 4B78     		ldrb	r3, [r1, #1]	@ zero_extendqisi2
  47 0008 4370     		strb	r3, [r0, #1]
 351:Middlewares/ST/STM32_USB_Host_Library/Core/Src/usbh_ctlreq.c ****   dev_desc->bcdUSB             = LE16(buf +  2);
  48              		.loc 1 351 3 is_stmt 1 view .LVU7
  49              		.loc 1 351 34 is_stmt 0 view .LVU8
ARM GAS  C:\Users\union\AppData\Local\Temp\ccc20eai.s 			page 8


  50 000a 8B78     		ldrb	r3, [r1, #2]	@ zero_extendqisi2
  51 000c CC78     		ldrb	r4, [r1, #3]	@ zero_extendqisi2
  52 000e 43EA0423 		orr	r3, r3, r4, lsl #8
  53              		.loc 1 351 32 view .LVU9
  54 0012 4380     		strh	r3, [r0, #2]	@ movhi
 352:Middlewares/ST/STM32_USB_Host_Library/Core/Src/usbh_ctlreq.c ****   dev_desc->bDeviceClass       = *(uint8_t *)(buf +  4);
  55              		.loc 1 352 3 is_stmt 1 view .LVU10
  56              		.loc 1 352 32 is_stmt 0 view .LVU11
  57 0014 0B79     		ldrb	r3, [r1, #4]	@ zero_extendqisi2
  58 0016 0371     		strb	r3, [r0, #4]
 353:Middlewares/ST/STM32_USB_Host_Library/Core/Src/usbh_ctlreq.c ****   dev_desc->bDeviceSubClass    = *(uint8_t *)(buf +  5);
  59              		.loc 1 353 3 is_stmt 1 view .LVU12
  60              		.loc 1 353 32 is_stmt 0 view .LVU13
  61 0018 4B79     		ldrb	r3, [r1, #5]	@ zero_extendqisi2
  62 001a 4371     		strb	r3, [r0, #5]
 354:Middlewares/ST/STM32_USB_Host_Library/Core/Src/usbh_ctlreq.c ****   dev_desc->bDeviceProtocol    = *(uint8_t *)(buf +  6);
  63              		.loc 1 354 3 is_stmt 1 view .LVU14
  64              		.loc 1 354 32 is_stmt 0 view .LVU15
  65 001c 8B79     		ldrb	r3, [r1, #6]	@ zero_extendqisi2
  66 001e 8371     		strb	r3, [r0, #6]
 355:Middlewares/ST/STM32_USB_Host_Library/Core/Src/usbh_ctlreq.c ****   dev_desc->bMaxPacketSize     = *(uint8_t *)(buf +  7);
  67              		.loc 1 355 3 is_stmt 1 view .LVU16
  68              		.loc 1 355 32 is_stmt 0 view .LVU17
  69 0020 CB79     		ldrb	r3, [r1, #7]	@ zero_extendqisi2
  70 0022 C371     		strb	r3, [r0, #7]
 356:Middlewares/ST/STM32_USB_Host_Library/Core/Src/usbh_ctlreq.c **** 
 357:Middlewares/ST/STM32_USB_Host_Library/Core/Src/usbh_ctlreq.c ****   if (length > 8U)
  71              		.loc 1 357 3 is_stmt 1 view .LVU18
  72              		.loc 1 357 6 is_stmt 0 view .LVU19
  73 0024 082A     		cmp	r2, #8
  74 0026 16D9     		bls	.L1
 358:Middlewares/ST/STM32_USB_Host_Library/Core/Src/usbh_ctlreq.c ****   {
 359:Middlewares/ST/STM32_USB_Host_Library/Core/Src/usbh_ctlreq.c ****     /* For 1st time after device connection, Host may issue only 8 bytes for
 360:Middlewares/ST/STM32_USB_Host_Library/Core/Src/usbh_ctlreq.c ****     Device Descriptor Length  */
 361:Middlewares/ST/STM32_USB_Host_Library/Core/Src/usbh_ctlreq.c ****     dev_desc->idVendor           = LE16(buf +  8);
  75              		.loc 1 361 5 is_stmt 1 view .LVU20
  76              		.loc 1 361 36 is_stmt 0 view .LVU21
  77 0028 0B7A     		ldrb	r3, [r1, #8]	@ zero_extendqisi2
  78 002a 4A7A     		ldrb	r2, [r1, #9]	@ zero_extendqisi2
  79              	.LVL1:
  80              		.loc 1 361 36 view .LVU22
  81 002c 43EA0223 		orr	r3, r3, r2, lsl #8
  82              		.loc 1 361 34 view .LVU23
  83 0030 0381     		strh	r3, [r0, #8]	@ movhi
 362:Middlewares/ST/STM32_USB_Host_Library/Core/Src/usbh_ctlreq.c ****     dev_desc->idProduct          = LE16(buf + 10);
  84              		.loc 1 362 5 is_stmt 1 view .LVU24
  85              		.loc 1 362 36 is_stmt 0 view .LVU25
  86 0032 8B7A     		ldrb	r3, [r1, #10]	@ zero_extendqisi2
  87 0034 CA7A     		ldrb	r2, [r1, #11]	@ zero_extendqisi2
  88 0036 43EA0223 		orr	r3, r3, r2, lsl #8
  89              		.loc 1 362 34 view .LVU26
  90 003a 4381     		strh	r3, [r0, #10]	@ movhi
 363:Middlewares/ST/STM32_USB_Host_Library/Core/Src/usbh_ctlreq.c ****     dev_desc->bcdDevice          = LE16(buf + 12);
  91              		.loc 1 363 5 is_stmt 1 view .LVU27
  92              		.loc 1 363 36 is_stmt 0 view .LVU28
  93 003c 0B7B     		ldrb	r3, [r1, #12]	@ zero_extendqisi2
  94 003e 4A7B     		ldrb	r2, [r1, #13]	@ zero_extendqisi2
ARM GAS  C:\Users\union\AppData\Local\Temp\ccc20eai.s 			page 9


  95 0040 43EA0223 		orr	r3, r3, r2, lsl #8
  96              		.loc 1 363 34 view .LVU29
  97 0044 8381     		strh	r3, [r0, #12]	@ movhi
 364:Middlewares/ST/STM32_USB_Host_Library/Core/Src/usbh_ctlreq.c ****     dev_desc->iManufacturer      = *(uint8_t *)(buf + 14);
  98              		.loc 1 364 5 is_stmt 1 view .LVU30
  99              		.loc 1 364 34 is_stmt 0 view .LVU31
 100 0046 8B7B     		ldrb	r3, [r1, #14]	@ zero_extendqisi2
 101 0048 8373     		strb	r3, [r0, #14]
 365:Middlewares/ST/STM32_USB_Host_Library/Core/Src/usbh_ctlreq.c ****     dev_desc->iProduct           = *(uint8_t *)(buf + 15);
 102              		.loc 1 365 5 is_stmt 1 view .LVU32
 103              		.loc 1 365 34 is_stmt 0 view .LVU33
 104 004a CB7B     		ldrb	r3, [r1, #15]	@ zero_extendqisi2
 105 004c C373     		strb	r3, [r0, #15]
 366:Middlewares/ST/STM32_USB_Host_Library/Core/Src/usbh_ctlreq.c ****     dev_desc->iSerialNumber      = *(uint8_t *)(buf + 16);
 106              		.loc 1 366 5 is_stmt 1 view .LVU34
 107              		.loc 1 366 34 is_stmt 0 view .LVU35
 108 004e 0B7C     		ldrb	r3, [r1, #16]	@ zero_extendqisi2
 109 0050 0374     		strb	r3, [r0, #16]
 367:Middlewares/ST/STM32_USB_Host_Library/Core/Src/usbh_ctlreq.c ****     dev_desc->bNumConfigurations = *(uint8_t *)(buf + 17);
 110              		.loc 1 367 5 is_stmt 1 view .LVU36
 111              		.loc 1 367 34 is_stmt 0 view .LVU37
 112 0052 4B7C     		ldrb	r3, [r1, #17]	@ zero_extendqisi2
 113 0054 4374     		strb	r3, [r0, #17]
 114              	.L1:
 368:Middlewares/ST/STM32_USB_Host_Library/Core/Src/usbh_ctlreq.c ****   }
 369:Middlewares/ST/STM32_USB_Host_Library/Core/Src/usbh_ctlreq.c **** }
 115              		.loc 1 369 1 view .LVU38
 116 0056 5DF8044B 		ldr	r4, [sp], #4
 117              	.LCFI1:
 118              		.cfi_restore 4
 119              		.cfi_def_cfa_offset 0
 120 005a 7047     		bx	lr
 121              		.cfi_endproc
 122              	.LFE144:
 124              		.section	.text.USBH_ParseInterfaceDesc,"ax",%progbits
 125              		.align	1
 126              		.syntax unified
 127              		.thumb
 128              		.thumb_func
 129              		.fpu fpv4-sp-d16
 131              	USBH_ParseInterfaceDesc:
 132              	.LVL2:
 133              	.LFB146:
 370:Middlewares/ST/STM32_USB_Host_Library/Core/Src/usbh_ctlreq.c **** 
 371:Middlewares/ST/STM32_USB_Host_Library/Core/Src/usbh_ctlreq.c **** 
 372:Middlewares/ST/STM32_USB_Host_Library/Core/Src/usbh_ctlreq.c **** /**
 373:Middlewares/ST/STM32_USB_Host_Library/Core/Src/usbh_ctlreq.c ****   * @brief  USBH_ParseCfgDesc
 374:Middlewares/ST/STM32_USB_Host_Library/Core/Src/usbh_ctlreq.c ****   *         This function Parses the configuration descriptor
 375:Middlewares/ST/STM32_USB_Host_Library/Core/Src/usbh_ctlreq.c ****   * @param  cfg_desc: Configuration Descriptor address
 376:Middlewares/ST/STM32_USB_Host_Library/Core/Src/usbh_ctlreq.c ****   * @param  buf: Buffer where the source descriptor is available
 377:Middlewares/ST/STM32_USB_Host_Library/Core/Src/usbh_ctlreq.c ****   * @param  length: Length of the descriptor
 378:Middlewares/ST/STM32_USB_Host_Library/Core/Src/usbh_ctlreq.c ****   * @retval None
 379:Middlewares/ST/STM32_USB_Host_Library/Core/Src/usbh_ctlreq.c ****   */
 380:Middlewares/ST/STM32_USB_Host_Library/Core/Src/usbh_ctlreq.c **** static void USBH_ParseCfgDesc(USBH_CfgDescTypeDef *cfg_desc, uint8_t *buf,
 381:Middlewares/ST/STM32_USB_Host_Library/Core/Src/usbh_ctlreq.c ****                               uint16_t length)
 382:Middlewares/ST/STM32_USB_Host_Library/Core/Src/usbh_ctlreq.c **** {
 383:Middlewares/ST/STM32_USB_Host_Library/Core/Src/usbh_ctlreq.c ****   USBH_InterfaceDescTypeDef    *pif ;
ARM GAS  C:\Users\union\AppData\Local\Temp\ccc20eai.s 			page 10


 384:Middlewares/ST/STM32_USB_Host_Library/Core/Src/usbh_ctlreq.c ****   USBH_EpDescTypeDef           *pep;
 385:Middlewares/ST/STM32_USB_Host_Library/Core/Src/usbh_ctlreq.c ****   USBH_DescHeader_t            *pdesc = (USBH_DescHeader_t *)(void *)buf;
 386:Middlewares/ST/STM32_USB_Host_Library/Core/Src/usbh_ctlreq.c ****   uint16_t                     ptr;
 387:Middlewares/ST/STM32_USB_Host_Library/Core/Src/usbh_ctlreq.c ****   uint8_t                      if_ix = 0U;
 388:Middlewares/ST/STM32_USB_Host_Library/Core/Src/usbh_ctlreq.c ****   uint8_t                      ep_ix = 0U;
 389:Middlewares/ST/STM32_USB_Host_Library/Core/Src/usbh_ctlreq.c **** 
 390:Middlewares/ST/STM32_USB_Host_Library/Core/Src/usbh_ctlreq.c ****   pdesc   = (USBH_DescHeader_t *)(void *)buf;
 391:Middlewares/ST/STM32_USB_Host_Library/Core/Src/usbh_ctlreq.c **** 
 392:Middlewares/ST/STM32_USB_Host_Library/Core/Src/usbh_ctlreq.c ****   /* Parse configuration descriptor */
 393:Middlewares/ST/STM32_USB_Host_Library/Core/Src/usbh_ctlreq.c ****   cfg_desc->bLength             = *(uint8_t *)(buf + 0);
 394:Middlewares/ST/STM32_USB_Host_Library/Core/Src/usbh_ctlreq.c ****   cfg_desc->bDescriptorType     = *(uint8_t *)(buf + 1);
 395:Middlewares/ST/STM32_USB_Host_Library/Core/Src/usbh_ctlreq.c ****   cfg_desc->wTotalLength        = LE16(buf + 2);
 396:Middlewares/ST/STM32_USB_Host_Library/Core/Src/usbh_ctlreq.c ****   cfg_desc->bNumInterfaces      = *(uint8_t *)(buf + 4);
 397:Middlewares/ST/STM32_USB_Host_Library/Core/Src/usbh_ctlreq.c ****   cfg_desc->bConfigurationValue = *(uint8_t *)(buf + 5);
 398:Middlewares/ST/STM32_USB_Host_Library/Core/Src/usbh_ctlreq.c ****   cfg_desc->iConfiguration      = *(uint8_t *)(buf + 6);
 399:Middlewares/ST/STM32_USB_Host_Library/Core/Src/usbh_ctlreq.c ****   cfg_desc->bmAttributes        = *(uint8_t *)(buf + 7);
 400:Middlewares/ST/STM32_USB_Host_Library/Core/Src/usbh_ctlreq.c ****   cfg_desc->bMaxPower           = *(uint8_t *)(buf + 8);
 401:Middlewares/ST/STM32_USB_Host_Library/Core/Src/usbh_ctlreq.c **** 
 402:Middlewares/ST/STM32_USB_Host_Library/Core/Src/usbh_ctlreq.c ****   if (length > USB_CONFIGURATION_DESC_SIZE)
 403:Middlewares/ST/STM32_USB_Host_Library/Core/Src/usbh_ctlreq.c ****   {
 404:Middlewares/ST/STM32_USB_Host_Library/Core/Src/usbh_ctlreq.c ****     ptr = USB_LEN_CFG_DESC;
 405:Middlewares/ST/STM32_USB_Host_Library/Core/Src/usbh_ctlreq.c ****     pif = (USBH_InterfaceDescTypeDef *)0;
 406:Middlewares/ST/STM32_USB_Host_Library/Core/Src/usbh_ctlreq.c **** 
 407:Middlewares/ST/STM32_USB_Host_Library/Core/Src/usbh_ctlreq.c ****     while ((if_ix < USBH_MAX_NUM_INTERFACES) && (ptr < cfg_desc->wTotalLength))
 408:Middlewares/ST/STM32_USB_Host_Library/Core/Src/usbh_ctlreq.c ****     {
 409:Middlewares/ST/STM32_USB_Host_Library/Core/Src/usbh_ctlreq.c ****       pdesc = USBH_GetNextDesc((uint8_t *)(void *)pdesc, &ptr);
 410:Middlewares/ST/STM32_USB_Host_Library/Core/Src/usbh_ctlreq.c ****       if (pdesc->bDescriptorType   == USB_DESC_TYPE_INTERFACE)
 411:Middlewares/ST/STM32_USB_Host_Library/Core/Src/usbh_ctlreq.c ****       {
 412:Middlewares/ST/STM32_USB_Host_Library/Core/Src/usbh_ctlreq.c ****         pif = &cfg_desc->Itf_Desc[if_ix];
 413:Middlewares/ST/STM32_USB_Host_Library/Core/Src/usbh_ctlreq.c ****         USBH_ParseInterfaceDesc(pif, (uint8_t *)(void *)pdesc);
 414:Middlewares/ST/STM32_USB_Host_Library/Core/Src/usbh_ctlreq.c **** 
 415:Middlewares/ST/STM32_USB_Host_Library/Core/Src/usbh_ctlreq.c ****         ep_ix = 0U;
 416:Middlewares/ST/STM32_USB_Host_Library/Core/Src/usbh_ctlreq.c ****         pep = (USBH_EpDescTypeDef *)0;
 417:Middlewares/ST/STM32_USB_Host_Library/Core/Src/usbh_ctlreq.c ****         while ((ep_ix < pif->bNumEndpoints) && (ptr < cfg_desc->wTotalLength))
 418:Middlewares/ST/STM32_USB_Host_Library/Core/Src/usbh_ctlreq.c ****         {
 419:Middlewares/ST/STM32_USB_Host_Library/Core/Src/usbh_ctlreq.c ****           pdesc = USBH_GetNextDesc((uint8_t *)(void *)pdesc, &ptr);
 420:Middlewares/ST/STM32_USB_Host_Library/Core/Src/usbh_ctlreq.c ****           if (pdesc->bDescriptorType   == USB_DESC_TYPE_ENDPOINT)
 421:Middlewares/ST/STM32_USB_Host_Library/Core/Src/usbh_ctlreq.c ****           {
 422:Middlewares/ST/STM32_USB_Host_Library/Core/Src/usbh_ctlreq.c ****             pep = &cfg_desc->Itf_Desc[if_ix].Ep_Desc[ep_ix];
 423:Middlewares/ST/STM32_USB_Host_Library/Core/Src/usbh_ctlreq.c ****             USBH_ParseEPDesc(pep, (uint8_t *)(void *)pdesc);
 424:Middlewares/ST/STM32_USB_Host_Library/Core/Src/usbh_ctlreq.c ****             ep_ix++;
 425:Middlewares/ST/STM32_USB_Host_Library/Core/Src/usbh_ctlreq.c ****           }
 426:Middlewares/ST/STM32_USB_Host_Library/Core/Src/usbh_ctlreq.c ****         }
 427:Middlewares/ST/STM32_USB_Host_Library/Core/Src/usbh_ctlreq.c ****         if_ix++;
 428:Middlewares/ST/STM32_USB_Host_Library/Core/Src/usbh_ctlreq.c ****       }
 429:Middlewares/ST/STM32_USB_Host_Library/Core/Src/usbh_ctlreq.c ****     }
 430:Middlewares/ST/STM32_USB_Host_Library/Core/Src/usbh_ctlreq.c ****   }
 431:Middlewares/ST/STM32_USB_Host_Library/Core/Src/usbh_ctlreq.c **** }
 432:Middlewares/ST/STM32_USB_Host_Library/Core/Src/usbh_ctlreq.c **** 
 433:Middlewares/ST/STM32_USB_Host_Library/Core/Src/usbh_ctlreq.c **** 
 434:Middlewares/ST/STM32_USB_Host_Library/Core/Src/usbh_ctlreq.c **** /**
 435:Middlewares/ST/STM32_USB_Host_Library/Core/Src/usbh_ctlreq.c ****   * @brief  USBH_ParseInterfaceDesc
 436:Middlewares/ST/STM32_USB_Host_Library/Core/Src/usbh_ctlreq.c ****   *         This function Parses the interface descriptor
 437:Middlewares/ST/STM32_USB_Host_Library/Core/Src/usbh_ctlreq.c ****   * @param  if_descriptor : Interface descriptor destination
 438:Middlewares/ST/STM32_USB_Host_Library/Core/Src/usbh_ctlreq.c ****   * @param  buf: Buffer where the descriptor data is available
 439:Middlewares/ST/STM32_USB_Host_Library/Core/Src/usbh_ctlreq.c ****   * @retval None
 440:Middlewares/ST/STM32_USB_Host_Library/Core/Src/usbh_ctlreq.c ****   */
ARM GAS  C:\Users\union\AppData\Local\Temp\ccc20eai.s 			page 11


 441:Middlewares/ST/STM32_USB_Host_Library/Core/Src/usbh_ctlreq.c **** static void  USBH_ParseInterfaceDesc(USBH_InterfaceDescTypeDef *if_descriptor,
 442:Middlewares/ST/STM32_USB_Host_Library/Core/Src/usbh_ctlreq.c ****                                      uint8_t *buf)
 443:Middlewares/ST/STM32_USB_Host_Library/Core/Src/usbh_ctlreq.c **** {
 134              		.loc 1 443 1 is_stmt 1 view -0
 135              		.cfi_startproc
 136              		@ args = 0, pretend = 0, frame = 0
 137              		@ frame_needed = 0, uses_anonymous_args = 0
 138              		@ link register save eliminated.
 444:Middlewares/ST/STM32_USB_Host_Library/Core/Src/usbh_ctlreq.c ****   if_descriptor->bLength            = *(uint8_t *)(buf + 0);
 139              		.loc 1 444 3 view .LVU40
 140              		.loc 1 444 39 is_stmt 0 view .LVU41
 141 0000 0B78     		ldrb	r3, [r1]	@ zero_extendqisi2
 142              		.loc 1 444 37 view .LVU42
 143 0002 0370     		strb	r3, [r0]
 445:Middlewares/ST/STM32_USB_Host_Library/Core/Src/usbh_ctlreq.c ****   if_descriptor->bDescriptorType    = *(uint8_t *)(buf + 1);
 144              		.loc 1 445 3 is_stmt 1 view .LVU43
 145              		.loc 1 445 37 is_stmt 0 view .LVU44
 146 0004 4B78     		ldrb	r3, [r1, #1]	@ zero_extendqisi2
 147 0006 4370     		strb	r3, [r0, #1]
 446:Middlewares/ST/STM32_USB_Host_Library/Core/Src/usbh_ctlreq.c ****   if_descriptor->bInterfaceNumber   = *(uint8_t *)(buf + 2);
 148              		.loc 1 446 3 is_stmt 1 view .LVU45
 149              		.loc 1 446 37 is_stmt 0 view .LVU46
 150 0008 8B78     		ldrb	r3, [r1, #2]	@ zero_extendqisi2
 151 000a 8370     		strb	r3, [r0, #2]
 447:Middlewares/ST/STM32_USB_Host_Library/Core/Src/usbh_ctlreq.c ****   if_descriptor->bAlternateSetting  = *(uint8_t *)(buf + 3);
 152              		.loc 1 447 3 is_stmt 1 view .LVU47
 153              		.loc 1 447 37 is_stmt 0 view .LVU48
 154 000c CB78     		ldrb	r3, [r1, #3]	@ zero_extendqisi2
 155 000e C370     		strb	r3, [r0, #3]
 448:Middlewares/ST/STM32_USB_Host_Library/Core/Src/usbh_ctlreq.c ****   if_descriptor->bNumEndpoints      = *(uint8_t *)(buf + 4);
 156              		.loc 1 448 3 is_stmt 1 view .LVU49
 157              		.loc 1 448 37 is_stmt 0 view .LVU50
 158 0010 0B79     		ldrb	r3, [r1, #4]	@ zero_extendqisi2
 159 0012 0371     		strb	r3, [r0, #4]
 449:Middlewares/ST/STM32_USB_Host_Library/Core/Src/usbh_ctlreq.c ****   if_descriptor->bInterfaceClass    = *(uint8_t *)(buf + 5);
 160              		.loc 1 449 3 is_stmt 1 view .LVU51
 161              		.loc 1 449 37 is_stmt 0 view .LVU52
 162 0014 4B79     		ldrb	r3, [r1, #5]	@ zero_extendqisi2
 163 0016 4371     		strb	r3, [r0, #5]
 450:Middlewares/ST/STM32_USB_Host_Library/Core/Src/usbh_ctlreq.c ****   if_descriptor->bInterfaceSubClass = *(uint8_t *)(buf + 6);
 164              		.loc 1 450 3 is_stmt 1 view .LVU53
 165              		.loc 1 450 37 is_stmt 0 view .LVU54
 166 0018 8B79     		ldrb	r3, [r1, #6]	@ zero_extendqisi2
 167 001a 8371     		strb	r3, [r0, #6]
 451:Middlewares/ST/STM32_USB_Host_Library/Core/Src/usbh_ctlreq.c ****   if_descriptor->bInterfaceProtocol = *(uint8_t *)(buf + 7);
 168              		.loc 1 451 3 is_stmt 1 view .LVU55
 169              		.loc 1 451 37 is_stmt 0 view .LVU56
 170 001c CB79     		ldrb	r3, [r1, #7]	@ zero_extendqisi2
 171 001e C371     		strb	r3, [r0, #7]
 452:Middlewares/ST/STM32_USB_Host_Library/Core/Src/usbh_ctlreq.c ****   if_descriptor->iInterface         = *(uint8_t *)(buf + 8);
 172              		.loc 1 452 3 is_stmt 1 view .LVU57
 173              		.loc 1 452 37 is_stmt 0 view .LVU58
 174 0020 0B7A     		ldrb	r3, [r1, #8]	@ zero_extendqisi2
 175 0022 0372     		strb	r3, [r0, #8]
 453:Middlewares/ST/STM32_USB_Host_Library/Core/Src/usbh_ctlreq.c **** }
 176              		.loc 1 453 1 view .LVU59
 177 0024 7047     		bx	lr
ARM GAS  C:\Users\union\AppData\Local\Temp\ccc20eai.s 			page 12


 178              		.cfi_endproc
 179              	.LFE146:
 181              		.section	.text.USBH_ParseEPDesc,"ax",%progbits
 182              		.align	1
 183              		.syntax unified
 184              		.thumb
 185              		.thumb_func
 186              		.fpu fpv4-sp-d16
 188              	USBH_ParseEPDesc:
 189              	.LVL3:
 190              	.LFB147:
 454:Middlewares/ST/STM32_USB_Host_Library/Core/Src/usbh_ctlreq.c **** 
 455:Middlewares/ST/STM32_USB_Host_Library/Core/Src/usbh_ctlreq.c **** 
 456:Middlewares/ST/STM32_USB_Host_Library/Core/Src/usbh_ctlreq.c **** /**
 457:Middlewares/ST/STM32_USB_Host_Library/Core/Src/usbh_ctlreq.c ****   * @brief  USBH_ParseEPDesc
 458:Middlewares/ST/STM32_USB_Host_Library/Core/Src/usbh_ctlreq.c ****   *         This function Parses the endpoint descriptor
 459:Middlewares/ST/STM32_USB_Host_Library/Core/Src/usbh_ctlreq.c ****   * @param  ep_descriptor: Endpoint descriptor destination address
 460:Middlewares/ST/STM32_USB_Host_Library/Core/Src/usbh_ctlreq.c ****   * @param  buf: Buffer where the parsed descriptor stored
 461:Middlewares/ST/STM32_USB_Host_Library/Core/Src/usbh_ctlreq.c ****   * @retval None
 462:Middlewares/ST/STM32_USB_Host_Library/Core/Src/usbh_ctlreq.c ****   */
 463:Middlewares/ST/STM32_USB_Host_Library/Core/Src/usbh_ctlreq.c **** static void  USBH_ParseEPDesc(USBH_EpDescTypeDef  *ep_descriptor,
 464:Middlewares/ST/STM32_USB_Host_Library/Core/Src/usbh_ctlreq.c ****                               uint8_t *buf)
 465:Middlewares/ST/STM32_USB_Host_Library/Core/Src/usbh_ctlreq.c **** {
 191              		.loc 1 465 1 is_stmt 1 view -0
 192              		.cfi_startproc
 193              		@ args = 0, pretend = 0, frame = 0
 194              		@ frame_needed = 0, uses_anonymous_args = 0
 195              		@ link register save eliminated.
 466:Middlewares/ST/STM32_USB_Host_Library/Core/Src/usbh_ctlreq.c ****   ep_descriptor->bLength          = *(uint8_t *)(buf + 0);
 196              		.loc 1 466 3 view .LVU61
 197              		.loc 1 466 37 is_stmt 0 view .LVU62
 198 0000 0B78     		ldrb	r3, [r1]	@ zero_extendqisi2
 199              		.loc 1 466 35 view .LVU63
 200 0002 0370     		strb	r3, [r0]
 467:Middlewares/ST/STM32_USB_Host_Library/Core/Src/usbh_ctlreq.c ****   ep_descriptor->bDescriptorType  = *(uint8_t *)(buf + 1);
 201              		.loc 1 467 3 is_stmt 1 view .LVU64
 202              		.loc 1 467 35 is_stmt 0 view .LVU65
 203 0004 4B78     		ldrb	r3, [r1, #1]	@ zero_extendqisi2
 204 0006 4370     		strb	r3, [r0, #1]
 468:Middlewares/ST/STM32_USB_Host_Library/Core/Src/usbh_ctlreq.c ****   ep_descriptor->bEndpointAddress = *(uint8_t *)(buf + 2);
 205              		.loc 1 468 3 is_stmt 1 view .LVU66
 206              		.loc 1 468 35 is_stmt 0 view .LVU67
 207 0008 8B78     		ldrb	r3, [r1, #2]	@ zero_extendqisi2
 208 000a 8370     		strb	r3, [r0, #2]
 469:Middlewares/ST/STM32_USB_Host_Library/Core/Src/usbh_ctlreq.c ****   ep_descriptor->bmAttributes     = *(uint8_t *)(buf + 3);
 209              		.loc 1 469 3 is_stmt 1 view .LVU68
 210              		.loc 1 469 35 is_stmt 0 view .LVU69
 211 000c CB78     		ldrb	r3, [r1, #3]	@ zero_extendqisi2
 212 000e C370     		strb	r3, [r0, #3]
 470:Middlewares/ST/STM32_USB_Host_Library/Core/Src/usbh_ctlreq.c ****   ep_descriptor->wMaxPacketSize   = LE16(buf + 4);
 213              		.loc 1 470 3 is_stmt 1 view .LVU70
 214              		.loc 1 470 37 is_stmt 0 view .LVU71
 215 0010 0B79     		ldrb	r3, [r1, #4]	@ zero_extendqisi2
 216 0012 4A79     		ldrb	r2, [r1, #5]	@ zero_extendqisi2
 217 0014 43EA0223 		orr	r3, r3, r2, lsl #8
 218              		.loc 1 470 35 view .LVU72
 219 0018 8380     		strh	r3, [r0, #4]	@ movhi
ARM GAS  C:\Users\union\AppData\Local\Temp\ccc20eai.s 			page 13


 471:Middlewares/ST/STM32_USB_Host_Library/Core/Src/usbh_ctlreq.c ****   ep_descriptor->bInterval        = *(uint8_t *)(buf + 6);
 220              		.loc 1 471 3 is_stmt 1 view .LVU73
 221              		.loc 1 471 35 is_stmt 0 view .LVU74
 222 001a 8B79     		ldrb	r3, [r1, #6]	@ zero_extendqisi2
 223 001c 8371     		strb	r3, [r0, #6]
 472:Middlewares/ST/STM32_USB_Host_Library/Core/Src/usbh_ctlreq.c **** }
 224              		.loc 1 472 1 view .LVU75
 225 001e 7047     		bx	lr
 226              		.cfi_endproc
 227              	.LFE147:
 229              		.section	.text.USBH_ParseStringDesc,"ax",%progbits
 230              		.align	1
 231              		.syntax unified
 232              		.thumb
 233              		.thumb_func
 234              		.fpu fpv4-sp-d16
 236              	USBH_ParseStringDesc:
 237              	.LVL4:
 238              	.LFB148:
 473:Middlewares/ST/STM32_USB_Host_Library/Core/Src/usbh_ctlreq.c **** 
 474:Middlewares/ST/STM32_USB_Host_Library/Core/Src/usbh_ctlreq.c **** 
 475:Middlewares/ST/STM32_USB_Host_Library/Core/Src/usbh_ctlreq.c **** /**
 476:Middlewares/ST/STM32_USB_Host_Library/Core/Src/usbh_ctlreq.c ****   * @brief  USBH_ParseStringDesc
 477:Middlewares/ST/STM32_USB_Host_Library/Core/Src/usbh_ctlreq.c ****   *         This function Parses the string descriptor
 478:Middlewares/ST/STM32_USB_Host_Library/Core/Src/usbh_ctlreq.c ****   * @param  psrc: Source pointer containing the descriptor data
 479:Middlewares/ST/STM32_USB_Host_Library/Core/Src/usbh_ctlreq.c ****   * @param  pdest: Destination address pointer
 480:Middlewares/ST/STM32_USB_Host_Library/Core/Src/usbh_ctlreq.c ****   * @param  length: Length of the descriptor
 481:Middlewares/ST/STM32_USB_Host_Library/Core/Src/usbh_ctlreq.c ****   * @retval None
 482:Middlewares/ST/STM32_USB_Host_Library/Core/Src/usbh_ctlreq.c ****   */
 483:Middlewares/ST/STM32_USB_Host_Library/Core/Src/usbh_ctlreq.c **** static void USBH_ParseStringDesc(uint8_t *psrc, uint8_t *pdest, uint16_t length)
 484:Middlewares/ST/STM32_USB_Host_Library/Core/Src/usbh_ctlreq.c **** {
 239              		.loc 1 484 1 is_stmt 1 view -0
 240              		.cfi_startproc
 241              		@ args = 0, pretend = 0, frame = 0
 242              		@ frame_needed = 0, uses_anonymous_args = 0
 243              		@ link register save eliminated.
 485:Middlewares/ST/STM32_USB_Host_Library/Core/Src/usbh_ctlreq.c ****   uint16_t strlength;
 244              		.loc 1 485 3 view .LVU77
 486:Middlewares/ST/STM32_USB_Host_Library/Core/Src/usbh_ctlreq.c ****   uint16_t idx;
 245              		.loc 1 486 3 view .LVU78
 487:Middlewares/ST/STM32_USB_Host_Library/Core/Src/usbh_ctlreq.c **** 
 488:Middlewares/ST/STM32_USB_Host_Library/Core/Src/usbh_ctlreq.c ****   /* The UNICODE string descriptor is not NULL-terminated. The string length is
 489:Middlewares/ST/STM32_USB_Host_Library/Core/Src/usbh_ctlreq.c ****   computed by substracting two from the value of the first byte of the descriptor.
 490:Middlewares/ST/STM32_USB_Host_Library/Core/Src/usbh_ctlreq.c ****   */
 491:Middlewares/ST/STM32_USB_Host_Library/Core/Src/usbh_ctlreq.c **** 
 492:Middlewares/ST/STM32_USB_Host_Library/Core/Src/usbh_ctlreq.c ****   /* Check which is lower size, the Size of string or the length of bytes read
 493:Middlewares/ST/STM32_USB_Host_Library/Core/Src/usbh_ctlreq.c ****   from the device */
 494:Middlewares/ST/STM32_USB_Host_Library/Core/Src/usbh_ctlreq.c **** 
 495:Middlewares/ST/STM32_USB_Host_Library/Core/Src/usbh_ctlreq.c ****   if (psrc[1] == USB_DESC_TYPE_STRING)
 246              		.loc 1 495 3 view .LVU79
 247              		.loc 1 495 11 is_stmt 0 view .LVU80
 248 0000 4378     		ldrb	r3, [r0, #1]	@ zero_extendqisi2
 249              		.loc 1 495 6 view .LVU81
 250 0002 032B     		cmp	r3, #3
 251 0004 00D0     		beq	.L14
 252 0006 7047     		bx	lr
 253              	.L14:
ARM GAS  C:\Users\union\AppData\Local\Temp\ccc20eai.s 			page 14


 484:Middlewares/ST/STM32_USB_Host_Library/Core/Src/usbh_ctlreq.c ****   uint16_t strlength;
 254              		.loc 1 484 1 view .LVU82
 255 0008 10B4     		push	{r4}
 256              	.LCFI2:
 257              		.cfi_def_cfa_offset 4
 258              		.cfi_offset 4, -4
 496:Middlewares/ST/STM32_USB_Host_Library/Core/Src/usbh_ctlreq.c ****   {
 497:Middlewares/ST/STM32_USB_Host_Library/Core/Src/usbh_ctlreq.c ****     /* Make sure the Descriptor is String Type */
 498:Middlewares/ST/STM32_USB_Host_Library/Core/Src/usbh_ctlreq.c **** 
 499:Middlewares/ST/STM32_USB_Host_Library/Core/Src/usbh_ctlreq.c ****     /* psrc[0] contains Size of Descriptor, subtract 2 to get the length of string */
 500:Middlewares/ST/STM32_USB_Host_Library/Core/Src/usbh_ctlreq.c ****     strlength = ((((uint16_t)psrc[0] - 2U) <= length) ? ((uint16_t)psrc[0] - 2U) : length);
 259              		.loc 1 500 5 is_stmt 1 view .LVU83
 260              		.loc 1 500 34 is_stmt 0 view .LVU84
 261 000a 0478     		ldrb	r4, [r0]	@ zero_extendqisi2
 262              		.loc 1 500 38 view .LVU85
 263 000c 023C     		subs	r4, r4, #2
 264              		.loc 1 500 82 view .LVU86
 265 000e A242     		cmp	r2, r4
 266 0010 28BF     		it	cs
 267 0012 2246     		movcs	r2, r4
 268              	.LVL5:
 269              		.loc 1 500 15 view .LVU87
 270 0014 94B2     		uxth	r4, r2
 271              	.LVL6:
 501:Middlewares/ST/STM32_USB_Host_Library/Core/Src/usbh_ctlreq.c **** 
 502:Middlewares/ST/STM32_USB_Host_Library/Core/Src/usbh_ctlreq.c ****     /* Adjust the offset ignoring the String Len and Descriptor type */
 503:Middlewares/ST/STM32_USB_Host_Library/Core/Src/usbh_ctlreq.c ****     psrc += 2U;
 272              		.loc 1 503 5 is_stmt 1 view .LVU88
 504:Middlewares/ST/STM32_USB_Host_Library/Core/Src/usbh_ctlreq.c **** 
 505:Middlewares/ST/STM32_USB_Host_Library/Core/Src/usbh_ctlreq.c ****     for (idx = 0U; idx < strlength; idx += 2U)
 273              		.loc 1 505 5 view .LVU89
 274              		.loc 1 505 14 is_stmt 0 view .LVU90
 275 0016 0023     		movs	r3, #0
 276              	.LVL7:
 277              	.L8:
 278              		.loc 1 505 5 discriminator 1 view .LVU91
 279 0018 A342     		cmp	r3, r4
 280 001a 06D2     		bcs	.L15
 506:Middlewares/ST/STM32_USB_Host_Library/Core/Src/usbh_ctlreq.c ****     {
 507:Middlewares/ST/STM32_USB_Host_Library/Core/Src/usbh_ctlreq.c ****       /* Copy Only the string and ignore the UNICODE ID, hence add the src */
 508:Middlewares/ST/STM32_USB_Host_Library/Core/Src/usbh_ctlreq.c ****       *pdest =  psrc[idx];
 281              		.loc 1 508 7 is_stmt 1 discriminator 3 view .LVU92
 282              		.loc 1 508 21 is_stmt 0 discriminator 3 view .LVU93
 283 001c C218     		adds	r2, r0, r3
 284 001e 9278     		ldrb	r2, [r2, #2]	@ zero_extendqisi2
 285              		.loc 1 508 14 discriminator 3 view .LVU94
 286 0020 01F8012B 		strb	r2, [r1], #1
 287              	.LVL8:
 509:Middlewares/ST/STM32_USB_Host_Library/Core/Src/usbh_ctlreq.c ****       pdest++;
 288              		.loc 1 509 7 is_stmt 1 discriminator 3 view .LVU95
 505:Middlewares/ST/STM32_USB_Host_Library/Core/Src/usbh_ctlreq.c ****     {
 289              		.loc 1 505 41 is_stmt 0 discriminator 3 view .LVU96
 290 0024 0233     		adds	r3, r3, #2
 291              	.LVL9:
 505:Middlewares/ST/STM32_USB_Host_Library/Core/Src/usbh_ctlreq.c ****     {
 292              		.loc 1 505 41 discriminator 3 view .LVU97
 293 0026 9BB2     		uxth	r3, r3
ARM GAS  C:\Users\union\AppData\Local\Temp\ccc20eai.s 			page 15


 294              	.LVL10:
 505:Middlewares/ST/STM32_USB_Host_Library/Core/Src/usbh_ctlreq.c ****     {
 295              		.loc 1 505 41 discriminator 3 view .LVU98
 296 0028 F6E7     		b	.L8
 297              	.L15:
 510:Middlewares/ST/STM32_USB_Host_Library/Core/Src/usbh_ctlreq.c ****     }
 511:Middlewares/ST/STM32_USB_Host_Library/Core/Src/usbh_ctlreq.c ****     *pdest = 0U; /* mark end of string */
 298              		.loc 1 511 5 is_stmt 1 view .LVU99
 299              		.loc 1 511 12 is_stmt 0 view .LVU100
 300 002a 0023     		movs	r3, #0
 301              	.LVL11:
 302              		.loc 1 511 12 view .LVU101
 303 002c 0B70     		strb	r3, [r1]
 512:Middlewares/ST/STM32_USB_Host_Library/Core/Src/usbh_ctlreq.c ****   }
 513:Middlewares/ST/STM32_USB_Host_Library/Core/Src/usbh_ctlreq.c **** }
 304              		.loc 1 513 1 view .LVU102
 305 002e 5DF8044B 		ldr	r4, [sp], #4
 306              	.LCFI3:
 307              		.cfi_restore 4
 308              		.cfi_def_cfa_offset 0
 309              	.LVL12:
 310              		.loc 1 513 1 view .LVU103
 311 0032 7047     		bx	lr
 312              		.cfi_endproc
 313              	.LFE148:
 315              		.section	.text.USBH_HandleControl,"ax",%progbits
 316              		.align	1
 317              		.syntax unified
 318              		.thumb
 319              		.thumb_func
 320              		.fpu fpv4-sp-d16
 322              	USBH_HandleControl:
 323              	.LVL13:
 324              	.LFB151:
 514:Middlewares/ST/STM32_USB_Host_Library/Core/Src/usbh_ctlreq.c **** 
 515:Middlewares/ST/STM32_USB_Host_Library/Core/Src/usbh_ctlreq.c **** 
 516:Middlewares/ST/STM32_USB_Host_Library/Core/Src/usbh_ctlreq.c **** /**
 517:Middlewares/ST/STM32_USB_Host_Library/Core/Src/usbh_ctlreq.c ****   * @brief  USBH_GetNextDesc
 518:Middlewares/ST/STM32_USB_Host_Library/Core/Src/usbh_ctlreq.c ****   *         This function return the next descriptor header
 519:Middlewares/ST/STM32_USB_Host_Library/Core/Src/usbh_ctlreq.c ****   * @param  buf: Buffer where the cfg descriptor is available
 520:Middlewares/ST/STM32_USB_Host_Library/Core/Src/usbh_ctlreq.c ****   * @param  ptr: data pointer inside the cfg descriptor
 521:Middlewares/ST/STM32_USB_Host_Library/Core/Src/usbh_ctlreq.c ****   * @retval next header
 522:Middlewares/ST/STM32_USB_Host_Library/Core/Src/usbh_ctlreq.c ****   */
 523:Middlewares/ST/STM32_USB_Host_Library/Core/Src/usbh_ctlreq.c **** USBH_DescHeader_t  *USBH_GetNextDesc(uint8_t   *pbuf, uint16_t  *ptr)
 524:Middlewares/ST/STM32_USB_Host_Library/Core/Src/usbh_ctlreq.c **** {
 525:Middlewares/ST/STM32_USB_Host_Library/Core/Src/usbh_ctlreq.c ****   USBH_DescHeader_t  *pnext;
 526:Middlewares/ST/STM32_USB_Host_Library/Core/Src/usbh_ctlreq.c **** 
 527:Middlewares/ST/STM32_USB_Host_Library/Core/Src/usbh_ctlreq.c ****   *ptr += ((USBH_DescHeader_t *)(void *)pbuf)->bLength;
 528:Middlewares/ST/STM32_USB_Host_Library/Core/Src/usbh_ctlreq.c ****   pnext = (USBH_DescHeader_t *)(void *)((uint8_t *)(void *)pbuf + \
 529:Middlewares/ST/STM32_USB_Host_Library/Core/Src/usbh_ctlreq.c ****                                         ((USBH_DescHeader_t *)(void *)pbuf)->bLength);
 530:Middlewares/ST/STM32_USB_Host_Library/Core/Src/usbh_ctlreq.c **** 
 531:Middlewares/ST/STM32_USB_Host_Library/Core/Src/usbh_ctlreq.c ****   return (pnext);
 532:Middlewares/ST/STM32_USB_Host_Library/Core/Src/usbh_ctlreq.c **** }
 533:Middlewares/ST/STM32_USB_Host_Library/Core/Src/usbh_ctlreq.c **** 
 534:Middlewares/ST/STM32_USB_Host_Library/Core/Src/usbh_ctlreq.c **** 
 535:Middlewares/ST/STM32_USB_Host_Library/Core/Src/usbh_ctlreq.c **** /**
 536:Middlewares/ST/STM32_USB_Host_Library/Core/Src/usbh_ctlreq.c ****   * @brief  USBH_CtlReq
ARM GAS  C:\Users\union\AppData\Local\Temp\ccc20eai.s 			page 16


 537:Middlewares/ST/STM32_USB_Host_Library/Core/Src/usbh_ctlreq.c ****   *         USBH_CtlReq sends a control request and provide the status after
 538:Middlewares/ST/STM32_USB_Host_Library/Core/Src/usbh_ctlreq.c ****   *            completion of the request
 539:Middlewares/ST/STM32_USB_Host_Library/Core/Src/usbh_ctlreq.c ****   * @param  phost: Host Handle
 540:Middlewares/ST/STM32_USB_Host_Library/Core/Src/usbh_ctlreq.c ****   * @param  req: Setup Request Structure
 541:Middlewares/ST/STM32_USB_Host_Library/Core/Src/usbh_ctlreq.c ****   * @param  buff: data buffer address to store the response
 542:Middlewares/ST/STM32_USB_Host_Library/Core/Src/usbh_ctlreq.c ****   * @param  length: length of the response
 543:Middlewares/ST/STM32_USB_Host_Library/Core/Src/usbh_ctlreq.c ****   * @retval USBH Status
 544:Middlewares/ST/STM32_USB_Host_Library/Core/Src/usbh_ctlreq.c ****   */
 545:Middlewares/ST/STM32_USB_Host_Library/Core/Src/usbh_ctlreq.c **** USBH_StatusTypeDef USBH_CtlReq(USBH_HandleTypeDef *phost, uint8_t *buff,
 546:Middlewares/ST/STM32_USB_Host_Library/Core/Src/usbh_ctlreq.c ****                                uint16_t length)
 547:Middlewares/ST/STM32_USB_Host_Library/Core/Src/usbh_ctlreq.c **** {
 548:Middlewares/ST/STM32_USB_Host_Library/Core/Src/usbh_ctlreq.c ****   USBH_StatusTypeDef status;
 549:Middlewares/ST/STM32_USB_Host_Library/Core/Src/usbh_ctlreq.c ****   status = USBH_BUSY;
 550:Middlewares/ST/STM32_USB_Host_Library/Core/Src/usbh_ctlreq.c **** 
 551:Middlewares/ST/STM32_USB_Host_Library/Core/Src/usbh_ctlreq.c ****   switch (phost->RequestState)
 552:Middlewares/ST/STM32_USB_Host_Library/Core/Src/usbh_ctlreq.c ****   {
 553:Middlewares/ST/STM32_USB_Host_Library/Core/Src/usbh_ctlreq.c ****     case CMD_SEND:
 554:Middlewares/ST/STM32_USB_Host_Library/Core/Src/usbh_ctlreq.c ****       /* Start a SETUP transfer */
 555:Middlewares/ST/STM32_USB_Host_Library/Core/Src/usbh_ctlreq.c ****       phost->Control.buff = buff;
 556:Middlewares/ST/STM32_USB_Host_Library/Core/Src/usbh_ctlreq.c ****       phost->Control.length = length;
 557:Middlewares/ST/STM32_USB_Host_Library/Core/Src/usbh_ctlreq.c ****       phost->Control.state = CTRL_SETUP;
 558:Middlewares/ST/STM32_USB_Host_Library/Core/Src/usbh_ctlreq.c ****       phost->RequestState = CMD_WAIT;
 559:Middlewares/ST/STM32_USB_Host_Library/Core/Src/usbh_ctlreq.c ****       status = USBH_BUSY;
 560:Middlewares/ST/STM32_USB_Host_Library/Core/Src/usbh_ctlreq.c **** 
 561:Middlewares/ST/STM32_USB_Host_Library/Core/Src/usbh_ctlreq.c **** #if (USBH_USE_OS == 1U)
 562:Middlewares/ST/STM32_USB_Host_Library/Core/Src/usbh_ctlreq.c ****       phost->os_msg = (uint32_t)USBH_CONTROL_EVENT;
 563:Middlewares/ST/STM32_USB_Host_Library/Core/Src/usbh_ctlreq.c **** #if (osCMSIS < 0x20000U)
 564:Middlewares/ST/STM32_USB_Host_Library/Core/Src/usbh_ctlreq.c ****       (void)osMessagePut(phost->os_event, phost->os_msg, 0U);
 565:Middlewares/ST/STM32_USB_Host_Library/Core/Src/usbh_ctlreq.c **** #else
 566:Middlewares/ST/STM32_USB_Host_Library/Core/Src/usbh_ctlreq.c ****       (void)osMessageQueuePut(phost->os_event, &phost->os_msg, 0U, NULL);
 567:Middlewares/ST/STM32_USB_Host_Library/Core/Src/usbh_ctlreq.c **** #endif
 568:Middlewares/ST/STM32_USB_Host_Library/Core/Src/usbh_ctlreq.c **** #endif
 569:Middlewares/ST/STM32_USB_Host_Library/Core/Src/usbh_ctlreq.c ****       break;
 570:Middlewares/ST/STM32_USB_Host_Library/Core/Src/usbh_ctlreq.c **** 
 571:Middlewares/ST/STM32_USB_Host_Library/Core/Src/usbh_ctlreq.c ****     case CMD_WAIT:
 572:Middlewares/ST/STM32_USB_Host_Library/Core/Src/usbh_ctlreq.c ****       status = USBH_HandleControl(phost);
 573:Middlewares/ST/STM32_USB_Host_Library/Core/Src/usbh_ctlreq.c ****       if ((status == USBH_OK) || (status == USBH_NOT_SUPPORTED))
 574:Middlewares/ST/STM32_USB_Host_Library/Core/Src/usbh_ctlreq.c ****       {
 575:Middlewares/ST/STM32_USB_Host_Library/Core/Src/usbh_ctlreq.c ****         /* Transaction completed, move control state to idle */
 576:Middlewares/ST/STM32_USB_Host_Library/Core/Src/usbh_ctlreq.c ****         phost->RequestState = CMD_SEND;
 577:Middlewares/ST/STM32_USB_Host_Library/Core/Src/usbh_ctlreq.c ****         phost->Control.state = CTRL_IDLE;
 578:Middlewares/ST/STM32_USB_Host_Library/Core/Src/usbh_ctlreq.c ****       }
 579:Middlewares/ST/STM32_USB_Host_Library/Core/Src/usbh_ctlreq.c ****       else if (status == USBH_FAIL)
 580:Middlewares/ST/STM32_USB_Host_Library/Core/Src/usbh_ctlreq.c ****       {
 581:Middlewares/ST/STM32_USB_Host_Library/Core/Src/usbh_ctlreq.c ****         /* Failure Mode */
 582:Middlewares/ST/STM32_USB_Host_Library/Core/Src/usbh_ctlreq.c ****         phost->RequestState = CMD_SEND;
 583:Middlewares/ST/STM32_USB_Host_Library/Core/Src/usbh_ctlreq.c ****       }
 584:Middlewares/ST/STM32_USB_Host_Library/Core/Src/usbh_ctlreq.c ****       else
 585:Middlewares/ST/STM32_USB_Host_Library/Core/Src/usbh_ctlreq.c ****       {
 586:Middlewares/ST/STM32_USB_Host_Library/Core/Src/usbh_ctlreq.c ****         /* .. */
 587:Middlewares/ST/STM32_USB_Host_Library/Core/Src/usbh_ctlreq.c ****       }
 588:Middlewares/ST/STM32_USB_Host_Library/Core/Src/usbh_ctlreq.c **** #if (USBH_USE_OS == 1U)
 589:Middlewares/ST/STM32_USB_Host_Library/Core/Src/usbh_ctlreq.c ****       phost->os_msg = (uint32_t)USBH_CONTROL_EVENT;
 590:Middlewares/ST/STM32_USB_Host_Library/Core/Src/usbh_ctlreq.c **** #if (osCMSIS < 0x20000U)
 591:Middlewares/ST/STM32_USB_Host_Library/Core/Src/usbh_ctlreq.c ****       (void)osMessagePut(phost->os_event, phost->os_msg, 0U);
 592:Middlewares/ST/STM32_USB_Host_Library/Core/Src/usbh_ctlreq.c **** #else
 593:Middlewares/ST/STM32_USB_Host_Library/Core/Src/usbh_ctlreq.c ****       (void)osMessageQueuePut(phost->os_event, &phost->os_msg, 0U, NULL);
ARM GAS  C:\Users\union\AppData\Local\Temp\ccc20eai.s 			page 17


 594:Middlewares/ST/STM32_USB_Host_Library/Core/Src/usbh_ctlreq.c **** #endif
 595:Middlewares/ST/STM32_USB_Host_Library/Core/Src/usbh_ctlreq.c **** #endif
 596:Middlewares/ST/STM32_USB_Host_Library/Core/Src/usbh_ctlreq.c ****       break;
 597:Middlewares/ST/STM32_USB_Host_Library/Core/Src/usbh_ctlreq.c **** 
 598:Middlewares/ST/STM32_USB_Host_Library/Core/Src/usbh_ctlreq.c ****     default:
 599:Middlewares/ST/STM32_USB_Host_Library/Core/Src/usbh_ctlreq.c ****       break;
 600:Middlewares/ST/STM32_USB_Host_Library/Core/Src/usbh_ctlreq.c ****   }
 601:Middlewares/ST/STM32_USB_Host_Library/Core/Src/usbh_ctlreq.c ****   return status;
 602:Middlewares/ST/STM32_USB_Host_Library/Core/Src/usbh_ctlreq.c **** }
 603:Middlewares/ST/STM32_USB_Host_Library/Core/Src/usbh_ctlreq.c **** 
 604:Middlewares/ST/STM32_USB_Host_Library/Core/Src/usbh_ctlreq.c **** 
 605:Middlewares/ST/STM32_USB_Host_Library/Core/Src/usbh_ctlreq.c **** /**
 606:Middlewares/ST/STM32_USB_Host_Library/Core/Src/usbh_ctlreq.c ****   * @brief  USBH_HandleControl
 607:Middlewares/ST/STM32_USB_Host_Library/Core/Src/usbh_ctlreq.c ****   *         Handles the USB control transfer state machine
 608:Middlewares/ST/STM32_USB_Host_Library/Core/Src/usbh_ctlreq.c ****   * @param  phost: Host Handle
 609:Middlewares/ST/STM32_USB_Host_Library/Core/Src/usbh_ctlreq.c ****   * @retval USBH Status
 610:Middlewares/ST/STM32_USB_Host_Library/Core/Src/usbh_ctlreq.c ****   */
 611:Middlewares/ST/STM32_USB_Host_Library/Core/Src/usbh_ctlreq.c **** static USBH_StatusTypeDef USBH_HandleControl(USBH_HandleTypeDef *phost)
 612:Middlewares/ST/STM32_USB_Host_Library/Core/Src/usbh_ctlreq.c **** {
 325              		.loc 1 612 1 is_stmt 1 view -0
 326              		.cfi_startproc
 327              		@ args = 0, pretend = 0, frame = 0
 328              		@ frame_needed = 0, uses_anonymous_args = 0
 329              		.loc 1 612 1 is_stmt 0 view .LVU105
 330 0000 30B5     		push	{r4, r5, lr}
 331              	.LCFI4:
 332              		.cfi_def_cfa_offset 12
 333              		.cfi_offset 4, -12
 334              		.cfi_offset 5, -8
 335              		.cfi_offset 14, -4
 336 0002 83B0     		sub	sp, sp, #12
 337              	.LCFI5:
 338              		.cfi_def_cfa_offset 24
 339 0004 0446     		mov	r4, r0
 613:Middlewares/ST/STM32_USB_Host_Library/Core/Src/usbh_ctlreq.c ****   uint8_t direction;
 340              		.loc 1 613 3 is_stmt 1 view .LVU106
 614:Middlewares/ST/STM32_USB_Host_Library/Core/Src/usbh_ctlreq.c ****   USBH_StatusTypeDef status = USBH_BUSY;
 341              		.loc 1 614 3 view .LVU107
 342              	.LVL14:
 615:Middlewares/ST/STM32_USB_Host_Library/Core/Src/usbh_ctlreq.c ****   USBH_URBStateTypeDef URB_Status = USBH_URB_IDLE;
 343              		.loc 1 615 3 view .LVU108
 616:Middlewares/ST/STM32_USB_Host_Library/Core/Src/usbh_ctlreq.c **** 
 617:Middlewares/ST/STM32_USB_Host_Library/Core/Src/usbh_ctlreq.c ****   switch (phost->Control.state)
 344              		.loc 1 617 3 view .LVU109
 345              		.loc 1 617 25 is_stmt 0 view .LVU110
 346 0006 037E     		ldrb	r3, [r0, #24]	@ zero_extendqisi2
 347              		.loc 1 617 3 view .LVU111
 348 0008 013B     		subs	r3, r3, #1
 349 000a 0A2B     		cmp	r3, #10
 350 000c 00F2EA80 		bhi	.L44
 351 0010 DFE803F0 		tbb	[pc, r3]
 352              	.L19:
 353 0014 06       		.byte	(.L29-.L19)/2
 354 0015 10       		.byte	(.L28-.L19)/2
 355 0016 37       		.byte	(.L27-.L19)/2
 356 0017 43       		.byte	(.L26-.L19)/2
 357 0018 56       		.byte	(.L25-.L19)/2
ARM GAS  C:\Users\union\AppData\Local\Temp\ccc20eai.s 			page 18


 358 0019 64       		.byte	(.L24-.L19)/2
 359 001a 80       		.byte	(.L23-.L19)/2
 360 001b 8C       		.byte	(.L22-.L19)/2
 361 001c 9F       		.byte	(.L21-.L19)/2
 362 001d AD       		.byte	(.L20-.L19)/2
 363 001e C4       		.byte	(.L18-.L19)/2
 364 001f 00       		.p2align 1
 365              	.L29:
 618:Middlewares/ST/STM32_USB_Host_Library/Core/Src/usbh_ctlreq.c ****   {
 619:Middlewares/ST/STM32_USB_Host_Library/Core/Src/usbh_ctlreq.c ****     case CTRL_SETUP:
 620:Middlewares/ST/STM32_USB_Host_Library/Core/Src/usbh_ctlreq.c ****       /* send a SETUP packet */
 621:Middlewares/ST/STM32_USB_Host_Library/Core/Src/usbh_ctlreq.c ****       USBH_CtlSendSetup(phost, (uint8_t *)(void *)phost->Control.setup.d8,
 366              		.loc 1 621 7 is_stmt 1 view .LVU112
 367 0020 4279     		ldrb	r2, [r0, #5]	@ zero_extendqisi2
 368 0022 00F11001 		add	r1, r0, #16
 369 0026 FFF7FEFF 		bl	USBH_CtlSendSetup
 370              	.LVL15:
 622:Middlewares/ST/STM32_USB_Host_Library/Core/Src/usbh_ctlreq.c ****                         phost->Control.pipe_out);
 623:Middlewares/ST/STM32_USB_Host_Library/Core/Src/usbh_ctlreq.c **** 
 624:Middlewares/ST/STM32_USB_Host_Library/Core/Src/usbh_ctlreq.c ****       phost->Control.state = CTRL_SETUP_WAIT;
 371              		.loc 1 624 7 view .LVU113
 372              		.loc 1 624 28 is_stmt 0 view .LVU114
 373 002a 0223     		movs	r3, #2
 374 002c 2376     		strb	r3, [r4, #24]
 625:Middlewares/ST/STM32_USB_Host_Library/Core/Src/usbh_ctlreq.c ****       break;
 375              		.loc 1 625 7 is_stmt 1 view .LVU115
 614:Middlewares/ST/STM32_USB_Host_Library/Core/Src/usbh_ctlreq.c ****   USBH_URBStateTypeDef URB_Status = USBH_URB_IDLE;
 376              		.loc 1 614 22 is_stmt 0 view .LVU116
 377 002e 0120     		movs	r0, #1
 378              	.LVL16:
 379              	.L17:
 626:Middlewares/ST/STM32_USB_Host_Library/Core/Src/usbh_ctlreq.c **** 
 627:Middlewares/ST/STM32_USB_Host_Library/Core/Src/usbh_ctlreq.c ****     case CTRL_SETUP_WAIT:
 628:Middlewares/ST/STM32_USB_Host_Library/Core/Src/usbh_ctlreq.c **** 
 629:Middlewares/ST/STM32_USB_Host_Library/Core/Src/usbh_ctlreq.c ****       URB_Status = USBH_LL_GetURBState(phost, phost->Control.pipe_out);
 630:Middlewares/ST/STM32_USB_Host_Library/Core/Src/usbh_ctlreq.c ****       /* case SETUP packet sent successfully */
 631:Middlewares/ST/STM32_USB_Host_Library/Core/Src/usbh_ctlreq.c ****       if (URB_Status == USBH_URB_DONE)
 632:Middlewares/ST/STM32_USB_Host_Library/Core/Src/usbh_ctlreq.c ****       {
 633:Middlewares/ST/STM32_USB_Host_Library/Core/Src/usbh_ctlreq.c ****         direction = (phost->Control.setup.b.bmRequestType & USB_REQ_DIR_MASK);
 634:Middlewares/ST/STM32_USB_Host_Library/Core/Src/usbh_ctlreq.c **** 
 635:Middlewares/ST/STM32_USB_Host_Library/Core/Src/usbh_ctlreq.c ****         /* check if there is a data stage */
 636:Middlewares/ST/STM32_USB_Host_Library/Core/Src/usbh_ctlreq.c ****         if (phost->Control.setup.b.wLength.w != 0U)
 637:Middlewares/ST/STM32_USB_Host_Library/Core/Src/usbh_ctlreq.c ****         {
 638:Middlewares/ST/STM32_USB_Host_Library/Core/Src/usbh_ctlreq.c ****           if (direction == USB_D2H)
 639:Middlewares/ST/STM32_USB_Host_Library/Core/Src/usbh_ctlreq.c ****           {
 640:Middlewares/ST/STM32_USB_Host_Library/Core/Src/usbh_ctlreq.c ****             /* Data Direction is IN */
 641:Middlewares/ST/STM32_USB_Host_Library/Core/Src/usbh_ctlreq.c ****             phost->Control.state = CTRL_DATA_IN;
 642:Middlewares/ST/STM32_USB_Host_Library/Core/Src/usbh_ctlreq.c ****           }
 643:Middlewares/ST/STM32_USB_Host_Library/Core/Src/usbh_ctlreq.c ****           else
 644:Middlewares/ST/STM32_USB_Host_Library/Core/Src/usbh_ctlreq.c ****           {
 645:Middlewares/ST/STM32_USB_Host_Library/Core/Src/usbh_ctlreq.c ****             /* Data Direction is OUT */
 646:Middlewares/ST/STM32_USB_Host_Library/Core/Src/usbh_ctlreq.c ****             phost->Control.state = CTRL_DATA_OUT;
 647:Middlewares/ST/STM32_USB_Host_Library/Core/Src/usbh_ctlreq.c ****           }
 648:Middlewares/ST/STM32_USB_Host_Library/Core/Src/usbh_ctlreq.c ****         }
 649:Middlewares/ST/STM32_USB_Host_Library/Core/Src/usbh_ctlreq.c ****         /* No DATA stage */
 650:Middlewares/ST/STM32_USB_Host_Library/Core/Src/usbh_ctlreq.c ****         else
 651:Middlewares/ST/STM32_USB_Host_Library/Core/Src/usbh_ctlreq.c ****         {
ARM GAS  C:\Users\union\AppData\Local\Temp\ccc20eai.s 			page 19


 652:Middlewares/ST/STM32_USB_Host_Library/Core/Src/usbh_ctlreq.c ****           /* If there is No Data Transfer Stage */
 653:Middlewares/ST/STM32_USB_Host_Library/Core/Src/usbh_ctlreq.c ****           if (direction == USB_D2H)
 654:Middlewares/ST/STM32_USB_Host_Library/Core/Src/usbh_ctlreq.c ****           {
 655:Middlewares/ST/STM32_USB_Host_Library/Core/Src/usbh_ctlreq.c ****             /* Data Direction is IN */
 656:Middlewares/ST/STM32_USB_Host_Library/Core/Src/usbh_ctlreq.c ****             phost->Control.state = CTRL_STATUS_OUT;
 657:Middlewares/ST/STM32_USB_Host_Library/Core/Src/usbh_ctlreq.c ****           }
 658:Middlewares/ST/STM32_USB_Host_Library/Core/Src/usbh_ctlreq.c ****           else
 659:Middlewares/ST/STM32_USB_Host_Library/Core/Src/usbh_ctlreq.c ****           {
 660:Middlewares/ST/STM32_USB_Host_Library/Core/Src/usbh_ctlreq.c ****             /* Data Direction is OUT */
 661:Middlewares/ST/STM32_USB_Host_Library/Core/Src/usbh_ctlreq.c ****             phost->Control.state = CTRL_STATUS_IN;
 662:Middlewares/ST/STM32_USB_Host_Library/Core/Src/usbh_ctlreq.c ****           }
 663:Middlewares/ST/STM32_USB_Host_Library/Core/Src/usbh_ctlreq.c ****         }
 664:Middlewares/ST/STM32_USB_Host_Library/Core/Src/usbh_ctlreq.c **** 
 665:Middlewares/ST/STM32_USB_Host_Library/Core/Src/usbh_ctlreq.c **** #if (USBH_USE_OS == 1U)
 666:Middlewares/ST/STM32_USB_Host_Library/Core/Src/usbh_ctlreq.c ****         phost->os_msg = (uint32_t)USBH_CONTROL_EVENT;
 667:Middlewares/ST/STM32_USB_Host_Library/Core/Src/usbh_ctlreq.c **** #if (osCMSIS < 0x20000U)
 668:Middlewares/ST/STM32_USB_Host_Library/Core/Src/usbh_ctlreq.c ****         (void)osMessagePut(phost->os_event, phost->os_msg, 0U);
 669:Middlewares/ST/STM32_USB_Host_Library/Core/Src/usbh_ctlreq.c **** #else
 670:Middlewares/ST/STM32_USB_Host_Library/Core/Src/usbh_ctlreq.c ****         (void)osMessageQueuePut(phost->os_event, &phost->os_msg, 0U, NULL);
 671:Middlewares/ST/STM32_USB_Host_Library/Core/Src/usbh_ctlreq.c **** #endif
 672:Middlewares/ST/STM32_USB_Host_Library/Core/Src/usbh_ctlreq.c **** #endif
 673:Middlewares/ST/STM32_USB_Host_Library/Core/Src/usbh_ctlreq.c ****       }
 674:Middlewares/ST/STM32_USB_Host_Library/Core/Src/usbh_ctlreq.c ****       else
 675:Middlewares/ST/STM32_USB_Host_Library/Core/Src/usbh_ctlreq.c ****       {
 676:Middlewares/ST/STM32_USB_Host_Library/Core/Src/usbh_ctlreq.c ****         if ((URB_Status == USBH_URB_ERROR) || (URB_Status == USBH_URB_NOTREADY))
 677:Middlewares/ST/STM32_USB_Host_Library/Core/Src/usbh_ctlreq.c ****         {
 678:Middlewares/ST/STM32_USB_Host_Library/Core/Src/usbh_ctlreq.c ****           phost->Control.state = CTRL_ERROR;
 679:Middlewares/ST/STM32_USB_Host_Library/Core/Src/usbh_ctlreq.c **** 
 680:Middlewares/ST/STM32_USB_Host_Library/Core/Src/usbh_ctlreq.c **** #if (USBH_USE_OS == 1U)
 681:Middlewares/ST/STM32_USB_Host_Library/Core/Src/usbh_ctlreq.c ****           phost->os_msg = (uint32_t)USBH_CONTROL_EVENT;
 682:Middlewares/ST/STM32_USB_Host_Library/Core/Src/usbh_ctlreq.c **** #if (osCMSIS < 0x20000U)
 683:Middlewares/ST/STM32_USB_Host_Library/Core/Src/usbh_ctlreq.c ****           (void)osMessagePut(phost->os_event, phost->os_msg, 0U);
 684:Middlewares/ST/STM32_USB_Host_Library/Core/Src/usbh_ctlreq.c **** #else
 685:Middlewares/ST/STM32_USB_Host_Library/Core/Src/usbh_ctlreq.c ****           (void)osMessageQueuePut(phost->os_event, &phost->os_msg, 0U, NULL);
 686:Middlewares/ST/STM32_USB_Host_Library/Core/Src/usbh_ctlreq.c **** #endif
 687:Middlewares/ST/STM32_USB_Host_Library/Core/Src/usbh_ctlreq.c **** #endif
 688:Middlewares/ST/STM32_USB_Host_Library/Core/Src/usbh_ctlreq.c ****         }
 689:Middlewares/ST/STM32_USB_Host_Library/Core/Src/usbh_ctlreq.c ****       }
 690:Middlewares/ST/STM32_USB_Host_Library/Core/Src/usbh_ctlreq.c ****       break;
 691:Middlewares/ST/STM32_USB_Host_Library/Core/Src/usbh_ctlreq.c **** 
 692:Middlewares/ST/STM32_USB_Host_Library/Core/Src/usbh_ctlreq.c ****     case CTRL_DATA_IN:
 693:Middlewares/ST/STM32_USB_Host_Library/Core/Src/usbh_ctlreq.c ****       /* Issue an IN token */
 694:Middlewares/ST/STM32_USB_Host_Library/Core/Src/usbh_ctlreq.c ****       phost->Control.timer = (uint16_t)phost->Timer;
 695:Middlewares/ST/STM32_USB_Host_Library/Core/Src/usbh_ctlreq.c ****       USBH_CtlReceiveData(phost, phost->Control.buff, phost->Control.length,
 696:Middlewares/ST/STM32_USB_Host_Library/Core/Src/usbh_ctlreq.c ****                           phost->Control.pipe_in);
 697:Middlewares/ST/STM32_USB_Host_Library/Core/Src/usbh_ctlreq.c **** 
 698:Middlewares/ST/STM32_USB_Host_Library/Core/Src/usbh_ctlreq.c ****       phost->Control.state = CTRL_DATA_IN_WAIT;
 699:Middlewares/ST/STM32_USB_Host_Library/Core/Src/usbh_ctlreq.c ****       break;
 700:Middlewares/ST/STM32_USB_Host_Library/Core/Src/usbh_ctlreq.c **** 
 701:Middlewares/ST/STM32_USB_Host_Library/Core/Src/usbh_ctlreq.c ****     case CTRL_DATA_IN_WAIT:
 702:Middlewares/ST/STM32_USB_Host_Library/Core/Src/usbh_ctlreq.c **** 
 703:Middlewares/ST/STM32_USB_Host_Library/Core/Src/usbh_ctlreq.c ****       URB_Status = USBH_LL_GetURBState(phost, phost->Control.pipe_in);
 704:Middlewares/ST/STM32_USB_Host_Library/Core/Src/usbh_ctlreq.c **** 
 705:Middlewares/ST/STM32_USB_Host_Library/Core/Src/usbh_ctlreq.c ****       /* check is DATA packet transferred successfully */
 706:Middlewares/ST/STM32_USB_Host_Library/Core/Src/usbh_ctlreq.c ****       if (URB_Status == USBH_URB_DONE)
 707:Middlewares/ST/STM32_USB_Host_Library/Core/Src/usbh_ctlreq.c ****       {
 708:Middlewares/ST/STM32_USB_Host_Library/Core/Src/usbh_ctlreq.c ****         phost->Control.state = CTRL_STATUS_OUT;
ARM GAS  C:\Users\union\AppData\Local\Temp\ccc20eai.s 			page 20


 709:Middlewares/ST/STM32_USB_Host_Library/Core/Src/usbh_ctlreq.c **** 
 710:Middlewares/ST/STM32_USB_Host_Library/Core/Src/usbh_ctlreq.c **** #if (USBH_USE_OS == 1U)
 711:Middlewares/ST/STM32_USB_Host_Library/Core/Src/usbh_ctlreq.c ****         phost->os_msg = (uint32_t)USBH_CONTROL_EVENT;
 712:Middlewares/ST/STM32_USB_Host_Library/Core/Src/usbh_ctlreq.c **** #if (osCMSIS < 0x20000U)
 713:Middlewares/ST/STM32_USB_Host_Library/Core/Src/usbh_ctlreq.c ****         (void)osMessagePut(phost->os_event, phost->os_msg, 0U);
 714:Middlewares/ST/STM32_USB_Host_Library/Core/Src/usbh_ctlreq.c **** #else
 715:Middlewares/ST/STM32_USB_Host_Library/Core/Src/usbh_ctlreq.c ****         (void)osMessageQueuePut(phost->os_event, &phost->os_msg, 0U, NULL);
 716:Middlewares/ST/STM32_USB_Host_Library/Core/Src/usbh_ctlreq.c **** #endif
 717:Middlewares/ST/STM32_USB_Host_Library/Core/Src/usbh_ctlreq.c **** #endif
 718:Middlewares/ST/STM32_USB_Host_Library/Core/Src/usbh_ctlreq.c ****       }
 719:Middlewares/ST/STM32_USB_Host_Library/Core/Src/usbh_ctlreq.c **** 
 720:Middlewares/ST/STM32_USB_Host_Library/Core/Src/usbh_ctlreq.c ****       /* manage error cases*/
 721:Middlewares/ST/STM32_USB_Host_Library/Core/Src/usbh_ctlreq.c ****       if (URB_Status == USBH_URB_STALL)
 722:Middlewares/ST/STM32_USB_Host_Library/Core/Src/usbh_ctlreq.c ****       {
 723:Middlewares/ST/STM32_USB_Host_Library/Core/Src/usbh_ctlreq.c ****         /* In stall case, return to previous machine state*/
 724:Middlewares/ST/STM32_USB_Host_Library/Core/Src/usbh_ctlreq.c ****         status = USBH_NOT_SUPPORTED;
 725:Middlewares/ST/STM32_USB_Host_Library/Core/Src/usbh_ctlreq.c **** 
 726:Middlewares/ST/STM32_USB_Host_Library/Core/Src/usbh_ctlreq.c **** #if (USBH_USE_OS == 1U)
 727:Middlewares/ST/STM32_USB_Host_Library/Core/Src/usbh_ctlreq.c ****         phost->os_msg = (uint32_t)USBH_CONTROL_EVENT;
 728:Middlewares/ST/STM32_USB_Host_Library/Core/Src/usbh_ctlreq.c **** #if (osCMSIS < 0x20000U)
 729:Middlewares/ST/STM32_USB_Host_Library/Core/Src/usbh_ctlreq.c ****         (void)osMessagePut(phost->os_event, phost->os_msg, 0U);
 730:Middlewares/ST/STM32_USB_Host_Library/Core/Src/usbh_ctlreq.c **** #else
 731:Middlewares/ST/STM32_USB_Host_Library/Core/Src/usbh_ctlreq.c ****         (void)osMessageQueuePut(phost->os_event, &phost->os_msg, 0U, NULL);
 732:Middlewares/ST/STM32_USB_Host_Library/Core/Src/usbh_ctlreq.c **** #endif
 733:Middlewares/ST/STM32_USB_Host_Library/Core/Src/usbh_ctlreq.c **** #endif
 734:Middlewares/ST/STM32_USB_Host_Library/Core/Src/usbh_ctlreq.c ****       }
 735:Middlewares/ST/STM32_USB_Host_Library/Core/Src/usbh_ctlreq.c ****       else
 736:Middlewares/ST/STM32_USB_Host_Library/Core/Src/usbh_ctlreq.c ****       {
 737:Middlewares/ST/STM32_USB_Host_Library/Core/Src/usbh_ctlreq.c ****         if (URB_Status == USBH_URB_ERROR)
 738:Middlewares/ST/STM32_USB_Host_Library/Core/Src/usbh_ctlreq.c ****         {
 739:Middlewares/ST/STM32_USB_Host_Library/Core/Src/usbh_ctlreq.c ****           /* Device error */
 740:Middlewares/ST/STM32_USB_Host_Library/Core/Src/usbh_ctlreq.c ****           phost->Control.state = CTRL_ERROR;
 741:Middlewares/ST/STM32_USB_Host_Library/Core/Src/usbh_ctlreq.c **** 
 742:Middlewares/ST/STM32_USB_Host_Library/Core/Src/usbh_ctlreq.c **** #if (USBH_USE_OS == 1U)
 743:Middlewares/ST/STM32_USB_Host_Library/Core/Src/usbh_ctlreq.c ****           phost->os_msg = (uint32_t)USBH_CONTROL_EVENT;
 744:Middlewares/ST/STM32_USB_Host_Library/Core/Src/usbh_ctlreq.c **** #if (osCMSIS < 0x20000U)
 745:Middlewares/ST/STM32_USB_Host_Library/Core/Src/usbh_ctlreq.c ****           (void)osMessagePut(phost->os_event, phost->os_msg, 0U);
 746:Middlewares/ST/STM32_USB_Host_Library/Core/Src/usbh_ctlreq.c **** #else
 747:Middlewares/ST/STM32_USB_Host_Library/Core/Src/usbh_ctlreq.c ****           (void)osMessageQueuePut(phost->os_event, &phost->os_msg, 0U, NULL);
 748:Middlewares/ST/STM32_USB_Host_Library/Core/Src/usbh_ctlreq.c **** #endif
 749:Middlewares/ST/STM32_USB_Host_Library/Core/Src/usbh_ctlreq.c **** #endif
 750:Middlewares/ST/STM32_USB_Host_Library/Core/Src/usbh_ctlreq.c ****         }
 751:Middlewares/ST/STM32_USB_Host_Library/Core/Src/usbh_ctlreq.c ****       }
 752:Middlewares/ST/STM32_USB_Host_Library/Core/Src/usbh_ctlreq.c ****       break;
 753:Middlewares/ST/STM32_USB_Host_Library/Core/Src/usbh_ctlreq.c **** 
 754:Middlewares/ST/STM32_USB_Host_Library/Core/Src/usbh_ctlreq.c ****     case CTRL_DATA_OUT:
 755:Middlewares/ST/STM32_USB_Host_Library/Core/Src/usbh_ctlreq.c **** 
 756:Middlewares/ST/STM32_USB_Host_Library/Core/Src/usbh_ctlreq.c ****       USBH_CtlSendData(phost, phost->Control.buff, phost->Control.length,
 757:Middlewares/ST/STM32_USB_Host_Library/Core/Src/usbh_ctlreq.c ****                        phost->Control.pipe_out, 1U);
 758:Middlewares/ST/STM32_USB_Host_Library/Core/Src/usbh_ctlreq.c **** 
 759:Middlewares/ST/STM32_USB_Host_Library/Core/Src/usbh_ctlreq.c ****       phost->Control.timer = (uint16_t)phost->Timer;
 760:Middlewares/ST/STM32_USB_Host_Library/Core/Src/usbh_ctlreq.c ****       phost->Control.state = CTRL_DATA_OUT_WAIT;
 761:Middlewares/ST/STM32_USB_Host_Library/Core/Src/usbh_ctlreq.c ****       break;
 762:Middlewares/ST/STM32_USB_Host_Library/Core/Src/usbh_ctlreq.c **** 
 763:Middlewares/ST/STM32_USB_Host_Library/Core/Src/usbh_ctlreq.c ****     case CTRL_DATA_OUT_WAIT:
 764:Middlewares/ST/STM32_USB_Host_Library/Core/Src/usbh_ctlreq.c **** 
 765:Middlewares/ST/STM32_USB_Host_Library/Core/Src/usbh_ctlreq.c ****       URB_Status = USBH_LL_GetURBState(phost, phost->Control.pipe_out);
ARM GAS  C:\Users\union\AppData\Local\Temp\ccc20eai.s 			page 21


 766:Middlewares/ST/STM32_USB_Host_Library/Core/Src/usbh_ctlreq.c **** 
 767:Middlewares/ST/STM32_USB_Host_Library/Core/Src/usbh_ctlreq.c ****       if (URB_Status == USBH_URB_DONE)
 768:Middlewares/ST/STM32_USB_Host_Library/Core/Src/usbh_ctlreq.c ****       {
 769:Middlewares/ST/STM32_USB_Host_Library/Core/Src/usbh_ctlreq.c ****         /* If the Setup Pkt is sent successful, then change the state */
 770:Middlewares/ST/STM32_USB_Host_Library/Core/Src/usbh_ctlreq.c ****         phost->Control.state = CTRL_STATUS_IN;
 771:Middlewares/ST/STM32_USB_Host_Library/Core/Src/usbh_ctlreq.c **** 
 772:Middlewares/ST/STM32_USB_Host_Library/Core/Src/usbh_ctlreq.c **** #if (USBH_USE_OS == 1U)
 773:Middlewares/ST/STM32_USB_Host_Library/Core/Src/usbh_ctlreq.c ****         phost->os_msg = (uint32_t)USBH_CONTROL_EVENT;
 774:Middlewares/ST/STM32_USB_Host_Library/Core/Src/usbh_ctlreq.c **** #if (osCMSIS < 0x20000U)
 775:Middlewares/ST/STM32_USB_Host_Library/Core/Src/usbh_ctlreq.c ****         (void)osMessagePut(phost->os_event, phost->os_msg, 0U);
 776:Middlewares/ST/STM32_USB_Host_Library/Core/Src/usbh_ctlreq.c **** #else
 777:Middlewares/ST/STM32_USB_Host_Library/Core/Src/usbh_ctlreq.c ****         (void)osMessageQueuePut(phost->os_event, &phost->os_msg, 0U, NULL);
 778:Middlewares/ST/STM32_USB_Host_Library/Core/Src/usbh_ctlreq.c **** #endif
 779:Middlewares/ST/STM32_USB_Host_Library/Core/Src/usbh_ctlreq.c **** #endif
 780:Middlewares/ST/STM32_USB_Host_Library/Core/Src/usbh_ctlreq.c ****       }
 781:Middlewares/ST/STM32_USB_Host_Library/Core/Src/usbh_ctlreq.c **** 
 782:Middlewares/ST/STM32_USB_Host_Library/Core/Src/usbh_ctlreq.c ****       /* handle error cases */
 783:Middlewares/ST/STM32_USB_Host_Library/Core/Src/usbh_ctlreq.c ****       else if (URB_Status == USBH_URB_STALL)
 784:Middlewares/ST/STM32_USB_Host_Library/Core/Src/usbh_ctlreq.c ****       {
 785:Middlewares/ST/STM32_USB_Host_Library/Core/Src/usbh_ctlreq.c ****         /* In stall case, return to previous machine state*/
 786:Middlewares/ST/STM32_USB_Host_Library/Core/Src/usbh_ctlreq.c ****         phost->Control.state = CTRL_STALLED;
 787:Middlewares/ST/STM32_USB_Host_Library/Core/Src/usbh_ctlreq.c ****         status = USBH_NOT_SUPPORTED;
 788:Middlewares/ST/STM32_USB_Host_Library/Core/Src/usbh_ctlreq.c **** 
 789:Middlewares/ST/STM32_USB_Host_Library/Core/Src/usbh_ctlreq.c **** #if (USBH_USE_OS == 1U)
 790:Middlewares/ST/STM32_USB_Host_Library/Core/Src/usbh_ctlreq.c ****         phost->os_msg = (uint32_t)USBH_CONTROL_EVENT;
 791:Middlewares/ST/STM32_USB_Host_Library/Core/Src/usbh_ctlreq.c **** #if (osCMSIS < 0x20000U)
 792:Middlewares/ST/STM32_USB_Host_Library/Core/Src/usbh_ctlreq.c ****         (void)osMessagePut(phost->os_event, phost->os_msg, 0U);
 793:Middlewares/ST/STM32_USB_Host_Library/Core/Src/usbh_ctlreq.c **** #else
 794:Middlewares/ST/STM32_USB_Host_Library/Core/Src/usbh_ctlreq.c ****         (void)osMessageQueuePut(phost->os_event, &phost->os_msg, 0U, NULL);
 795:Middlewares/ST/STM32_USB_Host_Library/Core/Src/usbh_ctlreq.c **** #endif
 796:Middlewares/ST/STM32_USB_Host_Library/Core/Src/usbh_ctlreq.c **** #endif
 797:Middlewares/ST/STM32_USB_Host_Library/Core/Src/usbh_ctlreq.c ****       }
 798:Middlewares/ST/STM32_USB_Host_Library/Core/Src/usbh_ctlreq.c ****       else if (URB_Status == USBH_URB_NOTREADY)
 799:Middlewares/ST/STM32_USB_Host_Library/Core/Src/usbh_ctlreq.c ****       {
 800:Middlewares/ST/STM32_USB_Host_Library/Core/Src/usbh_ctlreq.c ****         /* Nack received from device */
 801:Middlewares/ST/STM32_USB_Host_Library/Core/Src/usbh_ctlreq.c ****         phost->Control.state = CTRL_DATA_OUT;
 802:Middlewares/ST/STM32_USB_Host_Library/Core/Src/usbh_ctlreq.c **** 
 803:Middlewares/ST/STM32_USB_Host_Library/Core/Src/usbh_ctlreq.c **** #if (USBH_USE_OS == 1U)
 804:Middlewares/ST/STM32_USB_Host_Library/Core/Src/usbh_ctlreq.c ****         phost->os_msg = (uint32_t)USBH_CONTROL_EVENT;
 805:Middlewares/ST/STM32_USB_Host_Library/Core/Src/usbh_ctlreq.c **** #if (osCMSIS < 0x20000U)
 806:Middlewares/ST/STM32_USB_Host_Library/Core/Src/usbh_ctlreq.c ****         (void)osMessagePut(phost->os_event, phost->os_msg, 0U);
 807:Middlewares/ST/STM32_USB_Host_Library/Core/Src/usbh_ctlreq.c **** #else
 808:Middlewares/ST/STM32_USB_Host_Library/Core/Src/usbh_ctlreq.c ****         (void)osMessageQueuePut(phost->os_event, &phost->os_msg, 0U, NULL);
 809:Middlewares/ST/STM32_USB_Host_Library/Core/Src/usbh_ctlreq.c **** #endif
 810:Middlewares/ST/STM32_USB_Host_Library/Core/Src/usbh_ctlreq.c **** #endif
 811:Middlewares/ST/STM32_USB_Host_Library/Core/Src/usbh_ctlreq.c ****       }
 812:Middlewares/ST/STM32_USB_Host_Library/Core/Src/usbh_ctlreq.c ****       else
 813:Middlewares/ST/STM32_USB_Host_Library/Core/Src/usbh_ctlreq.c ****       {
 814:Middlewares/ST/STM32_USB_Host_Library/Core/Src/usbh_ctlreq.c ****         if (URB_Status == USBH_URB_ERROR)
 815:Middlewares/ST/STM32_USB_Host_Library/Core/Src/usbh_ctlreq.c ****         {
 816:Middlewares/ST/STM32_USB_Host_Library/Core/Src/usbh_ctlreq.c ****           /* device error */
 817:Middlewares/ST/STM32_USB_Host_Library/Core/Src/usbh_ctlreq.c ****           phost->Control.state = CTRL_ERROR;
 818:Middlewares/ST/STM32_USB_Host_Library/Core/Src/usbh_ctlreq.c ****           status = USBH_FAIL;
 819:Middlewares/ST/STM32_USB_Host_Library/Core/Src/usbh_ctlreq.c **** 
 820:Middlewares/ST/STM32_USB_Host_Library/Core/Src/usbh_ctlreq.c **** #if (USBH_USE_OS == 1U)
 821:Middlewares/ST/STM32_USB_Host_Library/Core/Src/usbh_ctlreq.c ****           phost->os_msg = (uint32_t)USBH_CONTROL_EVENT;
 822:Middlewares/ST/STM32_USB_Host_Library/Core/Src/usbh_ctlreq.c **** #if (osCMSIS < 0x20000U)
ARM GAS  C:\Users\union\AppData\Local\Temp\ccc20eai.s 			page 22


 823:Middlewares/ST/STM32_USB_Host_Library/Core/Src/usbh_ctlreq.c ****           (void)osMessagePut(phost->os_event, phost->os_msg, 0U);
 824:Middlewares/ST/STM32_USB_Host_Library/Core/Src/usbh_ctlreq.c **** #else
 825:Middlewares/ST/STM32_USB_Host_Library/Core/Src/usbh_ctlreq.c ****           (void)osMessageQueuePut(phost->os_event, &phost->os_msg, 0U, NULL);
 826:Middlewares/ST/STM32_USB_Host_Library/Core/Src/usbh_ctlreq.c **** #endif
 827:Middlewares/ST/STM32_USB_Host_Library/Core/Src/usbh_ctlreq.c **** #endif
 828:Middlewares/ST/STM32_USB_Host_Library/Core/Src/usbh_ctlreq.c ****         }
 829:Middlewares/ST/STM32_USB_Host_Library/Core/Src/usbh_ctlreq.c ****       }
 830:Middlewares/ST/STM32_USB_Host_Library/Core/Src/usbh_ctlreq.c ****       break;
 831:Middlewares/ST/STM32_USB_Host_Library/Core/Src/usbh_ctlreq.c **** 
 832:Middlewares/ST/STM32_USB_Host_Library/Core/Src/usbh_ctlreq.c ****     case CTRL_STATUS_IN:
 833:Middlewares/ST/STM32_USB_Host_Library/Core/Src/usbh_ctlreq.c ****       /* Send 0 bytes out packet */
 834:Middlewares/ST/STM32_USB_Host_Library/Core/Src/usbh_ctlreq.c ****       USBH_CtlReceiveData(phost, 0U, 0U, phost->Control.pipe_in);
 835:Middlewares/ST/STM32_USB_Host_Library/Core/Src/usbh_ctlreq.c **** 
 836:Middlewares/ST/STM32_USB_Host_Library/Core/Src/usbh_ctlreq.c ****       phost->Control.timer = (uint16_t)phost->Timer;
 837:Middlewares/ST/STM32_USB_Host_Library/Core/Src/usbh_ctlreq.c ****       phost->Control.state = CTRL_STATUS_IN_WAIT;
 838:Middlewares/ST/STM32_USB_Host_Library/Core/Src/usbh_ctlreq.c **** 
 839:Middlewares/ST/STM32_USB_Host_Library/Core/Src/usbh_ctlreq.c ****       break;
 840:Middlewares/ST/STM32_USB_Host_Library/Core/Src/usbh_ctlreq.c **** 
 841:Middlewares/ST/STM32_USB_Host_Library/Core/Src/usbh_ctlreq.c ****     case CTRL_STATUS_IN_WAIT:
 842:Middlewares/ST/STM32_USB_Host_Library/Core/Src/usbh_ctlreq.c **** 
 843:Middlewares/ST/STM32_USB_Host_Library/Core/Src/usbh_ctlreq.c ****       URB_Status = USBH_LL_GetURBState(phost, phost->Control.pipe_in);
 844:Middlewares/ST/STM32_USB_Host_Library/Core/Src/usbh_ctlreq.c **** 
 845:Middlewares/ST/STM32_USB_Host_Library/Core/Src/usbh_ctlreq.c ****       if (URB_Status == USBH_URB_DONE)
 846:Middlewares/ST/STM32_USB_Host_Library/Core/Src/usbh_ctlreq.c ****       {
 847:Middlewares/ST/STM32_USB_Host_Library/Core/Src/usbh_ctlreq.c ****         /* Control transfers completed, Exit the State Machine */
 848:Middlewares/ST/STM32_USB_Host_Library/Core/Src/usbh_ctlreq.c ****         phost->Control.state = CTRL_COMPLETE;
 849:Middlewares/ST/STM32_USB_Host_Library/Core/Src/usbh_ctlreq.c ****         status = USBH_OK;
 850:Middlewares/ST/STM32_USB_Host_Library/Core/Src/usbh_ctlreq.c **** 
 851:Middlewares/ST/STM32_USB_Host_Library/Core/Src/usbh_ctlreq.c **** #if (USBH_USE_OS == 1U)
 852:Middlewares/ST/STM32_USB_Host_Library/Core/Src/usbh_ctlreq.c ****         phost->os_msg = (uint32_t)USBH_CONTROL_EVENT;
 853:Middlewares/ST/STM32_USB_Host_Library/Core/Src/usbh_ctlreq.c **** #if (osCMSIS < 0x20000U)
 854:Middlewares/ST/STM32_USB_Host_Library/Core/Src/usbh_ctlreq.c ****         (void)osMessagePut(phost->os_event, phost->os_msg, 0U);
 855:Middlewares/ST/STM32_USB_Host_Library/Core/Src/usbh_ctlreq.c **** #else
 856:Middlewares/ST/STM32_USB_Host_Library/Core/Src/usbh_ctlreq.c ****         (void)osMessageQueuePut(phost->os_event, &phost->os_msg, 0U, NULL);
 857:Middlewares/ST/STM32_USB_Host_Library/Core/Src/usbh_ctlreq.c **** #endif
 858:Middlewares/ST/STM32_USB_Host_Library/Core/Src/usbh_ctlreq.c **** #endif
 859:Middlewares/ST/STM32_USB_Host_Library/Core/Src/usbh_ctlreq.c ****       }
 860:Middlewares/ST/STM32_USB_Host_Library/Core/Src/usbh_ctlreq.c ****       else if (URB_Status == USBH_URB_ERROR)
 861:Middlewares/ST/STM32_USB_Host_Library/Core/Src/usbh_ctlreq.c ****       {
 862:Middlewares/ST/STM32_USB_Host_Library/Core/Src/usbh_ctlreq.c ****         phost->Control.state = CTRL_ERROR;
 863:Middlewares/ST/STM32_USB_Host_Library/Core/Src/usbh_ctlreq.c **** 
 864:Middlewares/ST/STM32_USB_Host_Library/Core/Src/usbh_ctlreq.c **** #if (USBH_USE_OS == 1U)
 865:Middlewares/ST/STM32_USB_Host_Library/Core/Src/usbh_ctlreq.c ****         phost->os_msg = (uint32_t)USBH_CONTROL_EVENT;
 866:Middlewares/ST/STM32_USB_Host_Library/Core/Src/usbh_ctlreq.c **** #if (osCMSIS < 0x20000U)
 867:Middlewares/ST/STM32_USB_Host_Library/Core/Src/usbh_ctlreq.c ****         (void)osMessagePut(phost->os_event, phost->os_msg, 0U);
 868:Middlewares/ST/STM32_USB_Host_Library/Core/Src/usbh_ctlreq.c **** #else
 869:Middlewares/ST/STM32_USB_Host_Library/Core/Src/usbh_ctlreq.c ****         (void)osMessageQueuePut(phost->os_event, &phost->os_msg, 0U, NULL);
 870:Middlewares/ST/STM32_USB_Host_Library/Core/Src/usbh_ctlreq.c **** #endif
 871:Middlewares/ST/STM32_USB_Host_Library/Core/Src/usbh_ctlreq.c **** #endif
 872:Middlewares/ST/STM32_USB_Host_Library/Core/Src/usbh_ctlreq.c ****       }
 873:Middlewares/ST/STM32_USB_Host_Library/Core/Src/usbh_ctlreq.c ****       else
 874:Middlewares/ST/STM32_USB_Host_Library/Core/Src/usbh_ctlreq.c ****       {
 875:Middlewares/ST/STM32_USB_Host_Library/Core/Src/usbh_ctlreq.c ****         if (URB_Status == USBH_URB_STALL)
 876:Middlewares/ST/STM32_USB_Host_Library/Core/Src/usbh_ctlreq.c ****         {
 877:Middlewares/ST/STM32_USB_Host_Library/Core/Src/usbh_ctlreq.c ****           /* Control transfers completed, Exit the State Machine */
 878:Middlewares/ST/STM32_USB_Host_Library/Core/Src/usbh_ctlreq.c ****           status = USBH_NOT_SUPPORTED;
 879:Middlewares/ST/STM32_USB_Host_Library/Core/Src/usbh_ctlreq.c **** 
ARM GAS  C:\Users\union\AppData\Local\Temp\ccc20eai.s 			page 23


 880:Middlewares/ST/STM32_USB_Host_Library/Core/Src/usbh_ctlreq.c **** #if (USBH_USE_OS == 1U)
 881:Middlewares/ST/STM32_USB_Host_Library/Core/Src/usbh_ctlreq.c ****           phost->os_msg = (uint32_t)USBH_CONTROL_EVENT;
 882:Middlewares/ST/STM32_USB_Host_Library/Core/Src/usbh_ctlreq.c **** #if (osCMSIS < 0x20000U)
 883:Middlewares/ST/STM32_USB_Host_Library/Core/Src/usbh_ctlreq.c ****           (void)osMessagePut(phost->os_event, phost->os_msg, 0U);
 884:Middlewares/ST/STM32_USB_Host_Library/Core/Src/usbh_ctlreq.c **** #else
 885:Middlewares/ST/STM32_USB_Host_Library/Core/Src/usbh_ctlreq.c ****           (void)osMessageQueuePut(phost->os_event, &phost->os_msg, 0U, NULL);
 886:Middlewares/ST/STM32_USB_Host_Library/Core/Src/usbh_ctlreq.c **** #endif
 887:Middlewares/ST/STM32_USB_Host_Library/Core/Src/usbh_ctlreq.c **** #endif
 888:Middlewares/ST/STM32_USB_Host_Library/Core/Src/usbh_ctlreq.c ****         }
 889:Middlewares/ST/STM32_USB_Host_Library/Core/Src/usbh_ctlreq.c ****       }
 890:Middlewares/ST/STM32_USB_Host_Library/Core/Src/usbh_ctlreq.c ****       break;
 891:Middlewares/ST/STM32_USB_Host_Library/Core/Src/usbh_ctlreq.c **** 
 892:Middlewares/ST/STM32_USB_Host_Library/Core/Src/usbh_ctlreq.c ****     case CTRL_STATUS_OUT:
 893:Middlewares/ST/STM32_USB_Host_Library/Core/Src/usbh_ctlreq.c ****       USBH_CtlSendData(phost, 0U, 0U, phost->Control.pipe_out, 1U);
 894:Middlewares/ST/STM32_USB_Host_Library/Core/Src/usbh_ctlreq.c **** 
 895:Middlewares/ST/STM32_USB_Host_Library/Core/Src/usbh_ctlreq.c ****       phost->Control.timer = (uint16_t)phost->Timer;
 896:Middlewares/ST/STM32_USB_Host_Library/Core/Src/usbh_ctlreq.c ****       phost->Control.state = CTRL_STATUS_OUT_WAIT;
 897:Middlewares/ST/STM32_USB_Host_Library/Core/Src/usbh_ctlreq.c ****       break;
 898:Middlewares/ST/STM32_USB_Host_Library/Core/Src/usbh_ctlreq.c **** 
 899:Middlewares/ST/STM32_USB_Host_Library/Core/Src/usbh_ctlreq.c ****     case CTRL_STATUS_OUT_WAIT:
 900:Middlewares/ST/STM32_USB_Host_Library/Core/Src/usbh_ctlreq.c ****       URB_Status = USBH_LL_GetURBState(phost, phost->Control.pipe_out);
 901:Middlewares/ST/STM32_USB_Host_Library/Core/Src/usbh_ctlreq.c ****       if (URB_Status == USBH_URB_DONE)
 902:Middlewares/ST/STM32_USB_Host_Library/Core/Src/usbh_ctlreq.c ****       {
 903:Middlewares/ST/STM32_USB_Host_Library/Core/Src/usbh_ctlreq.c ****         status = USBH_OK;
 904:Middlewares/ST/STM32_USB_Host_Library/Core/Src/usbh_ctlreq.c ****         phost->Control.state = CTRL_COMPLETE;
 905:Middlewares/ST/STM32_USB_Host_Library/Core/Src/usbh_ctlreq.c **** 
 906:Middlewares/ST/STM32_USB_Host_Library/Core/Src/usbh_ctlreq.c **** #if (USBH_USE_OS == 1U)
 907:Middlewares/ST/STM32_USB_Host_Library/Core/Src/usbh_ctlreq.c ****         phost->os_msg = (uint32_t)USBH_CONTROL_EVENT;
 908:Middlewares/ST/STM32_USB_Host_Library/Core/Src/usbh_ctlreq.c **** #if (osCMSIS < 0x20000U)
 909:Middlewares/ST/STM32_USB_Host_Library/Core/Src/usbh_ctlreq.c ****         (void)osMessagePut(phost->os_event, phost->os_msg, 0U);
 910:Middlewares/ST/STM32_USB_Host_Library/Core/Src/usbh_ctlreq.c **** #else
 911:Middlewares/ST/STM32_USB_Host_Library/Core/Src/usbh_ctlreq.c ****         (void)osMessageQueuePut(phost->os_event, &phost->os_msg, 0U, NULL);
 912:Middlewares/ST/STM32_USB_Host_Library/Core/Src/usbh_ctlreq.c **** #endif
 913:Middlewares/ST/STM32_USB_Host_Library/Core/Src/usbh_ctlreq.c **** #endif
 914:Middlewares/ST/STM32_USB_Host_Library/Core/Src/usbh_ctlreq.c ****       }
 915:Middlewares/ST/STM32_USB_Host_Library/Core/Src/usbh_ctlreq.c ****       else if (URB_Status == USBH_URB_NOTREADY)
 916:Middlewares/ST/STM32_USB_Host_Library/Core/Src/usbh_ctlreq.c ****       {
 917:Middlewares/ST/STM32_USB_Host_Library/Core/Src/usbh_ctlreq.c ****         phost->Control.state = CTRL_STATUS_OUT;
 918:Middlewares/ST/STM32_USB_Host_Library/Core/Src/usbh_ctlreq.c **** 
 919:Middlewares/ST/STM32_USB_Host_Library/Core/Src/usbh_ctlreq.c **** #if (USBH_USE_OS == 1U)
 920:Middlewares/ST/STM32_USB_Host_Library/Core/Src/usbh_ctlreq.c ****         phost->os_msg = (uint32_t)USBH_CONTROL_EVENT;
 921:Middlewares/ST/STM32_USB_Host_Library/Core/Src/usbh_ctlreq.c **** #if (osCMSIS < 0x20000U)
 922:Middlewares/ST/STM32_USB_Host_Library/Core/Src/usbh_ctlreq.c ****         (void)osMessagePut(phost->os_event, phost->os_msg, 0U);
 923:Middlewares/ST/STM32_USB_Host_Library/Core/Src/usbh_ctlreq.c **** #else
 924:Middlewares/ST/STM32_USB_Host_Library/Core/Src/usbh_ctlreq.c ****         (void)osMessageQueuePut(phost->os_event, &phost->os_msg, 0U, NULL);
 925:Middlewares/ST/STM32_USB_Host_Library/Core/Src/usbh_ctlreq.c **** #endif
 926:Middlewares/ST/STM32_USB_Host_Library/Core/Src/usbh_ctlreq.c **** #endif
 927:Middlewares/ST/STM32_USB_Host_Library/Core/Src/usbh_ctlreq.c ****       }
 928:Middlewares/ST/STM32_USB_Host_Library/Core/Src/usbh_ctlreq.c ****       else
 929:Middlewares/ST/STM32_USB_Host_Library/Core/Src/usbh_ctlreq.c ****       {
 930:Middlewares/ST/STM32_USB_Host_Library/Core/Src/usbh_ctlreq.c ****         if (URB_Status == USBH_URB_ERROR)
 931:Middlewares/ST/STM32_USB_Host_Library/Core/Src/usbh_ctlreq.c ****         {
 932:Middlewares/ST/STM32_USB_Host_Library/Core/Src/usbh_ctlreq.c ****           phost->Control.state = CTRL_ERROR;
 933:Middlewares/ST/STM32_USB_Host_Library/Core/Src/usbh_ctlreq.c **** 
 934:Middlewares/ST/STM32_USB_Host_Library/Core/Src/usbh_ctlreq.c **** #if (USBH_USE_OS == 1U)
 935:Middlewares/ST/STM32_USB_Host_Library/Core/Src/usbh_ctlreq.c ****           phost->os_msg = (uint32_t)USBH_CONTROL_EVENT;
 936:Middlewares/ST/STM32_USB_Host_Library/Core/Src/usbh_ctlreq.c **** #if (osCMSIS < 0x20000U)
ARM GAS  C:\Users\union\AppData\Local\Temp\ccc20eai.s 			page 24


 937:Middlewares/ST/STM32_USB_Host_Library/Core/Src/usbh_ctlreq.c ****           (void)osMessagePut(phost->os_event, phost->os_msg, 0U);
 938:Middlewares/ST/STM32_USB_Host_Library/Core/Src/usbh_ctlreq.c **** #else
 939:Middlewares/ST/STM32_USB_Host_Library/Core/Src/usbh_ctlreq.c ****           (void)osMessageQueuePut(phost->os_event, &phost->os_msg, 0U, NULL);
 940:Middlewares/ST/STM32_USB_Host_Library/Core/Src/usbh_ctlreq.c **** #endif
 941:Middlewares/ST/STM32_USB_Host_Library/Core/Src/usbh_ctlreq.c **** #endif
 942:Middlewares/ST/STM32_USB_Host_Library/Core/Src/usbh_ctlreq.c ****         }
 943:Middlewares/ST/STM32_USB_Host_Library/Core/Src/usbh_ctlreq.c ****       }
 944:Middlewares/ST/STM32_USB_Host_Library/Core/Src/usbh_ctlreq.c ****       break;
 945:Middlewares/ST/STM32_USB_Host_Library/Core/Src/usbh_ctlreq.c **** 
 946:Middlewares/ST/STM32_USB_Host_Library/Core/Src/usbh_ctlreq.c ****     case CTRL_ERROR:
 947:Middlewares/ST/STM32_USB_Host_Library/Core/Src/usbh_ctlreq.c ****       /*
 948:Middlewares/ST/STM32_USB_Host_Library/Core/Src/usbh_ctlreq.c ****       After a halt condition is encountered or an error is detected by the
 949:Middlewares/ST/STM32_USB_Host_Library/Core/Src/usbh_ctlreq.c ****       host, a control endpoint is allowed to recover by accepting the next Setup
 950:Middlewares/ST/STM32_USB_Host_Library/Core/Src/usbh_ctlreq.c ****       PID; i.e., recovery actions via some other pipe are not required for control
 951:Middlewares/ST/STM32_USB_Host_Library/Core/Src/usbh_ctlreq.c ****       endpoints. For the Default Control Pipe, a device reset will ultimately be
 952:Middlewares/ST/STM32_USB_Host_Library/Core/Src/usbh_ctlreq.c ****       required to clear the halt or error condition if the next Setup PID is not
 953:Middlewares/ST/STM32_USB_Host_Library/Core/Src/usbh_ctlreq.c ****       accepted.
 954:Middlewares/ST/STM32_USB_Host_Library/Core/Src/usbh_ctlreq.c ****       */
 955:Middlewares/ST/STM32_USB_Host_Library/Core/Src/usbh_ctlreq.c ****       if (++phost->Control.errorcount <= USBH_MAX_ERROR_COUNT)
 956:Middlewares/ST/STM32_USB_Host_Library/Core/Src/usbh_ctlreq.c ****       {
 957:Middlewares/ST/STM32_USB_Host_Library/Core/Src/usbh_ctlreq.c ****         /* Do the transmission again, starting from SETUP Packet */
 958:Middlewares/ST/STM32_USB_Host_Library/Core/Src/usbh_ctlreq.c ****         phost->Control.state = CTRL_SETUP;
 959:Middlewares/ST/STM32_USB_Host_Library/Core/Src/usbh_ctlreq.c ****         phost->RequestState = CMD_SEND;
 960:Middlewares/ST/STM32_USB_Host_Library/Core/Src/usbh_ctlreq.c ****       }
 961:Middlewares/ST/STM32_USB_Host_Library/Core/Src/usbh_ctlreq.c ****       else
 962:Middlewares/ST/STM32_USB_Host_Library/Core/Src/usbh_ctlreq.c ****       {
 963:Middlewares/ST/STM32_USB_Host_Library/Core/Src/usbh_ctlreq.c ****         phost->pUser(phost, HOST_USER_UNRECOVERED_ERROR);
 964:Middlewares/ST/STM32_USB_Host_Library/Core/Src/usbh_ctlreq.c ****         phost->Control.errorcount = 0U;
 965:Middlewares/ST/STM32_USB_Host_Library/Core/Src/usbh_ctlreq.c ****         USBH_ErrLog("Control error: Device not responding");
 966:Middlewares/ST/STM32_USB_Host_Library/Core/Src/usbh_ctlreq.c **** 
 967:Middlewares/ST/STM32_USB_Host_Library/Core/Src/usbh_ctlreq.c ****         /* Free control pipes */
 968:Middlewares/ST/STM32_USB_Host_Library/Core/Src/usbh_ctlreq.c ****         USBH_FreePipe(phost, phost->Control.pipe_out);
 969:Middlewares/ST/STM32_USB_Host_Library/Core/Src/usbh_ctlreq.c ****         USBH_FreePipe(phost, phost->Control.pipe_in);
 970:Middlewares/ST/STM32_USB_Host_Library/Core/Src/usbh_ctlreq.c **** 
 971:Middlewares/ST/STM32_USB_Host_Library/Core/Src/usbh_ctlreq.c ****         phost->gState = HOST_IDLE;
 972:Middlewares/ST/STM32_USB_Host_Library/Core/Src/usbh_ctlreq.c ****         status = USBH_FAIL;
 973:Middlewares/ST/STM32_USB_Host_Library/Core/Src/usbh_ctlreq.c ****       }
 974:Middlewares/ST/STM32_USB_Host_Library/Core/Src/usbh_ctlreq.c ****       break;
 975:Middlewares/ST/STM32_USB_Host_Library/Core/Src/usbh_ctlreq.c **** 
 976:Middlewares/ST/STM32_USB_Host_Library/Core/Src/usbh_ctlreq.c ****     default:
 977:Middlewares/ST/STM32_USB_Host_Library/Core/Src/usbh_ctlreq.c ****       break;
 978:Middlewares/ST/STM32_USB_Host_Library/Core/Src/usbh_ctlreq.c ****   }
 979:Middlewares/ST/STM32_USB_Host_Library/Core/Src/usbh_ctlreq.c **** 
 980:Middlewares/ST/STM32_USB_Host_Library/Core/Src/usbh_ctlreq.c ****   return status;
 380              		.loc 1 980 3 is_stmt 1 view .LVU117
 981:Middlewares/ST/STM32_USB_Host_Library/Core/Src/usbh_ctlreq.c **** }
 381              		.loc 1 981 1 is_stmt 0 view .LVU118
 382 0030 03B0     		add	sp, sp, #12
 383              	.LCFI6:
 384              		.cfi_remember_state
 385              		.cfi_def_cfa_offset 12
 386              		@ sp needed
 387 0032 30BD     		pop	{r4, r5, pc}
 388              	.LVL17:
 389              	.L28:
 390              	.LCFI7:
 391              		.cfi_restore_state
ARM GAS  C:\Users\union\AppData\Local\Temp\ccc20eai.s 			page 25


 629:Middlewares/ST/STM32_USB_Host_Library/Core/Src/usbh_ctlreq.c ****       /* case SETUP packet sent successfully */
 392              		.loc 1 629 7 is_stmt 1 view .LVU119
 629:Middlewares/ST/STM32_USB_Host_Library/Core/Src/usbh_ctlreq.c ****       /* case SETUP packet sent successfully */
 393              		.loc 1 629 20 is_stmt 0 view .LVU120
 394 0034 4179     		ldrb	r1, [r0, #5]	@ zero_extendqisi2
 395 0036 FFF7FEFF 		bl	USBH_LL_GetURBState
 396              	.LVL18:
 631:Middlewares/ST/STM32_USB_Host_Library/Core/Src/usbh_ctlreq.c ****       {
 397              		.loc 1 631 7 is_stmt 1 view .LVU121
 631:Middlewares/ST/STM32_USB_Host_Library/Core/Src/usbh_ctlreq.c ****       {
 398              		.loc 1 631 10 is_stmt 0 view .LVU122
 399 003a 0128     		cmp	r0, #1
 400 003c 05D0     		beq	.L52
 676:Middlewares/ST/STM32_USB_Host_Library/Core/Src/usbh_ctlreq.c ****         {
 401              		.loc 1 676 9 is_stmt 1 view .LVU123
 676:Middlewares/ST/STM32_USB_Host_Library/Core/Src/usbh_ctlreq.c ****         {
 402              		.loc 1 676 12 is_stmt 0 view .LVU124
 403 003e 0428     		cmp	r0, #4
 404 0040 1BD0     		beq	.L34
 676:Middlewares/ST/STM32_USB_Host_Library/Core/Src/usbh_ctlreq.c ****         {
 405              		.loc 1 676 44 discriminator 1 view .LVU125
 406 0042 0228     		cmp	r0, #2
 407 0044 19D0     		beq	.L34
 614:Middlewares/ST/STM32_USB_Host_Library/Core/Src/usbh_ctlreq.c ****   USBH_URBStateTypeDef URB_Status = USBH_URB_IDLE;
 408              		.loc 1 614 22 view .LVU126
 409 0046 0120     		movs	r0, #1
 410              	.LVL19:
 614:Middlewares/ST/STM32_USB_Host_Library/Core/Src/usbh_ctlreq.c ****   USBH_URBStateTypeDef URB_Status = USBH_URB_IDLE;
 411              		.loc 1 614 22 view .LVU127
 412 0048 F2E7     		b	.L17
 413              	.LVL20:
 414              	.L52:
 633:Middlewares/ST/STM32_USB_Host_Library/Core/Src/usbh_ctlreq.c **** 
 415              		.loc 1 633 9 is_stmt 1 view .LVU128
 633:Middlewares/ST/STM32_USB_Host_Library/Core/Src/usbh_ctlreq.c **** 
 416              		.loc 1 633 44 is_stmt 0 view .LVU129
 417 004a 237C     		ldrb	r3, [r4, #16]	@ zero_extendqisi2
 418              	.LVL21:
 636:Middlewares/ST/STM32_USB_Host_Library/Core/Src/usbh_ctlreq.c ****         {
 419              		.loc 1 636 9 is_stmt 1 view .LVU130
 636:Middlewares/ST/STM32_USB_Host_Library/Core/Src/usbh_ctlreq.c ****         {
 420              		.loc 1 636 43 is_stmt 0 view .LVU131
 421 004c E28A     		ldrh	r2, [r4, #22]
 636:Middlewares/ST/STM32_USB_Host_Library/Core/Src/usbh_ctlreq.c ****         {
 422              		.loc 1 636 12 view .LVU132
 423 004e 4AB1     		cbz	r2, .L31
 638:Middlewares/ST/STM32_USB_Host_Library/Core/Src/usbh_ctlreq.c ****           {
 424              		.loc 1 638 11 is_stmt 1 view .LVU133
 638:Middlewares/ST/STM32_USB_Host_Library/Core/Src/usbh_ctlreq.c ****           {
 425              		.loc 1 638 14 is_stmt 0 view .LVU134
 426 0050 13F0800F 		tst	r3, #128
 427 0054 03D1     		bne	.L53
 646:Middlewares/ST/STM32_USB_Host_Library/Core/Src/usbh_ctlreq.c ****           }
 428              		.loc 1 646 13 is_stmt 1 view .LVU135
 646:Middlewares/ST/STM32_USB_Host_Library/Core/Src/usbh_ctlreq.c ****           }
 429              		.loc 1 646 34 is_stmt 0 view .LVU136
 430 0056 0523     		movs	r3, #5
ARM GAS  C:\Users\union\AppData\Local\Temp\ccc20eai.s 			page 26


 431              	.LVL22:
 646:Middlewares/ST/STM32_USB_Host_Library/Core/Src/usbh_ctlreq.c ****           }
 432              		.loc 1 646 34 view .LVU137
 433 0058 2376     		strb	r3, [r4, #24]
 614:Middlewares/ST/STM32_USB_Host_Library/Core/Src/usbh_ctlreq.c ****   USBH_URBStateTypeDef URB_Status = USBH_URB_IDLE;
 434              		.loc 1 614 22 view .LVU138
 435 005a 0120     		movs	r0, #1
 436              	.LVL23:
 614:Middlewares/ST/STM32_USB_Host_Library/Core/Src/usbh_ctlreq.c ****   USBH_URBStateTypeDef URB_Status = USBH_URB_IDLE;
 437              		.loc 1 614 22 view .LVU139
 438 005c E8E7     		b	.L17
 439              	.LVL24:
 440              	.L53:
 641:Middlewares/ST/STM32_USB_Host_Library/Core/Src/usbh_ctlreq.c ****           }
 441              		.loc 1 641 13 is_stmt 1 view .LVU140
 641:Middlewares/ST/STM32_USB_Host_Library/Core/Src/usbh_ctlreq.c ****           }
 442              		.loc 1 641 34 is_stmt 0 view .LVU141
 443 005e 0323     		movs	r3, #3
 444              	.LVL25:
 641:Middlewares/ST/STM32_USB_Host_Library/Core/Src/usbh_ctlreq.c ****           }
 445              		.loc 1 641 34 view .LVU142
 446 0060 2376     		strb	r3, [r4, #24]
 447 0062 E5E7     		b	.L17
 448              	.LVL26:
 449              	.L31:
 653:Middlewares/ST/STM32_USB_Host_Library/Core/Src/usbh_ctlreq.c ****           {
 450              		.loc 1 653 11 is_stmt 1 view .LVU143
 653:Middlewares/ST/STM32_USB_Host_Library/Core/Src/usbh_ctlreq.c ****           {
 451              		.loc 1 653 14 is_stmt 0 view .LVU144
 452 0064 13F0800F 		tst	r3, #128
 453 0068 03D1     		bne	.L54
 661:Middlewares/ST/STM32_USB_Host_Library/Core/Src/usbh_ctlreq.c ****           }
 454              		.loc 1 661 13 is_stmt 1 view .LVU145
 661:Middlewares/ST/STM32_USB_Host_Library/Core/Src/usbh_ctlreq.c ****           }
 455              		.loc 1 661 34 is_stmt 0 view .LVU146
 456 006a 0723     		movs	r3, #7
 457              	.LVL27:
 661:Middlewares/ST/STM32_USB_Host_Library/Core/Src/usbh_ctlreq.c ****           }
 458              		.loc 1 661 34 view .LVU147
 459 006c 2376     		strb	r3, [r4, #24]
 614:Middlewares/ST/STM32_USB_Host_Library/Core/Src/usbh_ctlreq.c ****   USBH_URBStateTypeDef URB_Status = USBH_URB_IDLE;
 460              		.loc 1 614 22 view .LVU148
 461 006e 0120     		movs	r0, #1
 462              	.LVL28:
 614:Middlewares/ST/STM32_USB_Host_Library/Core/Src/usbh_ctlreq.c ****   USBH_URBStateTypeDef URB_Status = USBH_URB_IDLE;
 463              		.loc 1 614 22 view .LVU149
 464 0070 DEE7     		b	.L17
 465              	.LVL29:
 466              	.L54:
 656:Middlewares/ST/STM32_USB_Host_Library/Core/Src/usbh_ctlreq.c ****           }
 467              		.loc 1 656 13 is_stmt 1 view .LVU150
 656:Middlewares/ST/STM32_USB_Host_Library/Core/Src/usbh_ctlreq.c ****           }
 468              		.loc 1 656 34 is_stmt 0 view .LVU151
 469 0072 0923     		movs	r3, #9
 470              	.LVL30:
 656:Middlewares/ST/STM32_USB_Host_Library/Core/Src/usbh_ctlreq.c ****           }
 471              		.loc 1 656 34 view .LVU152
ARM GAS  C:\Users\union\AppData\Local\Temp\ccc20eai.s 			page 27


 472 0074 2376     		strb	r3, [r4, #24]
 614:Middlewares/ST/STM32_USB_Host_Library/Core/Src/usbh_ctlreq.c ****   USBH_URBStateTypeDef URB_Status = USBH_URB_IDLE;
 473              		.loc 1 614 22 view .LVU153
 474 0076 0120     		movs	r0, #1
 475              	.LVL31:
 614:Middlewares/ST/STM32_USB_Host_Library/Core/Src/usbh_ctlreq.c ****   USBH_URBStateTypeDef URB_Status = USBH_URB_IDLE;
 476              		.loc 1 614 22 view .LVU154
 477 0078 DAE7     		b	.L17
 478              	.LVL32:
 479              	.L34:
 678:Middlewares/ST/STM32_USB_Host_Library/Core/Src/usbh_ctlreq.c **** 
 480              		.loc 1 678 11 is_stmt 1 view .LVU155
 678:Middlewares/ST/STM32_USB_Host_Library/Core/Src/usbh_ctlreq.c **** 
 481              		.loc 1 678 32 is_stmt 0 view .LVU156
 482 007a 0B23     		movs	r3, #11
 483 007c 2376     		strb	r3, [r4, #24]
 614:Middlewares/ST/STM32_USB_Host_Library/Core/Src/usbh_ctlreq.c ****   USBH_URBStateTypeDef URB_Status = USBH_URB_IDLE;
 484              		.loc 1 614 22 view .LVU157
 485 007e 0120     		movs	r0, #1
 486              	.LVL33:
 614:Middlewares/ST/STM32_USB_Host_Library/Core/Src/usbh_ctlreq.c ****   USBH_URBStateTypeDef URB_Status = USBH_URB_IDLE;
 487              		.loc 1 614 22 view .LVU158
 488 0080 D6E7     		b	.L17
 489              	.LVL34:
 490              	.L27:
 694:Middlewares/ST/STM32_USB_Host_Library/Core/Src/usbh_ctlreq.c ****       USBH_CtlReceiveData(phost, phost->Control.buff, phost->Control.length,
 491              		.loc 1 694 7 is_stmt 1 view .LVU159
 694:Middlewares/ST/STM32_USB_Host_Library/Core/Src/usbh_ctlreq.c ****       USBH_CtlReceiveData(phost, phost->Control.buff, phost->Control.length,
 492              		.loc 1 694 45 is_stmt 0 view .LVU160
 493 0082 D0F8C433 		ldr	r3, [r0, #964]
 694:Middlewares/ST/STM32_USB_Host_Library/Core/Src/usbh_ctlreq.c ****       USBH_CtlReceiveData(phost, phost->Control.buff, phost->Control.length,
 494              		.loc 1 694 28 view .LVU161
 495 0086 C381     		strh	r3, [r0, #14]	@ movhi
 695:Middlewares/ST/STM32_USB_Host_Library/Core/Src/usbh_ctlreq.c ****                           phost->Control.pipe_in);
 496              		.loc 1 695 7 is_stmt 1 view .LVU162
 497 0088 0379     		ldrb	r3, [r0, #4]	@ zero_extendqisi2
 498 008a 8289     		ldrh	r2, [r0, #12]
 499 008c 8168     		ldr	r1, [r0, #8]
 500 008e FFF7FEFF 		bl	USBH_CtlReceiveData
 501              	.LVL35:
 698:Middlewares/ST/STM32_USB_Host_Library/Core/Src/usbh_ctlreq.c ****       break;
 502              		.loc 1 698 7 view .LVU163
 698:Middlewares/ST/STM32_USB_Host_Library/Core/Src/usbh_ctlreq.c ****       break;
 503              		.loc 1 698 28 is_stmt 0 view .LVU164
 504 0092 0423     		movs	r3, #4
 505 0094 2376     		strb	r3, [r4, #24]
 699:Middlewares/ST/STM32_USB_Host_Library/Core/Src/usbh_ctlreq.c **** 
 506              		.loc 1 699 7 is_stmt 1 view .LVU165
 614:Middlewares/ST/STM32_USB_Host_Library/Core/Src/usbh_ctlreq.c ****   USBH_URBStateTypeDef URB_Status = USBH_URB_IDLE;
 507              		.loc 1 614 22 is_stmt 0 view .LVU166
 508 0096 0120     		movs	r0, #1
 699:Middlewares/ST/STM32_USB_Host_Library/Core/Src/usbh_ctlreq.c **** 
 509              		.loc 1 699 7 view .LVU167
 510 0098 CAE7     		b	.L17
 511              	.LVL36:
 512              	.L26:
 703:Middlewares/ST/STM32_USB_Host_Library/Core/Src/usbh_ctlreq.c **** 
ARM GAS  C:\Users\union\AppData\Local\Temp\ccc20eai.s 			page 28


 513              		.loc 1 703 7 is_stmt 1 view .LVU168
 703:Middlewares/ST/STM32_USB_Host_Library/Core/Src/usbh_ctlreq.c **** 
 514              		.loc 1 703 20 is_stmt 0 view .LVU169
 515 009a 0179     		ldrb	r1, [r0, #4]	@ zero_extendqisi2
 516 009c FFF7FEFF 		bl	USBH_LL_GetURBState
 517              	.LVL37:
 706:Middlewares/ST/STM32_USB_Host_Library/Core/Src/usbh_ctlreq.c ****       {
 518              		.loc 1 706 7 is_stmt 1 view .LVU170
 706:Middlewares/ST/STM32_USB_Host_Library/Core/Src/usbh_ctlreq.c ****       {
 519              		.loc 1 706 10 is_stmt 0 view .LVU171
 520 00a0 0128     		cmp	r0, #1
 521 00a2 06D0     		beq	.L55
 522              	.L35:
 721:Middlewares/ST/STM32_USB_Host_Library/Core/Src/usbh_ctlreq.c ****       {
 523              		.loc 1 721 7 is_stmt 1 view .LVU172
 721:Middlewares/ST/STM32_USB_Host_Library/Core/Src/usbh_ctlreq.c ****       {
 524              		.loc 1 721 10 is_stmt 0 view .LVU173
 525 00a4 0528     		cmp	r0, #5
 526 00a6 00F09F80 		beq	.L46
 737:Middlewares/ST/STM32_USB_Host_Library/Core/Src/usbh_ctlreq.c ****         {
 527              		.loc 1 737 9 is_stmt 1 view .LVU174
 737:Middlewares/ST/STM32_USB_Host_Library/Core/Src/usbh_ctlreq.c ****         {
 528              		.loc 1 737 12 is_stmt 0 view .LVU175
 529 00aa 0428     		cmp	r0, #4
 530 00ac 04D0     		beq	.L56
 614:Middlewares/ST/STM32_USB_Host_Library/Core/Src/usbh_ctlreq.c ****   USBH_URBStateTypeDef URB_Status = USBH_URB_IDLE;
 531              		.loc 1 614 22 view .LVU176
 532 00ae 0120     		movs	r0, #1
 533              	.LVL38:
 614:Middlewares/ST/STM32_USB_Host_Library/Core/Src/usbh_ctlreq.c ****   USBH_URBStateTypeDef URB_Status = USBH_URB_IDLE;
 534              		.loc 1 614 22 view .LVU177
 535 00b0 BEE7     		b	.L17
 536              	.LVL39:
 537              	.L55:
 708:Middlewares/ST/STM32_USB_Host_Library/Core/Src/usbh_ctlreq.c **** 
 538              		.loc 1 708 9 is_stmt 1 view .LVU178
 708:Middlewares/ST/STM32_USB_Host_Library/Core/Src/usbh_ctlreq.c **** 
 539              		.loc 1 708 30 is_stmt 0 view .LVU179
 540 00b2 0923     		movs	r3, #9
 541 00b4 2376     		strb	r3, [r4, #24]
 542 00b6 F5E7     		b	.L35
 543              	.L56:
 740:Middlewares/ST/STM32_USB_Host_Library/Core/Src/usbh_ctlreq.c **** 
 544              		.loc 1 740 11 is_stmt 1 view .LVU180
 740:Middlewares/ST/STM32_USB_Host_Library/Core/Src/usbh_ctlreq.c **** 
 545              		.loc 1 740 32 is_stmt 0 view .LVU181
 546 00b8 0B23     		movs	r3, #11
 547 00ba 2376     		strb	r3, [r4, #24]
 614:Middlewares/ST/STM32_USB_Host_Library/Core/Src/usbh_ctlreq.c ****   USBH_URBStateTypeDef URB_Status = USBH_URB_IDLE;
 548              		.loc 1 614 22 view .LVU182
 549 00bc 0120     		movs	r0, #1
 550              	.LVL40:
 614:Middlewares/ST/STM32_USB_Host_Library/Core/Src/usbh_ctlreq.c ****   USBH_URBStateTypeDef URB_Status = USBH_URB_IDLE;
 551              		.loc 1 614 22 view .LVU183
 552 00be B7E7     		b	.L17
 553              	.LVL41:
 554              	.L25:
ARM GAS  C:\Users\union\AppData\Local\Temp\ccc20eai.s 			page 29


 756:Middlewares/ST/STM32_USB_Host_Library/Core/Src/usbh_ctlreq.c ****                        phost->Control.pipe_out, 1U);
 555              		.loc 1 756 7 is_stmt 1 view .LVU184
 556 00c0 0125     		movs	r5, #1
 557 00c2 0095     		str	r5, [sp]
 558 00c4 4379     		ldrb	r3, [r0, #5]	@ zero_extendqisi2
 559 00c6 8289     		ldrh	r2, [r0, #12]
 560 00c8 8168     		ldr	r1, [r0, #8]
 561 00ca FFF7FEFF 		bl	USBH_CtlSendData
 562              	.LVL42:
 759:Middlewares/ST/STM32_USB_Host_Library/Core/Src/usbh_ctlreq.c ****       phost->Control.state = CTRL_DATA_OUT_WAIT;
 563              		.loc 1 759 7 view .LVU185
 759:Middlewares/ST/STM32_USB_Host_Library/Core/Src/usbh_ctlreq.c ****       phost->Control.state = CTRL_DATA_OUT_WAIT;
 564              		.loc 1 759 45 is_stmt 0 view .LVU186
 565 00ce D4F8C433 		ldr	r3, [r4, #964]
 759:Middlewares/ST/STM32_USB_Host_Library/Core/Src/usbh_ctlreq.c ****       phost->Control.state = CTRL_DATA_OUT_WAIT;
 566              		.loc 1 759 28 view .LVU187
 567 00d2 E381     		strh	r3, [r4, #14]	@ movhi
 760:Middlewares/ST/STM32_USB_Host_Library/Core/Src/usbh_ctlreq.c ****       break;
 568              		.loc 1 760 7 is_stmt 1 view .LVU188
 760:Middlewares/ST/STM32_USB_Host_Library/Core/Src/usbh_ctlreq.c ****       break;
 569              		.loc 1 760 28 is_stmt 0 view .LVU189
 570 00d4 0623     		movs	r3, #6
 571 00d6 2376     		strb	r3, [r4, #24]
 761:Middlewares/ST/STM32_USB_Host_Library/Core/Src/usbh_ctlreq.c **** 
 572              		.loc 1 761 7 is_stmt 1 view .LVU190
 614:Middlewares/ST/STM32_USB_Host_Library/Core/Src/usbh_ctlreq.c ****   USBH_URBStateTypeDef URB_Status = USBH_URB_IDLE;
 573              		.loc 1 614 22 is_stmt 0 view .LVU191
 574 00d8 2846     		mov	r0, r5
 761:Middlewares/ST/STM32_USB_Host_Library/Core/Src/usbh_ctlreq.c **** 
 575              		.loc 1 761 7 view .LVU192
 576 00da A9E7     		b	.L17
 577              	.LVL43:
 578              	.L24:
 765:Middlewares/ST/STM32_USB_Host_Library/Core/Src/usbh_ctlreq.c **** 
 579              		.loc 1 765 7 is_stmt 1 view .LVU193
 765:Middlewares/ST/STM32_USB_Host_Library/Core/Src/usbh_ctlreq.c **** 
 580              		.loc 1 765 20 is_stmt 0 view .LVU194
 581 00dc 4179     		ldrb	r1, [r0, #5]	@ zero_extendqisi2
 582 00de FFF7FEFF 		bl	USBH_LL_GetURBState
 583              	.LVL44:
 767:Middlewares/ST/STM32_USB_Host_Library/Core/Src/usbh_ctlreq.c ****       {
 584              		.loc 1 767 7 is_stmt 1 view .LVU195
 767:Middlewares/ST/STM32_USB_Host_Library/Core/Src/usbh_ctlreq.c ****       {
 585              		.loc 1 767 10 is_stmt 0 view .LVU196
 586 00e2 0128     		cmp	r0, #1
 587 00e4 07D0     		beq	.L57
 783:Middlewares/ST/STM32_USB_Host_Library/Core/Src/usbh_ctlreq.c ****       {
 588              		.loc 1 783 12 is_stmt 1 view .LVU197
 783:Middlewares/ST/STM32_USB_Host_Library/Core/Src/usbh_ctlreq.c ****       {
 589              		.loc 1 783 15 is_stmt 0 view .LVU198
 590 00e6 0528     		cmp	r0, #5
 591 00e8 08D0     		beq	.L58
 798:Middlewares/ST/STM32_USB_Host_Library/Core/Src/usbh_ctlreq.c ****       {
 592              		.loc 1 798 12 is_stmt 1 view .LVU199
 798:Middlewares/ST/STM32_USB_Host_Library/Core/Src/usbh_ctlreq.c ****       {
 593              		.loc 1 798 15 is_stmt 0 view .LVU200
 594 00ea 0228     		cmp	r0, #2
ARM GAS  C:\Users\union\AppData\Local\Temp\ccc20eai.s 			page 30


 595 00ec 0AD0     		beq	.L59
 814:Middlewares/ST/STM32_USB_Host_Library/Core/Src/usbh_ctlreq.c ****         {
 596              		.loc 1 814 9 is_stmt 1 view .LVU201
 814:Middlewares/ST/STM32_USB_Host_Library/Core/Src/usbh_ctlreq.c ****         {
 597              		.loc 1 814 12 is_stmt 0 view .LVU202
 598 00ee 0428     		cmp	r0, #4
 599 00f0 0CD0     		beq	.L60
 614:Middlewares/ST/STM32_USB_Host_Library/Core/Src/usbh_ctlreq.c ****   USBH_URBStateTypeDef URB_Status = USBH_URB_IDLE;
 600              		.loc 1 614 22 view .LVU203
 601 00f2 0120     		movs	r0, #1
 602              	.LVL45:
 614:Middlewares/ST/STM32_USB_Host_Library/Core/Src/usbh_ctlreq.c ****   USBH_URBStateTypeDef URB_Status = USBH_URB_IDLE;
 603              		.loc 1 614 22 view .LVU204
 604 00f4 9CE7     		b	.L17
 605              	.LVL46:
 606              	.L57:
 770:Middlewares/ST/STM32_USB_Host_Library/Core/Src/usbh_ctlreq.c **** 
 607              		.loc 1 770 9 is_stmt 1 view .LVU205
 770:Middlewares/ST/STM32_USB_Host_Library/Core/Src/usbh_ctlreq.c **** 
 608              		.loc 1 770 30 is_stmt 0 view .LVU206
 609 00f6 0723     		movs	r3, #7
 610 00f8 2376     		strb	r3, [r4, #24]
 611 00fa 99E7     		b	.L17
 612              	.L58:
 786:Middlewares/ST/STM32_USB_Host_Library/Core/Src/usbh_ctlreq.c ****         status = USBH_NOT_SUPPORTED;
 613              		.loc 1 786 9 is_stmt 1 view .LVU207
 786:Middlewares/ST/STM32_USB_Host_Library/Core/Src/usbh_ctlreq.c ****         status = USBH_NOT_SUPPORTED;
 614              		.loc 1 786 30 is_stmt 0 view .LVU208
 615 00fc 0C23     		movs	r3, #12
 616 00fe 2376     		strb	r3, [r4, #24]
 787:Middlewares/ST/STM32_USB_Host_Library/Core/Src/usbh_ctlreq.c **** 
 617              		.loc 1 787 9 is_stmt 1 view .LVU209
 618              	.LVL47:
 787:Middlewares/ST/STM32_USB_Host_Library/Core/Src/usbh_ctlreq.c **** 
 619              		.loc 1 787 16 is_stmt 0 view .LVU210
 620 0100 0320     		movs	r0, #3
 621              	.LVL48:
 787:Middlewares/ST/STM32_USB_Host_Library/Core/Src/usbh_ctlreq.c **** 
 622              		.loc 1 787 16 view .LVU211
 623 0102 95E7     		b	.L17
 624              	.LVL49:
 625              	.L59:
 801:Middlewares/ST/STM32_USB_Host_Library/Core/Src/usbh_ctlreq.c **** 
 626              		.loc 1 801 9 is_stmt 1 view .LVU212
 801:Middlewares/ST/STM32_USB_Host_Library/Core/Src/usbh_ctlreq.c **** 
 627              		.loc 1 801 30 is_stmt 0 view .LVU213
 628 0104 0523     		movs	r3, #5
 629 0106 2376     		strb	r3, [r4, #24]
 614:Middlewares/ST/STM32_USB_Host_Library/Core/Src/usbh_ctlreq.c ****   USBH_URBStateTypeDef URB_Status = USBH_URB_IDLE;
 630              		.loc 1 614 22 view .LVU214
 631 0108 0120     		movs	r0, #1
 632              	.LVL50:
 614:Middlewares/ST/STM32_USB_Host_Library/Core/Src/usbh_ctlreq.c ****   USBH_URBStateTypeDef URB_Status = USBH_URB_IDLE;
 633              		.loc 1 614 22 view .LVU215
 634 010a 91E7     		b	.L17
 635              	.LVL51:
 636              	.L60:
ARM GAS  C:\Users\union\AppData\Local\Temp\ccc20eai.s 			page 31


 817:Middlewares/ST/STM32_USB_Host_Library/Core/Src/usbh_ctlreq.c ****           status = USBH_FAIL;
 637              		.loc 1 817 11 is_stmt 1 view .LVU216
 817:Middlewares/ST/STM32_USB_Host_Library/Core/Src/usbh_ctlreq.c ****           status = USBH_FAIL;
 638              		.loc 1 817 32 is_stmt 0 view .LVU217
 639 010c 0B23     		movs	r3, #11
 640 010e 2376     		strb	r3, [r4, #24]
 818:Middlewares/ST/STM32_USB_Host_Library/Core/Src/usbh_ctlreq.c **** 
 641              		.loc 1 818 11 is_stmt 1 view .LVU218
 642              	.LVL52:
 818:Middlewares/ST/STM32_USB_Host_Library/Core/Src/usbh_ctlreq.c **** 
 643              		.loc 1 818 18 is_stmt 0 view .LVU219
 644 0110 0220     		movs	r0, #2
 645              	.LVL53:
 818:Middlewares/ST/STM32_USB_Host_Library/Core/Src/usbh_ctlreq.c **** 
 646              		.loc 1 818 18 view .LVU220
 647 0112 8DE7     		b	.L17
 648              	.LVL54:
 649              	.L23:
 834:Middlewares/ST/STM32_USB_Host_Library/Core/Src/usbh_ctlreq.c **** 
 650              		.loc 1 834 7 is_stmt 1 view .LVU221
 651 0114 0379     		ldrb	r3, [r0, #4]	@ zero_extendqisi2
 652 0116 0022     		movs	r2, #0
 653 0118 1146     		mov	r1, r2
 654 011a FFF7FEFF 		bl	USBH_CtlReceiveData
 655              	.LVL55:
 836:Middlewares/ST/STM32_USB_Host_Library/Core/Src/usbh_ctlreq.c ****       phost->Control.state = CTRL_STATUS_IN_WAIT;
 656              		.loc 1 836 7 view .LVU222
 836:Middlewares/ST/STM32_USB_Host_Library/Core/Src/usbh_ctlreq.c ****       phost->Control.state = CTRL_STATUS_IN_WAIT;
 657              		.loc 1 836 45 is_stmt 0 view .LVU223
 658 011e D4F8C433 		ldr	r3, [r4, #964]
 836:Middlewares/ST/STM32_USB_Host_Library/Core/Src/usbh_ctlreq.c ****       phost->Control.state = CTRL_STATUS_IN_WAIT;
 659              		.loc 1 836 28 view .LVU224
 660 0122 E381     		strh	r3, [r4, #14]	@ movhi
 837:Middlewares/ST/STM32_USB_Host_Library/Core/Src/usbh_ctlreq.c **** 
 661              		.loc 1 837 7 is_stmt 1 view .LVU225
 837:Middlewares/ST/STM32_USB_Host_Library/Core/Src/usbh_ctlreq.c **** 
 662              		.loc 1 837 28 is_stmt 0 view .LVU226
 663 0124 0823     		movs	r3, #8
 664 0126 2376     		strb	r3, [r4, #24]
 839:Middlewares/ST/STM32_USB_Host_Library/Core/Src/usbh_ctlreq.c **** 
 665              		.loc 1 839 7 is_stmt 1 view .LVU227
 614:Middlewares/ST/STM32_USB_Host_Library/Core/Src/usbh_ctlreq.c ****   USBH_URBStateTypeDef URB_Status = USBH_URB_IDLE;
 666              		.loc 1 614 22 is_stmt 0 view .LVU228
 667 0128 0120     		movs	r0, #1
 839:Middlewares/ST/STM32_USB_Host_Library/Core/Src/usbh_ctlreq.c **** 
 668              		.loc 1 839 7 view .LVU229
 669 012a 81E7     		b	.L17
 670              	.LVL56:
 671              	.L22:
 843:Middlewares/ST/STM32_USB_Host_Library/Core/Src/usbh_ctlreq.c **** 
 672              		.loc 1 843 7 is_stmt 1 view .LVU230
 843:Middlewares/ST/STM32_USB_Host_Library/Core/Src/usbh_ctlreq.c **** 
 673              		.loc 1 843 20 is_stmt 0 view .LVU231
 674 012c 0179     		ldrb	r1, [r0, #4]	@ zero_extendqisi2
 675 012e FFF7FEFF 		bl	USBH_LL_GetURBState
 676              	.LVL57:
 845:Middlewares/ST/STM32_USB_Host_Library/Core/Src/usbh_ctlreq.c ****       {
ARM GAS  C:\Users\union\AppData\Local\Temp\ccc20eai.s 			page 32


 677              		.loc 1 845 7 is_stmt 1 view .LVU232
 845:Middlewares/ST/STM32_USB_Host_Library/Core/Src/usbh_ctlreq.c ****       {
 678              		.loc 1 845 10 is_stmt 0 view .LVU233
 679 0132 0128     		cmp	r0, #1
 680 0134 05D0     		beq	.L61
 860:Middlewares/ST/STM32_USB_Host_Library/Core/Src/usbh_ctlreq.c ****       {
 681              		.loc 1 860 12 is_stmt 1 view .LVU234
 860:Middlewares/ST/STM32_USB_Host_Library/Core/Src/usbh_ctlreq.c ****       {
 682              		.loc 1 860 15 is_stmt 0 view .LVU235
 683 0136 0428     		cmp	r0, #4
 684 0138 07D0     		beq	.L62
 875:Middlewares/ST/STM32_USB_Host_Library/Core/Src/usbh_ctlreq.c ****         {
 685              		.loc 1 875 9 is_stmt 1 view .LVU236
 875:Middlewares/ST/STM32_USB_Host_Library/Core/Src/usbh_ctlreq.c ****         {
 686              		.loc 1 875 12 is_stmt 0 view .LVU237
 687 013a 0528     		cmp	r0, #5
 688 013c 56D0     		beq	.L49
 614:Middlewares/ST/STM32_USB_Host_Library/Core/Src/usbh_ctlreq.c ****   USBH_URBStateTypeDef URB_Status = USBH_URB_IDLE;
 689              		.loc 1 614 22 view .LVU238
 690 013e 0120     		movs	r0, #1
 691              	.LVL58:
 614:Middlewares/ST/STM32_USB_Host_Library/Core/Src/usbh_ctlreq.c ****   USBH_URBStateTypeDef URB_Status = USBH_URB_IDLE;
 692              		.loc 1 614 22 view .LVU239
 693 0140 76E7     		b	.L17
 694              	.LVL59:
 695              	.L61:
 848:Middlewares/ST/STM32_USB_Host_Library/Core/Src/usbh_ctlreq.c ****         status = USBH_OK;
 696              		.loc 1 848 9 is_stmt 1 view .LVU240
 848:Middlewares/ST/STM32_USB_Host_Library/Core/Src/usbh_ctlreq.c ****         status = USBH_OK;
 697              		.loc 1 848 30 is_stmt 0 view .LVU241
 698 0142 0D23     		movs	r3, #13
 699 0144 2376     		strb	r3, [r4, #24]
 849:Middlewares/ST/STM32_USB_Host_Library/Core/Src/usbh_ctlreq.c **** 
 700              		.loc 1 849 9 is_stmt 1 view .LVU242
 701              	.LVL60:
 849:Middlewares/ST/STM32_USB_Host_Library/Core/Src/usbh_ctlreq.c **** 
 702              		.loc 1 849 16 is_stmt 0 view .LVU243
 703 0146 0020     		movs	r0, #0
 704              	.LVL61:
 849:Middlewares/ST/STM32_USB_Host_Library/Core/Src/usbh_ctlreq.c **** 
 705              		.loc 1 849 16 view .LVU244
 706 0148 72E7     		b	.L17
 707              	.LVL62:
 708              	.L62:
 862:Middlewares/ST/STM32_USB_Host_Library/Core/Src/usbh_ctlreq.c **** 
 709              		.loc 1 862 9 is_stmt 1 view .LVU245
 862:Middlewares/ST/STM32_USB_Host_Library/Core/Src/usbh_ctlreq.c **** 
 710              		.loc 1 862 30 is_stmt 0 view .LVU246
 711 014a 0B23     		movs	r3, #11
 712 014c 2376     		strb	r3, [r4, #24]
 614:Middlewares/ST/STM32_USB_Host_Library/Core/Src/usbh_ctlreq.c ****   USBH_URBStateTypeDef URB_Status = USBH_URB_IDLE;
 713              		.loc 1 614 22 view .LVU247
 714 014e 0120     		movs	r0, #1
 715              	.LVL63:
 614:Middlewares/ST/STM32_USB_Host_Library/Core/Src/usbh_ctlreq.c ****   USBH_URBStateTypeDef URB_Status = USBH_URB_IDLE;
 716              		.loc 1 614 22 view .LVU248
 717 0150 6EE7     		b	.L17
ARM GAS  C:\Users\union\AppData\Local\Temp\ccc20eai.s 			page 33


 718              	.LVL64:
 719              	.L21:
 893:Middlewares/ST/STM32_USB_Host_Library/Core/Src/usbh_ctlreq.c **** 
 720              		.loc 1 893 7 is_stmt 1 view .LVU249
 721 0152 0125     		movs	r5, #1
 722 0154 0095     		str	r5, [sp]
 723 0156 4379     		ldrb	r3, [r0, #5]	@ zero_extendqisi2
 724 0158 0022     		movs	r2, #0
 725 015a 1146     		mov	r1, r2
 726 015c FFF7FEFF 		bl	USBH_CtlSendData
 727              	.LVL65:
 895:Middlewares/ST/STM32_USB_Host_Library/Core/Src/usbh_ctlreq.c ****       phost->Control.state = CTRL_STATUS_OUT_WAIT;
 728              		.loc 1 895 7 view .LVU250
 895:Middlewares/ST/STM32_USB_Host_Library/Core/Src/usbh_ctlreq.c ****       phost->Control.state = CTRL_STATUS_OUT_WAIT;
 729              		.loc 1 895 45 is_stmt 0 view .LVU251
 730 0160 D4F8C433 		ldr	r3, [r4, #964]
 895:Middlewares/ST/STM32_USB_Host_Library/Core/Src/usbh_ctlreq.c ****       phost->Control.state = CTRL_STATUS_OUT_WAIT;
 731              		.loc 1 895 28 view .LVU252
 732 0164 E381     		strh	r3, [r4, #14]	@ movhi
 896:Middlewares/ST/STM32_USB_Host_Library/Core/Src/usbh_ctlreq.c ****       break;
 733              		.loc 1 896 7 is_stmt 1 view .LVU253
 896:Middlewares/ST/STM32_USB_Host_Library/Core/Src/usbh_ctlreq.c ****       break;
 734              		.loc 1 896 28 is_stmt 0 view .LVU254
 735 0166 0A23     		movs	r3, #10
 736 0168 2376     		strb	r3, [r4, #24]
 897:Middlewares/ST/STM32_USB_Host_Library/Core/Src/usbh_ctlreq.c **** 
 737              		.loc 1 897 7 is_stmt 1 view .LVU255
 614:Middlewares/ST/STM32_USB_Host_Library/Core/Src/usbh_ctlreq.c ****   USBH_URBStateTypeDef URB_Status = USBH_URB_IDLE;
 738              		.loc 1 614 22 is_stmt 0 view .LVU256
 739 016a 2846     		mov	r0, r5
 897:Middlewares/ST/STM32_USB_Host_Library/Core/Src/usbh_ctlreq.c **** 
 740              		.loc 1 897 7 view .LVU257
 741 016c 60E7     		b	.L17
 742              	.LVL66:
 743              	.L20:
 900:Middlewares/ST/STM32_USB_Host_Library/Core/Src/usbh_ctlreq.c ****       if (URB_Status == USBH_URB_DONE)
 744              		.loc 1 900 7 is_stmt 1 view .LVU258
 900:Middlewares/ST/STM32_USB_Host_Library/Core/Src/usbh_ctlreq.c ****       if (URB_Status == USBH_URB_DONE)
 745              		.loc 1 900 20 is_stmt 0 view .LVU259
 746 016e 4179     		ldrb	r1, [r0, #5]	@ zero_extendqisi2
 747 0170 FFF7FEFF 		bl	USBH_LL_GetURBState
 748              	.LVL67:
 901:Middlewares/ST/STM32_USB_Host_Library/Core/Src/usbh_ctlreq.c ****       {
 749              		.loc 1 901 7 is_stmt 1 view .LVU260
 901:Middlewares/ST/STM32_USB_Host_Library/Core/Src/usbh_ctlreq.c ****       {
 750              		.loc 1 901 10 is_stmt 0 view .LVU261
 751 0174 0128     		cmp	r0, #1
 752 0176 05D0     		beq	.L63
 915:Middlewares/ST/STM32_USB_Host_Library/Core/Src/usbh_ctlreq.c ****       {
 753              		.loc 1 915 12 is_stmt 1 view .LVU262
 915:Middlewares/ST/STM32_USB_Host_Library/Core/Src/usbh_ctlreq.c ****       {
 754              		.loc 1 915 15 is_stmt 0 view .LVU263
 755 0178 0228     		cmp	r0, #2
 756 017a 07D0     		beq	.L64
 930:Middlewares/ST/STM32_USB_Host_Library/Core/Src/usbh_ctlreq.c ****         {
 757              		.loc 1 930 9 is_stmt 1 view .LVU264
 930:Middlewares/ST/STM32_USB_Host_Library/Core/Src/usbh_ctlreq.c ****         {
ARM GAS  C:\Users\union\AppData\Local\Temp\ccc20eai.s 			page 34


 758              		.loc 1 930 12 is_stmt 0 view .LVU265
 759 017c 0428     		cmp	r0, #4
 760 017e 09D0     		beq	.L65
 614:Middlewares/ST/STM32_USB_Host_Library/Core/Src/usbh_ctlreq.c ****   USBH_URBStateTypeDef URB_Status = USBH_URB_IDLE;
 761              		.loc 1 614 22 view .LVU266
 762 0180 0120     		movs	r0, #1
 763              	.LVL68:
 614:Middlewares/ST/STM32_USB_Host_Library/Core/Src/usbh_ctlreq.c ****   USBH_URBStateTypeDef URB_Status = USBH_URB_IDLE;
 764              		.loc 1 614 22 view .LVU267
 765 0182 55E7     		b	.L17
 766              	.LVL69:
 767              	.L63:
 903:Middlewares/ST/STM32_USB_Host_Library/Core/Src/usbh_ctlreq.c ****         phost->Control.state = CTRL_COMPLETE;
 768              		.loc 1 903 9 is_stmt 1 view .LVU268
 904:Middlewares/ST/STM32_USB_Host_Library/Core/Src/usbh_ctlreq.c **** 
 769              		.loc 1 904 9 view .LVU269
 904:Middlewares/ST/STM32_USB_Host_Library/Core/Src/usbh_ctlreq.c **** 
 770              		.loc 1 904 30 is_stmt 0 view .LVU270
 771 0184 0D23     		movs	r3, #13
 772 0186 2376     		strb	r3, [r4, #24]
 903:Middlewares/ST/STM32_USB_Host_Library/Core/Src/usbh_ctlreq.c ****         phost->Control.state = CTRL_COMPLETE;
 773              		.loc 1 903 16 view .LVU271
 774 0188 0020     		movs	r0, #0
 775              	.LVL70:
 903:Middlewares/ST/STM32_USB_Host_Library/Core/Src/usbh_ctlreq.c ****         phost->Control.state = CTRL_COMPLETE;
 776              		.loc 1 903 16 view .LVU272
 777 018a 51E7     		b	.L17
 778              	.LVL71:
 779              	.L64:
 917:Middlewares/ST/STM32_USB_Host_Library/Core/Src/usbh_ctlreq.c **** 
 780              		.loc 1 917 9 is_stmt 1 view .LVU273
 917:Middlewares/ST/STM32_USB_Host_Library/Core/Src/usbh_ctlreq.c **** 
 781              		.loc 1 917 30 is_stmt 0 view .LVU274
 782 018c 0923     		movs	r3, #9
 783 018e 2376     		strb	r3, [r4, #24]
 614:Middlewares/ST/STM32_USB_Host_Library/Core/Src/usbh_ctlreq.c ****   USBH_URBStateTypeDef URB_Status = USBH_URB_IDLE;
 784              		.loc 1 614 22 view .LVU275
 785 0190 0120     		movs	r0, #1
 786              	.LVL72:
 614:Middlewares/ST/STM32_USB_Host_Library/Core/Src/usbh_ctlreq.c ****   USBH_URBStateTypeDef URB_Status = USBH_URB_IDLE;
 787              		.loc 1 614 22 view .LVU276
 788 0192 4DE7     		b	.L17
 789              	.LVL73:
 790              	.L65:
 932:Middlewares/ST/STM32_USB_Host_Library/Core/Src/usbh_ctlreq.c **** 
 791              		.loc 1 932 11 is_stmt 1 view .LVU277
 932:Middlewares/ST/STM32_USB_Host_Library/Core/Src/usbh_ctlreq.c **** 
 792              		.loc 1 932 32 is_stmt 0 view .LVU278
 793 0194 0B23     		movs	r3, #11
 794 0196 2376     		strb	r3, [r4, #24]
 614:Middlewares/ST/STM32_USB_Host_Library/Core/Src/usbh_ctlreq.c ****   USBH_URBStateTypeDef URB_Status = USBH_URB_IDLE;
 795              		.loc 1 614 22 view .LVU279
 796 0198 0120     		movs	r0, #1
 797              	.LVL74:
 614:Middlewares/ST/STM32_USB_Host_Library/Core/Src/usbh_ctlreq.c ****   USBH_URBStateTypeDef URB_Status = USBH_URB_IDLE;
 798              		.loc 1 614 22 view .LVU280
 799 019a 49E7     		b	.L17
ARM GAS  C:\Users\union\AppData\Local\Temp\ccc20eai.s 			page 35


 800              	.LVL75:
 801              	.L18:
 955:Middlewares/ST/STM32_USB_Host_Library/Core/Src/usbh_ctlreq.c ****       {
 802              		.loc 1 955 7 is_stmt 1 view .LVU281
 955:Middlewares/ST/STM32_USB_Host_Library/Core/Src/usbh_ctlreq.c ****       {
 803              		.loc 1 955 27 is_stmt 0 view .LVU282
 804 019c 437E     		ldrb	r3, [r0, #25]	@ zero_extendqisi2
 955:Middlewares/ST/STM32_USB_Host_Library/Core/Src/usbh_ctlreq.c ****       {
 805              		.loc 1 955 11 view .LVU283
 806 019e 0133     		adds	r3, r3, #1
 807 01a0 DBB2     		uxtb	r3, r3
 955:Middlewares/ST/STM32_USB_Host_Library/Core/Src/usbh_ctlreq.c ****       {
 808              		.loc 1 955 10 view .LVU284
 809 01a2 4376     		strb	r3, [r0, #25]
 810 01a4 022B     		cmp	r3, #2
 811 01a6 03D8     		bhi	.L43
 958:Middlewares/ST/STM32_USB_Host_Library/Core/Src/usbh_ctlreq.c ****         phost->RequestState = CMD_SEND;
 812              		.loc 1 958 9 is_stmt 1 view .LVU285
 958:Middlewares/ST/STM32_USB_Host_Library/Core/Src/usbh_ctlreq.c ****         phost->RequestState = CMD_SEND;
 813              		.loc 1 958 30 is_stmt 0 view .LVU286
 814 01a8 0120     		movs	r0, #1
 815              	.LVL76:
 958:Middlewares/ST/STM32_USB_Host_Library/Core/Src/usbh_ctlreq.c ****         phost->RequestState = CMD_SEND;
 816              		.loc 1 958 30 view .LVU287
 817 01aa 2076     		strb	r0, [r4, #24]
 959:Middlewares/ST/STM32_USB_Host_Library/Core/Src/usbh_ctlreq.c ****       }
 818              		.loc 1 959 9 is_stmt 1 view .LVU288
 959:Middlewares/ST/STM32_USB_Host_Library/Core/Src/usbh_ctlreq.c ****       }
 819              		.loc 1 959 29 is_stmt 0 view .LVU289
 820 01ac A070     		strb	r0, [r4, #2]
 821 01ae 3FE7     		b	.L17
 822              	.LVL77:
 823              	.L43:
 963:Middlewares/ST/STM32_USB_Host_Library/Core/Src/usbh_ctlreq.c ****         phost->Control.errorcount = 0U;
 824              		.loc 1 963 9 is_stmt 1 view .LVU290
 963:Middlewares/ST/STM32_USB_Host_Library/Core/Src/usbh_ctlreq.c ****         phost->Control.errorcount = 0U;
 825              		.loc 1 963 14 is_stmt 0 view .LVU291
 826 01b0 D0F8D433 		ldr	r3, [r0, #980]
 963:Middlewares/ST/STM32_USB_Host_Library/Core/Src/usbh_ctlreq.c ****         phost->Control.errorcount = 0U;
 827              		.loc 1 963 9 view .LVU292
 828 01b4 0621     		movs	r1, #6
 829 01b6 9847     		blx	r3
 830              	.LVL78:
 964:Middlewares/ST/STM32_USB_Host_Library/Core/Src/usbh_ctlreq.c ****         USBH_ErrLog("Control error: Device not responding");
 831              		.loc 1 964 9 is_stmt 1 view .LVU293
 964:Middlewares/ST/STM32_USB_Host_Library/Core/Src/usbh_ctlreq.c ****         USBH_ErrLog("Control error: Device not responding");
 832              		.loc 1 964 35 is_stmt 0 view .LVU294
 833 01b8 0025     		movs	r5, #0
 834 01ba 6576     		strb	r5, [r4, #25]
 965:Middlewares/ST/STM32_USB_Host_Library/Core/Src/usbh_ctlreq.c **** 
 835              		.loc 1 965 9 is_stmt 1 view .LVU295
 965:Middlewares/ST/STM32_USB_Host_Library/Core/Src/usbh_ctlreq.c **** 
 836              		.loc 1 965 9 view .LVU296
 837 01bc 0C48     		ldr	r0, .L66
 838 01be FFF7FEFF 		bl	printf
 839              	.LVL79:
 965:Middlewares/ST/STM32_USB_Host_Library/Core/Src/usbh_ctlreq.c **** 
ARM GAS  C:\Users\union\AppData\Local\Temp\ccc20eai.s 			page 36


 840              		.loc 1 965 9 view .LVU297
 841 01c2 0C48     		ldr	r0, .L66+4
 842 01c4 FFF7FEFF 		bl	printf
 843              	.LVL80:
 965:Middlewares/ST/STM32_USB_Host_Library/Core/Src/usbh_ctlreq.c **** 
 844              		.loc 1 965 9 view .LVU298
 845 01c8 0A20     		movs	r0, #10
 846 01ca FFF7FEFF 		bl	putchar
 847              	.LVL81:
 968:Middlewares/ST/STM32_USB_Host_Library/Core/Src/usbh_ctlreq.c ****         USBH_FreePipe(phost, phost->Control.pipe_in);
 848              		.loc 1 968 9 view .LVU299
 849 01ce 6179     		ldrb	r1, [r4, #5]	@ zero_extendqisi2
 850 01d0 2046     		mov	r0, r4
 851 01d2 FFF7FEFF 		bl	USBH_FreePipe
 852              	.LVL82:
 969:Middlewares/ST/STM32_USB_Host_Library/Core/Src/usbh_ctlreq.c **** 
 853              		.loc 1 969 9 view .LVU300
 854 01d6 2179     		ldrb	r1, [r4, #4]	@ zero_extendqisi2
 855 01d8 2046     		mov	r0, r4
 856 01da FFF7FEFF 		bl	USBH_FreePipe
 857              	.LVL83:
 971:Middlewares/ST/STM32_USB_Host_Library/Core/Src/usbh_ctlreq.c ****         status = USBH_FAIL;
 858              		.loc 1 971 9 view .LVU301
 971:Middlewares/ST/STM32_USB_Host_Library/Core/Src/usbh_ctlreq.c ****         status = USBH_FAIL;
 859              		.loc 1 971 23 is_stmt 0 view .LVU302
 860 01de 2570     		strb	r5, [r4]
 972:Middlewares/ST/STM32_USB_Host_Library/Core/Src/usbh_ctlreq.c ****       }
 861              		.loc 1 972 9 is_stmt 1 view .LVU303
 862              	.LVL84:
 972:Middlewares/ST/STM32_USB_Host_Library/Core/Src/usbh_ctlreq.c ****       }
 863              		.loc 1 972 16 is_stmt 0 view .LVU304
 864 01e0 0220     		movs	r0, #2
 865 01e2 25E7     		b	.L17
 866              	.LVL85:
 867              	.L44:
 614:Middlewares/ST/STM32_USB_Host_Library/Core/Src/usbh_ctlreq.c ****   USBH_URBStateTypeDef URB_Status = USBH_URB_IDLE;
 868              		.loc 1 614 22 view .LVU305
 869 01e4 0120     		movs	r0, #1
 870              	.LVL86:
 614:Middlewares/ST/STM32_USB_Host_Library/Core/Src/usbh_ctlreq.c ****   USBH_URBStateTypeDef URB_Status = USBH_URB_IDLE;
 871              		.loc 1 614 22 view .LVU306
 872 01e6 23E7     		b	.L17
 873              	.LVL87:
 874              	.L46:
 724:Middlewares/ST/STM32_USB_Host_Library/Core/Src/usbh_ctlreq.c **** 
 875              		.loc 1 724 16 view .LVU307
 876 01e8 0320     		movs	r0, #3
 877              	.LVL88:
 724:Middlewares/ST/STM32_USB_Host_Library/Core/Src/usbh_ctlreq.c **** 
 878              		.loc 1 724 16 view .LVU308
 879 01ea 21E7     		b	.L17
 880              	.LVL89:
 881              	.L49:
 878:Middlewares/ST/STM32_USB_Host_Library/Core/Src/usbh_ctlreq.c **** 
 882              		.loc 1 878 18 view .LVU309
 883 01ec 0320     		movs	r0, #3
 884              	.LVL90:
ARM GAS  C:\Users\union\AppData\Local\Temp\ccc20eai.s 			page 37


 878:Middlewares/ST/STM32_USB_Host_Library/Core/Src/usbh_ctlreq.c **** 
 885              		.loc 1 878 18 view .LVU310
 886 01ee 1FE7     		b	.L17
 887              	.L67:
 888              		.align	2
 889              	.L66:
 890 01f0 00000000 		.word	.LC0
 891 01f4 08000000 		.word	.LC1
 892              		.cfi_endproc
 893              	.LFE151:
 895              		.section	.text.USBH_GetNextDesc,"ax",%progbits
 896              		.align	1
 897              		.global	USBH_GetNextDesc
 898              		.syntax unified
 899              		.thumb
 900              		.thumb_func
 901              		.fpu fpv4-sp-d16
 903              	USBH_GetNextDesc:
 904              	.LVL91:
 905              	.LFB149:
 524:Middlewares/ST/STM32_USB_Host_Library/Core/Src/usbh_ctlreq.c ****   USBH_DescHeader_t  *pnext;
 906              		.loc 1 524 1 is_stmt 1 view -0
 907              		.cfi_startproc
 908              		@ args = 0, pretend = 0, frame = 0
 909              		@ frame_needed = 0, uses_anonymous_args = 0
 910              		@ link register save eliminated.
 525:Middlewares/ST/STM32_USB_Host_Library/Core/Src/usbh_ctlreq.c **** 
 911              		.loc 1 525 3 view .LVU312
 527:Middlewares/ST/STM32_USB_Host_Library/Core/Src/usbh_ctlreq.c ****   pnext = (USBH_DescHeader_t *)(void *)((uint8_t *)(void *)pbuf + \
 912              		.loc 1 527 3 view .LVU313
 527:Middlewares/ST/STM32_USB_Host_Library/Core/Src/usbh_ctlreq.c ****   pnext = (USBH_DescHeader_t *)(void *)((uint8_t *)(void *)pbuf + \
 913              		.loc 1 527 46 is_stmt 0 view .LVU314
 914 0000 0378     		ldrb	r3, [r0]	@ zero_extendqisi2
 527:Middlewares/ST/STM32_USB_Host_Library/Core/Src/usbh_ctlreq.c ****   pnext = (USBH_DescHeader_t *)(void *)((uint8_t *)(void *)pbuf + \
 915              		.loc 1 527 8 view .LVU315
 916 0002 0A88     		ldrh	r2, [r1]
 917 0004 1344     		add	r3, r3, r2
 918 0006 0B80     		strh	r3, [r1]	@ movhi
 528:Middlewares/ST/STM32_USB_Host_Library/Core/Src/usbh_ctlreq.c ****                                         ((USBH_DescHeader_t *)(void *)pbuf)->bLength);
 919              		.loc 1 528 3 is_stmt 1 view .LVU316
 529:Middlewares/ST/STM32_USB_Host_Library/Core/Src/usbh_ctlreq.c **** 
 920              		.loc 1 529 76 is_stmt 0 view .LVU317
 921 0008 0378     		ldrb	r3, [r0]	@ zero_extendqisi2
 922              	.LVL92:
 531:Middlewares/ST/STM32_USB_Host_Library/Core/Src/usbh_ctlreq.c **** }
 923              		.loc 1 531 3 is_stmt 1 view .LVU318
 532:Middlewares/ST/STM32_USB_Host_Library/Core/Src/usbh_ctlreq.c **** 
 924              		.loc 1 532 1 is_stmt 0 view .LVU319
 925 000a 1844     		add	r0, r0, r3
 926              	.LVL93:
 532:Middlewares/ST/STM32_USB_Host_Library/Core/Src/usbh_ctlreq.c **** 
 927              		.loc 1 532 1 view .LVU320
 928 000c 7047     		bx	lr
 929              		.cfi_endproc
 930              	.LFE149:
 932              		.section	.text.USBH_ParseCfgDesc,"ax",%progbits
 933              		.align	1
ARM GAS  C:\Users\union\AppData\Local\Temp\ccc20eai.s 			page 38


 934              		.syntax unified
 935              		.thumb
 936              		.thumb_func
 937              		.fpu fpv4-sp-d16
 939              	USBH_ParseCfgDesc:
 940              	.LVL94:
 941              	.LFB145:
 382:Middlewares/ST/STM32_USB_Host_Library/Core/Src/usbh_ctlreq.c ****   USBH_InterfaceDescTypeDef    *pif ;
 942              		.loc 1 382 1 is_stmt 1 view -0
 943              		.cfi_startproc
 944              		@ args = 0, pretend = 0, frame = 8
 945              		@ frame_needed = 0, uses_anonymous_args = 0
 382:Middlewares/ST/STM32_USB_Host_Library/Core/Src/usbh_ctlreq.c ****   USBH_InterfaceDescTypeDef    *pif ;
 946              		.loc 1 382 1 is_stmt 0 view .LVU322
 947 0000 2DE9F041 		push	{r4, r5, r6, r7, r8, lr}
 948              	.LCFI8:
 949              		.cfi_def_cfa_offset 24
 950              		.cfi_offset 4, -24
 951              		.cfi_offset 5, -20
 952              		.cfi_offset 6, -16
 953              		.cfi_offset 7, -12
 954              		.cfi_offset 8, -8
 955              		.cfi_offset 14, -4
 956 0004 82B0     		sub	sp, sp, #8
 957              	.LCFI9:
 958              		.cfi_def_cfa_offset 32
 959 0006 0C46     		mov	r4, r1
 383:Middlewares/ST/STM32_USB_Host_Library/Core/Src/usbh_ctlreq.c ****   USBH_EpDescTypeDef           *pep;
 960              		.loc 1 383 3 is_stmt 1 view .LVU323
 384:Middlewares/ST/STM32_USB_Host_Library/Core/Src/usbh_ctlreq.c ****   USBH_DescHeader_t            *pdesc = (USBH_DescHeader_t *)(void *)buf;
 961              		.loc 1 384 3 view .LVU324
 385:Middlewares/ST/STM32_USB_Host_Library/Core/Src/usbh_ctlreq.c ****   uint16_t                     ptr;
 962              		.loc 1 385 3 view .LVU325
 963              	.LVL95:
 386:Middlewares/ST/STM32_USB_Host_Library/Core/Src/usbh_ctlreq.c ****   uint8_t                      if_ix = 0U;
 964              		.loc 1 386 3 view .LVU326
 387:Middlewares/ST/STM32_USB_Host_Library/Core/Src/usbh_ctlreq.c ****   uint8_t                      ep_ix = 0U;
 965              		.loc 1 387 3 view .LVU327
 388:Middlewares/ST/STM32_USB_Host_Library/Core/Src/usbh_ctlreq.c **** 
 966              		.loc 1 388 3 view .LVU328
 390:Middlewares/ST/STM32_USB_Host_Library/Core/Src/usbh_ctlreq.c **** 
 967              		.loc 1 390 3 view .LVU329
 393:Middlewares/ST/STM32_USB_Host_Library/Core/Src/usbh_ctlreq.c ****   cfg_desc->bDescriptorType     = *(uint8_t *)(buf + 1);
 968              		.loc 1 393 3 view .LVU330
 393:Middlewares/ST/STM32_USB_Host_Library/Core/Src/usbh_ctlreq.c ****   cfg_desc->bDescriptorType     = *(uint8_t *)(buf + 1);
 969              		.loc 1 393 35 is_stmt 0 view .LVU331
 970 0008 0B78     		ldrb	r3, [r1]	@ zero_extendqisi2
 393:Middlewares/ST/STM32_USB_Host_Library/Core/Src/usbh_ctlreq.c ****   cfg_desc->bDescriptorType     = *(uint8_t *)(buf + 1);
 971              		.loc 1 393 33 view .LVU332
 972 000a 0370     		strb	r3, [r0]
 394:Middlewares/ST/STM32_USB_Host_Library/Core/Src/usbh_ctlreq.c ****   cfg_desc->wTotalLength        = LE16(buf + 2);
 973              		.loc 1 394 3 is_stmt 1 view .LVU333
 394:Middlewares/ST/STM32_USB_Host_Library/Core/Src/usbh_ctlreq.c ****   cfg_desc->wTotalLength        = LE16(buf + 2);
 974              		.loc 1 394 33 is_stmt 0 view .LVU334
 975 000c 4B78     		ldrb	r3, [r1, #1]	@ zero_extendqisi2
 976 000e 4370     		strb	r3, [r0, #1]
 395:Middlewares/ST/STM32_USB_Host_Library/Core/Src/usbh_ctlreq.c ****   cfg_desc->bNumInterfaces      = *(uint8_t *)(buf + 4);
ARM GAS  C:\Users\union\AppData\Local\Temp\ccc20eai.s 			page 39


 977              		.loc 1 395 3 is_stmt 1 view .LVU335
 395:Middlewares/ST/STM32_USB_Host_Library/Core/Src/usbh_ctlreq.c ****   cfg_desc->bNumInterfaces      = *(uint8_t *)(buf + 4);
 978              		.loc 1 395 35 is_stmt 0 view .LVU336
 979 0010 8B78     		ldrb	r3, [r1, #2]	@ zero_extendqisi2
 980 0012 C978     		ldrb	r1, [r1, #3]	@ zero_extendqisi2
 981              	.LVL96:
 395:Middlewares/ST/STM32_USB_Host_Library/Core/Src/usbh_ctlreq.c ****   cfg_desc->bNumInterfaces      = *(uint8_t *)(buf + 4);
 982              		.loc 1 395 35 view .LVU337
 983 0014 43EA0123 		orr	r3, r3, r1, lsl #8
 395:Middlewares/ST/STM32_USB_Host_Library/Core/Src/usbh_ctlreq.c ****   cfg_desc->bNumInterfaces      = *(uint8_t *)(buf + 4);
 984              		.loc 1 395 33 view .LVU338
 985 0018 4380     		strh	r3, [r0, #2]	@ movhi
 396:Middlewares/ST/STM32_USB_Host_Library/Core/Src/usbh_ctlreq.c ****   cfg_desc->bConfigurationValue = *(uint8_t *)(buf + 5);
 986              		.loc 1 396 3 is_stmt 1 view .LVU339
 396:Middlewares/ST/STM32_USB_Host_Library/Core/Src/usbh_ctlreq.c ****   cfg_desc->bConfigurationValue = *(uint8_t *)(buf + 5);
 987              		.loc 1 396 33 is_stmt 0 view .LVU340
 988 001a 2379     		ldrb	r3, [r4, #4]	@ zero_extendqisi2
 989 001c 0371     		strb	r3, [r0, #4]
 397:Middlewares/ST/STM32_USB_Host_Library/Core/Src/usbh_ctlreq.c ****   cfg_desc->iConfiguration      = *(uint8_t *)(buf + 6);
 990              		.loc 1 397 3 is_stmt 1 view .LVU341
 397:Middlewares/ST/STM32_USB_Host_Library/Core/Src/usbh_ctlreq.c ****   cfg_desc->iConfiguration      = *(uint8_t *)(buf + 6);
 991              		.loc 1 397 33 is_stmt 0 view .LVU342
 992 001e 6379     		ldrb	r3, [r4, #5]	@ zero_extendqisi2
 993 0020 4371     		strb	r3, [r0, #5]
 398:Middlewares/ST/STM32_USB_Host_Library/Core/Src/usbh_ctlreq.c ****   cfg_desc->bmAttributes        = *(uint8_t *)(buf + 7);
 994              		.loc 1 398 3 is_stmt 1 view .LVU343
 398:Middlewares/ST/STM32_USB_Host_Library/Core/Src/usbh_ctlreq.c ****   cfg_desc->bmAttributes        = *(uint8_t *)(buf + 7);
 995              		.loc 1 398 33 is_stmt 0 view .LVU344
 996 0022 A379     		ldrb	r3, [r4, #6]	@ zero_extendqisi2
 997 0024 8371     		strb	r3, [r0, #6]
 399:Middlewares/ST/STM32_USB_Host_Library/Core/Src/usbh_ctlreq.c ****   cfg_desc->bMaxPower           = *(uint8_t *)(buf + 8);
 998              		.loc 1 399 3 is_stmt 1 view .LVU345
 399:Middlewares/ST/STM32_USB_Host_Library/Core/Src/usbh_ctlreq.c ****   cfg_desc->bMaxPower           = *(uint8_t *)(buf + 8);
 999              		.loc 1 399 33 is_stmt 0 view .LVU346
 1000 0026 E379     		ldrb	r3, [r4, #7]	@ zero_extendqisi2
 1001 0028 C371     		strb	r3, [r0, #7]
 400:Middlewares/ST/STM32_USB_Host_Library/Core/Src/usbh_ctlreq.c **** 
 1002              		.loc 1 400 3 is_stmt 1 view .LVU347
 400:Middlewares/ST/STM32_USB_Host_Library/Core/Src/usbh_ctlreq.c **** 
 1003              		.loc 1 400 33 is_stmt 0 view .LVU348
 1004 002a 237A     		ldrb	r3, [r4, #8]	@ zero_extendqisi2
 1005 002c 0372     		strb	r3, [r0, #8]
 402:Middlewares/ST/STM32_USB_Host_Library/Core/Src/usbh_ctlreq.c ****   {
 1006              		.loc 1 402 3 is_stmt 1 view .LVU349
 402:Middlewares/ST/STM32_USB_Host_Library/Core/Src/usbh_ctlreq.c ****   {
 1007              		.loc 1 402 6 is_stmt 0 view .LVU350
 1008 002e 092A     		cmp	r2, #9
 1009 0030 44D9     		bls	.L69
 1010 0032 0546     		mov	r5, r0
 404:Middlewares/ST/STM32_USB_Host_Library/Core/Src/usbh_ctlreq.c ****     pif = (USBH_InterfaceDescTypeDef *)0;
 1011              		.loc 1 404 5 is_stmt 1 view .LVU351
 404:Middlewares/ST/STM32_USB_Host_Library/Core/Src/usbh_ctlreq.c ****     pif = (USBH_InterfaceDescTypeDef *)0;
 1012              		.loc 1 404 9 is_stmt 0 view .LVU352
 1013 0034 0923     		movs	r3, #9
 1014 0036 ADF80630 		strh	r3, [sp, #6]	@ movhi
 405:Middlewares/ST/STM32_USB_Host_Library/Core/Src/usbh_ctlreq.c **** 
 1015              		.loc 1 405 5 is_stmt 1 view .LVU353
ARM GAS  C:\Users\union\AppData\Local\Temp\ccc20eai.s 			page 40


 1016              	.LVL97:
 407:Middlewares/ST/STM32_USB_Host_Library/Core/Src/usbh_ctlreq.c ****     {
 1017              		.loc 1 407 5 view .LVU354
 387:Middlewares/ST/STM32_USB_Host_Library/Core/Src/usbh_ctlreq.c ****   uint8_t                      ep_ix = 0U;
 1018              		.loc 1 387 32 is_stmt 0 view .LVU355
 1019 003a 0026     		movs	r6, #0
 1020              	.LVL98:
 1021              	.L72:
 407:Middlewares/ST/STM32_USB_Host_Library/Core/Src/usbh_ctlreq.c ****     {
 1022              		.loc 1 407 11 view .LVU356
 1023 003c 012E     		cmp	r6, #1
 1024 003e 3DD8     		bhi	.L69
 407:Middlewares/ST/STM32_USB_Host_Library/Core/Src/usbh_ctlreq.c ****     {
 1025              		.loc 1 407 64 discriminator 1 view .LVU357
 1026 0040 6A88     		ldrh	r2, [r5, #2]
 407:Middlewares/ST/STM32_USB_Host_Library/Core/Src/usbh_ctlreq.c ****     {
 1027              		.loc 1 407 54 discriminator 1 view .LVU358
 1028 0042 BDF80630 		ldrh	r3, [sp, #6]
 407:Middlewares/ST/STM32_USB_Host_Library/Core/Src/usbh_ctlreq.c ****     {
 1029              		.loc 1 407 46 discriminator 1 view .LVU359
 1030 0046 9A42     		cmp	r2, r3
 1031 0048 38D9     		bls	.L69
 409:Middlewares/ST/STM32_USB_Host_Library/Core/Src/usbh_ctlreq.c ****       if (pdesc->bDescriptorType   == USB_DESC_TYPE_INTERFACE)
 1032              		.loc 1 409 7 is_stmt 1 view .LVU360
 409:Middlewares/ST/STM32_USB_Host_Library/Core/Src/usbh_ctlreq.c ****       if (pdesc->bDescriptorType   == USB_DESC_TYPE_INTERFACE)
 1033              		.loc 1 409 15 is_stmt 0 view .LVU361
 1034 004a 0DF10601 		add	r1, sp, #6
 1035 004e 2046     		mov	r0, r4
 1036 0050 FFF7FEFF 		bl	USBH_GetNextDesc
 1037              	.LVL99:
 1038 0054 0446     		mov	r4, r0
 1039              	.LVL100:
 410:Middlewares/ST/STM32_USB_Host_Library/Core/Src/usbh_ctlreq.c ****       {
 1040              		.loc 1 410 7 is_stmt 1 view .LVU362
 410:Middlewares/ST/STM32_USB_Host_Library/Core/Src/usbh_ctlreq.c ****       {
 1041              		.loc 1 410 16 is_stmt 0 view .LVU363
 1042 0056 4378     		ldrb	r3, [r0, #1]	@ zero_extendqisi2
 410:Middlewares/ST/STM32_USB_Host_Library/Core/Src/usbh_ctlreq.c ****       {
 1043              		.loc 1 410 10 view .LVU364
 1044 0058 042B     		cmp	r3, #4
 1045 005a EFD1     		bne	.L72
 412:Middlewares/ST/STM32_USB_Host_Library/Core/Src/usbh_ctlreq.c ****         USBH_ParseInterfaceDesc(pif, (uint8_t *)(void *)pdesc);
 1046              		.loc 1 412 9 is_stmt 1 view .LVU365
 412:Middlewares/ST/STM32_USB_Host_Library/Core/Src/usbh_ctlreq.c ****         USBH_ParseInterfaceDesc(pif, (uint8_t *)(void *)pdesc);
 1047              		.loc 1 412 34 is_stmt 0 view .LVU366
 1048 005c B046     		mov	r8, r6
 412:Middlewares/ST/STM32_USB_Host_Library/Core/Src/usbh_ctlreq.c ****         USBH_ParseInterfaceDesc(pif, (uint8_t *)(void *)pdesc);
 1049              		.loc 1 412 13 view .LVU367
 1050 005e 1A20     		movs	r0, #26
 1051              	.LVL101:
 412:Middlewares/ST/STM32_USB_Host_Library/Core/Src/usbh_ctlreq.c ****         USBH_ParseInterfaceDesc(pif, (uint8_t *)(void *)pdesc);
 1052              		.loc 1 412 13 view .LVU368
 1053 0060 00FB06F0 		mul	r0, r0, r6
 1054 0064 0830     		adds	r0, r0, #8
 1055 0066 2844     		add	r0, r0, r5
 1056              	.LVL102:
 413:Middlewares/ST/STM32_USB_Host_Library/Core/Src/usbh_ctlreq.c **** 
ARM GAS  C:\Users\union\AppData\Local\Temp\ccc20eai.s 			page 41


 1057              		.loc 1 413 9 is_stmt 1 view .LVU369
 1058 0068 2146     		mov	r1, r4
 1059 006a 0230     		adds	r0, r0, #2
 1060              	.LVL103:
 413:Middlewares/ST/STM32_USB_Host_Library/Core/Src/usbh_ctlreq.c **** 
 1061              		.loc 1 413 9 is_stmt 0 view .LVU370
 1062 006c FFF7FEFF 		bl	USBH_ParseInterfaceDesc
 1063              	.LVL104:
 415:Middlewares/ST/STM32_USB_Host_Library/Core/Src/usbh_ctlreq.c ****         pep = (USBH_EpDescTypeDef *)0;
 1064              		.loc 1 415 9 is_stmt 1 view .LVU371
 416:Middlewares/ST/STM32_USB_Host_Library/Core/Src/usbh_ctlreq.c ****         while ((ep_ix < pif->bNumEndpoints) && (ptr < cfg_desc->wTotalLength))
 1065              		.loc 1 416 9 view .LVU372
 417:Middlewares/ST/STM32_USB_Host_Library/Core/Src/usbh_ctlreq.c ****         {
 1066              		.loc 1 417 9 view .LVU373
 415:Middlewares/ST/STM32_USB_Host_Library/Core/Src/usbh_ctlreq.c ****         pep = (USBH_EpDescTypeDef *)0;
 1067              		.loc 1 415 15 is_stmt 0 view .LVU374
 1068 0070 0027     		movs	r7, #0
 1069              	.LVL105:
 1070              	.L73:
 417:Middlewares/ST/STM32_USB_Host_Library/Core/Src/usbh_ctlreq.c ****         {
 1071              		.loc 1 417 28 view .LVU375
 1072 0072 1A23     		movs	r3, #26
 1073              	.LVL106:
 417:Middlewares/ST/STM32_USB_Host_Library/Core/Src/usbh_ctlreq.c ****         {
 1074              		.loc 1 417 28 view .LVU376
 1075 0074 03FB0853 		mla	r3, r3, r8, r5
 1076              	.LVL107:
 417:Middlewares/ST/STM32_USB_Host_Library/Core/Src/usbh_ctlreq.c ****         {
 1077              		.loc 1 417 28 view .LVU377
 1078 0078 9B7B     		ldrb	r3, [r3, #14]	@ zero_extendqisi2
 417:Middlewares/ST/STM32_USB_Host_Library/Core/Src/usbh_ctlreq.c ****         {
 1079              		.loc 1 417 15 view .LVU378
 1080 007a BB42     		cmp	r3, r7
 1081 007c 1BD9     		bls	.L75
 417:Middlewares/ST/STM32_USB_Host_Library/Core/Src/usbh_ctlreq.c ****         {
 1082              		.loc 1 417 63 discriminator 1 view .LVU379
 1083 007e 6A88     		ldrh	r2, [r5, #2]
 417:Middlewares/ST/STM32_USB_Host_Library/Core/Src/usbh_ctlreq.c ****         {
 1084              		.loc 1 417 53 discriminator 1 view .LVU380
 1085 0080 BDF80630 		ldrh	r3, [sp, #6]
 417:Middlewares/ST/STM32_USB_Host_Library/Core/Src/usbh_ctlreq.c ****         {
 1086              		.loc 1 417 45 discriminator 1 view .LVU381
 1087 0084 9A42     		cmp	r2, r3
 1088 0086 16D9     		bls	.L75
 419:Middlewares/ST/STM32_USB_Host_Library/Core/Src/usbh_ctlreq.c ****           if (pdesc->bDescriptorType   == USB_DESC_TYPE_ENDPOINT)
 1089              		.loc 1 419 11 is_stmt 1 view .LVU382
 419:Middlewares/ST/STM32_USB_Host_Library/Core/Src/usbh_ctlreq.c ****           if (pdesc->bDescriptorType   == USB_DESC_TYPE_ENDPOINT)
 1090              		.loc 1 419 19 is_stmt 0 view .LVU383
 1091 0088 0DF10601 		add	r1, sp, #6
 1092 008c 2046     		mov	r0, r4
 1093 008e FFF7FEFF 		bl	USBH_GetNextDesc
 1094              	.LVL108:
 1095 0092 0446     		mov	r4, r0
 1096              	.LVL109:
 420:Middlewares/ST/STM32_USB_Host_Library/Core/Src/usbh_ctlreq.c ****           {
 1097              		.loc 1 420 11 is_stmt 1 view .LVU384
 420:Middlewares/ST/STM32_USB_Host_Library/Core/Src/usbh_ctlreq.c ****           {
ARM GAS  C:\Users\union\AppData\Local\Temp\ccc20eai.s 			page 42


 1098              		.loc 1 420 20 is_stmt 0 view .LVU385
 1099 0094 4378     		ldrb	r3, [r0, #1]	@ zero_extendqisi2
 420:Middlewares/ST/STM32_USB_Host_Library/Core/Src/usbh_ctlreq.c ****           {
 1100              		.loc 1 420 14 view .LVU386
 1101 0096 052B     		cmp	r3, #5
 1102 0098 EBD1     		bne	.L73
 422:Middlewares/ST/STM32_USB_Host_Library/Core/Src/usbh_ctlreq.c ****             USBH_ParseEPDesc(pep, (uint8_t *)(void *)pdesc);
 1103              		.loc 1 422 13 is_stmt 1 view .LVU387
 422:Middlewares/ST/STM32_USB_Host_Library/Core/Src/usbh_ctlreq.c ****             USBH_ParseEPDesc(pep, (uint8_t *)(void *)pdesc);
 1104              		.loc 1 422 17 is_stmt 0 view .LVU388
 1105 009a 0137     		adds	r7, r7, #1
 1106              	.LVL110:
 422:Middlewares/ST/STM32_USB_Host_Library/Core/Src/usbh_ctlreq.c ****             USBH_ParseEPDesc(pep, (uint8_t *)(void *)pdesc);
 1107              		.loc 1 422 17 view .LVU389
 1108 009c 1A20     		movs	r0, #26
 1109              	.LVL111:
 422:Middlewares/ST/STM32_USB_Host_Library/Core/Src/usbh_ctlreq.c ****             USBH_ParseEPDesc(pep, (uint8_t *)(void *)pdesc);
 1110              		.loc 1 422 17 view .LVU390
 1111 009e 00FB08F0 		mul	r0, r0, r8
 1112              	.LVL112:
 422:Middlewares/ST/STM32_USB_Host_Library/Core/Src/usbh_ctlreq.c ****             USBH_ParseEPDesc(pep, (uint8_t *)(void *)pdesc);
 1113              		.loc 1 422 17 view .LVU391
 1114 00a2 00EBC700 		add	r0, r0, r7, lsl #3
 1115 00a6 0830     		adds	r0, r0, #8
 1116 00a8 2844     		add	r0, r0, r5
 1117              	.LVL113:
 423:Middlewares/ST/STM32_USB_Host_Library/Core/Src/usbh_ctlreq.c ****             ep_ix++;
 1118              		.loc 1 423 13 is_stmt 1 view .LVU392
 1119 00aa 2146     		mov	r1, r4
 1120 00ac 0430     		adds	r0, r0, #4
 1121              	.LVL114:
 423:Middlewares/ST/STM32_USB_Host_Library/Core/Src/usbh_ctlreq.c ****             ep_ix++;
 1122              		.loc 1 423 13 is_stmt 0 view .LVU393
 1123 00ae FFF7FEFF 		bl	USBH_ParseEPDesc
 1124              	.LVL115:
 424:Middlewares/ST/STM32_USB_Host_Library/Core/Src/usbh_ctlreq.c ****           }
 1125              		.loc 1 424 13 is_stmt 1 view .LVU394
 424:Middlewares/ST/STM32_USB_Host_Library/Core/Src/usbh_ctlreq.c ****           }
 1126              		.loc 1 424 18 is_stmt 0 view .LVU395
 1127 00b2 FFB2     		uxtb	r7, r7
 1128              	.LVL116:
 424:Middlewares/ST/STM32_USB_Host_Library/Core/Src/usbh_ctlreq.c ****           }
 1129              		.loc 1 424 18 view .LVU396
 1130 00b4 DDE7     		b	.L73
 1131              	.L75:
 427:Middlewares/ST/STM32_USB_Host_Library/Core/Src/usbh_ctlreq.c ****       }
 1132              		.loc 1 427 9 is_stmt 1 view .LVU397
 427:Middlewares/ST/STM32_USB_Host_Library/Core/Src/usbh_ctlreq.c ****       }
 1133              		.loc 1 427 14 is_stmt 0 view .LVU398
 1134 00b6 0136     		adds	r6, r6, #1
 1135              	.LVL117:
 427:Middlewares/ST/STM32_USB_Host_Library/Core/Src/usbh_ctlreq.c ****       }
 1136              		.loc 1 427 14 view .LVU399
 1137 00b8 F6B2     		uxtb	r6, r6
 1138              	.LVL118:
 427:Middlewares/ST/STM32_USB_Host_Library/Core/Src/usbh_ctlreq.c ****       }
 1139              		.loc 1 427 14 view .LVU400
ARM GAS  C:\Users\union\AppData\Local\Temp\ccc20eai.s 			page 43


 1140 00ba BFE7     		b	.L72
 1141              	.LVL119:
 1142              	.L69:
 431:Middlewares/ST/STM32_USB_Host_Library/Core/Src/usbh_ctlreq.c **** 
 1143              		.loc 1 431 1 view .LVU401
 1144 00bc 02B0     		add	sp, sp, #8
 1145              	.LCFI10:
 1146              		.cfi_def_cfa_offset 24
 1147              		@ sp needed
 1148 00be BDE8F081 		pop	{r4, r5, r6, r7, r8, pc}
 431:Middlewares/ST/STM32_USB_Host_Library/Core/Src/usbh_ctlreq.c **** 
 1149              		.loc 1 431 1 view .LVU402
 1150              		.cfi_endproc
 1151              	.LFE145:
 1153              		.section	.text.USBH_CtlReq,"ax",%progbits
 1154              		.align	1
 1155              		.global	USBH_CtlReq
 1156              		.syntax unified
 1157              		.thumb
 1158              		.thumb_func
 1159              		.fpu fpv4-sp-d16
 1161              	USBH_CtlReq:
 1162              	.LVL120:
 1163              	.LFB150:
 547:Middlewares/ST/STM32_USB_Host_Library/Core/Src/usbh_ctlreq.c ****   USBH_StatusTypeDef status;
 1164              		.loc 1 547 1 is_stmt 1 view -0
 1165              		.cfi_startproc
 1166              		@ args = 0, pretend = 0, frame = 0
 1167              		@ frame_needed = 0, uses_anonymous_args = 0
 548:Middlewares/ST/STM32_USB_Host_Library/Core/Src/usbh_ctlreq.c ****   status = USBH_BUSY;
 1168              		.loc 1 548 3 view .LVU404
 549:Middlewares/ST/STM32_USB_Host_Library/Core/Src/usbh_ctlreq.c **** 
 1169              		.loc 1 549 3 view .LVU405
 551:Middlewares/ST/STM32_USB_Host_Library/Core/Src/usbh_ctlreq.c ****   {
 1170              		.loc 1 551 3 view .LVU406
 551:Middlewares/ST/STM32_USB_Host_Library/Core/Src/usbh_ctlreq.c ****   {
 1171              		.loc 1 551 16 is_stmt 0 view .LVU407
 1172 0000 8378     		ldrb	r3, [r0, #2]	@ zero_extendqisi2
 551:Middlewares/ST/STM32_USB_Host_Library/Core/Src/usbh_ctlreq.c ****   {
 1173              		.loc 1 551 3 view .LVU408
 1174 0002 012B     		cmp	r3, #1
 1175 0004 04D0     		beq	.L80
 1176 0006 022B     		cmp	r3, #2
 1177 0008 09D0     		beq	.L81
 549:Middlewares/ST/STM32_USB_Host_Library/Core/Src/usbh_ctlreq.c **** 
 1178              		.loc 1 549 10 view .LVU409
 1179 000a 0123     		movs	r3, #1
 1180              	.LVL121:
 1181              	.L86:
 601:Middlewares/ST/STM32_USB_Host_Library/Core/Src/usbh_ctlreq.c **** }
 1182              		.loc 1 601 3 is_stmt 1 view .LVU410
 602:Middlewares/ST/STM32_USB_Host_Library/Core/Src/usbh_ctlreq.c **** 
 1183              		.loc 1 602 1 is_stmt 0 view .LVU411
 1184 000c 1846     		mov	r0, r3
 1185              	.LVL122:
 602:Middlewares/ST/STM32_USB_Host_Library/Core/Src/usbh_ctlreq.c **** 
 1186              		.loc 1 602 1 view .LVU412
ARM GAS  C:\Users\union\AppData\Local\Temp\ccc20eai.s 			page 44


 1187 000e 7047     		bx	lr
 1188              	.LVL123:
 1189              	.L80:
 555:Middlewares/ST/STM32_USB_Host_Library/Core/Src/usbh_ctlreq.c ****       phost->Control.length = length;
 1190              		.loc 1 555 7 is_stmt 1 view .LVU413
 555:Middlewares/ST/STM32_USB_Host_Library/Core/Src/usbh_ctlreq.c ****       phost->Control.length = length;
 1191              		.loc 1 555 27 is_stmt 0 view .LVU414
 1192 0010 8160     		str	r1, [r0, #8]
 556:Middlewares/ST/STM32_USB_Host_Library/Core/Src/usbh_ctlreq.c ****       phost->Control.state = CTRL_SETUP;
 1193              		.loc 1 556 7 is_stmt 1 view .LVU415
 556:Middlewares/ST/STM32_USB_Host_Library/Core/Src/usbh_ctlreq.c ****       phost->Control.state = CTRL_SETUP;
 1194              		.loc 1 556 29 is_stmt 0 view .LVU416
 1195 0012 8281     		strh	r2, [r0, #12]	@ movhi
 557:Middlewares/ST/STM32_USB_Host_Library/Core/Src/usbh_ctlreq.c ****       phost->RequestState = CMD_WAIT;
 1196              		.loc 1 557 7 is_stmt 1 view .LVU417
 557:Middlewares/ST/STM32_USB_Host_Library/Core/Src/usbh_ctlreq.c ****       phost->RequestState = CMD_WAIT;
 1197              		.loc 1 557 28 is_stmt 0 view .LVU418
 1198 0014 0123     		movs	r3, #1
 1199 0016 0376     		strb	r3, [r0, #24]
 558:Middlewares/ST/STM32_USB_Host_Library/Core/Src/usbh_ctlreq.c ****       status = USBH_BUSY;
 1200              		.loc 1 558 7 is_stmt 1 view .LVU419
 558:Middlewares/ST/STM32_USB_Host_Library/Core/Src/usbh_ctlreq.c ****       status = USBH_BUSY;
 1201              		.loc 1 558 27 is_stmt 0 view .LVU420
 1202 0018 0222     		movs	r2, #2
 1203              	.LVL124:
 558:Middlewares/ST/STM32_USB_Host_Library/Core/Src/usbh_ctlreq.c ****       status = USBH_BUSY;
 1204              		.loc 1 558 27 view .LVU421
 1205 001a 8270     		strb	r2, [r0, #2]
 559:Middlewares/ST/STM32_USB_Host_Library/Core/Src/usbh_ctlreq.c **** 
 1206              		.loc 1 559 7 is_stmt 1 view .LVU422
 569:Middlewares/ST/STM32_USB_Host_Library/Core/Src/usbh_ctlreq.c **** 
 1207              		.loc 1 569 7 view .LVU423
 1208 001c F6E7     		b	.L86
 1209              	.LVL125:
 1210              	.L81:
 547:Middlewares/ST/STM32_USB_Host_Library/Core/Src/usbh_ctlreq.c ****   USBH_StatusTypeDef status;
 1211              		.loc 1 547 1 is_stmt 0 view .LVU424
 1212 001e 10B5     		push	{r4, lr}
 1213              	.LCFI11:
 1214              		.cfi_def_cfa_offset 8
 1215              		.cfi_offset 4, -8
 1216              		.cfi_offset 14, -4
 1217 0020 0446     		mov	r4, r0
 572:Middlewares/ST/STM32_USB_Host_Library/Core/Src/usbh_ctlreq.c ****       if ((status == USBH_OK) || (status == USBH_NOT_SUPPORTED))
 1218              		.loc 1 572 7 is_stmt 1 view .LVU425
 572:Middlewares/ST/STM32_USB_Host_Library/Core/Src/usbh_ctlreq.c ****       if ((status == USBH_OK) || (status == USBH_NOT_SUPPORTED))
 1219              		.loc 1 572 16 is_stmt 0 view .LVU426
 1220 0022 FFF7FEFF 		bl	USBH_HandleControl
 1221              	.LVL126:
 573:Middlewares/ST/STM32_USB_Host_Library/Core/Src/usbh_ctlreq.c ****       {
 1222              		.loc 1 573 7 is_stmt 1 view .LVU427
 573:Middlewares/ST/STM32_USB_Host_Library/Core/Src/usbh_ctlreq.c ****       {
 1223              		.loc 1 573 10 is_stmt 0 view .LVU428
 1224 0026 0346     		mov	r3, r0
 1225 0028 30B1     		cbz	r0, .L83
 573:Middlewares/ST/STM32_USB_Host_Library/Core/Src/usbh_ctlreq.c ****       {
 1226              		.loc 1 573 31 discriminator 1 view .LVU429
ARM GAS  C:\Users\union\AppData\Local\Temp\ccc20eai.s 			page 45


 1227 002a 0328     		cmp	r0, #3
 1228 002c 04D0     		beq	.L83
 579:Middlewares/ST/STM32_USB_Host_Library/Core/Src/usbh_ctlreq.c ****       {
 1229              		.loc 1 579 12 is_stmt 1 view .LVU430
 579:Middlewares/ST/STM32_USB_Host_Library/Core/Src/usbh_ctlreq.c ****       {
 1230              		.loc 1 579 15 is_stmt 0 view .LVU431
 1231 002e 0228     		cmp	r0, #2
 1232 0030 06D1     		bne	.L82
 582:Middlewares/ST/STM32_USB_Host_Library/Core/Src/usbh_ctlreq.c ****       }
 1233              		.loc 1 582 9 is_stmt 1 view .LVU432
 582:Middlewares/ST/STM32_USB_Host_Library/Core/Src/usbh_ctlreq.c ****       }
 1234              		.loc 1 582 29 is_stmt 0 view .LVU433
 1235 0032 0122     		movs	r2, #1
 1236 0034 A270     		strb	r2, [r4, #2]
 1237 0036 03E0     		b	.L82
 1238              	.L83:
 576:Middlewares/ST/STM32_USB_Host_Library/Core/Src/usbh_ctlreq.c ****         phost->Control.state = CTRL_IDLE;
 1239              		.loc 1 576 9 is_stmt 1 view .LVU434
 576:Middlewares/ST/STM32_USB_Host_Library/Core/Src/usbh_ctlreq.c ****         phost->Control.state = CTRL_IDLE;
 1240              		.loc 1 576 29 is_stmt 0 view .LVU435
 1241 0038 0122     		movs	r2, #1
 1242 003a A270     		strb	r2, [r4, #2]
 577:Middlewares/ST/STM32_USB_Host_Library/Core/Src/usbh_ctlreq.c ****       }
 1243              		.loc 1 577 9 is_stmt 1 view .LVU436
 577:Middlewares/ST/STM32_USB_Host_Library/Core/Src/usbh_ctlreq.c ****       }
 1244              		.loc 1 577 30 is_stmt 0 view .LVU437
 1245 003c 0022     		movs	r2, #0
 1246 003e 2276     		strb	r2, [r4, #24]
 1247              	.L82:
 1248              	.LVL127:
 601:Middlewares/ST/STM32_USB_Host_Library/Core/Src/usbh_ctlreq.c **** }
 1249              		.loc 1 601 3 is_stmt 1 view .LVU438
 602:Middlewares/ST/STM32_USB_Host_Library/Core/Src/usbh_ctlreq.c **** 
 1250              		.loc 1 602 1 is_stmt 0 view .LVU439
 1251 0040 1846     		mov	r0, r3
 1252 0042 10BD     		pop	{r4, pc}
 602:Middlewares/ST/STM32_USB_Host_Library/Core/Src/usbh_ctlreq.c **** 
 1253              		.loc 1 602 1 view .LVU440
 1254              		.cfi_endproc
 1255              	.LFE150:
 1257              		.section	.text.USBH_GetDescriptor,"ax",%progbits
 1258              		.align	1
 1259              		.global	USBH_GetDescriptor
 1260              		.syntax unified
 1261              		.thumb
 1262              		.thumb_func
 1263              		.fpu fpv4-sp-d16
 1265              	USBH_GetDescriptor:
 1266              	.LVL128:
 1267              	.LFB138:
 193:Middlewares/ST/STM32_USB_Host_Library/Core/Src/usbh_ctlreq.c ****   if (phost->RequestState == CMD_SEND)
 1268              		.loc 1 193 1 is_stmt 1 view -0
 1269              		.cfi_startproc
 1270              		@ args = 4, pretend = 0, frame = 0
 1271              		@ frame_needed = 0, uses_anonymous_args = 0
 193:Middlewares/ST/STM32_USB_Host_Library/Core/Src/usbh_ctlreq.c ****   if (phost->RequestState == CMD_SEND)
 1272              		.loc 1 193 1 is_stmt 0 view .LVU442
ARM GAS  C:\Users\union\AppData\Local\Temp\ccc20eai.s 			page 46


 1273 0000 38B5     		push	{r3, r4, r5, lr}
 1274              	.LCFI12:
 1275              		.cfi_def_cfa_offset 16
 1276              		.cfi_offset 3, -16
 1277              		.cfi_offset 4, -12
 1278              		.cfi_offset 5, -8
 1279              		.cfi_offset 14, -4
 1280 0002 BDF81050 		ldrh	r5, [sp, #16]
 194:Middlewares/ST/STM32_USB_Host_Library/Core/Src/usbh_ctlreq.c ****   {
 1281              		.loc 1 194 3 is_stmt 1 view .LVU443
 194:Middlewares/ST/STM32_USB_Host_Library/Core/Src/usbh_ctlreq.c ****   {
 1282              		.loc 1 194 12 is_stmt 0 view .LVU444
 1283 0006 8478     		ldrb	r4, [r0, #2]	@ zero_extendqisi2
 194:Middlewares/ST/STM32_USB_Host_Library/Core/Src/usbh_ctlreq.c ****   {
 1284              		.loc 1 194 6 view .LVU445
 1285 0008 012C     		cmp	r4, #1
 1286 000a 04D0     		beq	.L93
 1287              	.LVL129:
 1288              	.L89:
 211:Middlewares/ST/STM32_USB_Host_Library/Core/Src/usbh_ctlreq.c **** }
 1289              		.loc 1 211 3 is_stmt 1 view .LVU446
 211:Middlewares/ST/STM32_USB_Host_Library/Core/Src/usbh_ctlreq.c **** }
 1290              		.loc 1 211 10 is_stmt 0 view .LVU447
 1291 000c 2A46     		mov	r2, r5
 1292 000e 1946     		mov	r1, r3
 1293 0010 FFF7FEFF 		bl	USBH_CtlReq
 1294              	.LVL130:
 212:Middlewares/ST/STM32_USB_Host_Library/Core/Src/usbh_ctlreq.c **** 
 1295              		.loc 1 212 1 view .LVU448
 1296 0014 38BD     		pop	{r3, r4, r5, pc}
 1297              	.LVL131:
 1298              	.L93:
 196:Middlewares/ST/STM32_USB_Host_Library/Core/Src/usbh_ctlreq.c ****     phost->Control.setup.b.bRequest = USB_REQ_GET_DESCRIPTOR;
 1299              		.loc 1 196 5 is_stmt 1 view .LVU449
 196:Middlewares/ST/STM32_USB_Host_Library/Core/Src/usbh_ctlreq.c ****     phost->Control.setup.b.bRequest = USB_REQ_GET_DESCRIPTOR;
 1300              		.loc 1 196 42 is_stmt 0 view .LVU450
 1301 0016 61F07F04 		orn	r4, r1, #127
 1302 001a 0474     		strb	r4, [r0, #16]
 197:Middlewares/ST/STM32_USB_Host_Library/Core/Src/usbh_ctlreq.c ****     phost->Control.setup.b.wValue.w = value_idx;
 1303              		.loc 1 197 5 is_stmt 1 view .LVU451
 197:Middlewares/ST/STM32_USB_Host_Library/Core/Src/usbh_ctlreq.c ****     phost->Control.setup.b.wValue.w = value_idx;
 1304              		.loc 1 197 37 is_stmt 0 view .LVU452
 1305 001c 0621     		movs	r1, #6
 1306              	.LVL132:
 197:Middlewares/ST/STM32_USB_Host_Library/Core/Src/usbh_ctlreq.c ****     phost->Control.setup.b.wValue.w = value_idx;
 1307              		.loc 1 197 37 view .LVU453
 1308 001e 4174     		strb	r1, [r0, #17]
 198:Middlewares/ST/STM32_USB_Host_Library/Core/Src/usbh_ctlreq.c **** 
 1309              		.loc 1 198 5 is_stmt 1 view .LVU454
 198:Middlewares/ST/STM32_USB_Host_Library/Core/Src/usbh_ctlreq.c **** 
 1310              		.loc 1 198 37 is_stmt 0 view .LVU455
 1311 0020 4282     		strh	r2, [r0, #18]	@ movhi
 200:Middlewares/ST/STM32_USB_Host_Library/Core/Src/usbh_ctlreq.c ****     {
 1312              		.loc 1 200 5 is_stmt 1 view .LVU456
 200:Middlewares/ST/STM32_USB_Host_Library/Core/Src/usbh_ctlreq.c ****     {
 1313              		.loc 1 200 8 is_stmt 0 view .LVU457
 1314 0022 02F47F44 		and	r4, r2, #65280
ARM GAS  C:\Users\union\AppData\Local\Temp\ccc20eai.s 			page 47


 1315 0026 B4F5407F 		cmp	r4, #768
 1316 002a 03D0     		beq	.L94
 206:Middlewares/ST/STM32_USB_Host_Library/Core/Src/usbh_ctlreq.c ****     }
 1317              		.loc 1 206 7 is_stmt 1 view .LVU458
 206:Middlewares/ST/STM32_USB_Host_Library/Core/Src/usbh_ctlreq.c ****     }
 1318              		.loc 1 206 39 is_stmt 0 view .LVU459
 1319 002c 0022     		movs	r2, #0
 1320              	.LVL133:
 206:Middlewares/ST/STM32_USB_Host_Library/Core/Src/usbh_ctlreq.c ****     }
 1321              		.loc 1 206 39 view .LVU460
 1322 002e 8282     		strh	r2, [r0, #20]	@ movhi
 1323              	.L91:
 208:Middlewares/ST/STM32_USB_Host_Library/Core/Src/usbh_ctlreq.c ****   }
 1324              		.loc 1 208 5 is_stmt 1 view .LVU461
 208:Middlewares/ST/STM32_USB_Host_Library/Core/Src/usbh_ctlreq.c ****   }
 1325              		.loc 1 208 38 is_stmt 0 view .LVU462
 1326 0030 C582     		strh	r5, [r0, #22]	@ movhi
 1327 0032 EBE7     		b	.L89
 1328              	.LVL134:
 1329              	.L94:
 202:Middlewares/ST/STM32_USB_Host_Library/Core/Src/usbh_ctlreq.c ****     }
 1330              		.loc 1 202 7 is_stmt 1 view .LVU463
 202:Middlewares/ST/STM32_USB_Host_Library/Core/Src/usbh_ctlreq.c ****     }
 1331              		.loc 1 202 39 is_stmt 0 view .LVU464
 1332 0034 40F20942 		movw	r2, #1033
 1333              	.LVL135:
 202:Middlewares/ST/STM32_USB_Host_Library/Core/Src/usbh_ctlreq.c ****     }
 1334              		.loc 1 202 39 view .LVU465
 1335 0038 8282     		strh	r2, [r0, #20]	@ movhi
 1336 003a F9E7     		b	.L91
 1337              		.cfi_endproc
 1338              	.LFE138:
 1340              		.section	.text.USBH_Get_DevDesc,"ax",%progbits
 1341              		.align	1
 1342              		.global	USBH_Get_DevDesc
 1343              		.syntax unified
 1344              		.thumb
 1345              		.thumb_func
 1346              		.fpu fpv4-sp-d16
 1348              	USBH_Get_DevDesc:
 1349              	.LVL136:
 1350              	.LFB135:
 104:Middlewares/ST/STM32_USB_Host_Library/Core/Src/usbh_ctlreq.c ****   USBH_StatusTypeDef status;
 1351              		.loc 1 104 1 is_stmt 1 view -0
 1352              		.cfi_startproc
 1353              		@ args = 0, pretend = 0, frame = 0
 1354              		@ frame_needed = 0, uses_anonymous_args = 0
 104:Middlewares/ST/STM32_USB_Host_Library/Core/Src/usbh_ctlreq.c ****   USBH_StatusTypeDef status;
 1355              		.loc 1 104 1 is_stmt 0 view .LVU467
 1356 0000 F0B5     		push	{r4, r5, r6, r7, lr}
 1357              	.LCFI13:
 1358              		.cfi_def_cfa_offset 20
 1359              		.cfi_offset 4, -20
 1360              		.cfi_offset 5, -16
 1361              		.cfi_offset 6, -12
 1362              		.cfi_offset 7, -8
 1363              		.cfi_offset 14, -4
ARM GAS  C:\Users\union\AppData\Local\Temp\ccc20eai.s 			page 48


 1364 0002 83B0     		sub	sp, sp, #12
 1365              	.LCFI14:
 1366              		.cfi_def_cfa_offset 32
 1367 0004 0446     		mov	r4, r0
 105:Middlewares/ST/STM32_USB_Host_Library/Core/Src/usbh_ctlreq.c **** 
 1368              		.loc 1 105 3 is_stmt 1 view .LVU468
 107:Middlewares/ST/STM32_USB_Host_Library/Core/Src/usbh_ctlreq.c ****                                    USB_REQ_RECIPIENT_DEVICE | USB_REQ_TYPE_STANDARD,
 1369              		.loc 1 107 3 view .LVU469
 109:Middlewares/ST/STM32_USB_Host_Library/Core/Src/usbh_ctlreq.c ****                                    (uint16_t)length)) == USBH_OK)
 1370              		.loc 1 109 66 is_stmt 0 view .LVU470
 1371 0006 00F58E75 		add	r5, r0, #284
 107:Middlewares/ST/STM32_USB_Host_Library/Core/Src/usbh_ctlreq.c ****                                    USB_REQ_RECIPIENT_DEVICE | USB_REQ_TYPE_STANDARD,
 1372              		.loc 1 107 17 view .LVU471
 1373 000a 0E46     		mov	r6, r1
 1374 000c 0091     		str	r1, [sp]
 1375 000e 2B46     		mov	r3, r5
 1376 0010 4FF48072 		mov	r2, #256
 1377 0014 0021     		movs	r1, #0
 1378              	.LVL137:
 107:Middlewares/ST/STM32_USB_Host_Library/Core/Src/usbh_ctlreq.c ****                                    USB_REQ_RECIPIENT_DEVICE | USB_REQ_TYPE_STANDARD,
 1379              		.loc 1 107 17 view .LVU472
 1380 0016 FFF7FEFF 		bl	USBH_GetDescriptor
 1381              	.LVL138:
 107:Middlewares/ST/STM32_USB_Host_Library/Core/Src/usbh_ctlreq.c ****                                    USB_REQ_RECIPIENT_DEVICE | USB_REQ_TYPE_STANDARD,
 1382              		.loc 1 107 6 view .LVU473
 1383 001a 0746     		mov	r7, r0
 1384 001c 10B1     		cbz	r0, .L98
 1385              	.LVL139:
 1386              	.L96:
 117:Middlewares/ST/STM32_USB_Host_Library/Core/Src/usbh_ctlreq.c **** }
 1387              		.loc 1 117 3 is_stmt 1 view .LVU474
 118:Middlewares/ST/STM32_USB_Host_Library/Core/Src/usbh_ctlreq.c **** 
 1388              		.loc 1 118 1 is_stmt 0 view .LVU475
 1389 001e 3846     		mov	r0, r7
 1390 0020 03B0     		add	sp, sp, #12
 1391              	.LCFI15:
 1392              		.cfi_remember_state
 1393              		.cfi_def_cfa_offset 20
 1394              		@ sp needed
 1395 0022 F0BD     		pop	{r4, r5, r6, r7, pc}
 1396              	.LVL140:
 1397              	.L98:
 1398              	.LCFI16:
 1399              		.cfi_restore_state
 113:Middlewares/ST/STM32_USB_Host_Library/Core/Src/usbh_ctlreq.c ****                       (uint16_t)length);
 1400              		.loc 1 113 5 is_stmt 1 view .LVU476
 1401 0024 3246     		mov	r2, r6
 1402 0026 2946     		mov	r1, r5
 1403 0028 04F22630 		addw	r0, r4, #806
 1404              	.LVL141:
 113:Middlewares/ST/STM32_USB_Host_Library/Core/Src/usbh_ctlreq.c ****                       (uint16_t)length);
 1405              		.loc 1 113 5 is_stmt 0 view .LVU477
 1406 002c FFF7FEFF 		bl	USBH_ParseDevDesc
 1407              	.LVL142:
 1408 0030 F5E7     		b	.L96
 1409              		.cfi_endproc
 1410              	.LFE135:
ARM GAS  C:\Users\union\AppData\Local\Temp\ccc20eai.s 			page 49


 1412              		.section	.text.USBH_Get_CfgDesc,"ax",%progbits
 1413              		.align	1
 1414              		.global	USBH_Get_CfgDesc
 1415              		.syntax unified
 1416              		.thumb
 1417              		.thumb_func
 1418              		.fpu fpv4-sp-d16
 1420              	USBH_Get_CfgDesc:
 1421              	.LVL143:
 1422              	.LFB136:
 133:Middlewares/ST/STM32_USB_Host_Library/Core/Src/usbh_ctlreq.c ****   USBH_StatusTypeDef status;
 1423              		.loc 1 133 1 is_stmt 1 view -0
 1424              		.cfi_startproc
 1425              		@ args = 0, pretend = 0, frame = 0
 1426              		@ frame_needed = 0, uses_anonymous_args = 0
 133:Middlewares/ST/STM32_USB_Host_Library/Core/Src/usbh_ctlreq.c ****   USBH_StatusTypeDef status;
 1427              		.loc 1 133 1 is_stmt 0 view .LVU479
 1428 0000 F0B5     		push	{r4, r5, r6, r7, lr}
 1429              	.LCFI17:
 1430              		.cfi_def_cfa_offset 20
 1431              		.cfi_offset 4, -20
 1432              		.cfi_offset 5, -16
 1433              		.cfi_offset 6, -12
 1434              		.cfi_offset 7, -8
 1435              		.cfi_offset 14, -4
 1436 0002 83B0     		sub	sp, sp, #12
 1437              	.LCFI18:
 1438              		.cfi_def_cfa_offset 32
 1439 0004 0446     		mov	r4, r0
 1440 0006 0E46     		mov	r6, r1
 134:Middlewares/ST/STM32_USB_Host_Library/Core/Src/usbh_ctlreq.c ****   uint8_t *pData = phost->device.CfgDesc_Raw;;
 1441              		.loc 1 134 3 is_stmt 1 view .LVU480
 135:Middlewares/ST/STM32_USB_Host_Library/Core/Src/usbh_ctlreq.c **** 
 1442              		.loc 1 135 3 view .LVU481
 135:Middlewares/ST/STM32_USB_Host_Library/Core/Src/usbh_ctlreq.c **** 
 1443              		.loc 1 135 12 is_stmt 0 view .LVU482
 1444 0008 00F11C05 		add	r5, r0, #28
 1445              	.LVL144:
 135:Middlewares/ST/STM32_USB_Host_Library/Core/Src/usbh_ctlreq.c **** 
 1446              		.loc 1 135 46 is_stmt 1 view .LVU483
 137:Middlewares/ST/STM32_USB_Host_Library/Core/Src/usbh_ctlreq.c ****                                    USB_DESC_CONFIGURATION, pData, length)) == USBH_OK)
 1447              		.loc 1 137 3 view .LVU484
 137:Middlewares/ST/STM32_USB_Host_Library/Core/Src/usbh_ctlreq.c ****                                    USB_DESC_CONFIGURATION, pData, length)) == USBH_OK)
 1448              		.loc 1 137 17 is_stmt 0 view .LVU485
 1449 000c 0091     		str	r1, [sp]
 1450 000e 2B46     		mov	r3, r5
 1451 0010 4FF40072 		mov	r2, #512
 1452 0014 0021     		movs	r1, #0
 1453              	.LVL145:
 137:Middlewares/ST/STM32_USB_Host_Library/Core/Src/usbh_ctlreq.c ****                                    USB_DESC_CONFIGURATION, pData, length)) == USBH_OK)
 1454              		.loc 1 137 17 view .LVU486
 1455 0016 FFF7FEFF 		bl	USBH_GetDescriptor
 1456              	.LVL146:
 137:Middlewares/ST/STM32_USB_Host_Library/Core/Src/usbh_ctlreq.c ****                                    USB_DESC_CONFIGURATION, pData, length)) == USBH_OK)
 1457              		.loc 1 137 6 view .LVU487
 1458 001a 0746     		mov	r7, r0
 1459 001c 10B1     		cbz	r0, .L102
ARM GAS  C:\Users\union\AppData\Local\Temp\ccc20eai.s 			page 50


 1460              	.LVL147:
 1461              	.L100:
 144:Middlewares/ST/STM32_USB_Host_Library/Core/Src/usbh_ctlreq.c **** }
 1462              		.loc 1 144 3 is_stmt 1 view .LVU488
 145:Middlewares/ST/STM32_USB_Host_Library/Core/Src/usbh_ctlreq.c **** 
 1463              		.loc 1 145 1 is_stmt 0 view .LVU489
 1464 001e 3846     		mov	r0, r7
 1465 0020 03B0     		add	sp, sp, #12
 1466              	.LCFI19:
 1467              		.cfi_remember_state
 1468              		.cfi_def_cfa_offset 20
 1469              		@ sp needed
 1470 0022 F0BD     		pop	{r4, r5, r6, r7, pc}
 1471              	.LVL148:
 1472              	.L102:
 1473              	.LCFI20:
 1474              		.cfi_restore_state
 141:Middlewares/ST/STM32_USB_Host_Library/Core/Src/usbh_ctlreq.c ****   }
 1475              		.loc 1 141 5 is_stmt 1 view .LVU490
 1476 0024 3246     		mov	r2, r6
 1477 0026 2946     		mov	r1, r5
 1478 0028 04F54E70 		add	r0, r4, #824
 1479              	.LVL149:
 141:Middlewares/ST/STM32_USB_Host_Library/Core/Src/usbh_ctlreq.c ****   }
 1480              		.loc 1 141 5 is_stmt 0 view .LVU491
 1481 002c FFF7FEFF 		bl	USBH_ParseCfgDesc
 1482              	.LVL150:
