ARM GAS  C:\Users\union\AppData\Local\Temp\cc5SXdj6.s 			page 1


   1              		.cpu cortex-m4
   2              		.eabi_attribute 27, 1
   3              		.eabi_attribute 28, 1
   4              		.eabi_attribute 20, 1
   5              		.eabi_attribute 21, 1
   6              		.eabi_attribute 23, 3
   7              		.eabi_attribute 24, 1
   8              		.eabi_attribute 25, 1
   9              		.eabi_attribute 26, 1
  10              		.eabi_attribute 30, 1
  11              		.eabi_attribute 34, 1
  12              		.eabi_attribute 18, 4
  13              		.file	"usbh_hid.c"
  14              		.text
  15              	.Ltext0:
  16              		.cfi_sections	.debug_frame
  17              		.section	.text.USBH_HID_SOFProcess,"ax",%progbits
  18              		.align	1
  19              		.arch armv7e-m
  20              		.syntax unified
  21              		.thumb
  22              		.thumb_func
  23              		.fpu fpv4-sp-d16
  25              	USBH_HID_SOFProcess:
  26              	.LVL0:
  27              	.LFB139:
  28              		.file 1 "Middlewares/ST/STM32_USB_Host_Library/Class/HID/Src/usbh_hid.c"
   1:Middlewares/ST/STM32_USB_Host_Library/Class/HID/Src/usbh_hid.c **** /**
   2:Middlewares/ST/STM32_USB_Host_Library/Class/HID/Src/usbh_hid.c ****   ******************************************************************************
   3:Middlewares/ST/STM32_USB_Host_Library/Class/HID/Src/usbh_hid.c ****   * @file    usbh_hid.c
   4:Middlewares/ST/STM32_USB_Host_Library/Class/HID/Src/usbh_hid.c ****   * @author  MCD Application Team
   5:Middlewares/ST/STM32_USB_Host_Library/Class/HID/Src/usbh_hid.c ****   * @brief   This file is the HID Layer Handlers for USB Host HID class.
   6:Middlewares/ST/STM32_USB_Host_Library/Class/HID/Src/usbh_hid.c ****   *
   7:Middlewares/ST/STM32_USB_Host_Library/Class/HID/Src/usbh_hid.c ****   * @verbatim
   8:Middlewares/ST/STM32_USB_Host_Library/Class/HID/Src/usbh_hid.c ****   *
   9:Middlewares/ST/STM32_USB_Host_Library/Class/HID/Src/usbh_hid.c ****   *          ===================================================================
  10:Middlewares/ST/STM32_USB_Host_Library/Class/HID/Src/usbh_hid.c ****   *                                HID Class  Description
  11:Middlewares/ST/STM32_USB_Host_Library/Class/HID/Src/usbh_hid.c ****   *          ===================================================================
  12:Middlewares/ST/STM32_USB_Host_Library/Class/HID/Src/usbh_hid.c ****   *           This module manages the HID class V1.11 following the "Device Class Definition
  13:Middlewares/ST/STM32_USB_Host_Library/Class/HID/Src/usbh_hid.c ****   *           for Human Interface Devices (HID) Version 1.11 Jun 27, 2001".
  14:Middlewares/ST/STM32_USB_Host_Library/Class/HID/Src/usbh_hid.c ****   *           This driver implements the following aspects of the specification:
  15:Middlewares/ST/STM32_USB_Host_Library/Class/HID/Src/usbh_hid.c ****   *             - The Boot Interface Subclass
  16:Middlewares/ST/STM32_USB_Host_Library/Class/HID/Src/usbh_hid.c ****   *             - The Mouse and Keyboard protocols
  17:Middlewares/ST/STM32_USB_Host_Library/Class/HID/Src/usbh_hid.c ****   *
  18:Middlewares/ST/STM32_USB_Host_Library/Class/HID/Src/usbh_hid.c ****   *  @endverbatim
  19:Middlewares/ST/STM32_USB_Host_Library/Class/HID/Src/usbh_hid.c ****   *
  20:Middlewares/ST/STM32_USB_Host_Library/Class/HID/Src/usbh_hid.c ****   ******************************************************************************
  21:Middlewares/ST/STM32_USB_Host_Library/Class/HID/Src/usbh_hid.c ****   * @attention
  22:Middlewares/ST/STM32_USB_Host_Library/Class/HID/Src/usbh_hid.c ****   *
  23:Middlewares/ST/STM32_USB_Host_Library/Class/HID/Src/usbh_hid.c ****   * <h2><center>&copy; Copyright (c) 2015 STMicroelectronics.
  24:Middlewares/ST/STM32_USB_Host_Library/Class/HID/Src/usbh_hid.c ****   * All rights reserved.</center></h2>
  25:Middlewares/ST/STM32_USB_Host_Library/Class/HID/Src/usbh_hid.c ****   *
  26:Middlewares/ST/STM32_USB_Host_Library/Class/HID/Src/usbh_hid.c ****   * This software component is licensed by ST under Ultimate Liberty license
  27:Middlewares/ST/STM32_USB_Host_Library/Class/HID/Src/usbh_hid.c ****   * SLA0044, the "License"; You may not use this file except in compliance with
  28:Middlewares/ST/STM32_USB_Host_Library/Class/HID/Src/usbh_hid.c ****   * the License. You may obtain a copy of the License at:
  29:Middlewares/ST/STM32_USB_Host_Library/Class/HID/Src/usbh_hid.c ****   *                      www.st.com/SLA0044
  30:Middlewares/ST/STM32_USB_Host_Library/Class/HID/Src/usbh_hid.c ****   *
ARM GAS  C:\Users\union\AppData\Local\Temp\cc5SXdj6.s 			page 2


  31:Middlewares/ST/STM32_USB_Host_Library/Class/HID/Src/usbh_hid.c ****   ******************************************************************************
  32:Middlewares/ST/STM32_USB_Host_Library/Class/HID/Src/usbh_hid.c ****   */
  33:Middlewares/ST/STM32_USB_Host_Library/Class/HID/Src/usbh_hid.c **** 
  34:Middlewares/ST/STM32_USB_Host_Library/Class/HID/Src/usbh_hid.c **** /* BSPDependencies
  35:Middlewares/ST/STM32_USB_Host_Library/Class/HID/Src/usbh_hid.c **** - "stm32xxxxx_{eval}{discovery}{nucleo_144}.c"
  36:Middlewares/ST/STM32_USB_Host_Library/Class/HID/Src/usbh_hid.c **** - "stm32xxxxx_{eval}{discovery}_io.c"
  37:Middlewares/ST/STM32_USB_Host_Library/Class/HID/Src/usbh_hid.c **** - "stm32xxxxx_{eval}{discovery}{adafruit}_lcd.c"
  38:Middlewares/ST/STM32_USB_Host_Library/Class/HID/Src/usbh_hid.c **** - "stm32xxxxx_{eval}{discovery}_sdram.c"
  39:Middlewares/ST/STM32_USB_Host_Library/Class/HID/Src/usbh_hid.c **** EndBSPDependencies */
  40:Middlewares/ST/STM32_USB_Host_Library/Class/HID/Src/usbh_hid.c **** 
  41:Middlewares/ST/STM32_USB_Host_Library/Class/HID/Src/usbh_hid.c **** /* Includes ------------------------------------------------------------------*/
  42:Middlewares/ST/STM32_USB_Host_Library/Class/HID/Src/usbh_hid.c **** #include "usbh_hid.h"
  43:Middlewares/ST/STM32_USB_Host_Library/Class/HID/Src/usbh_hid.c **** #include "usbh_hid_parser.h"
  44:Middlewares/ST/STM32_USB_Host_Library/Class/HID/Src/usbh_hid.c **** 
  45:Middlewares/ST/STM32_USB_Host_Library/Class/HID/Src/usbh_hid.c **** 
  46:Middlewares/ST/STM32_USB_Host_Library/Class/HID/Src/usbh_hid.c **** /** @addtogroup USBH_LIB
  47:Middlewares/ST/STM32_USB_Host_Library/Class/HID/Src/usbh_hid.c **** * @{
  48:Middlewares/ST/STM32_USB_Host_Library/Class/HID/Src/usbh_hid.c **** */
  49:Middlewares/ST/STM32_USB_Host_Library/Class/HID/Src/usbh_hid.c **** 
  50:Middlewares/ST/STM32_USB_Host_Library/Class/HID/Src/usbh_hid.c **** /** @addtogroup USBH_CLASS
  51:Middlewares/ST/STM32_USB_Host_Library/Class/HID/Src/usbh_hid.c **** * @{
  52:Middlewares/ST/STM32_USB_Host_Library/Class/HID/Src/usbh_hid.c **** */
  53:Middlewares/ST/STM32_USB_Host_Library/Class/HID/Src/usbh_hid.c **** 
  54:Middlewares/ST/STM32_USB_Host_Library/Class/HID/Src/usbh_hid.c **** /** @addtogroup USBH_HID_CLASS
  55:Middlewares/ST/STM32_USB_Host_Library/Class/HID/Src/usbh_hid.c **** * @{
  56:Middlewares/ST/STM32_USB_Host_Library/Class/HID/Src/usbh_hid.c **** */
  57:Middlewares/ST/STM32_USB_Host_Library/Class/HID/Src/usbh_hid.c **** 
  58:Middlewares/ST/STM32_USB_Host_Library/Class/HID/Src/usbh_hid.c **** /** @defgroup USBH_HID_CORE
  59:Middlewares/ST/STM32_USB_Host_Library/Class/HID/Src/usbh_hid.c **** * @brief    This file includes HID Layer Handlers for USB Host HID class.
  60:Middlewares/ST/STM32_USB_Host_Library/Class/HID/Src/usbh_hid.c **** * @{
  61:Middlewares/ST/STM32_USB_Host_Library/Class/HID/Src/usbh_hid.c **** */
  62:Middlewares/ST/STM32_USB_Host_Library/Class/HID/Src/usbh_hid.c **** 
  63:Middlewares/ST/STM32_USB_Host_Library/Class/HID/Src/usbh_hid.c **** /** @defgroup USBH_HID_CORE_Private_TypesDefinitions
  64:Middlewares/ST/STM32_USB_Host_Library/Class/HID/Src/usbh_hid.c **** * @{
  65:Middlewares/ST/STM32_USB_Host_Library/Class/HID/Src/usbh_hid.c **** */
  66:Middlewares/ST/STM32_USB_Host_Library/Class/HID/Src/usbh_hid.c **** /**
  67:Middlewares/ST/STM32_USB_Host_Library/Class/HID/Src/usbh_hid.c **** * @}
  68:Middlewares/ST/STM32_USB_Host_Library/Class/HID/Src/usbh_hid.c **** */
  69:Middlewares/ST/STM32_USB_Host_Library/Class/HID/Src/usbh_hid.c **** 
  70:Middlewares/ST/STM32_USB_Host_Library/Class/HID/Src/usbh_hid.c **** 
  71:Middlewares/ST/STM32_USB_Host_Library/Class/HID/Src/usbh_hid.c **** /** @defgroup USBH_HID_CORE_Private_Defines
  72:Middlewares/ST/STM32_USB_Host_Library/Class/HID/Src/usbh_hid.c **** * @{
  73:Middlewares/ST/STM32_USB_Host_Library/Class/HID/Src/usbh_hid.c **** */
  74:Middlewares/ST/STM32_USB_Host_Library/Class/HID/Src/usbh_hid.c **** /**
  75:Middlewares/ST/STM32_USB_Host_Library/Class/HID/Src/usbh_hid.c **** * @}
  76:Middlewares/ST/STM32_USB_Host_Library/Class/HID/Src/usbh_hid.c **** */
  77:Middlewares/ST/STM32_USB_Host_Library/Class/HID/Src/usbh_hid.c **** 
  78:Middlewares/ST/STM32_USB_Host_Library/Class/HID/Src/usbh_hid.c **** 
  79:Middlewares/ST/STM32_USB_Host_Library/Class/HID/Src/usbh_hid.c **** /** @defgroup USBH_HID_CORE_Private_Macros
  80:Middlewares/ST/STM32_USB_Host_Library/Class/HID/Src/usbh_hid.c **** * @{
  81:Middlewares/ST/STM32_USB_Host_Library/Class/HID/Src/usbh_hid.c **** */
  82:Middlewares/ST/STM32_USB_Host_Library/Class/HID/Src/usbh_hid.c **** /**
  83:Middlewares/ST/STM32_USB_Host_Library/Class/HID/Src/usbh_hid.c **** * @}
  84:Middlewares/ST/STM32_USB_Host_Library/Class/HID/Src/usbh_hid.c **** */
  85:Middlewares/ST/STM32_USB_Host_Library/Class/HID/Src/usbh_hid.c **** 
  86:Middlewares/ST/STM32_USB_Host_Library/Class/HID/Src/usbh_hid.c **** 
  87:Middlewares/ST/STM32_USB_Host_Library/Class/HID/Src/usbh_hid.c **** /** @defgroup USBH_HID_CORE_Private_Variables
ARM GAS  C:\Users\union\AppData\Local\Temp\cc5SXdj6.s 			page 3


  88:Middlewares/ST/STM32_USB_Host_Library/Class/HID/Src/usbh_hid.c **** * @{
  89:Middlewares/ST/STM32_USB_Host_Library/Class/HID/Src/usbh_hid.c **** */
  90:Middlewares/ST/STM32_USB_Host_Library/Class/HID/Src/usbh_hid.c **** 
  91:Middlewares/ST/STM32_USB_Host_Library/Class/HID/Src/usbh_hid.c **** /**
  92:Middlewares/ST/STM32_USB_Host_Library/Class/HID/Src/usbh_hid.c **** * @}
  93:Middlewares/ST/STM32_USB_Host_Library/Class/HID/Src/usbh_hid.c **** */
  94:Middlewares/ST/STM32_USB_Host_Library/Class/HID/Src/usbh_hid.c **** 
  95:Middlewares/ST/STM32_USB_Host_Library/Class/HID/Src/usbh_hid.c **** 
  96:Middlewares/ST/STM32_USB_Host_Library/Class/HID/Src/usbh_hid.c **** /** @defgroup USBH_HID_CORE_Private_FunctionPrototypes
  97:Middlewares/ST/STM32_USB_Host_Library/Class/HID/Src/usbh_hid.c **** * @{
  98:Middlewares/ST/STM32_USB_Host_Library/Class/HID/Src/usbh_hid.c **** */
  99:Middlewares/ST/STM32_USB_Host_Library/Class/HID/Src/usbh_hid.c **** 
 100:Middlewares/ST/STM32_USB_Host_Library/Class/HID/Src/usbh_hid.c **** static USBH_StatusTypeDef USBH_HID_InterfaceInit(USBH_HandleTypeDef *phost);
 101:Middlewares/ST/STM32_USB_Host_Library/Class/HID/Src/usbh_hid.c **** static USBH_StatusTypeDef USBH_HID_InterfaceDeInit(USBH_HandleTypeDef *phost);
 102:Middlewares/ST/STM32_USB_Host_Library/Class/HID/Src/usbh_hid.c **** static USBH_StatusTypeDef USBH_HID_ClassRequest(USBH_HandleTypeDef *phost);
 103:Middlewares/ST/STM32_USB_Host_Library/Class/HID/Src/usbh_hid.c **** static USBH_StatusTypeDef USBH_HID_Process(USBH_HandleTypeDef *phost);
 104:Middlewares/ST/STM32_USB_Host_Library/Class/HID/Src/usbh_hid.c **** static USBH_StatusTypeDef USBH_HID_SOFProcess(USBH_HandleTypeDef *phost);
 105:Middlewares/ST/STM32_USB_Host_Library/Class/HID/Src/usbh_hid.c **** static void  USBH_HID_ParseHIDDesc(HID_DescTypeDef *desc, uint8_t *buf);
 106:Middlewares/ST/STM32_USB_Host_Library/Class/HID/Src/usbh_hid.c **** 
 107:Middlewares/ST/STM32_USB_Host_Library/Class/HID/Src/usbh_hid.c **** extern USBH_StatusTypeDef USBH_HID_MouseInit(USBH_HandleTypeDef *phost);
 108:Middlewares/ST/STM32_USB_Host_Library/Class/HID/Src/usbh_hid.c **** extern USBH_StatusTypeDef USBH_HID_KeybdInit(USBH_HandleTypeDef *phost);
 109:Middlewares/ST/STM32_USB_Host_Library/Class/HID/Src/usbh_hid.c **** 
 110:Middlewares/ST/STM32_USB_Host_Library/Class/HID/Src/usbh_hid.c **** USBH_ClassTypeDef  HID_Class =
 111:Middlewares/ST/STM32_USB_Host_Library/Class/HID/Src/usbh_hid.c **** {
 112:Middlewares/ST/STM32_USB_Host_Library/Class/HID/Src/usbh_hid.c ****   "HID",
 113:Middlewares/ST/STM32_USB_Host_Library/Class/HID/Src/usbh_hid.c ****   USB_HID_CLASS,
 114:Middlewares/ST/STM32_USB_Host_Library/Class/HID/Src/usbh_hid.c ****   USBH_HID_InterfaceInit,
 115:Middlewares/ST/STM32_USB_Host_Library/Class/HID/Src/usbh_hid.c ****   USBH_HID_InterfaceDeInit,
 116:Middlewares/ST/STM32_USB_Host_Library/Class/HID/Src/usbh_hid.c ****   USBH_HID_ClassRequest,
 117:Middlewares/ST/STM32_USB_Host_Library/Class/HID/Src/usbh_hid.c ****   USBH_HID_Process,
 118:Middlewares/ST/STM32_USB_Host_Library/Class/HID/Src/usbh_hid.c ****   USBH_HID_SOFProcess,
 119:Middlewares/ST/STM32_USB_Host_Library/Class/HID/Src/usbh_hid.c ****   NULL,
 120:Middlewares/ST/STM32_USB_Host_Library/Class/HID/Src/usbh_hid.c **** };
 121:Middlewares/ST/STM32_USB_Host_Library/Class/HID/Src/usbh_hid.c **** /**
 122:Middlewares/ST/STM32_USB_Host_Library/Class/HID/Src/usbh_hid.c **** * @}
 123:Middlewares/ST/STM32_USB_Host_Library/Class/HID/Src/usbh_hid.c **** */
 124:Middlewares/ST/STM32_USB_Host_Library/Class/HID/Src/usbh_hid.c **** 
 125:Middlewares/ST/STM32_USB_Host_Library/Class/HID/Src/usbh_hid.c **** 
 126:Middlewares/ST/STM32_USB_Host_Library/Class/HID/Src/usbh_hid.c **** /** @defgroup USBH_HID_CORE_Private_Functions
 127:Middlewares/ST/STM32_USB_Host_Library/Class/HID/Src/usbh_hid.c **** * @{
 128:Middlewares/ST/STM32_USB_Host_Library/Class/HID/Src/usbh_hid.c **** */
 129:Middlewares/ST/STM32_USB_Host_Library/Class/HID/Src/usbh_hid.c **** 
 130:Middlewares/ST/STM32_USB_Host_Library/Class/HID/Src/usbh_hid.c **** 
 131:Middlewares/ST/STM32_USB_Host_Library/Class/HID/Src/usbh_hid.c **** /**
 132:Middlewares/ST/STM32_USB_Host_Library/Class/HID/Src/usbh_hid.c ****   * @brief  USBH_HID_InterfaceInit
 133:Middlewares/ST/STM32_USB_Host_Library/Class/HID/Src/usbh_hid.c ****   *         The function init the HID class.
 134:Middlewares/ST/STM32_USB_Host_Library/Class/HID/Src/usbh_hid.c ****   * @param  phost: Host handle
 135:Middlewares/ST/STM32_USB_Host_Library/Class/HID/Src/usbh_hid.c ****   * @retval USBH Status
 136:Middlewares/ST/STM32_USB_Host_Library/Class/HID/Src/usbh_hid.c ****   */
 137:Middlewares/ST/STM32_USB_Host_Library/Class/HID/Src/usbh_hid.c **** static USBH_StatusTypeDef USBH_HID_InterfaceInit(USBH_HandleTypeDef *phost)
 138:Middlewares/ST/STM32_USB_Host_Library/Class/HID/Src/usbh_hid.c **** {
 139:Middlewares/ST/STM32_USB_Host_Library/Class/HID/Src/usbh_hid.c ****   USBH_StatusTypeDef status;
 140:Middlewares/ST/STM32_USB_Host_Library/Class/HID/Src/usbh_hid.c ****   HID_HandleTypeDef *HID_Handle;
 141:Middlewares/ST/STM32_USB_Host_Library/Class/HID/Src/usbh_hid.c ****   uint8_t max_ep;
 142:Middlewares/ST/STM32_USB_Host_Library/Class/HID/Src/usbh_hid.c ****   uint8_t num = 0U;
 143:Middlewares/ST/STM32_USB_Host_Library/Class/HID/Src/usbh_hid.c ****   uint8_t interface;
 144:Middlewares/ST/STM32_USB_Host_Library/Class/HID/Src/usbh_hid.c **** 
ARM GAS  C:\Users\union\AppData\Local\Temp\cc5SXdj6.s 			page 4


 145:Middlewares/ST/STM32_USB_Host_Library/Class/HID/Src/usbh_hid.c ****   USBH_DbgLog("USBH_HID_InterfaceInit\n");
 146:Middlewares/ST/STM32_USB_Host_Library/Class/HID/Src/usbh_hid.c ****     interface = USBH_FindInterface(phost, 
 147:Middlewares/ST/STM32_USB_Host_Library/Class/HID/Src/usbh_hid.c ****           phost->pActiveClass->ClassCode, HID_BOOT_CODE, 0xFFU);
 148:Middlewares/ST/STM32_USB_Host_Library/Class/HID/Src/usbh_hid.c ****   
 149:Middlewares/ST/STM32_USB_Host_Library/Class/HID/Src/usbh_hid.c ****   if ((interface == 0xFFU) || (interface >= USBH_MAX_NUM_INTERFACES)) /* No Valid Interface */
 150:Middlewares/ST/STM32_USB_Host_Library/Class/HID/Src/usbh_hid.c ****   {
 151:Middlewares/ST/STM32_USB_Host_Library/Class/HID/Src/usbh_hid.c ****     interface = USBH_FindInterface(phost, 
 152:Middlewares/ST/STM32_USB_Host_Library/Class/HID/Src/usbh_hid.c ****           phost->pActiveClass->ClassCode, HID_GAMEPAD_BOOT_CODE, 0xFFU);
 153:Middlewares/ST/STM32_USB_Host_Library/Class/HID/Src/usbh_hid.c ****     if ((interface == 0xFFU) || (interface >= USBH_MAX_NUM_INTERFACES)) /* No Valid Interface */
 154:Middlewares/ST/STM32_USB_Host_Library/Class/HID/Src/usbh_hid.c ****     {
 155:Middlewares/ST/STM32_USB_Host_Library/Class/HID/Src/usbh_hid.c ****       USBH_DbgLog("Cannot Find the interface for %s class.", phost->pActiveClass->Name);
 156:Middlewares/ST/STM32_USB_Host_Library/Class/HID/Src/usbh_hid.c ****       return USBH_FAIL;
 157:Middlewares/ST/STM32_USB_Host_Library/Class/HID/Src/usbh_hid.c ****     }
 158:Middlewares/ST/STM32_USB_Host_Library/Class/HID/Src/usbh_hid.c ****   }
 159:Middlewares/ST/STM32_USB_Host_Library/Class/HID/Src/usbh_hid.c **** 
 160:Middlewares/ST/STM32_USB_Host_Library/Class/HID/Src/usbh_hid.c ****   status = USBH_SelectInterface(phost, interface);
 161:Middlewares/ST/STM32_USB_Host_Library/Class/HID/Src/usbh_hid.c **** 
 162:Middlewares/ST/STM32_USB_Host_Library/Class/HID/Src/usbh_hid.c ****   if (status != USBH_OK)
 163:Middlewares/ST/STM32_USB_Host_Library/Class/HID/Src/usbh_hid.c ****   {
 164:Middlewares/ST/STM32_USB_Host_Library/Class/HID/Src/usbh_hid.c ****     return USBH_FAIL;
 165:Middlewares/ST/STM32_USB_Host_Library/Class/HID/Src/usbh_hid.c ****   }
 166:Middlewares/ST/STM32_USB_Host_Library/Class/HID/Src/usbh_hid.c **** 
 167:Middlewares/ST/STM32_USB_Host_Library/Class/HID/Src/usbh_hid.c ****   phost->pActiveClass->pData = (HID_HandleTypeDef *)USBH_malloc(sizeof(HID_HandleTypeDef));
 168:Middlewares/ST/STM32_USB_Host_Library/Class/HID/Src/usbh_hid.c ****   HID_Handle = (HID_HandleTypeDef *) phost->pActiveClass->pData;
 169:Middlewares/ST/STM32_USB_Host_Library/Class/HID/Src/usbh_hid.c **** 
 170:Middlewares/ST/STM32_USB_Host_Library/Class/HID/Src/usbh_hid.c ****   if (HID_Handle == NULL)
 171:Middlewares/ST/STM32_USB_Host_Library/Class/HID/Src/usbh_hid.c ****   {
 172:Middlewares/ST/STM32_USB_Host_Library/Class/HID/Src/usbh_hid.c ****     USBH_DbgLog("Cannot allocate memory for HID Handle");
 173:Middlewares/ST/STM32_USB_Host_Library/Class/HID/Src/usbh_hid.c ****     return USBH_FAIL;
 174:Middlewares/ST/STM32_USB_Host_Library/Class/HID/Src/usbh_hid.c ****   }
 175:Middlewares/ST/STM32_USB_Host_Library/Class/HID/Src/usbh_hid.c **** 
 176:Middlewares/ST/STM32_USB_Host_Library/Class/HID/Src/usbh_hid.c ****   /* Initialize hid handler */
 177:Middlewares/ST/STM32_USB_Host_Library/Class/HID/Src/usbh_hid.c ****   USBH_memset(HID_Handle, 0, sizeof(HID_HandleTypeDef));
 178:Middlewares/ST/STM32_USB_Host_Library/Class/HID/Src/usbh_hid.c **** 
 179:Middlewares/ST/STM32_USB_Host_Library/Class/HID/Src/usbh_hid.c ****   HID_Handle->state = HID_ERROR;
 180:Middlewares/ST/STM32_USB_Host_Library/Class/HID/Src/usbh_hid.c **** 
 181:Middlewares/ST/STM32_USB_Host_Library/Class/HID/Src/usbh_hid.c ****   /*Decode Bootclass Protocol: Mouse or Keyboard*/
 182:Middlewares/ST/STM32_USB_Host_Library/Class/HID/Src/usbh_hid.c ****   if (phost->device.CfgDesc.Itf_Desc[interface].bInterfaceProtocol == HID_KEYBRD_BOOT_CODE)
 183:Middlewares/ST/STM32_USB_Host_Library/Class/HID/Src/usbh_hid.c ****   {
 184:Middlewares/ST/STM32_USB_Host_Library/Class/HID/Src/usbh_hid.c ****     USBH_UsrLog("KeyBoard device found!");
 185:Middlewares/ST/STM32_USB_Host_Library/Class/HID/Src/usbh_hid.c ****     HID_Handle->Init = USBH_HID_KeybdInit;
 186:Middlewares/ST/STM32_USB_Host_Library/Class/HID/Src/usbh_hid.c ****   }
 187:Middlewares/ST/STM32_USB_Host_Library/Class/HID/Src/usbh_hid.c ****   else if (phost->device.CfgDesc.Itf_Desc[interface].bInterfaceProtocol  == HID_MOUSE_BOOT_CODE)
 188:Middlewares/ST/STM32_USB_Host_Library/Class/HID/Src/usbh_hid.c ****   {
 189:Middlewares/ST/STM32_USB_Host_Library/Class/HID/Src/usbh_hid.c ****     USBH_UsrLog("Mouse device found!");
 190:Middlewares/ST/STM32_USB_Host_Library/Class/HID/Src/usbh_hid.c ****     HID_Handle->Init = USBH_HID_MouseInit;
 191:Middlewares/ST/STM32_USB_Host_Library/Class/HID/Src/usbh_hid.c ****   }
 192:Middlewares/ST/STM32_USB_Host_Library/Class/HID/Src/usbh_hid.c ****   else if (phost->device.CfgDesc.Itf_Desc[interface].bInterfaceProtocol  == HID_GAMEPAD_BOOT_CODE)
 193:Middlewares/ST/STM32_USB_Host_Library/Class/HID/Src/usbh_hid.c ****   {
 194:Middlewares/ST/STM32_USB_Host_Library/Class/HID/Src/usbh_hid.c ****     USBH_UsrLog("Joystick device found!");
 195:Middlewares/ST/STM32_USB_Host_Library/Class/HID/Src/usbh_hid.c ****     HID_Handle->Init = USBH_HID_KeybdInit;
 196:Middlewares/ST/STM32_USB_Host_Library/Class/HID/Src/usbh_hid.c ****   }
 197:Middlewares/ST/STM32_USB_Host_Library/Class/HID/Src/usbh_hid.c ****   else
 198:Middlewares/ST/STM32_USB_Host_Library/Class/HID/Src/usbh_hid.c ****   {
 199:Middlewares/ST/STM32_USB_Host_Library/Class/HID/Src/usbh_hid.c ****     USBH_UsrLog("Protocol not supported.");
 200:Middlewares/ST/STM32_USB_Host_Library/Class/HID/Src/usbh_hid.c ****     return USBH_FAIL;
 201:Middlewares/ST/STM32_USB_Host_Library/Class/HID/Src/usbh_hid.c ****   }
ARM GAS  C:\Users\union\AppData\Local\Temp\cc5SXdj6.s 			page 5


 202:Middlewares/ST/STM32_USB_Host_Library/Class/HID/Src/usbh_hid.c **** 
 203:Middlewares/ST/STM32_USB_Host_Library/Class/HID/Src/usbh_hid.c ****   HID_Handle->state     = HID_INIT;
 204:Middlewares/ST/STM32_USB_Host_Library/Class/HID/Src/usbh_hid.c ****   HID_Handle->ctl_state = HID_REQ_INIT;
 205:Middlewares/ST/STM32_USB_Host_Library/Class/HID/Src/usbh_hid.c ****   HID_Handle->ep_addr   = phost->device.CfgDesc.Itf_Desc[interface].Ep_Desc[0].bEndpointAddress;
 206:Middlewares/ST/STM32_USB_Host_Library/Class/HID/Src/usbh_hid.c ****   HID_Handle->length    = phost->device.CfgDesc.Itf_Desc[interface].Ep_Desc[0].wMaxPacketSize;
 207:Middlewares/ST/STM32_USB_Host_Library/Class/HID/Src/usbh_hid.c ****   HID_Handle->poll      = phost->device.CfgDesc.Itf_Desc[interface].Ep_Desc[0].bInterval;
 208:Middlewares/ST/STM32_USB_Host_Library/Class/HID/Src/usbh_hid.c **** 
 209:Middlewares/ST/STM32_USB_Host_Library/Class/HID/Src/usbh_hid.c ****   if (HID_Handle->poll  < HID_MIN_POLL)
 210:Middlewares/ST/STM32_USB_Host_Library/Class/HID/Src/usbh_hid.c ****   {
 211:Middlewares/ST/STM32_USB_Host_Library/Class/HID/Src/usbh_hid.c ****     HID_Handle->poll = HID_MIN_POLL;
 212:Middlewares/ST/STM32_USB_Host_Library/Class/HID/Src/usbh_hid.c ****   }
 213:Middlewares/ST/STM32_USB_Host_Library/Class/HID/Src/usbh_hid.c **** 
 214:Middlewares/ST/STM32_USB_Host_Library/Class/HID/Src/usbh_hid.c ****   /* Check fo available number of endpoints */
 215:Middlewares/ST/STM32_USB_Host_Library/Class/HID/Src/usbh_hid.c ****   /* Find the number of EPs in the Interface Descriptor */
 216:Middlewares/ST/STM32_USB_Host_Library/Class/HID/Src/usbh_hid.c ****   /* Choose the lower number in order not to overrun the buffer allocated */
 217:Middlewares/ST/STM32_USB_Host_Library/Class/HID/Src/usbh_hid.c ****   max_ep = ((phost->device.CfgDesc.Itf_Desc[interface].bNumEndpoints <= USBH_MAX_NUM_ENDPOINTS) ?
 218:Middlewares/ST/STM32_USB_Host_Library/Class/HID/Src/usbh_hid.c ****              phost->device.CfgDesc.Itf_Desc[interface].bNumEndpoints : USBH_MAX_NUM_ENDPOINTS);
 219:Middlewares/ST/STM32_USB_Host_Library/Class/HID/Src/usbh_hid.c **** 
 220:Middlewares/ST/STM32_USB_Host_Library/Class/HID/Src/usbh_hid.c **** 
 221:Middlewares/ST/STM32_USB_Host_Library/Class/HID/Src/usbh_hid.c ****   /* Decode endpoint IN and OUT address from interface descriptor */
 222:Middlewares/ST/STM32_USB_Host_Library/Class/HID/Src/usbh_hid.c ****   for (num = 0U; num < max_ep; num++)
 223:Middlewares/ST/STM32_USB_Host_Library/Class/HID/Src/usbh_hid.c ****   {
 224:Middlewares/ST/STM32_USB_Host_Library/Class/HID/Src/usbh_hid.c ****     if (phost->device.CfgDesc.Itf_Desc[interface].Ep_Desc[num].bEndpointAddress & 0x80U)
 225:Middlewares/ST/STM32_USB_Host_Library/Class/HID/Src/usbh_hid.c ****     {
 226:Middlewares/ST/STM32_USB_Host_Library/Class/HID/Src/usbh_hid.c ****       HID_Handle->InEp = (phost->device.CfgDesc.Itf_Desc[interface].Ep_Desc[num].bEndpointAddress);
 227:Middlewares/ST/STM32_USB_Host_Library/Class/HID/Src/usbh_hid.c ****       HID_Handle->InPipe = USBH_AllocPipe(phost, HID_Handle->InEp);
 228:Middlewares/ST/STM32_USB_Host_Library/Class/HID/Src/usbh_hid.c **** 
 229:Middlewares/ST/STM32_USB_Host_Library/Class/HID/Src/usbh_hid.c ****       /* Open pipe for IN endpoint */
 230:Middlewares/ST/STM32_USB_Host_Library/Class/HID/Src/usbh_hid.c ****       USBH_OpenPipe(phost, HID_Handle->InPipe, HID_Handle->InEp, phost->device.address,
 231:Middlewares/ST/STM32_USB_Host_Library/Class/HID/Src/usbh_hid.c ****                     phost->device.speed, USB_EP_TYPE_INTR, HID_Handle->length);
 232:Middlewares/ST/STM32_USB_Host_Library/Class/HID/Src/usbh_hid.c **** 
 233:Middlewares/ST/STM32_USB_Host_Library/Class/HID/Src/usbh_hid.c ****       USBH_LL_SetToggle(phost, HID_Handle->InPipe, 0U);
 234:Middlewares/ST/STM32_USB_Host_Library/Class/HID/Src/usbh_hid.c ****     }
 235:Middlewares/ST/STM32_USB_Host_Library/Class/HID/Src/usbh_hid.c ****     else
 236:Middlewares/ST/STM32_USB_Host_Library/Class/HID/Src/usbh_hid.c ****     {
 237:Middlewares/ST/STM32_USB_Host_Library/Class/HID/Src/usbh_hid.c ****       HID_Handle->OutEp = (phost->device.CfgDesc.Itf_Desc[interface].Ep_Desc[num].bEndpointAddress)
 238:Middlewares/ST/STM32_USB_Host_Library/Class/HID/Src/usbh_hid.c ****       HID_Handle->OutPipe  = USBH_AllocPipe(phost, HID_Handle->OutEp);
 239:Middlewares/ST/STM32_USB_Host_Library/Class/HID/Src/usbh_hid.c **** 
 240:Middlewares/ST/STM32_USB_Host_Library/Class/HID/Src/usbh_hid.c ****       /* Open pipe for OUT endpoint */
 241:Middlewares/ST/STM32_USB_Host_Library/Class/HID/Src/usbh_hid.c ****       USBH_OpenPipe(phost, HID_Handle->OutPipe, HID_Handle->OutEp, phost->device.address,
 242:Middlewares/ST/STM32_USB_Host_Library/Class/HID/Src/usbh_hid.c ****                     phost->device.speed, USB_EP_TYPE_INTR, HID_Handle->length);
 243:Middlewares/ST/STM32_USB_Host_Library/Class/HID/Src/usbh_hid.c **** 
 244:Middlewares/ST/STM32_USB_Host_Library/Class/HID/Src/usbh_hid.c ****       USBH_LL_SetToggle(phost, HID_Handle->OutPipe, 0U);
 245:Middlewares/ST/STM32_USB_Host_Library/Class/HID/Src/usbh_hid.c ****     }
 246:Middlewares/ST/STM32_USB_Host_Library/Class/HID/Src/usbh_hid.c ****   }
 247:Middlewares/ST/STM32_USB_Host_Library/Class/HID/Src/usbh_hid.c **** 
 248:Middlewares/ST/STM32_USB_Host_Library/Class/HID/Src/usbh_hid.c ****   return USBH_OK;
 249:Middlewares/ST/STM32_USB_Host_Library/Class/HID/Src/usbh_hid.c **** }
 250:Middlewares/ST/STM32_USB_Host_Library/Class/HID/Src/usbh_hid.c **** 
 251:Middlewares/ST/STM32_USB_Host_Library/Class/HID/Src/usbh_hid.c **** /**
 252:Middlewares/ST/STM32_USB_Host_Library/Class/HID/Src/usbh_hid.c ****   * @brief  USBH_HID_InterfaceDeInit
 253:Middlewares/ST/STM32_USB_Host_Library/Class/HID/Src/usbh_hid.c ****   *         The function DeInit the Pipes used for the HID class.
 254:Middlewares/ST/STM32_USB_Host_Library/Class/HID/Src/usbh_hid.c ****   * @param  phost: Host handle
 255:Middlewares/ST/STM32_USB_Host_Library/Class/HID/Src/usbh_hid.c ****   * @retval USBH Status
 256:Middlewares/ST/STM32_USB_Host_Library/Class/HID/Src/usbh_hid.c ****   */
 257:Middlewares/ST/STM32_USB_Host_Library/Class/HID/Src/usbh_hid.c **** static USBH_StatusTypeDef USBH_HID_InterfaceDeInit(USBH_HandleTypeDef *phost)
 258:Middlewares/ST/STM32_USB_Host_Library/Class/HID/Src/usbh_hid.c **** {
ARM GAS  C:\Users\union\AppData\Local\Temp\cc5SXdj6.s 			page 6


 259:Middlewares/ST/STM32_USB_Host_Library/Class/HID/Src/usbh_hid.c ****   HID_HandleTypeDef *HID_Handle = (HID_HandleTypeDef *) phost->pActiveClass->pData;
 260:Middlewares/ST/STM32_USB_Host_Library/Class/HID/Src/usbh_hid.c **** 
 261:Middlewares/ST/STM32_USB_Host_Library/Class/HID/Src/usbh_hid.c ****   if (HID_Handle->InPipe != 0x00U)
 262:Middlewares/ST/STM32_USB_Host_Library/Class/HID/Src/usbh_hid.c ****   {
 263:Middlewares/ST/STM32_USB_Host_Library/Class/HID/Src/usbh_hid.c ****     USBH_ClosePipe(phost, HID_Handle->InPipe);
 264:Middlewares/ST/STM32_USB_Host_Library/Class/HID/Src/usbh_hid.c ****     USBH_FreePipe(phost, HID_Handle->InPipe);
 265:Middlewares/ST/STM32_USB_Host_Library/Class/HID/Src/usbh_hid.c ****     HID_Handle->InPipe = 0U;     /* Reset the pipe as Free */
 266:Middlewares/ST/STM32_USB_Host_Library/Class/HID/Src/usbh_hid.c ****   }
 267:Middlewares/ST/STM32_USB_Host_Library/Class/HID/Src/usbh_hid.c **** 
 268:Middlewares/ST/STM32_USB_Host_Library/Class/HID/Src/usbh_hid.c ****   if (HID_Handle->OutPipe != 0x00U)
 269:Middlewares/ST/STM32_USB_Host_Library/Class/HID/Src/usbh_hid.c ****   {
 270:Middlewares/ST/STM32_USB_Host_Library/Class/HID/Src/usbh_hid.c ****     USBH_ClosePipe(phost, HID_Handle->OutPipe);
 271:Middlewares/ST/STM32_USB_Host_Library/Class/HID/Src/usbh_hid.c ****     USBH_FreePipe(phost, HID_Handle->OutPipe);
 272:Middlewares/ST/STM32_USB_Host_Library/Class/HID/Src/usbh_hid.c ****     HID_Handle->OutPipe = 0U;     /* Reset the pipe as Free */
 273:Middlewares/ST/STM32_USB_Host_Library/Class/HID/Src/usbh_hid.c ****   }
 274:Middlewares/ST/STM32_USB_Host_Library/Class/HID/Src/usbh_hid.c **** 
 275:Middlewares/ST/STM32_USB_Host_Library/Class/HID/Src/usbh_hid.c ****   if (phost->pActiveClass->pData)
 276:Middlewares/ST/STM32_USB_Host_Library/Class/HID/Src/usbh_hid.c ****   {
 277:Middlewares/ST/STM32_USB_Host_Library/Class/HID/Src/usbh_hid.c ****     USBH_free(phost->pActiveClass->pData);
 278:Middlewares/ST/STM32_USB_Host_Library/Class/HID/Src/usbh_hid.c ****     phost->pActiveClass->pData = 0U;
 279:Middlewares/ST/STM32_USB_Host_Library/Class/HID/Src/usbh_hid.c ****   }
 280:Middlewares/ST/STM32_USB_Host_Library/Class/HID/Src/usbh_hid.c **** 
 281:Middlewares/ST/STM32_USB_Host_Library/Class/HID/Src/usbh_hid.c ****   return USBH_OK;
 282:Middlewares/ST/STM32_USB_Host_Library/Class/HID/Src/usbh_hid.c **** }
 283:Middlewares/ST/STM32_USB_Host_Library/Class/HID/Src/usbh_hid.c **** 
 284:Middlewares/ST/STM32_USB_Host_Library/Class/HID/Src/usbh_hid.c **** /**
 285:Middlewares/ST/STM32_USB_Host_Library/Class/HID/Src/usbh_hid.c ****   * @brief  USBH_HID_ClassRequest
 286:Middlewares/ST/STM32_USB_Host_Library/Class/HID/Src/usbh_hid.c ****   *         The function is responsible for handling Standard requests
 287:Middlewares/ST/STM32_USB_Host_Library/Class/HID/Src/usbh_hid.c ****   *         for HID class.
 288:Middlewares/ST/STM32_USB_Host_Library/Class/HID/Src/usbh_hid.c ****   * @param  phost: Host handle
 289:Middlewares/ST/STM32_USB_Host_Library/Class/HID/Src/usbh_hid.c ****   * @retval USBH Status
 290:Middlewares/ST/STM32_USB_Host_Library/Class/HID/Src/usbh_hid.c ****   */
 291:Middlewares/ST/STM32_USB_Host_Library/Class/HID/Src/usbh_hid.c **** static USBH_StatusTypeDef USBH_HID_ClassRequest(USBH_HandleTypeDef *phost)
 292:Middlewares/ST/STM32_USB_Host_Library/Class/HID/Src/usbh_hid.c **** {
 293:Middlewares/ST/STM32_USB_Host_Library/Class/HID/Src/usbh_hid.c **** 
 294:Middlewares/ST/STM32_USB_Host_Library/Class/HID/Src/usbh_hid.c ****   USBH_StatusTypeDef status         = USBH_BUSY;
 295:Middlewares/ST/STM32_USB_Host_Library/Class/HID/Src/usbh_hid.c ****   USBH_StatusTypeDef classReqStatus = USBH_BUSY;
 296:Middlewares/ST/STM32_USB_Host_Library/Class/HID/Src/usbh_hid.c ****   HID_HandleTypeDef *HID_Handle = (HID_HandleTypeDef *) phost->pActiveClass->pData;
 297:Middlewares/ST/STM32_USB_Host_Library/Class/HID/Src/usbh_hid.c **** 
 298:Middlewares/ST/STM32_USB_Host_Library/Class/HID/Src/usbh_hid.c ****   /* Switch HID state machine */
 299:Middlewares/ST/STM32_USB_Host_Library/Class/HID/Src/usbh_hid.c ****   switch (HID_Handle->ctl_state)
 300:Middlewares/ST/STM32_USB_Host_Library/Class/HID/Src/usbh_hid.c ****   {
 301:Middlewares/ST/STM32_USB_Host_Library/Class/HID/Src/usbh_hid.c ****   case HID_REQ_INIT:
 302:Middlewares/ST/STM32_USB_Host_Library/Class/HID/Src/usbh_hid.c ****   case HID_REQ_GET_HID_DESC:
 303:Middlewares/ST/STM32_USB_Host_Library/Class/HID/Src/usbh_hid.c **** 
 304:Middlewares/ST/STM32_USB_Host_Library/Class/HID/Src/usbh_hid.c ****     USBH_HID_ParseHIDDesc(&HID_Handle->HID_Desc, phost->device.CfgDesc_Raw);
 305:Middlewares/ST/STM32_USB_Host_Library/Class/HID/Src/usbh_hid.c **** 
 306:Middlewares/ST/STM32_USB_Host_Library/Class/HID/Src/usbh_hid.c ****     HID_Handle->ctl_state = HID_REQ_GET_REPORT_DESC;
 307:Middlewares/ST/STM32_USB_Host_Library/Class/HID/Src/usbh_hid.c **** 
 308:Middlewares/ST/STM32_USB_Host_Library/Class/HID/Src/usbh_hid.c ****     break;
 309:Middlewares/ST/STM32_USB_Host_Library/Class/HID/Src/usbh_hid.c ****   case HID_REQ_GET_REPORT_DESC:
 310:Middlewares/ST/STM32_USB_Host_Library/Class/HID/Src/usbh_hid.c **** 
 311:Middlewares/ST/STM32_USB_Host_Library/Class/HID/Src/usbh_hid.c ****     /* Get Report Desc */
 312:Middlewares/ST/STM32_USB_Host_Library/Class/HID/Src/usbh_hid.c ****     classReqStatus = USBH_HID_GetHIDReportDescriptor(phost, HID_Handle->HID_Desc.wItemLength);
 313:Middlewares/ST/STM32_USB_Host_Library/Class/HID/Src/usbh_hid.c ****     if (classReqStatus == USBH_OK)
 314:Middlewares/ST/STM32_USB_Host_Library/Class/HID/Src/usbh_hid.c ****     {
 315:Middlewares/ST/STM32_USB_Host_Library/Class/HID/Src/usbh_hid.c ****       /* The descriptor is available in phost->device.Data */
ARM GAS  C:\Users\union\AppData\Local\Temp\cc5SXdj6.s 			page 7


 316:Middlewares/ST/STM32_USB_Host_Library/Class/HID/Src/usbh_hid.c ****       HID_Handle->ctl_state = HID_REQ_SET_IDLE;
 317:Middlewares/ST/STM32_USB_Host_Library/Class/HID/Src/usbh_hid.c ****     }
 318:Middlewares/ST/STM32_USB_Host_Library/Class/HID/Src/usbh_hid.c ****     else if (classReqStatus == USBH_NOT_SUPPORTED)
 319:Middlewares/ST/STM32_USB_Host_Library/Class/HID/Src/usbh_hid.c ****     {
 320:Middlewares/ST/STM32_USB_Host_Library/Class/HID/Src/usbh_hid.c ****       USBH_ErrLog("Control error: HID: Device Get Report Descriptor request failed");
 321:Middlewares/ST/STM32_USB_Host_Library/Class/HID/Src/usbh_hid.c ****       status = USBH_FAIL;
 322:Middlewares/ST/STM32_USB_Host_Library/Class/HID/Src/usbh_hid.c ****     }
 323:Middlewares/ST/STM32_USB_Host_Library/Class/HID/Src/usbh_hid.c ****     else
 324:Middlewares/ST/STM32_USB_Host_Library/Class/HID/Src/usbh_hid.c ****     {
 325:Middlewares/ST/STM32_USB_Host_Library/Class/HID/Src/usbh_hid.c ****       /* .. */
 326:Middlewares/ST/STM32_USB_Host_Library/Class/HID/Src/usbh_hid.c ****     }
 327:Middlewares/ST/STM32_USB_Host_Library/Class/HID/Src/usbh_hid.c **** 
 328:Middlewares/ST/STM32_USB_Host_Library/Class/HID/Src/usbh_hid.c ****     break;
 329:Middlewares/ST/STM32_USB_Host_Library/Class/HID/Src/usbh_hid.c **** 
 330:Middlewares/ST/STM32_USB_Host_Library/Class/HID/Src/usbh_hid.c ****   case HID_REQ_SET_IDLE:
 331:Middlewares/ST/STM32_USB_Host_Library/Class/HID/Src/usbh_hid.c **** 
 332:Middlewares/ST/STM32_USB_Host_Library/Class/HID/Src/usbh_hid.c ****     classReqStatus = USBH_HID_SetIdle(phost, 0U, 0U);
 333:Middlewares/ST/STM32_USB_Host_Library/Class/HID/Src/usbh_hid.c **** 
 334:Middlewares/ST/STM32_USB_Host_Library/Class/HID/Src/usbh_hid.c ****     /* set Idle */
 335:Middlewares/ST/STM32_USB_Host_Library/Class/HID/Src/usbh_hid.c ****     if (classReqStatus == USBH_OK)
 336:Middlewares/ST/STM32_USB_Host_Library/Class/HID/Src/usbh_hid.c ****     {
 337:Middlewares/ST/STM32_USB_Host_Library/Class/HID/Src/usbh_hid.c ****       HID_Handle->ctl_state = HID_REQ_SET_PROTOCOL;
 338:Middlewares/ST/STM32_USB_Host_Library/Class/HID/Src/usbh_hid.c ****     }
 339:Middlewares/ST/STM32_USB_Host_Library/Class/HID/Src/usbh_hid.c ****     else
 340:Middlewares/ST/STM32_USB_Host_Library/Class/HID/Src/usbh_hid.c ****     {
 341:Middlewares/ST/STM32_USB_Host_Library/Class/HID/Src/usbh_hid.c ****       if (classReqStatus == USBH_NOT_SUPPORTED)
 342:Middlewares/ST/STM32_USB_Host_Library/Class/HID/Src/usbh_hid.c ****       {
 343:Middlewares/ST/STM32_USB_Host_Library/Class/HID/Src/usbh_hid.c ****         HID_Handle->ctl_state = HID_REQ_SET_PROTOCOL;
 344:Middlewares/ST/STM32_USB_Host_Library/Class/HID/Src/usbh_hid.c ****       }
 345:Middlewares/ST/STM32_USB_Host_Library/Class/HID/Src/usbh_hid.c ****     }
 346:Middlewares/ST/STM32_USB_Host_Library/Class/HID/Src/usbh_hid.c ****     break;
 347:Middlewares/ST/STM32_USB_Host_Library/Class/HID/Src/usbh_hid.c **** 
 348:Middlewares/ST/STM32_USB_Host_Library/Class/HID/Src/usbh_hid.c ****   case HID_REQ_SET_PROTOCOL:
 349:Middlewares/ST/STM32_USB_Host_Library/Class/HID/Src/usbh_hid.c ****     /* set protocol */
 350:Middlewares/ST/STM32_USB_Host_Library/Class/HID/Src/usbh_hid.c ****     classReqStatus = USBH_HID_SetProtocol(phost, 0U);
 351:Middlewares/ST/STM32_USB_Host_Library/Class/HID/Src/usbh_hid.c ****     if (classReqStatus == USBH_OK)
 352:Middlewares/ST/STM32_USB_Host_Library/Class/HID/Src/usbh_hid.c ****     {
 353:Middlewares/ST/STM32_USB_Host_Library/Class/HID/Src/usbh_hid.c ****       HID_Handle->ctl_state = HID_REQ_IDLE;
 354:Middlewares/ST/STM32_USB_Host_Library/Class/HID/Src/usbh_hid.c **** 
 355:Middlewares/ST/STM32_USB_Host_Library/Class/HID/Src/usbh_hid.c ****       /* all requests performed*/
 356:Middlewares/ST/STM32_USB_Host_Library/Class/HID/Src/usbh_hid.c ****       phost->pUser(phost, HOST_USER_CLASS_ACTIVE);
 357:Middlewares/ST/STM32_USB_Host_Library/Class/HID/Src/usbh_hid.c ****       status = USBH_OK;
 358:Middlewares/ST/STM32_USB_Host_Library/Class/HID/Src/usbh_hid.c ****     }
 359:Middlewares/ST/STM32_USB_Host_Library/Class/HID/Src/usbh_hid.c ****     else if (classReqStatus == USBH_NOT_SUPPORTED)
 360:Middlewares/ST/STM32_USB_Host_Library/Class/HID/Src/usbh_hid.c ****     {
 361:Middlewares/ST/STM32_USB_Host_Library/Class/HID/Src/usbh_hid.c ****       USBH_ErrLog("Control error: HID: Device Set protocol request failed");
 362:Middlewares/ST/STM32_USB_Host_Library/Class/HID/Src/usbh_hid.c ****       status = USBH_FAIL;
 363:Middlewares/ST/STM32_USB_Host_Library/Class/HID/Src/usbh_hid.c ****     }
 364:Middlewares/ST/STM32_USB_Host_Library/Class/HID/Src/usbh_hid.c ****     else
 365:Middlewares/ST/STM32_USB_Host_Library/Class/HID/Src/usbh_hid.c ****     {
 366:Middlewares/ST/STM32_USB_Host_Library/Class/HID/Src/usbh_hid.c ****       /* .. */
 367:Middlewares/ST/STM32_USB_Host_Library/Class/HID/Src/usbh_hid.c ****     }
 368:Middlewares/ST/STM32_USB_Host_Library/Class/HID/Src/usbh_hid.c ****     break;
 369:Middlewares/ST/STM32_USB_Host_Library/Class/HID/Src/usbh_hid.c **** 
 370:Middlewares/ST/STM32_USB_Host_Library/Class/HID/Src/usbh_hid.c ****   case HID_REQ_IDLE:
 371:Middlewares/ST/STM32_USB_Host_Library/Class/HID/Src/usbh_hid.c ****   default:
 372:Middlewares/ST/STM32_USB_Host_Library/Class/HID/Src/usbh_hid.c ****     break;
ARM GAS  C:\Users\union\AppData\Local\Temp\cc5SXdj6.s 			page 8


 373:Middlewares/ST/STM32_USB_Host_Library/Class/HID/Src/usbh_hid.c ****   }
 374:Middlewares/ST/STM32_USB_Host_Library/Class/HID/Src/usbh_hid.c **** 
 375:Middlewares/ST/STM32_USB_Host_Library/Class/HID/Src/usbh_hid.c ****   return status;
 376:Middlewares/ST/STM32_USB_Host_Library/Class/HID/Src/usbh_hid.c **** }
 377:Middlewares/ST/STM32_USB_Host_Library/Class/HID/Src/usbh_hid.c **** 
 378:Middlewares/ST/STM32_USB_Host_Library/Class/HID/Src/usbh_hid.c **** /**
 379:Middlewares/ST/STM32_USB_Host_Library/Class/HID/Src/usbh_hid.c ****   * @brief  USBH_HID_Process
 380:Middlewares/ST/STM32_USB_Host_Library/Class/HID/Src/usbh_hid.c ****   *         The function is for managing state machine for HID data transfers
 381:Middlewares/ST/STM32_USB_Host_Library/Class/HID/Src/usbh_hid.c ****   * @param  phost: Host handle
 382:Middlewares/ST/STM32_USB_Host_Library/Class/HID/Src/usbh_hid.c ****   * @retval USBH Status
 383:Middlewares/ST/STM32_USB_Host_Library/Class/HID/Src/usbh_hid.c ****   */
 384:Middlewares/ST/STM32_USB_Host_Library/Class/HID/Src/usbh_hid.c **** static USBH_StatusTypeDef USBH_HID_Process(USBH_HandleTypeDef *phost)
 385:Middlewares/ST/STM32_USB_Host_Library/Class/HID/Src/usbh_hid.c **** {
 386:Middlewares/ST/STM32_USB_Host_Library/Class/HID/Src/usbh_hid.c ****   USBH_StatusTypeDef status = USBH_OK;
 387:Middlewares/ST/STM32_USB_Host_Library/Class/HID/Src/usbh_hid.c ****   HID_HandleTypeDef *HID_Handle = (HID_HandleTypeDef *) phost->pActiveClass->pData;
 388:Middlewares/ST/STM32_USB_Host_Library/Class/HID/Src/usbh_hid.c ****   uint32_t XferSize;
 389:Middlewares/ST/STM32_USB_Host_Library/Class/HID/Src/usbh_hid.c **** 
 390:Middlewares/ST/STM32_USB_Host_Library/Class/HID/Src/usbh_hid.c ****   switch (HID_Handle->state)
 391:Middlewares/ST/STM32_USB_Host_Library/Class/HID/Src/usbh_hid.c ****   {
 392:Middlewares/ST/STM32_USB_Host_Library/Class/HID/Src/usbh_hid.c ****     case HID_INIT:
 393:Middlewares/ST/STM32_USB_Host_Library/Class/HID/Src/usbh_hid.c ****       HID_Handle->Init(phost);
 394:Middlewares/ST/STM32_USB_Host_Library/Class/HID/Src/usbh_hid.c ****       HID_Handle->state = HID_IDLE;
 395:Middlewares/ST/STM32_USB_Host_Library/Class/HID/Src/usbh_hid.c **** 
 396:Middlewares/ST/STM32_USB_Host_Library/Class/HID/Src/usbh_hid.c **** #if (USBH_USE_OS == 1U)
 397:Middlewares/ST/STM32_USB_Host_Library/Class/HID/Src/usbh_hid.c ****       phost->os_msg = (uint32_t)USBH_URB_EVENT;
 398:Middlewares/ST/STM32_USB_Host_Library/Class/HID/Src/usbh_hid.c **** #if (osCMSIS < 0x20000U)
 399:Middlewares/ST/STM32_USB_Host_Library/Class/HID/Src/usbh_hid.c ****       (void)osMessagePut(phost->os_event, phost->os_msg, 0U);
 400:Middlewares/ST/STM32_USB_Host_Library/Class/HID/Src/usbh_hid.c **** #else
 401:Middlewares/ST/STM32_USB_Host_Library/Class/HID/Src/usbh_hid.c ****       (void)osMessageQueuePut(phost->os_event, &phost->os_msg, 0U, NULL);
 402:Middlewares/ST/STM32_USB_Host_Library/Class/HID/Src/usbh_hid.c **** #endif
 403:Middlewares/ST/STM32_USB_Host_Library/Class/HID/Src/usbh_hid.c **** #endif
 404:Middlewares/ST/STM32_USB_Host_Library/Class/HID/Src/usbh_hid.c ****       break;
 405:Middlewares/ST/STM32_USB_Host_Library/Class/HID/Src/usbh_hid.c **** 
 406:Middlewares/ST/STM32_USB_Host_Library/Class/HID/Src/usbh_hid.c ****     case HID_IDLE:
 407:Middlewares/ST/STM32_USB_Host_Library/Class/HID/Src/usbh_hid.c ****       status = USBH_HID_GetReport(phost, 0x01U, 0U, HID_Handle->pData, (uint8_t)HID_Handle->length)
 408:Middlewares/ST/STM32_USB_Host_Library/Class/HID/Src/usbh_hid.c ****       if (status == USBH_OK)
 409:Middlewares/ST/STM32_USB_Host_Library/Class/HID/Src/usbh_hid.c ****       {
 410:Middlewares/ST/STM32_USB_Host_Library/Class/HID/Src/usbh_hid.c ****         HID_Handle->state = HID_SYNC;
 411:Middlewares/ST/STM32_USB_Host_Library/Class/HID/Src/usbh_hid.c ****       }
 412:Middlewares/ST/STM32_USB_Host_Library/Class/HID/Src/usbh_hid.c ****       else if (status == USBH_BUSY)
 413:Middlewares/ST/STM32_USB_Host_Library/Class/HID/Src/usbh_hid.c ****       {
 414:Middlewares/ST/STM32_USB_Host_Library/Class/HID/Src/usbh_hid.c ****         HID_Handle->state = HID_IDLE;
 415:Middlewares/ST/STM32_USB_Host_Library/Class/HID/Src/usbh_hid.c ****         status = USBH_OK;
 416:Middlewares/ST/STM32_USB_Host_Library/Class/HID/Src/usbh_hid.c ****       }
 417:Middlewares/ST/STM32_USB_Host_Library/Class/HID/Src/usbh_hid.c ****       else if (status == USBH_NOT_SUPPORTED)
 418:Middlewares/ST/STM32_USB_Host_Library/Class/HID/Src/usbh_hid.c ****       {
 419:Middlewares/ST/STM32_USB_Host_Library/Class/HID/Src/usbh_hid.c ****         HID_Handle->state = HID_SYNC;
 420:Middlewares/ST/STM32_USB_Host_Library/Class/HID/Src/usbh_hid.c ****         status = USBH_OK;
 421:Middlewares/ST/STM32_USB_Host_Library/Class/HID/Src/usbh_hid.c ****       }
 422:Middlewares/ST/STM32_USB_Host_Library/Class/HID/Src/usbh_hid.c ****       else
 423:Middlewares/ST/STM32_USB_Host_Library/Class/HID/Src/usbh_hid.c ****       {
 424:Middlewares/ST/STM32_USB_Host_Library/Class/HID/Src/usbh_hid.c ****         HID_Handle->state = HID_ERROR;
 425:Middlewares/ST/STM32_USB_Host_Library/Class/HID/Src/usbh_hid.c ****         status = USBH_FAIL;
 426:Middlewares/ST/STM32_USB_Host_Library/Class/HID/Src/usbh_hid.c ****       }
 427:Middlewares/ST/STM32_USB_Host_Library/Class/HID/Src/usbh_hid.c **** 
 428:Middlewares/ST/STM32_USB_Host_Library/Class/HID/Src/usbh_hid.c **** #if (USBH_USE_OS == 1U)
 429:Middlewares/ST/STM32_USB_Host_Library/Class/HID/Src/usbh_hid.c ****       phost->os_msg = (uint32_t)USBH_URB_EVENT;
ARM GAS  C:\Users\union\AppData\Local\Temp\cc5SXdj6.s 			page 9


 430:Middlewares/ST/STM32_USB_Host_Library/Class/HID/Src/usbh_hid.c **** #if (osCMSIS < 0x20000U)
 431:Middlewares/ST/STM32_USB_Host_Library/Class/HID/Src/usbh_hid.c ****       (void)osMessagePut(phost->os_event, phost->os_msg, 0U);
 432:Middlewares/ST/STM32_USB_Host_Library/Class/HID/Src/usbh_hid.c **** #else
 433:Middlewares/ST/STM32_USB_Host_Library/Class/HID/Src/usbh_hid.c ****       (void)osMessageQueuePut(phost->os_event, &phost->os_msg, 0U, NULL);
 434:Middlewares/ST/STM32_USB_Host_Library/Class/HID/Src/usbh_hid.c **** #endif
 435:Middlewares/ST/STM32_USB_Host_Library/Class/HID/Src/usbh_hid.c **** #endif
 436:Middlewares/ST/STM32_USB_Host_Library/Class/HID/Src/usbh_hid.c ****       break;
 437:Middlewares/ST/STM32_USB_Host_Library/Class/HID/Src/usbh_hid.c **** 
 438:Middlewares/ST/STM32_USB_Host_Library/Class/HID/Src/usbh_hid.c ****     case HID_SYNC:
 439:Middlewares/ST/STM32_USB_Host_Library/Class/HID/Src/usbh_hid.c ****       /* Sync with start of Even Frame */
 440:Middlewares/ST/STM32_USB_Host_Library/Class/HID/Src/usbh_hid.c ****       if (phost->Timer & 1U)
 441:Middlewares/ST/STM32_USB_Host_Library/Class/HID/Src/usbh_hid.c ****       {
 442:Middlewares/ST/STM32_USB_Host_Library/Class/HID/Src/usbh_hid.c ****         HID_Handle->state = HID_GET_DATA;
 443:Middlewares/ST/STM32_USB_Host_Library/Class/HID/Src/usbh_hid.c ****       }
 444:Middlewares/ST/STM32_USB_Host_Library/Class/HID/Src/usbh_hid.c **** 
 445:Middlewares/ST/STM32_USB_Host_Library/Class/HID/Src/usbh_hid.c **** #if (USBH_USE_OS == 1U)
 446:Middlewares/ST/STM32_USB_Host_Library/Class/HID/Src/usbh_hid.c ****       phost->os_msg = (uint32_t)USBH_URB_EVENT;
 447:Middlewares/ST/STM32_USB_Host_Library/Class/HID/Src/usbh_hid.c **** #if (osCMSIS < 0x20000U)
 448:Middlewares/ST/STM32_USB_Host_Library/Class/HID/Src/usbh_hid.c ****       (void)osMessagePut(phost->os_event, phost->os_msg, 0U);
 449:Middlewares/ST/STM32_USB_Host_Library/Class/HID/Src/usbh_hid.c **** #else
 450:Middlewares/ST/STM32_USB_Host_Library/Class/HID/Src/usbh_hid.c ****       (void)osMessageQueuePut(phost->os_event, &phost->os_msg, 0U, NULL);
 451:Middlewares/ST/STM32_USB_Host_Library/Class/HID/Src/usbh_hid.c **** #endif
 452:Middlewares/ST/STM32_USB_Host_Library/Class/HID/Src/usbh_hid.c **** #endif
 453:Middlewares/ST/STM32_USB_Host_Library/Class/HID/Src/usbh_hid.c ****       break;
 454:Middlewares/ST/STM32_USB_Host_Library/Class/HID/Src/usbh_hid.c **** 
 455:Middlewares/ST/STM32_USB_Host_Library/Class/HID/Src/usbh_hid.c ****     case HID_GET_DATA:
 456:Middlewares/ST/STM32_USB_Host_Library/Class/HID/Src/usbh_hid.c ****       USBH_InterruptReceiveData(phost, HID_Handle->pData,
 457:Middlewares/ST/STM32_USB_Host_Library/Class/HID/Src/usbh_hid.c ****                                 (uint8_t)HID_Handle->length,
 458:Middlewares/ST/STM32_USB_Host_Library/Class/HID/Src/usbh_hid.c ****                                 HID_Handle->InPipe);
 459:Middlewares/ST/STM32_USB_Host_Library/Class/HID/Src/usbh_hid.c **** 
 460:Middlewares/ST/STM32_USB_Host_Library/Class/HID/Src/usbh_hid.c ****       HID_Handle->state = HID_POLL;
 461:Middlewares/ST/STM32_USB_Host_Library/Class/HID/Src/usbh_hid.c ****       HID_Handle->timer = phost->Timer;
 462:Middlewares/ST/STM32_USB_Host_Library/Class/HID/Src/usbh_hid.c ****       HID_Handle->DataReady = 0U;
 463:Middlewares/ST/STM32_USB_Host_Library/Class/HID/Src/usbh_hid.c ****       break;
 464:Middlewares/ST/STM32_USB_Host_Library/Class/HID/Src/usbh_hid.c **** 
 465:Middlewares/ST/STM32_USB_Host_Library/Class/HID/Src/usbh_hid.c ****     case HID_POLL:
 466:Middlewares/ST/STM32_USB_Host_Library/Class/HID/Src/usbh_hid.c ****       if (USBH_LL_GetURBState(phost, HID_Handle->InPipe) == USBH_URB_DONE)
 467:Middlewares/ST/STM32_USB_Host_Library/Class/HID/Src/usbh_hid.c ****       {
 468:Middlewares/ST/STM32_USB_Host_Library/Class/HID/Src/usbh_hid.c ****         XferSize = USBH_LL_GetLastXferSize(phost, HID_Handle->InPipe);
 469:Middlewares/ST/STM32_USB_Host_Library/Class/HID/Src/usbh_hid.c **** 
 470:Middlewares/ST/STM32_USB_Host_Library/Class/HID/Src/usbh_hid.c ****         if ((HID_Handle->DataReady == 0U) && (XferSize != 0U))
 471:Middlewares/ST/STM32_USB_Host_Library/Class/HID/Src/usbh_hid.c ****         {
 472:Middlewares/ST/STM32_USB_Host_Library/Class/HID/Src/usbh_hid.c ****           USBH_HID_FifoWrite(&HID_Handle->fifo, HID_Handle->pData, HID_Handle->length);
 473:Middlewares/ST/STM32_USB_Host_Library/Class/HID/Src/usbh_hid.c ****           HID_Handle->DataReady = 1U;
 474:Middlewares/ST/STM32_USB_Host_Library/Class/HID/Src/usbh_hid.c ****           USBH_HID_EventCallback(phost);
 475:Middlewares/ST/STM32_USB_Host_Library/Class/HID/Src/usbh_hid.c **** 
 476:Middlewares/ST/STM32_USB_Host_Library/Class/HID/Src/usbh_hid.c **** #if (USBH_USE_OS == 1U)
 477:Middlewares/ST/STM32_USB_Host_Library/Class/HID/Src/usbh_hid.c ****           phost->os_msg = (uint32_t)USBH_URB_EVENT;
 478:Middlewares/ST/STM32_USB_Host_Library/Class/HID/Src/usbh_hid.c **** #if (osCMSIS < 0x20000U)
 479:Middlewares/ST/STM32_USB_Host_Library/Class/HID/Src/usbh_hid.c ****           (void)osMessagePut(phost->os_event, phost->os_msg, 0U);
 480:Middlewares/ST/STM32_USB_Host_Library/Class/HID/Src/usbh_hid.c **** #else
 481:Middlewares/ST/STM32_USB_Host_Library/Class/HID/Src/usbh_hid.c ****           (void)osMessageQueuePut(phost->os_event, &phost->os_msg, 0U, NULL);
 482:Middlewares/ST/STM32_USB_Host_Library/Class/HID/Src/usbh_hid.c **** #endif
 483:Middlewares/ST/STM32_USB_Host_Library/Class/HID/Src/usbh_hid.c **** #endif
 484:Middlewares/ST/STM32_USB_Host_Library/Class/HID/Src/usbh_hid.c ****         }
 485:Middlewares/ST/STM32_USB_Host_Library/Class/HID/Src/usbh_hid.c ****       }
 486:Middlewares/ST/STM32_USB_Host_Library/Class/HID/Src/usbh_hid.c ****       else
ARM GAS  C:\Users\union\AppData\Local\Temp\cc5SXdj6.s 			page 10


 487:Middlewares/ST/STM32_USB_Host_Library/Class/HID/Src/usbh_hid.c ****       {
 488:Middlewares/ST/STM32_USB_Host_Library/Class/HID/Src/usbh_hid.c ****         /* IN Endpoint Stalled */
 489:Middlewares/ST/STM32_USB_Host_Library/Class/HID/Src/usbh_hid.c ****         if (USBH_LL_GetURBState(phost, HID_Handle->InPipe) == USBH_URB_STALL)
 490:Middlewares/ST/STM32_USB_Host_Library/Class/HID/Src/usbh_hid.c ****         {
 491:Middlewares/ST/STM32_USB_Host_Library/Class/HID/Src/usbh_hid.c ****           /* Issue Clear Feature on interrupt IN endpoint */
 492:Middlewares/ST/STM32_USB_Host_Library/Class/HID/Src/usbh_hid.c ****           if (USBH_ClrFeature(phost, HID_Handle->ep_addr) == USBH_OK)
 493:Middlewares/ST/STM32_USB_Host_Library/Class/HID/Src/usbh_hid.c ****           {
 494:Middlewares/ST/STM32_USB_Host_Library/Class/HID/Src/usbh_hid.c ****             /* Change state to issue next IN token */
 495:Middlewares/ST/STM32_USB_Host_Library/Class/HID/Src/usbh_hid.c ****             HID_Handle->state = HID_GET_DATA;
 496:Middlewares/ST/STM32_USB_Host_Library/Class/HID/Src/usbh_hid.c ****           }
 497:Middlewares/ST/STM32_USB_Host_Library/Class/HID/Src/usbh_hid.c ****         }
 498:Middlewares/ST/STM32_USB_Host_Library/Class/HID/Src/usbh_hid.c ****       }
 499:Middlewares/ST/STM32_USB_Host_Library/Class/HID/Src/usbh_hid.c ****       break;
 500:Middlewares/ST/STM32_USB_Host_Library/Class/HID/Src/usbh_hid.c **** 
 501:Middlewares/ST/STM32_USB_Host_Library/Class/HID/Src/usbh_hid.c ****     default:
 502:Middlewares/ST/STM32_USB_Host_Library/Class/HID/Src/usbh_hid.c ****       break;
 503:Middlewares/ST/STM32_USB_Host_Library/Class/HID/Src/usbh_hid.c ****   }
 504:Middlewares/ST/STM32_USB_Host_Library/Class/HID/Src/usbh_hid.c **** 
 505:Middlewares/ST/STM32_USB_Host_Library/Class/HID/Src/usbh_hid.c ****   return status;
 506:Middlewares/ST/STM32_USB_Host_Library/Class/HID/Src/usbh_hid.c **** }
 507:Middlewares/ST/STM32_USB_Host_Library/Class/HID/Src/usbh_hid.c **** 
 508:Middlewares/ST/STM32_USB_Host_Library/Class/HID/Src/usbh_hid.c **** /**
 509:Middlewares/ST/STM32_USB_Host_Library/Class/HID/Src/usbh_hid.c ****   * @brief  USBH_HID_SOFProcess
 510:Middlewares/ST/STM32_USB_Host_Library/Class/HID/Src/usbh_hid.c ****   *         The function is for managing the SOF Process
 511:Middlewares/ST/STM32_USB_Host_Library/Class/HID/Src/usbh_hid.c ****   * @param  phost: Host handle
 512:Middlewares/ST/STM32_USB_Host_Library/Class/HID/Src/usbh_hid.c ****   * @retval USBH Status
 513:Middlewares/ST/STM32_USB_Host_Library/Class/HID/Src/usbh_hid.c ****   */
 514:Middlewares/ST/STM32_USB_Host_Library/Class/HID/Src/usbh_hid.c **** static USBH_StatusTypeDef USBH_HID_SOFProcess(USBH_HandleTypeDef *phost)
 515:Middlewares/ST/STM32_USB_Host_Library/Class/HID/Src/usbh_hid.c **** {
  29              		.loc 1 515 1 view -0
  30              		.cfi_startproc
  31              		@ args = 0, pretend = 0, frame = 0
  32              		@ frame_needed = 0, uses_anonymous_args = 0
  33              		@ link register save eliminated.
 516:Middlewares/ST/STM32_USB_Host_Library/Class/HID/Src/usbh_hid.c ****   HID_HandleTypeDef *HID_Handle = (HID_HandleTypeDef *) phost->pActiveClass->pData;
  34              		.loc 1 516 3 view .LVU1
  35              		.loc 1 516 62 is_stmt 0 view .LVU2
  36 0000 D0F87C33 		ldr	r3, [r0, #892]
  37              		.loc 1 516 22 view .LVU3
  38 0004 DB69     		ldr	r3, [r3, #28]
  39              	.LVL1:
 517:Middlewares/ST/STM32_USB_Host_Library/Class/HID/Src/usbh_hid.c **** 
 518:Middlewares/ST/STM32_USB_Host_Library/Class/HID/Src/usbh_hid.c ****   if (HID_Handle->state == HID_POLL)
  40              		.loc 1 518 3 is_stmt 1 view .LVU4
  41              		.loc 1 518 17 is_stmt 0 view .LVU5
  42 0006 9A78     		ldrb	r2, [r3, #2]	@ zero_extendqisi2
  43              		.loc 1 518 6 view .LVU6
  44 0008 062A     		cmp	r2, #6
  45 000a 01D0     		beq	.L3
  46              	.L2:
 519:Middlewares/ST/STM32_USB_Host_Library/Class/HID/Src/usbh_hid.c ****   {
 520:Middlewares/ST/STM32_USB_Host_Library/Class/HID/Src/usbh_hid.c ****     if ((phost->Timer - HID_Handle->timer) >= HID_Handle->poll)
 521:Middlewares/ST/STM32_USB_Host_Library/Class/HID/Src/usbh_hid.c ****     {
 522:Middlewares/ST/STM32_USB_Host_Library/Class/HID/Src/usbh_hid.c ****       HID_Handle->state = HID_GET_DATA;
 523:Middlewares/ST/STM32_USB_Host_Library/Class/HID/Src/usbh_hid.c **** 
 524:Middlewares/ST/STM32_USB_Host_Library/Class/HID/Src/usbh_hid.c **** #if (USBH_USE_OS == 1U)
 525:Middlewares/ST/STM32_USB_Host_Library/Class/HID/Src/usbh_hid.c ****       phost->os_msg = (uint32_t)USBH_URB_EVENT;
ARM GAS  C:\Users\union\AppData\Local\Temp\cc5SXdj6.s 			page 11


 526:Middlewares/ST/STM32_USB_Host_Library/Class/HID/Src/usbh_hid.c **** #if (osCMSIS < 0x20000U)
 527:Middlewares/ST/STM32_USB_Host_Library/Class/HID/Src/usbh_hid.c ****       (void)osMessagePut(phost->os_event, phost->os_msg, 0U);
 528:Middlewares/ST/STM32_USB_Host_Library/Class/HID/Src/usbh_hid.c **** #else
 529:Middlewares/ST/STM32_USB_Host_Library/Class/HID/Src/usbh_hid.c ****       (void)osMessageQueuePut(phost->os_event, &phost->os_msg, 0U, NULL);
 530:Middlewares/ST/STM32_USB_Host_Library/Class/HID/Src/usbh_hid.c **** #endif
 531:Middlewares/ST/STM32_USB_Host_Library/Class/HID/Src/usbh_hid.c **** #endif
 532:Middlewares/ST/STM32_USB_Host_Library/Class/HID/Src/usbh_hid.c ****     }
 533:Middlewares/ST/STM32_USB_Host_Library/Class/HID/Src/usbh_hid.c ****   }
 534:Middlewares/ST/STM32_USB_Host_Library/Class/HID/Src/usbh_hid.c ****   return USBH_OK;
  47              		.loc 1 534 3 is_stmt 1 view .LVU7
 535:Middlewares/ST/STM32_USB_Host_Library/Class/HID/Src/usbh_hid.c **** }
  48              		.loc 1 535 1 is_stmt 0 view .LVU8
  49 000c 0020     		movs	r0, #0
  50              	.LVL2:
  51              		.loc 1 535 1 view .LVU9
  52 000e 7047     		bx	lr
  53              	.LVL3:
  54              	.L3:
 520:Middlewares/ST/STM32_USB_Host_Library/Class/HID/Src/usbh_hid.c ****     {
  55              		.loc 1 520 5 is_stmt 1 view .LVU10
 520:Middlewares/ST/STM32_USB_Host_Library/Class/HID/Src/usbh_hid.c ****     {
  56              		.loc 1 520 15 is_stmt 0 view .LVU11
  57 0010 D0F8C423 		ldr	r2, [r0, #964]
 520:Middlewares/ST/STM32_USB_Host_Library/Class/HID/Src/usbh_hid.c ****     {
  58              		.loc 1 520 35 view .LVU12
  59 0014 196A     		ldr	r1, [r3, #32]
 520:Middlewares/ST/STM32_USB_Host_Library/Class/HID/Src/usbh_hid.c ****     {
  60              		.loc 1 520 23 view .LVU13
  61 0016 521A     		subs	r2, r2, r1
 520:Middlewares/ST/STM32_USB_Host_Library/Class/HID/Src/usbh_hid.c ****     {
  62              		.loc 1 520 57 view .LVU14
  63 0018 998B     		ldrh	r1, [r3, #28]
 520:Middlewares/ST/STM32_USB_Host_Library/Class/HID/Src/usbh_hid.c ****     {
  64              		.loc 1 520 8 view .LVU15
  65 001a 8A42     		cmp	r2, r1
  66 001c F6D3     		bcc	.L2
 522:Middlewares/ST/STM32_USB_Host_Library/Class/HID/Src/usbh_hid.c **** 
  67              		.loc 1 522 7 is_stmt 1 view .LVU16
 522:Middlewares/ST/STM32_USB_Host_Library/Class/HID/Src/usbh_hid.c **** 
  68              		.loc 1 522 25 is_stmt 0 view .LVU17
  69 001e 0422     		movs	r2, #4
  70 0020 9A70     		strb	r2, [r3, #2]
  71 0022 F3E7     		b	.L2
  72              		.cfi_endproc
  73              	.LFE139:
  75              		.section	.text.USBH_HID_ParseHIDDesc,"ax",%progbits
  76              		.align	1
  77              		.syntax unified
  78              		.thumb
  79              		.thumb_func
  80              		.fpu fpv4-sp-d16
  82              	USBH_HID_ParseHIDDesc:
  83              	.LVL4:
  84              	.LFB146:
 536:Middlewares/ST/STM32_USB_Host_Library/Class/HID/Src/usbh_hid.c **** 
 537:Middlewares/ST/STM32_USB_Host_Library/Class/HID/Src/usbh_hid.c **** /**
 538:Middlewares/ST/STM32_USB_Host_Library/Class/HID/Src/usbh_hid.c **** * @brief  USBH_Get_HID_ReportDescriptor
ARM GAS  C:\Users\union\AppData\Local\Temp\cc5SXdj6.s 			page 12


 539:Middlewares/ST/STM32_USB_Host_Library/Class/HID/Src/usbh_hid.c ****   *         Issue report Descriptor command to the device. Once the response
 540:Middlewares/ST/STM32_USB_Host_Library/Class/HID/Src/usbh_hid.c ****   *         received, parse the report descriptor and update the status.
 541:Middlewares/ST/STM32_USB_Host_Library/Class/HID/Src/usbh_hid.c ****   * @param  phost: Host handle
 542:Middlewares/ST/STM32_USB_Host_Library/Class/HID/Src/usbh_hid.c ****   * @param  Length : HID Report Descriptor Length
 543:Middlewares/ST/STM32_USB_Host_Library/Class/HID/Src/usbh_hid.c ****   * @retval USBH Status
 544:Middlewares/ST/STM32_USB_Host_Library/Class/HID/Src/usbh_hid.c ****   */
 545:Middlewares/ST/STM32_USB_Host_Library/Class/HID/Src/usbh_hid.c **** USBH_StatusTypeDef USBH_HID_GetHIDReportDescriptor(USBH_HandleTypeDef *phost,
 546:Middlewares/ST/STM32_USB_Host_Library/Class/HID/Src/usbh_hid.c ****                                                    uint16_t length)
 547:Middlewares/ST/STM32_USB_Host_Library/Class/HID/Src/usbh_hid.c **** {
 548:Middlewares/ST/STM32_USB_Host_Library/Class/HID/Src/usbh_hid.c **** 
 549:Middlewares/ST/STM32_USB_Host_Library/Class/HID/Src/usbh_hid.c ****   USBH_StatusTypeDef status;
 550:Middlewares/ST/STM32_USB_Host_Library/Class/HID/Src/usbh_hid.c **** 
 551:Middlewares/ST/STM32_USB_Host_Library/Class/HID/Src/usbh_hid.c ****   status = USBH_GetDescriptor(phost,
 552:Middlewares/ST/STM32_USB_Host_Library/Class/HID/Src/usbh_hid.c ****                               USB_REQ_RECIPIENT_INTERFACE | USB_REQ_TYPE_STANDARD,
 553:Middlewares/ST/STM32_USB_Host_Library/Class/HID/Src/usbh_hid.c ****                               USB_DESC_HID_REPORT,
 554:Middlewares/ST/STM32_USB_Host_Library/Class/HID/Src/usbh_hid.c ****                               phost->device.Data,
 555:Middlewares/ST/STM32_USB_Host_Library/Class/HID/Src/usbh_hid.c ****                               length);
 556:Middlewares/ST/STM32_USB_Host_Library/Class/HID/Src/usbh_hid.c **** 
 557:Middlewares/ST/STM32_USB_Host_Library/Class/HID/Src/usbh_hid.c ****   /* HID report descriptor is available in phost->device.Data.
 558:Middlewares/ST/STM32_USB_Host_Library/Class/HID/Src/usbh_hid.c ****   In case of USB Boot Mode devices for In report handling ,
 559:Middlewares/ST/STM32_USB_Host_Library/Class/HID/Src/usbh_hid.c ****   HID report descriptor parsing is not required.
 560:Middlewares/ST/STM32_USB_Host_Library/Class/HID/Src/usbh_hid.c ****   In case, for supporting Non-Boot Protocol devices and output reports,
 561:Middlewares/ST/STM32_USB_Host_Library/Class/HID/Src/usbh_hid.c ****   user may parse the report descriptor*/
 562:Middlewares/ST/STM32_USB_Host_Library/Class/HID/Src/usbh_hid.c **** 
 563:Middlewares/ST/STM32_USB_Host_Library/Class/HID/Src/usbh_hid.c **** 
 564:Middlewares/ST/STM32_USB_Host_Library/Class/HID/Src/usbh_hid.c ****   return status;
 565:Middlewares/ST/STM32_USB_Host_Library/Class/HID/Src/usbh_hid.c **** }
 566:Middlewares/ST/STM32_USB_Host_Library/Class/HID/Src/usbh_hid.c **** 
 567:Middlewares/ST/STM32_USB_Host_Library/Class/HID/Src/usbh_hid.c **** /**
 568:Middlewares/ST/STM32_USB_Host_Library/Class/HID/Src/usbh_hid.c ****   * @brief  USBH_Get_HID_Descriptor
 569:Middlewares/ST/STM32_USB_Host_Library/Class/HID/Src/usbh_hid.c ****   *         Issue HID Descriptor command to the device. Once the response
 570:Middlewares/ST/STM32_USB_Host_Library/Class/HID/Src/usbh_hid.c ****   *         received, parse the report descriptor and update the status.
 571:Middlewares/ST/STM32_USB_Host_Library/Class/HID/Src/usbh_hid.c ****   * @param  phost: Host handle
 572:Middlewares/ST/STM32_USB_Host_Library/Class/HID/Src/usbh_hid.c ****   * @param  Length : HID Descriptor Length
 573:Middlewares/ST/STM32_USB_Host_Library/Class/HID/Src/usbh_hid.c ****   * @retval USBH Status
 574:Middlewares/ST/STM32_USB_Host_Library/Class/HID/Src/usbh_hid.c ****   */
 575:Middlewares/ST/STM32_USB_Host_Library/Class/HID/Src/usbh_hid.c **** USBH_StatusTypeDef USBH_HID_GetHIDDescriptor(USBH_HandleTypeDef *phost,
 576:Middlewares/ST/STM32_USB_Host_Library/Class/HID/Src/usbh_hid.c ****                                              uint16_t length)
 577:Middlewares/ST/STM32_USB_Host_Library/Class/HID/Src/usbh_hid.c **** {
 578:Middlewares/ST/STM32_USB_Host_Library/Class/HID/Src/usbh_hid.c ****   USBH_StatusTypeDef status;
 579:Middlewares/ST/STM32_USB_Host_Library/Class/HID/Src/usbh_hid.c **** 
 580:Middlewares/ST/STM32_USB_Host_Library/Class/HID/Src/usbh_hid.c ****   status = USBH_GetDescriptor(phost,
 581:Middlewares/ST/STM32_USB_Host_Library/Class/HID/Src/usbh_hid.c ****                               USB_REQ_RECIPIENT_INTERFACE | USB_REQ_TYPE_STANDARD,
 582:Middlewares/ST/STM32_USB_Host_Library/Class/HID/Src/usbh_hid.c ****                               USB_DESC_HID,
 583:Middlewares/ST/STM32_USB_Host_Library/Class/HID/Src/usbh_hid.c ****                               phost->device.Data,
 584:Middlewares/ST/STM32_USB_Host_Library/Class/HID/Src/usbh_hid.c ****                               length);
 585:Middlewares/ST/STM32_USB_Host_Library/Class/HID/Src/usbh_hid.c **** 
 586:Middlewares/ST/STM32_USB_Host_Library/Class/HID/Src/usbh_hid.c ****   return status;
 587:Middlewares/ST/STM32_USB_Host_Library/Class/HID/Src/usbh_hid.c **** }
 588:Middlewares/ST/STM32_USB_Host_Library/Class/HID/Src/usbh_hid.c **** 
 589:Middlewares/ST/STM32_USB_Host_Library/Class/HID/Src/usbh_hid.c **** /**
 590:Middlewares/ST/STM32_USB_Host_Library/Class/HID/Src/usbh_hid.c ****   * @brief  USBH_Set_Idle
 591:Middlewares/ST/STM32_USB_Host_Library/Class/HID/Src/usbh_hid.c ****   *         Set Idle State.
 592:Middlewares/ST/STM32_USB_Host_Library/Class/HID/Src/usbh_hid.c ****   * @param  phost: Host handle
 593:Middlewares/ST/STM32_USB_Host_Library/Class/HID/Src/usbh_hid.c ****   * @param  duration: Duration for HID Idle request
 594:Middlewares/ST/STM32_USB_Host_Library/Class/HID/Src/usbh_hid.c ****   * @param  reportId : Targeted report ID for Set Idle request
 595:Middlewares/ST/STM32_USB_Host_Library/Class/HID/Src/usbh_hid.c ****   * @retval USBH Status
ARM GAS  C:\Users\union\AppData\Local\Temp\cc5SXdj6.s 			page 13


 596:Middlewares/ST/STM32_USB_Host_Library/Class/HID/Src/usbh_hid.c ****   */
 597:Middlewares/ST/STM32_USB_Host_Library/Class/HID/Src/usbh_hid.c **** USBH_StatusTypeDef USBH_HID_SetIdle(USBH_HandleTypeDef *phost,
 598:Middlewares/ST/STM32_USB_Host_Library/Class/HID/Src/usbh_hid.c ****                                     uint8_t duration,
 599:Middlewares/ST/STM32_USB_Host_Library/Class/HID/Src/usbh_hid.c ****                                     uint8_t reportId)
 600:Middlewares/ST/STM32_USB_Host_Library/Class/HID/Src/usbh_hid.c **** {
 601:Middlewares/ST/STM32_USB_Host_Library/Class/HID/Src/usbh_hid.c **** 
 602:Middlewares/ST/STM32_USB_Host_Library/Class/HID/Src/usbh_hid.c ****   phost->Control.setup.b.bmRequestType = USB_H2D | USB_REQ_RECIPIENT_INTERFACE | \
 603:Middlewares/ST/STM32_USB_Host_Library/Class/HID/Src/usbh_hid.c ****                                          USB_REQ_TYPE_CLASS;
 604:Middlewares/ST/STM32_USB_Host_Library/Class/HID/Src/usbh_hid.c **** 
 605:Middlewares/ST/STM32_USB_Host_Library/Class/HID/Src/usbh_hid.c **** 
 606:Middlewares/ST/STM32_USB_Host_Library/Class/HID/Src/usbh_hid.c ****   phost->Control.setup.b.bRequest = USB_HID_SET_IDLE;
 607:Middlewares/ST/STM32_USB_Host_Library/Class/HID/Src/usbh_hid.c ****   phost->Control.setup.b.wValue.w = (uint16_t)(((uint32_t)duration << 8U) | (uint32_t)reportId);
 608:Middlewares/ST/STM32_USB_Host_Library/Class/HID/Src/usbh_hid.c **** 
 609:Middlewares/ST/STM32_USB_Host_Library/Class/HID/Src/usbh_hid.c ****   phost->Control.setup.b.wIndex.w = 0U;
 610:Middlewares/ST/STM32_USB_Host_Library/Class/HID/Src/usbh_hid.c ****   phost->Control.setup.b.wLength.w = 0U;
 611:Middlewares/ST/STM32_USB_Host_Library/Class/HID/Src/usbh_hid.c **** 
 612:Middlewares/ST/STM32_USB_Host_Library/Class/HID/Src/usbh_hid.c ****   return USBH_CtlReq(phost, 0U, 0U);
 613:Middlewares/ST/STM32_USB_Host_Library/Class/HID/Src/usbh_hid.c **** }
 614:Middlewares/ST/STM32_USB_Host_Library/Class/HID/Src/usbh_hid.c **** 
 615:Middlewares/ST/STM32_USB_Host_Library/Class/HID/Src/usbh_hid.c **** 
 616:Middlewares/ST/STM32_USB_Host_Library/Class/HID/Src/usbh_hid.c **** /**
 617:Middlewares/ST/STM32_USB_Host_Library/Class/HID/Src/usbh_hid.c ****   * @brief  USBH_HID_Set_Report
 618:Middlewares/ST/STM32_USB_Host_Library/Class/HID/Src/usbh_hid.c ****   *         Issues Set Report
 619:Middlewares/ST/STM32_USB_Host_Library/Class/HID/Src/usbh_hid.c ****   * @param  phost: Host handle
 620:Middlewares/ST/STM32_USB_Host_Library/Class/HID/Src/usbh_hid.c ****   * @param  reportType  : Report type to be sent
 621:Middlewares/ST/STM32_USB_Host_Library/Class/HID/Src/usbh_hid.c ****   * @param  reportId    : Targeted report ID for Set Report request
 622:Middlewares/ST/STM32_USB_Host_Library/Class/HID/Src/usbh_hid.c ****   * @param  reportBuff  : Report Buffer
 623:Middlewares/ST/STM32_USB_Host_Library/Class/HID/Src/usbh_hid.c ****   * @param  reportLen   : Length of data report to be send
 624:Middlewares/ST/STM32_USB_Host_Library/Class/HID/Src/usbh_hid.c ****   * @retval USBH Status
 625:Middlewares/ST/STM32_USB_Host_Library/Class/HID/Src/usbh_hid.c ****   */
 626:Middlewares/ST/STM32_USB_Host_Library/Class/HID/Src/usbh_hid.c **** USBH_StatusTypeDef USBH_HID_SetReport(USBH_HandleTypeDef *phost,
 627:Middlewares/ST/STM32_USB_Host_Library/Class/HID/Src/usbh_hid.c ****                                       uint8_t reportType,
 628:Middlewares/ST/STM32_USB_Host_Library/Class/HID/Src/usbh_hid.c ****                                       uint8_t reportId,
 629:Middlewares/ST/STM32_USB_Host_Library/Class/HID/Src/usbh_hid.c ****                                       uint8_t *reportBuff,
 630:Middlewares/ST/STM32_USB_Host_Library/Class/HID/Src/usbh_hid.c ****                                       uint8_t reportLen)
 631:Middlewares/ST/STM32_USB_Host_Library/Class/HID/Src/usbh_hid.c **** {
 632:Middlewares/ST/STM32_USB_Host_Library/Class/HID/Src/usbh_hid.c **** 
 633:Middlewares/ST/STM32_USB_Host_Library/Class/HID/Src/usbh_hid.c ****   phost->Control.setup.b.bmRequestType = USB_H2D | USB_REQ_RECIPIENT_INTERFACE | \
 634:Middlewares/ST/STM32_USB_Host_Library/Class/HID/Src/usbh_hid.c ****                                          USB_REQ_TYPE_CLASS;
 635:Middlewares/ST/STM32_USB_Host_Library/Class/HID/Src/usbh_hid.c **** 
 636:Middlewares/ST/STM32_USB_Host_Library/Class/HID/Src/usbh_hid.c **** 
 637:Middlewares/ST/STM32_USB_Host_Library/Class/HID/Src/usbh_hid.c ****   phost->Control.setup.b.bRequest = USB_HID_SET_REPORT;
 638:Middlewares/ST/STM32_USB_Host_Library/Class/HID/Src/usbh_hid.c ****   phost->Control.setup.b.wValue.w = (uint16_t)(((uint32_t)reportType << 8U) | (uint32_t)reportId);
 639:Middlewares/ST/STM32_USB_Host_Library/Class/HID/Src/usbh_hid.c **** 
 640:Middlewares/ST/STM32_USB_Host_Library/Class/HID/Src/usbh_hid.c ****   phost->Control.setup.b.wIndex.w = 0U;
 641:Middlewares/ST/STM32_USB_Host_Library/Class/HID/Src/usbh_hid.c ****   phost->Control.setup.b.wLength.w = reportLen;
 642:Middlewares/ST/STM32_USB_Host_Library/Class/HID/Src/usbh_hid.c **** 
 643:Middlewares/ST/STM32_USB_Host_Library/Class/HID/Src/usbh_hid.c ****   return USBH_CtlReq(phost, reportBuff, (uint16_t)reportLen);
 644:Middlewares/ST/STM32_USB_Host_Library/Class/HID/Src/usbh_hid.c **** }
 645:Middlewares/ST/STM32_USB_Host_Library/Class/HID/Src/usbh_hid.c **** 
 646:Middlewares/ST/STM32_USB_Host_Library/Class/HID/Src/usbh_hid.c **** 
 647:Middlewares/ST/STM32_USB_Host_Library/Class/HID/Src/usbh_hid.c **** /**
 648:Middlewares/ST/STM32_USB_Host_Library/Class/HID/Src/usbh_hid.c ****   * @brief  USBH_HID_GetReport
 649:Middlewares/ST/STM32_USB_Host_Library/Class/HID/Src/usbh_hid.c ****   *         retreive Set Report
 650:Middlewares/ST/STM32_USB_Host_Library/Class/HID/Src/usbh_hid.c ****   * @param  phost: Host handle
 651:Middlewares/ST/STM32_USB_Host_Library/Class/HID/Src/usbh_hid.c ****   * @param  reportType  : Report type to be sent
 652:Middlewares/ST/STM32_USB_Host_Library/Class/HID/Src/usbh_hid.c ****   * @param  reportId    : Targeted report ID for Set Report request
ARM GAS  C:\Users\union\AppData\Local\Temp\cc5SXdj6.s 			page 14


 653:Middlewares/ST/STM32_USB_Host_Library/Class/HID/Src/usbh_hid.c ****   * @param  reportBuff  : Report Buffer
 654:Middlewares/ST/STM32_USB_Host_Library/Class/HID/Src/usbh_hid.c ****   * @param  reportLen   : Length of data report to be send
 655:Middlewares/ST/STM32_USB_Host_Library/Class/HID/Src/usbh_hid.c ****   * @retval USBH Status
 656:Middlewares/ST/STM32_USB_Host_Library/Class/HID/Src/usbh_hid.c ****   */
 657:Middlewares/ST/STM32_USB_Host_Library/Class/HID/Src/usbh_hid.c **** USBH_StatusTypeDef USBH_HID_GetReport(USBH_HandleTypeDef *phost,
 658:Middlewares/ST/STM32_USB_Host_Library/Class/HID/Src/usbh_hid.c ****                                       uint8_t reportType,
 659:Middlewares/ST/STM32_USB_Host_Library/Class/HID/Src/usbh_hid.c ****                                       uint8_t reportId,
 660:Middlewares/ST/STM32_USB_Host_Library/Class/HID/Src/usbh_hid.c ****                                       uint8_t *reportBuff,
 661:Middlewares/ST/STM32_USB_Host_Library/Class/HID/Src/usbh_hid.c ****                                       uint8_t reportLen)
 662:Middlewares/ST/STM32_USB_Host_Library/Class/HID/Src/usbh_hid.c **** {
 663:Middlewares/ST/STM32_USB_Host_Library/Class/HID/Src/usbh_hid.c **** 
 664:Middlewares/ST/STM32_USB_Host_Library/Class/HID/Src/usbh_hid.c ****   phost->Control.setup.b.bmRequestType = USB_D2H | USB_REQ_RECIPIENT_INTERFACE | \
 665:Middlewares/ST/STM32_USB_Host_Library/Class/HID/Src/usbh_hid.c ****                                          USB_REQ_TYPE_CLASS;
 666:Middlewares/ST/STM32_USB_Host_Library/Class/HID/Src/usbh_hid.c **** 
 667:Middlewares/ST/STM32_USB_Host_Library/Class/HID/Src/usbh_hid.c **** 
 668:Middlewares/ST/STM32_USB_Host_Library/Class/HID/Src/usbh_hid.c ****   phost->Control.setup.b.bRequest = USB_HID_GET_REPORT;
 669:Middlewares/ST/STM32_USB_Host_Library/Class/HID/Src/usbh_hid.c ****   phost->Control.setup.b.wValue.w = (uint16_t)(((uint32_t)reportType << 8U) | (uint32_t)reportId);
 670:Middlewares/ST/STM32_USB_Host_Library/Class/HID/Src/usbh_hid.c **** 
 671:Middlewares/ST/STM32_USB_Host_Library/Class/HID/Src/usbh_hid.c ****   phost->Control.setup.b.wIndex.w = 0U;
 672:Middlewares/ST/STM32_USB_Host_Library/Class/HID/Src/usbh_hid.c ****   phost->Control.setup.b.wLength.w = reportLen;
 673:Middlewares/ST/STM32_USB_Host_Library/Class/HID/Src/usbh_hid.c **** 
 674:Middlewares/ST/STM32_USB_Host_Library/Class/HID/Src/usbh_hid.c ****   return USBH_CtlReq(phost, reportBuff, (uint16_t)reportLen);
 675:Middlewares/ST/STM32_USB_Host_Library/Class/HID/Src/usbh_hid.c **** }
 676:Middlewares/ST/STM32_USB_Host_Library/Class/HID/Src/usbh_hid.c **** 
 677:Middlewares/ST/STM32_USB_Host_Library/Class/HID/Src/usbh_hid.c **** /**
 678:Middlewares/ST/STM32_USB_Host_Library/Class/HID/Src/usbh_hid.c ****   * @brief  USBH_Set_Protocol
 679:Middlewares/ST/STM32_USB_Host_Library/Class/HID/Src/usbh_hid.c ****   *         Set protocol State.
 680:Middlewares/ST/STM32_USB_Host_Library/Class/HID/Src/usbh_hid.c ****   * @param  phost: Host handle
 681:Middlewares/ST/STM32_USB_Host_Library/Class/HID/Src/usbh_hid.c ****   * @param  protocol : Set Protocol for HID : boot/report protocol
 682:Middlewares/ST/STM32_USB_Host_Library/Class/HID/Src/usbh_hid.c ****   * @retval USBH Status
 683:Middlewares/ST/STM32_USB_Host_Library/Class/HID/Src/usbh_hid.c ****   */
 684:Middlewares/ST/STM32_USB_Host_Library/Class/HID/Src/usbh_hid.c **** USBH_StatusTypeDef USBH_HID_SetProtocol(USBH_HandleTypeDef *phost,
 685:Middlewares/ST/STM32_USB_Host_Library/Class/HID/Src/usbh_hid.c ****                                         uint8_t protocol)
 686:Middlewares/ST/STM32_USB_Host_Library/Class/HID/Src/usbh_hid.c **** {
 687:Middlewares/ST/STM32_USB_Host_Library/Class/HID/Src/usbh_hid.c ****   phost->Control.setup.b.bmRequestType = USB_H2D | USB_REQ_RECIPIENT_INTERFACE
 688:Middlewares/ST/STM32_USB_Host_Library/Class/HID/Src/usbh_hid.c ****                                          | USB_REQ_TYPE_CLASS;
 689:Middlewares/ST/STM32_USB_Host_Library/Class/HID/Src/usbh_hid.c **** 
 690:Middlewares/ST/STM32_USB_Host_Library/Class/HID/Src/usbh_hid.c ****   phost->Control.setup.b.bRequest = USB_HID_SET_PROTOCOL;
 691:Middlewares/ST/STM32_USB_Host_Library/Class/HID/Src/usbh_hid.c ****   if (protocol)
 692:Middlewares/ST/STM32_USB_Host_Library/Class/HID/Src/usbh_hid.c ****   {
 693:Middlewares/ST/STM32_USB_Host_Library/Class/HID/Src/usbh_hid.c ****     phost->Control.setup.b.wValue.w = 0U;
 694:Middlewares/ST/STM32_USB_Host_Library/Class/HID/Src/usbh_hid.c ****   }
 695:Middlewares/ST/STM32_USB_Host_Library/Class/HID/Src/usbh_hid.c ****   else
 696:Middlewares/ST/STM32_USB_Host_Library/Class/HID/Src/usbh_hid.c ****   {
 697:Middlewares/ST/STM32_USB_Host_Library/Class/HID/Src/usbh_hid.c ****     phost->Control.setup.b.wValue.w = 1U;
 698:Middlewares/ST/STM32_USB_Host_Library/Class/HID/Src/usbh_hid.c ****   }
 699:Middlewares/ST/STM32_USB_Host_Library/Class/HID/Src/usbh_hid.c **** 
 700:Middlewares/ST/STM32_USB_Host_Library/Class/HID/Src/usbh_hid.c ****   phost->Control.setup.b.wIndex.w = 0U;
 701:Middlewares/ST/STM32_USB_Host_Library/Class/HID/Src/usbh_hid.c ****   phost->Control.setup.b.wLength.w = 0U;
 702:Middlewares/ST/STM32_USB_Host_Library/Class/HID/Src/usbh_hid.c **** 
 703:Middlewares/ST/STM32_USB_Host_Library/Class/HID/Src/usbh_hid.c ****   return USBH_CtlReq(phost, 0U, 0U);
 704:Middlewares/ST/STM32_USB_Host_Library/Class/HID/Src/usbh_hid.c **** 
 705:Middlewares/ST/STM32_USB_Host_Library/Class/HID/Src/usbh_hid.c **** }
 706:Middlewares/ST/STM32_USB_Host_Library/Class/HID/Src/usbh_hid.c **** 
 707:Middlewares/ST/STM32_USB_Host_Library/Class/HID/Src/usbh_hid.c **** /**
 708:Middlewares/ST/STM32_USB_Host_Library/Class/HID/Src/usbh_hid.c ****   * @brief  USBH_ParseHIDDesc
 709:Middlewares/ST/STM32_USB_Host_Library/Class/HID/Src/usbh_hid.c ****   *         This function Parse the HID descriptor
ARM GAS  C:\Users\union\AppData\Local\Temp\cc5SXdj6.s 			page 15


 710:Middlewares/ST/STM32_USB_Host_Library/Class/HID/Src/usbh_hid.c ****   * @param  desc: HID Descriptor
 711:Middlewares/ST/STM32_USB_Host_Library/Class/HID/Src/usbh_hid.c ****   * @param  buf: Buffer where the source descriptor is available
 712:Middlewares/ST/STM32_USB_Host_Library/Class/HID/Src/usbh_hid.c ****   * @retval None
 713:Middlewares/ST/STM32_USB_Host_Library/Class/HID/Src/usbh_hid.c ****   */
 714:Middlewares/ST/STM32_USB_Host_Library/Class/HID/Src/usbh_hid.c **** static void  USBH_HID_ParseHIDDesc(HID_DescTypeDef *desc, uint8_t *buf)
 715:Middlewares/ST/STM32_USB_Host_Library/Class/HID/Src/usbh_hid.c **** {
  85              		.loc 1 715 1 is_stmt 1 view -0
  86              		.cfi_startproc
  87              		@ args = 0, pretend = 0, frame = 8
  88              		@ frame_needed = 0, uses_anonymous_args = 0
  89              		.loc 1 715 1 is_stmt 0 view .LVU19
  90 0000 30B5     		push	{r4, r5, lr}
  91              	.LCFI0:
  92              		.cfi_def_cfa_offset 12
  93              		.cfi_offset 4, -12
  94              		.cfi_offset 5, -8
  95              		.cfi_offset 14, -4
  96 0002 83B0     		sub	sp, sp, #12
  97              	.LCFI1:
  98              		.cfi_def_cfa_offset 24
 716:Middlewares/ST/STM32_USB_Host_Library/Class/HID/Src/usbh_hid.c ****   USBH_DescHeader_t *pdesc = (USBH_DescHeader_t *)buf;
  99              		.loc 1 716 3 is_stmt 1 view .LVU20
 100              	.LVL5:
 717:Middlewares/ST/STM32_USB_Host_Library/Class/HID/Src/usbh_hid.c ****   uint16_t CfgDescLen;
 101              		.loc 1 717 3 view .LVU21
 718:Middlewares/ST/STM32_USB_Host_Library/Class/HID/Src/usbh_hid.c ****   uint16_t ptr;
 102              		.loc 1 718 3 view .LVU22
 719:Middlewares/ST/STM32_USB_Host_Library/Class/HID/Src/usbh_hid.c **** 
 720:Middlewares/ST/STM32_USB_Host_Library/Class/HID/Src/usbh_hid.c ****   CfgDescLen = LE16(buf + 2U);
 103              		.loc 1 720 3 view .LVU23
 104              		.loc 1 720 16 is_stmt 0 view .LVU24
 105 0004 8C78     		ldrb	r4, [r1, #2]	@ zero_extendqisi2
 106 0006 CB78     		ldrb	r3, [r1, #3]	@ zero_extendqisi2
 107              		.loc 1 720 14 view .LVU25
 108 0008 44EA0324 		orr	r4, r4, r3, lsl #8
 109              	.LVL6:
 721:Middlewares/ST/STM32_USB_Host_Library/Class/HID/Src/usbh_hid.c **** 
 722:Middlewares/ST/STM32_USB_Host_Library/Class/HID/Src/usbh_hid.c ****   if (CfgDescLen > USB_CONFIGURATION_DESC_SIZE)
 110              		.loc 1 722 3 is_stmt 1 view .LVU26
 111              		.loc 1 722 6 is_stmt 0 view .LVU27
 112 000c 092C     		cmp	r4, #9
 113 000e 23D9     		bls	.L4
 114 0010 0546     		mov	r5, r0
 115 0012 0846     		mov	r0, r1
 116              	.LVL7:
 723:Middlewares/ST/STM32_USB_Host_Library/Class/HID/Src/usbh_hid.c ****   {
 724:Middlewares/ST/STM32_USB_Host_Library/Class/HID/Src/usbh_hid.c ****     ptr = USB_LEN_CFG_DESC;
 117              		.loc 1 724 5 is_stmt 1 view .LVU28
 118              		.loc 1 724 9 is_stmt 0 view .LVU29
 119 0014 0923     		movs	r3, #9
 120 0016 ADF80630 		strh	r3, [sp, #6]	@ movhi
 725:Middlewares/ST/STM32_USB_Host_Library/Class/HID/Src/usbh_hid.c **** 
 726:Middlewares/ST/STM32_USB_Host_Library/Class/HID/Src/usbh_hid.c ****     while (ptr < CfgDescLen)
 121              		.loc 1 726 5 is_stmt 1 view .LVU30
 122              	.LVL8:
 123              	.L6:
 124              		.loc 1 726 16 is_stmt 0 view .LVU31
ARM GAS  C:\Users\union\AppData\Local\Temp\cc5SXdj6.s 			page 16


 125 001a BDF80630 		ldrh	r3, [sp, #6]
 126              		.loc 1 726 11 view .LVU32
 127 001e A342     		cmp	r3, r4
 128 0020 1AD2     		bcs	.L4
 727:Middlewares/ST/STM32_USB_Host_Library/Class/HID/Src/usbh_hid.c ****     {
 728:Middlewares/ST/STM32_USB_Host_Library/Class/HID/Src/usbh_hid.c ****       pdesc = USBH_GetNextDesc((uint8_t *)pdesc, &ptr);
 129              		.loc 1 728 7 is_stmt 1 view .LVU33
 130              		.loc 1 728 15 is_stmt 0 view .LVU34
 131 0022 0DF10601 		add	r1, sp, #6
 132 0026 FFF7FEFF 		bl	USBH_GetNextDesc
 133              	.LVL9:
 729:Middlewares/ST/STM32_USB_Host_Library/Class/HID/Src/usbh_hid.c **** 
 730:Middlewares/ST/STM32_USB_Host_Library/Class/HID/Src/usbh_hid.c ****       if (pdesc->bDescriptorType == USB_DESC_TYPE_HID)
 134              		.loc 1 730 7 is_stmt 1 view .LVU35
 135              		.loc 1 730 16 is_stmt 0 view .LVU36
 136 002a 4378     		ldrb	r3, [r0, #1]	@ zero_extendqisi2
 137              		.loc 1 730 10 view .LVU37
 138 002c 212B     		cmp	r3, #33
 139 002e F4D1     		bne	.L6
 731:Middlewares/ST/STM32_USB_Host_Library/Class/HID/Src/usbh_hid.c ****       {
 732:Middlewares/ST/STM32_USB_Host_Library/Class/HID/Src/usbh_hid.c ****         desc->bLength = *(uint8_t *)((uint8_t *)pdesc + 0U);
 140              		.loc 1 732 9 is_stmt 1 view .LVU38
 141              		.loc 1 732 25 is_stmt 0 view .LVU39
 142 0030 0378     		ldrb	r3, [r0]	@ zero_extendqisi2
 143              		.loc 1 732 23 view .LVU40
 144 0032 2B70     		strb	r3, [r5]
 733:Middlewares/ST/STM32_USB_Host_Library/Class/HID/Src/usbh_hid.c ****         desc->bDescriptorType = *(uint8_t *)((uint8_t *)pdesc + 1U);
 145              		.loc 1 733 9 is_stmt 1 view .LVU41
 146              		.loc 1 733 31 is_stmt 0 view .LVU42
 147 0034 4378     		ldrb	r3, [r0, #1]	@ zero_extendqisi2
 148 0036 6B70     		strb	r3, [r5, #1]
 734:Middlewares/ST/STM32_USB_Host_Library/Class/HID/Src/usbh_hid.c ****         desc->bcdHID = LE16((uint8_t *)pdesc + 2U);
 149              		.loc 1 734 9 is_stmt 1 view .LVU43
 150              		.loc 1 734 24 is_stmt 0 view .LVU44
 151 0038 8378     		ldrb	r3, [r0, #2]	@ zero_extendqisi2
 152 003a C278     		ldrb	r2, [r0, #3]	@ zero_extendqisi2
 153 003c 43EA0223 		orr	r3, r3, r2, lsl #8
 154              		.loc 1 734 22 view .LVU45
 155 0040 6B80     		strh	r3, [r5, #2]	@ movhi
 735:Middlewares/ST/STM32_USB_Host_Library/Class/HID/Src/usbh_hid.c ****         desc->bCountryCode = *(uint8_t *)((uint8_t *)pdesc + 4U);
 156              		.loc 1 735 9 is_stmt 1 view .LVU46
 157              		.loc 1 735 28 is_stmt 0 view .LVU47
 158 0042 0379     		ldrb	r3, [r0, #4]	@ zero_extendqisi2
 159 0044 2B71     		strb	r3, [r5, #4]
 736:Middlewares/ST/STM32_USB_Host_Library/Class/HID/Src/usbh_hid.c ****         desc->bNumDescriptors = *(uint8_t *)((uint8_t *)pdesc + 5U);
 160              		.loc 1 736 9 is_stmt 1 view .LVU48
 161              		.loc 1 736 31 is_stmt 0 view .LVU49
 162 0046 4379     		ldrb	r3, [r0, #5]	@ zero_extendqisi2
 163 0048 6B71     		strb	r3, [r5, #5]
 737:Middlewares/ST/STM32_USB_Host_Library/Class/HID/Src/usbh_hid.c ****         desc->bReportDescriptorType = *(uint8_t *)((uint8_t *)pdesc + 6U);
 164              		.loc 1 737 9 is_stmt 1 view .LVU50
 165              		.loc 1 737 37 is_stmt 0 view .LVU51
 166 004a 8379     		ldrb	r3, [r0, #6]	@ zero_extendqisi2
 167 004c AB71     		strb	r3, [r5, #6]
 738:Middlewares/ST/STM32_USB_Host_Library/Class/HID/Src/usbh_hid.c ****         desc->wItemLength = LE16((uint8_t *)pdesc + 7U);
 168              		.loc 1 738 9 is_stmt 1 view .LVU52
 169              		.loc 1 738 29 is_stmt 0 view .LVU53
ARM GAS  C:\Users\union\AppData\Local\Temp\cc5SXdj6.s 			page 17


 170 004e C379     		ldrb	r3, [r0, #7]	@ zero_extendqisi2
 171 0050 027A     		ldrb	r2, [r0, #8]	@ zero_extendqisi2
 172 0052 43EA0223 		orr	r3, r3, r2, lsl #8
 173              		.loc 1 738 27 view .LVU54
 174 0056 2B81     		strh	r3, [r5, #8]	@ movhi
 739:Middlewares/ST/STM32_USB_Host_Library/Class/HID/Src/usbh_hid.c ****         break;
 175              		.loc 1 739 9 is_stmt 1 view .LVU55
 176              	.LVL10:
 177              	.L4:
 740:Middlewares/ST/STM32_USB_Host_Library/Class/HID/Src/usbh_hid.c ****       }
 741:Middlewares/ST/STM32_USB_Host_Library/Class/HID/Src/usbh_hid.c ****     }
 742:Middlewares/ST/STM32_USB_Host_Library/Class/HID/Src/usbh_hid.c ****   }
 743:Middlewares/ST/STM32_USB_Host_Library/Class/HID/Src/usbh_hid.c **** }
 178              		.loc 1 743 1 is_stmt 0 view .LVU56
 179 0058 03B0     		add	sp, sp, #12
 180              	.LCFI2:
 181              		.cfi_def_cfa_offset 12
 182              		@ sp needed
 183 005a 30BD     		pop	{r4, r5, pc}
 184              		.loc 1 743 1 view .LVU57
 185              		.cfi_endproc
 186              	.LFE146:
 188              		.section	.text.USBH_HID_InterfaceDeInit,"ax",%progbits
 189              		.align	1
 190              		.syntax unified
 191              		.thumb
 192              		.thumb_func
 193              		.fpu fpv4-sp-d16
 195              	USBH_HID_InterfaceDeInit:
 196              	.LVL11:
 197              	.LFB136:
 258:Middlewares/ST/STM32_USB_Host_Library/Class/HID/Src/usbh_hid.c ****   HID_HandleTypeDef *HID_Handle = (HID_HandleTypeDef *) phost->pActiveClass->pData;
 198              		.loc 1 258 1 is_stmt 1 view -0
 199              		.cfi_startproc
 200              		@ args = 0, pretend = 0, frame = 0
 201              		@ frame_needed = 0, uses_anonymous_args = 0
 258:Middlewares/ST/STM32_USB_Host_Library/Class/HID/Src/usbh_hid.c ****   HID_HandleTypeDef *HID_Handle = (HID_HandleTypeDef *) phost->pActiveClass->pData;
 202              		.loc 1 258 1 is_stmt 0 view .LVU59
 203 0000 38B5     		push	{r3, r4, r5, lr}
 204              	.LCFI3:
 205              		.cfi_def_cfa_offset 16
 206              		.cfi_offset 3, -16
 207              		.cfi_offset 4, -12
 208              		.cfi_offset 5, -8
 209              		.cfi_offset 14, -4
 210 0002 0446     		mov	r4, r0
 259:Middlewares/ST/STM32_USB_Host_Library/Class/HID/Src/usbh_hid.c **** 
 211              		.loc 1 259 3 is_stmt 1 view .LVU60
 259:Middlewares/ST/STM32_USB_Host_Library/Class/HID/Src/usbh_hid.c **** 
 212              		.loc 1 259 62 is_stmt 0 view .LVU61
 213 0004 D0F87C33 		ldr	r3, [r0, #892]
 259:Middlewares/ST/STM32_USB_Host_Library/Class/HID/Src/usbh_hid.c **** 
 214              		.loc 1 259 22 view .LVU62
 215 0008 DD69     		ldr	r5, [r3, #28]
 216              	.LVL12:
 261:Middlewares/ST/STM32_USB_Host_Library/Class/HID/Src/usbh_hid.c ****   {
 217              		.loc 1 261 3 is_stmt 1 view .LVU63
ARM GAS  C:\Users\union\AppData\Local\Temp\cc5SXdj6.s 			page 18


 261:Middlewares/ST/STM32_USB_Host_Library/Class/HID/Src/usbh_hid.c ****   {
 218              		.loc 1 261 17 is_stmt 0 view .LVU64
 219 000a 6978     		ldrb	r1, [r5, #1]	@ zero_extendqisi2
 261:Middlewares/ST/STM32_USB_Host_Library/Class/HID/Src/usbh_hid.c ****   {
 220              		.loc 1 261 6 view .LVU65
 221 000c 69B9     		cbnz	r1, .L14
 222              	.LVL13:
 223              	.L10:
 268:Middlewares/ST/STM32_USB_Host_Library/Class/HID/Src/usbh_hid.c ****   {
 224              		.loc 1 268 3 is_stmt 1 view .LVU66
 268:Middlewares/ST/STM32_USB_Host_Library/Class/HID/Src/usbh_hid.c ****   {
 225              		.loc 1 268 17 is_stmt 0 view .LVU67
 226 000e 2978     		ldrb	r1, [r5]	@ zero_extendqisi2
 268:Middlewares/ST/STM32_USB_Host_Library/Class/HID/Src/usbh_hid.c ****   {
 227              		.loc 1 268 6 view .LVU68
 228 0010 A1B9     		cbnz	r1, .L15
 229              	.L11:
 275:Middlewares/ST/STM32_USB_Host_Library/Class/HID/Src/usbh_hid.c ****   {
 230              		.loc 1 275 3 is_stmt 1 view .LVU69
 275:Middlewares/ST/STM32_USB_Host_Library/Class/HID/Src/usbh_hid.c ****   {
 231              		.loc 1 275 12 is_stmt 0 view .LVU70
 232 0012 D4F87C33 		ldr	r3, [r4, #892]
 275:Middlewares/ST/STM32_USB_Host_Library/Class/HID/Src/usbh_hid.c ****   {
 233              		.loc 1 275 26 view .LVU71
 234 0016 D869     		ldr	r0, [r3, #28]
 275:Middlewares/ST/STM32_USB_Host_Library/Class/HID/Src/usbh_hid.c ****   {
 235              		.loc 1 275 6 view .LVU72
 236 0018 28B1     		cbz	r0, .L12
 277:Middlewares/ST/STM32_USB_Host_Library/Class/HID/Src/usbh_hid.c ****     phost->pActiveClass->pData = 0U;
 237              		.loc 1 277 5 is_stmt 1 view .LVU73
 238 001a FFF7FEFF 		bl	free
 239              	.LVL14:
 278:Middlewares/ST/STM32_USB_Host_Library/Class/HID/Src/usbh_hid.c ****   }
 240              		.loc 1 278 5 view .LVU74
 278:Middlewares/ST/STM32_USB_Host_Library/Class/HID/Src/usbh_hid.c ****   }
 241              		.loc 1 278 10 is_stmt 0 view .LVU75
 242 001e D4F87C33 		ldr	r3, [r4, #892]
 278:Middlewares/ST/STM32_USB_Host_Library/Class/HID/Src/usbh_hid.c ****   }
 243              		.loc 1 278 32 view .LVU76
 244 0022 0022     		movs	r2, #0
 245 0024 DA61     		str	r2, [r3, #28]
 246              	.L12:
 281:Middlewares/ST/STM32_USB_Host_Library/Class/HID/Src/usbh_hid.c **** }
 247              		.loc 1 281 3 is_stmt 1 view .LVU77
 282:Middlewares/ST/STM32_USB_Host_Library/Class/HID/Src/usbh_hid.c **** 
 248              		.loc 1 282 1 is_stmt 0 view .LVU78
 249 0026 0020     		movs	r0, #0
 250 0028 38BD     		pop	{r3, r4, r5, pc}
 251              	.LVL15:
 252              	.L14:
 263:Middlewares/ST/STM32_USB_Host_Library/Class/HID/Src/usbh_hid.c ****     USBH_FreePipe(phost, HID_Handle->InPipe);
 253              		.loc 1 263 5 is_stmt 1 view .LVU79
 254 002a FFF7FEFF 		bl	USBH_ClosePipe
 255              	.LVL16:
 264:Middlewares/ST/STM32_USB_Host_Library/Class/HID/Src/usbh_hid.c ****     HID_Handle->InPipe = 0U;     /* Reset the pipe as Free */
 256              		.loc 1 264 5 view .LVU80
 257 002e 6978     		ldrb	r1, [r5, #1]	@ zero_extendqisi2
ARM GAS  C:\Users\union\AppData\Local\Temp\cc5SXdj6.s 			page 19


 258 0030 2046     		mov	r0, r4
 259 0032 FFF7FEFF 		bl	USBH_FreePipe
 260              	.LVL17:
 265:Middlewares/ST/STM32_USB_Host_Library/Class/HID/Src/usbh_hid.c ****   }
 261              		.loc 1 265 5 view .LVU81
 265:Middlewares/ST/STM32_USB_Host_Library/Class/HID/Src/usbh_hid.c ****   }
 262              		.loc 1 265 24 is_stmt 0 view .LVU82
 263 0036 0023     		movs	r3, #0
 264 0038 6B70     		strb	r3, [r5, #1]
 265 003a E8E7     		b	.L10
 266              	.L15:
 270:Middlewares/ST/STM32_USB_Host_Library/Class/HID/Src/usbh_hid.c ****     USBH_FreePipe(phost, HID_Handle->OutPipe);
 267              		.loc 1 270 5 is_stmt 1 view .LVU83
 268 003c 2046     		mov	r0, r4
 269 003e FFF7FEFF 		bl	USBH_ClosePipe
 270              	.LVL18:
 271:Middlewares/ST/STM32_USB_Host_Library/Class/HID/Src/usbh_hid.c ****     HID_Handle->OutPipe = 0U;     /* Reset the pipe as Free */
 271              		.loc 1 271 5 view .LVU84
 272 0042 2978     		ldrb	r1, [r5]	@ zero_extendqisi2
 273 0044 2046     		mov	r0, r4
 274 0046 FFF7FEFF 		bl	USBH_FreePipe
 275              	.LVL19:
 272:Middlewares/ST/STM32_USB_Host_Library/Class/HID/Src/usbh_hid.c ****   }
 276              		.loc 1 272 5 view .LVU85
 272:Middlewares/ST/STM32_USB_Host_Library/Class/HID/Src/usbh_hid.c ****   }
 277              		.loc 1 272 25 is_stmt 0 view .LVU86
 278 004a 0023     		movs	r3, #0
 279 004c 2B70     		strb	r3, [r5]
 280 004e E0E7     		b	.L11
 281              		.cfi_endproc
 282              	.LFE136:
 284              		.section	.text.USBH_HID_InterfaceInit,"ax",%progbits
 285              		.align	1
 286              		.syntax unified
 287              		.thumb
 288              		.thumb_func
 289              		.fpu fpv4-sp-d16
 291              	USBH_HID_InterfaceInit:
 292              	.LVL20:
 293              	.LFB135:
 138:Middlewares/ST/STM32_USB_Host_Library/Class/HID/Src/usbh_hid.c ****   USBH_StatusTypeDef status;
 294              		.loc 1 138 1 is_stmt 1 view -0
 295              		.cfi_startproc
 296              		@ args = 0, pretend = 0, frame = 0
 297              		@ frame_needed = 0, uses_anonymous_args = 0
 138:Middlewares/ST/STM32_USB_Host_Library/Class/HID/Src/usbh_hid.c ****   USBH_StatusTypeDef status;
 298              		.loc 1 138 1 is_stmt 0 view .LVU88
 299 0000 2DE9F043 		push	{r4, r5, r6, r7, r8, r9, lr}
 300              	.LCFI4:
 301              		.cfi_def_cfa_offset 28
 302              		.cfi_offset 4, -28
 303              		.cfi_offset 5, -24
 304              		.cfi_offset 6, -20
 305              		.cfi_offset 7, -16
 306              		.cfi_offset 8, -12
 307              		.cfi_offset 9, -8
 308              		.cfi_offset 14, -4
ARM GAS  C:\Users\union\AppData\Local\Temp\cc5SXdj6.s 			page 20


 309 0004 85B0     		sub	sp, sp, #20
 310              	.LCFI5:
 311              		.cfi_def_cfa_offset 48
 312 0006 0446     		mov	r4, r0
 139:Middlewares/ST/STM32_USB_Host_Library/Class/HID/Src/usbh_hid.c ****   HID_HandleTypeDef *HID_Handle;
 313              		.loc 1 139 3 is_stmt 1 view .LVU89
 140:Middlewares/ST/STM32_USB_Host_Library/Class/HID/Src/usbh_hid.c ****   uint8_t max_ep;
 314              		.loc 1 140 3 view .LVU90
 141:Middlewares/ST/STM32_USB_Host_Library/Class/HID/Src/usbh_hid.c ****   uint8_t num = 0U;
 315              		.loc 1 141 3 view .LVU91
 142:Middlewares/ST/STM32_USB_Host_Library/Class/HID/Src/usbh_hid.c ****   uint8_t interface;
 316              		.loc 1 142 3 view .LVU92
 317              	.LVL21:
 143:Middlewares/ST/STM32_USB_Host_Library/Class/HID/Src/usbh_hid.c **** 
 318              		.loc 1 143 3 view .LVU93
 145:Middlewares/ST/STM32_USB_Host_Library/Class/HID/Src/usbh_hid.c ****     interface = USBH_FindInterface(phost, 
 319              		.loc 1 145 3 view .LVU94
 145:Middlewares/ST/STM32_USB_Host_Library/Class/HID/Src/usbh_hid.c ****     interface = USBH_FindInterface(phost, 
 320              		.loc 1 145 3 view .LVU95
 321 0008 7348     		ldr	r0, .L36
 322              	.LVL22:
 145:Middlewares/ST/STM32_USB_Host_Library/Class/HID/Src/usbh_hid.c ****     interface = USBH_FindInterface(phost, 
 323              		.loc 1 145 3 is_stmt 0 view .LVU96
 324 000a FFF7FEFF 		bl	printf
 325              	.LVL23:
 145:Middlewares/ST/STM32_USB_Host_Library/Class/HID/Src/usbh_hid.c ****     interface = USBH_FindInterface(phost, 
 326              		.loc 1 145 3 is_stmt 1 view .LVU97
 327 000e 7348     		ldr	r0, .L36+4
 328 0010 FFF7FEFF 		bl	puts
 329              	.LVL24:
 145:Middlewares/ST/STM32_USB_Host_Library/Class/HID/Src/usbh_hid.c ****     interface = USBH_FindInterface(phost, 
 330              		.loc 1 145 3 view .LVU98
 331 0014 0A20     		movs	r0, #10
 332 0016 FFF7FEFF 		bl	putchar
 333              	.LVL25:
 146:Middlewares/ST/STM32_USB_Host_Library/Class/HID/Src/usbh_hid.c ****           phost->pActiveClass->ClassCode, HID_BOOT_CODE, 0xFFU);
 334              		.loc 1 146 5 view .LVU99
 147:Middlewares/ST/STM32_USB_Host_Library/Class/HID/Src/usbh_hid.c ****   
 335              		.loc 1 147 16 is_stmt 0 view .LVU100
 336 001a D4F87C13 		ldr	r1, [r4, #892]
 146:Middlewares/ST/STM32_USB_Host_Library/Class/HID/Src/usbh_hid.c ****           phost->pActiveClass->ClassCode, HID_BOOT_CODE, 0xFFU);
 337              		.loc 1 146 17 view .LVU101
 338 001e FF23     		movs	r3, #255
 339 0020 0122     		movs	r2, #1
 340 0022 0979     		ldrb	r1, [r1, #4]	@ zero_extendqisi2
 341 0024 2046     		mov	r0, r4
 342 0026 FFF7FEFF 		bl	USBH_FindInterface
 343              	.LVL26:
 344 002a 0646     		mov	r6, r0
 345              	.LVL27:
 149:Middlewares/ST/STM32_USB_Host_Library/Class/HID/Src/usbh_hid.c ****   {
 346              		.loc 1 149 3 is_stmt 1 view .LVU102
 149:Middlewares/ST/STM32_USB_Host_Library/Class/HID/Src/usbh_hid.c ****   {
 347              		.loc 1 149 6 is_stmt 0 view .LVU103
 348 002c 0128     		cmp	r0, #1
 349 002e 0AD9     		bls	.L17
 151:Middlewares/ST/STM32_USB_Host_Library/Class/HID/Src/usbh_hid.c ****           phost->pActiveClass->ClassCode, HID_GAMEPAD_BOOT_CODE, 0xFFU);
ARM GAS  C:\Users\union\AppData\Local\Temp\cc5SXdj6.s 			page 21


 350              		.loc 1 151 5 is_stmt 1 view .LVU104
 152:Middlewares/ST/STM32_USB_Host_Library/Class/HID/Src/usbh_hid.c ****     if ((interface == 0xFFU) || (interface >= USBH_MAX_NUM_INTERFACES)) /* No Valid Interface */
 351              		.loc 1 152 16 is_stmt 0 view .LVU105
 352 0030 D4F87C13 		ldr	r1, [r4, #892]
 151:Middlewares/ST/STM32_USB_Host_Library/Class/HID/Src/usbh_hid.c ****           phost->pActiveClass->ClassCode, HID_GAMEPAD_BOOT_CODE, 0xFFU);
 353              		.loc 1 151 17 view .LVU106
 354 0034 FF23     		movs	r3, #255
 355 0036 0022     		movs	r2, #0
 356 0038 0979     		ldrb	r1, [r1, #4]	@ zero_extendqisi2
 357 003a 2046     		mov	r0, r4
 358              	.LVL28:
 151:Middlewares/ST/STM32_USB_Host_Library/Class/HID/Src/usbh_hid.c ****           phost->pActiveClass->ClassCode, HID_GAMEPAD_BOOT_CODE, 0xFFU);
 359              		.loc 1 151 17 view .LVU107
 360 003c FFF7FEFF 		bl	USBH_FindInterface
 361              	.LVL29:
 362 0040 0646     		mov	r6, r0
 363              	.LVL30:
 153:Middlewares/ST/STM32_USB_Host_Library/Class/HID/Src/usbh_hid.c ****     {
 364              		.loc 1 153 5 is_stmt 1 view .LVU108
 153:Middlewares/ST/STM32_USB_Host_Library/Class/HID/Src/usbh_hid.c ****     {
 365              		.loc 1 153 8 is_stmt 0 view .LVU109
 366 0042 0128     		cmp	r0, #1
 367 0044 4AD8     		bhi	.L31
 368              	.L17:
 369              	.LVL31:
 160:Middlewares/ST/STM32_USB_Host_Library/Class/HID/Src/usbh_hid.c **** 
 370              		.loc 1 160 3 is_stmt 1 view .LVU110
 160:Middlewares/ST/STM32_USB_Host_Library/Class/HID/Src/usbh_hid.c **** 
 371              		.loc 1 160 12 is_stmt 0 view .LVU111
 372 0046 3146     		mov	r1, r6
 373 0048 2046     		mov	r0, r4
 374 004a FFF7FEFF 		bl	USBH_SelectInterface
 375              	.LVL32:
 162:Middlewares/ST/STM32_USB_Host_Library/Class/HID/Src/usbh_hid.c ****   {
 376              		.loc 1 162 3 is_stmt 1 view .LVU112
 162:Middlewares/ST/STM32_USB_Host_Library/Class/HID/Src/usbh_hid.c ****   {
 377              		.loc 1 162 6 is_stmt 0 view .LVU113
 378 004e 8046     		mov	r8, r0
 379 0050 0028     		cmp	r0, #0
 380 0052 40F0BA80 		bne	.L29
 167:Middlewares/ST/STM32_USB_Host_Library/Class/HID/Src/usbh_hid.c ****   HID_Handle = (HID_HandleTypeDef *) phost->pActiveClass->pData;
 381              		.loc 1 167 3 is_stmt 1 view .LVU114
 167:Middlewares/ST/STM32_USB_Host_Library/Class/HID/Src/usbh_hid.c ****   HID_Handle = (HID_HandleTypeDef *) phost->pActiveClass->pData;
 382              		.loc 1 167 8 is_stmt 0 view .LVU115
 383 0056 D4F87C53 		ldr	r5, [r4, #892]
 167:Middlewares/ST/STM32_USB_Host_Library/Class/HID/Src/usbh_hid.c ****   HID_Handle = (HID_HandleTypeDef *) phost->pActiveClass->pData;
 384              		.loc 1 167 53 view .LVU116
 385 005a 3420     		movs	r0, #52
 386              	.LVL33:
 167:Middlewares/ST/STM32_USB_Host_Library/Class/HID/Src/usbh_hid.c ****   HID_Handle = (HID_HandleTypeDef *) phost->pActiveClass->pData;
 387              		.loc 1 167 53 view .LVU117
 388 005c FFF7FEFF 		bl	malloc
 389              	.LVL34:
 167:Middlewares/ST/STM32_USB_Host_Library/Class/HID/Src/usbh_hid.c ****   HID_Handle = (HID_HandleTypeDef *) phost->pActiveClass->pData;
 390              		.loc 1 167 30 view .LVU118
 391 0060 E861     		str	r0, [r5, #28]
 168:Middlewares/ST/STM32_USB_Host_Library/Class/HID/Src/usbh_hid.c **** 
ARM GAS  C:\Users\union\AppData\Local\Temp\cc5SXdj6.s 			page 22


 392              		.loc 1 168 3 is_stmt 1 view .LVU119
 168:Middlewares/ST/STM32_USB_Host_Library/Class/HID/Src/usbh_hid.c **** 
 393              		.loc 1 168 43 is_stmt 0 view .LVU120
 394 0062 D4F87C33 		ldr	r3, [r4, #892]
 168:Middlewares/ST/STM32_USB_Host_Library/Class/HID/Src/usbh_hid.c **** 
 395              		.loc 1 168 14 view .LVU121
 396 0066 DD69     		ldr	r5, [r3, #28]
 397              	.LVL35:
 170:Middlewares/ST/STM32_USB_Host_Library/Class/HID/Src/usbh_hid.c ****   {
 398              		.loc 1 170 3 is_stmt 1 view .LVU122
 170:Middlewares/ST/STM32_USB_Host_Library/Class/HID/Src/usbh_hid.c ****   {
 399              		.loc 1 170 6 is_stmt 0 view .LVU123
 400 0068 002D     		cmp	r5, #0
 401 006a 46D0     		beq	.L32
 177:Middlewares/ST/STM32_USB_Host_Library/Class/HID/Src/usbh_hid.c **** 
 402              		.loc 1 177 3 is_stmt 1 view .LVU124
 403 006c 3422     		movs	r2, #52
 404 006e 0021     		movs	r1, #0
 405 0070 2846     		mov	r0, r5
 406 0072 FFF7FEFF 		bl	memset
 407              	.LVL36:
 179:Middlewares/ST/STM32_USB_Host_Library/Class/HID/Src/usbh_hid.c **** 
 408              		.loc 1 179 3 view .LVU125
 179:Middlewares/ST/STM32_USB_Host_Library/Class/HID/Src/usbh_hid.c **** 
 409              		.loc 1 179 21 is_stmt 0 view .LVU126
 410 0076 0723     		movs	r3, #7
 411 0078 AB70     		strb	r3, [r5, #2]
 182:Middlewares/ST/STM32_USB_Host_Library/Class/HID/Src/usbh_hid.c ****   {
 412              		.loc 1 182 3 is_stmt 1 view .LVU127
 182:Middlewares/ST/STM32_USB_Host_Library/Class/HID/Src/usbh_hid.c ****   {
 413              		.loc 1 182 48 is_stmt 0 view .LVU128
 414 007a B146     		mov	r9, r6
 415 007c 1A23     		movs	r3, #26
 416 007e 03FB0646 		mla	r6, r3, r6, r4
 417              	.LVL37:
 182:Middlewares/ST/STM32_USB_Host_Library/Class/HID/Src/usbh_hid.c ****   {
 418              		.loc 1 182 48 view .LVU129
 419 0082 96F84933 		ldrb	r3, [r6, #841]	@ zero_extendqisi2
 182:Middlewares/ST/STM32_USB_Host_Library/Class/HID/Src/usbh_hid.c ****   {
 420              		.loc 1 182 6 view .LVU130
 421 0086 012B     		cmp	r3, #1
 422 0088 43D0     		beq	.L33
 187:Middlewares/ST/STM32_USB_Host_Library/Class/HID/Src/usbh_hid.c ****   {
 423              		.loc 1 187 8 is_stmt 1 view .LVU131
 187:Middlewares/ST/STM32_USB_Host_Library/Class/HID/Src/usbh_hid.c ****   {
 424              		.loc 1 187 11 is_stmt 0 view .LVU132
 425 008a 022B     		cmp	r3, #2
 426 008c 4AD0     		beq	.L34
 192:Middlewares/ST/STM32_USB_Host_Library/Class/HID/Src/usbh_hid.c ****   {
 427              		.loc 1 192 8 is_stmt 1 view .LVU133
 192:Middlewares/ST/STM32_USB_Host_Library/Class/HID/Src/usbh_hid.c ****   {
 428              		.loc 1 192 11 is_stmt 0 view .LVU134
 429 008e 002B     		cmp	r3, #0
 430 0090 51D1     		bne	.L23
 194:Middlewares/ST/STM32_USB_Host_Library/Class/HID/Src/usbh_hid.c ****     HID_Handle->Init = USBH_HID_KeybdInit;
 431              		.loc 1 194 5 is_stmt 1 view .LVU135
 194:Middlewares/ST/STM32_USB_Host_Library/Class/HID/Src/usbh_hid.c ****     HID_Handle->Init = USBH_HID_KeybdInit;
ARM GAS  C:\Users\union\AppData\Local\Temp\cc5SXdj6.s 			page 23


 432              		.loc 1 194 5 view .LVU136
 433 0092 5348     		ldr	r0, .L36+8
 434 0094 FFF7FEFF 		bl	printf
 435              	.LVL38:
 194:Middlewares/ST/STM32_USB_Host_Library/Class/HID/Src/usbh_hid.c ****     HID_Handle->Init = USBH_HID_KeybdInit;
 436              		.loc 1 194 5 view .LVU137
 437 0098 0A20     		movs	r0, #10
 438 009a FFF7FEFF 		bl	putchar
 439              	.LVL39:
 195:Middlewares/ST/STM32_USB_Host_Library/Class/HID/Src/usbh_hid.c ****   }
 440              		.loc 1 195 5 view .LVU138
 195:Middlewares/ST/STM32_USB_Host_Library/Class/HID/Src/usbh_hid.c ****   }
 441              		.loc 1 195 22 is_stmt 0 view .LVU139
 442 009e 514B     		ldr	r3, .L36+12
 443 00a0 2B63     		str	r3, [r5, #48]
 444              	.L21:
 203:Middlewares/ST/STM32_USB_Host_Library/Class/HID/Src/usbh_hid.c ****   HID_Handle->ctl_state = HID_REQ_INIT;
 445              		.loc 1 203 3 is_stmt 1 view .LVU140
 203:Middlewares/ST/STM32_USB_Host_Library/Class/HID/Src/usbh_hid.c ****   HID_Handle->ctl_state = HID_REQ_INIT;
 446              		.loc 1 203 25 is_stmt 0 view .LVU141
 447 00a2 0023     		movs	r3, #0
 448 00a4 AB70     		strb	r3, [r5, #2]
 204:Middlewares/ST/STM32_USB_Host_Library/Class/HID/Src/usbh_hid.c ****   HID_Handle->ep_addr   = phost->device.CfgDesc.Itf_Desc[interface].Ep_Desc[0].bEndpointAddress;
 449              		.loc 1 204 3 is_stmt 1 view .LVU142
 204:Middlewares/ST/STM32_USB_Host_Library/Class/HID/Src/usbh_hid.c ****   HID_Handle->ep_addr   = phost->device.CfgDesc.Itf_Desc[interface].Ep_Desc[0].bEndpointAddress;
 450              		.loc 1 204 25 is_stmt 0 view .LVU143
 451 00a6 6B71     		strb	r3, [r5, #5]
 205:Middlewares/ST/STM32_USB_Host_Library/Class/HID/Src/usbh_hid.c ****   HID_Handle->length    = phost->device.CfgDesc.Itf_Desc[interface].Ep_Desc[0].wMaxPacketSize;
 452              		.loc 1 205 3 is_stmt 1 view .LVU144
 205:Middlewares/ST/STM32_USB_Host_Library/Class/HID/Src/usbh_hid.c ****   HID_Handle->length    = phost->device.CfgDesc.Itf_Desc[interface].Ep_Desc[0].wMaxPacketSize;
 453              		.loc 1 205 79 is_stmt 0 view .LVU145
 454 00a8 1A23     		movs	r3, #26
 455 00aa 03FB0943 		mla	r3, r3, r9, r4
 456 00ae 93F84E23 		ldrb	r2, [r3, #846]	@ zero_extendqisi2
 205:Middlewares/ST/STM32_USB_Host_Library/Class/HID/Src/usbh_hid.c ****   HID_Handle->length    = phost->device.CfgDesc.Itf_Desc[interface].Ep_Desc[0].wMaxPacketSize;
 457              		.loc 1 205 25 view .LVU146
 458 00b2 AA76     		strb	r2, [r5, #26]
 206:Middlewares/ST/STM32_USB_Host_Library/Class/HID/Src/usbh_hid.c ****   HID_Handle->poll      = phost->device.CfgDesc.Itf_Desc[interface].Ep_Desc[0].bInterval;
 459              		.loc 1 206 3 is_stmt 1 view .LVU147
 206:Middlewares/ST/STM32_USB_Host_Library/Class/HID/Src/usbh_hid.c ****   HID_Handle->poll      = phost->device.CfgDesc.Itf_Desc[interface].Ep_Desc[0].bInterval;
 460              		.loc 1 206 79 is_stmt 0 view .LVU148
 461 00b4 B3F85023 		ldrh	r2, [r3, #848]
 206:Middlewares/ST/STM32_USB_Host_Library/Class/HID/Src/usbh_hid.c ****   HID_Handle->poll      = phost->device.CfgDesc.Itf_Desc[interface].Ep_Desc[0].bInterval;
 462              		.loc 1 206 25 view .LVU149
 463 00b8 2A83     		strh	r2, [r5, #24]	@ movhi
 207:Middlewares/ST/STM32_USB_Host_Library/Class/HID/Src/usbh_hid.c **** 
 464              		.loc 1 207 3 is_stmt 1 view .LVU150
 207:Middlewares/ST/STM32_USB_Host_Library/Class/HID/Src/usbh_hid.c **** 
 465              		.loc 1 207 79 is_stmt 0 view .LVU151
 466 00ba 93F85233 		ldrb	r3, [r3, #850]	@ zero_extendqisi2
 207:Middlewares/ST/STM32_USB_Host_Library/Class/HID/Src/usbh_hid.c **** 
 467              		.loc 1 207 25 view .LVU152
 468 00be AB83     		strh	r3, [r5, #28]	@ movhi
 209:Middlewares/ST/STM32_USB_Host_Library/Class/HID/Src/usbh_hid.c ****   {
 469              		.loc 1 209 3 is_stmt 1 view .LVU153
 209:Middlewares/ST/STM32_USB_Host_Library/Class/HID/Src/usbh_hid.c ****   {
 470              		.loc 1 209 6 is_stmt 0 view .LVU154
ARM GAS  C:\Users\union\AppData\Local\Temp\cc5SXdj6.s 			page 24


 471 00c0 092B     		cmp	r3, #9
 472 00c2 01D8     		bhi	.L24
 211:Middlewares/ST/STM32_USB_Host_Library/Class/HID/Src/usbh_hid.c ****   }
 473              		.loc 1 211 5 is_stmt 1 view .LVU155
 211:Middlewares/ST/STM32_USB_Host_Library/Class/HID/Src/usbh_hid.c ****   }
 474              		.loc 1 211 22 is_stmt 0 view .LVU156
 475 00c4 0A23     		movs	r3, #10
 476 00c6 AB83     		strh	r3, [r5, #28]	@ movhi
 477              	.L24:
 217:Middlewares/ST/STM32_USB_Host_Library/Class/HID/Src/usbh_hid.c ****              phost->device.CfgDesc.Itf_Desc[interface].bNumEndpoints : USBH_MAX_NUM_ENDPOINTS);
 478              		.loc 1 217 3 is_stmt 1 view .LVU157
 217:Middlewares/ST/STM32_USB_Host_Library/Class/HID/Src/usbh_hid.c ****              phost->device.CfgDesc.Itf_Desc[interface].bNumEndpoints : USBH_MAX_NUM_ENDPOINTS);
 479              		.loc 1 217 55 is_stmt 0 view .LVU158
 480 00c8 1A23     		movs	r3, #26
 481 00ca 03FB0943 		mla	r3, r3, r9, r4
 482 00ce 93F84673 		ldrb	r7, [r3, #838]	@ zero_extendqisi2
 217:Middlewares/ST/STM32_USB_Host_Library/Class/HID/Src/usbh_hid.c ****              phost->device.CfgDesc.Itf_Desc[interface].bNumEndpoints : USBH_MAX_NUM_ENDPOINTS);
 483              		.loc 1 217 10 view .LVU159
 484 00d2 022F     		cmp	r7, #2
 485 00d4 28BF     		it	cs
 486 00d6 0227     		movcs	r7, #2
 487              	.LVL40:
 222:Middlewares/ST/STM32_USB_Host_Library/Class/HID/Src/usbh_hid.c ****   {
 488              		.loc 1 222 3 is_stmt 1 view .LVU160
 222:Middlewares/ST/STM32_USB_Host_Library/Class/HID/Src/usbh_hid.c ****   {
 489              		.loc 1 222 12 is_stmt 0 view .LVU161
 490 00d8 0026     		movs	r6, #0
 222:Middlewares/ST/STM32_USB_Host_Library/Class/HID/Src/usbh_hid.c ****   {
 491              		.loc 1 222 3 view .LVU162
 492 00da 4FE0     		b	.L25
 493              	.LVL41:
 494              	.L31:
 155:Middlewares/ST/STM32_USB_Host_Library/Class/HID/Src/usbh_hid.c ****       return USBH_FAIL;
 495              		.loc 1 155 7 is_stmt 1 view .LVU163
 155:Middlewares/ST/STM32_USB_Host_Library/Class/HID/Src/usbh_hid.c ****       return USBH_FAIL;
 496              		.loc 1 155 7 view .LVU164
 497 00dc 3E48     		ldr	r0, .L36
 498              	.LVL42:
 155:Middlewares/ST/STM32_USB_Host_Library/Class/HID/Src/usbh_hid.c ****       return USBH_FAIL;
 499              		.loc 1 155 7 is_stmt 0 view .LVU165
 500 00de FFF7FEFF 		bl	printf
 501              	.LVL43:
 155:Middlewares/ST/STM32_USB_Host_Library/Class/HID/Src/usbh_hid.c ****       return USBH_FAIL;
 502              		.loc 1 155 7 is_stmt 1 view .LVU166
 503 00e2 D4F87C33 		ldr	r3, [r4, #892]
 504 00e6 1968     		ldr	r1, [r3]
 505 00e8 3F48     		ldr	r0, .L36+16
 506 00ea FFF7FEFF 		bl	printf
 507              	.LVL44:
 155:Middlewares/ST/STM32_USB_Host_Library/Class/HID/Src/usbh_hid.c ****       return USBH_FAIL;
 508              		.loc 1 155 7 view .LVU167
 509 00ee 0A20     		movs	r0, #10
 510 00f0 FFF7FEFF 		bl	putchar
 511              	.LVL45:
 156:Middlewares/ST/STM32_USB_Host_Library/Class/HID/Src/usbh_hid.c ****     }
 512              		.loc 1 156 7 view .LVU168
 156:Middlewares/ST/STM32_USB_Host_Library/Class/HID/Src/usbh_hid.c ****     }
ARM GAS  C:\Users\union\AppData\Local\Temp\cc5SXdj6.s 			page 25


 513              		.loc 1 156 14 is_stmt 0 view .LVU169
 514 00f4 4FF00208 		mov	r8, #2
 515 00f8 69E0     		b	.L18
 516              	.LVL46:
 517              	.L32:
 172:Middlewares/ST/STM32_USB_Host_Library/Class/HID/Src/usbh_hid.c ****     return USBH_FAIL;
 518              		.loc 1 172 5 is_stmt 1 view .LVU170
 172:Middlewares/ST/STM32_USB_Host_Library/Class/HID/Src/usbh_hid.c ****     return USBH_FAIL;
 519              		.loc 1 172 5 view .LVU171
 520 00fa 3748     		ldr	r0, .L36
 521 00fc FFF7FEFF 		bl	printf
 522              	.LVL47:
 172:Middlewares/ST/STM32_USB_Host_Library/Class/HID/Src/usbh_hid.c ****     return USBH_FAIL;
 523              		.loc 1 172 5 view .LVU172
 524 0100 3A48     		ldr	r0, .L36+20
 525 0102 FFF7FEFF 		bl	printf
 526              	.LVL48:
 172:Middlewares/ST/STM32_USB_Host_Library/Class/HID/Src/usbh_hid.c ****     return USBH_FAIL;
 527              		.loc 1 172 5 view .LVU173
 528 0106 0A20     		movs	r0, #10
 529 0108 FFF7FEFF 		bl	putchar
 530              	.LVL49:
 173:Middlewares/ST/STM32_USB_Host_Library/Class/HID/Src/usbh_hid.c ****   }
 531              		.loc 1 173 5 view .LVU174
 173:Middlewares/ST/STM32_USB_Host_Library/Class/HID/Src/usbh_hid.c ****   }
 532              		.loc 1 173 12 is_stmt 0 view .LVU175
 533 010c 4FF00208 		mov	r8, #2
 534 0110 5DE0     		b	.L18
 535              	.LVL50:
 536              	.L33:
 184:Middlewares/ST/STM32_USB_Host_Library/Class/HID/Src/usbh_hid.c ****     HID_Handle->Init = USBH_HID_KeybdInit;
 537              		.loc 1 184 5 is_stmt 1 view .LVU176
 184:Middlewares/ST/STM32_USB_Host_Library/Class/HID/Src/usbh_hid.c ****     HID_Handle->Init = USBH_HID_KeybdInit;
 538              		.loc 1 184 5 view .LVU177
 539 0112 3748     		ldr	r0, .L36+24
 540 0114 FFF7FEFF 		bl	printf
 541              	.LVL51:
 184:Middlewares/ST/STM32_USB_Host_Library/Class/HID/Src/usbh_hid.c ****     HID_Handle->Init = USBH_HID_KeybdInit;
 542              		.loc 1 184 5 view .LVU178
 543 0118 0A20     		movs	r0, #10
 544 011a FFF7FEFF 		bl	putchar
 545              	.LVL52:
 185:Middlewares/ST/STM32_USB_Host_Library/Class/HID/Src/usbh_hid.c ****   }
 546              		.loc 1 185 5 view .LVU179
 185:Middlewares/ST/STM32_USB_Host_Library/Class/HID/Src/usbh_hid.c ****   }
 547              		.loc 1 185 22 is_stmt 0 view .LVU180
 548 011e 314B     		ldr	r3, .L36+12
 549 0120 2B63     		str	r3, [r5, #48]
 550 0122 BEE7     		b	.L21
 551              	.L34:
 189:Middlewares/ST/STM32_USB_Host_Library/Class/HID/Src/usbh_hid.c ****     HID_Handle->Init = USBH_HID_MouseInit;
 552              		.loc 1 189 5 is_stmt 1 view .LVU181
 189:Middlewares/ST/STM32_USB_Host_Library/Class/HID/Src/usbh_hid.c ****     HID_Handle->Init = USBH_HID_MouseInit;
 553              		.loc 1 189 5 view .LVU182
 554 0124 3348     		ldr	r0, .L36+28
 555 0126 FFF7FEFF 		bl	printf
 556              	.LVL53:
ARM GAS  C:\Users\union\AppData\Local\Temp\cc5SXdj6.s 			page 26


 189:Middlewares/ST/STM32_USB_Host_Library/Class/HID/Src/usbh_hid.c ****     HID_Handle->Init = USBH_HID_MouseInit;
 557              		.loc 1 189 5 view .LVU183
 558 012a 0A20     		movs	r0, #10
 559 012c FFF7FEFF 		bl	putchar
 560              	.LVL54:
 190:Middlewares/ST/STM32_USB_Host_Library/Class/HID/Src/usbh_hid.c ****   }
 561              		.loc 1 190 5 view .LVU184
 190:Middlewares/ST/STM32_USB_Host_Library/Class/HID/Src/usbh_hid.c ****   }
 562              		.loc 1 190 22 is_stmt 0 view .LVU185
 563 0130 314B     		ldr	r3, .L36+32
 564 0132 2B63     		str	r3, [r5, #48]
 565 0134 B5E7     		b	.L21
 566              	.L23:
 199:Middlewares/ST/STM32_USB_Host_Library/Class/HID/Src/usbh_hid.c ****     return USBH_FAIL;
 567              		.loc 1 199 5 is_stmt 1 view .LVU186
 199:Middlewares/ST/STM32_USB_Host_Library/Class/HID/Src/usbh_hid.c ****     return USBH_FAIL;
 568              		.loc 1 199 5 view .LVU187
 569 0136 3148     		ldr	r0, .L36+36
 570 0138 FFF7FEFF 		bl	printf
 571              	.LVL55:
 199:Middlewares/ST/STM32_USB_Host_Library/Class/HID/Src/usbh_hid.c ****     return USBH_FAIL;
 572              		.loc 1 199 5 view .LVU188
 573 013c 0A20     		movs	r0, #10
 574 013e FFF7FEFF 		bl	putchar
 575              	.LVL56:
 200:Middlewares/ST/STM32_USB_Host_Library/Class/HID/Src/usbh_hid.c ****   }
 576              		.loc 1 200 5 view .LVU189
 200:Middlewares/ST/STM32_USB_Host_Library/Class/HID/Src/usbh_hid.c ****   }
 577              		.loc 1 200 12 is_stmt 0 view .LVU190
 578 0142 4FF00208 		mov	r8, #2
 579 0146 42E0     		b	.L18
 580              	.LVL57:
 581              	.L35:
 226:Middlewares/ST/STM32_USB_Host_Library/Class/HID/Src/usbh_hid.c ****       HID_Handle->InPipe = USBH_AllocPipe(phost, HID_Handle->InEp);
 582              		.loc 1 226 7 is_stmt 1 view .LVU191
 226:Middlewares/ST/STM32_USB_Host_Library/Class/HID/Src/usbh_hid.c ****       HID_Handle->InPipe = USBH_AllocPipe(phost, HID_Handle->InEp);
 583              		.loc 1 226 24 is_stmt 0 view .LVU192
 584 0148 2971     		strb	r1, [r5, #4]
 227:Middlewares/ST/STM32_USB_Host_Library/Class/HID/Src/usbh_hid.c **** 
 585              		.loc 1 227 7 is_stmt 1 view .LVU193
 227:Middlewares/ST/STM32_USB_Host_Library/Class/HID/Src/usbh_hid.c **** 
 586              		.loc 1 227 28 is_stmt 0 view .LVU194
 587 014a 2046     		mov	r0, r4
 588 014c FFF7FEFF 		bl	USBH_AllocPipe
 589              	.LVL58:
 590 0150 0146     		mov	r1, r0
 227:Middlewares/ST/STM32_USB_Host_Library/Class/HID/Src/usbh_hid.c **** 
 591              		.loc 1 227 26 view .LVU195
 592 0152 6870     		strb	r0, [r5, #1]
 230:Middlewares/ST/STM32_USB_Host_Library/Class/HID/Src/usbh_hid.c ****                     phost->device.speed, USB_EP_TYPE_INTR, HID_Handle->length);
 593              		.loc 1 230 7 is_stmt 1 view .LVU196
 594 0154 2A79     		ldrb	r2, [r5, #4]	@ zero_extendqisi2
 595 0156 2B8B     		ldrh	r3, [r5, #24]
 596 0158 0293     		str	r3, [sp, #8]
 597 015a 0323     		movs	r3, #3
 598 015c 0193     		str	r3, [sp, #4]
 599 015e 94F81D33 		ldrb	r3, [r4, #797]	@ zero_extendqisi2
ARM GAS  C:\Users\union\AppData\Local\Temp\cc5SXdj6.s 			page 27


 600 0162 0093     		str	r3, [sp]
 601 0164 94F81C33 		ldrb	r3, [r4, #796]	@ zero_extendqisi2
 602 0168 2046     		mov	r0, r4
 603 016a FFF7FEFF 		bl	USBH_OpenPipe
 604              	.LVL59:
 233:Middlewares/ST/STM32_USB_Host_Library/Class/HID/Src/usbh_hid.c ****     }
 605              		.loc 1 233 7 view .LVU197
 606 016e 0022     		movs	r2, #0
 607 0170 6978     		ldrb	r1, [r5, #1]	@ zero_extendqisi2
 608 0172 2046     		mov	r0, r4
 609 0174 FFF7FEFF 		bl	USBH_LL_SetToggle
 610              	.LVL60:
 611              	.L27:
 222:Middlewares/ST/STM32_USB_Host_Library/Class/HID/Src/usbh_hid.c ****   {
 612              		.loc 1 222 35 is_stmt 0 discriminator 2 view .LVU198
 613 0178 0136     		adds	r6, r6, #1
 614              	.LVL61:
 222:Middlewares/ST/STM32_USB_Host_Library/Class/HID/Src/usbh_hid.c ****   {
 615              		.loc 1 222 35 discriminator 2 view .LVU199
 616 017a F6B2     		uxtb	r6, r6
 617              	.LVL62:
 618              	.L25:
 222:Middlewares/ST/STM32_USB_Host_Library/Class/HID/Src/usbh_hid.c ****   {
 619              		.loc 1 222 3 discriminator 1 view .LVU200
 620 017c BE42     		cmp	r6, r7
 621 017e 26D2     		bcs	.L18
 224:Middlewares/ST/STM32_USB_Host_Library/Class/HID/Src/usbh_hid.c ****     {
 622              		.loc 1 224 5 is_stmt 1 view .LVU201
 224:Middlewares/ST/STM32_USB_Host_Library/Class/HID/Src/usbh_hid.c ****     {
 623              		.loc 1 224 63 is_stmt 0 view .LVU202
 624 0180 731C     		adds	r3, r6, #1
 625 0182 1A22     		movs	r2, #26
 626 0184 02FB09F2 		mul	r2, r2, r9
 627 0188 02EBC303 		add	r3, r2, r3, lsl #3
 628 018c 2344     		add	r3, r3, r4
 629 018e 93F84613 		ldrb	r1, [r3, #838]	@ zero_extendqisi2
 224:Middlewares/ST/STM32_USB_Host_Library/Class/HID/Src/usbh_hid.c ****     {
 630              		.loc 1 224 8 view .LVU203
 631 0192 11F0800F 		tst	r1, #128
 632 0196 D7D1     		bne	.L35
 237:Middlewares/ST/STM32_USB_Host_Library/Class/HID/Src/usbh_hid.c ****       HID_Handle->OutPipe  = USBH_AllocPipe(phost, HID_Handle->OutEp);
 633              		.loc 1 237 7 is_stmt 1 view .LVU204
 237:Middlewares/ST/STM32_USB_Host_Library/Class/HID/Src/usbh_hid.c ****       HID_Handle->OutPipe  = USBH_AllocPipe(phost, HID_Handle->OutEp);
 634              		.loc 1 237 25 is_stmt 0 view .LVU205
 635 0198 E970     		strb	r1, [r5, #3]
 238:Middlewares/ST/STM32_USB_Host_Library/Class/HID/Src/usbh_hid.c **** 
 636              		.loc 1 238 7 is_stmt 1 view .LVU206
 238:Middlewares/ST/STM32_USB_Host_Library/Class/HID/Src/usbh_hid.c **** 
 637              		.loc 1 238 30 is_stmt 0 view .LVU207
 638 019a 2046     		mov	r0, r4
 639 019c FFF7FEFF 		bl	USBH_AllocPipe
 640              	.LVL63:
 641 01a0 0146     		mov	r1, r0
 238:Middlewares/ST/STM32_USB_Host_Library/Class/HID/Src/usbh_hid.c **** 
 642              		.loc 1 238 28 view .LVU208
 643 01a2 2870     		strb	r0, [r5]
 241:Middlewares/ST/STM32_USB_Host_Library/Class/HID/Src/usbh_hid.c ****                     phost->device.speed, USB_EP_TYPE_INTR, HID_Handle->length);
ARM GAS  C:\Users\union\AppData\Local\Temp\cc5SXdj6.s 			page 28


 644              		.loc 1 241 7 is_stmt 1 view .LVU209
 645 01a4 EA78     		ldrb	r2, [r5, #3]	@ zero_extendqisi2
 646 01a6 2B8B     		ldrh	r3, [r5, #24]
 647 01a8 0293     		str	r3, [sp, #8]
 648 01aa 0323     		movs	r3, #3
 649 01ac 0193     		str	r3, [sp, #4]
 650 01ae 94F81D33 		ldrb	r3, [r4, #797]	@ zero_extendqisi2
 651 01b2 0093     		str	r3, [sp]
 652 01b4 94F81C33 		ldrb	r3, [r4, #796]	@ zero_extendqisi2
 653 01b8 2046     		mov	r0, r4
 654 01ba FFF7FEFF 		bl	USBH_OpenPipe
 655              	.LVL64:
 244:Middlewares/ST/STM32_USB_Host_Library/Class/HID/Src/usbh_hid.c ****     }
 656              		.loc 1 244 7 view .LVU210
 657 01be 0022     		movs	r2, #0
 658 01c0 2978     		ldrb	r1, [r5]	@ zero_extendqisi2
 659 01c2 2046     		mov	r0, r4
 660 01c4 FFF7FEFF 		bl	USBH_LL_SetToggle
 661              	.LVL65:
 662 01c8 D6E7     		b	.L27
 663              	.LVL66:
 664              	.L29:
 164:Middlewares/ST/STM32_USB_Host_Library/Class/HID/Src/usbh_hid.c ****   }
 665              		.loc 1 164 12 is_stmt 0 view .LVU211
 666 01ca 4FF00208 		mov	r8, #2
 667              	.LVL67:
 668              	.L18:
 249:Middlewares/ST/STM32_USB_Host_Library/Class/HID/Src/usbh_hid.c **** 
 669              		.loc 1 249 1 view .LVU212
 670 01ce 4046     		mov	r0, r8
 671 01d0 05B0     		add	sp, sp, #20
 672              	.LCFI6:
 673              		.cfi_def_cfa_offset 28
 674              		@ sp needed
 675 01d2 BDE8F083 		pop	{r4, r5, r6, r7, r8, r9, pc}
 676              	.LVL68:
 677              	.L37:
 249:Middlewares/ST/STM32_USB_Host_Library/Class/HID/Src/usbh_hid.c **** 
 678              		.loc 1 249 1 view .LVU213
 679 01d6 00BF     		.align	2
 680              	.L36:
 681 01d8 00000000 		.word	.LC0
 682 01dc 0C000000 		.word	.LC1
 683 01e0 A0000000 		.word	.LC6
 684 01e4 00000000 		.word	USBH_HID_KeybdInit
 685 01e8 24000000 		.word	.LC2
 686 01ec 4C000000 		.word	.LC3
 687 01f0 74000000 		.word	.LC4
 688 01f4 8C000000 		.word	.LC5
 689 01f8 00000000 		.word	USBH_HID_MouseInit
 690 01fc B8000000 		.word	.LC7
 691              		.cfi_endproc
 692              	.LFE135:
 694              		.section	.text.USBH_HID_GetHIDReportDescriptor,"ax",%progbits
 695              		.align	1
 696              		.global	USBH_HID_GetHIDReportDescriptor
 697              		.syntax unified
ARM GAS  C:\Users\union\AppData\Local\Temp\cc5SXdj6.s 			page 29


 698              		.thumb
 699              		.thumb_func
 700              		.fpu fpv4-sp-d16
 702              	USBH_HID_GetHIDReportDescriptor:
 703              	.LVL69:
 704              	.LFB140:
 547:Middlewares/ST/STM32_USB_Host_Library/Class/HID/Src/usbh_hid.c **** 
 705              		.loc 1 547 1 is_stmt 1 view -0
 706              		.cfi_startproc
 707              		@ args = 0, pretend = 0, frame = 0
 708              		@ frame_needed = 0, uses_anonymous_args = 0
 547:Middlewares/ST/STM32_USB_Host_Library/Class/HID/Src/usbh_hid.c **** 
 709              		.loc 1 547 1 is_stmt 0 view .LVU215
 710 0000 00B5     		push	{lr}
 711              	.LCFI7:
 712              		.cfi_def_cfa_offset 4
 713              		.cfi_offset 14, -4
 714 0002 83B0     		sub	sp, sp, #12
 715              	.LCFI8:
 716              		.cfi_def_cfa_offset 16
 549:Middlewares/ST/STM32_USB_Host_Library/Class/HID/Src/usbh_hid.c **** 
 717              		.loc 1 549 3 is_stmt 1 view .LVU216
 551:Middlewares/ST/STM32_USB_Host_Library/Class/HID/Src/usbh_hid.c ****                               USB_REQ_RECIPIENT_INTERFACE | USB_REQ_TYPE_STANDARD,
 718              		.loc 1 551 3 view .LVU217
 551:Middlewares/ST/STM32_USB_Host_Library/Class/HID/Src/usbh_hid.c ****                               USB_REQ_RECIPIENT_INTERFACE | USB_REQ_TYPE_STANDARD,
 719              		.loc 1 551 12 is_stmt 0 view .LVU218
 720 0004 0091     		str	r1, [sp]
 721 0006 00F58E73 		add	r3, r0, #284
 722 000a 4FF40852 		mov	r2, #8704
 723 000e 0121     		movs	r1, #1
 724              	.LVL70:
 551:Middlewares/ST/STM32_USB_Host_Library/Class/HID/Src/usbh_hid.c ****                               USB_REQ_RECIPIENT_INTERFACE | USB_REQ_TYPE_STANDARD,
 725              		.loc 1 551 12 view .LVU219
 726 0010 FFF7FEFF 		bl	USBH_GetDescriptor
 727              	.LVL71:
 564:Middlewares/ST/STM32_USB_Host_Library/Class/HID/Src/usbh_hid.c **** }
 728              		.loc 1 564 3 is_stmt 1 view .LVU220
 565:Middlewares/ST/STM32_USB_Host_Library/Class/HID/Src/usbh_hid.c **** 
 729              		.loc 1 565 1 is_stmt 0 view .LVU221
 730 0014 03B0     		add	sp, sp, #12
 731              	.LCFI9:
 732              		.cfi_def_cfa_offset 4
 733              		@ sp needed
 734 0016 5DF804FB 		ldr	pc, [sp], #4
 735              		.cfi_endproc
 736              	.LFE140:
 738              		.section	.text.USBH_HID_GetHIDDescriptor,"ax",%progbits
 739              		.align	1
 740              		.global	USBH_HID_GetHIDDescriptor
 741              		.syntax unified
 742              		.thumb
 743              		.thumb_func
 744              		.fpu fpv4-sp-d16
 746              	USBH_HID_GetHIDDescriptor:
 747              	.LVL72:
 748              	.LFB141:
 577:Middlewares/ST/STM32_USB_Host_Library/Class/HID/Src/usbh_hid.c ****   USBH_StatusTypeDef status;
ARM GAS  C:\Users\union\AppData\Local\Temp\cc5SXdj6.s 			page 30


 749              		.loc 1 577 1 is_stmt 1 view -0
 750              		.cfi_startproc
 751              		@ args = 0, pretend = 0, frame = 0
 752              		@ frame_needed = 0, uses_anonymous_args = 0
 577:Middlewares/ST/STM32_USB_Host_Library/Class/HID/Src/usbh_hid.c ****   USBH_StatusTypeDef status;
 753              		.loc 1 577 1 is_stmt 0 view .LVU223
 754 0000 00B5     		push	{lr}
 755              	.LCFI10:
 756              		.cfi_def_cfa_offset 4
 757              		.cfi_offset 14, -4
 758 0002 83B0     		sub	sp, sp, #12
 759              	.LCFI11:
 760              		.cfi_def_cfa_offset 16
 578:Middlewares/ST/STM32_USB_Host_Library/Class/HID/Src/usbh_hid.c **** 
 761              		.loc 1 578 3 is_stmt 1 view .LVU224
 580:Middlewares/ST/STM32_USB_Host_Library/Class/HID/Src/usbh_hid.c ****                               USB_REQ_RECIPIENT_INTERFACE | USB_REQ_TYPE_STANDARD,
 762              		.loc 1 580 3 view .LVU225
 580:Middlewares/ST/STM32_USB_Host_Library/Class/HID/Src/usbh_hid.c ****                               USB_REQ_RECIPIENT_INTERFACE | USB_REQ_TYPE_STANDARD,
 763              		.loc 1 580 12 is_stmt 0 view .LVU226
 764 0004 0091     		str	r1, [sp]
 765 0006 00F58E73 		add	r3, r0, #284
 766 000a 4FF40452 		mov	r2, #8448
 767 000e 0121     		movs	r1, #1
 768              	.LVL73:
 580:Middlewares/ST/STM32_USB_Host_Library/Class/HID/Src/usbh_hid.c ****                               USB_REQ_RECIPIENT_INTERFACE | USB_REQ_TYPE_STANDARD,
 769              		.loc 1 580 12 view .LVU227
 770 0010 FFF7FEFF 		bl	USBH_GetDescriptor
 771              	.LVL74:
 586:Middlewares/ST/STM32_USB_Host_Library/Class/HID/Src/usbh_hid.c **** }
 772              		.loc 1 586 3 is_stmt 1 view .LVU228
 587:Middlewares/ST/STM32_USB_Host_Library/Class/HID/Src/usbh_hid.c **** 
 773              		.loc 1 587 1 is_stmt 0 view .LVU229
 774 0014 03B0     		add	sp, sp, #12
 775              	.LCFI12:
 776              		.cfi_def_cfa_offset 4
 777              		@ sp needed
 778 0016 5DF804FB 		ldr	pc, [sp], #4
 779              		.cfi_endproc
 780              	.LFE141:
 782              		.section	.text.USBH_HID_SetIdle,"ax",%progbits
 783              		.align	1
 784              		.global	USBH_HID_SetIdle
 785              		.syntax unified
 786              		.thumb
 787              		.thumb_func
 788              		.fpu fpv4-sp-d16
 790              	USBH_HID_SetIdle:
 791              	.LVL75:
 792              	.LFB142:
 600:Middlewares/ST/STM32_USB_Host_Library/Class/HID/Src/usbh_hid.c **** 
 793              		.loc 1 600 1 is_stmt 1 view -0
 794              		.cfi_startproc
 795              		@ args = 0, pretend = 0, frame = 0
 796              		@ frame_needed = 0, uses_anonymous_args = 0
 600:Middlewares/ST/STM32_USB_Host_Library/Class/HID/Src/usbh_hid.c **** 
 797              		.loc 1 600 1 is_stmt 0 view .LVU231
 798 0000 10B5     		push	{r4, lr}
ARM GAS  C:\Users\union\AppData\Local\Temp\cc5SXdj6.s 			page 31


 799              	.LCFI13:
 800              		.cfi_def_cfa_offset 8
 801              		.cfi_offset 4, -8
 802              		.cfi_offset 14, -4
 602:Middlewares/ST/STM32_USB_Host_Library/Class/HID/Src/usbh_hid.c ****                                          USB_REQ_TYPE_CLASS;
 803              		.loc 1 602 3 is_stmt 1 view .LVU232
 602:Middlewares/ST/STM32_USB_Host_Library/Class/HID/Src/usbh_hid.c ****                                          USB_REQ_TYPE_CLASS;
 804              		.loc 1 602 40 is_stmt 0 view .LVU233
 805 0002 2124     		movs	r4, #33
 806 0004 0474     		strb	r4, [r0, #16]
 606:Middlewares/ST/STM32_USB_Host_Library/Class/HID/Src/usbh_hid.c ****   phost->Control.setup.b.wValue.w = (uint16_t)(((uint32_t)duration << 8U) | (uint32_t)reportId);
 807              		.loc 1 606 3 is_stmt 1 view .LVU234
 606:Middlewares/ST/STM32_USB_Host_Library/Class/HID/Src/usbh_hid.c ****   phost->Control.setup.b.wValue.w = (uint16_t)(((uint32_t)duration << 8U) | (uint32_t)reportId);
 808              		.loc 1 606 35 is_stmt 0 view .LVU235
 809 0006 0A24     		movs	r4, #10
 810 0008 4474     		strb	r4, [r0, #17]
 607:Middlewares/ST/STM32_USB_Host_Library/Class/HID/Src/usbh_hid.c **** 
 811              		.loc 1 607 3 is_stmt 1 view .LVU236
 607:Middlewares/ST/STM32_USB_Host_Library/Class/HID/Src/usbh_hid.c **** 
 812              		.loc 1 607 37 is_stmt 0 view .LVU237
 813 000a 42EA0122 		orr	r2, r2, r1, lsl #8
 814              	.LVL76:
 607:Middlewares/ST/STM32_USB_Host_Library/Class/HID/Src/usbh_hid.c **** 
 815              		.loc 1 607 35 view .LVU238
 816 000e 4282     		strh	r2, [r0, #18]	@ movhi
 609:Middlewares/ST/STM32_USB_Host_Library/Class/HID/Src/usbh_hid.c ****   phost->Control.setup.b.wLength.w = 0U;
 817              		.loc 1 609 3 is_stmt 1 view .LVU239
 609:Middlewares/ST/STM32_USB_Host_Library/Class/HID/Src/usbh_hid.c ****   phost->Control.setup.b.wLength.w = 0U;
 818              		.loc 1 609 35 is_stmt 0 view .LVU240
 819 0010 0021     		movs	r1, #0
 820              	.LVL77:
 609:Middlewares/ST/STM32_USB_Host_Library/Class/HID/Src/usbh_hid.c ****   phost->Control.setup.b.wLength.w = 0U;
 821              		.loc 1 609 35 view .LVU241
 822 0012 8182     		strh	r1, [r0, #20]	@ movhi
 610:Middlewares/ST/STM32_USB_Host_Library/Class/HID/Src/usbh_hid.c **** 
 823              		.loc 1 610 3 is_stmt 1 view .LVU242
 610:Middlewares/ST/STM32_USB_Host_Library/Class/HID/Src/usbh_hid.c **** 
 824              		.loc 1 610 36 is_stmt 0 view .LVU243
 825 0014 C182     		strh	r1, [r0, #22]	@ movhi
 612:Middlewares/ST/STM32_USB_Host_Library/Class/HID/Src/usbh_hid.c **** }
 826              		.loc 1 612 3 is_stmt 1 view .LVU244
 612:Middlewares/ST/STM32_USB_Host_Library/Class/HID/Src/usbh_hid.c **** }
 827              		.loc 1 612 10 is_stmt 0 view .LVU245
 828 0016 0A46     		mov	r2, r1
 829 0018 FFF7FEFF 		bl	USBH_CtlReq
 830              	.LVL78:
 613:Middlewares/ST/STM32_USB_Host_Library/Class/HID/Src/usbh_hid.c **** 
 831              		.loc 1 613 1 view .LVU246
 832 001c 10BD     		pop	{r4, pc}
 833              		.cfi_endproc
 834              	.LFE142:
 836              		.section	.text.USBH_HID_SetReport,"ax",%progbits
 837              		.align	1
 838              		.global	USBH_HID_SetReport
 839              		.syntax unified
 840              		.thumb
 841              		.thumb_func
ARM GAS  C:\Users\union\AppData\Local\Temp\cc5SXdj6.s 			page 32


 842              		.fpu fpv4-sp-d16
 844              	USBH_HID_SetReport:
 845              	.LVL79:
 846              	.LFB143:
 631:Middlewares/ST/STM32_USB_Host_Library/Class/HID/Src/usbh_hid.c **** 
 847              		.loc 1 631 1 is_stmt 1 view -0
 848              		.cfi_startproc
 849              		@ args = 4, pretend = 0, frame = 0
 850              		@ frame_needed = 0, uses_anonymous_args = 0
 631:Middlewares/ST/STM32_USB_Host_Library/Class/HID/Src/usbh_hid.c **** 
 851              		.loc 1 631 1 is_stmt 0 view .LVU248
 852 0000 38B5     		push	{r3, r4, r5, lr}
 853              	.LCFI14:
 854              		.cfi_def_cfa_offset 16
 855              		.cfi_offset 3, -16
 856              		.cfi_offset 4, -12
 857              		.cfi_offset 5, -8
 858              		.cfi_offset 14, -4
 633:Middlewares/ST/STM32_USB_Host_Library/Class/HID/Src/usbh_hid.c ****                                          USB_REQ_TYPE_CLASS;
 859              		.loc 1 633 3 is_stmt 1 view .LVU249
 633:Middlewares/ST/STM32_USB_Host_Library/Class/HID/Src/usbh_hid.c ****                                          USB_REQ_TYPE_CLASS;
 860              		.loc 1 633 40 is_stmt 0 view .LVU250
 861 0002 2125     		movs	r5, #33
 862 0004 0574     		strb	r5, [r0, #16]
 637:Middlewares/ST/STM32_USB_Host_Library/Class/HID/Src/usbh_hid.c ****   phost->Control.setup.b.wValue.w = (uint16_t)(((uint32_t)reportType << 8U) | (uint32_t)reportId);
 863              		.loc 1 637 3 is_stmt 1 view .LVU251
 637:Middlewares/ST/STM32_USB_Host_Library/Class/HID/Src/usbh_hid.c ****   phost->Control.setup.b.wValue.w = (uint16_t)(((uint32_t)reportType << 8U) | (uint32_t)reportId);
 864              		.loc 1 637 35 is_stmt 0 view .LVU252
 865 0006 0925     		movs	r5, #9
 866 0008 4574     		strb	r5, [r0, #17]
 638:Middlewares/ST/STM32_USB_Host_Library/Class/HID/Src/usbh_hid.c **** 
 867              		.loc 1 638 3 is_stmt 1 view .LVU253
 638:Middlewares/ST/STM32_USB_Host_Library/Class/HID/Src/usbh_hid.c **** 
 868              		.loc 1 638 37 is_stmt 0 view .LVU254
 869 000a 42EA0122 		orr	r2, r2, r1, lsl #8
 870              	.LVL80:
 638:Middlewares/ST/STM32_USB_Host_Library/Class/HID/Src/usbh_hid.c **** 
 871              		.loc 1 638 35 view .LVU255
 872 000e 4282     		strh	r2, [r0, #18]	@ movhi
 640:Middlewares/ST/STM32_USB_Host_Library/Class/HID/Src/usbh_hid.c ****   phost->Control.setup.b.wLength.w = reportLen;
 873              		.loc 1 640 3 is_stmt 1 view .LVU256
 640:Middlewares/ST/STM32_USB_Host_Library/Class/HID/Src/usbh_hid.c ****   phost->Control.setup.b.wLength.w = reportLen;
 874              		.loc 1 640 35 is_stmt 0 view .LVU257
 875 0010 0022     		movs	r2, #0
 876 0012 8282     		strh	r2, [r0, #20]	@ movhi
 641:Middlewares/ST/STM32_USB_Host_Library/Class/HID/Src/usbh_hid.c **** 
 877              		.loc 1 641 3 is_stmt 1 view .LVU258
 641:Middlewares/ST/STM32_USB_Host_Library/Class/HID/Src/usbh_hid.c **** 
 878              		.loc 1 641 36 is_stmt 0 view .LVU259
 879 0014 9DF81020 		ldrb	r2, [sp, #16]	@ zero_extendqisi2
 880 0018 C282     		strh	r2, [r0, #22]	@ movhi
 643:Middlewares/ST/STM32_USB_Host_Library/Class/HID/Src/usbh_hid.c **** }
 881              		.loc 1 643 3 is_stmt 1 view .LVU260
 643:Middlewares/ST/STM32_USB_Host_Library/Class/HID/Src/usbh_hid.c **** }
 882              		.loc 1 643 10 is_stmt 0 view .LVU261
 883 001a 1946     		mov	r1, r3
 884              	.LVL81:
ARM GAS  C:\Users\union\AppData\Local\Temp\cc5SXdj6.s 			page 33


 643:Middlewares/ST/STM32_USB_Host_Library/Class/HID/Src/usbh_hid.c **** }
 885              		.loc 1 643 10 view .LVU262
 886 001c FFF7FEFF 		bl	USBH_CtlReq
 887              	.LVL82:
 644:Middlewares/ST/STM32_USB_Host_Library/Class/HID/Src/usbh_hid.c **** 
 888              		.loc 1 644 1 view .LVU263
 889 0020 38BD     		pop	{r3, r4, r5, pc}
 644:Middlewares/ST/STM32_USB_Host_Library/Class/HID/Src/usbh_hid.c **** 
 890              		.loc 1 644 1 view .LVU264
 891              		.cfi_endproc
 892              	.LFE143:
 894              		.section	.text.USBH_HID_GetReport,"ax",%progbits
 895              		.align	1
 896              		.global	USBH_HID_GetReport
 897              		.syntax unified
 898              		.thumb
 899              		.thumb_func
 900              		.fpu fpv4-sp-d16
 902              	USBH_HID_GetReport:
 903              	.LVL83:
 904              	.LFB144:
 662:Middlewares/ST/STM32_USB_Host_Library/Class/HID/Src/usbh_hid.c **** 
 905              		.loc 1 662 1 is_stmt 1 view -0
 906              		.cfi_startproc
 907              		@ args = 4, pretend = 0, frame = 0
 908              		@ frame_needed = 0, uses_anonymous_args = 0
 662:Middlewares/ST/STM32_USB_Host_Library/Class/HID/Src/usbh_hid.c **** 
 909              		.loc 1 662 1 is_stmt 0 view .LVU266
 910 0000 38B5     		push	{r3, r4, r5, lr}
 911              	.LCFI15:
 912              		.cfi_def_cfa_offset 16
 913              		.cfi_offset 3, -16
 914              		.cfi_offset 4, -12
 915              		.cfi_offset 5, -8
 916              		.cfi_offset 14, -4
 664:Middlewares/ST/STM32_USB_Host_Library/Class/HID/Src/usbh_hid.c ****                                          USB_REQ_TYPE_CLASS;
 917              		.loc 1 664 3 is_stmt 1 view .LVU267
 664:Middlewares/ST/STM32_USB_Host_Library/Class/HID/Src/usbh_hid.c ****                                          USB_REQ_TYPE_CLASS;
 918              		.loc 1 664 40 is_stmt 0 view .LVU268
 919 0002 A125     		movs	r5, #161
 920 0004 0574     		strb	r5, [r0, #16]
 668:Middlewares/ST/STM32_USB_Host_Library/Class/HID/Src/usbh_hid.c ****   phost->Control.setup.b.wValue.w = (uint16_t)(((uint32_t)reportType << 8U) | (uint32_t)reportId);
 921              		.loc 1 668 3 is_stmt 1 view .LVU269
 668:Middlewares/ST/STM32_USB_Host_Library/Class/HID/Src/usbh_hid.c ****   phost->Control.setup.b.wValue.w = (uint16_t)(((uint32_t)reportType << 8U) | (uint32_t)reportId);
 922              		.loc 1 668 35 is_stmt 0 view .LVU270
 923 0006 0125     		movs	r5, #1
 924 0008 4574     		strb	r5, [r0, #17]
 669:Middlewares/ST/STM32_USB_Host_Library/Class/HID/Src/usbh_hid.c **** 
 925              		.loc 1 669 3 is_stmt 1 view .LVU271
 669:Middlewares/ST/STM32_USB_Host_Library/Class/HID/Src/usbh_hid.c **** 
 926              		.loc 1 669 37 is_stmt 0 view .LVU272
 927 000a 42EA0122 		orr	r2, r2, r1, lsl #8
 928              	.LVL84:
 669:Middlewares/ST/STM32_USB_Host_Library/Class/HID/Src/usbh_hid.c **** 
 929              		.loc 1 669 35 view .LVU273
 930 000e 4282     		strh	r2, [r0, #18]	@ movhi
 671:Middlewares/ST/STM32_USB_Host_Library/Class/HID/Src/usbh_hid.c ****   phost->Control.setup.b.wLength.w = reportLen;
ARM GAS  C:\Users\union\AppData\Local\Temp\cc5SXdj6.s 			page 34


 931              		.loc 1 671 3 is_stmt 1 view .LVU274
 671:Middlewares/ST/STM32_USB_Host_Library/Class/HID/Src/usbh_hid.c ****   phost->Control.setup.b.wLength.w = reportLen;
 932              		.loc 1 671 35 is_stmt 0 view .LVU275
 933 0010 0022     		movs	r2, #0
 934 0012 8282     		strh	r2, [r0, #20]	@ movhi
 672:Middlewares/ST/STM32_USB_Host_Library/Class/HID/Src/usbh_hid.c **** 
 935              		.loc 1 672 3 is_stmt 1 view .LVU276
 672:Middlewares/ST/STM32_USB_Host_Library/Class/HID/Src/usbh_hid.c **** 
 936              		.loc 1 672 36 is_stmt 0 view .LVU277
 937 0014 9DF81020 		ldrb	r2, [sp, #16]	@ zero_extendqisi2
 938 0018 C282     		strh	r2, [r0, #22]	@ movhi
 674:Middlewares/ST/STM32_USB_Host_Library/Class/HID/Src/usbh_hid.c **** }
 939              		.loc 1 674 3 is_stmt 1 view .LVU278
 674:Middlewares/ST/STM32_USB_Host_Library/Class/HID/Src/usbh_hid.c **** }
 940              		.loc 1 674 10 is_stmt 0 view .LVU279
 941 001a 1946     		mov	r1, r3
 942              	.LVL85:
 674:Middlewares/ST/STM32_USB_Host_Library/Class/HID/Src/usbh_hid.c **** }
 943              		.loc 1 674 10 view .LVU280
 944 001c FFF7FEFF 		bl	USBH_CtlReq
 945              	.LVL86:
 675:Middlewares/ST/STM32_USB_Host_Library/Class/HID/Src/usbh_hid.c **** 
 946              		.loc 1 675 1 view .LVU281
 947 0020 38BD     		pop	{r3, r4, r5, pc}
 675:Middlewares/ST/STM32_USB_Host_Library/Class/HID/Src/usbh_hid.c **** 
 948              		.loc 1 675 1 view .LVU282
 949              		.cfi_endproc
 950              	.LFE144:
 952              		.section	.text.USBH_HID_SetProtocol,"ax",%progbits
 953              		.align	1
 954              		.global	USBH_HID_SetProtocol
 955              		.syntax unified
 956              		.thumb
 957              		.thumb_func
 958              		.fpu fpv4-sp-d16
 960              	USBH_HID_SetProtocol:
 961              	.LVL87:
 962              	.LFB145:
 686:Middlewares/ST/STM32_USB_Host_Library/Class/HID/Src/usbh_hid.c ****   phost->Control.setup.b.bmRequestType = USB_H2D | USB_REQ_RECIPIENT_INTERFACE
 963              		.loc 1 686 1 is_stmt 1 view -0
 964              		.cfi_startproc
 965              		@ args = 0, pretend = 0, frame = 0
 966              		@ frame_needed = 0, uses_anonymous_args = 0
 686:Middlewares/ST/STM32_USB_Host_Library/Class/HID/Src/usbh_hid.c ****   phost->Control.setup.b.bmRequestType = USB_H2D | USB_REQ_RECIPIENT_INTERFACE
 967              		.loc 1 686 1 is_stmt 0 view .LVU284
 968 0000 08B5     		push	{r3, lr}
 969              	.LCFI16:
 970              		.cfi_def_cfa_offset 8
 971              		.cfi_offset 3, -8
 972              		.cfi_offset 14, -4
 687:Middlewares/ST/STM32_USB_Host_Library/Class/HID/Src/usbh_hid.c ****                                          | USB_REQ_TYPE_CLASS;
 973              		.loc 1 687 3 is_stmt 1 view .LVU285
 687:Middlewares/ST/STM32_USB_Host_Library/Class/HID/Src/usbh_hid.c ****                                          | USB_REQ_TYPE_CLASS;
 974              		.loc 1 687 40 is_stmt 0 view .LVU286
 975 0002 2123     		movs	r3, #33
 976 0004 0374     		strb	r3, [r0, #16]
 690:Middlewares/ST/STM32_USB_Host_Library/Class/HID/Src/usbh_hid.c ****   if (protocol)
ARM GAS  C:\Users\union\AppData\Local\Temp\cc5SXdj6.s 			page 35


 977              		.loc 1 690 3 is_stmt 1 view .LVU287
 690:Middlewares/ST/STM32_USB_Host_Library/Class/HID/Src/usbh_hid.c ****   if (protocol)
 978              		.loc 1 690 35 is_stmt 0 view .LVU288
 979 0006 0B23     		movs	r3, #11
 980 0008 4374     		strb	r3, [r0, #17]
 691:Middlewares/ST/STM32_USB_Host_Library/Class/HID/Src/usbh_hid.c ****   {
 981              		.loc 1 691 3 is_stmt 1 view .LVU289
 691:Middlewares/ST/STM32_USB_Host_Library/Class/HID/Src/usbh_hid.c ****   {
 982              		.loc 1 691 6 is_stmt 0 view .LVU290
 983 000a 41B1     		cbz	r1, .L49
 693:Middlewares/ST/STM32_USB_Host_Library/Class/HID/Src/usbh_hid.c ****   }
 984              		.loc 1 693 5 is_stmt 1 view .LVU291
 693:Middlewares/ST/STM32_USB_Host_Library/Class/HID/Src/usbh_hid.c ****   }
 985              		.loc 1 693 37 is_stmt 0 view .LVU292
 986 000c 0023     		movs	r3, #0
 987 000e 4382     		strh	r3, [r0, #18]	@ movhi
 988              	.L50:
 700:Middlewares/ST/STM32_USB_Host_Library/Class/HID/Src/usbh_hid.c ****   phost->Control.setup.b.wLength.w = 0U;
 989              		.loc 1 700 3 is_stmt 1 view .LVU293
 700:Middlewares/ST/STM32_USB_Host_Library/Class/HID/Src/usbh_hid.c ****   phost->Control.setup.b.wLength.w = 0U;
 990              		.loc 1 700 35 is_stmt 0 view .LVU294
 991 0010 0021     		movs	r1, #0
 992              	.LVL88:
 700:Middlewares/ST/STM32_USB_Host_Library/Class/HID/Src/usbh_hid.c ****   phost->Control.setup.b.wLength.w = 0U;
 993              		.loc 1 700 35 view .LVU295
 994 0012 8182     		strh	r1, [r0, #20]	@ movhi
 701:Middlewares/ST/STM32_USB_Host_Library/Class/HID/Src/usbh_hid.c **** 
 995              		.loc 1 701 3 is_stmt 1 view .LVU296
 701:Middlewares/ST/STM32_USB_Host_Library/Class/HID/Src/usbh_hid.c **** 
 996              		.loc 1 701 36 is_stmt 0 view .LVU297
 997 0014 C182     		strh	r1, [r0, #22]	@ movhi
 703:Middlewares/ST/STM32_USB_Host_Library/Class/HID/Src/usbh_hid.c **** 
 998              		.loc 1 703 3 is_stmt 1 view .LVU298
 703:Middlewares/ST/STM32_USB_Host_Library/Class/HID/Src/usbh_hid.c **** 
 999              		.loc 1 703 10 is_stmt 0 view .LVU299
 1000 0016 0A46     		mov	r2, r1
 1001 0018 FFF7FEFF 		bl	USBH_CtlReq
 1002              	.LVL89:
 705:Middlewares/ST/STM32_USB_Host_Library/Class/HID/Src/usbh_hid.c **** 
 1003              		.loc 1 705 1 view .LVU300
 1004 001c 08BD     		pop	{r3, pc}
 1005              	.LVL90:
 1006              	.L49:
 697:Middlewares/ST/STM32_USB_Host_Library/Class/HID/Src/usbh_hid.c ****   }
 1007              		.loc 1 697 5 is_stmt 1 view .LVU301
 697:Middlewares/ST/STM32_USB_Host_Library/Class/HID/Src/usbh_hid.c ****   }
 1008              		.loc 1 697 37 is_stmt 0 view .LVU302
 1009 001e 0123     		movs	r3, #1
 1010 0020 4382     		strh	r3, [r0, #18]	@ movhi
 1011 0022 F5E7     		b	.L50
 1012              		.cfi_endproc
 1013              	.LFE145:
 1015              		.section	.text.USBH_HID_ClassRequest,"ax",%progbits
 1016              		.align	1
 1017              		.syntax unified
 1018              		.thumb
 1019              		.thumb_func
ARM GAS  C:\Users\union\AppData\Local\Temp\cc5SXdj6.s 			page 36


 1020              		.fpu fpv4-sp-d16
 1022              	USBH_HID_ClassRequest:
 1023              	.LVL91:
 1024              	.LFB137:
 292:Middlewares/ST/STM32_USB_Host_Library/Class/HID/Src/usbh_hid.c **** 
 1025              		.loc 1 292 1 is_stmt 1 view -0
 1026              		.cfi_startproc
 1027              		@ args = 0, pretend = 0, frame = 0
 1028              		@ frame_needed = 0, uses_anonymous_args = 0
 292:Middlewares/ST/STM32_USB_Host_Library/Class/HID/Src/usbh_hid.c **** 
 1029              		.loc 1 292 1 is_stmt 0 view .LVU304
 1030 0000 70B5     		push	{r4, r5, r6, lr}
 1031              	.LCFI17:
 1032              		.cfi_def_cfa_offset 16
 1033              		.cfi_offset 4, -16
 1034              		.cfi_offset 5, -12
 1035              		.cfi_offset 6, -8
 1036              		.cfi_offset 14, -4
 1037 0002 0446     		mov	r4, r0
 294:Middlewares/ST/STM32_USB_Host_Library/Class/HID/Src/usbh_hid.c ****   USBH_StatusTypeDef classReqStatus = USBH_BUSY;
 1038              		.loc 1 294 3 is_stmt 1 view .LVU305
 1039              	.LVL92:
 295:Middlewares/ST/STM32_USB_Host_Library/Class/HID/Src/usbh_hid.c ****   HID_HandleTypeDef *HID_Handle = (HID_HandleTypeDef *) phost->pActiveClass->pData;
 1040              		.loc 1 295 3 view .LVU306
 296:Middlewares/ST/STM32_USB_Host_Library/Class/HID/Src/usbh_hid.c **** 
 1041              		.loc 1 296 3 view .LVU307
 296:Middlewares/ST/STM32_USB_Host_Library/Class/HID/Src/usbh_hid.c **** 
 1042              		.loc 1 296 62 is_stmt 0 view .LVU308
 1043 0004 D0F87C33 		ldr	r3, [r0, #892]
 296:Middlewares/ST/STM32_USB_Host_Library/Class/HID/Src/usbh_hid.c **** 
 1044              		.loc 1 296 22 view .LVU309
 1045 0008 DD69     		ldr	r5, [r3, #28]
 1046              	.LVL93:
 299:Middlewares/ST/STM32_USB_Host_Library/Class/HID/Src/usbh_hid.c ****   {
 1047              		.loc 1 299 3 is_stmt 1 view .LVU310
 299:Middlewares/ST/STM32_USB_Host_Library/Class/HID/Src/usbh_hid.c ****   {
 1048              		.loc 1 299 21 is_stmt 0 view .LVU311
 1049 000a 6B79     		ldrb	r3, [r5, #5]	@ zero_extendqisi2
 299:Middlewares/ST/STM32_USB_Host_Library/Class/HID/Src/usbh_hid.c ****   {
 1050              		.loc 1 299 3 view .LVU312
 1051 000c 052B     		cmp	r3, #5
 1052 000e 53D8     		bhi	.L62
 1053 0010 DFE803F0 		tbb	[pc, r3]
 1054              	.L55:
 1055 0014 03       		.byte	(.L57-.L55)/2
 1056 0015 52       		.byte	(.L62-.L55)/2
 1057 0016 0E       		.byte	(.L58-.L55)/2
 1058 0017 03       		.byte	(.L57-.L55)/2
 1059 0018 25       		.byte	(.L56-.L55)/2
 1060 0019 36       		.byte	(.L54-.L55)/2
 1061              		.p2align 1
 1062              	.L57:
 304:Middlewares/ST/STM32_USB_Host_Library/Class/HID/Src/usbh_hid.c **** 
 1063              		.loc 1 304 5 is_stmt 1 view .LVU313
 1064 001a 00F11C01 		add	r1, r0, #28
 1065 001e 05F12600 		add	r0, r5, #38
 1066              	.LVL94:
ARM GAS  C:\Users\union\AppData\Local\Temp\cc5SXdj6.s 			page 37


 304:Middlewares/ST/STM32_USB_Host_Library/Class/HID/Src/usbh_hid.c **** 
 1067              		.loc 1 304 5 is_stmt 0 view .LVU314
 1068 0022 FFF7FEFF 		bl	USBH_HID_ParseHIDDesc
 1069              	.LVL95:
 306:Middlewares/ST/STM32_USB_Host_Library/Class/HID/Src/usbh_hid.c **** 
 1070              		.loc 1 306 5 is_stmt 1 view .LVU315
 306:Middlewares/ST/STM32_USB_Host_Library/Class/HID/Src/usbh_hid.c **** 
 1071              		.loc 1 306 27 is_stmt 0 view .LVU316
 1072 0026 0223     		movs	r3, #2
 1073 0028 6B71     		strb	r3, [r5, #5]
 308:Middlewares/ST/STM32_USB_Host_Library/Class/HID/Src/usbh_hid.c ****   case HID_REQ_GET_REPORT_DESC:
 1074              		.loc 1 308 5 is_stmt 1 view .LVU317
 294:Middlewares/ST/STM32_USB_Host_Library/Class/HID/Src/usbh_hid.c ****   USBH_StatusTypeDef classReqStatus = USBH_BUSY;
 1075              		.loc 1 294 22 is_stmt 0 view .LVU318
 1076 002a 0126     		movs	r6, #1
 1077              	.LVL96:
 1078              	.L53:
 375:Middlewares/ST/STM32_USB_Host_Library/Class/HID/Src/usbh_hid.c **** }
 1079              		.loc 1 375 3 is_stmt 1 view .LVU319
 376:Middlewares/ST/STM32_USB_Host_Library/Class/HID/Src/usbh_hid.c **** 
 1080              		.loc 1 376 1 is_stmt 0 view .LVU320
 1081 002c 3046     		mov	r0, r6
 1082 002e 70BD     		pop	{r4, r5, r6, pc}
 1083              	.LVL97:
 1084              	.L58:
 312:Middlewares/ST/STM32_USB_Host_Library/Class/HID/Src/usbh_hid.c ****     if (classReqStatus == USBH_OK)
 1085              		.loc 1 312 5 is_stmt 1 view .LVU321
 312:Middlewares/ST/STM32_USB_Host_Library/Class/HID/Src/usbh_hid.c ****     if (classReqStatus == USBH_OK)
 1086              		.loc 1 312 22 is_stmt 0 view .LVU322
 1087 0030 E98D     		ldrh	r1, [r5, #46]
 1088 0032 FFF7FEFF 		bl	USBH_HID_GetHIDReportDescriptor
 1089              	.LVL98:
 313:Middlewares/ST/STM32_USB_Host_Library/Class/HID/Src/usbh_hid.c ****     {
 1090              		.loc 1 313 5 is_stmt 1 view .LVU323
 313:Middlewares/ST/STM32_USB_Host_Library/Class/HID/Src/usbh_hid.c ****     {
 1091              		.loc 1 313 8 is_stmt 0 view .LVU324
 1092 0036 18B9     		cbnz	r0, .L59
 316:Middlewares/ST/STM32_USB_Host_Library/Class/HID/Src/usbh_hid.c ****     }
 1093              		.loc 1 316 7 is_stmt 1 view .LVU325
 316:Middlewares/ST/STM32_USB_Host_Library/Class/HID/Src/usbh_hid.c ****     }
 1094              		.loc 1 316 29 is_stmt 0 view .LVU326
 1095 0038 0423     		movs	r3, #4
 1096 003a 6B71     		strb	r3, [r5, #5]
 294:Middlewares/ST/STM32_USB_Host_Library/Class/HID/Src/usbh_hid.c ****   USBH_StatusTypeDef classReqStatus = USBH_BUSY;
 1097              		.loc 1 294 22 view .LVU327
 1098 003c 0126     		movs	r6, #1
 1099 003e F5E7     		b	.L53
 1100              	.L59:
 318:Middlewares/ST/STM32_USB_Host_Library/Class/HID/Src/usbh_hid.c ****     {
 1101              		.loc 1 318 10 is_stmt 1 view .LVU328
 318:Middlewares/ST/STM32_USB_Host_Library/Class/HID/Src/usbh_hid.c ****     {
 1102              		.loc 1 318 13 is_stmt 0 view .LVU329
 1103 0040 0328     		cmp	r0, #3
 1104 0042 01D0     		beq	.L67
 294:Middlewares/ST/STM32_USB_Host_Library/Class/HID/Src/usbh_hid.c ****   USBH_StatusTypeDef classReqStatus = USBH_BUSY;
 1105              		.loc 1 294 22 view .LVU330
 1106 0044 0126     		movs	r6, #1
ARM GAS  C:\Users\union\AppData\Local\Temp\cc5SXdj6.s 			page 38


 1107 0046 F1E7     		b	.L53
 1108              	.L67:
 320:Middlewares/ST/STM32_USB_Host_Library/Class/HID/Src/usbh_hid.c ****       status = USBH_FAIL;
 1109              		.loc 1 320 7 is_stmt 1 view .LVU331
 320:Middlewares/ST/STM32_USB_Host_Library/Class/HID/Src/usbh_hid.c ****       status = USBH_FAIL;
 1110              		.loc 1 320 7 view .LVU332
 1111 0048 1C48     		ldr	r0, .L70
 1112              	.LVL99:
 320:Middlewares/ST/STM32_USB_Host_Library/Class/HID/Src/usbh_hid.c ****       status = USBH_FAIL;
 1113              		.loc 1 320 7 is_stmt 0 view .LVU333
 1114 004a FFF7FEFF 		bl	printf
 1115              	.LVL100:
 320:Middlewares/ST/STM32_USB_Host_Library/Class/HID/Src/usbh_hid.c ****       status = USBH_FAIL;
 1116              		.loc 1 320 7 is_stmt 1 view .LVU334
 1117 004e 1C48     		ldr	r0, .L70+4
 1118 0050 FFF7FEFF 		bl	printf
 1119              	.LVL101:
 320:Middlewares/ST/STM32_USB_Host_Library/Class/HID/Src/usbh_hid.c ****       status = USBH_FAIL;
 1120              		.loc 1 320 7 view .LVU335
 1121 0054 0A20     		movs	r0, #10
 1122 0056 FFF7FEFF 		bl	putchar
 1123              	.LVL102:
 321:Middlewares/ST/STM32_USB_Host_Library/Class/HID/Src/usbh_hid.c ****     }
 1124              		.loc 1 321 7 view .LVU336
 321:Middlewares/ST/STM32_USB_Host_Library/Class/HID/Src/usbh_hid.c ****     }
 1125              		.loc 1 321 14 is_stmt 0 view .LVU337
 1126 005a 0226     		movs	r6, #2
 1127 005c E6E7     		b	.L53
 1128              	.LVL103:
 1129              	.L56:
 332:Middlewares/ST/STM32_USB_Host_Library/Class/HID/Src/usbh_hid.c **** 
 1130              		.loc 1 332 5 is_stmt 1 view .LVU338
 332:Middlewares/ST/STM32_USB_Host_Library/Class/HID/Src/usbh_hid.c **** 
 1131              		.loc 1 332 22 is_stmt 0 view .LVU339
 1132 005e 0022     		movs	r2, #0
 1133 0060 1146     		mov	r1, r2
 1134 0062 FFF7FEFF 		bl	USBH_HID_SetIdle
 1135              	.LVL104:
 335:Middlewares/ST/STM32_USB_Host_Library/Class/HID/Src/usbh_hid.c ****     {
 1136              		.loc 1 335 5 is_stmt 1 view .LVU340
 335:Middlewares/ST/STM32_USB_Host_Library/Class/HID/Src/usbh_hid.c ****     {
 1137              		.loc 1 335 8 is_stmt 0 view .LVU341
 1138 0066 18B9     		cbnz	r0, .L60
 337:Middlewares/ST/STM32_USB_Host_Library/Class/HID/Src/usbh_hid.c ****     }
 1139              		.loc 1 337 7 is_stmt 1 view .LVU342
 337:Middlewares/ST/STM32_USB_Host_Library/Class/HID/Src/usbh_hid.c ****     }
 1140              		.loc 1 337 29 is_stmt 0 view .LVU343
 1141 0068 0523     		movs	r3, #5
 1142 006a 6B71     		strb	r3, [r5, #5]
 294:Middlewares/ST/STM32_USB_Host_Library/Class/HID/Src/usbh_hid.c ****   USBH_StatusTypeDef classReqStatus = USBH_BUSY;
 1143              		.loc 1 294 22 view .LVU344
 1144 006c 0126     		movs	r6, #1
 1145 006e DDE7     		b	.L53
 1146              	.L60:
 341:Middlewares/ST/STM32_USB_Host_Library/Class/HID/Src/usbh_hid.c ****       {
 1147              		.loc 1 341 7 is_stmt 1 view .LVU345
 341:Middlewares/ST/STM32_USB_Host_Library/Class/HID/Src/usbh_hid.c ****       {
ARM GAS  C:\Users\union\AppData\Local\Temp\cc5SXdj6.s 			page 39


 1148              		.loc 1 341 10 is_stmt 0 view .LVU346
 1149 0070 0328     		cmp	r0, #3
 1150 0072 01D0     		beq	.L68
 294:Middlewares/ST/STM32_USB_Host_Library/Class/HID/Src/usbh_hid.c ****   USBH_StatusTypeDef classReqStatus = USBH_BUSY;
 1151              		.loc 1 294 22 view .LVU347
 1152 0074 0126     		movs	r6, #1
 1153 0076 D9E7     		b	.L53
 1154              	.L68:
 343:Middlewares/ST/STM32_USB_Host_Library/Class/HID/Src/usbh_hid.c ****       }
 1155              		.loc 1 343 9 is_stmt 1 view .LVU348
 343:Middlewares/ST/STM32_USB_Host_Library/Class/HID/Src/usbh_hid.c ****       }
 1156              		.loc 1 343 31 is_stmt 0 view .LVU349
 1157 0078 0523     		movs	r3, #5
 1158 007a 6B71     		strb	r3, [r5, #5]
 294:Middlewares/ST/STM32_USB_Host_Library/Class/HID/Src/usbh_hid.c ****   USBH_StatusTypeDef classReqStatus = USBH_BUSY;
 1159              		.loc 1 294 22 view .LVU350
 1160 007c 0126     		movs	r6, #1
 1161 007e D5E7     		b	.L53
 1162              	.LVL105:
 1163              	.L54:
 350:Middlewares/ST/STM32_USB_Host_Library/Class/HID/Src/usbh_hid.c ****     if (classReqStatus == USBH_OK)
 1164              		.loc 1 350 5 is_stmt 1 view .LVU351
 350:Middlewares/ST/STM32_USB_Host_Library/Class/HID/Src/usbh_hid.c ****     if (classReqStatus == USBH_OK)
 1165              		.loc 1 350 22 is_stmt 0 view .LVU352
 1166 0080 0021     		movs	r1, #0
 1167 0082 FFF7FEFF 		bl	USBH_HID_SetProtocol
 1168              	.LVL106:
 351:Middlewares/ST/STM32_USB_Host_Library/Class/HID/Src/usbh_hid.c ****     {
 1169              		.loc 1 351 5 is_stmt 1 view .LVU353
 351:Middlewares/ST/STM32_USB_Host_Library/Class/HID/Src/usbh_hid.c ****     {
 1170              		.loc 1 351 8 is_stmt 0 view .LVU354
 1171 0086 0646     		mov	r6, r0
 1172 0088 38B9     		cbnz	r0, .L61
 353:Middlewares/ST/STM32_USB_Host_Library/Class/HID/Src/usbh_hid.c **** 
 1173              		.loc 1 353 7 is_stmt 1 view .LVU355
 353:Middlewares/ST/STM32_USB_Host_Library/Class/HID/Src/usbh_hid.c **** 
 1174              		.loc 1 353 29 is_stmt 0 view .LVU356
 1175 008a 0123     		movs	r3, #1
 1176 008c 6B71     		strb	r3, [r5, #5]
 356:Middlewares/ST/STM32_USB_Host_Library/Class/HID/Src/usbh_hid.c ****       status = USBH_OK;
 1177              		.loc 1 356 7 is_stmt 1 view .LVU357
 356:Middlewares/ST/STM32_USB_Host_Library/Class/HID/Src/usbh_hid.c ****       status = USBH_OK;
 1178              		.loc 1 356 12 is_stmt 0 view .LVU358
 1179 008e D4F8D433 		ldr	r3, [r4, #980]
 356:Middlewares/ST/STM32_USB_Host_Library/Class/HID/Src/usbh_hid.c ****       status = USBH_OK;
 1180              		.loc 1 356 7 view .LVU359
 1181 0092 0221     		movs	r1, #2
 1182 0094 2046     		mov	r0, r4
 1183              	.LVL107:
 356:Middlewares/ST/STM32_USB_Host_Library/Class/HID/Src/usbh_hid.c ****       status = USBH_OK;
 1184              		.loc 1 356 7 view .LVU360
 1185 0096 9847     		blx	r3
 1186              	.LVL108:
 357:Middlewares/ST/STM32_USB_Host_Library/Class/HID/Src/usbh_hid.c ****     }
 1187              		.loc 1 357 7 is_stmt 1 view .LVU361
 357:Middlewares/ST/STM32_USB_Host_Library/Class/HID/Src/usbh_hid.c ****     }
 1188              		.loc 1 357 7 is_stmt 0 view .LVU362
ARM GAS  C:\Users\union\AppData\Local\Temp\cc5SXdj6.s 			page 40


 1189 0098 C8E7     		b	.L53
 1190              	.LVL109:
 1191              	.L61:
 359:Middlewares/ST/STM32_USB_Host_Library/Class/HID/Src/usbh_hid.c ****     {
 1192              		.loc 1 359 10 is_stmt 1 view .LVU363
 359:Middlewares/ST/STM32_USB_Host_Library/Class/HID/Src/usbh_hid.c ****     {
 1193              		.loc 1 359 13 is_stmt 0 view .LVU364
 1194 009a 0328     		cmp	r0, #3
 1195 009c 01D0     		beq	.L69
 294:Middlewares/ST/STM32_USB_Host_Library/Class/HID/Src/usbh_hid.c ****   USBH_StatusTypeDef classReqStatus = USBH_BUSY;
 1196              		.loc 1 294 22 view .LVU365
 1197 009e 0126     		movs	r6, #1
 1198 00a0 C4E7     		b	.L53
 1199              	.L69:
 361:Middlewares/ST/STM32_USB_Host_Library/Class/HID/Src/usbh_hid.c ****       status = USBH_FAIL;
 1200              		.loc 1 361 7 is_stmt 1 view .LVU366
 361:Middlewares/ST/STM32_USB_Host_Library/Class/HID/Src/usbh_hid.c ****       status = USBH_FAIL;
 1201              		.loc 1 361 7 view .LVU367
 1202 00a2 0648     		ldr	r0, .L70
 1203              	.LVL110:
 361:Middlewares/ST/STM32_USB_Host_Library/Class/HID/Src/usbh_hid.c ****       status = USBH_FAIL;
 1204              		.loc 1 361 7 is_stmt 0 view .LVU368
 1205 00a4 FFF7FEFF 		bl	printf
 1206              	.LVL111:
 361:Middlewares/ST/STM32_USB_Host_Library/Class/HID/Src/usbh_hid.c ****       status = USBH_FAIL;
 1207              		.loc 1 361 7 is_stmt 1 view .LVU369
 1208 00a8 0648     		ldr	r0, .L70+8
 1209 00aa FFF7FEFF 		bl	printf
 1210              	.LVL112:
 361:Middlewares/ST/STM32_USB_Host_Library/Class/HID/Src/usbh_hid.c ****       status = USBH_FAIL;
 1211              		.loc 1 361 7 view .LVU370
 1212 00ae 0A20     		movs	r0, #10
 1213 00b0 FFF7FEFF 		bl	putchar
 1214              	.LVL113:
 362:Middlewares/ST/STM32_USB_Host_Library/Class/HID/Src/usbh_hid.c ****     }
 1215              		.loc 1 362 7 view .LVU371
 362:Middlewares/ST/STM32_USB_Host_Library/Class/HID/Src/usbh_hid.c ****     }
 1216              		.loc 1 362 14 is_stmt 0 view .LVU372
 1217 00b4 0226     		movs	r6, #2
 1218 00b6 B9E7     		b	.L53
 1219              	.LVL114:
 1220              	.L62:
 294:Middlewares/ST/STM32_USB_Host_Library/Class/HID/Src/usbh_hid.c ****   USBH_StatusTypeDef classReqStatus = USBH_BUSY;
 1221              		.loc 1 294 22 view .LVU373
 1222 00b8 0126     		movs	r6, #1
 1223 00ba B7E7     		b	.L53
 1224              	.L71:
 1225              		.align	2
 1226              	.L70:
 1227 00bc 00000000 		.word	.LC8
 1228 00c0 08000000 		.word	.LC9
 1229 00c4 48000000 		.word	.LC10
 1230              		.cfi_endproc
 1231              	.LFE137:
 1233              		.section	.text.USBH_HID_GetDeviceType,"ax",%progbits
 1234              		.align	1
 1235              		.global	USBH_HID_GetDeviceType
ARM GAS  C:\Users\union\AppData\Local\Temp\cc5SXdj6.s 			page 41


 1236              		.syntax unified
 1237              		.thumb
 1238              		.thumb_func
 1239              		.fpu fpv4-sp-d16
 1241              	USBH_HID_GetDeviceType:
 1242              	.LVL115:
 1243              	.LFB147:
 744:Middlewares/ST/STM32_USB_Host_Library/Class/HID/Src/usbh_hid.c **** 
 745:Middlewares/ST/STM32_USB_Host_Library/Class/HID/Src/usbh_hid.c **** /**
 746:Middlewares/ST/STM32_USB_Host_Library/Class/HID/Src/usbh_hid.c ****   * @brief  USBH_HID_GetDeviceType
 747:Middlewares/ST/STM32_USB_Host_Library/Class/HID/Src/usbh_hid.c ****   *         Return Device function.
 748:Middlewares/ST/STM32_USB_Host_Library/Class/HID/Src/usbh_hid.c ****   * @param  phost: Host handle
 749:Middlewares/ST/STM32_USB_Host_Library/Class/HID/Src/usbh_hid.c ****   * @retval HID function: HID_MOUSE / HID_KEYBOARD
 750:Middlewares/ST/STM32_USB_Host_Library/Class/HID/Src/usbh_hid.c ****   */
 751:Middlewares/ST/STM32_USB_Host_Library/Class/HID/Src/usbh_hid.c **** HID_TypeTypeDef USBH_HID_GetDeviceType(USBH_HandleTypeDef *phost)
 752:Middlewares/ST/STM32_USB_Host_Library/Class/HID/Src/usbh_hid.c **** {
 1244              		.loc 1 752 1 is_stmt 1 view -0
 1245              		.cfi_startproc
 1246              		@ args = 0, pretend = 0, frame = 0
 1247              		@ frame_needed = 0, uses_anonymous_args = 0
 1248              		@ link register save eliminated.
 753:Middlewares/ST/STM32_USB_Host_Library/Class/HID/Src/usbh_hid.c ****   HID_TypeTypeDef   type = HID_UNKNOWN;
 1249              		.loc 1 753 3 view .LVU375
 754:Middlewares/ST/STM32_USB_Host_Library/Class/HID/Src/usbh_hid.c ****   uint8_t InterfaceProtocol;
 1250              		.loc 1 754 3 view .LVU376
 755:Middlewares/ST/STM32_USB_Host_Library/Class/HID/Src/usbh_hid.c **** 
 756:Middlewares/ST/STM32_USB_Host_Library/Class/HID/Src/usbh_hid.c ****   if (phost->gState == HOST_CLASS)
 1251              		.loc 1 756 3 view .LVU377
 1252              		.loc 1 756 12 is_stmt 0 view .LVU378
 1253 0000 0378     		ldrb	r3, [r0]	@ zero_extendqisi2
 1254 0002 DBB2     		uxtb	r3, r3
 1255              		.loc 1 756 6 view .LVU379
 1256 0004 0B2B     		cmp	r3, #11
 1257 0006 01D0     		beq	.L78
 753:Middlewares/ST/STM32_USB_Host_Library/Class/HID/Src/usbh_hid.c ****   uint8_t InterfaceProtocol;
 1258              		.loc 1 753 21 view .LVU380
 1259 0008 FF20     		movs	r0, #255
 1260              	.LVL116:
 753:Middlewares/ST/STM32_USB_Host_Library/Class/HID/Src/usbh_hid.c ****   uint8_t InterfaceProtocol;
 1261              		.loc 1 753 21 view .LVU381
 1262 000a 7047     		bx	lr
 1263              	.LVL117:
 1264              	.L78:
 757:Middlewares/ST/STM32_USB_Host_Library/Class/HID/Src/usbh_hid.c ****   {
 758:Middlewares/ST/STM32_USB_Host_Library/Class/HID/Src/usbh_hid.c ****     InterfaceProtocol = phost->device.CfgDesc.Itf_Desc[phost->device.current_interface].bInterfaceP
 1265              		.loc 1 758 5 is_stmt 1 view .LVU382
 1266              		.loc 1 758 69 is_stmt 0 view .LVU383
 1267 000c 90F82433 		ldrb	r3, [r0, #804]	@ zero_extendqisi2
 1268              		.loc 1 758 23 view .LVU384
 1269 0010 1A22     		movs	r2, #26
 1270 0012 02FB0300 		mla	r0, r2, r3, r0
 1271              	.LVL118:
 1272              		.loc 1 758 23 view .LVU385
 1273 0016 90F84933 		ldrb	r3, [r0, #841]	@ zero_extendqisi2
 1274              	.LVL119:
 759:Middlewares/ST/STM32_USB_Host_Library/Class/HID/Src/usbh_hid.c ****     if (InterfaceProtocol == HID_KEYBRD_BOOT_CODE)
 1275              		.loc 1 759 5 is_stmt 1 view .LVU386
ARM GAS  C:\Users\union\AppData\Local\Temp\cc5SXdj6.s 			page 42


 1276              		.loc 1 759 8 is_stmt 0 view .LVU387
 1277 001a 012B     		cmp	r3, #1
 1278 001c 04D0     		beq	.L75
 760:Middlewares/ST/STM32_USB_Host_Library/Class/HID/Src/usbh_hid.c ****     {
 761:Middlewares/ST/STM32_USB_Host_Library/Class/HID/Src/usbh_hid.c ****       type = HID_KEYBOARD;
 762:Middlewares/ST/STM32_USB_Host_Library/Class/HID/Src/usbh_hid.c ****     }
 763:Middlewares/ST/STM32_USB_Host_Library/Class/HID/Src/usbh_hid.c ****     else if (InterfaceProtocol == HID_MOUSE_BOOT_CODE)
 1279              		.loc 1 763 10 is_stmt 1 view .LVU388
 1280              		.loc 1 763 13 is_stmt 0 view .LVU389
 1281 001e 022B     		cmp	r3, #2
 1282 0020 04D0     		beq	.L76
 764:Middlewares/ST/STM32_USB_Host_Library/Class/HID/Src/usbh_hid.c ****     {
 765:Middlewares/ST/STM32_USB_Host_Library/Class/HID/Src/usbh_hid.c ****       type = HID_MOUSE;
 766:Middlewares/ST/STM32_USB_Host_Library/Class/HID/Src/usbh_hid.c ****     }
 767:Middlewares/ST/STM32_USB_Host_Library/Class/HID/Src/usbh_hid.c ****     else if (InterfaceProtocol == HID_GAMEPAD_BOOT_CODE)
 1283              		.loc 1 767 10 is_stmt 1 view .LVU390
 1284              		.loc 1 767 13 is_stmt 0 view .LVU391
 1285 0022 2BB1     		cbz	r3, .L77
 753:Middlewares/ST/STM32_USB_Host_Library/Class/HID/Src/usbh_hid.c ****   uint8_t InterfaceProtocol;
 1286              		.loc 1 753 21 view .LVU392
 1287 0024 FF20     		movs	r0, #255
 1288 0026 7047     		bx	lr
 1289              	.L75:
 761:Middlewares/ST/STM32_USB_Host_Library/Class/HID/Src/usbh_hid.c ****     }
 1290              		.loc 1 761 12 view .LVU393
 1291 0028 0220     		movs	r0, #2
 1292 002a 7047     		bx	lr
 1293              	.L76:
 765:Middlewares/ST/STM32_USB_Host_Library/Class/HID/Src/usbh_hid.c ****     }
 1294              		.loc 1 765 12 view .LVU394
 1295 002c 0120     		movs	r0, #1
 1296 002e 7047     		bx	lr
 1297              	.L77:
 768:Middlewares/ST/STM32_USB_Host_Library/Class/HID/Src/usbh_hid.c ****     {
 769:Middlewares/ST/STM32_USB_Host_Library/Class/HID/Src/usbh_hid.c ****       type = HID_GAMEPAD;
 1298              		.loc 1 769 12 view .LVU395
 1299 0030 0320     		movs	r0, #3
 1300              	.LVL120:
 770:Middlewares/ST/STM32_USB_Host_Library/Class/HID/Src/usbh_hid.c ****     }
 771:Middlewares/ST/STM32_USB_Host_Library/Class/HID/Src/usbh_hid.c ****   }
 772:Middlewares/ST/STM32_USB_Host_Library/Class/HID/Src/usbh_hid.c ****   return type;
 1301              		.loc 1 772 3 is_stmt 1 view .LVU396
 773:Middlewares/ST/STM32_USB_Host_Library/Class/HID/Src/usbh_hid.c **** }
 1302              		.loc 1 773 1 is_stmt 0 view .LVU397
 1303 0032 7047     		bx	lr
 1304              		.cfi_endproc
 1305              	.LFE147:
 1307              		.section	.text.USBH_HID_GetPollInterval,"ax",%progbits
 1308              		.align	1
 1309              		.global	USBH_HID_GetPollInterval
 1310              		.syntax unified
 1311              		.thumb
 1312              		.thumb_func
 1313              		.fpu fpv4-sp-d16
 1315              	USBH_HID_GetPollInterval:
 1316              	.LVL121:
 1317              	.LFB148:
ARM GAS  C:\Users\union\AppData\Local\Temp\cc5SXdj6.s 			page 43


 774:Middlewares/ST/STM32_USB_Host_Library/Class/HID/Src/usbh_hid.c **** 
 775:Middlewares/ST/STM32_USB_Host_Library/Class/HID/Src/usbh_hid.c **** 
 776:Middlewares/ST/STM32_USB_Host_Library/Class/HID/Src/usbh_hid.c **** /**
 777:Middlewares/ST/STM32_USB_Host_Library/Class/HID/Src/usbh_hid.c ****   * @brief  USBH_HID_GetPollInterval
 778:Middlewares/ST/STM32_USB_Host_Library/Class/HID/Src/usbh_hid.c ****   *         Return HID device poll time
 779:Middlewares/ST/STM32_USB_Host_Library/Class/HID/Src/usbh_hid.c ****   * @param  phost: Host handle
 780:Middlewares/ST/STM32_USB_Host_Library/Class/HID/Src/usbh_hid.c ****   * @retval poll time (ms)
 781:Middlewares/ST/STM32_USB_Host_Library/Class/HID/Src/usbh_hid.c ****   */
 782:Middlewares/ST/STM32_USB_Host_Library/Class/HID/Src/usbh_hid.c **** uint8_t USBH_HID_GetPollInterval(USBH_HandleTypeDef *phost)
 783:Middlewares/ST/STM32_USB_Host_Library/Class/HID/Src/usbh_hid.c **** {
 1318              		.loc 1 783 1 is_stmt 1 view -0
 1319              		.cfi_startproc
 1320              		@ args = 0, pretend = 0, frame = 0
 1321              		@ frame_needed = 0, uses_anonymous_args = 0
 1322              		@ link register save eliminated.
 784:Middlewares/ST/STM32_USB_Host_Library/Class/HID/Src/usbh_hid.c ****   HID_HandleTypeDef *HID_Handle = (HID_HandleTypeDef *) phost->pActiveClass->pData;
 1323              		.loc 1 784 3 view .LVU399
 1324              		.loc 1 784 62 is_stmt 0 view .LVU400
 1325 0000 D0F87C33 		ldr	r3, [r0, #892]
 1326              		.loc 1 784 22 view .LVU401
 1327 0004 DA69     		ldr	r2, [r3, #28]
 1328              	.LVL122:
 785:Middlewares/ST/STM32_USB_Host_Library/Class/HID/Src/usbh_hid.c **** 
 786:Middlewares/ST/STM32_USB_Host_Library/Class/HID/Src/usbh_hid.c ****   if ((phost->gState == HOST_CLASS_REQUEST) ||
 1329              		.loc 1 786 3 is_stmt 1 view .LVU402
 1330              		.loc 1 786 13 is_stmt 0 view .LVU403
 1331 0006 0378     		ldrb	r3, [r0]	@ zero_extendqisi2
 1332 0008 DBB2     		uxtb	r3, r3
 1333              		.loc 1 786 6 view .LVU404
 1334 000a 062B     		cmp	r3, #6
 1335 000c 11D0     		beq	.L80
 787:Middlewares/ST/STM32_USB_Host_Library/Class/HID/Src/usbh_hid.c ****       (phost->gState == HOST_INPUT) ||
 1336              		.loc 1 787 13 discriminator 1 view .LVU405
 1337 000e 0378     		ldrb	r3, [r0]	@ zero_extendqisi2
 1338 0010 DBB2     		uxtb	r3, r3
 786:Middlewares/ST/STM32_USB_Host_Library/Class/HID/Src/usbh_hid.c ****       (phost->gState == HOST_INPUT) ||
 1339              		.loc 1 786 45 discriminator 1 view .LVU406
 1340 0012 072B     		cmp	r3, #7
 1341 0014 0DD0     		beq	.L80
 788:Middlewares/ST/STM32_USB_Host_Library/Class/HID/Src/usbh_hid.c ****       (phost->gState == HOST_SET_CONFIGURATION) ||
 1342              		.loc 1 788 13 view .LVU407
 1343 0016 0378     		ldrb	r3, [r0]	@ zero_extendqisi2
 1344 0018 DBB2     		uxtb	r3, r3
 787:Middlewares/ST/STM32_USB_Host_Library/Class/HID/Src/usbh_hid.c ****       (phost->gState == HOST_INPUT) ||
 1345              		.loc 1 787 37 view .LVU408
 1346 001a 082B     		cmp	r3, #8
 1347 001c 09D0     		beq	.L80
 789:Middlewares/ST/STM32_USB_Host_Library/Class/HID/Src/usbh_hid.c ****       (phost->gState == HOST_CHECK_CLASS) ||
 1348              		.loc 1 789 13 view .LVU409
 1349 001e 0378     		ldrb	r3, [r0]	@ zero_extendqisi2
 1350 0020 DBB2     		uxtb	r3, r3
 788:Middlewares/ST/STM32_USB_Host_Library/Class/HID/Src/usbh_hid.c ****       (phost->gState == HOST_SET_CONFIGURATION) ||
 1351              		.loc 1 788 49 view .LVU410
 1352 0022 0A2B     		cmp	r3, #10
 1353 0024 05D0     		beq	.L80
 790:Middlewares/ST/STM32_USB_Host_Library/Class/HID/Src/usbh_hid.c ****       ((phost->gState == HOST_CLASS)))
 1354              		.loc 1 790 14 view .LVU411
ARM GAS  C:\Users\union\AppData\Local\Temp\cc5SXdj6.s 			page 44


 1355 0026 0378     		ldrb	r3, [r0]	@ zero_extendqisi2
 1356 0028 DBB2     		uxtb	r3, r3
 789:Middlewares/ST/STM32_USB_Host_Library/Class/HID/Src/usbh_hid.c ****       (phost->gState == HOST_CHECK_CLASS) ||
 1357              		.loc 1 789 43 view .LVU412
 1358 002a 0B2B     		cmp	r3, #11
 1359 002c 01D0     		beq	.L80
 791:Middlewares/ST/STM32_USB_Host_Library/Class/HID/Src/usbh_hid.c ****   {
 792:Middlewares/ST/STM32_USB_Host_Library/Class/HID/Src/usbh_hid.c ****     return (uint8_t)(HID_Handle->poll);
 793:Middlewares/ST/STM32_USB_Host_Library/Class/HID/Src/usbh_hid.c ****   }
 794:Middlewares/ST/STM32_USB_Host_Library/Class/HID/Src/usbh_hid.c ****   else
 795:Middlewares/ST/STM32_USB_Host_Library/Class/HID/Src/usbh_hid.c ****   {
 796:Middlewares/ST/STM32_USB_Host_Library/Class/HID/Src/usbh_hid.c ****     return 0U;
 1360              		.loc 1 796 12 view .LVU413
 1361 002e 0020     		movs	r0, #0
 1362              	.LVL123:
 797:Middlewares/ST/STM32_USB_Host_Library/Class/HID/Src/usbh_hid.c ****   }
 798:Middlewares/ST/STM32_USB_Host_Library/Class/HID/Src/usbh_hid.c **** }
 1363              		.loc 1 798 1 view .LVU414
 1364 0030 7047     		bx	lr
 1365              	.LVL124:
 1366              	.L80:
 792:Middlewares/ST/STM32_USB_Host_Library/Class/HID/Src/usbh_hid.c ****   }
 1367              		.loc 1 792 5 is_stmt 1 view .LVU415
 792:Middlewares/ST/STM32_USB_Host_Library/Class/HID/Src/usbh_hid.c ****   }
 1368              		.loc 1 792 12 is_stmt 0 view .LVU416
 1369 0032 107F     		ldrb	r0, [r2, #28]	@ zero_extendqisi2
 1370              	.LVL125:
 792:Middlewares/ST/STM32_USB_Host_Library/Class/HID/Src/usbh_hid.c ****   }
 1371              		.loc 1 792 12 view .LVU417
 1372 0034 7047     		bx	lr
 1373              		.cfi_endproc
 1374              	.LFE148:
 1376              		.section	.text.USBH_HID_FifoInit,"ax",%progbits
 1377              		.align	1
 1378              		.global	USBH_HID_FifoInit
 1379              		.syntax unified
 1380              		.thumb
 1381              		.thumb_func
 1382              		.fpu fpv4-sp-d16
 1384              	USBH_HID_FifoInit:
 1385              	.LVL126:
 1386              	.LFB149:
 799:Middlewares/ST/STM32_USB_Host_Library/Class/HID/Src/usbh_hid.c **** /**
 800:Middlewares/ST/STM32_USB_Host_Library/Class/HID/Src/usbh_hid.c ****   * @brief  USBH_HID_FifoInit
 801:Middlewares/ST/STM32_USB_Host_Library/Class/HID/Src/usbh_hid.c ****   *         Initialize FIFO.
 802:Middlewares/ST/STM32_USB_Host_Library/Class/HID/Src/usbh_hid.c ****   * @param  f: Fifo address
 803:Middlewares/ST/STM32_USB_Host_Library/Class/HID/Src/usbh_hid.c ****   * @param  buf: Fifo buffer
 804:Middlewares/ST/STM32_USB_Host_Library/Class/HID/Src/usbh_hid.c ****   * @param  size: Fifo Size
 805:Middlewares/ST/STM32_USB_Host_Library/Class/HID/Src/usbh_hid.c ****   * @retval none
 806:Middlewares/ST/STM32_USB_Host_Library/Class/HID/Src/usbh_hid.c ****   */
 807:Middlewares/ST/STM32_USB_Host_Library/Class/HID/Src/usbh_hid.c **** void USBH_HID_FifoInit(FIFO_TypeDef *f, uint8_t *buf, uint16_t size)
 808:Middlewares/ST/STM32_USB_Host_Library/Class/HID/Src/usbh_hid.c **** {
 1387              		.loc 1 808 1 is_stmt 1 view -0
 1388              		.cfi_startproc
 1389              		@ args = 0, pretend = 0, frame = 0
 1390              		@ frame_needed = 0, uses_anonymous_args = 0
 1391              		@ link register save eliminated.
ARM GAS  C:\Users\union\AppData\Local\Temp\cc5SXdj6.s 			page 45


 809:Middlewares/ST/STM32_USB_Host_Library/Class/HID/Src/usbh_hid.c ****   f->head = 0U;
 1392              		.loc 1 809 3 view .LVU419
 1393              		.loc 1 809 11 is_stmt 0 view .LVU420
 1394 0000 0023     		movs	r3, #0
 1395 0002 8380     		strh	r3, [r0, #4]	@ movhi
 810:Middlewares/ST/STM32_USB_Host_Library/Class/HID/Src/usbh_hid.c ****   f->tail = 0U;
 1396              		.loc 1 810 3 is_stmt 1 view .LVU421
 1397              		.loc 1 810 11 is_stmt 0 view .LVU422
 1398 0004 C380     		strh	r3, [r0, #6]	@ movhi
 811:Middlewares/ST/STM32_USB_Host_Library/Class/HID/Src/usbh_hid.c ****   f->lock = 0U;
 1399              		.loc 1 811 3 is_stmt 1 view .LVU423
 1400              		.loc 1 811 11 is_stmt 0 view .LVU424
 1401 0006 8372     		strb	r3, [r0, #10]
 812:Middlewares/ST/STM32_USB_Host_Library/Class/HID/Src/usbh_hid.c ****   f->size = size;
 1402              		.loc 1 812 3 is_stmt 1 view .LVU425
 1403              		.loc 1 812 11 is_stmt 0 view .LVU426
 1404 0008 0281     		strh	r2, [r0, #8]	@ movhi
 813:Middlewares/ST/STM32_USB_Host_Library/Class/HID/Src/usbh_hid.c ****   f->buf = buf;
 1405              		.loc 1 813 3 is_stmt 1 view .LVU427
 1406              		.loc 1 813 10 is_stmt 0 view .LVU428
 1407 000a 0160     		str	r1, [r0]
 814:Middlewares/ST/STM32_USB_Host_Library/Class/HID/Src/usbh_hid.c **** }
 1408              		.loc 1 814 1 view .LVU429
 1409 000c 7047     		bx	lr
 1410              		.cfi_endproc
 1411              	.LFE149:
 1413              		.section	.text.USBH_HID_FifoRead,"ax",%progbits
 1414              		.align	1
 1415              		.global	USBH_HID_FifoRead
 1416              		.syntax unified
 1417              		.thumb
 1418              		.thumb_func
 1419              		.fpu fpv4-sp-d16
 1421              	USBH_HID_FifoRead:
 1422              	.LVL127:
 1423              	.LFB150:
 815:Middlewares/ST/STM32_USB_Host_Library/Class/HID/Src/usbh_hid.c **** 
 816:Middlewares/ST/STM32_USB_Host_Library/Class/HID/Src/usbh_hid.c **** /**
 817:Middlewares/ST/STM32_USB_Host_Library/Class/HID/Src/usbh_hid.c ****   * @brief  USBH_HID_FifoRead
 818:Middlewares/ST/STM32_USB_Host_Library/Class/HID/Src/usbh_hid.c ****   *         Read from FIFO.
 819:Middlewares/ST/STM32_USB_Host_Library/Class/HID/Src/usbh_hid.c ****   * @param  f: Fifo address
 820:Middlewares/ST/STM32_USB_Host_Library/Class/HID/Src/usbh_hid.c ****   * @param  buf: read buffer
 821:Middlewares/ST/STM32_USB_Host_Library/Class/HID/Src/usbh_hid.c ****   * @param  nbytes: number of item to read
 822:Middlewares/ST/STM32_USB_Host_Library/Class/HID/Src/usbh_hid.c ****   * @retval number of read items
 823:Middlewares/ST/STM32_USB_Host_Library/Class/HID/Src/usbh_hid.c ****   */
 824:Middlewares/ST/STM32_USB_Host_Library/Class/HID/Src/usbh_hid.c **** uint16_t USBH_HID_FifoRead(FIFO_TypeDef *f, void *buf, uint16_t nbytes)
 825:Middlewares/ST/STM32_USB_Host_Library/Class/HID/Src/usbh_hid.c **** {
 1424              		.loc 1 825 1 is_stmt 1 view -0
 1425              		.cfi_startproc
 1426              		@ args = 0, pretend = 0, frame = 0
 1427              		@ frame_needed = 0, uses_anonymous_args = 0
 1428              		@ link register save eliminated.
 1429              		.loc 1 825 1 is_stmt 0 view .LVU431
 1430 0000 0346     		mov	r3, r0
 826:Middlewares/ST/STM32_USB_Host_Library/Class/HID/Src/usbh_hid.c ****   uint16_t i;
 1431              		.loc 1 826 3 is_stmt 1 view .LVU432
 827:Middlewares/ST/STM32_USB_Host_Library/Class/HID/Src/usbh_hid.c ****   uint8_t *p;
ARM GAS  C:\Users\union\AppData\Local\Temp\cc5SXdj6.s 			page 46


 1432              		.loc 1 827 3 view .LVU433
 828:Middlewares/ST/STM32_USB_Host_Library/Class/HID/Src/usbh_hid.c **** 
 829:Middlewares/ST/STM32_USB_Host_Library/Class/HID/Src/usbh_hid.c ****   p = (uint8_t *) buf;
 1433              		.loc 1 829 3 view .LVU434
 1434              	.LVL128:
 830:Middlewares/ST/STM32_USB_Host_Library/Class/HID/Src/usbh_hid.c **** 
 831:Middlewares/ST/STM32_USB_Host_Library/Class/HID/Src/usbh_hid.c ****   if (f->lock == 0U)
 1435              		.loc 1 831 3 view .LVU435
 1436              		.loc 1 831 8 is_stmt 0 view .LVU436
 1437 0002 807A     		ldrb	r0, [r0, #10]	@ zero_extendqisi2
 1438              	.LVL129:
 1439              		.loc 1 831 6 view .LVU437
 1440 0004 20BB     		cbnz	r0, .L92
 832:Middlewares/ST/STM32_USB_Host_Library/Class/HID/Src/usbh_hid.c ****   {
 833:Middlewares/ST/STM32_USB_Host_Library/Class/HID/Src/usbh_hid.c ****     f->lock = 1U;
 1441              		.loc 1 833 5 is_stmt 1 view .LVU438
 1442              		.loc 1 833 13 is_stmt 0 view .LVU439
 1443 0006 0120     		movs	r0, #1
 1444 0008 9872     		strb	r0, [r3, #10]
 834:Middlewares/ST/STM32_USB_Host_Library/Class/HID/Src/usbh_hid.c **** 
 835:Middlewares/ST/STM32_USB_Host_Library/Class/HID/Src/usbh_hid.c ****     for (i = 0U; i < nbytes; i++)
 1445              		.loc 1 835 5 is_stmt 1 view .LVU440
 1446              	.LVL130:
 1447              		.loc 1 835 12 is_stmt 0 view .LVU441
 1448 000a 0020     		movs	r0, #0
 1449              	.LVL131:
 1450              		.loc 1 835 5 view .LVU442
 1451 000c 9042     		cmp	r0, r2
 1452 000e 1FD2     		bcs	.L92
 825:Middlewares/ST/STM32_USB_Host_Library/Class/HID/Src/usbh_hid.c ****   uint16_t i;
 1453              		.loc 1 825 1 view .LVU443
 1454 0010 30B4     		push	{r4, r5}
 1455              	.LCFI18:
 1456              		.cfi_def_cfa_offset 8
 1457              		.cfi_offset 4, -8
 1458              		.cfi_offset 5, -4
 1459 0012 06E0     		b	.L90
 1460              	.LVL132:
 1461              	.L87:
 836:Middlewares/ST/STM32_USB_Host_Library/Class/HID/Src/usbh_hid.c ****     {
 837:Middlewares/ST/STM32_USB_Host_Library/Class/HID/Src/usbh_hid.c ****       if (f->tail != f->head)
 838:Middlewares/ST/STM32_USB_Host_Library/Class/HID/Src/usbh_hid.c ****       {
 839:Middlewares/ST/STM32_USB_Host_Library/Class/HID/Src/usbh_hid.c ****         *p++ = f->buf[f->tail];
 840:Middlewares/ST/STM32_USB_Host_Library/Class/HID/Src/usbh_hid.c ****         f->tail++;
 841:Middlewares/ST/STM32_USB_Host_Library/Class/HID/Src/usbh_hid.c **** 
 842:Middlewares/ST/STM32_USB_Host_Library/Class/HID/Src/usbh_hid.c ****         if (f->tail == f->size)
 843:Middlewares/ST/STM32_USB_Host_Library/Class/HID/Src/usbh_hid.c ****         {
 844:Middlewares/ST/STM32_USB_Host_Library/Class/HID/Src/usbh_hid.c ****           f->tail = 0U;
 845:Middlewares/ST/STM32_USB_Host_Library/Class/HID/Src/usbh_hid.c ****         }
 846:Middlewares/ST/STM32_USB_Host_Library/Class/HID/Src/usbh_hid.c ****       }
 847:Middlewares/ST/STM32_USB_Host_Library/Class/HID/Src/usbh_hid.c ****       else
 848:Middlewares/ST/STM32_USB_Host_Library/Class/HID/Src/usbh_hid.c ****       {
 849:Middlewares/ST/STM32_USB_Host_Library/Class/HID/Src/usbh_hid.c ****         f->lock = 0U;
 1462              		.loc 1 849 9 is_stmt 1 view .LVU444
 1463              		.loc 1 849 17 is_stmt 0 view .LVU445
 1464 0014 0022     		movs	r2, #0
 1465              	.LVL133:
ARM GAS  C:\Users\union\AppData\Local\Temp\cc5SXdj6.s 			page 47


 1466              		.loc 1 849 17 view .LVU446
 1467 0016 9A72     		strb	r2, [r3, #10]
 850:Middlewares/ST/STM32_USB_Host_Library/Class/HID/Src/usbh_hid.c ****         return i;
 1468              		.loc 1 850 9 is_stmt 1 view .LVU447
 1469              		.loc 1 850 16 is_stmt 0 view .LVU448
 1470 0018 18E0     		b	.L89
 1471              	.LVL134:
 1472              	.L88:
 835:Middlewares/ST/STM32_USB_Host_Library/Class/HID/Src/usbh_hid.c ****     {
 1473              		.loc 1 835 31 discriminator 2 view .LVU449
 1474 001a 0130     		adds	r0, r0, #1
 1475              	.LVL135:
 835:Middlewares/ST/STM32_USB_Host_Library/Class/HID/Src/usbh_hid.c ****     {
 1476              		.loc 1 835 31 discriminator 2 view .LVU450
 1477 001c 80B2     		uxth	r0, r0
 1478              	.LVL136:
 835:Middlewares/ST/STM32_USB_Host_Library/Class/HID/Src/usbh_hid.c ****     {
 1479              		.loc 1 835 5 discriminator 2 view .LVU451
 1480 001e 9042     		cmp	r0, r2
 1481 0020 11D2     		bcs	.L97
 1482              	.LVL137:
 1483              	.L90:
 837:Middlewares/ST/STM32_USB_Host_Library/Class/HID/Src/usbh_hid.c ****       {
 1484              		.loc 1 837 7 is_stmt 1 view .LVU452
 837:Middlewares/ST/STM32_USB_Host_Library/Class/HID/Src/usbh_hid.c ****       {
 1485              		.loc 1 837 12 is_stmt 0 view .LVU453
 1486 0022 DC88     		ldrh	r4, [r3, #6]
 837:Middlewares/ST/STM32_USB_Host_Library/Class/HID/Src/usbh_hid.c ****       {
 1487              		.loc 1 837 23 view .LVU454
 1488 0024 9D88     		ldrh	r5, [r3, #4]
 837:Middlewares/ST/STM32_USB_Host_Library/Class/HID/Src/usbh_hid.c ****       {
 1489              		.loc 1 837 10 view .LVU455
 1490 0026 AC42     		cmp	r4, r5
 1491 0028 F4D0     		beq	.L87
 839:Middlewares/ST/STM32_USB_Host_Library/Class/HID/Src/usbh_hid.c ****         f->tail++;
 1492              		.loc 1 839 9 is_stmt 1 view .LVU456
 839:Middlewares/ST/STM32_USB_Host_Library/Class/HID/Src/usbh_hid.c ****         f->tail++;
 1493              		.loc 1 839 17 is_stmt 0 view .LVU457
 1494 002a 1D68     		ldr	r5, [r3]
 1495              	.LVL138:
 839:Middlewares/ST/STM32_USB_Host_Library/Class/HID/Src/usbh_hid.c ****         f->tail++;
 1496              		.loc 1 839 22 view .LVU458
 1497 002c 2C5D     		ldrb	r4, [r5, r4]	@ zero_extendqisi2
 839:Middlewares/ST/STM32_USB_Host_Library/Class/HID/Src/usbh_hid.c ****         f->tail++;
 1498              		.loc 1 839 14 view .LVU459
 1499 002e 01F8014B 		strb	r4, [r1], #1
 1500              	.LVL139:
 840:Middlewares/ST/STM32_USB_Host_Library/Class/HID/Src/usbh_hid.c **** 
 1501              		.loc 1 840 9 is_stmt 1 view .LVU460
 840:Middlewares/ST/STM32_USB_Host_Library/Class/HID/Src/usbh_hid.c **** 
 1502              		.loc 1 840 10 is_stmt 0 view .LVU461
 1503 0032 DC88     		ldrh	r4, [r3, #6]
 840:Middlewares/ST/STM32_USB_Host_Library/Class/HID/Src/usbh_hid.c **** 
 1504              		.loc 1 840 16 view .LVU462
 1505 0034 0134     		adds	r4, r4, #1
 1506 0036 A4B2     		uxth	r4, r4
 1507 0038 DC80     		strh	r4, [r3, #6]	@ movhi
ARM GAS  C:\Users\union\AppData\Local\Temp\cc5SXdj6.s 			page 48


 842:Middlewares/ST/STM32_USB_Host_Library/Class/HID/Src/usbh_hid.c ****         {
 1508              		.loc 1 842 9 is_stmt 1 view .LVU463
 842:Middlewares/ST/STM32_USB_Host_Library/Class/HID/Src/usbh_hid.c ****         {
 1509              		.loc 1 842 25 is_stmt 0 view .LVU464
 1510 003a 1D89     		ldrh	r5, [r3, #8]
 842:Middlewares/ST/STM32_USB_Host_Library/Class/HID/Src/usbh_hid.c ****         {
 1511              		.loc 1 842 12 view .LVU465
 1512 003c AC42     		cmp	r4, r5
 1513 003e ECD1     		bne	.L88
 844:Middlewares/ST/STM32_USB_Host_Library/Class/HID/Src/usbh_hid.c ****         }
 1514              		.loc 1 844 11 is_stmt 1 view .LVU466
 844:Middlewares/ST/STM32_USB_Host_Library/Class/HID/Src/usbh_hid.c ****         }
 1515              		.loc 1 844 19 is_stmt 0 view .LVU467
 1516 0040 0024     		movs	r4, #0
 1517 0042 DC80     		strh	r4, [r3, #6]	@ movhi
 1518 0044 E9E7     		b	.L88
 1519              	.L97:
 851:Middlewares/ST/STM32_USB_Host_Library/Class/HID/Src/usbh_hid.c ****       }
 852:Middlewares/ST/STM32_USB_Host_Library/Class/HID/Src/usbh_hid.c ****     }
 853:Middlewares/ST/STM32_USB_Host_Library/Class/HID/Src/usbh_hid.c ****   }
 854:Middlewares/ST/STM32_USB_Host_Library/Class/HID/Src/usbh_hid.c **** 
 855:Middlewares/ST/STM32_USB_Host_Library/Class/HID/Src/usbh_hid.c ****   f->lock = 0U;
 1520              		.loc 1 855 3 is_stmt 1 view .LVU468
 1521              		.loc 1 855 11 is_stmt 0 view .LVU469
 1522 0046 0021     		movs	r1, #0
 1523              	.LVL140:
 1524              		.loc 1 855 11 view .LVU470
 1525 0048 9972     		strb	r1, [r3, #10]
 856:Middlewares/ST/STM32_USB_Host_Library/Class/HID/Src/usbh_hid.c **** 
 857:Middlewares/ST/STM32_USB_Host_Library/Class/HID/Src/usbh_hid.c ****   return nbytes;
 1526              		.loc 1 857 3 is_stmt 1 view .LVU471
 1527              		.loc 1 857 10 is_stmt 0 view .LVU472
 1528 004a 1046     		mov	r0, r2
 1529              	.LVL141:
 1530              	.L89:
 858:Middlewares/ST/STM32_USB_Host_Library/Class/HID/Src/usbh_hid.c **** }
 1531              		.loc 1 858 1 view .LVU473
 1532 004c 30BC     		pop	{r4, r5}
 1533              	.LCFI19:
 1534              		.cfi_restore 5
 1535              		.cfi_restore 4
 1536              		.cfi_def_cfa_offset 0
 1537 004e 7047     		bx	lr
 1538              	.LVL142:
 1539              	.L92:
 855:Middlewares/ST/STM32_USB_Host_Library/Class/HID/Src/usbh_hid.c **** 
 1540              		.loc 1 855 3 is_stmt 1 view .LVU474
 855:Middlewares/ST/STM32_USB_Host_Library/Class/HID/Src/usbh_hid.c **** 
 1541              		.loc 1 855 11 is_stmt 0 view .LVU475
 1542 0050 0021     		movs	r1, #0
 1543              	.LVL143:
 855:Middlewares/ST/STM32_USB_Host_Library/Class/HID/Src/usbh_hid.c **** 
 1544              		.loc 1 855 11 view .LVU476
 1545 0052 9972     		strb	r1, [r3, #10]
 857:Middlewares/ST/STM32_USB_Host_Library/Class/HID/Src/usbh_hid.c **** }
 1546              		.loc 1 857 3 is_stmt 1 view .LVU477
 857:Middlewares/ST/STM32_USB_Host_Library/Class/HID/Src/usbh_hid.c **** }
ARM GAS  C:\Users\union\AppData\Local\Temp\cc5SXdj6.s 			page 49


 1547              		.loc 1 857 10 is_stmt 0 view .LVU478
 1548 0054 1046     		mov	r0, r2
 1549              		.loc 1 858 1 view .LVU479
 1550 0056 7047     		bx	lr
 1551              		.cfi_endproc
 1552              	.LFE150:
 1554              		.section	.text.USBH_HID_FifoWrite,"ax",%progbits
 1555              		.align	1
 1556              		.global	USBH_HID_FifoWrite
 1557              		.syntax unified
 1558              		.thumb
 1559              		.thumb_func
 1560              		.fpu fpv4-sp-d16
 1562              	USBH_HID_FifoWrite:
 1563              	.LVL144:
 1564              	.LFB151:
 859:Middlewares/ST/STM32_USB_Host_Library/Class/HID/Src/usbh_hid.c **** 
 860:Middlewares/ST/STM32_USB_Host_Library/Class/HID/Src/usbh_hid.c **** /**
 861:Middlewares/ST/STM32_USB_Host_Library/Class/HID/Src/usbh_hid.c ****   * @brief  USBH_HID_FifoWrite
 862:Middlewares/ST/STM32_USB_Host_Library/Class/HID/Src/usbh_hid.c ****   *         Write To FIFO.
 863:Middlewares/ST/STM32_USB_Host_Library/Class/HID/Src/usbh_hid.c ****   * @param  f: Fifo address
 864:Middlewares/ST/STM32_USB_Host_Library/Class/HID/Src/usbh_hid.c ****   * @param  buf: read buffer
 865:Middlewares/ST/STM32_USB_Host_Library/Class/HID/Src/usbh_hid.c ****   * @param  nbytes: number of item to write
 866:Middlewares/ST/STM32_USB_Host_Library/Class/HID/Src/usbh_hid.c ****   * @retval number of written items
 867:Middlewares/ST/STM32_USB_Host_Library/Class/HID/Src/usbh_hid.c ****   */
 868:Middlewares/ST/STM32_USB_Host_Library/Class/HID/Src/usbh_hid.c **** uint16_t USBH_HID_FifoWrite(FIFO_TypeDef *f, void *buf, uint16_t  nbytes)
 869:Middlewares/ST/STM32_USB_Host_Library/Class/HID/Src/usbh_hid.c **** {
 1565              		.loc 1 869 1 is_stmt 1 view -0
 1566              		.cfi_startproc
 1567              		@ args = 0, pretend = 0, frame = 0
 1568              		@ frame_needed = 0, uses_anonymous_args = 0
 1569              		@ link register save eliminated.
 1570              		.loc 1 869 1 is_stmt 0 view .LVU481
 1571 0000 0346     		mov	r3, r0
 870:Middlewares/ST/STM32_USB_Host_Library/Class/HID/Src/usbh_hid.c ****   uint16_t i;
 1572              		.loc 1 870 3 is_stmt 1 view .LVU482
 871:Middlewares/ST/STM32_USB_Host_Library/Class/HID/Src/usbh_hid.c ****   uint8_t *p;
 1573              		.loc 1 871 3 view .LVU483
 872:Middlewares/ST/STM32_USB_Host_Library/Class/HID/Src/usbh_hid.c **** 
 873:Middlewares/ST/STM32_USB_Host_Library/Class/HID/Src/usbh_hid.c ****   p = (uint8_t *) buf;
 1574              		.loc 1 873 3 view .LVU484
 1575              	.LVL145:
 874:Middlewares/ST/STM32_USB_Host_Library/Class/HID/Src/usbh_hid.c **** 
 875:Middlewares/ST/STM32_USB_Host_Library/Class/HID/Src/usbh_hid.c ****   if (f->lock == 0U)
 1576              		.loc 1 875 3 view .LVU485
 1577              		.loc 1 875 8 is_stmt 0 view .LVU486
 1578 0002 807A     		ldrb	r0, [r0, #10]	@ zero_extendqisi2
 1579              	.LVL146:
 1580              		.loc 1 875 6 view .LVU487
 1581 0004 48BB     		cbnz	r0, .L107
 876:Middlewares/ST/STM32_USB_Host_Library/Class/HID/Src/usbh_hid.c ****   {
 877:Middlewares/ST/STM32_USB_Host_Library/Class/HID/Src/usbh_hid.c ****     f->lock = 1U;
 1582              		.loc 1 877 5 is_stmt 1 view .LVU488
 1583              		.loc 1 877 13 is_stmt 0 view .LVU489
 1584 0006 0120     		movs	r0, #1
 1585 0008 9872     		strb	r0, [r3, #10]
 878:Middlewares/ST/STM32_USB_Host_Library/Class/HID/Src/usbh_hid.c **** 
ARM GAS  C:\Users\union\AppData\Local\Temp\cc5SXdj6.s 			page 50


 879:Middlewares/ST/STM32_USB_Host_Library/Class/HID/Src/usbh_hid.c ****     for (i = 0U; i < nbytes; i++)
 1586              		.loc 1 879 5 is_stmt 1 view .LVU490
 1587              	.LVL147:
 1588              		.loc 1 879 12 is_stmt 0 view .LVU491
 1589 000a 0020     		movs	r0, #0
 1590              	.LVL148:
 1591              		.loc 1 879 5 view .LVU492
 1592 000c 9042     		cmp	r0, r2
 1593 000e 24D2     		bcs	.L107
 869:Middlewares/ST/STM32_USB_Host_Library/Class/HID/Src/usbh_hid.c ****   uint16_t i;
 1594              		.loc 1 869 1 view .LVU493
 1595 0010 F0B4     		push	{r4, r5, r6, r7}
 1596              	.LCFI20:
 1597              		.cfi_def_cfa_offset 16
 1598              		.cfi_offset 4, -16
 1599              		.cfi_offset 5, -12
 1600              		.cfi_offset 6, -8
 1601              		.cfi_offset 7, -4
 1602 0012 07E0     		b	.L105
 1603              	.LVL149:
 1604              	.L113:
 880:Middlewares/ST/STM32_USB_Host_Library/Class/HID/Src/usbh_hid.c ****     {
 881:Middlewares/ST/STM32_USB_Host_Library/Class/HID/Src/usbh_hid.c ****       if ((f->head + 1U == f->tail) ||
 882:Middlewares/ST/STM32_USB_Host_Library/Class/HID/Src/usbh_hid.c ****           ((f->head + 1U == f->size) && (f->tail == 0U)))
 1605              		.loc 1 882 38 view .LVU494
 1606 0014 76B9     		cbnz	r6, .L102
 1607              	.L101:
 883:Middlewares/ST/STM32_USB_Host_Library/Class/HID/Src/usbh_hid.c ****       {
 884:Middlewares/ST/STM32_USB_Host_Library/Class/HID/Src/usbh_hid.c ****         f->lock = 0U;
 1608              		.loc 1 884 9 is_stmt 1 view .LVU495
 1609              		.loc 1 884 17 is_stmt 0 view .LVU496
 1610 0016 0022     		movs	r2, #0
 1611              	.LVL150:
 1612              		.loc 1 884 17 view .LVU497
 1613 0018 9A72     		strb	r2, [r3, #10]
 885:Middlewares/ST/STM32_USB_Host_Library/Class/HID/Src/usbh_hid.c ****         return i;
 1614              		.loc 1 885 9 is_stmt 1 view .LVU498
 1615              		.loc 1 885 16 is_stmt 0 view .LVU499
 1616 001a 1CE0     		b	.L103
 1617              	.LVL151:
 1618              	.L104:
 879:Middlewares/ST/STM32_USB_Host_Library/Class/HID/Src/usbh_hid.c ****     {
 1619              		.loc 1 879 31 discriminator 2 view .LVU500
 1620 001c 0130     		adds	r0, r0, #1
 1621              	.LVL152:
 879:Middlewares/ST/STM32_USB_Host_Library/Class/HID/Src/usbh_hid.c ****     {
 1622              		.loc 1 879 31 discriminator 2 view .LVU501
 1623 001e 80B2     		uxth	r0, r0
 1624              	.LVL153:
 879:Middlewares/ST/STM32_USB_Host_Library/Class/HID/Src/usbh_hid.c ****     {
 1625              		.loc 1 879 5 discriminator 2 view .LVU502
 1626 0020 9042     		cmp	r0, r2
 1627 0022 15D2     		bcs	.L112
 1628              	.LVL154:
 1629              	.L105:
 881:Middlewares/ST/STM32_USB_Host_Library/Class/HID/Src/usbh_hid.c ****           ((f->head + 1U == f->size) && (f->tail == 0U)))
 1630              		.loc 1 881 7 is_stmt 1 view .LVU503
ARM GAS  C:\Users\union\AppData\Local\Temp\cc5SXdj6.s 			page 51


 881:Middlewares/ST/STM32_USB_Host_Library/Class/HID/Src/usbh_hid.c ****           ((f->head + 1U == f->size) && (f->tail == 0U)))
 1631              		.loc 1 881 13 is_stmt 0 view .LVU504
 1632 0024 9D88     		ldrh	r5, [r3, #4]
 881:Middlewares/ST/STM32_USB_Host_Library/Class/HID/Src/usbh_hid.c ****           ((f->head + 1U == f->size) && (f->tail == 0U)))
 1633              		.loc 1 881 20 view .LVU505
 1634 0026 6C1C     		adds	r4, r5, #1
 881:Middlewares/ST/STM32_USB_Host_Library/Class/HID/Src/usbh_hid.c ****           ((f->head + 1U == f->size) && (f->tail == 0U)))
 1635              		.loc 1 881 29 view .LVU506
 1636 0028 DE88     		ldrh	r6, [r3, #6]
 881:Middlewares/ST/STM32_USB_Host_Library/Class/HID/Src/usbh_hid.c ****           ((f->head + 1U == f->size) && (f->tail == 0U)))
 1637              		.loc 1 881 10 view .LVU507
 1638 002a B442     		cmp	r4, r6
 1639 002c F3D0     		beq	.L101
 882:Middlewares/ST/STM32_USB_Host_Library/Class/HID/Src/usbh_hid.c ****       {
 1640              		.loc 1 882 30 discriminator 1 view .LVU508
 1641 002e 1F89     		ldrh	r7, [r3, #8]
 881:Middlewares/ST/STM32_USB_Host_Library/Class/HID/Src/usbh_hid.c ****           ((f->head + 1U == f->size) && (f->tail == 0U)))
 1642              		.loc 1 881 37 discriminator 1 view .LVU509
 1643 0030 BC42     		cmp	r4, r7
 1644 0032 EFD0     		beq	.L113
 1645              	.L102:
 886:Middlewares/ST/STM32_USB_Host_Library/Class/HID/Src/usbh_hid.c ****       }
 887:Middlewares/ST/STM32_USB_Host_Library/Class/HID/Src/usbh_hid.c ****       else
 888:Middlewares/ST/STM32_USB_Host_Library/Class/HID/Src/usbh_hid.c ****       {
 889:Middlewares/ST/STM32_USB_Host_Library/Class/HID/Src/usbh_hid.c ****         f->buf[f->head] = *p++;
 1646              		.loc 1 889 9 is_stmt 1 view .LVU510
 1647              	.LVL155:
 1648              		.loc 1 889 10 is_stmt 0 view .LVU511
 1649 0034 1C68     		ldr	r4, [r3]
 1650              		.loc 1 889 27 view .LVU512
 1651 0036 11F8016B 		ldrb	r6, [r1], #1	@ zero_extendqisi2
 1652              	.LVL156:
 1653              		.loc 1 889 25 view .LVU513
 1654 003a 6655     		strb	r6, [r4, r5]
 890:Middlewares/ST/STM32_USB_Host_Library/Class/HID/Src/usbh_hid.c ****         f->head++;
 1655              		.loc 1 890 9 is_stmt 1 view .LVU514
 1656              		.loc 1 890 10 is_stmt 0 view .LVU515
 1657 003c 9C88     		ldrh	r4, [r3, #4]
 1658              		.loc 1 890 16 view .LVU516
 1659 003e 0134     		adds	r4, r4, #1
 1660 0040 A4B2     		uxth	r4, r4
 1661 0042 9C80     		strh	r4, [r3, #4]	@ movhi
 891:Middlewares/ST/STM32_USB_Host_Library/Class/HID/Src/usbh_hid.c **** 
 892:Middlewares/ST/STM32_USB_Host_Library/Class/HID/Src/usbh_hid.c ****         if (f->head == f->size)
 1662              		.loc 1 892 9 is_stmt 1 view .LVU517
 1663              		.loc 1 892 25 is_stmt 0 view .LVU518
 1664 0044 1D89     		ldrh	r5, [r3, #8]
 1665              		.loc 1 892 12 view .LVU519
 1666 0046 AC42     		cmp	r4, r5
 1667 0048 E8D1     		bne	.L104
 893:Middlewares/ST/STM32_USB_Host_Library/Class/HID/Src/usbh_hid.c ****         {
 894:Middlewares/ST/STM32_USB_Host_Library/Class/HID/Src/usbh_hid.c ****           f->head = 0U;
 1668              		.loc 1 894 11 is_stmt 1 view .LVU520
 1669              		.loc 1 894 19 is_stmt 0 view .LVU521
 1670 004a 0024     		movs	r4, #0
 1671 004c 9C80     		strh	r4, [r3, #4]	@ movhi
 1672 004e E5E7     		b	.L104
ARM GAS  C:\Users\union\AppData\Local\Temp\cc5SXdj6.s 			page 52


 1673              	.L112:
 895:Middlewares/ST/STM32_USB_Host_Library/Class/HID/Src/usbh_hid.c ****         }
 896:Middlewares/ST/STM32_USB_Host_Library/Class/HID/Src/usbh_hid.c ****       }
 897:Middlewares/ST/STM32_USB_Host_Library/Class/HID/Src/usbh_hid.c ****     }
 898:Middlewares/ST/STM32_USB_Host_Library/Class/HID/Src/usbh_hid.c ****   }
 899:Middlewares/ST/STM32_USB_Host_Library/Class/HID/Src/usbh_hid.c **** 
 900:Middlewares/ST/STM32_USB_Host_Library/Class/HID/Src/usbh_hid.c ****   f->lock = 0U;
 1674              		.loc 1 900 3 is_stmt 1 view .LVU522
 1675              		.loc 1 900 11 is_stmt 0 view .LVU523
 1676 0050 0021     		movs	r1, #0
 1677              	.LVL157:
 1678              		.loc 1 900 11 view .LVU524
 1679 0052 9972     		strb	r1, [r3, #10]
 901:Middlewares/ST/STM32_USB_Host_Library/Class/HID/Src/usbh_hid.c **** 
 902:Middlewares/ST/STM32_USB_Host_Library/Class/HID/Src/usbh_hid.c ****   return nbytes;
 1680              		.loc 1 902 3 is_stmt 1 view .LVU525
 1681              		.loc 1 902 10 is_stmt 0 view .LVU526
 1682 0054 1046     		mov	r0, r2
 1683              	.LVL158:
 1684              	.L103:
 903:Middlewares/ST/STM32_USB_Host_Library/Class/HID/Src/usbh_hid.c **** }
 1685              		.loc 1 903 1 view .LVU527
 1686 0056 F0BC     		pop	{r4, r5, r6, r7}
 1687              	.LCFI21:
 1688              		.cfi_restore 7
 1689              		.cfi_restore 6
 1690              		.cfi_restore 5
 1691              		.cfi_restore 4
 1692              		.cfi_def_cfa_offset 0
 1693 0058 7047     		bx	lr
 1694              	.LVL159:
 1695              	.L107:
 900:Middlewares/ST/STM32_USB_Host_Library/Class/HID/Src/usbh_hid.c **** 
 1696              		.loc 1 900 3 is_stmt 1 view .LVU528
 900:Middlewares/ST/STM32_USB_Host_Library/Class/HID/Src/usbh_hid.c **** 
 1697              		.loc 1 900 11 is_stmt 0 view .LVU529
 1698 005a 0021     		movs	r1, #0
 1699              	.LVL160:
 900:Middlewares/ST/STM32_USB_Host_Library/Class/HID/Src/usbh_hid.c **** 
 1700              		.loc 1 900 11 view .LVU530
 1701 005c 9972     		strb	r1, [r3, #10]
 902:Middlewares/ST/STM32_USB_Host_Library/Class/HID/Src/usbh_hid.c **** }
 1702              		.loc 1 902 3 is_stmt 1 view .LVU531
 902:Middlewares/ST/STM32_USB_Host_Library/Class/HID/Src/usbh_hid.c **** }
 1703              		.loc 1 902 10 is_stmt 0 view .LVU532
 1704 005e 1046     		mov	r0, r2
 1705              		.loc 1 903 1 view .LVU533
 1706 0060 7047     		bx	lr
 1707              		.cfi_endproc
 1708              	.LFE151:
 1710              		.section	.text.USBH_HID_EventCallback,"ax",%progbits
 1711              		.align	1
 1712              		.weak	USBH_HID_EventCallback
 1713              		.syntax unified
