ARM GAS  C:\Users\union\AppData\Local\Temp\ccz9TGhh.s 			page 1


   1              		.cpu cortex-m4
   2              		.eabi_attribute 27, 1
   3              		.eabi_attribute 28, 1
   4              		.eabi_attribute 20, 1
   5              		.eabi_attribute 21, 1
   6              		.eabi_attribute 23, 3
   7              		.eabi_attribute 24, 1
   8              		.eabi_attribute 25, 1
   9              		.eabi_attribute 26, 1
  10              		.eabi_attribute 30, 1
  11              		.eabi_attribute 34, 1
  12              		.eabi_attribute 18, 4
  13              		.file	"usbh_hid_parser.c"
  14              		.text
  15              	.Ltext0:
  16              		.cfi_sections	.debug_frame
  17              		.section	.text.HID_ReadItem,"ax",%progbits
  18              		.align	1
  19              		.global	HID_ReadItem
  20              		.arch armv7e-m
  21              		.syntax unified
  22              		.thumb
  23              		.thumb_func
  24              		.fpu fpv4-sp-d16
  26              	HID_ReadItem:
  27              	.LVL0:
  28              	.LFB135:
  29              		.file 1 "Middlewares/ST/STM32_USB_Host_Library/Class/HID/Src/usbh_hid_parser.c"
   1:Middlewares/ST/STM32_USB_Host_Library/Class/HID/Src/usbh_hid_parser.c **** /**
   2:Middlewares/ST/STM32_USB_Host_Library/Class/HID/Src/usbh_hid_parser.c ****   ******************************************************************************
   3:Middlewares/ST/STM32_USB_Host_Library/Class/HID/Src/usbh_hid_parser.c ****   * @file    usbh_hid_parser.c
   4:Middlewares/ST/STM32_USB_Host_Library/Class/HID/Src/usbh_hid_parser.c ****   * @author  MCD Application Team
   5:Middlewares/ST/STM32_USB_Host_Library/Class/HID/Src/usbh_hid_parser.c ****   * @brief   This file is the HID Layer Handlers for USB Host HID class.
   6:Middlewares/ST/STM32_USB_Host_Library/Class/HID/Src/usbh_hid_parser.c ****   ******************************************************************************
   7:Middlewares/ST/STM32_USB_Host_Library/Class/HID/Src/usbh_hid_parser.c ****   * @attention
   8:Middlewares/ST/STM32_USB_Host_Library/Class/HID/Src/usbh_hid_parser.c ****   *
   9:Middlewares/ST/STM32_USB_Host_Library/Class/HID/Src/usbh_hid_parser.c ****   * <h2><center>&copy; Copyright (c) 2015 STMicroelectronics.
  10:Middlewares/ST/STM32_USB_Host_Library/Class/HID/Src/usbh_hid_parser.c ****   * All rights reserved.</center></h2>
  11:Middlewares/ST/STM32_USB_Host_Library/Class/HID/Src/usbh_hid_parser.c ****   *
  12:Middlewares/ST/STM32_USB_Host_Library/Class/HID/Src/usbh_hid_parser.c ****   * This software component is licensed by ST under Ultimate Liberty license
  13:Middlewares/ST/STM32_USB_Host_Library/Class/HID/Src/usbh_hid_parser.c ****   * SLA0044, the "License"; You may not use this file except in compliance with
  14:Middlewares/ST/STM32_USB_Host_Library/Class/HID/Src/usbh_hid_parser.c ****   * the License. You may obtain a copy of the License at:
  15:Middlewares/ST/STM32_USB_Host_Library/Class/HID/Src/usbh_hid_parser.c ****   *                      www.st.com/SLA0044
  16:Middlewares/ST/STM32_USB_Host_Library/Class/HID/Src/usbh_hid_parser.c ****   *
  17:Middlewares/ST/STM32_USB_Host_Library/Class/HID/Src/usbh_hid_parser.c ****   ******************************************************************************
  18:Middlewares/ST/STM32_USB_Host_Library/Class/HID/Src/usbh_hid_parser.c ****   */
  19:Middlewares/ST/STM32_USB_Host_Library/Class/HID/Src/usbh_hid_parser.c **** 
  20:Middlewares/ST/STM32_USB_Host_Library/Class/HID/Src/usbh_hid_parser.c **** /* BSPDependencies
  21:Middlewares/ST/STM32_USB_Host_Library/Class/HID/Src/usbh_hid_parser.c **** - "stm32xxxxx_{eval}{discovery}{nucleo_144}.c"
  22:Middlewares/ST/STM32_USB_Host_Library/Class/HID/Src/usbh_hid_parser.c **** - "stm32xxxxx_{eval}{discovery}_io.c"
  23:Middlewares/ST/STM32_USB_Host_Library/Class/HID/Src/usbh_hid_parser.c **** - "stm32xxxxx_{eval}{discovery}{adafruit}_lcd.c"
  24:Middlewares/ST/STM32_USB_Host_Library/Class/HID/Src/usbh_hid_parser.c **** - "stm32xxxxx_{eval}{discovery}_sdram.c"
  25:Middlewares/ST/STM32_USB_Host_Library/Class/HID/Src/usbh_hid_parser.c **** EndBSPDependencies */
  26:Middlewares/ST/STM32_USB_Host_Library/Class/HID/Src/usbh_hid_parser.c **** 
  27:Middlewares/ST/STM32_USB_Host_Library/Class/HID/Src/usbh_hid_parser.c **** /* Includes ------------------------------------------------------------------*/
  28:Middlewares/ST/STM32_USB_Host_Library/Class/HID/Src/usbh_hid_parser.c **** #include "usbh_hid_parser.h"
  29:Middlewares/ST/STM32_USB_Host_Library/Class/HID/Src/usbh_hid_parser.c **** 
ARM GAS  C:\Users\union\AppData\Local\Temp\ccz9TGhh.s 			page 2


  30:Middlewares/ST/STM32_USB_Host_Library/Class/HID/Src/usbh_hid_parser.c **** 
  31:Middlewares/ST/STM32_USB_Host_Library/Class/HID/Src/usbh_hid_parser.c **** /** @addtogroup USBH_LIB
  32:Middlewares/ST/STM32_USB_Host_Library/Class/HID/Src/usbh_hid_parser.c ****   * @{
  33:Middlewares/ST/STM32_USB_Host_Library/Class/HID/Src/usbh_hid_parser.c ****   */
  34:Middlewares/ST/STM32_USB_Host_Library/Class/HID/Src/usbh_hid_parser.c **** 
  35:Middlewares/ST/STM32_USB_Host_Library/Class/HID/Src/usbh_hid_parser.c **** /** @addtogroup USBH_CLASS
  36:Middlewares/ST/STM32_USB_Host_Library/Class/HID/Src/usbh_hid_parser.c ****   * @{
  37:Middlewares/ST/STM32_USB_Host_Library/Class/HID/Src/usbh_hid_parser.c ****   */
  38:Middlewares/ST/STM32_USB_Host_Library/Class/HID/Src/usbh_hid_parser.c **** 
  39:Middlewares/ST/STM32_USB_Host_Library/Class/HID/Src/usbh_hid_parser.c **** /** @addtogroup USBH_HID_CLASS
  40:Middlewares/ST/STM32_USB_Host_Library/Class/HID/Src/usbh_hid_parser.c ****   * @{
  41:Middlewares/ST/STM32_USB_Host_Library/Class/HID/Src/usbh_hid_parser.c ****   */
  42:Middlewares/ST/STM32_USB_Host_Library/Class/HID/Src/usbh_hid_parser.c **** 
  43:Middlewares/ST/STM32_USB_Host_Library/Class/HID/Src/usbh_hid_parser.c **** /** @defgroup USBH_HID_PARSER
  44:Middlewares/ST/STM32_USB_Host_Library/Class/HID/Src/usbh_hid_parser.c ****   * @brief    This file includes HID parsers for USB Host HID class.
  45:Middlewares/ST/STM32_USB_Host_Library/Class/HID/Src/usbh_hid_parser.c ****   * @{
  46:Middlewares/ST/STM32_USB_Host_Library/Class/HID/Src/usbh_hid_parser.c ****   */
  47:Middlewares/ST/STM32_USB_Host_Library/Class/HID/Src/usbh_hid_parser.c **** 
  48:Middlewares/ST/STM32_USB_Host_Library/Class/HID/Src/usbh_hid_parser.c **** /** @defgroup USBH_HID_PARSER_Private_TypesDefinitions
  49:Middlewares/ST/STM32_USB_Host_Library/Class/HID/Src/usbh_hid_parser.c ****   * @{
  50:Middlewares/ST/STM32_USB_Host_Library/Class/HID/Src/usbh_hid_parser.c ****   */
  51:Middlewares/ST/STM32_USB_Host_Library/Class/HID/Src/usbh_hid_parser.c **** /**
  52:Middlewares/ST/STM32_USB_Host_Library/Class/HID/Src/usbh_hid_parser.c ****   * @}
  53:Middlewares/ST/STM32_USB_Host_Library/Class/HID/Src/usbh_hid_parser.c ****   */
  54:Middlewares/ST/STM32_USB_Host_Library/Class/HID/Src/usbh_hid_parser.c **** 
  55:Middlewares/ST/STM32_USB_Host_Library/Class/HID/Src/usbh_hid_parser.c **** 
  56:Middlewares/ST/STM32_USB_Host_Library/Class/HID/Src/usbh_hid_parser.c **** /** @defgroup USBH_HID_PARSER_Private_Defines
  57:Middlewares/ST/STM32_USB_Host_Library/Class/HID/Src/usbh_hid_parser.c ****   * @{
  58:Middlewares/ST/STM32_USB_Host_Library/Class/HID/Src/usbh_hid_parser.c ****   */
  59:Middlewares/ST/STM32_USB_Host_Library/Class/HID/Src/usbh_hid_parser.c **** /**
  60:Middlewares/ST/STM32_USB_Host_Library/Class/HID/Src/usbh_hid_parser.c ****   * @}
  61:Middlewares/ST/STM32_USB_Host_Library/Class/HID/Src/usbh_hid_parser.c ****   */
  62:Middlewares/ST/STM32_USB_Host_Library/Class/HID/Src/usbh_hid_parser.c **** 
  63:Middlewares/ST/STM32_USB_Host_Library/Class/HID/Src/usbh_hid_parser.c **** 
  64:Middlewares/ST/STM32_USB_Host_Library/Class/HID/Src/usbh_hid_parser.c **** /** @defgroup USBH_HID_PARSER_Private_Macros
  65:Middlewares/ST/STM32_USB_Host_Library/Class/HID/Src/usbh_hid_parser.c ****   * @{
  66:Middlewares/ST/STM32_USB_Host_Library/Class/HID/Src/usbh_hid_parser.c ****   */
  67:Middlewares/ST/STM32_USB_Host_Library/Class/HID/Src/usbh_hid_parser.c **** /**
  68:Middlewares/ST/STM32_USB_Host_Library/Class/HID/Src/usbh_hid_parser.c ****   * @}
  69:Middlewares/ST/STM32_USB_Host_Library/Class/HID/Src/usbh_hid_parser.c ****   */
  70:Middlewares/ST/STM32_USB_Host_Library/Class/HID/Src/usbh_hid_parser.c **** 
  71:Middlewares/ST/STM32_USB_Host_Library/Class/HID/Src/usbh_hid_parser.c **** /** @defgroup USBH_HID_PARSER_Private_FunctionPrototypes
  72:Middlewares/ST/STM32_USB_Host_Library/Class/HID/Src/usbh_hid_parser.c ****   * @{
  73:Middlewares/ST/STM32_USB_Host_Library/Class/HID/Src/usbh_hid_parser.c ****   */
  74:Middlewares/ST/STM32_USB_Host_Library/Class/HID/Src/usbh_hid_parser.c **** 
  75:Middlewares/ST/STM32_USB_Host_Library/Class/HID/Src/usbh_hid_parser.c **** /**
  76:Middlewares/ST/STM32_USB_Host_Library/Class/HID/Src/usbh_hid_parser.c ****   * @}
  77:Middlewares/ST/STM32_USB_Host_Library/Class/HID/Src/usbh_hid_parser.c ****   */
  78:Middlewares/ST/STM32_USB_Host_Library/Class/HID/Src/usbh_hid_parser.c **** 
  79:Middlewares/ST/STM32_USB_Host_Library/Class/HID/Src/usbh_hid_parser.c **** 
  80:Middlewares/ST/STM32_USB_Host_Library/Class/HID/Src/usbh_hid_parser.c **** /** @defgroup USBH_HID_PARSER_Private_Variables
  81:Middlewares/ST/STM32_USB_Host_Library/Class/HID/Src/usbh_hid_parser.c ****   * @{
  82:Middlewares/ST/STM32_USB_Host_Library/Class/HID/Src/usbh_hid_parser.c ****   */
  83:Middlewares/ST/STM32_USB_Host_Library/Class/HID/Src/usbh_hid_parser.c **** 
  84:Middlewares/ST/STM32_USB_Host_Library/Class/HID/Src/usbh_hid_parser.c **** /**
  85:Middlewares/ST/STM32_USB_Host_Library/Class/HID/Src/usbh_hid_parser.c ****   * @}
  86:Middlewares/ST/STM32_USB_Host_Library/Class/HID/Src/usbh_hid_parser.c ****   */
ARM GAS  C:\Users\union\AppData\Local\Temp\ccz9TGhh.s 			page 3


  87:Middlewares/ST/STM32_USB_Host_Library/Class/HID/Src/usbh_hid_parser.c **** 
  88:Middlewares/ST/STM32_USB_Host_Library/Class/HID/Src/usbh_hid_parser.c **** 
  89:Middlewares/ST/STM32_USB_Host_Library/Class/HID/Src/usbh_hid_parser.c **** /** @defgroup USBH_HID_PARSER_Private_Functions
  90:Middlewares/ST/STM32_USB_Host_Library/Class/HID/Src/usbh_hid_parser.c ****   * @{
  91:Middlewares/ST/STM32_USB_Host_Library/Class/HID/Src/usbh_hid_parser.c ****   */
  92:Middlewares/ST/STM32_USB_Host_Library/Class/HID/Src/usbh_hid_parser.c **** 
  93:Middlewares/ST/STM32_USB_Host_Library/Class/HID/Src/usbh_hid_parser.c **** /**
  94:Middlewares/ST/STM32_USB_Host_Library/Class/HID/Src/usbh_hid_parser.c ****   * @brief  HID_ReadItem
  95:Middlewares/ST/STM32_USB_Host_Library/Class/HID/Src/usbh_hid_parser.c ****   *         The function read a report item.
  96:Middlewares/ST/STM32_USB_Host_Library/Class/HID/Src/usbh_hid_parser.c ****   * @param  ri: report item
  97:Middlewares/ST/STM32_USB_Host_Library/Class/HID/Src/usbh_hid_parser.c ****   * @param  ndx: report index
  98:Middlewares/ST/STM32_USB_Host_Library/Class/HID/Src/usbh_hid_parser.c **** * @retval status (0 : fail / otherwise: item value)
  99:Middlewares/ST/STM32_USB_Host_Library/Class/HID/Src/usbh_hid_parser.c ****   */
 100:Middlewares/ST/STM32_USB_Host_Library/Class/HID/Src/usbh_hid_parser.c **** uint32_t HID_ReadItem(HID_Report_ItemTypedef *ri, uint8_t ndx)
 101:Middlewares/ST/STM32_USB_Host_Library/Class/HID/Src/usbh_hid_parser.c **** {
  30              		.loc 1 101 1 view -0
  31              		.cfi_startproc
  32              		@ args = 0, pretend = 0, frame = 0
  33              		@ frame_needed = 0, uses_anonymous_args = 0
  34              		@ link register save eliminated.
  35              		.loc 1 101 1 is_stmt 0 view .LVU1
  36 0000 70B4     		push	{r4, r5, r6}
  37              	.LCFI0:
  38              		.cfi_def_cfa_offset 12
  39              		.cfi_offset 4, -12
  40              		.cfi_offset 5, -8
  41              		.cfi_offset 6, -4
 102:Middlewares/ST/STM32_USB_Host_Library/Class/HID/Src/usbh_hid_parser.c ****   uint32_t val = 0U;
  42              		.loc 1 102 3 is_stmt 1 view .LVU2
  43              	.LVL1:
 103:Middlewares/ST/STM32_USB_Host_Library/Class/HID/Src/usbh_hid_parser.c ****   uint32_t x = 0U;
  44              		.loc 1 103 3 view .LVU3
 104:Middlewares/ST/STM32_USB_Host_Library/Class/HID/Src/usbh_hid_parser.c ****   uint32_t bofs;
  45              		.loc 1 104 3 view .LVU4
 105:Middlewares/ST/STM32_USB_Host_Library/Class/HID/Src/usbh_hid_parser.c ****   uint8_t *data = ri->data;
  46              		.loc 1 105 3 view .LVU5
  47              		.loc 1 105 12 is_stmt 0 view .LVU6
  48 0002 0568     		ldr	r5, [r0]
  49              	.LVL2:
 106:Middlewares/ST/STM32_USB_Host_Library/Class/HID/Src/usbh_hid_parser.c ****   uint8_t shift = ri->shift;
  50              		.loc 1 106 3 is_stmt 1 view .LVU7
  51              		.loc 1 106 11 is_stmt 0 view .LVU8
  52 0004 067A     		ldrb	r6, [r0, #8]	@ zero_extendqisi2
  53              	.LVL3:
 107:Middlewares/ST/STM32_USB_Host_Library/Class/HID/Src/usbh_hid_parser.c **** 
 108:Middlewares/ST/STM32_USB_Host_Library/Class/HID/Src/usbh_hid_parser.c ****   /* get the logical value of the item */
 109:Middlewares/ST/STM32_USB_Host_Library/Class/HID/Src/usbh_hid_parser.c **** 
 110:Middlewares/ST/STM32_USB_Host_Library/Class/HID/Src/usbh_hid_parser.c ****   /* if this is an array, wee may need to offset ri->data.*/
 111:Middlewares/ST/STM32_USB_Host_Library/Class/HID/Src/usbh_hid_parser.c ****   if (ri->count > 0U)
  54              		.loc 1 111 3 is_stmt 1 view .LVU9
  55              		.loc 1 111 9 is_stmt 0 view .LVU10
  56 0006 437A     		ldrb	r3, [r0, #9]	@ zero_extendqisi2
  57              		.loc 1 111 6 view .LVU11
  58 0008 43B1     		cbz	r3, .L2
 112:Middlewares/ST/STM32_USB_Host_Library/Class/HID/Src/usbh_hid_parser.c ****   {
 113:Middlewares/ST/STM32_USB_Host_Library/Class/HID/Src/usbh_hid_parser.c ****     /* If app tries to read outside of the array. */
 114:Middlewares/ST/STM32_USB_Host_Library/Class/HID/Src/usbh_hid_parser.c ****     if (ri->count <= ndx)
ARM GAS  C:\Users\union\AppData\Local\Temp\ccz9TGhh.s 			page 4


  59              		.loc 1 114 5 is_stmt 1 view .LVU12
  60              		.loc 1 114 8 is_stmt 0 view .LVU13
  61 000a 8B42     		cmp	r3, r1
  62 000c 3CD9     		bls	.L9
 115:Middlewares/ST/STM32_USB_Host_Library/Class/HID/Src/usbh_hid_parser.c ****     {
 116:Middlewares/ST/STM32_USB_Host_Library/Class/HID/Src/usbh_hid_parser.c ****       return (0U);
 117:Middlewares/ST/STM32_USB_Host_Library/Class/HID/Src/usbh_hid_parser.c ****     }
 118:Middlewares/ST/STM32_USB_Host_Library/Class/HID/Src/usbh_hid_parser.c **** 
 119:Middlewares/ST/STM32_USB_Host_Library/Class/HID/Src/usbh_hid_parser.c ****     /* calculate bit offset */
 120:Middlewares/ST/STM32_USB_Host_Library/Class/HID/Src/usbh_hid_parser.c ****     bofs = ndx * ri->size;
  63              		.loc 1 120 5 is_stmt 1 view .LVU14
  64              		.loc 1 120 20 is_stmt 0 view .LVU15
  65 000e 4268     		ldr	r2, [r0, #4]
  66              	.LVL4:
 121:Middlewares/ST/STM32_USB_Host_Library/Class/HID/Src/usbh_hid_parser.c ****     bofs += shift;
  67              		.loc 1 121 5 is_stmt 1 view .LVU16
  68              		.loc 1 121 10 is_stmt 0 view .LVU17
  69 0010 02FB0162 		mla	r2, r2, r1, r6
  70              	.LVL5:
 122:Middlewares/ST/STM32_USB_Host_Library/Class/HID/Src/usbh_hid_parser.c ****     /* calculate byte offset + shift pair from bit offset. */
 123:Middlewares/ST/STM32_USB_Host_Library/Class/HID/Src/usbh_hid_parser.c ****     data += bofs / 8U;
  71              		.loc 1 123 5 is_stmt 1 view .LVU18
  72              		.loc 1 123 10 is_stmt 0 view .LVU19
  73 0014 05EBD205 		add	r5, r5, r2, lsr #3
  74              	.LVL6:
 124:Middlewares/ST/STM32_USB_Host_Library/Class/HID/Src/usbh_hid_parser.c ****     shift = (uint8_t)(bofs % 8U);
  75              		.loc 1 124 5 is_stmt 1 view .LVU20
  76              		.loc 1 124 11 is_stmt 0 view .LVU21
  77 0018 02F00706 		and	r6, r2, #7
  78              	.LVL7:
  79              	.L2:
 125:Middlewares/ST/STM32_USB_Host_Library/Class/HID/Src/usbh_hid_parser.c ****   }
 126:Middlewares/ST/STM32_USB_Host_Library/Class/HID/Src/usbh_hid_parser.c ****   /* read data bytes in little endian order */
 127:Middlewares/ST/STM32_USB_Host_Library/Class/HID/Src/usbh_hid_parser.c ****   for (x = 0U; x < ((ri->size & 0x7U) ? (ri->size / 8U) + 1U : (ri->size / 8U)); x++)
  80              		.loc 1 127 3 is_stmt 1 view .LVU22
  81              		.loc 1 127 10 is_stmt 0 view .LVU23
  82 001c 0023     		movs	r3, #0
 102:Middlewares/ST/STM32_USB_Host_Library/Class/HID/Src/usbh_hid_parser.c ****   uint32_t x = 0U;
  83              		.loc 1 102 12 view .LVU24
  84 001e 1A46     		mov	r2, r3
  85              		.loc 1 127 3 view .LVU25
  86 0020 06E0     		b	.L4
  87              	.LVL8:
  88              	.L5:
  89              		.loc 1 127 62 discriminator 4 view .LVU26
  90 0022 CC08     		lsrs	r4, r1, #3
  91              	.L6:
  92              		.loc 1 127 3 discriminator 6 view .LVU27
  93 0024 A342     		cmp	r3, r4
  94 0026 0AD2     		bcs	.L13
 128:Middlewares/ST/STM32_USB_Host_Library/Class/HID/Src/usbh_hid_parser.c ****   {
 129:Middlewares/ST/STM32_USB_Host_Library/Class/HID/Src/usbh_hid_parser.c ****     val = (uint32_t)((uint32_t)(*data) << (x * 8U));
  95              		.loc 1 129 5 is_stmt 1 discriminator 7 view .LVU28
  96              		.loc 1 129 33 is_stmt 0 discriminator 7 view .LVU29
  97 0028 2A78     		ldrb	r2, [r5]	@ zero_extendqisi2
  98              	.LVL9:
  99              		.loc 1 129 46 discriminator 7 view .LVU30
ARM GAS  C:\Users\union\AppData\Local\Temp\ccz9TGhh.s 			page 5


 100 002a D900     		lsls	r1, r3, #3
 101              		.loc 1 129 9 discriminator 7 view .LVU31
 102 002c 8A40     		lsls	r2, r2, r1
 103              	.LVL10:
 127:Middlewares/ST/STM32_USB_Host_Library/Class/HID/Src/usbh_hid_parser.c ****   {
 104              		.loc 1 127 83 discriminator 7 view .LVU32
 105 002e 0133     		adds	r3, r3, #1
 106              	.LVL11:
 107              	.L4:
 127:Middlewares/ST/STM32_USB_Host_Library/Class/HID/Src/usbh_hid_parser.c ****   {
 108              		.loc 1 127 24 discriminator 1 view .LVU33
 109 0030 4168     		ldr	r1, [r0, #4]
 127:Middlewares/ST/STM32_USB_Host_Library/Class/HID/Src/usbh_hid_parser.c ****   {
 110              		.loc 1 127 62 discriminator 1 view .LVU34
 111 0032 11F0070F 		tst	r1, #7
 112 0036 F4D0     		beq	.L5
 127:Middlewares/ST/STM32_USB_Host_Library/Class/HID/Src/usbh_hid_parser.c ****   {
 113              		.loc 1 127 51 discriminator 3 view .LVU35
 114 0038 CC08     		lsrs	r4, r1, #3
 127:Middlewares/ST/STM32_USB_Host_Library/Class/HID/Src/usbh_hid_parser.c ****   {
 115              		.loc 1 127 62 discriminator 3 view .LVU36
 116 003a 0134     		adds	r4, r4, #1
 117 003c F2E7     		b	.L6
 118              	.L13:
 130:Middlewares/ST/STM32_USB_Host_Library/Class/HID/Src/usbh_hid_parser.c ****   }
 131:Middlewares/ST/STM32_USB_Host_Library/Class/HID/Src/usbh_hid_parser.c ****   val = (val >> shift) & ((1U << ri->size) - 1U);
 119              		.loc 1 131 3 is_stmt 1 view .LVU37
 120              		.loc 1 131 14 is_stmt 0 view .LVU38
 121 003e F240     		lsrs	r2, r2, r6
 122              	.LVL12:
 123              		.loc 1 131 31 view .LVU39
 124 0040 0123     		movs	r3, #1
 125              	.LVL13:
 126              		.loc 1 131 31 view .LVU40
 127 0042 03FA01F4 		lsl	r4, r3, r1
 128              		.loc 1 131 7 view .LVU41
 129 0046 4FF0FF33 		mov	r3, #-1
 130 004a 8B40     		lsls	r3, r3, r1
 131 004c 22EA0302 		bic	r2, r2, r3
 132              	.LVL14:
 132:Middlewares/ST/STM32_USB_Host_Library/Class/HID/Src/usbh_hid_parser.c **** 
 133:Middlewares/ST/STM32_USB_Host_Library/Class/HID/Src/usbh_hid_parser.c ****   if (val < ri->logical_min || val > ri->logical_max)
 133              		.loc 1 133 3 is_stmt 1 view .LVU42
 134              		.loc 1 133 15 is_stmt 0 view .LVU43
 135 0050 C368     		ldr	r3, [r0, #12]
 136              		.loc 1 133 6 view .LVU44
 137 0052 9342     		cmp	r3, r2
 138 0054 1AD8     		bhi	.L10
 139              		.loc 1 133 40 discriminator 1 view .LVU45
 140 0056 0369     		ldr	r3, [r0, #16]
 141              		.loc 1 133 29 discriminator 1 view .LVU46
 142 0058 9342     		cmp	r3, r2
 143 005a 1BD3     		bcc	.L11
 134:Middlewares/ST/STM32_USB_Host_Library/Class/HID/Src/usbh_hid_parser.c ****   {
 135:Middlewares/ST/STM32_USB_Host_Library/Class/HID/Src/usbh_hid_parser.c ****     return (0U);
 136:Middlewares/ST/STM32_USB_Host_Library/Class/HID/Src/usbh_hid_parser.c ****   }
 137:Middlewares/ST/STM32_USB_Host_Library/Class/HID/Src/usbh_hid_parser.c **** 
ARM GAS  C:\Users\union\AppData\Local\Temp\ccz9TGhh.s 			page 6


 138:Middlewares/ST/STM32_USB_Host_Library/Class/HID/Src/usbh_hid_parser.c ****   /* convert logical value to physical value */
 139:Middlewares/ST/STM32_USB_Host_Library/Class/HID/Src/usbh_hid_parser.c ****   /* See if the number is negative or not. */
 140:Middlewares/ST/STM32_USB_Host_Library/Class/HID/Src/usbh_hid_parser.c ****   if ((ri->sign) && (val & (1U << (ri->size - 1U))))
 144              		.loc 1 140 3 is_stmt 1 view .LVU47
 145              		.loc 1 140 10 is_stmt 0 view .LVU48
 146 005c 837A     		ldrb	r3, [r0, #10]	@ zero_extendqisi2
 147              		.loc 1 140 6 view .LVU49
 148 005e 6BB1     		cbz	r3, .L8
 149              		.loc 1 140 45 discriminator 1 view .LVU50
 150 0060 0139     		subs	r1, r1, #1
 151              		.loc 1 140 32 discriminator 1 view .LVU51
 152 0062 0123     		movs	r3, #1
 153 0064 03FA01F1 		lsl	r1, r3, r1
 154              		.loc 1 140 18 discriminator 1 view .LVU52
 155 0068 1142     		tst	r1, r2
 156 006a 07D0     		beq	.L8
 157              	.LBB2:
 141:Middlewares/ST/STM32_USB_Host_Library/Class/HID/Src/usbh_hid_parser.c ****   {
 142:Middlewares/ST/STM32_USB_Host_Library/Class/HID/Src/usbh_hid_parser.c ****     /* yes, so sign extend value to 32 bits. */
 143:Middlewares/ST/STM32_USB_Host_Library/Class/HID/Src/usbh_hid_parser.c ****     uint32_t vs = (uint32_t)((0xffffffffU & ~((1U << (ri->size)) - 1U)) | val);
 158              		.loc 1 143 5 is_stmt 1 view .LVU53
 159              		.loc 1 143 43 is_stmt 0 view .LVU54
 160 006c 6342     		rsbs	r3, r4, #0
 161              		.loc 1 143 14 view .LVU55
 162 006e 1A43     		orrs	r2, r2, r3
 163              	.LVL15:
 144:Middlewares/ST/STM32_USB_Host_Library/Class/HID/Src/usbh_hid_parser.c **** 
 145:Middlewares/ST/STM32_USB_Host_Library/Class/HID/Src/usbh_hid_parser.c ****     if (ri->resolution == 1U)
 164              		.loc 1 145 5 is_stmt 1 view .LVU56
 165              		.loc 1 145 11 is_stmt 0 view .LVU57
 166 0070 C369     		ldr	r3, [r0, #28]
 167              		.loc 1 145 8 view .LVU58
 168 0072 012B     		cmp	r3, #1
 169 0074 0BD0     		beq	.L1
 146:Middlewares/ST/STM32_USB_Host_Library/Class/HID/Src/usbh_hid_parser.c ****     {
 147:Middlewares/ST/STM32_USB_Host_Library/Class/HID/Src/usbh_hid_parser.c ****       return ((uint32_t)vs);
 148:Middlewares/ST/STM32_USB_Host_Library/Class/HID/Src/usbh_hid_parser.c ****     }
 149:Middlewares/ST/STM32_USB_Host_Library/Class/HID/Src/usbh_hid_parser.c ****     return ((uint32_t)(vs * ri->resolution));
 170              		.loc 1 149 5 is_stmt 1 view .LVU59
 171              		.loc 1 149 13 is_stmt 0 view .LVU60
 172 0076 03FB02F2 		mul	r2, r3, r2
 173              	.LVL16:
 174              		.loc 1 149 13 view .LVU61
 175 007a 08E0     		b	.L1
 176              	.LVL17:
 177              	.L8:
 178              		.loc 1 149 13 view .LVU62
 179              	.LBE2:
 150:Middlewares/ST/STM32_USB_Host_Library/Class/HID/Src/usbh_hid_parser.c ****   }
 151:Middlewares/ST/STM32_USB_Host_Library/Class/HID/Src/usbh_hid_parser.c ****   else
 152:Middlewares/ST/STM32_USB_Host_Library/Class/HID/Src/usbh_hid_parser.c ****   {
 153:Middlewares/ST/STM32_USB_Host_Library/Class/HID/Src/usbh_hid_parser.c ****     if (ri->resolution == 1U)
 180              		.loc 1 153 5 is_stmt 1 view .LVU63
 181              		.loc 1 153 11 is_stmt 0 view .LVU64
 182 007c C369     		ldr	r3, [r0, #28]
 183              		.loc 1 153 8 view .LVU65
 184 007e 012B     		cmp	r3, #1
ARM GAS  C:\Users\union\AppData\Local\Temp\ccz9TGhh.s 			page 7


 185 0080 05D0     		beq	.L1
 154:Middlewares/ST/STM32_USB_Host_Library/Class/HID/Src/usbh_hid_parser.c ****     {
 155:Middlewares/ST/STM32_USB_Host_Library/Class/HID/Src/usbh_hid_parser.c ****       return (val);
 156:Middlewares/ST/STM32_USB_Host_Library/Class/HID/Src/usbh_hid_parser.c ****     }
 157:Middlewares/ST/STM32_USB_Host_Library/Class/HID/Src/usbh_hid_parser.c ****     return (val * ri->resolution);
 186              		.loc 1 157 5 is_stmt 1 view .LVU66
 187              		.loc 1 157 17 is_stmt 0 view .LVU67
 188 0082 03FB02F2 		mul	r2, r3, r2
 189              	.LVL18:
 190              		.loc 1 157 17 view .LVU68
 191 0086 02E0     		b	.L1
 192              	.LVL19:
 193              	.L9:
 116:Middlewares/ST/STM32_USB_Host_Library/Class/HID/Src/usbh_hid_parser.c ****     }
 194              		.loc 1 116 14 view .LVU69
 195 0088 0022     		movs	r2, #0
 196 008a 00E0     		b	.L1
 197              	.LVL20:
 198              	.L10:
 135:Middlewares/ST/STM32_USB_Host_Library/Class/HID/Src/usbh_hid_parser.c ****   }
 199              		.loc 1 135 12 view .LVU70
 200 008c 0022     		movs	r2, #0
 201              	.LVL21:
 202              	.L1:
 158:Middlewares/ST/STM32_USB_Host_Library/Class/HID/Src/usbh_hid_parser.c ****   }
 159:Middlewares/ST/STM32_USB_Host_Library/Class/HID/Src/usbh_hid_parser.c **** }
 203              		.loc 1 159 1 view .LVU71
 204 008e 1046     		mov	r0, r2
 205              	.LVL22:
 206              		.loc 1 159 1 view .LVU72
 207 0090 70BC     		pop	{r4, r5, r6}
 208              	.LCFI1:
 209              		.cfi_remember_state
 210              		.cfi_restore 6
 211              		.cfi_restore 5
 212              		.cfi_restore 4
 213              		.cfi_def_cfa_offset 0
 214              	.LVL23:
 215              		.loc 1 159 1 view .LVU73
 216 0092 7047     		bx	lr
 217              	.LVL24:
 218              	.L11:
 219              	.LCFI2:
 220              		.cfi_restore_state
 135:Middlewares/ST/STM32_USB_Host_Library/Class/HID/Src/usbh_hid_parser.c ****   }
 221              		.loc 1 135 12 view .LVU74
 222 0094 0022     		movs	r2, #0
 223              	.LVL25:
 135:Middlewares/ST/STM32_USB_Host_Library/Class/HID/Src/usbh_hid_parser.c ****   }
 224              		.loc 1 135 12 view .LVU75
 225 0096 FAE7     		b	.L1
 226              		.cfi_endproc
 227              	.LFE135:
 229              		.section	.text.HID_WriteItem,"ax",%progbits
 230              		.align	1
 231              		.global	HID_WriteItem
 232              		.syntax unified
ARM GAS  C:\Users\union\AppData\Local\Temp\ccz9TGhh.s 			page 8


 233              		.thumb
 234              		.thumb_func
 235              		.fpu fpv4-sp-d16
 237              	HID_WriteItem:
 238              	.LVL26:
 239              	.LFB136:
 160:Middlewares/ST/STM32_USB_Host_Library/Class/HID/Src/usbh_hid_parser.c **** 
 161:Middlewares/ST/STM32_USB_Host_Library/Class/HID/Src/usbh_hid_parser.c **** /**
 162:Middlewares/ST/STM32_USB_Host_Library/Class/HID/Src/usbh_hid_parser.c ****   * @brief  HID_WriteItem
 163:Middlewares/ST/STM32_USB_Host_Library/Class/HID/Src/usbh_hid_parser.c ****   *         The function write a report item.
 164:Middlewares/ST/STM32_USB_Host_Library/Class/HID/Src/usbh_hid_parser.c ****   * @param  ri: report item
 165:Middlewares/ST/STM32_USB_Host_Library/Class/HID/Src/usbh_hid_parser.c ****   * @param  ndx: report index
 166:Middlewares/ST/STM32_USB_Host_Library/Class/HID/Src/usbh_hid_parser.c ****   * @retval status (1: fail/ 0 : Ok)
 167:Middlewares/ST/STM32_USB_Host_Library/Class/HID/Src/usbh_hid_parser.c ****   */
 168:Middlewares/ST/STM32_USB_Host_Library/Class/HID/Src/usbh_hid_parser.c **** uint32_t HID_WriteItem(HID_Report_ItemTypedef *ri, uint32_t value, uint8_t ndx)
 169:Middlewares/ST/STM32_USB_Host_Library/Class/HID/Src/usbh_hid_parser.c **** {
 240              		.loc 1 169 1 is_stmt 1 view -0
 241              		.cfi_startproc
 242              		@ args = 0, pretend = 0, frame = 0
 243              		@ frame_needed = 0, uses_anonymous_args = 0
 244              		@ link register save eliminated.
 245              		.loc 1 169 1 is_stmt 0 view .LVU77
 246 0000 F0B4     		push	{r4, r5, r6, r7}
 247              	.LCFI3:
 248              		.cfi_def_cfa_offset 16
 249              		.cfi_offset 4, -16
 250              		.cfi_offset 5, -12
 251              		.cfi_offset 6, -8
 252              		.cfi_offset 7, -4
 170:Middlewares/ST/STM32_USB_Host_Library/Class/HID/Src/usbh_hid_parser.c ****   uint32_t x;
 253              		.loc 1 170 3 is_stmt 1 view .LVU78
 171:Middlewares/ST/STM32_USB_Host_Library/Class/HID/Src/usbh_hid_parser.c ****   uint32_t mask;
 254              		.loc 1 171 3 view .LVU79
 172:Middlewares/ST/STM32_USB_Host_Library/Class/HID/Src/usbh_hid_parser.c ****   uint32_t bofs;
 255              		.loc 1 172 3 view .LVU80
 173:Middlewares/ST/STM32_USB_Host_Library/Class/HID/Src/usbh_hid_parser.c ****   uint8_t *data = ri->data;
 256              		.loc 1 173 3 view .LVU81
 257              	.LVL27:
 174:Middlewares/ST/STM32_USB_Host_Library/Class/HID/Src/usbh_hid_parser.c ****   uint8_t shift = ri->shift;
 258              		.loc 1 174 3 view .LVU82
 259              		.loc 1 174 11 is_stmt 0 view .LVU83
 260 0002 057A     		ldrb	r5, [r0, #8]	@ zero_extendqisi2
 261              	.LVL28:
 175:Middlewares/ST/STM32_USB_Host_Library/Class/HID/Src/usbh_hid_parser.c **** 
 176:Middlewares/ST/STM32_USB_Host_Library/Class/HID/Src/usbh_hid_parser.c ****   if (value < ri->physical_min || value > ri->physical_max)
 262              		.loc 1 176 3 is_stmt 1 view .LVU84
 263              		.loc 1 176 17 is_stmt 0 view .LVU85
 264 0004 4369     		ldr	r3, [r0, #20]
 265              		.loc 1 176 6 view .LVU86
 266 0006 8B42     		cmp	r3, r1
 267 0008 34D8     		bhi	.L22
 268              		.loc 1 176 45 discriminator 1 view .LVU87
 269 000a 8369     		ldr	r3, [r0, #24]
 270              		.loc 1 176 32 discriminator 1 view .LVU88
 271 000c 8B42     		cmp	r3, r1
 272 000e 33D3     		bcc	.L23
 177:Middlewares/ST/STM32_USB_Host_Library/Class/HID/Src/usbh_hid_parser.c ****   {
ARM GAS  C:\Users\union\AppData\Local\Temp\ccz9TGhh.s 			page 9


 178:Middlewares/ST/STM32_USB_Host_Library/Class/HID/Src/usbh_hid_parser.c ****     return (1U);
 179:Middlewares/ST/STM32_USB_Host_Library/Class/HID/Src/usbh_hid_parser.c ****   }
 180:Middlewares/ST/STM32_USB_Host_Library/Class/HID/Src/usbh_hid_parser.c **** 
 181:Middlewares/ST/STM32_USB_Host_Library/Class/HID/Src/usbh_hid_parser.c ****   /* if this is an array, wee may need to offset ri->data.*/
 182:Middlewares/ST/STM32_USB_Host_Library/Class/HID/Src/usbh_hid_parser.c ****   if (ri->count > 0U)
 273              		.loc 1 182 3 is_stmt 1 view .LVU89
 274              		.loc 1 182 9 is_stmt 0 view .LVU90
 275 0010 437A     		ldrb	r3, [r0, #9]	@ zero_extendqisi2
 276              		.loc 1 182 6 view .LVU91
 277 0012 33B1     		cbz	r3, .L16
 183:Middlewares/ST/STM32_USB_Host_Library/Class/HID/Src/usbh_hid_parser.c ****   {
 184:Middlewares/ST/STM32_USB_Host_Library/Class/HID/Src/usbh_hid_parser.c ****     /* If app tries to read outside of the array. */
 185:Middlewares/ST/STM32_USB_Host_Library/Class/HID/Src/usbh_hid_parser.c ****     if (ri->count >= ndx)
 278              		.loc 1 185 5 is_stmt 1 view .LVU92
 279              		.loc 1 185 8 is_stmt 0 view .LVU93
 280 0014 9342     		cmp	r3, r2
 281 0016 31D2     		bcs	.L24
 186:Middlewares/ST/STM32_USB_Host_Library/Class/HID/Src/usbh_hid_parser.c ****     {
 187:Middlewares/ST/STM32_USB_Host_Library/Class/HID/Src/usbh_hid_parser.c ****       return (0U);
 188:Middlewares/ST/STM32_USB_Host_Library/Class/HID/Src/usbh_hid_parser.c ****     }
 189:Middlewares/ST/STM32_USB_Host_Library/Class/HID/Src/usbh_hid_parser.c ****     /* calculate bit offset */
 190:Middlewares/ST/STM32_USB_Host_Library/Class/HID/Src/usbh_hid_parser.c ****     bofs = ndx * ri->size;
 282              		.loc 1 190 5 is_stmt 1 view .LVU94
 283              		.loc 1 190 20 is_stmt 0 view .LVU95
 284 0018 4368     		ldr	r3, [r0, #4]
 285              	.LVL29:
 191:Middlewares/ST/STM32_USB_Host_Library/Class/HID/Src/usbh_hid_parser.c ****     bofs += shift;
 286              		.loc 1 191 5 is_stmt 1 view .LVU96
 287              		.loc 1 191 10 is_stmt 0 view .LVU97
 288 001a 03FB0255 		mla	r5, r3, r2, r5
 289              	.LVL30:
 192:Middlewares/ST/STM32_USB_Host_Library/Class/HID/Src/usbh_hid_parser.c ****     /* calculate byte offset + shift pair from bit offset. */
 193:Middlewares/ST/STM32_USB_Host_Library/Class/HID/Src/usbh_hid_parser.c ****     data += bofs / 8U;
 290              		.loc 1 193 5 is_stmt 1 view .LVU98
 194:Middlewares/ST/STM32_USB_Host_Library/Class/HID/Src/usbh_hid_parser.c ****     shift = (uint8_t)(bofs % 8U);
 291              		.loc 1 194 5 view .LVU99
 292              		.loc 1 194 11 is_stmt 0 view .LVU100
 293 001e 05F00705 		and	r5, r5, #7
 294              	.LVL31:
 295              	.L16:
 195:Middlewares/ST/STM32_USB_Host_Library/Class/HID/Src/usbh_hid_parser.c **** 
 196:Middlewares/ST/STM32_USB_Host_Library/Class/HID/Src/usbh_hid_parser.c ****   }
 197:Middlewares/ST/STM32_USB_Host_Library/Class/HID/Src/usbh_hid_parser.c **** 
 198:Middlewares/ST/STM32_USB_Host_Library/Class/HID/Src/usbh_hid_parser.c ****   /* Convert physical value to logical value. */
 199:Middlewares/ST/STM32_USB_Host_Library/Class/HID/Src/usbh_hid_parser.c ****   if (ri->resolution != 1U)
 296              		.loc 1 199 3 is_stmt 1 view .LVU101
 297              		.loc 1 199 9 is_stmt 0 view .LVU102
 298 0022 C369     		ldr	r3, [r0, #28]
 299              		.loc 1 199 6 view .LVU103
 300 0024 012B     		cmp	r3, #1
 301 0026 01D0     		beq	.L17
 200:Middlewares/ST/STM32_USB_Host_Library/Class/HID/Src/usbh_hid_parser.c ****   {
 201:Middlewares/ST/STM32_USB_Host_Library/Class/HID/Src/usbh_hid_parser.c ****     value = value / ri->resolution;
 302              		.loc 1 201 5 is_stmt 1 view .LVU104
 303              		.loc 1 201 11 is_stmt 0 view .LVU105
 304 0028 B1FBF3F1 		udiv	r1, r1, r3
 305              	.LVL32:
ARM GAS  C:\Users\union\AppData\Local\Temp\ccz9TGhh.s 			page 10


 306              	.L17:
 202:Middlewares/ST/STM32_USB_Host_Library/Class/HID/Src/usbh_hid_parser.c ****   }
 203:Middlewares/ST/STM32_USB_Host_Library/Class/HID/Src/usbh_hid_parser.c **** 
 204:Middlewares/ST/STM32_USB_Host_Library/Class/HID/Src/usbh_hid_parser.c ****   /* Write logical value to report in little endian order. */
 205:Middlewares/ST/STM32_USB_Host_Library/Class/HID/Src/usbh_hid_parser.c ****   mask = (1U << ri->size) - 1U;
 307              		.loc 1 205 3 is_stmt 1 view .LVU106
 308              		.loc 1 205 19 is_stmt 0 view .LVU107
 309 002c 4368     		ldr	r3, [r0, #4]
 310              		.loc 1 205 14 view .LVU108
 311 002e 0126     		movs	r6, #1
 312 0030 9E40     		lsls	r6, r6, r3
 313              		.loc 1 205 8 view .LVU109
 314 0032 013E     		subs	r6, r6, #1
 315              	.LVL33:
 206:Middlewares/ST/STM32_USB_Host_Library/Class/HID/Src/usbh_hid_parser.c ****   value = (value & mask) << shift;
 316              		.loc 1 206 3 is_stmt 1 view .LVU110
 317              		.loc 1 206 18 is_stmt 0 view .LVU111
 318 0034 3140     		ands	r1, r1, r6
 319              	.LVL34:
 320              		.loc 1 206 9 view .LVU112
 321 0036 01FA05F5 		lsl	r5, r1, r5
 322              	.LVL35:
 207:Middlewares/ST/STM32_USB_Host_Library/Class/HID/Src/usbh_hid_parser.c **** 
 208:Middlewares/ST/STM32_USB_Host_Library/Class/HID/Src/usbh_hid_parser.c ****   for (x = 0U; x < ((ri->size & 0x7U) ? (ri->size / 8U) + 1U : (ri->size / 8U)); x++)
 323              		.loc 1 208 3 is_stmt 1 view .LVU113
 324              		.loc 1 208 10 is_stmt 0 view .LVU114
 325 003a 0022     		movs	r2, #0
 326              	.LVL36:
 327              		.loc 1 208 3 view .LVU115
 328 003c 10E0     		b	.L18
 329              	.LVL37:
 330              	.L19:
 331              		.loc 1 208 62 discriminator 4 view .LVU116
 332 003e DB08     		lsrs	r3, r3, #3
 333              	.L20:
 334              		.loc 1 208 3 discriminator 6 view .LVU117
 335 0040 9A42     		cmp	r2, r3
 336 0042 14D2     		bcs	.L26
 209:Middlewares/ST/STM32_USB_Host_Library/Class/HID/Src/usbh_hid_parser.c ****   {
 210:Middlewares/ST/STM32_USB_Host_Library/Class/HID/Src/usbh_hid_parser.c ****     *(ri->data + x) = (uint8_t)((*(ri->data + x) & ~(mask >> (x * 8U))) |
 337              		.loc 1 210 5 is_stmt 1 discriminator 7 view .LVU118
 338              		.loc 1 210 38 is_stmt 0 discriminator 7 view .LVU119
 339 0044 0768     		ldr	r7, [r0]
 340              		.loc 1 210 34 discriminator 7 view .LVU120
 341 0046 B95C     		ldrb	r1, [r7, r2]	@ zero_extendqisi2
 342              		.loc 1 210 65 discriminator 7 view .LVU121
 343 0048 D400     		lsls	r4, r2, #3
 344              		.loc 1 210 59 discriminator 7 view .LVU122
 345 004a 26FA04F3 		lsr	r3, r6, r4
 346              		.loc 1 210 50 discriminator 7 view .LVU123
 347 004e DBB2     		uxtb	r3, r3
 348 0050 21EA0301 		bic	r1, r1, r3
 211:Middlewares/ST/STM32_USB_Host_Library/Class/HID/Src/usbh_hid_parser.c ****                                 ((value >> (x * 8U)) & (mask >> (x * 8U))));
 349              		.loc 1 211 41 discriminator 7 view .LVU124
 350 0054 25FA04F4 		lsr	r4, r5, r4
 351              		.loc 1 211 54 discriminator 7 view .LVU125
 352 0058 2340     		ands	r3, r3, r4
ARM GAS  C:\Users\union\AppData\Local\Temp\ccz9TGhh.s 			page 11


 210:Middlewares/ST/STM32_USB_Host_Library/Class/HID/Src/usbh_hid_parser.c ****                                 ((value >> (x * 8U)) & (mask >> (x * 8U))));
 353              		.loc 1 210 23 discriminator 7 view .LVU126
 354 005a 0B43     		orrs	r3, r3, r1
 210:Middlewares/ST/STM32_USB_Host_Library/Class/HID/Src/usbh_hid_parser.c ****                                 ((value >> (x * 8U)) & (mask >> (x * 8U))));
 355              		.loc 1 210 21 discriminator 7 view .LVU127
 356 005c BB54     		strb	r3, [r7, r2]
 208:Middlewares/ST/STM32_USB_Host_Library/Class/HID/Src/usbh_hid_parser.c ****   {
 357              		.loc 1 208 83 discriminator 7 view .LVU128
 358 005e 0132     		adds	r2, r2, #1
 359              	.LVL38:
 360              	.L18:
 208:Middlewares/ST/STM32_USB_Host_Library/Class/HID/Src/usbh_hid_parser.c ****   {
 361              		.loc 1 208 24 discriminator 1 view .LVU129
 362 0060 4368     		ldr	r3, [r0, #4]
 208:Middlewares/ST/STM32_USB_Host_Library/Class/HID/Src/usbh_hid_parser.c ****   {
 363              		.loc 1 208 62 discriminator 1 view .LVU130
 364 0062 13F0070F 		tst	r3, #7
 365 0066 EAD0     		beq	.L19
 208:Middlewares/ST/STM32_USB_Host_Library/Class/HID/Src/usbh_hid_parser.c ****   {
 366              		.loc 1 208 51 discriminator 3 view .LVU131
 367 0068 DB08     		lsrs	r3, r3, #3
 208:Middlewares/ST/STM32_USB_Host_Library/Class/HID/Src/usbh_hid_parser.c ****   {
 368              		.loc 1 208 62 discriminator 3 view .LVU132
 369 006a 0133     		adds	r3, r3, #1
 370 006c E8E7     		b	.L20
 371              	.L26:
 212:Middlewares/ST/STM32_USB_Host_Library/Class/HID/Src/usbh_hid_parser.c ****   }
 213:Middlewares/ST/STM32_USB_Host_Library/Class/HID/Src/usbh_hid_parser.c **** 
 214:Middlewares/ST/STM32_USB_Host_Library/Class/HID/Src/usbh_hid_parser.c ****   return 0U;
 372              		.loc 1 214 10 view .LVU133
 373 006e 0020     		movs	r0, #0
 374              	.LVL39:
 375              	.L14:
 215:Middlewares/ST/STM32_USB_Host_Library/Class/HID/Src/usbh_hid_parser.c **** }
 376              		.loc 1 215 1 view .LVU134
 377 0070 F0BC     		pop	{r4, r5, r6, r7}
 378              	.LCFI4:
 379              		.cfi_remember_state
 380              		.cfi_restore 7
 381              		.cfi_restore 6
 382              		.cfi_restore 5
 383              		.cfi_restore 4
 384              		.cfi_def_cfa_offset 0
 385 0072 7047     		bx	lr
 386              	.LVL40:
 387              	.L22:
 388              	.LCFI5:
 389              		.cfi_restore_state
 178:Middlewares/ST/STM32_USB_Host_Library/Class/HID/Src/usbh_hid_parser.c ****   }
 390              		.loc 1 178 12 view .LVU135
 391 0074 0120     		movs	r0, #1
 392              	.LVL41:
 178:Middlewares/ST/STM32_USB_Host_Library/Class/HID/Src/usbh_hid_parser.c ****   }
 393              		.loc 1 178 12 view .LVU136
 394 0076 FBE7     		b	.L14
 395              	.LVL42:
 396              	.L23:
ARM GAS  C:\Users\union\AppData\Local\Temp\ccz9TGhh.s 			page 12


 178:Middlewares/ST/STM32_USB_Host_Library/Class/HID/Src/usbh_hid_parser.c ****   }
 397              		.loc 1 178 12 view .LVU137
 398 0078 0120     		movs	r0, #1
 399              	.LVL43:
 178:Middlewares/ST/STM32_USB_Host_Library/Class/HID/Src/usbh_hid_parser.c ****   }
 400              		.loc 1 178 12 view .LVU138
 401 007a F9E7     		b	.L14
 402              	.LVL44:
 403              	.L24:
 187:Middlewares/ST/STM32_USB_Host_Library/Class/HID/Src/usbh_hid_parser.c ****     }
 404              		.loc 1 187 14 view .LVU139
 405 007c 0020     		movs	r0, #0
 406              	.LVL45:
 187:Middlewares/ST/STM32_USB_Host_Library/Class/HID/Src/usbh_hid_parser.c ****     }
 407              		.loc 1 187 14 view .LVU140
 408 007e F7E7     		b	.L14
 409              		.cfi_endproc
 410              	.LFE136:
 412              		.comm	role,1,1
 413              		.comm	mouse_event_cnt,4,4
 414              		.text
 415              	.Letext0:
 416              		.file 2 "c:\\arm_tool\\gcc\\arm-none-eabi\\include\\machine\\_default_types.h"
 417              		.file 3 "c:\\arm_tool\\gcc\\arm-none-eabi\\include\\sys\\lock.h"
 418              		.file 4 "c:\\arm_tool\\gcc\\arm-none-eabi\\include\\sys\\_types.h"
 419              		.file 5 "c:\\arm_tool\\gcc\\lib\\gcc\\arm-none-eabi\\8.2.1\\include\\stddef.h"
 420              		.file 6 "c:\\arm_tool\\gcc\\arm-none-eabi\\include\\sys\\reent.h"
 421              		.file 7 "c:\\arm_tool\\gcc\\arm-none-eabi\\include\\sys\\_stdint.h"
 422              		.file 8 "c:\\arm_tool\\gcc\\arm-none-eabi\\include\\stdlib.h"
 423              		.file 9 "Drivers/CMSIS/Include/core_cm4.h"
 424              		.file 10 "Drivers/CMSIS/Device/ST/STM32L4xx/Include/system_stm32l4xx.h"
 425              		.file 11 "Drivers/STM32L4xx_HAL_Driver/Inc/stm32l4xx_hal_def.h"
 426              		.file 12 "Drivers/STM32L4xx_HAL_Driver/Inc/stm32l4xx_hal_flash.h"
 427              		.file 13 "Drivers/STM32L4xx_HAL_Driver/Inc/stm32l4xx_hal.h"
 428              		.file 14 "Core/Inc/main.h"
 429              		.file 15 "Middlewares/ST/STM32_USB_Host_Library/Core/Inc/usbh_def.h"
 430              		.file 16 "Middlewares/ST/STM32_USB_Host_Library/Core/Inc/usbh_ctlreq.h"
 431              		.file 17 "Middlewares/ST/STM32_USB_Host_Library/Class/HID/Inc/usbh_hid.h"
 432              		.file 18 "Middlewares/ST/STM32_USB_Host_Library/Class/HID/Inc/usbh_hid_parser.h"
ARM GAS  C:\Users\union\AppData\Local\Temp\ccz9TGhh.s 			page 13


DEFINED SYMBOLS
                            *ABS*:0000000000000000 usbh_hid_parser.c
C:\Users\union\AppData\Local\Temp\ccz9TGhh.s:18     .text.HID_ReadItem:0000000000000000 $t
C:\Users\union\AppData\Local\Temp\ccz9TGhh.s:26     .text.HID_ReadItem:0000000000000000 HID_ReadItem
C:\Users\union\AppData\Local\Temp\ccz9TGhh.s:230    .text.HID_WriteItem:0000000000000000 $t
C:\Users\union\AppData\Local\Temp\ccz9TGhh.s:237    .text.HID_WriteItem:0000000000000000 HID_WriteItem
                            *COM*:0000000000000001 role
                            *COM*:0000000000000004 mouse_event_cnt

NO UNDEFINED SYMBOLS
