:020000040800F2
:1000000000800120D18200088D1000088F100008A8
:1000100091100008931000089510000800000000DF
:100020000000000000000000000000009710000821
:1000300099100008000000009B1000089D100008A7
:100040002183000821830008218300082183000800
:1000500021830008218300082183000821830008F0
:1000600021830008218300082183000821830008E0
:10007000218300082183000821830008A1100008C3
:10008000B1100008C1100008218300082183000876
:1000900021830008218300082183000821830008B0
:1000A00021830008218300082183000821830008A0
:1000B00021830008D1100008218300082183000853
:1000C0002183000821830008218300082183000880
:1000D000E110000821830008F110000821830008C6
:1000E0002183000821830008218300082183000860
:1000F0002183000821830008218300082183000850
:1001000021830008218300082183000801110008D1
:1001100021830008218300082183000811110008B1
:10012000218300082183000821830008218300081F
:10013000218300082183000821830008218300080F
:100140002183000821830008218300082111000871
:1001500021830008218300082183000821830008EF
:1001600021830008218300082183000821830008DF
:10017000218300082183000821830008000000007B
:0801800021830008218300081F
:10019000034613F8012B002AFBD1181A01387047C7
:1001A00001F0FF01102A2BDB10F0070F08D010F828
:1001B000013B013A8B422DD010F0070F42B3F6D12C
:1001C000F0B441EA012141EA014122F007047FF045
:1001D00000070023F0E80256083C85EA010586EA9C
:1001E000010685FA47F5A3FA87F586FA47F6A5FAD8
:1001F00087F68EB9EED1F0BC01F0FF0102F00702E4
:1002000032B110F8013B013A83EA010313B1F8D18E
:100210000020704701387047002D06BF354603386F
:10022000073815F0010F07D1013015F4807F02BFA8
:10023000013015F4C03F0130F0BC0138704700BFF9
:1002400081F0004102E000BF83F0004330B54FEA87
:1002500041044FEA430594EA050F08BF90EA020FF4
:100260001FBF54EA000C55EA020C7FEA645C7FEA87
:10027000655C00F0E2804FEA5454D4EB5555B8BFAA
:100280006D420CDD2C4480EA020281EA030382EA1B
:10029000000083EA010180EA020281EA0303362DAD
:1002A00088BF30BD11F0004F4FEA01314FF4801C80
:1002B0004CEA113102D0404261EB410113F0004F92
:1002C0004FEA03334CEA133302D0524263EB430349
:1002D00094EA050F00F0A780A4F10104D5F1200EE7
:1002E0000DDB02FA0EFC22FA05F2801841F1000142
:1002F00003FA0EF2801843FA05F359410EE0A5F116
:1003000020050EF1200E012A03FA0EFC28BF4CF046
:10031000020C43FA05F3C01851EBE37101F00045FC
:1003200007D54FF0000EDCF1000C7EEB00006EEB09
:100330000101B1F5801F1BD3B1F5001F0CD3490893
:100340005FEA30004FEA3C0C04F101044FEA4452EA
:1003500012F5800F80F09A80BCF1004F08BF5FEA71
:10036000500C50F1000041EB045141EA050130BD51
:100370005FEA4C0C404141EB010111F4801FA4F1F4
:100380000104E9D191F0000F04BF01460020B1FA49
:1003900081F308BF2033A3F10B03B3F120020CDA81
:1003A0000C3208DD02F1140CC2F10C0201FA0CF05F
:1003B00021FA02F10CE002F11402D8BFC2F1200CC4
:1003C00001FA02F120FA0CFCDCBF41EA0C0190407A
:1003D000E41AA2BF01EB0451294330BD6FEA0404C3
:1003E0001F3C1CDA0C340EDC04F11404C4F12002AE
:1003F00020FA04F001FA02F340EA030021FA04F3C0
:1004000045EA030130BDC4F10C04C4F1200220FA16
:1004100002F001FA04F340EA0300294630BD21FA54
:1004200004F0294630BD94F0000F83F4801306BF1A
:1004300081F480110134013D4EE77FEA645C18BF0E
:100440007FEA655C29D094EA050F08BF90EA020FA5
:1004500005D054EA000C04BF1946104630BD91EA9D
:10046000030F1EBF0021002030BD5FEA545C05D1A0
:100470004000494128BF41F0004130BD14F58004DF
:100480003CBF01F5801130BD01F0004545F0FE4153
:1004900041F470014FF0000030BD7FEA645C1ABF88
:1004A000194610467FEA655C1CBF0B46024650EABF
:1004B000013406BF52EA033591EA030F41F40021EB
:1004C00030BD00BF90F0000F04BF0021704730B571
:1004D0004FF4806404F132044FF000054FF0000146
:1004E00050E700BF90F0000F04BF0021704730B507
:1004F0004FF4806404F1320410F0004548BF4042DC
:100500004FF000013EE700BF42004FEAE2014FEA30
:1005100031014FEA02701FBF12F07F4393F07F4F0B
:1005200081F06051704732F07F4208BF704793F00E
:100530007F4F04BF41F40021704730B54FF4607421
:1005400001F0004521F000411CE700BF50EA010224
:1005500008BF704730B54FF000050AE050EA0102CD
:1005600008BF704730B511F0004502D5404261EB3D
:1005700041014FF4806404F132045FEA915C3FF47E
:10058000D8AE4FF003025FEADC0C18BF03325FEA1B
:10059000DC0C18BF033202EBDC02C2F1200300FACC
:1005A00003FC20FA02F001FA03FE40EA0E0021FAF1
:1005B00002F11444BDE600BF70B54FF0FF0C4CF4DF
:1005C000E06C1CEA11541DBF1CEA135594EA0C0F91
:1005D00095EA0C0F00F0DEF82C4481EA030621EACC
:1005E0004C5123EA4C5350EA013518BF52EA033507
:1005F00041F4801143F4801338D0A0FB02CE4FF0B9
:100600000005E1FB02E506F00042E0FB03E54FF0E8
:100610000006E1FB03569CF0000F18BF4EF0010EE0
:10062000A4F1FF04B6F5007F64F5407404D25FEADC
:100630004E0E6D4146EB060642EAC62141EA55518F
:100640004FEAC52040EA5E504FEACE2EB4F1FD0CD1
:1006500088BFBCF5E06F1ED8BEF1004F08BF5FEA4F
:10066000500E50F1000041EB045170BD06F0004601
:1006700046EA010140EA020081EA0301B4EB5C04AE
:10068000C2BFD4EB0C0541EA045170BD41F48011A6
:100690004FF0000E013C00F3AB8014F1360FDEBFCB
:1006A000002001F0004170BDC4F10004203C35DAA7
:1006B0000C341BDC04F11404C4F1200500FA05F32A
:1006C00020FA04F001FA05F240EA020001F00042CB
:1006D00021F0004110EBD37021FA04F642EB060141
:1006E0005EEA430E08BF20EAD37070BDC4F10C046B
:1006F000C4F1200500FA04F320FA05F001FA04F22F
:1007000040EA020001F0004110EBD37041F100011A
:100710005EEA430E08BF20EAD37070BDC4F1200525
:1007200000FA05F24EEA020E20FA04F301FA05F28D
:1007300043EA020321FA04F001F0004121FA04F235
:1007400020EA020000EBD3705EEA430E08BF20EA05
:10075000D37070BD94F0000F0FD101F0004640003F
:1007600041EB010111F4801F08BF013CF7D041EAC1
:10077000060195F0000F18BF704703F000465200C5
:1007800043EB030313F4801F08BF013DF7D043EA96
:100790000603704794EA0C0F0CEA135518BF95EA4C
:1007A0000C0F0CD050EA410618BF52EA4306D1D1D3
:1007B00081EA030101F000414FF0000070BD50EAF2
:1007C000410606BF1046194652EA430619D094EA7C
:1007D0000C0F02D150EA013613D195EA0C0F05D166
:1007E00052EA03361CBF104619460AD181EA0301BA
:1007F00001F0004141F0FE4141F470014FF0000072
:1008000070BD41F0FE4141F4780170BD70B54FF00C
:10081000FF0C4CF4E06C1CEA11541DBF1CEA13558C
:1008200094EA0C0F95EA0C0F00F0A7F8A4EB05046E
:1008300081EA030E52EA03354FEA013100F0888065
:100840004FEA03334FF0805545EA131343EA12632E
:100850004FEA022245EA111545EA10654FEA0026E3
:100860000EF000419D4208BF964244F1FD0404F59C
:10087000407402D25B084FEA3202B61A65EB0305F8
:100880005B084FEA32024FF480104FF4002CB6EBB5
:10089000020E75EB030E22BFB61A754640EA0C0035
:1008A0005B084FEA3202B6EB020E75EB030E22BF75
:1008B000B61A754640EA5C005B084FEA3202B6EBB6
:1008C000020E75EB030E22BFB61A754640EA9C0075
:1008D0005B084FEA3202B6EB020E75EB030E22BF45
:1008E000B61A754640EADC0055EA060E18D04FEA03
:1008F000051545EA16754FEA06164FEAC30343EAA3
:1009000052734FEAC2025FEA1C1CC0D111F4801F6F
:100910000BD141EA00014FF000004FF0004CB6E768
:1009200011F4801F04BF01430020B4F1FD0C88BF07
:10093000BCF5E06F3FF6AFAEB5EB030C04BFB6EB12
:10094000020C5FEA500C50F1000041EB045170BD05
:100950000EF0004E4EEA113114EB5C04C2BFD4EB32
:100960000C0541EA045170BD41F480114FF0000EB6
:10097000013C90E645EA060E8DE60CEA135594EA32
:100980000C0F08BF95EA0C0F3FF43BAF94EA0C0F35
:100990000AD150EA01347FF434AF95EA0C0F7FF4AA
:1009A00025AF104619462CE795EA0C0F06D152EAFE
:1009B00003353FF4FDAE1046194622E750EA4106E2
:1009C00018BF52EA43067FF4C5AE50EA41047FF4F3
:1009D0000DAF52EA43057FF4EBAE12E74FF0FF3C58
:1009E00006E000BF4FF0010C02E000BF4FF0010C29
:1009F0004DF804CD4FEA410C7FEA6C5C4FEA430CA2
:100A000018BF7FEA6C5C1BD001B050EA410C0CBFF0
:100A100052EA430C91EA030F02BF90EA020F002052
:100A2000704710F1000F91EA030F58BF994208BFB9
:100A300090422CBFD8176FEAE37040F00100704776
:100A40004FEA410C7FEA6C5C02D150EA013C07D1CD
:100A50004FEA430C7FEA6C5CD6D152EA033CD3D018
:100A60005DF8040B704700BF8446104662468C4612
:100A70001946634600E000BF01B5FFF7B7FF002845
:100A800048BF10F1000F01BD4DF808EDFFF7F4FF6E
:100A90000CBF012000205DF808FB00BF4DF808EDF9
:100AA000FFF7EAFF34BF012000205DF808FB00BF1C
:100AB0004DF808EDFFF7E0FF94BF012000205DF83E
:100AC00008FB00BF4DF808EDFFF7CEFF94BF0120F3
:100AD00000205DF808FB00BF4DF808EDFFF7C4FFEC
:100AE00034BF012000205DF808FB00BF4FEA410C35
:100AF0007FEA6C5C02D150EA013C0AD14FEA430C18
:100B00007FEA6C5C02D152EA033C02D14FF0000054
:100B100070474FF0010070474FEA410212F5001292
:100B200015D211D56FF47873B3EB625212D94FEA34
:100B3000C12343F0004343EA505311F0004F23FA1E
:100B400002F018BF404270474FF00000704750EA73
:100B5000013005D111F0004008BF6FF00040704730
:100B60004FF00000704700BF53B94AB9002908BFD1
:100B700000281CBF4FF0FF314FF0FF3000F00CB8E1
:100B8000ADF1080C6DE904CE0AF06CF8DDF804E074
:100B9000DDE9022304B07047704700BF0348044BEF
:100BA000834202D0034B03B118477047000900206D
:100BB000000900200000000005480649091A8910B4
:100BC00001EBD171491002D0034B03B118477047B4
:100BD00000090020000900200000000010B5064CAC
:100BE000237843B9FFF7DAFF044B13B10448AFF39E
:100BF00000800123237010BD0009002000000000C8
:100C000034AF000808B5054B1BB105490548AFF3E3
:100C10000080BDE80840FFF7CFBF00BF0000000024
:100C20000409002034AF000808B50268034B9A425B
:100C300000D008BD01F0BEFBFBE700BF0014004080
:100C400072B6FEE700B597B04422002105A807F070
:100C50009DFB0023009301930293039304934FF4AD
:100C6000007002F0AFFE58BB1023059301220B92D7
:100C700000230C9360230D9302230F931092119283
:100C800028221292072213921493159305A801F0BB
:100C90007FFCB8B90F230093032301930023029331
:100CA000039304930421684601F08EFF60B900228B
:100CB0004FF08071104601F0EBFB17B05DF804FBBC
:100CC000FFF7BEFFFFF7BCFFFFF7BAFF00B5A3B009
:100CD0006822002108A807F059FB4FF40223009373
:100CE0004FF080631B931C930123019302931823FD
:100CF0000393072304930223059306934FF4801371
:100D00000793684602F0B4F910B923B05DF804FB0C
:100D1000FFF796FF38B501F037FBFFF793FFFFF7BA
:100D2000D5FF00F063F803F0B5FF00F011F904F00F
:100D3000D3F906F0D1F806F025FF06F0A7F806F083
:100D4000F1F80A2001F048FB0A2308221E491F4837
:100D500003F0A4FE0A2001F03FFB01221C491D48BC
:100D600006F0E8FC1C4808F0A3F807F0D9F807F0F3
:100D7000A7FA0021194803F0B5F800240CE000227E
:100D80004FF40051164802F089FC164B00221A70ED
:100D900000E02C4606F040FF04F0BEF907F03AFAF6
:100DA000114B93F82033002BE9D0651CC4F30D04DC
:100DB000002CEED14FF40051094802F074FC07F00A
:100DC0005FF92C46E6E700BF50AF0008780A002024
:100DD000E00900202813002058AF00083814002034
:100DE00000080048E20900204C0B00202DE9F041EA
:100DF0008AB0002405940694079408940994514BF2
:100E0000DA6C42F00402DA64DA6C02F00402009256
:100E1000009ADA6C42F08002DA64DA6C02F0800246
:100E20000192019ADA6C42F00102DA64DA6C02F0A3
:100E300001020292029ADA6C42F00202DA64DA6C7F
:100E400002F002020392039ADA6C42F00802DA64BA
:100E5000DB6C03F008030493049B3B4D224642F2F3
:100E60000F01284602F01AFC01223021284602F028
:100E700015FC364E224646F60101304602F00EFCC5
:100E800022464FF480614FF0904002F007FC42F29E
:100E90001F0305934FF00108CDF8188007940894BC
:100EA00005A9284602F010FB202305931123069381
:100EB0000794089405A9284602F006FB46F20103B0
:100EC0000593CDF818800794089405A9304602F0E0
:100ED000FBFA4FF400630593CDF8188002270797BB
:100EE000089405A9304602F0EFFAC0230593069452
:100EF000079705A9284602F0E7FA4FF48073059397
:100F0000069707940894099405A94FF0904002F0C1
:100F1000DBFA4FF480630593CDF8188007940894AA
:100F200005A94FF0904002F0CFFA4FF4707305938B
:100F30000694079705A9304602F0C6FA0AB0BDE844
:100F4000F08100BF00100240000800480004004883
:100F500008B50B480B4B03604FF46123436000233B
:100F60008360C36003610C2242618361C3610362D9
:100F7000436203F038FE00B908BDFFF761FEFBE7EE
:100F8000780A00200044004070B5AAB00446002151
:100F900025912691279128912991882203A807F06D
:100FA000F5F92268334B9A4201D02AB070BD022372
:100FB000039303A802F05CF8002852D12E4B9A6DDF
:100FC00042F400329A659A6D02F400320192019A5D
:100FD000DA6C42F00102DA64DB6C03F00103029385
:100FE000029B0C2325930226269600252795032392
:100FF00028930723299325A94FF0904002F064FA23
:101000001E481F4B036046608560C56080230361F6
:10101000456185612023C361056202F065FB18BB51
:10102000164B23679C621748174B036002234360EB
:10103000102383600023C3608022026143618361C7
:10104000C361036202F050FB88B90E4BE3669C62F9
:1010500000221146262002F015FD262002F046FD52
:10106000A3E7FFF7EDFDA9E7FFF7EAFDD8E7FFF7F4
:10107000E7FDEAE70044004000100240E8090020D4
:101080006C000240300A002080000240FEE7FEE7CC
:10109000FEE7FEE7FEE770477047704770470000C5
:1010A00008B5024802F024FC08BD00BFF013002080
:1010B00008B5024802F01CFC08BD00BFE80900208A
:1010C00008B5024802F014FC08BD00BF300A002039
:1010D00008B5024802F064FD08BD00BF38140020C6
:1010E00008B5024806F0B6FC08BD00BFC4120020D7
:1010F00008B5024803F0FEF808BD00BF780A0020DA
:1011000008B5024806F0A6FC08BD00BF2813002061
:1011100008B5024802F044FD08BD00BF000B0020E6
:1011200008B5024800F0ABFC08BD00BF2C0F002042
:1011300082B00A4B1A6E42F001021A661A6E02F071
:1011400001020092009A9A6D42F080529A659B6D5E
:1011500003F080530193019B02B0704700100240DE
:10116000F8B505682C6A04F00F06C4F34343C4F3D2
:101170000A14022B00D0F8BD002CFCD02C2303FB5A
:101180000603596C0029F6D02C2303FB06031A6DC5
:101190002244DB6C9A4206D92C2303FB060004236D
:1011A00080F86030E7E707462246284600F0FEFD5B
:1011B0002C2303FB06735A6C22445A641A6D224492
:1011C0001A6505EB4615D5F81025C2F3C942B3F8E8
:1011D0004030A342CFD1002ACDD0D5F8003523F03E
:1011E000804343F00043C5F800352C2000FB067017
:1011F00090F8543083F0010380F85430BBE7F0B529
:1012000085B09DF828509DF82C60BDF8307090F89E
:10121000F842012C38D0012480F8F8422C2404FB39
:1012200001044FF0000C84F83DC084F83830A4F875
:10123000407084F8391084F83F6002F07F0C84F825
:101240003AC012F0800F17D12C2404FB01044FF098
:10125000000C84F83BC004462C2000FB014080F8C1
:101260003C50029701960095206800F0BFFE0023D5
:1012700084F8F83205B0F0BD2C2404FB01044FF0D3
:10128000010C84F83BC0E6E70220F3E790F8F8325F
:10129000012B0BD010B50446012380F8F83200680A
:1012A00000F0BBFF002084F8F80210BD0220704758
:1012B000002845D0F0B58BB00646046890F8F932A6
:1012C000002B38D0032386F8F932E36B13F4807FC8
:1012D00001D100233361306800F005FD344654F835
:1012E00010CB6D460FCC0FC50FCC0FC594E8030093
:1012F00085E80300371D97E80E00604600F0D2FC39
:101300000121306800F07FFD344654F810CB6D4663
:101310000FCC0FC50FCC0FC594E8030085E8030080
:1013200097E80E00604600F09FFD012386F8F93231
:1013300000200BB0F0BD80F8F83203F0F5FEC1E7F5
:1013400001207047F8B59DF81850BDF820602C2496
:1013500004FB010484F83B2084F83F307DB92C2441
:1013600004FB0104032784F842709DF8247084F87C
:101370003D70032B7FD8DFE803F0097828502C2438
:1013800004FB0104022784F84270F2E7012D72D1B8
:10139000002A70D12EB92C2303FB0103012283F80C
:1013A00055202C2303FB010393F8553033B92C232C
:1013B00003FB0103002283F842205CE02C2303FBA3
:1013C0000103022283F8422055E092B92C2303FB4B
:1013D000010393F855302BB92C2303FB010383F849
:1013E000422048E02C2303FB0103022283F8422021
:1013F00041E02C2303FB010393F8543033B92C2331
:1014000003FB0103002283F8422034E02C2303FB7A
:101410000103022283F842202DE092B92C2303FB22
:10142000010393F855302BB92C2303FB010383F8F8
:10143000422020E02C2303FB0103022283F84220F8
:1014400019E02C2303FB010393F8543033B92C2308
:1014500003FB0103002283F842200CE02C2303FB52
:101460000103022283F8422005E02C2303FB010341
:10147000002283F842202C2303FB01F3C218079CAF
:101480005464D664002482F86040146582F83910F0
:1014900082F8614003F138010144006800F030FE39
:1014A000F8BD30B583B005460468D4F840340193E4
:1014B000D4F840340093009B23F02E030093019B4B
:1014C00013F0020F07D0019B13F0010F25D1009BF1
:1014D00043F002030093019B13F0080F10D0009B10
:1014E00043F008030093019B13F0040F2DD0AB6968
:1014F000022B15D0EB68012B22D0284603F081FE89
:10150000019B13F0200F03D0009B43F020030093B6
:10151000009BC4F8403403B030BD03F065FED6E74D
:10152000019B03F4C023B3F5802F04D00121286868
:1015300000F0EAFCE1E70221286800F0E5FCDCE7C6
:101540004EF66022C4F80424D7E7284603F05FFE75
:10155000D6E7F8B505460E46076807EB411707F5CD
:10156000A064A36813F0040F0AD1A36813F4807F6A
:101570003DD1A36813F0200F46D02023A3600AE0DA
:101580000423A3602C2303FB0103062283F86120BC
:10159000006800F042FEA36813F4007F65D1A368E1
:1015A00013F0010F00F0A2802C2303FB065301224D
:1015B00083F861200021D965A26093F83F30002BA9
:1015C0005BD0022B59D0032B6AD0012B5BD12C238B
:1015D00003FB0653012283F8602093F85410514016
:1015E00083F854103146284603F00AFE4BE04FF4CE
:1015F0008073A3602C2303FB0103072283F861207F
:10160000006800F00AFEC6E7A36813F0080F13D1C4
:10161000A36813F4806F1BD1A36813F0800FBAD0B6
:101620008023A3602C2303FB0103062283F861209F
:10163000006800F0F2FDAEE70823A3602C2303FB53
:101640000103052283F86120006800F0E6FDA2E7AF
:101650004FF48063A3602C2303FB0103082283F86B
:101660006120006800F0D9FD95E73146286800F058
:10167000D4FD4FF40073A360F8BD3146286800F034
:10168000CCFD1023A3602B69012B1AD02C2303FB64
:10169000065595F8543083F0010385F85430EBE794
:1016A000D7F8003543F00053C7F800352C2303FB6F
:1016B0000653012283F860203146284603F0A0FD3E
:1016C000E1E72C2303FB06539A6CB3F84030B2FBDE
:1016D000F3F313F0010FCFD02C2303FB065595F83D
:1016E000543083F0010385F85430C5E7A36813F044
:1016F000020F60D02C2303FB065393F86130012BBB
:1017000013D0052B23D0062B28D0082B26D0032B53
:1017100042D0072B0FD12C2303FB0653DA6D013285
:10172000DA65042283F8602005E02C2303FB0653CE
:10173000012283F860200223A3602C2303FB0653BD
:1017400093F860203146284603F05AFD94E72C2395
:1017500003FB0653052283F86020ECE72C2202FBF2
:101760000652D36D0133D365022B06D913460022EE
:10177000DA65042283F86020DDE72C2303FB06539F
:10178000022283F86020D7F8003523F0804343F02D
:101790000043C7F80035CEE72C2303FB0653022293
:1017A00083F86020D7F8003523F0804343F00043EE
:1017B000C7F80035BFE7A36813F0100F3FF45CAF24
:1017C0002C2303FB065393F83F30032B11D00BB1AE
:1017D000022B0BD12C2303FB06530022DA650322D4
:1017E00083F861203146286800F017FD1023A360BC
:1017F00042E72C2303FB06530022DA6531462868B2
:1018000000F00BFDF2E738B5036803EB411202F577
:10181000A064A56815F0040F19D1A56815F0200F74
:1018200021D02023A3602C2303FB010393F83D3038
:10183000012B17D12C2303FB0103002283F83D2049
:10184000022283F86020006800F0E7FC0AE004232D
:10185000A3602C2303FB0103062283F861200068A8
:1018600000F0DBFC38BDA56815F4007F1FD1A5682A
:1018700015F0010F22D02C2303FB01030022DA65AF
:10188000A36813F0400F07D02C2303FB01030122B0
:1018900083F83D204023A3600122A2602C2303FB98
:1018A000010383F86120006800F0B7FCDAE74FF429
:1018B0000073A360006800F0B0FCD3E7A56815F0E2
:1018C000400F37D1A56815F0080F44D1A56815F071
:1018D000100F4CD1A56815F0800F56D1A56815F4EE
:1018E000806F5ED1A36813F0020FBBD02C2303FBE3
:1018F000010393F86130012B60D0032B00F092803C
:10190000042B00F09F80052B00F0A380062B02D053
:10191000082B40F08D802C2505FB0105EB6D013374
:10192000EB65022B40F29C800022EA65042285F8D8
:1019300060207DE02C2202FB0100042280F861205F
:10194000012280F83D200022C265184600F065FCA7
:101950004023A36086E70823A3602C2303FB010335
:10196000052283F86120006800F057FC7AE72C22FA
:1019700002FB01000022C265032280F861201846A4
:1019800000F04BFC1023A3606CE72C2202FB010249
:10199000062082F86100184600F03FFC8023A36017
:1019A00060E72C2202FB0102082082F86100184641
:1019B00000F033FC4FF48063A36053E72C2303FB58
:1019C0000103012283F8602093F83F30023BDBB231
:1019D00093422DD8056945B92C2303FB010393F8E5
:1019E000552082F0010283F85520012D20D12C23AF
:1019F00003FB0103DB6CDBB12C2202FB0102B2F81A
:101A000040201344013BB3FBF2F313F0010F0FD05E
:101A10002C2303FB010393F8552082F0010283F885
:101A2000552005E02C2303FB0103022283F86020EC
:101A30000223A3602C2303FB010393F8602003F02F
:101A4000DFFB0FE72C2303FB0103022283F8602056
:101A5000EEE72C2303FB0103052283F86020E7E770
:101A60002C2303FB0103022583F86050D2F80035D4
:101A700023F0804343F00043C2F80035D8E7F8B5BF
:101A800004460568284600F0BAF9012800D0F8BDE0
:101A90002E46206800F0AFF90028F8D0206800F04A
:101AA000AAF910F4001F03D023684FF400125A6102
:101AB000206800F0A0F910F4801F03D023684FF4D1
:101AC00080125A61206800F096F910F0806F03D000
:101AD00023684FF080625A61206800F08CF910F0A2
:101AE000020F02D0236802225A61206800F083F9B5
:101AF00010F0005F08D023684FF000525A61D5F80B
:101B0000403413F0010F1DD0206800F074F910F07C
:101B1000807F26D1206800F06EF910F0080F24D1E4
:101B2000206800F068F910F0100F25D1206800F04F
:101B300062F910F0007FAAD0206800F069FB074628
:101B400000252CE01021284600F0D4F8284600F0AB
:101B5000F7F80121206800F0D7F9204603F04AFB8E
:101B6000D2E72046FFF79DFCD4E7204603F036FB82
:101B7000236808225A61D3E72268936923F010038F
:101B800093612046FFF7ECFA2268936943F0100353
:101B90009361CBE7E9B22046FFF735FE0135A36834
:101BA000AB4212D905F00F0327FA03F313F0010F2C
:101BB000F4D006EB4513D3F8003513F4004FE9D009
:101BC000E9B22046FFF7C5FCE8E723684FF0007252
:101BD0005A615CE790F8F832012B0ED010B504463C
:101BE000012180F8F812006800F0CDF9206800F0BB
:101BF00074F8002084F8F80210BD0220704790F8B5
:101C0000F832012B0BD010B50446012380F8F832CE
:101C1000006800F070FB002084F8F80210BD02207C
:101C2000704708B5006800F08FF908BD2C2303FB4E
:101C3000010191F8600070472C2303FB0101086D3E
:101C4000704708B5006800F0CCF908BD08B5006819
:101C500000F0BCF908BD000082B000230193019B95
:101C6000013301930E4A934214D80369002BF6DA2C
:101C700000230193036943F001030361019B0133D6
:101C80000193074A934208D8036913F0010FF5D175
:101C9000002000E0032002B070470320FBE700BFF4
:101CA000400D030084B038B5044605AD85E80E004C
:101CB000C36843F04003C360FFF7CEFF0E9B3BB900
:101CC000A36B43F48033A363BDE8384004B070478E
:101CD000A36B23F48033A363F6E7836843F0010327
:101CE000836000207047836823F001038360002035
:101CF0007047000082B000230193019B01330193E0
:101D00000E4A934214D80369002BF6DA002301939C
:101D1000890141F020010161019B01330193074AD0
:101D2000934208D8036913F0200FF5D1002000E09A
:101D3000032002B070470320FBE700BF400D030003
:101D400082B000230193019B013301930D4A93421A
:101D500012D80369002BF6DA0023019310230361E4
:101D6000019B01330193074A934208D8036913F09A
:101D7000100FF5D1002000E0032002B070470320CF
:101D8000FBE700BF400D030070B403339B08002540
:101D90009D4208D200EB023404F5805451F8046BE4
:101DA00026600135F4E7002070BC704770B483B042
:101DB0000646950802F003020023AB4206D206F560
:101DC0008054246841F8044B0133F6E77AB100F5FA
:101DD0008050036801930025EBB2DC00019BE340D7
:101DE00001F8013B0135013A92B2002AF4D10846CC
:101DF00003B070BC70474269806910407047406909
:101E000000F00100704738B50546C36823F0C043B1
:101E1000C360012913D019BBC36843F08043C3607A
:101E20000024012000F0D8FA01342846FFF7E7FF2C
:101E300008B1312CF5D9322C14D0002038BDC3683C
:101E400043F00053C3600024012000F0C5FA0134C0
:101E50002846FFF7D4FF0128EDD0312CF4D9EAE76A
:101E60000120EBE70120E9E784B070B5044605AD39
:101E700085E80E0005460023C0F8003E836B23F47E
:101E800000138363836B23F400338363D0F800343F
:101E900023F00403C0F800341021FFF72BFF06469F
:101EA00000B101262046FFF74BFF00B101260022BA
:101EB000069B93420AD905EB42134FF0FF31C3F85A
:101EC00008150021C3F80C150132F1E70023A361C6
:101ED0004FF0FF3363618023636203F5C003A362A5
:101EE000074BC4F80031A36943F01003A361A26952
:101EF000044B1343A3613046BDE8704004B0704703
:101F0000E0004000080020A310B400F58064D0F881
:101F1000003423F00303C0F80034D0F8003401F09B
:101F200003021343C0F80034012905D0022907D069
:101F300000205DF8044B70474BF680336360F7E791
:101F400041F270736360F3E730B583B00446002557
:101F50000195D0F840340193019B23F02E030193A7
:101F6000019B43F48073C0F84034642000F034FADD
:101F7000019B23F48073C4F840340A2000F02CFA4B
:101F8000284603B030BD82B000230193D0F840341E
:101F90000193019B23F02E030193019B13F4805FB7
:101FA00001D101290CD0019B13F4805F05D021B928
:101FB000019B23F48053C0F84034002002B07047E6
:101FC000019B43F48053C0F84034ECE782B0002317
:101FD0000193D0F8403401930198C0F3414002B01E
:101FE000704700F58060806880B270472DE9F84343
:101FF00091461C469DF8245000EB411606F5A0635F
:102000004FF0FF329A60032D66D8DFE805F00257E3
:10201000024940F29D42DA6019F0800F3AD1002760
:10202000DA6842F00202DA60D0F8183401F00F01E9
:10203000012202FA01F10B43C0F81834836943F01E
:102040000073836119F0800F48D14FF00008FFF74B
:10205000BDFF9DF82030022B43D00022A30503F0E2
:10206000FE534FEAC92909F4F04943EA0903AC04D5
:1020700004F440242343BDF82810C1F30A010B43A4
:1020800043EA08031343C6F80035032D30D0384621
:10209000BDE8F883DA6842F48072DA600027BFE7AF
:1020A00040F29D62DA6019F0800F01D10027B7E796
:1020B000DA6842F48072DA600027B1E740F2252244
:1020C000DA6019F0800F01D10027A9E7DA6842F43D
:1020D000C072DA600027A3E70127A1E74FF40048A8
:1020E000B5E7022802D04FF40032B7E70022B5E787
:1020F000D6F8003543F00053C6F80035C7E70000B6
:1021000030B583B04B784A696AB10D895419013CE6
:10211000B4FBF5F4A4B2B4F5807F05D92D020D61AE
:102120004FF4807400E00124CD78002D48D00A8956
:1021300002FB04F20A610A69C2F31202334D05EA96
:10214000C44422438C7A640704F0C04400EB431378
:1021500003F5A0652243C3F8102500F58064A2684A
:1021600012F0010FD3F8002522F00052C3F8002529
:10217000D3F800250CBF4FF0005500252A43C3F8C3
:102180000025D3F800250192019A22F080420192A5
:10219000CA78BAB1019A42F400420192019A42F01F
:1021A00000420192019AC3F80025CB78FBB94B6934
:1021B000EBB1CA79032A15D8DFE802F0091C091C23
:1021C0000A61B8E7019A22F400420192E6E703337C
:1021D000C26A92B2C3F38F039A4203D2836943F077
:1021E000200383618B8A4A78C968FFF7CDFD002000
:1021F00003B030BD0333226992B2C3F38F039A4216
:10220000F0D2836943F080638361EBE70000F81F3D
:1022100000F58060406980B2704730B482B000231E
:10222000019300EB411101F5A064D1F80035C3F32F
:102230008143D1F80025856815F0200F02D0D20F18
:10224000002A4DD013B3022B20D0D1F8003543F033
:102250008043C1F80035D0F8103413F47F0F43D118
:10226000D1F8003523F00043C1F80035D1F800352E
:1022700043F00043C1F80035019B01330193B3F5EE
:102280007A7F2DD82368002BF6DB29E0D1F80035C2
:1022900043F08043C1F80035836813F0200F1FD14D
:1022A000C36A13F47F0F15D1D1F8003523F0004332
:1022B000C1F80035D1F8003543F00043C1F80035CE
:1022C000019B01330193B3F57A7F09D82368002B72
:1022D000F6DB05E0D1F8003543F00043C1F80035E6
:1022E000002002B030BC7047D1F8003543F0004305
:1022F000C1F80035F4E770B582B005460446002306
:102300000193FFF7F0FC10212846FFF7F3FC064687
:1023100000B101262846FFF713FD00B10126002277
:102320000AE004EB4211D1F8003523F0802343F09A
:102330008043C1F8003501320F2AF2D9002100E0B4
:1023400001310F2915D804EB411000F5A062D0F837
:10235000003523F4004343F04043C0F80035019BAF
:1023600001330193B3F57A7FEAD81368002BF6DBCB
:10237000E6E74FF0FF33C5F814346B612846FFF7EA
:10238000ACFC304602B070BD10B5094A136843F486
:1023900080731360032001F063FB0F2002F0A4FCA4
:1023A00010B10124204610BD0446FEF7C1FEF9E736
:1023B00000200240034B1B78034A11680B44136052
:1023C000704700BF00000020FC0A0020014B186885
:1023D000704700BFFC0A002038B50446FFF7F6FF3F
:1023E0000546B4F1FF3F02D0044B1B781C44FFF7B5
:1023F000EDFF401BA042FAD338BD00BF0000002013
:1024000030B583B00546204B9B6D13F0805F0BD039
:1024100001F0D0FAB0F5007F17D0802D1FD82DD055
:10242000702D2DD000211BE0174CA36D43F080537D
:10243000A365A36D03F080530193019B01F0BAFAE9
:10244000A36D23F08053A365E4E7802D03D9A02D6D
:1024500003D9022104E0002102E0012100E0032170
:102460000A4A136823F007030B431360136803F051
:1024700007038B4206D1002003B030BD0221EFE7F5
:102480000121EDE70120F7E70010024000200240A3
:1024900070B586B00D4616460F4CE36C43F0010351
:1024A000E364E36C03F001030093009B4FF480733B
:1024B000019302230293049300230393059301A93C
:1024C0004FF0904001F000F8A26822F0EE42354350
:1024D0002A43A26006B070BD00100240284A9368EB
:1024E000D26802F0030213F00C030AD00C2B06D0C2
:1024F000042B1FD0082B20D00020024610E0012A18
:10250000F6D11F4A126812F0080F0CD11C4AD2F8FB
:102510009420C2F303221B4951F8222043B100202A
:102520000C2B0DD07047164A1268C2F30312F2E763
:102530001046F5E714480022F2E714480022EFE7BE
:102540000F4BDB6803F00303022B15D0032B15D0D0
:102550000B4BD868C0F302100130D968C1F30621D3
:1025600002FB01F2B2FBF0F2D868C0F34160013027
:102570004000B2FBF0F0D5E7034AE9E7034AE7E79A
:102580000010024080AF00080024F40000127A001E
:10259000002800F00183F0B583B00446AF4B9D687E
:1025A00005F00C05DE6806F00306036813F0100F53
:1025B0005BD0E5B10C2D18D0A369002B00F0BC80D6
:1025C000A64A136843F001031360FFF7FFFE0746B6
:1025D000A24B1B6813F0020F40F09B80FFF7F6FE42
:1025E000C01B0228F4D90323E2E2012EE4D19B4B65
:1025F0001B6813F0020F03D0A369002B00F0CF82F9
:10260000206A964B1B6813F0080F5CD0934B1B6835
:1026100003F0F00398425DD8904B1A6842F008022C
:102620001A601A6822F0F002216A0A431A605A6896
:1026300022F47F42E16942EA01225A60002D61D012
:10264000FFF74CFF854B9B68C3F30313844AD35CAD
:1026500003F01F03D840834B1860834B186802F0C7
:1026600043FB0346002840F0A382236813F0010FC8
:1026700000F08180082D75D00C2D71D06368B3F502
:10268000803F00F09780B3F5A02F00F09980734B46
:102690001A6822F480321A601A6822F480221A60C2
:1026A0006368002B00F09980FFF790FE07466B4BA4
:1026B0001B6813F4003F5ED1FFF788FEC01B64283F
:1026C000F5D9032374E2654BD3F894301B0903F06A
:1026D000F0039FE7FFF794FE002840F062825F4B13
:1026E0001A6842F008021A601A6822F0F002216AA1
:1026F0000A431A605A6822F47F42E16942EA0122E1
:102700005A609DE7206AFFF77BFE002898D00123DE
:102710004EE2524B1A6842F008021A601A6822F020
:10272000F002216A0A431A605A6822F47F42E16982
:1027300042EA01225A6098E7484A136823F00103ED
:102740001360FFF743FE0746444B1B6813F0020F6C
:102750008BD0FFF73BFEC01B0228F5D9032327E2ED
:10276000032E8BD13D4B1B6813F4003F03D06368ED
:10277000002B00F01882236813F0020F4FD0042DB5
:102780003CD00C2D38D0E368002B78D0334A136846
:1027900043F480731360FFF719FE06462F4B1B6846
:1027A00013F4806F62D1FFF711FE801B0228F5D968
:1027B0000323FDE1294A136843F4803313606FE774
:1027C00003F18043A3F53C331A6842F480221A6077
:1027D0001A6842F480321A6062E7FFF7F7FD074695
:1027E0001E4B1B6813F4003FC5D0FFF7EFFDC01B65
:1027F0006428F5D90323DBE1022EC4D1174B1B68F3
:1028000013F4806F03D0E368002B00F0CE81134AED
:10281000536823F0F853216943EA01635360236846
:1028200013F0080F56D06369002B3CD00B4AD2F846
:10283000943043F00103C2F89430FFF7C7FD064619
:10284000064BD3F8943013F0020F43D1FFF7BEFDCF
:10285000801B0228F4D90323AAE100BF0010024024
:1028600068AF00080800002004000020B84A536840
:1028700023F0F853216943EA01635360CFE7B44A78
:10288000136823F480731360FFF7A0FD0646B04B76
:102890001B6813F4806FC2D0FFF798FD801B0228DD
:1028A000F5D9032384E1AA4AD2F8943023F0010336
:1028B000C2F89430FFF78AFD0646A54BD3F8943052
:1028C00013F0020F06D0FFF781FD801B0228F4D918
:1028D00003236DE1236813F0040F7AD09C4B9B6DAA
:1028E00013F0805F36D19A4B9A6D42F080529A6510
:1028F0009B6D03F080530193019B0126954B1B6850
:1029000013F4807F28D0A368012B39D0052B3FD04A
:102910008F4BD3F8902022F00102C3F89020D3F817
:10292000902022F00402C3F89020A368002B3DD031
:10293000FFF74CFD0746864BD3F8903013F0020F9B
:1029400046D1FFF743FDC01B41F288339842F2D9CC
:1029500003232DE10026D1E77E4A136843F48073F8
:102960001360FFF733FD07467A4B1B6813F4807F33
:10297000C9D1FFF72BFDC01B0228F5D9032317E1AE
:10298000734AD2F8903043F00103C2F89030CCE79C
:102990006F4BD3F8902042F00402C3F89020D3F894
:1029A000902042F00102C3F89020BEE7FFF70EFD31
:1029B0000746674BD3F8903013F0020F08D0FFF7AB
:1029C00005FDC01B41F288339842F2D90323EFE0A2
:1029D0006EBBA36A002B00F0EA80022B2DD00C2DD9
:1029E00000F0ED805A4B1A6822F080721A601B6862
:1029F00013F0205F04D1564AD36823F00303D36059
:102A0000534AD36823F0887323F48033D360FFF7ED
:102A1000DDFC04464E4B1B6813F0007F00F0BA80CB
:102A2000FFF7D4FC001B0228F4D90323C0E0484A76
:102A3000936D23F080539365CBE7454BDB6803F040
:102A40000301E26A91420FD00C2D00F0B480404B9C
:102A50001B6813F0806F40F0B0803D4B1B6813F093
:102A6000805F2DD00123A3E003F07002216B0139B8
:102A7000B2EB011FE8D103F4FE42616BB2EB012F10
:102A8000E2D103F40031A26B073A18BF0122914250
:102A9000DAD103F4C001E26B5208013AB1EB425FB4
:102AA000D2D103F0C063226C5208013AB3EB426FFB
:102AB000CAD1274B1B6813F0007F51D0002377E069
:102AC000234A136823F080731360FFF77FFC0546E9
:102AD0001F4B1B6813F0007F06D0FFF777FC401BED
:102AE0000228F5D9032363E0194AD3681A4919402B
:102AF000E36A206B013843EA0013606B43EA00236A
:102B0000E06B4008013843EA4053206C400801382C
:102B100043EA4063A06B000943EA40430B43D360A0
:102B2000136843F080731360D36843F08073D360FD
:102B3000FFF74CFC0446064B1B6813F0007F0DD1D9
:102B4000FFF744FC001B0228F5D9032330E000BF47
:102B500000100240007000408C809DF9002327E0A7
:102B6000184B1A6842F080721A60DA6842F080727C
:102B7000DA60FFF72BFC0446124B1B6813F0007F52
:102B800006D1FFF723FC001B0228F5D903230FE031
:102B900000230DE000230BE00123184670470123BA
:102BA00006E0012304E0012302E0012300E000230A
:102BB000184603B0F0BD0123FAE70123F8E701232B
:102BC000F6E700BF00100240002800F0988070B5C2
:102BD00004464F4B1B6803F007038B420BD24C4A51
:102BE000136823F007030B431360136803F0070314
:102BF0008B4240F086800D46236813F0010F39D0D8
:102C00006368032B09D0022B26D063BB414A1268AC
:102C100012F0020F06D1012070E03E4A126812F055
:102C2000007F70D03B498A6822F0030213438B6017
:102C3000FFF7CCFB0646374B9B6803F00C0362683A
:102C4000B3EB820F16D0FFF7C1FB801B41F2883334
:102C50009842F0D9032051E02E4A126812F4003F46
:102C6000E0D101204AE02B4A126812F4806FD9D1DA
:102C7000012043E0236813F0020F06D0254A936831
:102C800023F0F003A1680B439360214B1B6803F012
:102C90000703AB420AD91E4A136823F007032B43EC
:102CA0001360136803F00703AB422ED1236813F0BF
:102CB000040F06D0174A936823F4E063E1680B43DE
:102CC0009360236813F0080F07D0124A936823F427
:102CD0006053216943EAC1039360FFF7FFFB0D4B8B
:102CE0009B68C3F303130C4AD35C03F01F03D84063
:102CF0000A4B18600A4B186801F0F6FF70BD0120FE
:102D000070470120FAE70120F8E70120F6E700BF4D
:102D1000002002400010024068AF000808000020B8
:102D200004000020014B1868704700BF0800002015
:102D300008B5FFF7F7FF054B9B68C3F30223044A6E
:102D4000D35C03F01F03D84008BD00BF0010024051
:102D500078AF000808B5FFF7E5FF054B9B68C3F3A4
:102D6000C223044AD35C03F01F03D84008BD00BF50
:102D70000010024078AF00080F2303600B4B9A68E5
:102D800002F0030242609A6802F0F00282609A68E0
:102D900002F4E062C2609B68DB0803F4E063036155
:102DA000034B1B6803F007030B60704700100240E1
:102DB00000200240F8B55A4BDB6813F0030F18D01F
:102DC000574BDB6803F003030268934202D00124EF
:102DD0002046F8BD002A00F0A080514BDB68C3F309
:102DE000021301334268934201D00124F0E700242A
:102DF00009E00368022B59D0032B5ED0012B44D08D
:102E00000124002CE4D10F460646454A136823F0FE
:102E100080631360FFF7DAFA0546414B1B6813F035
:102E2000006F05D0FFF7D2FA401B0228F5D9032422
:102E3000002CCDD1002F4ED139490B6923F41F331B
:102E400023F44073B068F2681209520442EA002287
:102E500013430B61324A136843F080631360FFF73A
:102E6000B5FA05462E4B1B6813F0006F05D1FFF72E
:102E7000ADFA401B0228F5D90324002CA8D1284A1A
:102E80001369B1690B431361A2E7254A126812F076
:102E9000020F1ED0224DEA6822F073024468013C02
:102EA00043EA04131343EB600024AAE71C4A1268A8
:102EB00012F4806FEED10124A3E7194A126812F4CC
:102EC000003FE7D1164A126812F4802FE2D10124A4
:102ED00097E7012495E7012F0FD01148026922F0EE
:102EE000C06222F4FE42B16873695B08013B5B0675
:102EF00043EA012313430361ACE70948026922F462
:102F0000C00222F4FE42B16833695B08013B5B05F5
:102F100043EA0123134303619CE7012458E700BF00
:102F200000100240F8B5514BDB6813F0030F18D0C6
:102F30004E4BDB6803F003030268934202D0012486
:102F40002046F8BD002A00F08E80484BDB68C3F3B2
:102F5000021301334268934201D00124F0E70024B8
:102F600009E00368022B59D0032B5ED0012B44D01B
:102F70000124002CE4D10F4606463C4A136823F096
:102F800080531360FFF722FA0546384B1B6813F095
:102F9000005F05D0FFF71AFA401B0228F5D9032479
:102FA000002CCDD1002F4ED130494B6923F41F3373
:102FB00023F44073B068F2681209520442EA002216
:102FC00013434B61294A136843F080531360FFF7A2
:102FD000FDF90546254B1B6813F0005F05D1FFF78F
:102FE000F5F9401B0228F5D90324002CA8D11F4A6B
:102FF000536971690B435361A2E71C4A126812F0CE
:10300000020F1ED0194DEA6822F073024468013C99
:1030100043EA04131343EB600024AAE7134A12683F
:1030200012F4806FEED10124A3E7104A126812F463
:10303000003FE7D10D4A126812F4802FE2D101243B
:1030400097E7012495E70948426922F0C06222F41B
:10305000FE42B16833695B08013B5B0643EA01232A
:1030600013434361AEE701246AE700BF001002404A
:103070002DE9F04182B00446036813F4006F33D0A9
:10308000436EB3F5800F29D011D9B3F5000F1ED0D0
:10309000B3F5400F18D10027664AD2F8883023F4E0
:1030A0004003616E0B43C2F8883000261EE043B92E
:1030B00000210430FFF77EFE0746002FECD03E468D
:1030C00014E00126374611E0012637460EE0594A42
:1030D000D36843F48033D3600027DDE7002120303C
:1030E000FFF720FF0746E8E700263746236813F47A
:1030F000805F15D0A36EB3F1807F7DD069D9B3F125
:10310000007F73D0B3F1407F6DD1002F7BD1494A4E
:10311000D2F8883023F04073A16E0B43C2F8883098
:10312000236813F4003F00F08E80424B9B6D13F038
:10313000805F6AD13F4B9A6D42F080529A659B6DD9
:1031400003F080530193019B4FF001083A4A136842
:1031500043F480731360FFF739F90546364B1B685B
:1031600013F4807F05D1FFF731F9401B0228F5D910
:103170000327002F62D12F4BD3F8903013F4407304
:1031800016D0D4F884209A4212D02A4AD2F890302D
:1031900023F44073D2F8901041F48031C2F89010BB
:1031A000D2F8901021F48031C2F89010C2F890301B
:1031B00013F0010F2CD1002F40F043811D4AD2F8AB
:1031C000903023F44073D4F884100B43C2F890304D
:1031D00035E02BB90021201DFFF7ECFD074694E7F1
:1031E000012637469CE70126374699E7114AD368FE
:1031F00043F48033D36088E7002104F12000FFF717
:1032000091FE074681E73E468AE74FF000089DE7BA
:10321000FFF7DCF80546074BD3F8903013F0020FA8
:10322000C9D1FFF7D3F8401B41F288339842F2D955
:103230000327C0E700100240007000403E46B8F18E
:10324000000F40F00081236813F0010F08D09D4A61
:10325000D2F8883023F00303A16B0B43C2F8883007
:10326000236813F0020F08D0964AD2F8883023F072
:103270000C03E16B0B43C2F88830236813F0040F92
:1032800008D0904AD2F8883023F03003216C0B43E9
:10329000C2F88830236813F0080F08D0894AD2F8A2
:1032A000883023F0C003616C0B43C2F88830236878
:1032B00013F0100F08D0834AD2F8883023F44073FB
:1032C000A16C0B43C2F88830236813F0200F08D09C
:1032D0007C4AD2F8883023F44063E16C0B43C2F897
:1032E0008830236813F4007F08D0764AD2F88830FB
:1032F00023F44023E16D0B43C2F88830236813F4B4
:10330000806F08D06F4AD2F8883023F44013216EC2
:103310000B43C2F88830236813F0400F08D0694A85
:10332000D2F8883023F44053216D0B43C2F8883023
:10333000236813F0800F08D0624AD2F8883023F453
:103340004043616D0B43C2F88830236813F4807FDB
:1033500008D05C4AD2F8883023F44033A16D0B4387
:10336000C2F88830236813F4005F0FD0554AD2F8B2
:10337000883023F04063E16E0B43C2F88830E36E7F
:10338000B3F1006F65D0B3F1806F67D0236813F499
:10339000002F0FD04B4AD2F8883023F04063216FC2
:1033A0000B43C2F88830236FB3F1006F5ED0B3F1E6
:1033B000806F60D0236813F4802F0FD0414AD2F879
:1033C000883023F04063616F0B43C2F88830636F2D
:1033D000B3F1006F57D0B3F1806F59D0236813F465
:1033E000804F0FD0374AD2F8883023F04053A16F76
:1033F0000B43C2F88830A36FB3F1805F50D0B3F1B4
:10340000005F55D0236813F4004F08D02D4AD2F83E
:10341000883023F08043E16F0B43C2F88830236883
:1034200013F4803F09D0274AD2F8883023F00043B4
:10343000D4F880100B43C2F88830304602B0BDE8A3
:10344000F0813E46FBE61F4A936D23F0805393655F
:10345000F9E6D36843F48013D36097E70121201D78
:10346000FFF7A8FC002891D006468FE7D36843F405
:103470008013D3609EE70121201DFFF79BFC0028ED
:1034800098D0064696E7D36843F48013D360A5E747
:103490000121201DFFF78EFC00289FD006469DE7E6
:1034A0000221201DFFF786FC0028ABD00646A9E7C5
:1034B000022104F12000FFF735FD0028A2D00646C6
:1034C000A0E700BF00100240F0B482B0002364E027
:1034D00086685F000325BD4026EA0506CD68BD402D
:1034E00035438560466826EA04064D68C5F3001535
:1034F0009D40354345605EE0C66A26EA0406C5F392
:10350000C0049C403443C4625AE0DD08083550F8DA
:10351000257003F00704A6000F24B44027EA04072F
:103520000C69B4403C4340F825405DE0062400E0CF
:103530000024B4403C430235544E46F82540544CD8
:10354000A568D44304EA05064F6817F4801F01D02C
:1035500042EA05064E4DAE60ED6804EA05064F6886
:1035600017F4001F01D042EA0506494DEE606D6870
:1035700004EA05064F6817F4003F01D042EA050649
:10358000434D6E602D682C404E6816F4803F01D08C
:1035900042EA05043E4A146001330A6832FA03F431
:1035A00070D001249C402240F6D04D6805F0030500
:1035B000013D012D8CD94D6805F00306032E9BD0EB
:1035C0004C6804F00304032C09D0C5685E00032492
:1035D000B44025EA04058C68B4402C43C4604C68B0
:1035E00004F00304022C90D005685E000324B4406C
:1035F00025EA04054C6804F00304B4402C4304603D
:103600004C6814F4403FC7D0224C256E45F00105AC
:103610002566246E04F001040194019C9D08AE1CF3
:103620001A4C54F8267003F00304A6000F24B4408B
:1036300027EA0407B0F1904F3FF47AAF164CA0424E
:1036400016D004F58064A04214D004F58064A04232
:1036500012D004F58064A04210D004F58064A0422A
:103660000ED004F58064A0423FF460AF072460E709
:1036700001245EE702245CE703245AE7042458E7A8
:10368000052456E702B0F0BC704700BF00000140BF
:103690000004014000100240000400480AB18161AA
:1036A000704781627047436901EA030221EA03011E
:1036B00041EA02418161704770B4446C04F01C051A
:1036C000066C0124AC407460046863608368102B4E
:1036D00005D0036899600368DA6070BC70470368BE
:1036E0009A600368D960F8E7002868D010B40346F0
:1036F0000068344A904244D8334A02443349A1FB1B
:103700000212120992005A64314A1A64022283F8A2
:103710002520016821F4FF4121F070019A68DC68DE
:1037200022431C6922435C6922439C692243DC6971
:1037300022431C6A22430A4302609A68B2F5804F12
:1037400015D0196C224A914226D0224A1168586C31
:1037500000F01C040F20A04021EA00011160116854
:1037600058685C6C04F01C04A04001431160002008
:10377000D863012283F8252083F824005DF8044BE8
:103780007047154A02441149A1FB02121209920026
:103790005A64124A1A64B9E7A8321168586C00F0EA
:1037A0001C040F20A04021EA000111601168586834
:1037B0005C6C04F01C04A04001431160D7E70120B9
:1037C000704700BF07040240F8FFFDBFCDCCCCCC52
:1037D00000000240A8040240F8FBFDBF00040240C4
:1037E00038B590F82440012C33D0012480F82440CF
:1037F00090F82540E4B2012C04D0002380F8243056
:10380000022038BD0446022084F825000020E06331
:103810002568286820F0010028602046FFF74CFF4B
:10382000236B5BB12268136843F00E0313602268B8
:10383000136843F0010313600020E2E72268136875
:1038400023F0040313602268136843F00A03136033
:10385000EDE70220D5E790F82530DBB2022B06D049
:103860000423C363002380F82430012070470268DA
:10387000136823F00E0313600268136823F001033A
:103880001360436C03F01C03016C012202FA03F382
:103890004B6080F82520002380F8243018467047BC
:1038A00008B590F82530DBB2022B03D00423C363A4
:1038B000012008BD0268136823F00E03136002683C
:1038C000136823F001031360436C03F01C03016CC5
:1038D000012202FA03F34B6080F82520002380F8D0
:1038E0002430836B13B198470020E2E70020E0E723
:1038F00038B5036C196804682568436C03F01C0331
:1039000004229A400A4215D015F0040F12D0236801
:1039100013F0200F03D1236823F004032360436CCA
:1039200003F01C02016C042393404B60036B03B152
:10393000984738BD02229A400A421CD015F0020F67
:1039400019D0236813F0200F06D1236823F00A034F
:103950002360012380F82530436C03F01C02016CC6
:10396000022393404B60002380F82430C36A002B6D
:10397000DFD09847DDE7082202FA03F30B42D8D0E4
:1039800015F0080FD5D0236823F00E032360436C95
:1039900003F01C03016C012202FA03F34B60C263C3
:1039A00080F82520002380F82430436B002BC0D002
:1039B0009847BEE7024B186800F4C060704700BF2C
:1039C00000700040B0F5007F0FD01E4B1B6803F461
:1039D000C063B3F5806F33D01A4A136823F4C06311
:1039E00043F48063136000207047164B1B6803F498
:1039F000C063B3F5007F1FD0124A136823F4C0637D
:103A000043F400731360104B1A68322303FB02F374
:103A10000E4AA2FB03239B0C01330A4A526912F49B
:103A2000806F02D00BB1013BF7E7064B5B6913F4E3
:103A3000806F03D10020704700207047032070473B
:103A400000207047007000400800002083DE1B4308
:103A5000024A536843F4806353607047007000402B
:103A6000074AD36823F4E0631B041B0C000200F434
:103A7000E060184340F0BF6040F40030D060704711
:103A800000ED00E030B4174BDB68C3F30223C3F151
:103A90000704042C28BF04241D1D062D01D9033B57
:103AA00000E000234FF0FF3505FA04F421EA040199
:103AB000994005FA03F322EA03031943002809DBBE
:103AC0000901C9B200F1604000F5614080F80013BF
:103AD00030BC704700F00F000901C9B2024B195405
:103AE000F6E700BF00ED00E014ED00E0002807DB82
:103AF00000F01F02400901239340024A42F820309F
:103B0000704700BF00E100E07047000090F83D30D2
:103B1000DBB2012B36D1022380F83D300268D36836
:103B200043F00103D3600368194A93421CD0B3F1F8
:103B3000804F19D0A2F59432934215D002F58062DD
:103B4000934211D002F5806293420DD002F5943277
:103B5000934209D002F54062934205D01A6842F0C0
:103B600001021A600020704799680A4A0A40062A32
:103B70000AD0B2F5803F09D01A6842F001021A60FB
:103B800000207047012070470020704700207047D8
:103B9000002C0140070001007047704770477047D4
:103BA00010B5044603681A6912F0020F11D0DA68E2
:103BB00012F0020F0DD06FF002021A610123037799
:103BC00003689B6913F0030F79D0FFF7E6FF00232A
:103BD000237723681A6912F0040F12D0DA6812F002
:103BE000040F0ED06FF004021A61022323772368BA
:103BF0009B6913F4407F68D02046FFF7CEFF002377
:103C0000237723681A6912F0080F12D0DA6812F0CD
:103C1000080F0ED06FF008021A610423237723687F
:103C2000DB6913F0030F57D02046FFF7B6FF0023E0
:103C3000237723681A6912F0100F12D0DA6812F095
:103C4000100F0ED06FF010021A610823237723683B
:103C5000DB6913F4407F46D02046FFF79EFF002328
:103C6000237723681A6912F0010F03D0DA6812F083
:103C7000010F3FD123681A6912F0800F03D0DA6870
:103C800012F0800F3DD123681A6912F4807F03D0AF
:103C9000DA6812F0800F3BD123681A6912F0400FE6
:103CA00003D0DA6812F0400F39D123681A6912F094
:103CB000200F03D0DA6812F0200F37D110BDFFF7C4
:103CC0006BFF2046FFF76AFF81E72046FFF764FF9E
:103CD0002046FFF763FF92E72046FFF75DFF20468F
:103CE000FFF75CFFA3E72046FFF756FF2046FFF7EC
:103CF00055FFB4E76FF001021A612046FCF794FF0C
:103D0000B8E76FF080021A61204600F0EEF9BAE7DA
:103D10006FF480721A61204600F0E8F9BCE76FF09A
:103D200040021A612046FFF73AFFBEE76FF020021B
:103D30001A61204600F0D8F9C0E700000368304A55
:103D4000904212D0B0F1804F0FD0A2F59432904241
:103D50000BD002F58062904207D002F5806290425B
:103D600003D002F59432904203D123F070034A68E5
:103D70001343234A90421ED0B0F1804F1BD0A2F5CE
:103D80009432904217D002F58062904213D002F52F
:103D9000806290420FD002F5943290420BD002F52F
:103DA0004062904207D002F58062904203D002F553
:103DB0008062904203D123F44073CA68134323F016
:103DC00080034A69134303608B68C3620B68836294
:103DD0000B4B98420FD003F5006398420BD003F5CC
:103DE0004063984207D003F58063984203D003F5FF
:103DF0008063984201D10B690363012343617047DB
:103E0000002C014060B310B5044690F83D3013B368
:103E1000022384F83D30214651F8040BFFF78EFF52
:103E2000012384F8483084F83E3084F83F3084F829
:103E3000403084F8413084F8423084F8433084F8CC
:103E4000443084F8453084F8463084F8473084F8AC
:103E50003D30002010BD80F83C30FFF755FED7E71D
:103E60000120704750B338B504460D4690F83D30F8
:103E7000FBB1022384F83D30214651F8040BFFF7D3
:103E80005DFF2268136823F008031360226813683B
:103E90002B431360012384F8483084F83E3084F8C3
:103EA0003F3084F8443084F8453084F83D300020B9
:103EB00038BD80F83C3003F08FFEDAE70120704710
:103EC00010B401F01F01012303FA01F4036A23EA8D
:103ED00004030362036A8A40134303625DF8044BE0
:103EE000704700000A4600294ED190F83E30DBB200
:103EF00013F1FF3318BF0123002B40F09F8010B552
:103F0000002A71D1022380F83E3011460446012276
:103F10000068FFF7D5FF23684B4A93420FD002F5A4
:103F2000006293420BD002F54062934207D002F543
:103F30008062934203D002F58062934203D15A6CAF
:103F400042F400425A6423683F4A934268D0B3F176
:103F5000804F65D0A2F59432934261D002F5806221
:103F600093425DD002F58062934259D002F59432BB
:103F7000934255D002F54062934251D01A6842F004
:103F800001021A60002058E004290DD0082913D03E
:103F90000C2919D010291FD090F84330DBB213F14F
:103FA000FF3318BF0123A7E790F83F30DBB213F1CE
:103FB000FF3318BF01239FE790F84030DBB213F1C5
:103FC000FF3318BF012397E790F84130DBB213F1BC
:103FD000FF3318BF01238FE790F84230DBB213F1B3
:103FE000FF3318BF012387E7042A09D0082A0BD022
:103FF0000C2A0DD0102A0FD0022380F8433084E71A
:10400000022380F83F3080E7022380F840307CE7CD
:10401000022380F8413078E7022380F8423074E7C9
:1040200099680A4A0A40062A0AD0B2F5803F09D0A8
:104030001A6842F001021A60002010BD012070478A
:104040000020FAE70020F8E7002C014007000100FB
:1040500090F83C30012B42D030B4012380F83C3042
:10406000022380F83D300268536895681D4CA242D7
:1040700003D004F50064A24203D123F470034C681A
:10408000234323F070030C68234353600368154AED
:10409000934216D0B3F1804F13D0A2F594329342DD
:1040A0000FD002F5806293420BD002F580629342FA
:1040B00007D002F59432934203D002F54062934256
:1040C00004D125F080058A6815439D60012380F89E
:1040D0003D30002380F83C30184630BC7047022049
:1040E000704700BF002C014070477047704702685E
:1040F00052E8003F23F0C00342E800310029F6D126
:10410000202383677047026852E8003F23F49073CE
:1041100042E800310029F6D1026802F1080353E8B1
:10412000003F23F00103083242E800310029F3D1B7
:10413000036E012B05D02023C3670023036643666B
:104140007047026852E8003F23F0100342E8003154
:104150000029F6D1EFE7000010B5846F202C48D17C
:10416000002948D0002A48D090F87430012B46D05E
:1041700013460446012280F87420C164A0F8503030
:10418000A0F852300022C0F8802021228267C26E3F
:10419000DAB11C49D162C26E1B491163C26E1B4960
:1041A0005163C26E0021916302682832C16CC06EF7
:1041B000FFF716FB48B11023C4F88030002384F8C1
:1041C00074302023A367012014E0236840221A6280
:1041D000002384F87430226802F1080353E8003F9A
:1041E00043F08003083242E800310029F3D1002077
:1041F00000E0022010BD0120FCE70120FAE70220C8
:10420000F8E700BF134200087F4200088B42000815
:10421000704708B5816A03681B6813F0200F18D136
:104220000023A1F852300A6802F1080353E8003F66
:1042300023F08003083242E800300028F3D10A68F6
:1042400052E8003F43F0400342E800300028F6D136
:1042500008BD0846FFF7DCFFFAE708B5026852E838
:10426000003F23F0400342E800310029F6D120232B
:10427000836700238366FFF7CBFF08BD704708B54F
:10428000806AFFF7FBFF08BD704738B5846AA26FEC
:10429000E56F23689B6813F0800F01D0212A10D0AE
:1042A00023689B6813F0400F01D0222D10D0D4F862
:1042B000803043F01003C4F880302046FFF7E4FF5D
:1042C00038BD0023A4F852302046FFF710FFE7E77F
:1042D0000023A4F85A302046FFF715FFE7E708B59A
:1042E000806A0023A0F85A30A0F85230FFF7CCFFC4
:1042F00008BD704770B504460168CB6908688D68D1
:1043000040F60F021A4005D113F0200F02D010F032
:10431000200F20D12AB115F0010222D1AB4E30423C
:104320001FD1226E012A00F0AB8013F4801F03D04E
:1043300015F4800F40F0378113F0800F03D010F098
:10434000800F40F0378113F0400F03D010F0400F82
:1043500040F0378170BD636E002BFBD0204698473C
:10436000F8E713F0010F09D010F4807F06D0012583
:104370000D62D4F880102943C4F8801013F0020FA6
:1043800009D042B1216802250D62D4F8801041F0B5
:104390000401C4F8801013F0040F09D042B1216861
:1043A00004250D62D4F8801041F00201C4F8801099
:1043B00013F0080F0BD010F0200F00D13AB1226893
:1043C00008211162D4F880200A43C4F8802013F435
:1043D000006F0CD010F0806F09D022684FF400619C
:1043E0001162D4F8802042F02002C4F88020D4F872
:1043F0008020002AAED013F0200F06D010F0200F3E
:1044000003D0636E0BB120469847D4F88020236810
:104410009B6813F0400F02D112F0280F29D02046DC
:10442000FFF771FE23689B6813F0400F1DD02268D0
:1044300002F1080353E8003F23F04003083242E84A
:1044400000310029F3D1236F5BB1614A9A63206F79
:10445000FFF726FA00283FF47DAF206F836B984763
:1044600078E72046FFF710FF74E72046FFF70CFFC0
:1044700070E72046FFF708FF0023C4F8803069E7A3
:1044800013F0100F3FF451AF10F0100F3FF44DAF89
:1044900010230B6223689B6813F0400F4DD0226FEE
:1044A00013685B689BB2002B3FF454AFB4F858100C
:1044B00099427FF64FAFA4F85A3013681B6813F087
:1044C000200F30D1226852E8003F23F4807342E885
:1044D00000310029F6D1226802F1080353E8003FB9
:1044E00023F00103083242E800310029F3D12268A9
:1044F00002F1080353E8003F23F04003083242E88A
:1045000000310029F3D12023E367002323662268CA
:1045100052E8003F23F0100342E800310029F6D1B1
:10452000206FFFF798F9B4F85810B4F85A30C91A48
:1045300089B22046FFF7DDFE0CE7B4F85810B4F856
:104540005A30C91A89B2B4F85A309BB2002B3FF4E2
:1045500001AF00293FF4FEAE226852E8003F23F489
:10456000907342E800300028F6D1226802F1080377
:1045700053E8003F23F00103083242E800300028EE
:10458000F3D12023E367002323666366226852E8A1
:10459000003F23F0100342E800300028F6D1204607
:1045A000FFF7A7FED6E64FF480130B62204600F01B
:1045B0004BFBCFE6A36E002B3FF4CCAE20469847D2
:1045C000C8E62046FFF749FEC4E600BF200100040C
:1045D000DF4200082DE9D848044601688368026973
:1045E000134342691343C269134308688F4A024068
:1045F00013430B602268536823F44053E1680B4374
:104600005360A16922688A4B9A4201D0236A1943F8
:10461000936823F430630B4393602368854A934285
:1046200011D0854A934222D0844A934238D0844A9A
:10463000934260D0834A934273D07D4A934200F004
:10464000898010223FE002F55842D2F8882002F01B
:104650000302032A09D8DFE802F0020496060122C9
:1046600031E004222FE008222DE010222BE002F599
:10467000E632D2F8882002F00C020C2A0ED8DFE8CD
:1046800002F0070D0D0D090D0D0D840D0D0D0B0024
:10469000002218E0042216E0082214E0102212E0A2
:1046A00002F5E432D2F8882002F03002102A6ED0EF
:1046B00005D9202A6DD0302A1BD1082203E00AB97F
:1046C000002200E010225A498B4270D0E369B3F512
:1046D000004F00F09F80082A00F20D81DFE812F001
:1046E000DD00F400DB000B01F7000B010B010B01F7
:1046F000FA001022E7E702F5E232D2F8882002F051
:10470000C002402A47D005D9802A46D0C02A06D107
:104710000822D8E70AB90022D5E71022D3E71022F1
:10472000D1E702F5E032D2F8882002F44072B2F507
:10473000807F34D007D9B2F5007F32D0B2F5407F08
:1047400006D10822BFE70AB90022BCE71022BAE767
:104750001022B8E702F5C832D2F8882002F440628D
:10476000B2F5806F1FD007D9B2F5006F1DD0B2F53A
:10477000406F06D10822A6E70AB90022A3E710225B
:10478000A1E710229FE702229DE702229BE7042275
:1047900099E7022297E7042295E7022293E7042291
:1047A00091E702228FE704228DE702228BE7082A95
:1047B00000F29380DFE802F0089110910D91919141
:1047C00005004FF4004008E0FEF7B2FA28B90020D7
:1047D00075E0FDF783FEF9E71B48626802EB4203D0
:1047E00083427CD8B0EB023F7BD80023070E060241
:1047F000500816EB000B47F1000C58466146FCF7D9
:10480000B3F9A0F54072114B9A426CD82368D86076
:10481000002054E0082A68D8DFE802F01A3405675F
:10482000376767673A00084816E000BFF369FFEF93
:104830000080004000380140004400400048004033
:10484000004C0040005000400024F400FFFC0F002A
:10485000FEF76EFA00284AD06268530803EB400066
:10486000B0FBF2F0A0F110024FF6EF739A4240D87D
:1048700083B223F00F03C0F3420018432368D860CB
:1048800000201CE0FEF766FAE4E7FDF727FEE1E70B
:104890004FF40040E0E71B4802E0FEF749FA60B33E
:1048A000636800EB5300B0FBF3F0A0F110024FF689
:1048B000EF739A4223D8236880B2D8600020002387
:1048C0006366A366BDE8D888FEF744FAE7E7FDF71C
:1048D00005FEE4E74FF40040E2E70120EFE70120A6
:1048E000EDE70120EBE70120E9E70120E7E7002001
:1048F000E5E70120E3E70120E1E70020DFE7012011
:10490000DDE700BF0024F400436A13F0010F06D076
:104910000268536823F40033816A0B435360436A8F
:1049200013F0020F06D00268536823F48033C16A83
:104930000B435360436A13F0040F06D002685368B8
:1049400023F48023016B0B435360436A13F0080F79
:1049500006D00268536823F40043416B0B43536055
:10496000436A13F0100F06D00268936823F4805353
:10497000816B0B439360436A13F0200F06D00268EB
:10498000936823F40053C16B0B439360436A13F0A5
:10499000400F0AD00268536823F48013016C0B4364
:1049A0005360036CB3F5801F0BD0436A13F0800F84
:1049B00006D00268536823F40023816C0B435360D4
:1049C00070470268536823F4C003416C0B43536083
:1049D000EBE72DE9F04104460F4616469846069D42
:1049E0002368DB6937EA03030CBF01230023B342CA
:1049F00051D1B5F1FF3FF3D0FDF7E8FCA0EB080083
:104A0000A8422BD855B323681A6812F0040FE7D0D8
:104A1000DA6912F4006FE3D04FF400621A62226880
:104A200052E8003F23F4D07342E800310029F6D168
:104A3000226802F1080353E8003F23F00103083223
:104A400042E800310029F3D12023A367E367C4F8CB
:104A50008030002384F8743003201DE0226852E87F
:104A6000003F23F4D07342E800310029F6D12268D8
:104A700002F1080353E8003F23F00103083242E843
:104A800000310029F3D12023A367E367002384F8D2
:104A90007430032000E00020BDE8F0812DE9F041F2
:104AA00082B01E46836F202B56D104460D46904699
:104AB000002956D0002A56D090F87430012B54D0DB
:104AC000012380F874300023C0F8803021238367ED
:104AD000FDF77CFC0746A4F85080A4F85280A36838
:104AE000B3F5805F05D04FF00008002384F87430E0
:104AF00013E0236913B14FF00008F6E7A84600253C
:104B0000F3E738F8023B2268C3F308031385B4F8CF
:104B10005230013B9BB2A4F85230B4F852309BB2F1
:104B200073B100963B46002280212046FFF751FFDB
:104B3000E8B9002DE5D0236815F8012B1A85E6E7C2
:104B400000963B46002240212046FFF742FF0346E5
:104B500078B92022A26700E00223184602B0BDE81F
:104B6000F0810123F9E70123F7E70223F5E70323A7
:104B7000F3E70323F1E730B583B004460023C0F820
:104B80008030FDF723FC054623681B6813F0080FEF
:104B90000DD123681B6813F0040F16D12023A367DF
:104BA000E3670020206684F8740003B030BD6FF026
:104BB0007E430093034600224FF400112046FFF786
:104BC00008FF0028E5D00320EFE76FF07E43009355
:104BD0002B4600224FF480012046FFF7FAFE002802
:104BE000DCD00320E1E768B310B50446836F03B35C
:104BF0002423A3672268136823F00103136020466F
:104C0000FFF7E8FC012813D0636ABBB92268536838
:104C100023F4904353602268936823F02A0393603F
:104C20002268136843F0010313602046FFF7A3FFD7
:104C300010BD80F87430FCF7A7F9D9E72046FFF7DC
:104C400063FEE3E701207047704700000F49D1F889
:104C5000883043F47003C1F888300D4B1A6842F075
:104C600001021A60002098601A6822F0A85222F40B
:104C700010221A604FF48052DA601A6822F48022FF
:104C80001A6098614FF000638B60704700ED00E0A0
:104C90000010024000B583B0124B9A6C42F0010242
:104CA0009A649B6C03F001030193019B002211465F
:104CB0000F20FEF7E7FE0F20FEF718FF0022114637
:104CC0001020FEF7DFFE1020FEF710FF0022114635
:104CD0001120FEF7D7FE1120FEF708FF03B05DF8A4
:104CE00004FB00BF0010024000B589B0002201465D
:104CF0003720FEF7C7FE3720FEF7F8FE144B9A6DFB
:104D000042F020029A659B6D03F020030193019B02
:104D100002A903A8FEF730F8FEF70AF80D4BA3FB33
:104D200000239B0C013B0C480C4A026040F2E73226
:104D3000C2604360002303618360FFF763F818B12A
:104D4000012009B05DF804FB0348FEF7DFFEF8E739
:104D50000010024083DE1B43000B002000140040C3
:104D600004290CD0052902D0022904D07047064B33
:104D700003221A707047044B02221A707047024BCC
:104D800001221A70F2E700BF1C0900202DE9F04F44
:104D900091B0804601F08CFD03280ED0404601F012
:104DA00087FD012800F08D80404601F081FD02283A
:104DB00000F0208111B0BDE8F08F404601F0FAFF0D
:104DC00081460028F6D001684368AF4A1068AF4AB0
:104DD00012689A4208BF884208D1D9F80020AA4B2D
:104DE0001A60D9F80420A94B1A60D7E799F80A206D
:104DF00099F90B3043EA42035BB299F8092043EA80
:104E000082035BB299F8082043EAC2035BB299F8C7
:104E10000C2043EA02135BB299F80D2043EA4213D7
:104E20005BB299F80E2043EA82135BB299F80F2027
:104E300043EAC213964C237002220121204603F05C
:104E4000A1F8D9F80420D9F80010924803F096FF91
:104E500099F808300D9399F809200E9299F80A00F4
:104E60000F9099F80B0099F80C3099F80D5099F8BB
:104E70000E6099F80F7099F810C099F811E099F840
:104E8000122099F8131099F814A099F815B0CDF8DC
:104E900028B0CDF824A008910792CDF818E0CDF8FD
:104EA00014C0049703960295019300900F9B0E9AED
:104EB0000D99794803F062FF2178784803F05EFF8E
:104EC0008BE7774B1B78012B7AD1764A1368013335
:104ED0001360734B01221A70404601F0F3FE90F903
:104EE000003007EE903AF8EEE77ADFED6F6A67EE92
:104EF000A67A6E4B93ED007A77EE877AC3ED007A4F
:104F000090F9013007EE103AB8EEC77A27EE267A0C
:104F1000674BD3ED006A36EEC77A83ED007AF5EE83
:104F2000C07AF1EE10FA4FD4604BD3ED006ADFED9A
:104F3000617AF4EEE76AF1EE10FA01DD00221A6000
:104F4000B5EEC07AF1EE10FA42D4594B93ED007AE7
:104F5000DFED587AB4EEE77AF1EE10FA01DD0022C7
:104F60001A608378012B37D0FF2B3AD0524A504B2E
:104F7000D3ED007AFCEEE77A17EE903A13704B4BC4
:104F8000D3ED007AFCEEE77A17EE903A53704B4B74
:104F90001B781B0143F008035BB2C278002A08BFEC
:104FA00043F0010302790ABB022213434279FAB9A2
:104FB0000422134340488370032102F0C5FFF3E647
:104FC000002103F02BF880E7384B3D4A1A60ABE72D
:104FD000374B3B4A1A60B8E738490A7801320A7001
:104FE000C2E7364A1378013B1370BFE70022DCE7C3
:104FF0000022DEE7334803F05BFF0A2003F0D6FE11
:10500000274B02221A70404601F0E2FD0446417A25
:10501000827AC37A007B657BA67B0296019500901D
:10502000294803F0ABFEA3780BB9A37913B1E020B4
:1050300002F02AFE63780BB9637913B1E12002F024
:1050400023FEE3780BB9E37913B1E22002F01CFEF2
:10505000607A60B9A07A68B9E07A70B9207B78B9D3
:10506000607B98BBA07BA0BB02F03AFFA2E602F0F7
:105070000BFEEFE702F008FEEEE702F005FEEDE7BB
:1050800002F002FEECE700BF240F0020280F0020F2
:105090001D090020B0AF0008C8AF000838B00008F4
:1050A000E2090020E4090020CDCC4C3E2409002078
:1050B0002809002000007F43200900202309002048
:1050C00000007F4348B0000850B0000802F0DCFD4B
:1050D000C8E702F0D9FDC7E708B501220B490C4823
:1050E00000F09CFB48B90B49094800F0C3FB38B9F4
:1050F000074800F095FC30B908BDFBF7A1FDF2E7C9
:10510000FBF79EFDF4E7FBF79BFDF5E7614D00081B
:105110004C0B00200C00002008B5024800F08AFC6F
:1051200008BD00BF4C0B002010B588B000230393CE
:1051300004930593069307930368B3F1A04F01D03E
:1051400008B010BD244CE36C43F00103E364E36C4E
:1051500003F001030093009B4FF40073039303A932
:105160004FF09040FEF7B0F94FF4C0530393022381
:10517000049300230593032306930A23079303A9AB
:105180004FF09040FEF7A0F9E36C43F48053E364E2
:10519000E36C03F480530193019BA36D13F0805FD4
:1051A00017D1A36D43F08053A365A36D03F0805323
:1051B0000293029BFEF74CFCA36D23F08053A36582
:1051C000002211464320FEF75DFC4320FEF78EFCD3
:1051D000B6E7FEF73DFCF3E70010024008B5D0F853
:1051E000000300F0FCFD08BD08B5D0F8000300F096
:1051F00007FE08BD08B5D0F8000300F00BFE08BD9F
:10520000704708B5D0F8000300F0F2FD08BD08B5FE
:10521000D0F8000300F0F0FD08BD000090F8CC339A
:10522000012B01D00020704710B504460F48C0F88C
:105230000043C4F8D0034FF0A04303600823836009
:105240000123C3600023036102228261C361FCF772
:105250002FF840B90548FCF7F4FC0146204600F061
:10526000BBFD002010BDFBF7EBFCF3E72C0F00208B
:1052700008B5D0F8D003FCF7E9FC012804D028B128
:10528000022805D0012008BD0120FCE70020FAE734
:105290000220F8E708B5D0F8D003FCF7CDFC08BD34
:1052A00008B5D0F8D003FCF7C1FC08BD08B590F8EC
:1052B000CC33012B04D0C820FDF78EF8002008BDA8
:1052C000084600F06EF8F6E7D0F8D0032C2303FB75
:1052D000010393F83B3033B12C2303FB010181F828
:1052E0005420002070472C2303FB010181F8552036
:1052F000F7E708B5FDF770F808BD022807D8DFE822
:1053000000F00206040000207047012070470220D0
:10531000704708B5D0F8D003FCF75CFCFFF7EDFF51
:1053200008BD08B5D0F8D003FCF769FCFFF7E5FF2E
:1053300008BD08B5D0F8D003FCF773FCFFF7DDFF1C
:1053400008BD10B584B0D0F8D003BDF82040029459
:105350009DF81C4001949DF818400094FBF74FFF06
:10536000FFF7CBFF04B010BD08B5D0F8D003FBF7B2
:105370008DFFFFF7C2FF08BD10B584B0D0F8D00391
:105380009DF824400394BDF820400294079C0194AA
:105390009DF818400094FBF7D5FFFFF7AEFF04B06F
:1053A00010BD08B538B901224FF480614FF090402C
:1053B000FEF774F908BD0022F6E7002306E003F1CA
:1053C000E00200EB82020021516001330E2BF6D97E
:1053D0000023B3F5007F05D2C218002182F81C110A
:1053E0000133F6E700230370437001228270C0F896
:1053F000C433027640218171437680F81C3380F8F3
:105400001D2380F81F3380F81E331846704708B5F7
:105410000378DBB20B2B00D008BDD0F87C33002B17
:10542000FAD09B699847F7E770B584B00446437893
:10543000072B00F2ED81DFE813F008005A009E0010
:10544000E7001B0150017D01AA01082100F008FFBF
:1054500028B1032824D00124204604B070BD94F85C
:105460002D33A3710125657002930026019694F8EF
:105470001D33009394F81C3380222179204600F0DC
:10548000D8FFA3790293019694F81D33009394F802
:105490001C3332466179204600F0CBFF2C46DBE717
:1054A000C24803F06BFCC24803F068FC0A2003F01A
:1054B0007DFC94F81E330133DBB284F81E33032BDA
:1054C00009D9BC4803F05AFC0A2003F06FFC0D23F5
:1054D00023700124C0E76179204600F0D2FF2179D2
:1054E000204600F0CEFF002323700124B4E71221F0
:1054F00000F0B6FE18B1032815D00124ACE7B4F8CB
:105500003013AD4803F03AFC0A2003F04FFCB4F826
:105510002E13AA4803F032FC0A2003F047FC0223B2
:105520006370012498E7A14803F028FCA44803F025
:1055300025FC0A2003F03AFC94F81E330133DBB259
:1055400084F81E33032B09D99A4803F017FC0A206C
:1055500003F02CFC0D23237001247DE761792046A4
:1055600000F08FFF2179204600F08BFF002363704D
:105570002370012470E7012100F0BCFE18B103285C
:105580002DD0012468E70220FFF7B3FE012584F83F
:105590001C5329468B4803F0F1FB0A2003F006FC5C
:1055A00003236370A37902930026019694F81D33B8
:1055B000009394F81C3380222179204600F039FFB3
:1055C000A3790293019694F81D33009394F81C3349
:1055D00032466179204600F02CFF2C463CE77348A8
:1055E00003F0CCFB784803F0C9FB0A2003F0DEFB94
:1055F000704803F0C3FB0A2003F0D8FB0D2323708F
:1056000000236370012427E7092100F042FE18B946
:105610000423637001241FE7032801D001241BE742
:10562000624803F0ABFB694803F0A8FB0A2003F0D3
:10563000BDFB94F81E330133DBB284F81E33032B19
:1056400009D95C4803F09AFB0A2003F0AFFB0D2355
:105650002370012400E76179204600F012FF2179D0
:10566000204600F00EFF0023637023700124F3E650
:10567000B0F83A1300F00DFE18B905236370012449
:10568000EAE6032801D00124E6E6484803F076FB69
:105690004E4803F073FB0A2003F088FB94F81E3396
:1056A0000133DBB284F81E33032B09D9414803F0E0
:1056B00065FB0A2003F07AFB0D2323700124CBE65F
:1056C0006179204600F0DDFE2179204600F0D9FE08
:1056D0000023637023700124BEE690F83413F9B1FF
:1056E00000F58E75FF232A4600F0ECFD18B1032863
:1056F0000CD00124B0E62946354803F03FFB0A20D0
:1057000003F054FB062363700124A5E6314803F03F
:1057100035FB0A2003F04AFB0623637001249BE655
:105720002C4803F02BFB0A2003F040FB0623637098
:10573000012491E690F83513F9B100F58E75FF2339
:105740002A4600F0BFFD18B103280CD0012483E6DF
:105750002946214803F012FB0A2003F027FB072308
:105760006370012478E61D4803F008FB0A2003F06B
:105770001DFB0723637001246EE6184803F0FEFA50
:105780000A2003F013FB07236370012464E690F8FA
:105790003613A9B300F58E75FF232A4600F092FD5B
:1057A0000446E8B1032823D0012455E6E8B00008F8
:1057B000F0B0000824B1000864B1000870B100081E
:1057C0007CB10008B8B10008D0B1000804B20008EC
:1057D00048B200085CB2000870B2000880B200084D
:1057E00029460C4803F0CAFA0A2003F0DFFA33E630
:1057F000094803F0C3FA0A2003F0D8FA00242BE684
:10580000054803F0BBFA0A2003F0D0FA002423E68F
:10581000012421E690B20008A4B2000870B5D0B10E
:105820000E46044680F8CC230025C0F87C53C0F80F
:105830008053FFF7C2FD84F8235384F8205384F883
:10584000215384F822530EB1C4F8D4632046FFF7E5
:10585000E5FC002070BD054803F090FA044803F011
:105860008DFA0A2003F0A2FA0220F3E7E8B000085C
:10587000B8B2000808B5B1B10A46D0F880333BB9D8
:10588000591CC0F88013DE3340F82320002008BDE7
:105890000A4803F073FA0A4803F070FA0A2003F08A
:1058A00085FA0220F3E7054803F068FA054803F09B
:1058B00065FA0A2003F07AFA0220E8E7E8B0000867
:1058C00090B40008ACB4000838B590F83C338B4273
:1058D00026D905460C4685F82413174803F04EFADE
:1058E0000A2003F063FA1A2303FB045494F84713C5
:1058F000124803F043FA0A2003F058FA94F84813C8
:105900000F4803F03BFA0A2003F050FA94F84913C9
:105910000C4803F033FA0A2003F048FA002038BD9F
:10592000094803F02BFA094803F028FA0A2003F08B
:105930003DFA0220F3E700BFC4B40008E4B4000855
:10594000F4B4000804B50008E8B0000814B5000875
:105950002DE9F0470746884691469A462A4803F0C3
:105960000DFA0A2003F022FA4946284803F006FA05
:105970000A2003F01BFA5146254803F0FFF90A20DC
:1059800003F014FA00240BE01A2303FB067696F8C2
:105990004933534535D0BAF1FF0F32D00134E4B268
:1059A000012C2DD826461A2505FB047595F84713BA
:1059B000184803F0E3F90A2003F0F8F995F84813C2
:1059C000154803F0DBF90A2003F0F0F995F84913C4
:1059D000124803F0D3F90A2003F0E8F995F84733A9
:1059E000434502D0B8F1FF0FD8D11A2303FB067349
:1059F00093F848334B45C7D0B9F1FF0FCED1C3E779
:105A0000FF242046BDE8F0877CB0000890B0000875
:105A1000A4B00008B8B00008C8B00008D8B00008AA
:105A200010B50446FFF775FC01212046FFF73EFC48
:105A3000002010BD70B586B0044602238DF81730E3
:105A400090F82133DBB2012B12D02378DBB20B2B81
:105A500000F28E80DFE813F00F002700570073017B
:105A60008C008F003E01B100BB00CB00E2006A0158
:105A700003230370E9E794F82033002B78D0C5485E
:105A800003F07CF90A2003F091F901232370C82068
:105A9000FFF72FFC2046FFF74CFC002384F81C3353
:105AA000C4F8C83364E094F82333012B0FD0D4F842
:105AB000C833B3F57A7F1FD994F81F330133DBB2B3
:105AC00084F81F33032B0ED80023237050E0B24814
:105AD00003F054F90A2003F069F9002384F81F3316
:105AE0000223237044E0AD4803F048F90A2003F094
:105AF0005DF90D2323703BE00A33C4F8C8330A2054
:105B0000FFF7F7FB34E0D4F8D43313B10421204677
:105B100098476420FFF7EDFB2046FFF7A9FB84F8C8
:105B20001D03052323700021204600F097FC6071BF
:105B30008021204600F092FC01462071A379029357
:105B40000025019594F81D33009394F81C338022AE
:105B5000204600F06EFCA3790293019594F81D3362
:105B6000009394F81C332A466179204600F061FCCA
:105B7000002006B070BD2046FFF756FC8DF81700D8
:105B80009DF81730002BF3D1854803F0F7F80A2071
:105B900003F00CF9002384F8243394F83733012BF5
:105BA00002D007232370E3E77E4803F0E7F80A20DA
:105BB00003F0FCF808232370DAE7D4F8D433002B81
:105BC000D6D001212046984708232370D0E794F8C7
:105BD0003D13204600F09FFB0028C9D10923237004
:105BE000714803F0CBF80A2003F0E0F8C0E794F81E
:105BF0003F3313F0200F02D10A232370B8E70121AD
:105C0000204600F099FB0028B2D1684803F0B6F8AE
:105C10000A2003F0CBF80A232370A9E7D4F88033D5
:105C200033B9634803F0AAF80A2003F0BFF89FE7EE
:105C30000025C4F87C5394F847135E4803F09EF89F
:105C40000A2003F0B3F8C5B1D4F87C33002B38D068
:105C50009B682046984740BB06232370D4F87C33CA
:105C60001968554803F08AF80A2003F09FF8D4F821
:105C7000D4330321204698477AE705F1DE0654F82D
:105C8000263019794D4803F079F80A2003F08EF890
:105C900054F82630197994F84723914202D00135FF
:105CA000EDB2D0E7C4F87C33CEE70D232370D4F8EF
:105CB0007C331968424803F061F80A2003F076F853
:105CC00056E70D2323703F4803F058F80A2003F0ED
:105CD0006DF84DE7D4F87C33E3B11B692046984753
:105CE0008DF817009DF8173013B90B2323703FE789
:105CF0009DF81730DBB2022B7FF43AAF0D232370EF
:105D0000314803F03BF8314803F038F80A2003F03B
:105D10004DF82DE70D2323702B4803F02FF82C4866
:105D200003F02CF80A2003F041F821E7D4F87C3383
:105D3000002B3FF41DAF5B692046984718E700230E
:105D400084F821332046FFF738FBD4F87C332BB19D
:105D5000DB68204698470023C4F87C33D4F8D4335A
:105D600013B10521204698471A4803F007F80A2086
:105D700003F01CF894F82233DBB2012B03D0204649
:105D8000FFF7C7FAF4E6002384F822332046FFF732
:105D900047FEEDE6CCB20008E4B2000800B300080C
:105DA0002CB3000840B3000868B3000884B30008AF
:105DB000A4B30008C4B30008DCB30008D0B30008E3
:105DC000F0B3000810B40008E8B0000838B40008C8
:105DD00060B4000878B40008C0F8C413704708B570
:105DE000D0F8C4330133C0F8C433FFF710FB08BD4B
:105DF000012380F823337047002380F82333704752
:105E0000012380F82033002380F8213380F82233E7
:105E10001846704738B50446012380F82133002521
:105E200080F8205380F82353FFF77BFA217920462E
:105E300000F027FB6179204600F023FB284638BD9F
:105E400010B40B7803704B7843708B78CC7843EAAE
:105E5000042343800B7903714B7943718B798371F0
:105E6000CB79C371082A16D90B7A4A7A43EA0223FE
:105E700003818B7ACA7A43EA022343810B7B4A7BF4
:105E800043EA022383818B7B8373CB7BC3730B7CBD
:105E900003744B7C43745DF8044B70470B780370BC
:105EA0004B7843708B788370CB78C3700B79037118
:105EB0004B7943718B798371CB79C3710B7A037200
:105EC00070470B7803704B7843708B788370CB7876
:105ED000C3700B794A7943EA022383808B798371FB
:105EE00070474378032B00D0704710B40478023C0D
:105EF000A24228BF224694B20023A34206D2C2186F
:105F0000927801F8012B02339BB2F6E700230B7065
:105F10005DF8044B7047000030B583B00446037E43
:105F2000013B0A2B00F2EA80DFE803F0061037435A
:105F30005664808C9FADC400427900F1100100F0DE
:105F40001EFA02232376012003B030BD4179FFF70A
:105F5000A7F9012805D004281BD0022819D0012058
:105F6000F2E7237CE28A4AB113F0800F03D10523C4
:105F700023760120E8E703232376E5E713F0800F7B
:105F800003D1072323760120DEE7092323760120AE
:105F9000DAE70B2323760120D6E7D0F8C433C38198
:105FA00003798289816800F011FA042323760120A5
:105FB000CAE70179FFF774F9012806D0052800F037
:105FC0009F80042804D00120BEE709232376F5E74B
:105FD0000B2323760120B7E70125009543798289B9
:105FE000816800F0DDF9D4F8C433E3810623237619
:105FF0002846A9E74179FFF753F9012807D005287A
:1060000008D002280AD004280CD001209CE70723DE
:10601000237699E70C232376032095E7052323763F
:10602000012091E70B23237602208DE703790022DC
:10603000114600F0CBF9D4F8C433E381082323766A
:10604000012081E70179FFF72BF9012805D0042809
:1060500007D0052856D0012076E70D2323760020AF
:1060600072E70B23237601206EE701250095437923
:106070000022114600F094F9D4F8C433E3810A23D6
:106080002376284660E74179FFF70AF9012805D011
:10609000022807D0042809D0012055E70D232376D4
:1060A000002051E70923237601204DE70B232376B7
:1060B000012049E7437E0133DBB24376022B03D84C
:1060C00001202076A0703FE7D0F8D433062198470E
:1060D000002565760C4802F051FE0C4802F04EFE99
:1060E0000A2002F063FE6179204600F0CAF92179A6
:1060F000204600F0C6F92570022025E7012023E79D
:10610000032021E703201FE7E8B0000834B50008AA
:1061100003780A8813440B800378184470472DE9EC
:10612000F04182B00C460B7803704B7843708B784B
:10613000C97843EA0123438023790371637943716A
:10614000A3798371E379C371237A0372092A44D94D
:1061500005460923ADF806300026012E3DD86A8891
:10616000BDF806309A4238D90DF106012046FFF7F6
:10617000CFFF04464378042BEFD1B0461A2000FB32
:1061800006F00830284421460230FFF787FE00273A
:106190001A2303FB08539B7BBB421BD96A88BDF8BB
:1061A00006309A4216D90DF106012046FFF7B0FFDE
:1061B00004464378052BEBD101371A2000FB08F089
:1061C00000EBC7000830284421460430FFF779FE71
:1061D000FFB2DDE70136F6B2BFE702B0BDE8F081FD
:1061E0008378012B04D0022B09D001231846704775
:1061F000816082810123037602228270F6E710B566
:106200000446FFF789FE034630B1032804D0022874
:1062100006D10122A27003E00122A27000222276A0
:10622000184610BD38B5BDF810508478012C04D044
:106230002A461946FFF7D4FF38BD61F07F04047485
:1062400006214174428202F47F44B4F5407F03D0BA
:1062500000228282C582EBE740F209428282F9E79E
:10626000F0B583B0044600F58E750E4600912B46BE
:106270004FF480720021FFF7D5FF074610B1384672
:1062800003B0F0BD3246294604F22630FFF7D8FDB0
:10629000F5E7F0B583B004460E4600F11C05009109
:1062A0002B464FF400720021FFF7BCFF074610B1E8
:1062B000384603B0F0BD3246294604F54E70FFF76C
:1062C0002EFFF5E7F0B583B017461D4600F58E7436
:1062D0000093234641F440720021FFF7A3FF0646D6
:1062E00010B1304603B0F0BD2A4639462046FFF7CC
:1062F000F8FDF6E708B58378012B04D0002211469B
:10630000FFF76EFF08BD002303740522427441822B
:106310008382C382F2E708B58378012B04D0002280
:106320001146FFF75DFF08BD002303740922427484
:1063300041828382C382F2E708B58378012B04D0BF
:1063400000221146FFF74CFF08BD0023037403220F
:10635000427441828382C382F2E708B58378012BBD
:1063600004D000221146FFF73BFF08BD022303744F
:1063700001234374002343828182C382F1E730B555
:1063800085B01546002403940823029301910094DC
:10639000234622462946FEF7EFFF204605B030BDD2
:1063A00030B585B00C4619469DF8203090F81D5345
:1063B00005B100230393029201940123009300236B
:1063C0001A46FEF7D9FF002005B030BD30B585B0C4
:1063D0001D4600240394029201910122009223465B
:1063E0002946FEF7C9FF204605B030BD30B585B05F
:1063F0001D4600240394029201910122009203237E
:106400002946FEF7B9FF204605B030BD00230A2B10
:106410000CD803F1E00200EB8202526812F4004F44
:1064200002D00133DBB2F2E798B270474FF6FF704B
:10643000704710B584B0BDF8204002949DF81C4010
:1064400001949DF818400094FEF77BFF002004B0F3
:1064500010BD08B5FEF788FF002008BD38B504461A
:106460000D46FFF7D3FF4FF6FF73984207D000F0B9
:106470000F0345F40045E03304EB83035D60C0B2D5
:1064800038BD0A2906D8E03100EB81014B68C3F31F
:106490000E034B6000207047D0F87C33DB699A789C
:1064A000062A01D000207047D0F8C423196A521A76
:1064B000998B8A42F6D304229A70F3E730B583B001
:1064C0008C78CB7844EA0324092C23D90546084666
:1064D0000923ADF80630BDF80630A3421AD20DF1FB
:1064E0000601FFF715FE4378212BF4D103782B70BA
:1064F00043786B708378C27843EA02236B80037918
:106500002B7143796B718379AB71C379027A43EA5A
:1065100002232B8103B030BD38B50446D0F87C335C
:10652000DD69697869B92978A1B9D4F87C33D8696B
:1065300028B101F023FFD4F87C330022DA61002077
:1065400038BDFFF786FF69782046FFF79AFF0023E2
:106550006B70E8E72046FFF77CFF29782046FFF7BD
:1065600090FF00232B70E0E72DE9F04385B004464F
:10657000734802F003FC734802F09AFC0A2002F010
:1065800015FCD4F87C13FF23012209792046FFF77C
:10659000DFF9064601280AD9D4F87C13FF2300222C
:1065A00009792046FFF7D4F9064601284AD8314632
:1065B0002046FFF789F98046002840F0BA80D4F8D9
:1065C0007C53342001F0D2FEE861D4F87C33DD69DD
:1065D000002D46D034220021284601F0D7FE0723A3
:1065E000AB70B1461A2303FB064696F84933012BDC
:1065F00043D0022B4AD0002B51D1534802F0BEFBAE
:106600000A2002F0D3FB514B2B630023AB706B715C
:106610001A2303FB094393F84E23AA76B3F85023B9
:106620002A8393F85233AB83092B01D80A23AB8317
:106630001A2303FB094393F84673022F28BF02274E
:1066400000264FE03E4802F099FBD4F87C331968ED
:106650003F4802F093FB0A2002F0A8FB4FF002082B
:1066600069E0374802F08AFB3A4802F087FB0A20CB
:1066700002F09CFB4FF002085DE0374802F07EFB21
:106680000A2002F093FB314B2B63BEE7334802F044
:1066900075FB0A2002F08AFB314B2B63B5E73148CA
:1066A00002F06CFB0A2002F081FB4FF0020842E08E
:1066B00029712046FFF7D2FE014668702A792B8B9C
:1066C00002930323019394F81D33009394F81C3331
:1066D0002046FFF7AEFE002269782046FEF7F4FD63
:1066E0000136F6B2BE4226D2731C1A2202FB09F210
:1066F00002EBC303234493F8461311F0800FD7D164
:10670000E9702046FFF7AAFE01462870EA782B8B35
:1067100002930323019394F81D33009394F81C33E0
:106720002046FFF786FE002229782046FEF7CCFDA2
:10673000D6E74FF00208404605B0BDE8F08300BF41
:10674000D4B50008E0B5000874B60008716B000805
:10675000F8B5000820B6000848B6000860B6000882
:106760006D6C00088CB6000800B583B0009100F590
:106770008E734FF408520121FFF754FD03B05DF80A
:1067800004FB10B5212404740A24447442EA012253
:10679000428200218182C1820A46FFF721FD10BD9D
:1067A00038B5A12505740125457442EA01224282CB
:1067B000002282829DF81020C2821946FFF710FD48
:1067C00038BD08B5212303740B23437441B1002362
:1067D000438200218182C1820A46FFF701FD08BD84
:1067E00001234382F5E7000070B50446D0F87C33FE
:1067F000DD696B79052B53D8DFE803F003520E03F4
:10680000253600F11C0105F12600FFF757FE022393
:106810006B710126304670BDE98DFFF7A5FF18B9F1
:1068200004236B710126F5E7032801D00126F1E767
:106830001C4802F0A3FA1C4802F0A0FA0A2002F059
:10684000B5FA0226E6E700221146FFF79AFF18B9CB
:1068500005236B710126DDE7032801D00126D9E766
:1068600005236B710126D5E70021FFF7AAFF064635
:1068700038B901236B71D4F8D433022120469847EC
:10688000C8E7032801D00126C4E7064802F076FADB
:10689000064802F073FA0A2002F088FA0226B9E7E5
:1068A0000126B7E7E8B000085CB500089CB5000811
:1068B0000378DBB20B2B01D0FF20704790F8243314
:1068C0001A2202FB030090F84933012B04D0022B5B
:1068D00004D02BB1FF207047022070470120704781
:1068E0000320704700238380C3808372028101608C
:1068F00070470346807A20BB0120987200209042A6
:106900001FD230B406E000229A7218E0013080B243
:10691000904211D2DC889D88AC42F4D01D682C5D79
:1069200001F8014BDC880134A4B2DC801D89AC4243
:10693000ECD10024DC80E9E700219972104630BCDC
:10694000704700219972104670470346807A48BB11
:10695000012098720020904224D2F0B407E076B96A
:1069600000229A721CE0013080B2904215D29D88BC
:106970006C1CDE88B442F3D01F89BC42EFD01C6887
:1069800011F8016B66559C880134A4B29C801D8966
:10699000AC42E8D100249C80E5E7002199721046C2
:1069A000F0BC7047002199721046704730B583B033
:1069B0000546D0F87C33DC69A378062B6DD8DFE878
:1069C00003F0040C6C6C30273E00236B98470123C6
:1069D000A3700023184603B030BD6369227E009285
:1069E00000220121FFF7DCFE034610B90522A27048
:1069F000F0E7012805D0032806D00723A37002235F
:106A0000E8E7A0700023E5E70523A3700023E1E792
:106A1000D0F8C43313F0010F41D00423A370002336
:106A2000D8E76378227E6169FFF7E0FC0623A37054
:106A3000D5F8C4332362002384F82430CAE7617890
:106A4000FEF72EFC012807D061782846FEF728FCC7
:106A5000052819D00023BDE761782846FEF71AFC07
:106A600094F82430EBB908B90023B3E7228B6169AD
:106A700004F10800FFF769FF012384F82430284659
:106A8000FEF784F90023A5E7A17E2846FFF765FC01
:106A9000034640B90422A2709CE700239AE7002332
:106AA00098E7002396E7002394E7000010B5D0F89C
:106AB0007C33DC69228B002A41D0224904F1080092
:106AC000FFF717FF238B984201D0022010BD002151
:106AD0001D4800F079F91D4C607000211C4800F041
:106AE00073F9A07000211B4800F06EF9E0700021DE
:106AF000194800F069F920710021184800F064F984
:106B000060710021164800F05FF9A071002115485E
:106B100000F05AF9E0710021134800F055F9207295
:106B20000024052C09D82146104800F04DF9074BE8
:106B3000234458720134E4B2F3E70020C6E7022090
:106B4000C4E700BF30120020E8B600084012002061
:106B500028B70008C8B6000808B7000868B70008DA
:106B6000A8B7000848B7000888B70008A8B600080A
:106B700038B5D0F87C33DC69124A00239370537027
:106B80001371D370937153711372D37107E00022A4
:106B90000D4D45F823200D4D45F823200133012BE1
:106BA000F5D9238B082B01D908232383074B636175
:106BB000502200F58E7104F10800FFF793FE0020CB
:106BC00038BD00BF401200203012002038120020D3
:106BD00008B5FFF76BFF08B9014808BD0020FCE7C6
:106BE0004012002010B5D0F87C33DC69228B52B300
:106BF000164904F10800FFF77CFE238B984201D070
:106C0000022010BD0021124800F0DEF8114C207067
:106C10000021114800F0D8F8607000210F4800F002
:106C2000D3F8A07000210E4800F0CEF8E0700021EB
:106C30000C4800F0C9F8207100210B4800F0C4F89E
:106C400060710020DDE70220DBE700BF5812002062
:106C500048B800085012002068B8000828B800089A
:106C6000C8B70008E8B7000808B8000838B5D0F879
:106C70007C33DC69104A002313705370D370137196
:106C8000537107E000220D4D45F823200C4D45F8C7
:106C900023200133012BF5D9238B082B01D908239D
:106CA0002383074B6361502200F58E7104F10800C5
:106CB000FFF718FE002038BD5012002058120020A7
:106CC0006012002008B5FFF78DFF08B9014808BD24
:106CD0000020FCE75012002010B5D0F87C33DC69AE
:106CE000228B002A60D0314904F10800FFF701FE31
:106CF000238B984201D0022010BD2C4A13682C49E6
:106D00000B6053684B601179D2787E2904D82848EB
:106D1000012404720024447211F0800F2ED17F29C7
:106D200032D07E2A04D82249012088720020C872FD
:106D300012F0800F2DD17F2A31D0C3F300311C4ACD
:106D40001173C3F340315173C3F380319173C3F3B3
:106D5000C031D173C3F300411174C3F34041517486
:106D6000C3F380419174C3F3C041D174C3F30051A4
:106D70001175C3F3405353750020BDE70C48002440
:106D8000047201244472CAE709490020087248725B
:106D9000C7E70749002088720120C872CBE7044A80
:106DA00000219172D172C8E70220A5E76812002085
:106DB000A412002008B5FFF78FFF08B9014808BDED
:106DC0000020FCE7A412002070B40568067A437A1C
:106DD00043B18B423CD9426802FB016205EBD2050C
:106DE00002F0070600231A4606E0CC08A3420AD2A6
:106DF0002A78D9008A400133416811F0070FF4D096
:106E0000CC080134F2E7F240012303FA01F44FF019
:106E1000FF338B4022EA0302C36893421AD8036906
:106E200093421BD3837A6BB10139012303FA01F139
:106E3000114207D063421A43C369012B0BD003FBF5
:106E400002F208E0C369012B05D003FB02F202E065
:106E5000002200E00022104670BC70470022FAE7D2
:106E6000084B834200D0704710B5074C2088C0F310
:106E7000870001F01DFA01222146024800F05AFC69
:106E800010BD00BF28130020E009002008B51048FD
:106E9000104B03604FF482734360002383604FF410
:106EA000E062C260036143614FF480228261C3618A
:106EB0000362436283620722C2620363082343635F
:106EC00000F05BFA00B908BDF9F7BAFEFBE700BFB6
:106ED0008C1300200030014008B51048104B0360AF
:106EE0004FF482734360002383604FF4E062C2601A
:106EF000036143614FF480228261C3610362436294
:106F000083620722C26203630823436300F035FAF9
:106F100000B908BDF9F794FEFBE700BFC4120020DA
:106F20000038004008B50F480F4B03600023436052
:106F30004FF4806282604FF42062C260036143615B
:106F40004FF40072826180220262436283620722F0
:106F5000C2620363436300F010FA00B908BDF9F799
:106F60006FFEFBE728130020003C004010B58CB0FA
:106F700000230793089309930A930B9303684B4AE2
:106F8000934208D004464A4A934225D0494A934244
:106F900063D00CB010BD484B1A6E42F480521A6692
:106FA0001A6E02F480520192019ADA6C42F00102E8
:106FB000DA64DB6C03F001030293029BF023079376
:106FC0000223089303230A9305230B9307A94FF089
:106FD0009040FCF779FADCE7374B9A6D42F4804237
:106FE0009A659A6D02F480420392039ADA6C42F039
:106FF0000202DA64DB6C03F002030493049B4FF497
:10700000144307930223089303230A9305230B9346
:1070100007A92A48FCF758FA29482A4B036001239C
:107020004360102383600023C360802202614361B8
:107030008361C3610362FCF757FB58B9204B63655A
:107040009C62002211462420FCF71CFD2420FCF742
:107050004DFD9EE7F9F7F4FDF0E7174B9A6D42F40A
:1070600000429A659A6D02F400420592059ADA6C24
:1070700042F00202DA64DB6C03F002030693069B23
:10708000282307930223089303230A9306230B93D1
:1070900007A90A48FCF718FA002211463320FCF72A
:1070A000F1FC3320FCF722FD73E700BF0030014004
:1070B00000380040003C004000100240000400483E
:1070C000F0130020580002402DE9F04383B004463D
:1070D0000F4616461D46FBF779F90A9B181A00EB76
:1070E0000508FBF773F981462A4B1B68C3F3CB33C2
:1070F00008FB03F3019323689B6837EA03030CBF83
:1071000001230023B34240D0B5F1FF3FF3D0FBF79A
:107110005DF9A0EB090040450AD2B8F1000F07D095
:10712000019B0BB94FF00008019B013B0193E2E783
:107130002268536823F0E00353606368B3F5827FED
:107140000BD0A36AB3F5005F14D0012384F85D303F
:10715000002384F85C30032018E0A368B3F5004FE7
:1071600002D0B3F5806FECD12268136823F040039E
:107170001360E6E72268136823F400531360226863
:10718000136843F400531360DFE7002003B0BDE849
:10719000F08300BF080000202DE9F04782B00646CA
:1071A0000C4615461F4600238DF80330FBF70EF9F9
:1071B0000A9B181A00EB0708FBF708F98246D6F875
:1071C0000090314B1B6803EB8303C3EBC3031B0D20
:1071D00008FB03F3019302E0B7F1FF3F11D13368DD
:1071E0009B682340AB424AD0B4F5C06FF4D1002D68
:1071F000F2D199F80C30DBB28DF803309DF80330F2
:10720000EAE7FBF7E3F8A0EB0A0040450AD2B8F141
:10721000000F07D0019B0BB94FF00008019B013B09
:107220000193DCE73268536823F0E003536073682E
:10723000B3F5827F0BD0B36AB3F5005F14D001239E
:1072400086F85D30002386F85C30032018E0B368D0
:10725000B3F5004F02D0B3F5806FECD132681368FC
:1072600023F040031360E6E73268136823F4005309
:1072700013603268136843F400531360DFE70020A3
:1072800002B0BDE8F08700BF0800002070B582B0F2
:1072900004460D46164600920B4600224FF4C0519C
:1072A000FFF77AFFB8B900962B46002280212046CE
:1072B000FFF70AFFB8B900962B4600224FF4C061D1
:1072C0002046FFF769FF034650B1236E43F02003C9
:1072D0002366032304E0236E43F020032366032385
:1072E000184602B070BD236E43F0200323660323CB
:1072F000F6E770B582B004460D4616464368B3F50E
:10730000827F0FD000962B46002280212046FFF777
:10731000DBFE034698B96268B2F5827F15D0184645
:1073200002B070BD8368B3F5004F02D0B3F5806F33
:10733000E8D12268136823F040031360E2E7236E6C
:1073400043F0200323660323E9E7A268B2F5004F68
:1073500002D0B2F5806FE2D100962B4600224FF4A6
:10736000C0612046FFF718FF03460028D7D0236EE0
:1073700043F0200323660323D1E700286AD010B529
:107380000446436A33B94368B3F5827F05D00023CE
:10739000C36102E00023036143610023A36294F808
:1073A0005D30002B4DD0022384F85D3022681368D5
:1073B00023F040031360E368B3F5E06F47D9002280
:1073C000B3F5706F04D0B3F5E06F01D00023A36272
:1073D000636803F48273A16801F404410B432169DB
:1073E00001F002010B43616901F001010B43A16946
:1073F00001F400710B43E16901F038010B43216A8C
:1074000001F080010B43A16A01F4005120680B4395
:107410000360638B03F00403616A01F010010B4306
:10742000616B01F008010B43E16801F470610B43EB
:10743000216813434B6000202066012384F85D30EF
:1074400010BD84F85C302046FFF790FDABE74FF4A9
:107450008052B5E7012070472DE9F04182B090F8E5
:107460005C40012C00F0EC801D461746884604461F
:10747000012380F85C30FAF7A9FF064694F85D30E6
:10748000DBB2012B40F0C480B8F1000F00F0CA80DD
:10749000002F00F0C980032384F85D3000232366A9
:1074A000C4F83880A787E7872364A4F84430A4F899
:1074B00046302365E364A368B3F5004F1CD023680E
:1074C0001A6812F0400F03D11A6842F040021A60A5
:1074D000E368B3F5E06F3AD963680BB1012F22D1AD
:1074E000A26B23681288DA60A36B0233A363E38F75
:1074F000013B9BB2E38716E02268136823F0400348
:1075000013602268136843F480431360D7E7FAF7E7
:107510005DFF801BA84203D3B5F1FF3F40F086809A
:10752000002D00F08580E28F92B2002A5BD02368A4
:107530009A6812F0020FEAD0A26B1288DA60A36B8D
:107540000233A363E28F013A92B2E287EBE763680A
:107550000BB1012F30D1E38F9BB2012B0BD9A26B62
:1075600023681288DA60A36B0233A363E38F023BC4
:107570009BB2E38720E0A26B236812781A73A36B97
:107580000133A363E38F013B9BB2E38714E0A36B5A
:107590001B781373A36B0133A363E38F013B9BB28F
:1075A000E38709E0FAF712FF801BA84202D3B5F186
:1075B000FF3F3FD1002D3FD0E28F92B29AB12268B7
:1075C000936813F0020FEDD0E38F9BB2012BDED94D
:1075D000A36B1B88D360A36B0233A363E38F023BCF
:1075E0009BB2E387E8E7324629462046FFF74EFE86
:1075F00008B120232366A36833B901932368DA68AE
:1076000001929B680193019B236EBBB9002000E0AF
:107610000220012384F85D30002384F85C3002B03E
:10762000BDE8F0810120F4E70120F2E70320F0E754
:107630000320EEE70320ECE70320EAE70120E8E778
:107640000220ECE730B490F85C40012C68D00124B3
:1076500080F85C4090F85D40E4B24568012C07D0AA
:10766000B5F5827F49D18568002D4DD1042C4DD1CF
:1076700000294DD0002A4DD0002B4DD090F85D4010
:10768000E4B2042C02D0052480F85D400024046696
:1076900081638387C3870264A0F84430A0F8463032
:1076A000C268B2F5E06F1DD91E49C1641E4901656B
:1076B000B2F5E06F01D8012B19D90268536823F4A1
:1076C000805353600268536843F0E00353600368DB
:1076D0001A6812F0400F21D11A6842F040021A6075
:1076E00000230BE01149C16411490165E0E702681C
:1076F000536843F480535360E4E70223002280F888
:107700005C20184630BC70470223F7E70223F5E7F8
:107710000123F3E70123F1E70123EFE70023EDE77E
:107720000223EEE7197A0008E17900086B79000876
:107730001379000810B50446806818B96368B3F57A
:10774000827F3CD094F85C30012B5FD0012384F819
:107750005C3094F85D00C0B298424CD100294FD003
:10776000002A4FD0042384F85D300023236621646F
:10777000A4F84420A4F84620A363A387E3872365E5
:10778000E368B3F5E06F23D92268536823F480538C
:1077900053601F4BE364A368B3F5004F20D0226809
:1077A000536843F06003536023681A6812F0400F77
:1077B0002AD11A6842F040021A6000201CE01346E9
:1077C0002046042284F85D200A46FFF73BFF16E0BE
:1077D0002268536843F4805353600E4BE364DAE746
:1077E0002268136823F0400313602268136823F4AF
:1077F00080431360D3E70220002384F85C3010BD7F
:107800000120F9E70120F7E70020F5E70220F6E77D
:10781000897800085D7800087047704710B5044605
:107820000268536823F060035360FAF7CFFD024605
:1078300064212046FFF75DFD18B1236E43F020035D
:107840002366012384F85D30236E1BB92046FFF7C1
:1078500007FB10BD2046FFF7E0FFFAE708B5026816
:10786000036C127B1A70036C01330364B0F846306A
:10787000013B9BB2A0F84630B0F846309BB203B152
:1078800008BDFFF7CBFFFBE708B50368DA68036CB8
:107890001A80036C02330364B0F84630013B9BB29C
:1078A000A0F84630B0F846309BB203B108BDFFF7F0
:1078B000B5FFFBE710B50446FAF788FD2268536868
:1078C00023F020035360024664212046FFF7DEFCCC
:1078D00018B1236E43F020032366236E93B994F806
:1078E0005D30DBB2042B06D0012384F85D302046E6
:1078F000FFF792FF10BD012384F85D302046FFF7AB
:10790000AFFAF7E7012384F85D302046FFF785FFE3
:10791000F0E708B5C38F9BB2012B17D9826B0368C0
:107920001288DA60836B02338363C38F023B9BB29E
:10793000C387C38F9BB243B90268536823F08003A7
:107940005360B0F846309BB263B108BD826B0368E8
:1079500012781A73836B01338363C38F013B9BB22D
:10796000C387E6E7FFF7A6FFEFE708B5B0F84630B4
:107970009BB2012B17D90368DA68036C1A80036C79
:1079800002330364B0F84630023B9BB2A0F84630A5
:10799000B0F846309BB2012B12D10268536843F411
:1079A000805353600CE00268036C127B1A70036C06
:1079B00001330364B0F84630013B9BB2A0F8463077
:1079C000B0F846309BB23BB90268536823F06003BD
:1079D0005360C38F9BB203B108BDFFF76BFFFBE79A
:1079E00008B5826B03681288DA60836B02338363A5
:1079F000C38F013B9BB2C387C38F9BB243B902685D
:107A0000536823F080035360B0F846309BB203B153
:107A100008BDFFF74FFFFBE708B50368DA68036CA2
:107A20001A80036C02330364B0F84630013B9BB20A
:107A3000A0F84630B0F846309BB23BB902685368B4
:107A400023F040035360C38F9BB203B108BDFFF71F
:107A500031FFFBE730B585B0044602685068936893
:107A6000C3F3801129B913F0010F02D010F0400FB9
:107A700067D113F0020F02D010F0800F65D1C3F36D
:107A800040151DB911B913F4807F61D010F0200F9B
:107A90005ED079B194F85D10C9B203295AD0216E35
:107AA00041F00401216600210091D16800919168A4
:107AB0000091009965B1216E41F00101216600211C
:107AC000029191680291116821F040011160029ABF
:107AD00013F4807F09D0236E43F00803236600234C
:107AE000039323689B680393039B236E002B2FD083
:107AF0002268536823F0E0035360012384F85D306B
:107B000010F0030F2ED02268536823F00303536054
:107B1000A36D4BB1154A9A63A06DFBF7C1FE18B176
:107B2000236E43F040032366636D8BB10F4A9A6363
:107B3000606DFBF7B5FE58B1236E43F0400323663A
:107B400006E0E36C2046984702E0236D2046984704
:107B500005B030BD00230193D3680193936801936E
:107B6000019BF5E72046FFF758FEF1E7717B00081F
:107B700008B5806A0023A0F84630C387FFF74DFEA2
:107B800008BD000000B585B0002301930293039364
:107B90000F48104A0260436083604FF6FF72C26074
:107BA000036183610821FCF75DF950B9002301935B
:107BB000039301A90648FCF74BFA28B905B05DF814
:107BC00004FBF9F73DF8F1E7F9F73AF8F6E700BFFB
:107BD000381400200004004002680E4B9A4200D086
:107BE000704700B583B003F503339A6D42F002028B
:107BF0009A659B6D03F002030193019B00221146DD
:107C00001D20FBF73FFF1D20FBF770FF03B05DF861
:107C100004FB00BF0004004008B5084B1B6803B913
:107C200008BD064B1A6892B205490648FCF794FA5B
:107C30000228F5D0014B00221A60F1E72C09002040
:107C400084140020780A0020064A1368591C116029
:107C50005A42C3F30903C2F3090258BF5342024A0E
:107C6000D05470472C0900208414002070B50E46B3
:107C700015460024305D28B1AC4203DA0134FFF729
:107C8000E3FFF7E7284670BD38B50446524900EBDC
:107C90008003CA18C95C514B187801431970517898
:107CA0005878014359709178987801439970D17848
:107CB000D8780143D970127919790A431A71422C84
:107CC0004ED025D9452C5DD037D9E12C5DD0E22CA2
:107CD00062D04C2C67D02146414801F04FF83E4B12
:107CE00004EB84041D19195D3E4801F047F86978DA
:107CF0003D4801F043F8A9783C4801F03FF8E978A5
:107D00003B4801F03BF829793A4801F037F838BD93
:107D10003F2C1BD008D9402C1DD0412CDBD1032196
:107D2000022000F07BF9D6E73D2C23D03E2CD2D1A7
:107D30000021022000F072F9CDE7432C15D0442C2D
:107D4000C9D10621022000F069F9C4E7012102200F
:107D500000F064F9BFE70221084600F05FF9BAE7D6
:107D60000421022000F05AF9B5E70521022000F0B5
:107D700055F9B0E70721022000F050F91E4801F044
:107D800097F8A8E700F0C8F9A5E71C4B01221A7084
:107D90001B4801F08DF89EE71A4B01221A701A4811
:107DA00001F086F897E7194D01232B70184801F070
:107DB0007FF8144B1A78114B1B7829781A428AD015
:107DC000002988D000F094F900230C4A13700D4A62
:107DD00013702B707FE700BF2C00002030090020BB
:107DE000D4B80008E4B80008F4B8000804B90008E2
:107DF00014B9000824B9000888B800083609002022
:107E0000A0B8000835090020B4B8000837090020E0
:107E1000C4B8000838B50446264900EB8003CA18E8
:107E2000C85C254B197821EA0001197050785978FF
:107E300021EA000159709078997821EA000199703F
:107E4000D078D97821EA0001D97011791A7922EA1B
:107E500001021A71E02C20D0E22C22D04C2C24D02C
:107E60002146164800F08AFF124B04EB84041D19CA
:107E7000195D134800F082FF6978124800F07EFF18
:107E8000A978114800F07AFFE978104800F076FFF1
:107E900029790F4800F072FF38BD0E4B00221A708E
:107EA000DEE70D4B00221A70DAE70C4B00221A7045
:107EB000D6E700BF2C00002030090020D4B800080D
:107EC000E4B80008F4B8000804B9000814B90008C0
:107ED00024B90008360900203509002037090020A0
:107EE00010B50C4C01224FF400512046FBF7D6FB95
:107EF00001224FF480412046FBF7D0FB064C0A23B9
:107F0000052221460548FFF7A7FA002323602371C5
:107F100010BD00BF0004004830090020C41200203A
:107F200008B5034B00221A601A71FFF7D9FF08BD8C
:107F30003009002008B503220521024800F022F88C
:107F400008BD00BF3009002010B5827813094370C6
:107F50000024047009490C70DC084C7040789B00C8
:107F600043EA80135BB202F0030213438B700A23CF
:107F700003220348FFF770FA10BD00BF3809002044
:107F8000C412002070B504460D46032A16D8DFE857
:107F900002F0021624321F4E00224FF400513046E8
:107FA000FBF77CFB00224FF480413046FBF776FB69
:107FB0000A232A4621461848FFF74EFA70BD154E8F
:107FC00001224FF400513046FBF768FB00224FF4CA
:107FD00080413046FBF762FBEAE70E4E00224FF489
:107FE00000513046FBF75AFB01224FF480413046E6
:107FF000FBF754FBDCE7074E01224FF400513046FB
:10800000FBF74CFB01224FF480413046FBF746FB67
:10801000CEE700BF00040048C4120020072929D879
:10802000012817D043B213B102281BD07047012397
:108030008B40114A117821EA0301117010B50E4CE2
:1080400021780E4800F09AFE002201212046FFF719
:1080500099FF10BD01238B40074A11781943C9B21B
:108060001170EBE701238B40034A11785940C9B2E4
:108070001170E3E7704700BF3B09002034B90008E6
:1080800008B5164B1B68002B02DD013B134A136039
:10809000124B1B6853B1124B1B68002B02DD013BD6
:1080A0000F4A13600E4B1B6863B108BD013B0B4ABE
:1080B0001360002210210B48FBF7F0FA0A4800F089
:1080C000F7FEE8E7013B064A13600122202105483C
:1080D000FBF7E4FA054800F0EBFEE6E74009002074
:1080E0003C0900200008004878B900088CB9000855
:1080F00008B5012210210548FBF7D0FA07210448F2
:1081000000F03CFE034B07221A6008BD000800483F
:1081100060B900084009002008B500222021054868
:10812000FBF7BCFA0221044800F028FE034B0222B0
:108130001A6008BD0008004848B900083C09002042
:10814000D0F88800B0FA80F0400970477F23C0F86B
:108150008030C0F884307047D0F888307F2B12D838
:1081600010B4D0F88040621EC0F880200155013361
:10817000C0F88830002A02DB5DF8044B70477F238B
:10818000C0F88030F8E770470346D0F8882072B115
:10819000D0F88400411EC3F88410185C013AC3F87B
:1081A0008820002904DA7F22C3F884207047002049
:1081B0007047000010B50446084B1B784BB1084BC4
:1081C000185CFFF761FD22462146064800F0D6FD07
:1081D00010BD054B185CFFF757FDF4E7440900207C
:1081E0002C050020A0B900082C06002008B5064B7D
:1081F0001B7823B1054B185CFFF70CFE08BD044B40
:10820000185CFFF707FEF9E7440900202C05002061
:108210002C06002008B500E0E8B92148FFF790FFE0
:1082200000283BD11E48FFF7AFFF03460028F4D0DB
:10823000E02808D0F0D9E12809D0F0280BD1194B5B
:1082400001221A70E9E7184B01221A70E5E7174B73
:1082500002221A70E1E7134A127882B11846FFF73A
:10826000C5FF00230F4A13700F4A13700F4B1B7882
:1082700013B1013B0D4A1370FFF75CFECDE71846C2
:10828000FFF798FF084B00221A70084B1B7813B1B8
:10829000013B064A1370FFF74DFEBEE708BD00BF65
:1082A0004809002046090020440900204509002013
:1082B00008B501460148FFF74FFF08BD48090020F7
:1082C00008B50248FFF742FF08BD00BF480900207B
:1082D000DFF834D0FCF7BAFC002103E00B4B5B580D
:1082E000435004310A480B4B42189A42F6D30A4ACB
:1082F00002E0002342F8043B084B9A42F9D300F015
:1083000011F8F8F707FDFEE70080012090BC000897
:10831000000000200009002000090020941800201F
:10832000FEE7000070B50D4D0D4C641BA410002637
:10833000A64209D10B4D0C4C02F0FCFD641BA410AD
:108340000026A64205D170BD55F8043B984701367A
:10835000EEE755F8043B98470136F2E780BC000889
:1083600080BC000880BC000884BC0008024B0146A9
:10837000186800F061B800BF2C070020024B0146CE
:10838000186800F00BB800BF2C0700200244034619
:10839000934200D1704703F8011BF9E738B5054651
:1083A000002945D051F8043C0C1F002BB8BFE4183D
:1083B00001F0CCFE1F4A1368104633B963601460A5
:1083C0002846BDE8384001F0C7BEA3420CD9216859
:1083D0006218934204BF1A685B68636004BF521856
:1083E00022600460ECE713465A680AB1A242FAD947
:1083F00019685818A0420BD12068014458188242CD
:108400001960DDD1106852685A6001441960D7E7DD
:1084100002D90C232B60D3E7206821188A4204BFBD
:1084200011685268626004BF091821605C60C7E788
:1084300038BD00BFD4090020F8B5CD1C25F00305D8
:1084400008350C2D38BF0C25002D064601DBA9424E
:1084500003D90C2333600020F8BD01F077FE2149D9
:108460000A6814469CB9204F3B6823B92146304620
:1084700000F026FD38602946304600F021FD431CFF
:1084800023D10C233360304601F066FEE3E7236816
:108490005B1B17D40B2B03D923601C44256004E01D
:1084A0006368A2420CBF0B605360304601F054FE7B
:1084B00004F10B00231D20F00700C21ACCD01B1AB8
:1084C000A350C9E722466468CCE7C41C24F0030427
:1084D000A042E3D0211A304600F0F2FC0130DDD199
:1084E000CFE700BFD4090020D80900202DE9FF47BD
:1084F00055EC104B002D0E4691461946DDF830A084
:108500004FF0000203DA05F100431D462D220D9FB6
:108510000A7027F02007462F04D0452F00D10136DE
:10852000022100E0032103AB019302AB009332462A
:10853000534645EC104B00F01FFE472F804602D1FA
:1085400019F0010F22D0462F08EB060911D198F837
:108550000030302B0AD10022002320462946F8F7AC
:1085600093FA18B9C6F10106CAF80060DAF80030CB
:1085700099440022002320462946F8F785FA08B1DD
:10858000CDF80C903022039B4B4508D3039B0E9AE9
:10859000A3EB08034046136004B0BDE8F087591C04
:1085A00003911A70EFE7F7B50029BABF49422D23AE
:1085B0002B2309290270437021DD0DF107031F46AB
:1085C0000A2691FBF6F206FB12143034632903F1FC
:1085D000FF3503F8014C0ADC303205F8012C023B70
:1085E000821CBB42144605D3201A03B0F0BD2B46B3
:1085F0001146E6E713F8011B02F8011BF1E73023EF
:1086000019448370041DC170EEE700002DE9F04F9E
:108610008DB00C46DDF8588016461F46054601F021
:108620001BFD036806931846F7F7B2FD00230A9373
:10863000D8F800300790073323F0070303F108024E
:1086400094F818A0D4F800B0C8F80020D3E90023AB
:10865000C4E9122394ED127B8DED047BDDE90483E4
:1086600023F000494FF0FF32A84B40464946F8F747
:108670003DFA70BB4FF0FF32A44B40464946F8F735
:1086800017FA30BB00220023DDE90401F8F706FAEF
:1086900010B12D2384F843309D4A9E4BBAF1470F09
:1086A00094BF9046984603232BF004022361226076
:1086B0004FF00009009733460BAA2146284600F0E8
:1086C000D3F9013040F090804FF0FF300DB0BDE89D
:1086D000F08FDDE9042310461946F8F707FA60B178
:1086E00000220023DDE90401F8F7D8F910B12D23A9
:1086F00084F84330884A894BD0E763685A1C0AF0F3
:10870000DF093ED106236360002303930AAB4BF4D9
:108710008062CDE901A309AB0093616822600DF18D
:1087200023039DED040B2846FFF7E0FEB9F1470F48
:108730008046099908D1C81C02DB6368994241DD73
:10874000AAF1020A5FFA8AFABAF1650F20D8013954
:10875000524604F150000991FFF725FF0A9A1318B9
:10876000012A8146236102DC2268D20701D5013348
:1087700023619DF82330002B9CD02D2384F84330B7
:1087800098E7B9F1470FBFD1002BBDD10123BAE75C
:10879000BAF1660F18D1002963680BDD216113B9A6
:1087A0002268D00702D501330B442361A1654FF045
:1087B0000009DEE713B92268D20701D50233F4E7D6
:1087C0000123F2E74FF0670A0A9B994205DB236811
:1087D0002161D807EAD54B1CE7E70029D4BFC1F1D6
:1087E000020201221344E0E723685A0507D42369F3
:1087F000424631462846B84701302BD164E7BAF1EA
:10880000650F40F2DC8000220023D4E91201F8F762
:108810003BF9002833D00123414A31462846B84766
:1088200001303FF451AFDDE909239A4202DB2368AE
:10883000D8070FD5DDE9062331462846B847013071
:108840003FF442AF4FF0000804F11A090A9B013BC4
:10885000434509DC23689B0700F10181E0680B9B1D
:108860009842B8BF184631E701234A4631462846A8
:10887000B84701303FF428AF08F10108E6E7099B4B
:10888000002B2BDC0123264A31462846B84701300D
:108890003FF41AAFDDE90923134302D12368D90756
:1088A000D8D5DDE9062331462846B84701303FF4E4
:1088B0000BAF4FF0000904F11A0A099B5B424B45CC
:1088C00001DC0A9B94E70123524631462846B8470B
:1088D00001303FF4F9AE09F10109EEE70A9AA36D00
:1088E0009A42A8BF1A46002A914607DD1346314630
:1088F00042462846B84701303FF4E6AE04F11A0379
:108900004FF0000B29EAE979049315E0FFFFEF7FB0
:10891000BCB90008C0B90008C4B90008C8B900084B
:10892000CCB900080123049A31462846B8470130E3
:108930003FF4CAAE0BF1010BD4F858A0AAEB09031F
:108940005B45EFDCDDE909239A421BDB2368DA078C
:1089500018D4DDE9092392451CDBA3EB0A09B9F120
:10896000000F08DD4B4608EB0A0231462846B8479F
:1089700001303FF4A9AE4FF0000829EAE97904F18B
:108980001A0A14E0DDE9062331462846B8470130CB
:10899000DFD199E6A3EB0209E1E701235246314614
:1089A0002846B84701303FF48FAE08F10108DDE9F1
:1089B00009239B1AA3EB09034345EEDC4AE70A9A15
:1089C000012A01DCDB0737D5012342463146284620
:1089D000B84701303FF478AEDDE90623314628463A
:1089E000B84701303FF470AE00220023D4E91201F1
:1089F000F8F74AF8D8B90A9B08F10102013B314661
:108A00002846B84701300ED15EE601235246314672
:108A10002846B84701303FF457AE08F101080A9BD9
:108A2000013B4345F1DC4B4604F15002E1E64FF0D7
:108A3000000804F11A0AF2E701234246DFE70123A6
:108A40004A4631462846B84701303FF43DAE08F16A
:108A50000108E3680B9A9B1A4345F0DCFEE64FF0F1
:108A6000000804F11909F4E72DE9F04791461F4683
:108A70008A680B69DDF820809342B8BF1346C9F8B5
:108A8000003091F8432006460C4612B10133C9F874
:108A900000302368990642BFD9F800300233C9F884
:108AA0000030256815F0060507D104F1190AE368BE
:108AB000D9F800209B1AAB4228DC94F84330226896
:108AC000003318BF012392062DD404F14302394626
:108AD0003046C047013020D02368E568D9F800202F
:108AE00003F00603042B08BFAD1AA36822690CBF6C
:108AF00025EAE57500259342C4BF9B1AED184FF097
:108B000000091A344D451AD1002008E001235246CD
:108B100039463046C047013003D14FF0FF30BDE841
:108B2000F0870135C3E7E1185A1C302081F8430073
:108B3000224494F8451082F843100233C5E701231C
:108B4000224639463046C0470130E6D009F10109D6
:108B5000D8E700002DE9F04306460C4601F143003A
:108B6000097E85B06E29984617460C9B00F0BA80A6
:108B700024D8632939D00AD8002900F0C3805829A5
:108B800000F0918004F1420584F8421035E0642938
:108B900001D06929F6D125681A6815F0800F02F115
:108BA00004012CD012681960002A03DA2D235242E6
:108BB00084F84330DFF8BCC10A233FE0732900F09A
:108BC000A58008D86F2921D07029DBD1226842F016
:108BD0002002226003E0752918D07829D2D17822AA
:108BE00084F84520DFF890C161E01A68111D196012
:108BF000136884F8423004F14205012393E01268BF
:108C0000196015F0400F18BF12B2CDE7D4F800C0BC
:108C10001A681CF0800F02F104051D6001D0126873
:108C200003E01CF0400FFAD01288DFF848C16F292A
:108C30000CBF08230A23002184F843106568A5604F
:108C4000002DA2BF216821F0040121600AB9002D86
:108C500046D00546B2FBF3F103FB112E93421CF8FC
:108C60000EE005F801ED39D9082B0BD12368DA079E
:108C700008D5236962689A42DEBF302305F8013CBB
:108C800005F1FF35401B2061CDF800803B4603AA6B
:108C900021463046FFF7E8FE013049D14FF0FF3062
:108CA00005B0BDE8F083DFF8CCC084F845101D683E
:108CB000216855F8042B1D600D060BD5CD0744BF68
:108CC00041F0200121601AB9236823F020032360BA
:108CD0001023B0E74B0648BF92B2EFE70A46B9E768
:108CE0000546C1E71A68D4F800C06169151D1D600A
:108CF0001CF0800F136801D0196003E01CF0400FD6
:108D0000FAD01980002323610546BDE71A68111DBA
:108D100019601568626800212846F7F741FA08B122
:108D2000401B606063682361002384F84330ABE735
:108D300023692A4639463046C0470130AED0236801
:108D40009B0713D4E068039B9842B8BF1846A7E777
:108D500001234A4639463046C04701309ED001358E
:108D6000E368039A9B1AAB42F2DCEBE7002504F1BF
:108D70001909F5E7CEB90008DFB900080FB40A4BAE
:108D800013B51C6824B1A36913B9204601F0C8F8D3
:108D900005AB049AA1680193204601F0F1FC02B0F2
:108DA000BDE8104004B070472C07002038B5084BD0
:108DB0001C68054624B1A36913B9204601F0B0F838
:108DC000A26829462046BDE8384001F001BE00BF38
:108DD0002C07002070B50E46054618B183690BB903
:108DE00001F09EF8AB69AC6813B9284601F098F819
:108DF0002C4B9C4220D16C68636EDB0705D4A389A1
:108E0000980502D4A06D01F02CF9A38919071DD58E
:108E10002369DBB1013EA36816F8011F013BA36083
:108E200039BB002B38DA22460A21284600F058F8D0
:108E3000013011D00A2511E01B4B9C4201D1AC68D6
:108E4000DAE71A4B9C4208BFEC68D5E72146284672
:108E500000F098F80028DDD04FF0FF35636EDA0798
:108E600005D4A3899B0502D4A06D01F0FBF8284628
:108E700070BD002B04DAA2699A4206DC0A2904D0EC
:108E800023685A1C22601970C5E72246284600F064
:108E900027F80130BFD1DFE723680A255A1C22607A
:108EA0001D70DBE720BA000840BA000800BA0008CD
:108EB000024B01461868FFF78DBF00BF2C0700204A
:108EC00038B5064C002305460846236001F0BCFE79
:108ED000431C02D1236803B12B6038BD90180020D9
:108EE000F8B50E461446054618B183690BB901F072
:108EF00017F8214B9C422BD16C68A369A360A3890E
:108F00001A072FD523696BB323692068C01A6369D8
:108F1000F6B28342374604DC2146284600F06CFF57
:108F200030BBA368013BA36023685A1C22601E70FB
:108F300063690130834204D0A389DB0706D50A2E7A
:108F400004D12146284600F057FF88B93846F8BDBD
:108F50000A4B9C4201D1AC68CFE7094B9C4208BF49
:108F6000EC68CAE72146284600F00CF80028CBD070
:108F70004FF0FF37EAE700BF20BA000840BA000808
:108F800000BA0008324B70B51D6806460C4625B184
:108F9000AB6913B9284600F0C3FF2E4B9C420FD19A
:108FA0006C68B4F90C309AB215072CD4D00611D4E1
:108FB0000922326043F04003A3814FF0FF303EE0CE
:108FC000254B9C4201D1AC68EBE7244B9C4208BF87
:108FD000EC68E6E7510712D5616B41B104F1440337
:108FE000994202D03046FFF7D9F900236363A38981
:108FF00023F02403A3810023636023692360A389F2
:1090000043F00803A38123694BB9A38903F42073B8
:10901000B3F5007F03D02146304601F049F8A2891C
:1090200012F001030CD00023A36063695B42A361CB
:10903000236953B9B4F90C3013F08000BAD170BD74
:10904000920758BF6369A360F2E70020F7E700BF0B
:109050002C07002020BA000840BA000800BA000817
:109060002DE9F74F03690C69A34280467FDB013C81
:1090700001F11407A00008F114052B18019357F80B
:10908000243055F8242001339A4207EB0009B2FB43
:10909000F3F631D34FF0000ABC46AE46D3465CF837
:1090A000042B93B206FB03A34FEA134A9BB2ABEB2C
:1090B0000303120CDEF800B006FB02A213FA8BF3D6
:1090C0004FEA124A1FFA82FBDEF80020CBEB124275
:1090D00002EB23429BB243EA0243E1454FEA224BB3
:1090E0004EF8043BDBD22B5833B9019B043B9D4225
:1090F0001A4630D3C8F81040404601F044FA002820
:1091000025DB013628464FF0000C57F8042BD0F829
:1091100000E093B2ACEB0303120C13FA8EF3C2EB34
:109120001E4202EB23429BB243EA0243B9454FEA97
:10913000224C40F8043BE8D255F8242005EB840388
:109140002AB9043B9D421A460BD3C8F8104030465A
:1091500003B0BDE8F08F1268043B002ACAD1013C7D
:10916000C5E71268043B002AEFD1013CEAE7002082
:10917000EEE70000000000002DE9F04F55EC104B29
:1091800099B0476A089183460D921493229ECDE9C7
:10919000004547B91020FFF7E9F8C0E90177CBF89F
:1091A00024000760C760DBF82430196859B15A6899
:1091B0004A60012393408B60584601F007F8DBF8C2
:1091C000243000221A602B1EB9BF23F00043019304
:1091D00000233360019CB24BBCBF01223260A34329
:1091E0001AD1149A42F20F731360009AC4F3130356
:1091F000134300F05285239B53B9AA4B23E0AA4B9B
:1092000003930833239A1360039819B0BDE8F08FD5
:10921000A44B03930333F5E79DED007B002200236D
:1092200051EC170B8DED0E7BF7F72EFC074660B166
:10923000149A01231360239B002B00F02B859B4B7A
:10924000239A1360013B0393DEE716AA17A99DED4D
:109250000E0B584601F00EFAC4F30A568046002E53
:109260007FD00F9B1597C3F31303DDE90E4543F041
:109270007F5545F44015A6F2FF3600228C4B204660
:109280002946F6F7E1FF80A3D3E90023F7F794F925
:109290007FA3D3E90023F6F7D9FF044630460D46F5
:1092A000F7F720F97CA3D3E90023F7F785F9024605
:1092B0000B4620462946F6F7C9FF04460D46F7F748
:1092C0002BFC00228246002320462946F7F7E6FBC6
:1092D00048B15046F7F706F922462B46F7F7D4FB7C
:1092E00008B90AF1FF3ABAF1160F59D8714B03EBDE
:1092F000CA03D3E90023DDE90E01F7F7CFFB00280D
:1093000050D00AF1FF3A00231193169B9E1B731E47
:10931000079345BFC6F101030693002300234CBF0A
:1093200007930693BAF1000F3EDB079BCDF840A0F0
:109330005344079300230993089B092B00F28F8065
:10934000052BC4BF043B0893089BA3F10203CCBFC9
:1093500000240124032B00F28D80DFE803F02F3C72
:109360003A7EDDE916631E4406F23240202811DD04
:10937000C0F14000009B844006F2124023FA00F046
:109380002043F7F79FF801230446A1F1F875013E49
:10939000159372E7009BC0F1200003FA00F0F0E79C
:1093A0000123B1E71190B0E7069BA3EB0A030693F4
:1093B000CAF10003099300231093BDE700230C9327
:1093C0000D9B002B59DC0123049399461A460D92FC
:1093D0000CE00123F3E700230C930D9B534403F1AE
:1093E000010904934B46012BB8BF0123DBF824503D
:1093F00000226A60042202F11400984269685DD973
:10940000584600F0AFFEDBF8243028601B68039359
:10941000B9F10E0F00F2D780002C00F0D480BAF121
:10942000000F69DD234A0AF00F0302EBC30393ED3B
:10943000007B4FEA2A14E2068DED0A7B5AD51E4BBB
:10944000DDE90E01D3E90823F7F7E0F9CDE90001E2
:1094500004F00F040326184D41E00123BCE701246A
:10946000002308930C944FF0FF3304939946002295
:109470001223ACE701230C93F5E70D9B0493994667
:10948000B4E700BFAFF3008061436F63A787D23FAB
:10949000B3C8608B288AC63FFB799F501344D33FE3
:1094A0000000F07FF9B90008F0B90008CDB9000854
:1094B0000000F83F88BA000860BA0008013169600E
:1094C000520098E7E30708D5DDE90A01D5E9002352
:1094D000F7F772F8CDE90A01013664100835002C5F
:1094E000F0D1DDE90A23DDE90001F7F78FF9CDE9D5
:1094F00000011AE00226AEE700F09F80CAF10004E6
:109500009F4BA04D04F00F0203EBC203D3E90023ED
:10951000DDE90E01F7F750F8CDE900012411002331
:109520000226002C7ED1002BE1D1119B002B00F0F4
:109530008680DDE900450022934B20462946F7F757
:10954000ADFA00287BD0B9F1000F78D0049B002B36
:1095500035DD0AF1FF330A93204600228B4B294662
:10956000F7F72AF8CDE90001049C01363046F6F7FA
:10957000B9FFDDE90023F7F71FF80022844BF6F767
:1095800065FE0646A1F15077002C5CD10022814B8C
:10959000DDE90001F6F758FE32463B46CDE9000111
:1095A000F7F79AFA002840F08C82324607F1004320
:1095B000DDE90001F7F772FA002840F08082DDE96A
:1095C0000E34CDE90034179B002BC0F24F81BAF165
:1095D0000E0F00F34B816A4B03EBCA0393ED007B44
:1095E0000D9B002B8DED047B80F2D880B9F1000F2C
:1095F00000F3D48040F062820022664B51EC170BDE
:10960000F6F7DAFFDDE90023F7F75CFA4C464E4641
:10961000002840F03B82039D312305F8013B0AF10D
:10962000010A37E2E70705D5D5E90023F6F7C4FFBD
:10963000013601236410083573E7022675E7CDF87B
:1096400028A04C4692E74E4B03EBC40353E90201BA
:10965000039B1C440C9B002B46D002460B4600206B
:109660004D49F7F7D3F832463B46F6F7EDFD039D3B
:1096700006460F46DDE90001F7F74EFA1290F6F7BD
:1096800031FF02460B46DDE90001F6F7DDFD129BD6
:10969000303305F8013B32463B46CDE90001F7F790
:1096A000FDF9002860D1DDE9002300203649F6F7F6
:1096B000CBFD32463B46F7F7F1F9002840F0B48085
:1096C000A5423FF47CAF0022304B30463946F6F7D6
:1096D00073FF002206460F462C4BDDE90001F6F72A
:1096E0006BFFCDE90001C5E732463B46F6F764FF64
:1096F000CDE91201039E2546DDE90001F7F70CFADA
:109700000746F6F7EFFE303702460B46DDE900016B
:10971000F6F79AFD06F8017BA642CDE900014FF06D
:10972000000226D11C4BDDE91201F6F78FFD02463F
:109730000B46DDE90001F7F7CFF9002874D1DDE928
:10974000122300201449F6F77FFD02460B46DDE99F
:109750000001F7F7A3F900283FF431AF15F8013CF9
:10976000302B05F1FF3202D0DDF828A04AE0154683
:10977000F4E7064BF6F720FFCDE90001BCE700BF98
:1097800088BA000860BA00080000F03F00002440DA
:1097900000001C40000014400000E03FDDE90067CD
:1097A000039DDDE9042330463946F7F72FF8F7F734
:1097B000B3F90446F6F796FEDDE90423F6F7FCFE5E
:1097C00002460B463046394604F13006F6F73CFDBA
:1097D00005F8016B039EAE1BB14502460B4638D11E
:1097E000F6F734FDDDE9042306460F46F7F774F972
:1097F000C0B9DDE9042330463946F7F745F908B129
:10980000E1070FD44146584600F0E0FC0023149ACB
:109810002B700AF101031360239B002B3FF4F4AC7F
:109820001D60F1E4CDF828A015F8012C392A05F1C6
:10983000FF3308D1039A9A4209D10A9A0399013257
:109840000A9230220A701A7801321A708CE71D468B
:10985000EAE700229D4BF6F7AFFE00220023064602
:109860000F46F7F711F900289BD0CBE70C9A002A96
:1098700000F0CB80089A012A00F3AE80159A002AE6
:1098800000F0A68003F23343099C069D069A1A4411
:109890000692079A01211A445846079200F038FDB3
:1098A0000646002D0CDD079B002B09DDAB42069A16
:1098B000A8BF2B46D21A0692079AED1AD31A07931D
:1098C000099BF3B10C9B002B00F0A380002C10DD52
:1098D00031462246584600F0B5FD4246014606464E
:1098E000584600F01EFD41460746584600F06EFC03
:1098F000B846099B1A1B04D04146584600F0A2FD09
:1099000080460121584600F003FD109B002B0446C1
:1099100040F381801A460146584600F093FD089BAB
:10992000012B04467ADD0027236904EB83031869C1
:1099300000F09EFCC0F12000079B184410F01F00AF
:1099400000F08B80C0F12003042B40F38480C0F131
:109950001C00069B03440693079B0344054407939E
:10996000069B002B05DD41461A46584600F0B8FD1F
:109970008046079B002B05DD21461A46584600F01D
:10998000AFFD0446119B002B69D02146404600F0F4
:10999000FAFD002863DA002341460A22584600F007
:1099A0002CFC0C9B0AF1FF3A8046002B00F07C81D6
:1099B000002331460A22584600F01FFC049B002B6E
:1099C000064600F38B80089B022B40F387804EE015
:1099D000169BC3F1360357E7099B09F1FF34A342F5
:1099E000BFBF099B0994E21A109BBBBF9B18109341
:1099F0001C1B0024B9F1000FB5BF069B069DA3EB0D
:109A000009054B46B8BF002340E7099C069D0C9E04
:109A100047E7099A70E7089B012B18DC009BB3B954
:109A2000019BC3F31303A3B9019B23F000473F0D30
:109A30003F0537B1069B01330693079B013307931C
:109A40000127109B002B7FF46FAF012074E70027E4
:109A5000F7E7009FF5E783D018461C3079E7B9F1A6
:109A6000000F35DC089B022B32DDCDF81090049BF3
:109A700063B921460522584600F0BFFB0146044663
:109A8000404600F080FD00283FF7C5AD0D9B039DCB
:109A90006FEA030A00272146584600F097FB002E84
:109AA0003FF4B0AE2FB1B74203D03946584600F06C
:109AB0008DFB3146584600F089FBA3E6002426467C
:109AC000E4E7DDF828A02646A5E500BF0000244015
:109AD0000C9BCDF81090002B00F0ED80002D05DDE3
:109AE00031462A46584600F0FBFC0646002F56D069
:109AF0007168584600F036FB326902320546920022
:109B000006F10C010C3000F013FB012229465846E7
:109B100000F0E6FC039B03F10109DDE90323134494
:109B20000993009B03F0010337460793064609F1AA
:109B3000FF33214640460093FFF792FA0346303345
:109B40000490394640460A9300F01DFD32460690C7
:109B50002146584600F031FDC2680A9B054602BB0B
:109B60000146404600F00FFD0A9B02462946584632
:109B70000C920A9300F02AFB089B0C9A43EA02011C
:109B8000079B0B434D460A9B0DD1392B27D0069AD4
:109B9000002A01DD049B3133009A13707BE73046C5
:109BA000B8E70122E2E70699002904DB089801439F
:109BB000079801431ED1002AEEDD41460122584696
:109BC000069300F08DFC2146804600F0DCFC002866
:109BD000069B02DCE0D1DA07DED5392BDAD1009A18
:109BE0003923137015F8013C392B05F1FF3247D0AA
:109BF0000133D2E7002A03DD392BF0D00133CBE764
:109C0000099A09F8013C914521D0414600230A22D6
:109C1000584600F0F2FAB74280464FF000034FF08A
:109C20000A023946584606D100F0E7FA07460646CA
:109C300009F101097BE700F0E0FA3146074600230D
:109C40000A22584600F0D9FA0646F1E700274146B5
:109C500001225846009300F043FC2146804600F064
:109C600092FC0028BEDC02D1009BDB07BAD415F8B9
:109C7000013C302B05F1FF327FF40DAF1546F6E7BE
:109C8000039B934204D10AF1010A3123039A84E72A
:109C90001546A7E7134BFFF7D6BA239B002B7FF49B
:109CA000AEAA114BFFF7CFBA049B002B03DC089B35
:109CB000022B3FF7DCAE039D21464046FFF7D0F96B
:109CC00000F1300305F8013B039A0499AA1A914266
:109CD000BCDD414600230A22584600F08EFA804639
:109CE000EAE700BFCCB90008F0B900088A892DE97D
:109CF000F041054610070C4658D44B68002B05DC94
:109D00000B6C002B02DC0020BDE8F081E66A002E1F
:109D1000F9D0002312F480522F682B6032D0606D8E
:109D2000A3895A0705D56368C01A636B0BB1236C0E
:109D3000C01A00230246E66A216A2846B047431C3F
:109D4000A38906D129681D2949D82A4ACA40D607BD
:109D500045D500226260D9042269226004D5421CE4
:109D600001D12B6803B96065616B2F600029CAD0EF
:109D700004F14403994202D02846FEF70FFB00206D
:109D80006063C1E7216A01232846B047411CC7D15F
:109D90002B68002BC4D01D2B01D0162B01D12F60B6
:109DA000B1E7A38943F04003A381ADE70F69002F1A
:109DB000A9D093070E6808BF4B690F6018BF002336
:109DC000A6EB07088B60B8F1000F9CDD43463A46CE
:109DD000216AA66A2846B047002806DCA38943F01A
:109DE0004003A3814FF0FF308EE70744A8EB000843
:109DF000E9E700BF0100402038B50B6905460C4675
:109E000013B90025284638BD18B183690BB900F095
:109E100087F8144B9C421BD16C68B4F90C30002BB2
:109E2000EFD0626ED00704D4990502D4A06D00F083
:109E300018F928462146FFF759FF636EDA070546F1
:109E4000E0D4A3899B05DDD4A06D00F00BF9D9E720
:109E5000054B9C4201D1AC68DFE7044B9C4208BF34
:109E6000EC68DAE720BA000840BA000800BA000837
:109E7000002310B50446C0E9003383608181436646
:109E8000C281C0E904338361194608225C30FEF7C1
:109E90007DFA054B6362054BA362054BE362054BFC
:109EA0002462236310BD00BF61AA000883AA0008D2
:109EB000BBAA0008DFAA0008014900F0AFB800BF44
:109EC000F99D000870B54A1E682555430E4605F1F8
:109ED0007401FEF7B1FA044640B10021C0E9001652
:109EE0000C30A06005F16802FEF750FA204670BD04
:109EF000014800F0B6B800BF8C180020014800F0FF
:109F0000B1B800BF8C180020014800F0AAB800BF0B
:109F100087180020014800F0A5B800BF871800206E
:109F200010B50446FFF7F0FFA3691BB1BDE8104070
:109F3000FFF7F0BFC4E912332365134B134A1B68C4
:109F4000A262A34204BF0123A361204600F020F8CF
:109F50006060204600F01CF8A060204600F018F871
:109F60000022E06004216068FFF782FF01220921DE
:109F7000A068FFF77DFF02221221E068FFF778FF5B
:109F80000123A361D2E700BFB8B90008B99E000859
:109F9000F8B50746FFF7ACFF1E4B1E68B36913B94F
:109FA0003046FFF7BDFF4836D6E90134013B03D503
:109FB00033680BB33668F7E7B4F90C50D5B9164BD4
:109FC000E36004F15800656600F04AF8FFF796FF79
:109FD0002560C4E90155C4E90455A5610822294654
:109FE00004F15C00FEF7D2F9C4E90D55C4E912553D
:109FF0002046F8BD6834D9E704213846FFF762FFF0
:10A00000044630600028D5D1FFF778FF0C233B6071
:10A01000EEE700BFB8B900080100FFFF2DE9F843E3
:10A020008046894600F14804002614B93046BDE850
:10A03000F883D4E90175013F01D52468F5E7AB89C0
:10A04000012B07D9B5F90E30013303D0294640461C
:10A05000C84706436835EEE700487047800800208F
:10A0600070477047704770B50E46B1F90E10002961
:10A0700096B014461D4607DA00232B60B3891A06F2
:10A0800010D44FF480630EE06A4600F04FFD0028C4
:10A09000F2DB019A02F47042A2F500535A425A418F
:10A0A0002A60EEE740230020236016B070BD000058
:10A0B0008B8973B59D0706460C4607D504F1470307
:10A0C000236023610123636102B070BD01AB6A4666
:10A0D000FFF7C9FF009905463046FEF7ADF948B9CC
:10A0E000B4F90C309A05EFD423F0030343F00203D4
:10A0F000A381E3E70D4BB362A389206043F08003A3
:10A10000A381009B6361019B20615BB1B4F90E10D8
:10A11000304600F01DFD28B1A38923F0030343F06E
:10A120000103A381A3891D43A581CDE7B99E000842
:10A130000A44914200F1FF3300D1704710B511F885
:10A14000014B03F8014F9142F9D110BD0148FFF7CF
:10A1500088BF00BF881800200148FFF783BF00BFF9
:10A160008818002070B5456A04460E463DB9102097
:10A17000FEF7FCF8C0E9015560620560C560656ADC
:10A18000EB6883B1636ADB6853F82600B8B9012134
:10A1900001FA06F56A1D9200204600F0B9FA60B196
:10A1A000C0E901650EE021220421204600F0B0FA4A
:10A1B000636AE860DB68002BE4D1002070BD0268B0
:10A1C00043F826200023C0E90333F7E770B5446A5B
:10A1D00006460D463CB91020FEF7C8F8C0E9014418
:10A1E00070620460C4603DB1736A6A68DB6853F8EA
:10A1F0002210296043F8225070BD2DE9F0410D690D
:10A200001F4606460C4601F1140C0023DCF8000042
:10A2100081B202FB01710F0C000C02FB007089B2CD
:10A22000013301EB00419D424FEA10474CF8041BFB
:10A23000ECDCD7B1A368AB4212DC61683046013177
:10A24000FFF790FF2269023204F10C018046920070
:10A250000C30FFF76DFF21463046FFF7B7FF44464D
:10A2600004EB850301355F6125612046BDE8F0817F
:10A27000020C12040346CAB90304102013F07F4FE6
:10A2800004BF1B02083013F0704F04BF1B010430E1
:10A2900013F0404F04BF9B000230002B05DB13F08E
:10A2A000804F00F1010008BF202070470020E5E743
:10A2B000036813F0070201460BD0DA0724D498078D
:10A2C00049BF5B089B0801200B605CBF0B6002204C
:10A2D000704798B2B0B91B0C102013F0FF0F04BFE9
:10A2E0001B0A08301A0704BF1B0904309A0704BF71
:10A2F0009B080230DA0703D45B0800F1010005D0A7
:10A300000B6070471046E8E7002070472020704738
:10A3100010B50C460121FFF725FF012244610261BF
:10A3200010BD2DE9F74F90460A69D8F810309A42CF
:10A33000B8BF0B460C46BCBF444698462769D8F8C0
:10A340001090A368616807EB0906B342B8BF0131FA
:10A35000FFF708FF00F1140505EB860E2B460022DF
:10A36000734516D304F1140308F1140203EB8707B5
:10A3700002EB89030093009B019293420CD8002EBC
:10A3800003DD5EF8043D002B59D0066103B0BDE843
:10A39000F08F43F8042BE3E7B2F800A0BAF1000F06
:10A3A00023D004F11409AC464FF0000859F8041BFF
:10A3B000DCF800B08BB21FFA8BFB0AFB03B34FEA49
:10A3C000114BDCF8001043444FEA11480AFB0B81A3
:10A3D00001EB13419BB243EA01434F454FEA114859
:10A3E0004CF8043BE2D8CCF80080019BB3F8029013
:10A3F0000432B9F1000F20D02B6804F11408AC46E8
:10A400004FF0000AB8F80010BCF802B009FB01B127
:10A410008A449BB243EA0A434CF8043B58F8043B95
:10A42000BCF800101B0C09FB031303EB1A43474550
:10A430004FEA134AE6D8CCF8003004359BE7013EDA
:10A440009DE700002DE9F843154612F00302064689
:10A450000F4607D0013A214C002354F82220FFF781
:10A46000CCFE0746AD1035D0746A3CB91020FDF71C
:10A470007DFFC0E9014470620460C460D6F82480A6
:10A48000D8F808404CB940F271213046FFF740FF40
:10A490000023C8F80800044603604FF00008EB07EB
:10A4A0000AD5394622463046FFF73BFF39468146FA
:10A4B0003046FFF78BFE4F466D100BD0206838B941
:10A4C000224621463046FFF72CFF2060C0F800806E
:10A4D0000446E4E73846BDE8F88300BF50BB0008F7
:10A4E0002DE9F0470C464FEA621A236949680AEBE6
:10A4F0000309A3680746164609F10105AB4233DBA1
:10A500003846FFF72FFE0023804600F1140100F1CA
:10A510001002184653452ADB20692AEAEA7A04F138
:10A52000140316F01F0201EB8A0103EB800C22D00A
:10A53000C2F1200E00201E689640304341F8040B03
:10A5400053F8040B9C4520FA0EF0F4D8086008B1CB
:10A5500009F10205013D3846C8F810502146FFF7C1
:10A5600035FE4046BDE8F08701315B00C6E742F8A2
:10A57000040F0133CEE7043953F8042B41F8042FBC
:10A580009C45F9D8E6E703690A699B1A30B50CD1F6
:10A590009200143014318418114454F8045D51F8B9
:10A5A000042D954203D005D30123184630BDA042A7
:10A5B000F3D3FAE74FF0FF33F7E72DE9F0470D4605
:10A5C0000746114628461446FFF7DDFF061E08D150
:10A5D00031463846FFF7C6FD0123C0E90436BDE821
:10A5E000F087A4BF23462C4638466168A6BF1D46A7
:10A5F00000260126FFF7B6FD2B69C660266905F126
:10A60000140904F1140202EB860709EB830800F138
:10A6100014054FF0000E52F804AB59F8044B1EFA23
:10A620008AF1A3B2C91A230CC3EB1A4303EB2143EB
:10A6300089B24FEA234EC84541EA0343944645F8A0
:10A64000043BE8D8BC4504D355F8043D83B106610A
:10A65000C5E75CF8041B1EFA81F31A1402EB1142E1
:10A660009BB243EA02434FEA224E45F8043BE9E736
:10A67000013EE9E72DE9F7430E46012159EC108B25
:10A680001546FFF76FFDC9F30A540746C9F31303D4
:10A690002CBB0193B8F1000326D068460093FFF766
:10A6A00007FE0099F0B1019AC0F1200302FA03F30A
:10A6B0000B43C2407B610192019BBB61002B14BF25
:10A6C000022101213961C4B1A4F23344044434604D
:10A6D000C0F135002860384603B0BDE8F08343F48C
:10A6E0008013D6E77961E7E701A8FFF7E1FD019B59
:10A6F0007B61012139612030E5E707EB8103A0F29E
:10A70000324030601869FFF7B3FDC0EB4110E1E75C
:10A7100038B502FB01F42146FDF78EFE054618B15F
:10A7200022460021FDF732FE284638BD9368013BE2
:10A73000002B10B4936008DA9469A34201DB0A2964
:10A7400003D15DF8044BFEF7CBBB1368581C1060B7
:10A75000197008465DF8044B7047F8B506460F4679
:10A760001446D518AC4201D1002007E03A4614F84F
:10A77000011B3046FFF7DAFF431CF3D1F8BD0000A0
:10A780002DE9F04F0D469DB014461E46074618B100
:10A7900083690BB9FFF7C4FB854B9D421BD17D68D4
:10A7A0006B6ED90705D4AB899A0502D4A86DFFF763
:10A7B00058FCAB891B0701D52B69EBB929463846F4
:10A7C000FEF7E0FBC0B16B6ED8070ED54FF0FF303F
:10A7D0001DB0BDE8F08F774B9D4201D1BD68DFE72A
:10A7E000754B9D4208BFFD68DAE7AB899905EDD44A
:10A7F000A86DFFF737FCE9E70023099320238DF8C4
:10A800002930DFF8B891039630238DF82A304FF0C5
:10A81000010A23461E4613F8012B0AB1252AF9D155
:10A82000B6EB040B0BD05B46224629463846FFF7B1
:10A8300094FF013000F0A380099B5B4409933378B7
:10A84000002B00F09C8000234FF0FF32CDE9052360
:10A850000136049307938DF853301A93344605223A
:10A8600014F8011B5548F5F79BFC049BC0B9DA06A8
:10A8700044BF20228DF85320180744BF2B228DF8A7
:10A88000532032782A2A13D0079A344600200A2609
:10A89000214611F8013B303B092B4BD970B914E02C
:10A8A000A0EB09000AFA00F0184304902646D5E709
:10A8B000039A111D12680391002A01DB079204E03C
:10A8C000524243F002030792049323782E2B0CD1BB
:10A8D00063782A2B33D1039B1A1D1B680392002B2C
:10A8E000B8BF4FF0FF3302340593354E2178032271
:10A8F0003046F5F755FC38B14023801B03FA00F0D1
:10A90000049B03430134049314F8011B2D488DF874
:10A9100028100622F5F744FC00283FD02A4B13BB31
:10A92000039B073323F0070308330393099B434436
:10A9300009936EE706FB023201200C46A8E70023CC
:10A940000134059319460A26204610F8012B303AA7
:10A95000092A03D9002BC8D00591C6E706FB0121BF
:10A9600001230446F0E703AB00932A46174B04A9E2
:10A970003846FDF74BFEB0F1FF3F8046D6D16B6EF7
:10A98000D90705D4AB899A0502D4A86DFFF76AFBF5
:10A99000AB895B063FF51AAF099819E703AB009343
:10A9A0002A460A4B04A93846FEF7D4F8E3E700BF6D
:10A9B00020BA000840BA000800BA00085CBB0008D2
:10A9C00062BB000866BB00080D8600085BA7000894
:10A9D00070B50D461446064618B183690BB9FFF7EA
:10A9E0009FFA1C4B9C4224D17468636ED80705D42F
:10A9F000A389990502D4A06DFFF733FBA368013B3F
:10AA0000002BA36005DAA26993421CDBEBB20A2B90
:10AA100019D023685A1C22601D70EDB2636EDA07EC
:10AA200005D4A3899B0502D4A06DFFF71BFB284624
:10AA300070BD094B9C4201D1B468D6E7074B9C42DC
:10AA400008BFF468D1E7294622463046FEF748FAA7
:10AA50000546E3E720BA000840BA000800BA00083B
:10AA600010B50C46B1F90E1000F0A6F80028ABBFE7
:10AA7000636DA3891B1823F48053ACBF6365A38166
:10AA800010BD2DE9F0411F468B89DB0505460C46BC
:10AA9000164605D502230022B1F90E1000F068F821
:10AAA000A389B4F90E1023F48053A38132463B46A8
:10AAB0002846BDE8F04100F017B810B50C46B1F9D2
:10AAC0000E1000F055F8431CA38915BF606523F4F0
:10AAD000805343F48053A38118BFA38110BDB1F903
:10AAE0000E1000F013B8000038B5074C05460846B4
:10AAF0001146002222601A46FDF7B8F8431C02D125
:10AB0000236803B12B6038BD9018002038B5064C7F
:10AB1000002305460846236000F06EF8431C02D16E
:10AB2000236803B12B6038BD9018002038B5074C5E
:10AB30000023054608461146236000F065F8431CD3
:10AB400002D1236803B12B6038BD00BF90180020EC
:10AB500038B5064C002305460846236000F05CF833
:10AB6000431C02D1236803B12B6038BD901800202C
:10AB700038B5074C054608461146002222601A46A1
:10AB800000F052F8431C02D1236803B12B6038BD9A
:10AB90009018002082B001B901A942B14BB11378DD
:10ABA0000B601278101C18BF012002B070471046CD
:10ABB000FBE76FF00100F8E738B5074C054608469B
:10ABC0001146002222601A4600F036F8431C02D1DA
:10ABD000236803B12B6038BD9018002049B1FF2ACB
:10ABE00085BF8A2303600A704FF0FF3098BF0120B1
:10ABF0007047084670470000024B58221A604FF019
:10AC0000FF30704790180020024B58221A604FF016
:10AC1000FF30704790180020024B58221A60002025
:10AC2000704700BF90180020024B58221A604FF066
:10AC3000FF30704790180020024B58221A604FF0E6
:10AC4000FF30704790180020044A05491368002B14
:10AC500008BF0B461844106018467047DC090020F6
:10AC6000981800202DE9F047089E04468846002BDE
:10AC700040F085808A42154648D9B2FA82F24AB13C
:10AC8000C2F1200701FA02F320FA07F7954047EADC
:10AC9000030894404FEA154E230CB8FBFEF71FFA49
:10ACA00085FC0EFB178843EA084307FB0CF1994229
:10ACB00009D9EB1807F1FF3080F0E380994240F2A8
:10ACC000E080023F2B445B1AA4B2B3FBFEF00EFB04
:10ACD000103344EA034400FB0CFCA44509D92C19A9
:10ACE00000F1FF3380F0CB80A44540F2C8800238E9
:10ACF0002C4440EA0740A4EB0C0400271EB1D440CA
:10AD00000023C6E900433946BDE8F087002A53D046
:10AD1000B2FA82F2002A40F0B680491B4FEA154E83
:10AD20001FFA85F80127B1FBFEFC230C0EFB1C115A
:10AD300043EA014308FB0CF1994207D9EB180CF1E7
:10AD4000FF3002D2994200F2EC808446591AA3B235
:10AD5000B1FBFEF00EFB101443EA044408FB00F8BC
:10AD6000A04507D92C1900F1FF3302D2A04500F20B
:10AD7000DC801846A4EB080440EA0C40BEE78B4296
:10AD800008D9002E78D00027C6E900013846394698
:10AD9000BDE8F087B3FA83F77FB98B4202D38242D2
:10ADA00000F2BD80841A61EB030301209846002E57
:10ADB000A9D0C6E90048A6E7FFDEC7F12005BB40E1
:10ADC00022FA05FC4CEA030C01FA07F420FA05F814
:10ADD00021FA05F34FEA1C4E48EA0404B3FBFEF9DE
:10ADE000210C0EFB19331FFA8CF841EA034309FBCF
:10ADF00008FA9A4502FA07F200FA07F10BD91CEBA0
:10AE0000030309F1FF3080F088809A4540F2858085
:10AE1000A9F102096344A3EB0A03A4B2B3FBFEF059
:10AE20000EFB103344EA034400FB08F8A04508D9A0
:10AE30001CEB040400F1FF336BD2A04569D9023842
:10AE4000644440EA0940A4EB0804A0FB02894C4595
:10AE5000C6464B4654D351D0002E69D0B1EB0E02FA
:10AE600064EB030404FA05F522FA07F3FC401D43E2
:10AE7000C6E90054002746E73746304643E7184600
:10AE800037E707461FE7C2F1200320FA03F7954092
:10AE900001FA02F021FA03F34FEA154E3843010C90
:10AEA000B3FBFEF71FFA85F80EFB173341EA0341A7
:10AEB00007FB08F38B4204FA02F407D9691807F17B
:10AEC000FF3C28D28B4226D9023F2944CB1A81B2BB
:10AED000B3FBFEF00EFB103341EA034100FB08F325
:10AEE0008B4207D9691800F1FF3C10D28B420ED972
:10AEF00002382944C91A40EA074714E74145ABD252
:10AF0000B8EB020E69EB0C0201381346A4E7604669
:10AF1000F0E7184695E76746D8E781467BE738466D
:10AF200045E7ACF1020C2B4410E702382C4421E732
:10AF30003746E8E6F8B500BFF8BC08BC9E46704747
:10AF4000F8B500BFF8BC08BC9E4670470000000082
:10AF500048656C6C6F0D0A00446576696365207303
:10AF600074617274210D00000000000000000000F8
:10AF7000010203040607080900000000010203049F
:10AF8000A0860100400D0300801A060000350C0069
:10AF900040420F0080841E0000093D0000127A002C
:10AFA0000024F40000366E010048E801006CDC0269
:10AFB00072617720646174613A2025303858202509
:10AFC0003038580A0000000075703A256420646F1C
:10AFD000776E3A2564206C6566743A256420726940
:10AFE0006768743A25642062313A25642062323AF7
:10AFF00025642062333A25642062343A2564200AAD
:10B0000020202020202020207462313A25642074E2
:10B0100062323A2564207462333A256420746234C3
:10B020003A2564202073746F703A256420706C6137
:10B03000793A2564200A00006B656D7073746E3A6E
:10B0400020253032580A00004B657920320000007C
:10B050004B6579732061727261793A203D202564D5
:10B06000203A202564203A202564203A20256420B7
:10B070003A202564203A2025640A000046436C618A
:10B080007373202020203A202578680A00000000F1
:10B0900046537562436C617373203A202578680AC1
:10B0A000000000004650726F746F636F6C203A208E
:10B0B0002578680A00000000436C6173732020202B
:10B0C000203A202578680A00537562436C617373D7
:10B0D000203A202578680A0050726F746F636F6C95
:10B0E000203A202578680A004552524F523A2000F3
:10B0F000436F6E74726F6C206572726F723A204784
:10B10000657420446576696365204465736372697C
:10B1100070746F72207265717565737420666169F1
:10B120006C656400436F6E74726F6C206572726F31
:10B13000722C20446576696365206E6F74205265B9
:10B1400073706F6E64696E6720506C656173652003
:10B15000756E706C756720746865204465766963E8
:10B16000652E00005049443A202578680000000010
:10B170005649443A2025786800000000436F6E74F9
:10B18000726F6C206572726F723A20476574204648
:10B19000756C6C20446576696365204465736372E1
:10B1A0006970746F72207265717565737420666161
:10B1B000696C65640000000041646472657373200B
:10B1C00028232564292061737369676E65642E00E6
:10B1D000436F6E74726F6C206572726F723A2044A6
:10B1E0006576696365205365742041646472657394
:10B1F000732072657175657374206661696C65642E
:10B2000000000000436F6E74726F6C206572726F85
:10B21000723A204765742044657669636520636FE0
:10B220006E66696775726174696F6E2064657363B9
:10B23000726970746F7220726571756573742066BF
:10B2400061696C65640000004D616E7566616374D0
:10B2500075726572203A2025730000004D616E758D
:10B260006661637475726572203A204E2F4100004A
:10B2700050726F64756374203A20257300000000DB
:10B2800050726F64756374203A204E2F41000000A5
:10B2900053657269616C204E756D626572203A204B
:10B2A0002573000053657269616C204E756D62658F
:10B2B00072203A204E2F4100496E76616C696420FD
:10B2C000486F73742068616E646C6500555342204A
:10B2D00044657669636520436F6E6E65637465646B
:10B2E0000000000055534220446576696365205292
:10B2F0006573657420436F6D706C657465640000E0
:10B30000555342205265736574204661696C6564CB
:10B310002C20506C6561736520756E706C756720AC
:10B32000746865204465766963652E00456E756DA9
:10B3300065726174696F6E20646F6E652E00000027
:10B340005468697320646576696365206861732059
:10B350006F6E6C79203120636F6E666967757261FC
:10B3600074696F6E2E00000044656661756C742010
:10B37000636F6E66696775726174696F6E2073655D
:10B38000742E00004465766963652072656D6F7484
:10B39000652077616B65757020656E61626C6564B0
:10B3A000000000004E6F20436C617373206861736E
:10B3B000206265656E207265676973746572656485
:10B3C0002E000000736561726368202568642E009A
:10B3D000466F756E64202568642E00002573206317
:10B3E0006C61737320737461727465642E00000065
:10B3F000446576696365206E6F7420737570706F35
:10B400007274696E6720257320636C6173732E00FC
:10B410004E6F207265676973746572656420636C32
:10B4200061737320666F7220746869732064657637
:10B430006963652E00000000446576696365206ECF
:10B440006F7420726573706F6E64696E6720506CE4
:10B450006561736520556E706C75672E0000000085
:10B46000496E76616C696420436C61737320447229
:10B47000697665722E000000555342204465766956
:10B48000636520646973636F6E6E656374656400E1
:10B490004D617820436C617373204E756D626572E7
:10B4A000207265616368656400000000496E766122
:10B4B0006C696420436C6173732068616E646C65B1
:10B4C00000000000537769746368696E6720746FC9
:10B4D00020496E746572666163652028232564299E
:10B4E00000000000436C617373202020203A202567
:10B4F00078680000537562436C617373203A2025AD
:10B500007868000050726F746F636F6C203A20256A
:10B510007868000043616E6E6F742053656C6563DC
:10B5200074205468697320496E746572666163653E
:10B530002E000000436F6E74726F6C206572726F24
:10B54000723A20446576696365206E6F7420726577
:10B5500073706F6E64696E6700000000436F6E74F5
:10B56000726F6C206572726F723A204849443A20BB
:10B5700044657669636520476574205265706F7213
:10B58000742044657363726970746F7220726571A0
:10B5900075657374206661696C656400436F6E74D1
:10B5A000726F6C206572726F723A204849443A207B
:10B5B000446576696365205365742070726F746F9B
:10B5C000636F6C2072657175657374206661696C58
:10B5D000656400004445425547203A2000000000C1
:10B5E000555342485F4849445F496E7465726661CD
:10B5F0006365496E6974000043616E6E6F74204626
:10B60000696E642074686520696E74657266616332
:10B610006520666F7220257320636C6173732E0042
:10B6200043616E6E6F7420616C6C6F636174652032
:10B630006D656D6F727920666F72204849442048AD
:10B64000616E646C650000004B6579426F617264E5
:10B650002064657669636520666F756E64210000FD
:10B660004D6F7573652064657669636520666F75D7
:10B670006E6421004A6F79737469636B2064657628
:10B6800069636520666F756E6421000050726F7487
:10B690006F636F6C206E6F7420737570706F72744F
:10B6A00065642E0048494400321200200800000062
:10B6B000000600000000000065000000000000001F
:10B6C00065000000010000003012002001000000B1
:10B6D0000200000000000000010000000000000067
:10B6E00001000000010000003012002001000000F5
:10B6F0000000000000000000010000000000000049
:10B7000001000000010000003012002001000000D4
:10B710000300000000000000010000000000000025
:10B7200001000000010000003012002001000000B4
:10B730000100000000000000010000000000000007
:10B740000100000001000000301200200100000094
:10B7500006000000000000000100000000000000E2
:10B760000100000001000000301200200100000074
:10B7700004000000000000000100000000000000C4
:10B780000100000001000000301200200100000054
:10B7900007000000000000000100000000000000A1
:10B7A0000100000001000000301200200100000034
:10B7B0000500000000000000010000000000000083
:10B7C00001000000010000005812002001000000EC
:10B7D0000000000000000000010000000000000068
:10B7E00001000000010000005812002001000000CC
:10B7F0000100000000000000010000000000000047
:10B8000001000000010000005812002001000000AB
:10B810000200000000000000010000000000000025
:10B8200001000000010000005B1200200800000081
:10B830000000010000000000FFFF00000000000009
:10B84000FFFF000001000000591200200800000066
:10B850000000010000000000FFFF000000000000E9
:10B86000FFFF0000010000005A1200200800000045
:10B870000000010000000000FFFF000000000000C9
:10B88000FFFF00000100000063706C6420746F67AC
:10B89000676C6520636F6E6669675F7761697400C6
:10B8A000666C61675F6374726C203D2074727565AD
:10B8B00000000000666C61675F616C74203D20745D
:10B8C00072756500666C61675F64656C203D20740D
:10B8D00072756500555342206B65793A2025640ADC
:10B8E00000000000357838204B44343A2025640AA3
:10B8F00000000000357838204B44333A2025640A94
:10B9000000000000357838204B44323A2025640A84
:10B9100000000000357838204B44313A2025640A75
:10B9200000000000357838204B44303A2025640A66
:10B9300000000000636F6E6669675F38626974209B
:10B9400025780D0A000000004D616B65206275745A
:10B95000746F6E204E4D493A2025640A00000000A5
:10B960004D616B6520627574746F6E20524553454E
:10B97000543A2025640A0000427265616B206275AA
:10B9800074746F6E205245534554000042726561D5
:10B990006B20627574746F6E204E4D49000000007C
:10B9A000707332206D616B65202564202830782506
:10B9B0003278290A0000000030070020494E460076
:10B9C000696E66004E414E006E616E00300030318F
:10B9D00032333435363738394142434445460030F6
:10B9E0003132333435363738396162636465660025
:10B9F000496E66696E697479004E614E0000000000
:10BA00000000000000000000000000000000000036
:10BA10000000000000000000000000000000000026
:10BA20000000000000000000000000000000000016
:10BA30000000000000000000000000000000000006
:10BA400000000000000000000000000000000000F6
:10BA500000000000000000000000000000000000E6
:10BA60000080E03779C34143176E05B5B5B89346FA
:10BA7000F5F93FE9034F384D321D30F94877825AC6
:10BA80003CBF737FDD4F1575000000000000F03FE4
:10BA900000000000000024400000000000005940A9
:10BAA0000000000000408F40000000000088C340FC
:10BAB00000000000006AF8400000000080842E4171
:10BAC00000000000D01263410000000084D79741BD
:10BAD0000000000065CDCD41000000205FA00242C3
:10BAE000000000E876483742000000A2941A6D4238
:10BAF000000040E59C30A2420000901EC4BCD6422B
:10BB000000003426F56B0C430080E03779C34143D5
:10BB100000A0D8855734764300C84E676DC1AB434B
:10BB2000003D9160E458E143408CB5781DAF154469
:10BB300050EFE2D6E41A4B4492D54D06CFF0804444
:10BB4000F64AE1C7022DB544B49DD9794378EA4459
:10BB500005000000190000007D000000232D302B9F
:10BB60002000686C4C0065666745464700430050FE
:10BB70004F534958002E0000202020202020202054
:10BB8000202828282828202020202020202020208D
:10BB900020202020202020208810101010101010AD
:10BBA00010101010101010100404040404040404F5
:10BBB0000404101010101010104141414141410186
:10BBC0000101010101010101010101010101010165
:10BBD0000101011010101010104242424242420274
:10BBE0000202020202020202020202020202020235
:10BBF00002020210101010200000000000000000DF
:10BC00000000000000000000000000000000000034
:10BC10000000000000000000000000000000000024
:10BC20000000000000000000000000000000000014
:10BC30000000000000000000000000000000000004
:10BC400000000000000000000000000000000000F4
:10BC500000000000000000000000000000000000E4
:10BC600000000000000000000000000000000000D4
:08BC70000000000000000000CC
:08BC7800ECEFFF7F010000006A
:08BC8000050C000800000000A3
:08BC8800DD0B000800000000C4
:10BC9000010000001000000000093D00A4B60008EB
:10BCA000030000006965000819650008E9670008DD
:10BCB000AD69000899640008000000000000000061
:10BCC0000000000000000000000000000000000074
:10BCD00000000000028000000000000100000000E1
:10BCE000000200000000040000000200000002004A
:10BCF00000000040000000000000200000004000A4
:10BD00000000000040000000000040000000800033
:10BD10000000800000000000002000000000002063
:10BD20000000000004000400000000000002000405
:10BD300000000000002000000001000000000000E2
:10BD400000040000000100002000000000000000CE
:10BD500001000000000008000000080000000800CA
:10BD600000000800000008000000001000000000B3
:10BD70000010000000000010000000000010000093
:10BD80000000001000000000400000000000000063
:10BD90000000110000000000000000008000000012
:10BDA0000000000000000000000000000000000093
:10BDB0000000000000000000000000000000000083
:10BDC0000000000000000000000000000000000073
:10BDD0000000000000000000000000000000000063
:10BDE0000000000000000000000000000000000053
:10BDF0000000000000000000000000000000000043
:10BE00000000000000000000000000000000000032
:10BE10000000000000000000000000000000000022
:10BE20000000000000000000000000000000000012
:10BE30000000000000000000000000000000000002
:10BE400000000000000000000010000108000000D9
:10BE500001100000000100100000010000000000BF
:10BE600000000000000000000000000000000000D2
:10BE700000000000000000000000000000000000C2
:10BE800000000000000000000000000000000000B2
:10BE900000000000000000000000000000000000A2
:10C12000010000008000000000000000000000008E
:10C1300000000000000000000000000000000000FF
:10C1400000000000000000000000000000000000EF
:10C1500000000000000000000000000000000000DF
:10C1600000000000000000000000000000000000CF
:10C1700000000000000000000000000000000000BF
:10C1800000000000000000000000000000000000AF
:10C19000000000000000000000000000000000009F
:10C1A000000000000000000000000000000000008F
:10C1B000000000000000000000000000000000007F
:10C1C00000000000000000000000000000E200008D
:10C1D000E10000000000000000000000000000007E
:10C1E000000000000000000000000000000000004F
:10C1F000000000000000000000000000000000003F
:10C20000000000000000000000000000000000002E
:10C210000000000000E0000000000000000000003E
:10C22000000000000000005000000000004C510021
:10C230004F5200000000000000000000000000005D
:10C2400000000000000000000000000000000000EE
:10C2500000000000000000000000000000000000DE
:10C2600000000000000000000000000000000000CE
:10C2700000000000000000000000000000000000BE
:10C2800000000000000000000000000000000000AE
:10C29000000000000000000000000000000000009E
:10C2A000000000000000000000000000000000008E
:10C2B0000000000000000000000000000042003EFE
:10C2C000000000450043413F3D00000000E2E00067
:10C2D000E1141E0000001D16041A1F0000061B07B3
:10C2E00008212000002C1909171522000011050B48
:10C2F0000A1C23000000100D1824250000000E0C5D
:10C30000122726000000000F0013000000000000AC
:10C310000000000000E02800000000000000000015
:10C3200000002A00000000000000000000000000E3
:10C330000000000044000000000000000000004079
:10C3400000000000000000000000000000000000ED
:10C3500000000000000000000000000000000000DD
:10C3600000000000000000000000000000000000CD
:10C3700000000000000000000000000000000000BD
:10C3800000000000000000000000000000000000AD
:10C39000000000000000000000000000000000009D
:10C3A000000000000000000000000000000000008D
:10C3B0000000000000000000000000003007002026
:10C3C0000000000020BA000840BA000800BA0008C7
:10C3D000000000000000000000000000000000005D
:10C3E000000000000000000000000000000000004D
:10C3F000000000000000000000000000000000003D
:10C40000000000000000000000000000000000002C
:10C41000000000000000000000000000000000001C
:10C4200043000000000000000000000000000000C9
:10C4300000000000000000000000000000000000FC
:10C4400043000000000000000000000000000000A9
:10C4500000000000000000000000000000000000DC
:10C460004300000000000000000000000000000089
:10C4700000000000000000000000000000000000BC
:10C480004300000000000000000000000000000069
:10C49000000000000000000000000000000000009C
:10C4A0004300000000000000000000000000000049
:10C4B000000000000000000000000000000000007C
:10C4C0004300000000000000000000000000000029
:10C4D000000000000000000000000000000000005C
:10C4E0004300000000000000000000000000000009
:10C4F000000000000000000000000000000000003C
:10C50000DDAB000895AB00080000000077BB000819
:10C5100075BB000861BB000861BB000861BB000877
:10C5200061BB000861BB000861BB000861BB00087B
:10C5300061BB000861BB0008FFFFFFFFFFFFFFFFBB
:10C54000FFFFFFFFFFFF0000010041534349490087
:10C5500000000000000000000000000000000000DB
:10C560000000000000000000000041534349490062
:10C5700000000000000000000000000000000000BB
:10C5800000000000000000000000000000000000AB
:04000005080082D19C
:00000001FF
